{
	"VolunteerCollectionNFT_flattened.sol": {
		"VolunteerCollectionNFT": {
			"abi": [
				{
					"inputs": [
						{
							"internalType": "address",
							"name": "initialOwner",
							"type": "address"
						}
					],
					"stateMutability": "nonpayable",
					"type": "constructor"
				},
				{
					"inputs": [
						{
							"internalType": "address",
							"name": "sender",
							"type": "address"
						},
						{
							"internalType": "uint256",
							"name": "balance",
							"type": "uint256"
						},
						{
							"internalType": "uint256",
							"name": "needed",
							"type": "uint256"
						},
						{
							"internalType": "uint256",
							"name": "tokenId",
							"type": "uint256"
						}
					],
					"name": "ERC1155InsufficientBalance",
					"type": "error"
				},
				{
					"inputs": [
						{
							"internalType": "address",
							"name": "approver",
							"type": "address"
						}
					],
					"name": "ERC1155InvalidApprover",
					"type": "error"
				},
				{
					"inputs": [
						{
							"internalType": "uint256",
							"name": "idsLength",
							"type": "uint256"
						},
						{
							"internalType": "uint256",
							"name": "valuesLength",
							"type": "uint256"
						}
					],
					"name": "ERC1155InvalidArrayLength",
					"type": "error"
				},
				{
					"inputs": [
						{
							"internalType": "address",
							"name": "operator",
							"type": "address"
						}
					],
					"name": "ERC1155InvalidOperator",
					"type": "error"
				},
				{
					"inputs": [
						{
							"internalType": "address",
							"name": "receiver",
							"type": "address"
						}
					],
					"name": "ERC1155InvalidReceiver",
					"type": "error"
				},
				{
					"inputs": [
						{
							"internalType": "address",
							"name": "sender",
							"type": "address"
						}
					],
					"name": "ERC1155InvalidSender",
					"type": "error"
				},
				{
					"inputs": [
						{
							"internalType": "address",
							"name": "operator",
							"type": "address"
						},
						{
							"internalType": "address",
							"name": "owner",
							"type": "address"
						}
					],
					"name": "ERC1155MissingApprovalForAll",
					"type": "error"
				},
				{
					"inputs": [
						{
							"internalType": "address",
							"name": "owner",
							"type": "address"
						}
					],
					"name": "OwnableInvalidOwner",
					"type": "error"
				},
				{
					"inputs": [
						{
							"internalType": "address",
							"name": "account",
							"type": "address"
						}
					],
					"name": "OwnableUnauthorizedAccount",
					"type": "error"
				},
				{
					"anonymous": false,
					"inputs": [
						{
							"indexed": true,
							"internalType": "address",
							"name": "account",
							"type": "address"
						},
						{
							"indexed": true,
							"internalType": "address",
							"name": "operator",
							"type": "address"
						},
						{
							"indexed": false,
							"internalType": "bool",
							"name": "approved",
							"type": "bool"
						}
					],
					"name": "ApprovalForAll",
					"type": "event"
				},
				{
					"anonymous": false,
					"inputs": [
						{
							"indexed": true,
							"internalType": "address",
							"name": "previousOwner",
							"type": "address"
						},
						{
							"indexed": true,
							"internalType": "address",
							"name": "newOwner",
							"type": "address"
						}
					],
					"name": "OwnershipTransferred",
					"type": "event"
				},
				{
					"anonymous": false,
					"inputs": [
						{
							"indexed": true,
							"internalType": "address",
							"name": "operator",
							"type": "address"
						},
						{
							"indexed": true,
							"internalType": "address",
							"name": "from",
							"type": "address"
						},
						{
							"indexed": true,
							"internalType": "address",
							"name": "to",
							"type": "address"
						},
						{
							"indexed": false,
							"internalType": "uint256[]",
							"name": "ids",
							"type": "uint256[]"
						},
						{
							"indexed": false,
							"internalType": "uint256[]",
							"name": "values",
							"type": "uint256[]"
						}
					],
					"name": "TransferBatch",
					"type": "event"
				},
				{
					"anonymous": false,
					"inputs": [
						{
							"indexed": true,
							"internalType": "address",
							"name": "operator",
							"type": "address"
						},
						{
							"indexed": true,
							"internalType": "address",
							"name": "from",
							"type": "address"
						},
						{
							"indexed": true,
							"internalType": "address",
							"name": "to",
							"type": "address"
						},
						{
							"indexed": false,
							"internalType": "uint256",
							"name": "id",
							"type": "uint256"
						},
						{
							"indexed": false,
							"internalType": "uint256",
							"name": "value",
							"type": "uint256"
						}
					],
					"name": "TransferSingle",
					"type": "event"
				},
				{
					"anonymous": false,
					"inputs": [
						{
							"indexed": false,
							"internalType": "string",
							"name": "value",
							"type": "string"
						},
						{
							"indexed": true,
							"internalType": "uint256",
							"name": "id",
							"type": "uint256"
						}
					],
					"name": "URI",
					"type": "event"
				},
				{
					"inputs": [
						{
							"internalType": "address",
							"name": "account",
							"type": "address"
						},
						{
							"internalType": "uint256",
							"name": "id",
							"type": "uint256"
						}
					],
					"name": "balanceOf",
					"outputs": [
						{
							"internalType": "uint256",
							"name": "",
							"type": "uint256"
						}
					],
					"stateMutability": "view",
					"type": "function"
				},
				{
					"inputs": [
						{
							"internalType": "address[]",
							"name": "accounts",
							"type": "address[]"
						},
						{
							"internalType": "uint256[]",
							"name": "ids",
							"type": "uint256[]"
						}
					],
					"name": "balanceOfBatch",
					"outputs": [
						{
							"internalType": "uint256[]",
							"name": "",
							"type": "uint256[]"
						}
					],
					"stateMutability": "view",
					"type": "function"
				},
				{
					"inputs": [
						{
							"internalType": "address",
							"name": "account",
							"type": "address"
						},
						{
							"internalType": "address",
							"name": "operator",
							"type": "address"
						}
					],
					"name": "isApprovedForAll",
					"outputs": [
						{
							"internalType": "bool",
							"name": "",
							"type": "bool"
						}
					],
					"stateMutability": "view",
					"type": "function"
				},
				{
					"inputs": [
						{
							"internalType": "address",
							"name": "account",
							"type": "address"
						},
						{
							"internalType": "uint256",
							"name": "id",
							"type": "uint256"
						},
						{
							"internalType": "uint256",
							"name": "amount",
							"type": "uint256"
						},
						{
							"internalType": "bytes",
							"name": "data",
							"type": "bytes"
						}
					],
					"name": "mint",
					"outputs": [],
					"stateMutability": "nonpayable",
					"type": "function"
				},
				{
					"inputs": [],
					"name": "owner",
					"outputs": [
						{
							"internalType": "address",
							"name": "",
							"type": "address"
						}
					],
					"stateMutability": "view",
					"type": "function"
				},
				{
					"inputs": [],
					"name": "renounceOwnership",
					"outputs": [],
					"stateMutability": "nonpayable",
					"type": "function"
				},
				{
					"inputs": [
						{
							"internalType": "address",
							"name": "from",
							"type": "address"
						},
						{
							"internalType": "address",
							"name": "to",
							"type": "address"
						},
						{
							"internalType": "uint256[]",
							"name": "ids",
							"type": "uint256[]"
						},
						{
							"internalType": "uint256[]",
							"name": "values",
							"type": "uint256[]"
						},
						{
							"internalType": "bytes",
							"name": "data",
							"type": "bytes"
						}
					],
					"name": "safeBatchTransferFrom",
					"outputs": [],
					"stateMutability": "nonpayable",
					"type": "function"
				},
				{
					"inputs": [
						{
							"internalType": "address",
							"name": "from",
							"type": "address"
						},
						{
							"internalType": "address",
							"name": "to",
							"type": "address"
						},
						{
							"internalType": "uint256",
							"name": "id",
							"type": "uint256"
						},
						{
							"internalType": "uint256",
							"name": "value",
							"type": "uint256"
						},
						{
							"internalType": "bytes",
							"name": "data",
							"type": "bytes"
						}
					],
					"name": "safeTransferFrom",
					"outputs": [],
					"stateMutability": "nonpayable",
					"type": "function"
				},
				{
					"inputs": [
						{
							"internalType": "address",
							"name": "operator",
							"type": "address"
						},
						{
							"internalType": "bool",
							"name": "approved",
							"type": "bool"
						}
					],
					"name": "setApprovalForAll",
					"outputs": [],
					"stateMutability": "nonpayable",
					"type": "function"
				},
				{
					"inputs": [
						{
							"internalType": "bytes4",
							"name": "interfaceId",
							"type": "bytes4"
						}
					],
					"name": "supportsInterface",
					"outputs": [
						{
							"internalType": "bool",
							"name": "",
							"type": "bool"
						}
					],
					"stateMutability": "view",
					"type": "function"
				},
				{
					"inputs": [
						{
							"internalType": "address",
							"name": "newOwner",
							"type": "address"
						}
					],
					"name": "transferOwnership",
					"outputs": [],
					"stateMutability": "nonpayable",
					"type": "function"
				},
				{
					"inputs": [
						{
							"internalType": "uint256",
							"name": "",
							"type": "uint256"
						}
					],
					"name": "uri",
					"outputs": [
						{
							"internalType": "string",
							"name": "",
							"type": "string"
						}
					],
					"stateMutability": "view",
					"type": "function"
				}
			],
			"devdoc": {
				"errors": {
					"ERC1155InsufficientBalance(address,uint256,uint256,uint256)": [
						{
							"details": "Indicates an error related to the current `balance` of a `sender`. Used in transfers.",
							"params": {
								"balance": "Current balance for the interacting account.",
								"needed": "Minimum amount required to perform a transfer.",
								"sender": "Address whose tokens are being transferred.",
								"tokenId": "Identifier number of a token."
							}
						}
					],
					"ERC1155InvalidApprover(address)": [
						{
							"details": "Indicates a failure with the `approver` of a token to be approved. Used in approvals.",
							"params": {
								"approver": "Address initiating an approval operation."
							}
						}
					],
					"ERC1155InvalidArrayLength(uint256,uint256)": [
						{
							"details": "Indicates an array length mismatch between ids and values in a safeBatchTransferFrom operation. Used in batch transfers.",
							"params": {
								"idsLength": "Length of the array of token identifiers",
								"valuesLength": "Length of the array of token amounts"
							}
						}
					],
					"ERC1155InvalidOperator(address)": [
						{
							"details": "Indicates a failure with the `operator` to be approved. Used in approvals.",
							"params": {
								"operator": "Address that may be allowed to operate on tokens without being their owner."
							}
						}
					],
					"ERC1155InvalidReceiver(address)": [
						{
							"details": "Indicates a failure with the token `receiver`. Used in transfers.",
							"params": {
								"receiver": "Address to which tokens are being transferred."
							}
						}
					],
					"ERC1155InvalidSender(address)": [
						{
							"details": "Indicates a failure with the token `sender`. Used in transfers.",
							"params": {
								"sender": "Address whose tokens are being transferred."
							}
						}
					],
					"ERC1155MissingApprovalForAll(address,address)": [
						{
							"details": "Indicates a failure with the `operator`’s approval. Used in transfers.",
							"params": {
								"operator": "Address that may be allowed to operate on tokens without being their owner.",
								"owner": "Address of the current owner of a token."
							}
						}
					],
					"OwnableInvalidOwner(address)": [
						{
							"details": "The owner is not a valid owner account. (eg. `address(0)`)"
						}
					],
					"OwnableUnauthorizedAccount(address)": [
						{
							"details": "The caller account is not authorized to perform an operation."
						}
					]
				},
				"events": {
					"ApprovalForAll(address,address,bool)": {
						"details": "Emitted when `account` grants or revokes permission to `operator` to transfer their tokens, according to `approved`."
					},
					"TransferBatch(address,address,address,uint256[],uint256[])": {
						"details": "Equivalent to multiple {TransferSingle} events, where `operator`, `from` and `to` are the same for all transfers."
					},
					"TransferSingle(address,address,address,uint256,uint256)": {
						"details": "Emitted when `value` amount of tokens of type `id` are transferred from `from` to `to` by `operator`."
					},
					"URI(string,uint256)": {
						"details": "Emitted when the URI for token type `id` changes to `value`, if it is a non-programmatic URI. If an {URI} event was emitted for `id`, the standard https://eips.ethereum.org/EIPS/eip-1155#metadata-extensions[guarantees] that `value` will equal the value returned by {IERC1155MetadataURI-uri}."
					}
				},
				"kind": "dev",
				"methods": {
					"balanceOf(address,uint256)": {
						"details": "See {IERC1155-balanceOf}."
					},
					"balanceOfBatch(address[],uint256[])": {
						"details": "See {IERC1155-balanceOfBatch}. Requirements: - `accounts` and `ids` must have the same length."
					},
					"isApprovedForAll(address,address)": {
						"details": "See {IERC1155-isApprovedForAll}."
					},
					"owner()": {
						"details": "Returns the address of the current owner."
					},
					"renounceOwnership()": {
						"details": "Leaves the contract without owner. It will not be possible to call `onlyOwner` functions. Can only be called by the current owner. NOTE: Renouncing ownership will leave the contract without an owner, thereby disabling any functionality that is only available to the owner."
					},
					"safeBatchTransferFrom(address,address,uint256[],uint256[],bytes)": {
						"details": "See {IERC1155-safeBatchTransferFrom}."
					},
					"safeTransferFrom(address,address,uint256,uint256,bytes)": {
						"details": "See {IERC1155-safeTransferFrom}."
					},
					"setApprovalForAll(address,bool)": {
						"details": "See {IERC1155-setApprovalForAll}."
					},
					"supportsInterface(bytes4)": {
						"details": "See {IERC165-supportsInterface}."
					},
					"transferOwnership(address)": {
						"details": "Transfers ownership of the contract to a new account (`newOwner`). Can only be called by the current owner."
					},
					"uri(uint256)": {
						"details": "See {IERC1155MetadataURI-uri}. This implementation returns the same URI for *all* token types. It relies on the token type ID substitution mechanism https://eips.ethereum.org/EIPS/eip-1155#metadata[defined in the EIP]. Clients calling this function must replace the `\\{id\\}` substring with the actual token type ID."
					}
				},
				"version": 1
			},
			"evm": {
				"assembly": "    /* \"VolunteerCollectionNFT_flattened.sol\":60961:61261  contract VolunteerCollectionNFT is ERC1155, Ownable {... */\n  mstore(0x40, 0x80)\n    /* \"VolunteerCollectionNFT_flattened.sol\":61019:61089  constructor(address initialOwner) ERC1155(\"\") Ownable(initialOwner) {} */\n  callvalue\n  dup1\n  iszero\n  tag_1\n  jumpi\n  0x00\n  dup1\n  revert\ntag_1:\n  pop\n  mload(0x40)\n  sub(codesize, bytecodeSize)\n  dup1\n  bytecodeSize\n  dup4\n  codecopy\n  dup2\n  dup2\n  add\n  0x40\n  mstore\n  dup2\n  add\n  swap1\n  tag_2\n  swap2\n  swap1\n  tag_3\n  jump\t// in\ntag_2:\n    /* \"VolunteerCollectionNFT_flattened.sol\":61073:61085  initialOwner */\n  dup1\n    /* \"VolunteerCollectionNFT_flattened.sol\":42134:42196  constructor(string memory uri_) {... */\n  mload(0x40)\n  dup1\n  0x20\n  add\n  0x40\n  mstore\n  dup1\n  0x00\n  dup2\n  mstore\n  pop\n    /* \"VolunteerCollectionNFT_flattened.sol\":42176:42189  _setURI(uri_) */\n  tag_8\n    /* \"VolunteerCollectionNFT_flattened.sol\":42184:42188  uri_ */\n  dup2\n    /* \"VolunteerCollectionNFT_flattened.sol\":42176:42183  _setURI */\n  shl(0x20, tag_9)\n    /* \"VolunteerCollectionNFT_flattened.sol\":42176:42189  _setURI(uri_) */\n  0x20\n  shr\n  jump\t// in\ntag_8:\n    /* \"VolunteerCollectionNFT_flattened.sol\":42134:42196  constructor(string memory uri_) {... */\n  pop\n    /* \"VolunteerCollectionNFT_flattened.sol\":59089:59090  0 */\n  0x00\n    /* \"VolunteerCollectionNFT_flattened.sol\":59065:59091  initialOwner == address(0) */\n  0xffffffffffffffffffffffffffffffffffffffff\n  and\n    /* \"VolunteerCollectionNFT_flattened.sol\":59065:59077  initialOwner */\n  dup2\n    /* \"VolunteerCollectionNFT_flattened.sol\":59065:59091  initialOwner == address(0) */\n  0xffffffffffffffffffffffffffffffffffffffff\n  and\n  sub\n    /* \"VolunteerCollectionNFT_flattened.sol\":59061:59156  if (initialOwner == address(0)) {... */\n  tag_11\n  jumpi\n    /* \"VolunteerCollectionNFT_flattened.sol\":59142:59143  0 */\n  0x00\n    /* \"VolunteerCollectionNFT_flattened.sol\":59114:59145  OwnableInvalidOwner(address(0)) */\n  mload(0x40)\n  0x1e4fbdf700000000000000000000000000000000000000000000000000000000\n  dup2\n  mstore\n  0x04\n  add\n  tag_12\n  swap2\n  swap1\n  tag_13\n  jump\t// in\ntag_12:\n  mload(0x40)\n  dup1\n  swap2\n  sub\n  swap1\n  revert\n    /* \"VolunteerCollectionNFT_flattened.sol\":59061:59156  if (initialOwner == address(0)) {... */\ntag_11:\n    /* \"VolunteerCollectionNFT_flattened.sol\":59165:59197  _transferOwnership(initialOwner) */\n  tag_14\n    /* \"VolunteerCollectionNFT_flattened.sol\":59184:59196  initialOwner */\n  dup2\n    /* \"VolunteerCollectionNFT_flattened.sol\":59165:59183  _transferOwnership */\n  shl(0x20, tag_15)\n    /* \"VolunteerCollectionNFT_flattened.sol\":59165:59197  _transferOwnership(initialOwner) */\n  0x20\n  shr\n  jump\t// in\ntag_14:\n    /* \"VolunteerCollectionNFT_flattened.sol\":59017:59204  constructor(address initialOwner) {... */\n  pop\n    /* \"VolunteerCollectionNFT_flattened.sol\":61019:61089  constructor(address initialOwner) ERC1155(\"\") Ownable(initialOwner) {} */\n  pop\n    /* \"VolunteerCollectionNFT_flattened.sol\":60961:61261  contract VolunteerCollectionNFT is ERC1155, Ownable {... */\n  jump(tag_17)\n    /* \"VolunteerCollectionNFT_flattened.sol\":51165:51251  function _setURI(string memory newuri) internal virtual {... */\ntag_9:\n    /* \"VolunteerCollectionNFT_flattened.sol\":51238:51244  newuri */\n  dup1\n    /* \"VolunteerCollectionNFT_flattened.sol\":51231:51235  _uri */\n  0x02\n    /* \"VolunteerCollectionNFT_flattened.sol\":51231:51244  _uri = newuri */\n  swap1\n  dup2\n  tag_19\n  swap2\n  swap1\n  tag_20\n  jump\t// in\ntag_19:\n  pop\n    /* \"VolunteerCollectionNFT_flattened.sol\":51165:51251  function _setURI(string memory newuri) internal virtual {... */\n  pop\n  jump\t// out\n    /* \"VolunteerCollectionNFT_flattened.sol\":60704:60891  function _transferOwnership(address newOwner) internal virtual {... */\ntag_15:\n    /* \"VolunteerCollectionNFT_flattened.sol\":60777:60793  address oldOwner */\n  0x00\n    /* \"VolunteerCollectionNFT_flattened.sol\":60796:60802  _owner */\n  0x03\n  0x00\n  swap1\n  sload\n  swap1\n  0x0100\n  exp\n  swap1\n  div\n  0xffffffffffffffffffffffffffffffffffffffff\n  and\n    /* \"VolunteerCollectionNFT_flattened.sol\":60777:60802  address oldOwner = _owner */\n  swap1\n  pop\n    /* \"VolunteerCollectionNFT_flattened.sol\":60821:60829  newOwner */\n  dup2\n    /* \"VolunteerCollectionNFT_flattened.sol\":60812:60818  _owner */\n  0x03\n  0x00\n    /* \"VolunteerCollectionNFT_flattened.sol\":60812:60829  _owner = newOwner */\n  0x0100\n  exp\n  dup2\n  sload\n  dup2\n  0xffffffffffffffffffffffffffffffffffffffff\n  mul\n  not\n  and\n  swap1\n  dup4\n  0xffffffffffffffffffffffffffffffffffffffff\n  and\n  mul\n  or\n  swap1\n  sstore\n  pop\n    /* \"VolunteerCollectionNFT_flattened.sol\":60875:60883  newOwner */\n  dup2\n    /* \"VolunteerCollectionNFT_flattened.sol\":60844:60884  OwnershipTransferred(oldOwner, newOwner) */\n  0xffffffffffffffffffffffffffffffffffffffff\n  and\n    /* \"VolunteerCollectionNFT_flattened.sol\":60865:60873  oldOwner */\n  dup2\n    /* \"VolunteerCollectionNFT_flattened.sol\":60844:60884  OwnershipTransferred(oldOwner, newOwner) */\n  0xffffffffffffffffffffffffffffffffffffffff\n  and\n  0x8be0079c531659141344cd1fd0a4f28419497f9722a3daafe3b4186f6b6457e0\n  mload(0x40)\n  mload(0x40)\n  dup1\n  swap2\n  sub\n  swap1\n  log3\n    /* \"VolunteerCollectionNFT_flattened.sol\":60767:60891  {... */\n  pop\n    /* \"VolunteerCollectionNFT_flattened.sol\":60704:60891  function _transferOwnership(address newOwner) internal virtual {... */\n  pop\n  jump\t// out\n    /* \"#utility.yul\":88:205   */\ntag_23:\n    /* \"#utility.yul\":197:198   */\n  0x00\n    /* \"#utility.yul\":194:195   */\n  dup1\n    /* \"#utility.yul\":187:199   */\n  revert\n    /* \"#utility.yul\":334:460   */\ntag_25:\n    /* \"#utility.yul\":371:378   */\n  0x00\n    /* \"#utility.yul\":411:453   */\n  0xffffffffffffffffffffffffffffffffffffffff\n    /* \"#utility.yul\":404:409   */\n  dup3\n    /* \"#utility.yul\":400:454   */\n  and\n    /* \"#utility.yul\":389:454   */\n  swap1\n  pop\n    /* \"#utility.yul\":334:460   */\n  swap2\n  swap1\n  pop\n  jump\t// out\n    /* \"#utility.yul\":466:562   */\ntag_26:\n    /* \"#utility.yul\":503:510   */\n  0x00\n    /* \"#utility.yul\":532:556   */\n  tag_56\n    /* \"#utility.yul\":550:555   */\n  dup3\n    /* \"#utility.yul\":532:556   */\n  tag_25\n  jump\t// in\ntag_56:\n    /* \"#utility.yul\":521:556   */\n  swap1\n  pop\n    /* \"#utility.yul\":466:562   */\n  swap2\n  swap1\n  pop\n  jump\t// out\n    /* \"#utility.yul\":568:690   */\ntag_27:\n    /* \"#utility.yul\":641:665   */\n  tag_58\n    /* \"#utility.yul\":659:664   */\n  dup2\n    /* \"#utility.yul\":641:665   */\n  tag_26\n  jump\t// in\ntag_58:\n    /* \"#utility.yul\":634:639   */\n  dup2\n    /* \"#utility.yul\":631:666   */\n  eq\n    /* \"#utility.yul\":621:684   */\n  tag_59\n  jumpi\n    /* \"#utility.yul\":680:681   */\n  0x00\n    /* \"#utility.yul\":677:678   */\n  dup1\n    /* \"#utility.yul\":670:682   */\n  revert\n    /* \"#utility.yul\":621:684   */\ntag_59:\n    /* \"#utility.yul\":568:690   */\n  pop\n  jump\t// out\n    /* \"#utility.yul\":696:839   */\ntag_28:\n    /* \"#utility.yul\":753:758   */\n  0x00\n    /* \"#utility.yul\":784:790   */\n  dup2\n    /* \"#utility.yul\":778:791   */\n  mload\n    /* \"#utility.yul\":769:791   */\n  swap1\n  pop\n    /* \"#utility.yul\":800:833   */\n  tag_61\n    /* \"#utility.yul\":827:832   */\n  dup2\n    /* \"#utility.yul\":800:833   */\n  tag_27\n  jump\t// in\ntag_61:\n    /* \"#utility.yul\":696:839   */\n  swap3\n  swap2\n  pop\n  pop\n  jump\t// out\n    /* \"#utility.yul\":845:1196   */\ntag_3:\n    /* \"#utility.yul\":915:921   */\n  0x00\n    /* \"#utility.yul\":964:966   */\n  0x20\n    /* \"#utility.yul\":952:961   */\n  dup3\n    /* \"#utility.yul\":943:950   */\n  dup5\n    /* \"#utility.yul\":939:962   */\n  sub\n    /* \"#utility.yul\":935:967   */\n  slt\n    /* \"#utility.yul\":932:1051   */\n  iszero\n  tag_63\n  jumpi\n    /* \"#utility.yul\":970:1049   */\n  tag_64\n  tag_23\n  jump\t// in\ntag_64:\n    /* \"#utility.yul\":932:1051   */\ntag_63:\n    /* \"#utility.yul\":1090:1091   */\n  0x00\n    /* \"#utility.yul\":1115:1179   */\n  tag_65\n    /* \"#utility.yul\":1171:1178   */\n  dup5\n    /* \"#utility.yul\":1162:1168   */\n  dup3\n    /* \"#utility.yul\":1151:1160   */\n  dup6\n    /* \"#utility.yul\":1147:1169   */\n  add\n    /* \"#utility.yul\":1115:1179   */\n  tag_28\n  jump\t// in\ntag_65:\n    /* \"#utility.yul\":1105:1179   */\n  swap2\n  pop\n    /* \"#utility.yul\":1061:1189   */\n  pop\n    /* \"#utility.yul\":845:1196   */\n  swap3\n  swap2\n  pop\n  pop\n  jump\t// out\n    /* \"#utility.yul\":1202:1320   */\ntag_29:\n    /* \"#utility.yul\":1289:1313   */\n  tag_67\n    /* \"#utility.yul\":1307:1312   */\n  dup2\n    /* \"#utility.yul\":1289:1313   */\n  tag_26\n  jump\t// in\ntag_67:\n    /* \"#utility.yul\":1284:1287   */\n  dup3\n    /* \"#utility.yul\":1277:1314   */\n  mstore\n    /* \"#utility.yul\":1202:1320   */\n  pop\n  pop\n  jump\t// out\n    /* \"#utility.yul\":1326:1548   */\ntag_13:\n    /* \"#utility.yul\":1419:1423   */\n  0x00\n    /* \"#utility.yul\":1457:1459   */\n  0x20\n    /* \"#utility.yul\":1446:1455   */\n  dup3\n    /* \"#utility.yul\":1442:1460   */\n  add\n    /* \"#utility.yul\":1434:1460   */\n  swap1\n  pop\n    /* \"#utility.yul\":1470:1541   */\n  tag_69\n    /* \"#utility.yul\":1538:1539   */\n  0x00\n    /* \"#utility.yul\":1527:1536   */\n  dup4\n    /* \"#utility.yul\":1523:1540   */\n  add\n    /* \"#utility.yul\":1514:1520   */\n  dup5\n    /* \"#utility.yul\":1470:1541   */\n  tag_29\n  jump\t// in\ntag_69:\n    /* \"#utility.yul\":1326:1548   */\n  swap3\n  swap2\n  pop\n  pop\n  jump\t// out\n    /* \"#utility.yul\":1554:1653   */\ntag_30:\n    /* \"#utility.yul\":1606:1612   */\n  0x00\n    /* \"#utility.yul\":1640:1645   */\n  dup2\n    /* \"#utility.yul\":1634:1646   */\n  mload\n    /* \"#utility.yul\":1624:1646   */\n  swap1\n  pop\n    /* \"#utility.yul\":1554:1653   */\n  swap2\n  swap1\n  pop\n  jump\t// out\n    /* \"#utility.yul\":1659:1839   */\ntag_31:\n    /* \"#utility.yul\":1707:1784   */\n  0x4e487b7100000000000000000000000000000000000000000000000000000000\n    /* \"#utility.yul\":1704:1705   */\n  0x00\n    /* \"#utility.yul\":1697:1785   */\n  mstore\n    /* \"#utility.yul\":1804:1808   */\n  0x41\n    /* \"#utility.yul\":1801:1802   */\n  0x04\n    /* \"#utility.yul\":1794:1809   */\n  mstore\n    /* \"#utility.yul\":1828:1832   */\n  0x24\n    /* \"#utility.yul\":1825:1826   */\n  0x00\n    /* \"#utility.yul\":1818:1833   */\n  revert\n    /* \"#utility.yul\":1845:2025   */\ntag_32:\n    /* \"#utility.yul\":1893:1970   */\n  0x4e487b7100000000000000000000000000000000000000000000000000000000\n    /* \"#utility.yul\":1890:1891   */\n  0x00\n    /* \"#utility.yul\":1883:1971   */\n  mstore\n    /* \"#utility.yul\":1990:1994   */\n  0x22\n    /* \"#utility.yul\":1987:1988   */\n  0x04\n    /* \"#utility.yul\":1980:1995   */\n  mstore\n    /* \"#utility.yul\":2014:2018   */\n  0x24\n    /* \"#utility.yul\":2011:2012   */\n  0x00\n    /* \"#utility.yul\":2004:2019   */\n  revert\n    /* \"#utility.yul\":2031:2351   */\ntag_33:\n    /* \"#utility.yul\":2075:2081   */\n  0x00\n    /* \"#utility.yul\":2112:2113   */\n  0x02\n    /* \"#utility.yul\":2106:2110   */\n  dup3\n    /* \"#utility.yul\":2102:2114   */\n  div\n    /* \"#utility.yul\":2092:2114   */\n  swap1\n  pop\n    /* \"#utility.yul\":2159:2160   */\n  0x01\n    /* \"#utility.yul\":2153:2157   */\n  dup3\n    /* \"#utility.yul\":2149:2161   */\n  and\n    /* \"#utility.yul\":2180:2198   */\n  dup1\n    /* \"#utility.yul\":2170:2251   */\n  tag_74\n  jumpi\n    /* \"#utility.yul\":2236:2240   */\n  0x7f\n    /* \"#utility.yul\":2228:2234   */\n  dup3\n    /* \"#utility.yul\":2224:2241   */\n  and\n    /* \"#utility.yul\":2214:2241   */\n  swap2\n  pop\n    /* \"#utility.yul\":2170:2251   */\ntag_74:\n    /* \"#utility.yul\":2298:2300   */\n  0x20\n    /* \"#utility.yul\":2290:2296   */\n  dup3\n    /* \"#utility.yul\":2287:2301   */\n  lt\n    /* \"#utility.yul\":2267:2285   */\n  dup2\n    /* \"#utility.yul\":2264:2302   */\n  sub\n    /* \"#utility.yul\":2261:2345   */\n  tag_75\n  jumpi\n    /* \"#utility.yul\":2317:2335   */\n  tag_76\n  tag_32\n  jump\t// in\ntag_76:\n    /* \"#utility.yul\":2261:2345   */\ntag_75:\n    /* \"#utility.yul\":2082:2351   */\n  pop\n    /* \"#utility.yul\":2031:2351   */\n  swap2\n  swap1\n  pop\n  jump\t// out\n    /* \"#utility.yul\":2357:2498   */\ntag_34:\n    /* \"#utility.yul\":2406:2410   */\n  0x00\n    /* \"#utility.yul\":2429:2432   */\n  dup2\n    /* \"#utility.yul\":2421:2432   */\n  swap1\n  pop\n    /* \"#utility.yul\":2452:2455   */\n  dup2\n    /* \"#utility.yul\":2449:2450   */\n  0x00\n    /* \"#utility.yul\":2442:2456   */\n  mstore\n    /* \"#utility.yul\":2486:2490   */\n  0x20\n    /* \"#utility.yul\":2483:2484   */\n  0x00\n    /* \"#utility.yul\":2473:2491   */\n  keccak256\n    /* \"#utility.yul\":2465:2491   */\n  swap1\n  pop\n    /* \"#utility.yul\":2357:2498   */\n  swap2\n  swap1\n  pop\n  jump\t// out\n    /* \"#utility.yul\":2504:2597   */\ntag_35:\n    /* \"#utility.yul\":2541:2547   */\n  0x00\n    /* \"#utility.yul\":2588:2590   */\n  0x20\n    /* \"#utility.yul\":2583:2585   */\n  0x1f\n    /* \"#utility.yul\":2576:2581   */\n  dup4\n    /* \"#utility.yul\":2572:2586   */\n  add\n    /* \"#utility.yul\":2568:2591   */\n  div\n    /* \"#utility.yul\":2558:2591   */\n  swap1\n  pop\n    /* \"#utility.yul\":2504:2597   */\n  swap2\n  swap1\n  pop\n  jump\t// out\n    /* \"#utility.yul\":2603:2710   */\ntag_36:\n    /* \"#utility.yul\":2647:2655   */\n  0x00\n    /* \"#utility.yul\":2697:2702   */\n  dup3\n    /* \"#utility.yul\":2691:2695   */\n  dup3\n    /* \"#utility.yul\":2687:2703   */\n  shl\n    /* \"#utility.yul\":2666:2703   */\n  swap1\n  pop\n    /* \"#utility.yul\":2603:2710   */\n  swap3\n  swap2\n  pop\n  pop\n  jump\t// out\n    /* \"#utility.yul\":2716:3109   */\ntag_37:\n    /* \"#utility.yul\":2785:2791   */\n  0x00\n    /* \"#utility.yul\":2835:2836   */\n  0x08\n    /* \"#utility.yul\":2823:2833   */\n  dup4\n    /* \"#utility.yul\":2819:2837   */\n  mul\n    /* \"#utility.yul\":2858:2955   */\n  tag_81\n    /* \"#utility.yul\":2888:2954   */\n  0xffffffffffffffffffffffffffffffffffffffffffffffffffffffffffffffff\n    /* \"#utility.yul\":2877:2886   */\n  dup3\n    /* \"#utility.yul\":2858:2955   */\n  tag_36\n  jump\t// in\ntag_81:\n    /* \"#utility.yul\":2976:3015   */\n  tag_82\n    /* \"#utility.yul\":3006:3014   */\n  dup7\n    /* \"#utility.yul\":2995:3004   */\n  dup4\n    /* \"#utility.yul\":2976:3015   */\n  tag_36\n  jump\t// in\ntag_82:\n    /* \"#utility.yul\":2964:3015   */\n  swap6\n  pop\n    /* \"#utility.yul\":3048:3052   */\n  dup1\n    /* \"#utility.yul\":3044:3053   */\n  not\n    /* \"#utility.yul\":3037:3042   */\n  dup5\n    /* \"#utility.yul\":3033:3054   */\n  and\n    /* \"#utility.yul\":3024:3054   */\n  swap4\n  pop\n    /* \"#utility.yul\":3097:3101   */\n  dup1\n    /* \"#utility.yul\":3087:3095   */\n  dup7\n    /* \"#utility.yul\":3083:3102   */\n  and\n    /* \"#utility.yul\":3076:3081   */\n  dup5\n    /* \"#utility.yul\":3073:3103   */\n  or\n    /* \"#utility.yul\":3063:3103   */\n  swap3\n  pop\n    /* \"#utility.yul\":2792:3109   */\n  pop\n  pop\n    /* \"#utility.yul\":2716:3109   */\n  swap4\n  swap3\n  pop\n  pop\n  pop\n  jump\t// out\n    /* \"#utility.yul\":3115:3192   */\ntag_38:\n    /* \"#utility.yul\":3152:3159   */\n  0x00\n    /* \"#utility.yul\":3181:3186   */\n  dup2\n    /* \"#utility.yul\":3170:3186   */\n  swap1\n  pop\n    /* \"#utility.yul\":3115:3192   */\n  swap2\n  swap1\n  pop\n  jump\t// out\n    /* \"#utility.yul\":3198:3258   */\ntag_39:\n    /* \"#utility.yul\":3226:3229   */\n  0x00\n    /* \"#utility.yul\":3247:3252   */\n  dup2\n    /* \"#utility.yul\":3240:3252   */\n  swap1\n  pop\n    /* \"#utility.yul\":3198:3258   */\n  swap2\n  swap1\n  pop\n  jump\t// out\n    /* \"#utility.yul\":3264:3406   */\ntag_40:\n    /* \"#utility.yul\":3314:3323   */\n  0x00\n    /* \"#utility.yul\":3347:3400   */\n  tag_86\n    /* \"#utility.yul\":3365:3399   */\n  tag_87\n    /* \"#utility.yul\":3374:3398   */\n  tag_88\n    /* \"#utility.yul\":3392:3397   */\n  dup5\n    /* \"#utility.yul\":3374:3398   */\n  tag_38\n  jump\t// in\ntag_88:\n    /* \"#utility.yul\":3365:3399   */\n  tag_39\n  jump\t// in\ntag_87:\n    /* \"#utility.yul\":3347:3400   */\n  tag_38\n  jump\t// in\ntag_86:\n    /* \"#utility.yul\":3334:3400   */\n  swap1\n  pop\n    /* \"#utility.yul\":3264:3406   */\n  swap2\n  swap1\n  pop\n  jump\t// out\n    /* \"#utility.yul\":3412:3487   */\ntag_41:\n    /* \"#utility.yul\":3455:3458   */\n  0x00\n    /* \"#utility.yul\":3476:3481   */\n  dup2\n    /* \"#utility.yul\":3469:3481   */\n  swap1\n  pop\n    /* \"#utility.yul\":3412:3487   */\n  swap2\n  swap1\n  pop\n  jump\t// out\n    /* \"#utility.yul\":3493:3762   */\ntag_42:\n    /* \"#utility.yul\":3603:3642   */\n  tag_91\n    /* \"#utility.yul\":3634:3641   */\n  dup4\n    /* \"#utility.yul\":3603:3642   */\n  tag_40\n  jump\t// in\ntag_91:\n    /* \"#utility.yul\":3664:3755   */\n  tag_92\n    /* \"#utility.yul\":3713:3754   */\n  tag_93\n    /* \"#utility.yul\":3737:3753   */\n  dup3\n    /* \"#utility.yul\":3713:3754   */\n  tag_41\n  jump\t// in\ntag_93:\n    /* \"#utility.yul\":3705:3711   */\n  dup5\n    /* \"#utility.yul\":3698:3702   */\n  dup5\n    /* \"#utility.yul\":3692:3703   */\n  sload\n    /* \"#utility.yul\":3664:3755   */\n  tag_37\n  jump\t// in\ntag_92:\n    /* \"#utility.yul\":3658:3662   */\n  dup3\n    /* \"#utility.yul\":3651:3756   */\n  sstore\n    /* \"#utility.yul\":3569:3762   */\n  pop\n    /* \"#utility.yul\":3493:3762   */\n  pop\n  pop\n  pop\n  jump\t// out\n    /* \"#utility.yul\":3768:3841   */\ntag_43:\n    /* \"#utility.yul\":3813:3816   */\n  0x00\n    /* \"#utility.yul\":3768:3841   */\n  swap1\n  jump\t// out\n    /* \"#utility.yul\":3847:4036   */\ntag_44:\n    /* \"#utility.yul\":3924:3956   */\n  tag_96\n  tag_43\n  jump\t// in\ntag_96:\n    /* \"#utility.yul\":3965:4030   */\n  tag_97\n    /* \"#utility.yul\":4023:4029   */\n  dup2\n    /* \"#utility.yul\":4015:4021   */\n  dup5\n    /* \"#utility.yul\":4009:4013   */\n  dup5\n    /* \"#utility.yul\":3965:4030   */\n  tag_42\n  jump\t// in\ntag_97:\n    /* \"#utility.yul\":3900:4036   */\n  pop\n    /* \"#utility.yul\":3847:4036   */\n  pop\n  pop\n  jump\t// out\n    /* \"#utility.yul\":4042:4228   */\ntag_45:\n    /* \"#utility.yul\":4102:4222   */\ntag_99:\n    /* \"#utility.yul\":4119:4122   */\n  dup2\n    /* \"#utility.yul\":4112:4117   */\n  dup2\n    /* \"#utility.yul\":4109:4123   */\n  lt\n    /* \"#utility.yul\":4102:4222   */\n  iszero\n  tag_101\n  jumpi\n    /* \"#utility.yul\":4173:4212   */\n  tag_102\n    /* \"#utility.yul\":4210:4211   */\n  0x00\n    /* \"#utility.yul\":4203:4208   */\n  dup3\n    /* \"#utility.yul\":4173:4212   */\n  tag_44\n  jump\t// in\ntag_102:\n    /* \"#utility.yul\":4146:4147   */\n  0x01\n    /* \"#utility.yul\":4139:4144   */\n  dup2\n    /* \"#utility.yul\":4135:4148   */\n  add\n    /* \"#utility.yul\":4126:4148   */\n  swap1\n  pop\n    /* \"#utility.yul\":4102:4222   */\n  jump(tag_99)\ntag_101:\n    /* \"#utility.yul\":4042:4228   */\n  pop\n  pop\n  jump\t// out\n    /* \"#utility.yul\":4234:4777   */\ntag_46:\n    /* \"#utility.yul\":4335:4337   */\n  0x1f\n    /* \"#utility.yul\":4330:4333   */\n  dup3\n    /* \"#utility.yul\":4327:4338   */\n  gt\n    /* \"#utility.yul\":4324:4770   */\n  iszero\n  tag_104\n  jumpi\n    /* \"#utility.yul\":4369:4407   */\n  tag_105\n    /* \"#utility.yul\":4401:4406   */\n  dup2\n    /* \"#utility.yul\":4369:4407   */\n  tag_34\n  jump\t// in\ntag_105:\n    /* \"#utility.yul\":4453:4482   */\n  tag_106\n    /* \"#utility.yul\":4471:4481   */\n  dup5\n    /* \"#utility.yul\":4453:4482   */\n  tag_35\n  jump\t// in\ntag_106:\n    /* \"#utility.yul\":4443:4451   */\n  dup2\n    /* \"#utility.yul\":4439:4483   */\n  add\n    /* \"#utility.yul\":4636:4638   */\n  0x20\n    /* \"#utility.yul\":4624:4634   */\n  dup6\n    /* \"#utility.yul\":4621:4639   */\n  lt\n    /* \"#utility.yul\":4618:4667   */\n  iszero\n  tag_107\n  jumpi\n    /* \"#utility.yul\":4657:4665   */\n  dup2\n    /* \"#utility.yul\":4642:4665   */\n  swap1\n  pop\n    /* \"#utility.yul\":4618:4667   */\ntag_107:\n    /* \"#utility.yul\":4680:4760   */\n  tag_108\n    /* \"#utility.yul\":4736:4758   */\n  tag_109\n    /* \"#utility.yul\":4754:4757   */\n  dup6\n    /* \"#utility.yul\":4736:4758   */\n  tag_35\n  jump\t// in\ntag_109:\n    /* \"#utility.yul\":4726:4734   */\n  dup4\n    /* \"#utility.yul\":4722:4759   */\n  add\n    /* \"#utility.yul\":4709:4720   */\n  dup3\n    /* \"#utility.yul\":4680:4760   */\n  tag_45\n  jump\t// in\ntag_108:\n    /* \"#utility.yul\":4339:4770   */\n  pop\n  pop\n    /* \"#utility.yul\":4324:4770   */\ntag_104:\n    /* \"#utility.yul\":4234:4777   */\n  pop\n  pop\n  pop\n  jump\t// out\n    /* \"#utility.yul\":4783:4900   */\ntag_47:\n    /* \"#utility.yul\":4837:4845   */\n  0x00\n    /* \"#utility.yul\":4887:4892   */\n  dup3\n    /* \"#utility.yul\":4881:4885   */\n  dup3\n    /* \"#utility.yul\":4877:4893   */\n  shr\n    /* \"#utility.yul\":4856:4893   */\n  swap1\n  pop\n    /* \"#utility.yul\":4783:4900   */\n  swap3\n  swap2\n  pop\n  pop\n  jump\t// out\n    /* \"#utility.yul\":4906:5075   */\ntag_48:\n    /* \"#utility.yul\":4950:4956   */\n  0x00\n    /* \"#utility.yul\":4983:5034   */\n  tag_112\n    /* \"#utility.yul\":5031:5032   */\n  0x00\n    /* \"#utility.yul\":5027:5033   */\n  not\n    /* \"#utility.yul\":5019:5024   */\n  dup5\n    /* \"#utility.yul\":5016:5017   */\n  0x08\n    /* \"#utility.yul\":5012:5025   */\n  mul\n    /* \"#utility.yul\":4983:5034   */\n  tag_47\n  jump\t// in\ntag_112:\n    /* \"#utility.yul\":4979:5035   */\n  not\n    /* \"#utility.yul\":5064:5068   */\n  dup1\n    /* \"#utility.yul\":5058:5062   */\n  dup4\n    /* \"#utility.yul\":5054:5069   */\n  and\n    /* \"#utility.yul\":5044:5069   */\n  swap2\n  pop\n    /* \"#utility.yul\":4957:5075   */\n  pop\n    /* \"#utility.yul\":4906:5075   */\n  swap3\n  swap2\n  pop\n  pop\n  jump\t// out\n    /* \"#utility.yul\":5080:5375   */\ntag_49:\n    /* \"#utility.yul\":5156:5160   */\n  0x00\n    /* \"#utility.yul\":5302:5331   */\n  tag_114\n    /* \"#utility.yul\":5327:5330   */\n  dup4\n    /* \"#utility.yul\":5321:5325   */\n  dup4\n    /* \"#utility.yul\":5302:5331   */\n  tag_48\n  jump\t// in\ntag_114:\n    /* \"#utility.yul\":5294:5331   */\n  swap2\n  pop\n    /* \"#utility.yul\":5364:5367   */\n  dup3\n    /* \"#utility.yul\":5361:5362   */\n  0x02\n    /* \"#utility.yul\":5357:5368   */\n  mul\n    /* \"#utility.yul\":5351:5355   */\n  dup3\n    /* \"#utility.yul\":5348:5369   */\n  or\n    /* \"#utility.yul\":5340:5369   */\n  swap1\n  pop\n    /* \"#utility.yul\":5080:5375   */\n  swap3\n  swap2\n  pop\n  pop\n  jump\t// out\n    /* \"#utility.yul\":5380:6775   */\ntag_20:\n    /* \"#utility.yul\":5497:5534   */\n  tag_116\n    /* \"#utility.yul\":5530:5533   */\n  dup3\n    /* \"#utility.yul\":5497:5534   */\n  tag_30\n  jump\t// in\ntag_116:\n    /* \"#utility.yul\":5599:5617   */\n  0xffffffffffffffff\n    /* \"#utility.yul\":5591:5597   */\n  dup2\n    /* \"#utility.yul\":5588:5618   */\n  gt\n    /* \"#utility.yul\":5585:5641   */\n  iszero\n  tag_117\n  jumpi\n    /* \"#utility.yul\":5621:5639   */\n  tag_118\n  tag_31\n  jump\t// in\ntag_118:\n    /* \"#utility.yul\":5585:5641   */\ntag_117:\n    /* \"#utility.yul\":5665:5703   */\n  tag_119\n    /* \"#utility.yul\":5697:5701   */\n  dup3\n    /* \"#utility.yul\":5691:5702   */\n  sload\n    /* \"#utility.yul\":5665:5703   */\n  tag_33\n  jump\t// in\ntag_119:\n    /* \"#utility.yul\":5750:5817   */\n  tag_120\n    /* \"#utility.yul\":5810:5816   */\n  dup3\n    /* \"#utility.yul\":5802:5808   */\n  dup3\n    /* \"#utility.yul\":5796:5800   */\n  dup6\n    /* \"#utility.yul\":5750:5817   */\n  tag_46\n  jump\t// in\ntag_120:\n    /* \"#utility.yul\":5844:5845   */\n  0x00\n    /* \"#utility.yul\":5868:5872   */\n  0x20\n    /* \"#utility.yul\":5855:5872   */\n  swap1\n  pop\n    /* \"#utility.yul\":5900:5902   */\n  0x1f\n    /* \"#utility.yul\":5892:5898   */\n  dup4\n    /* \"#utility.yul\":5889:5903   */\n  gt\n    /* \"#utility.yul\":5917:5918   */\n  0x01\n    /* \"#utility.yul\":5912:6530   */\n  dup2\n  eq\n  tag_122\n  jumpi\n    /* \"#utility.yul\":6574:6575   */\n  0x00\n    /* \"#utility.yul\":6591:6597   */\n  dup5\n    /* \"#utility.yul\":6588:6665   */\n  iszero\n  tag_123\n  jumpi\n    /* \"#utility.yul\":6640:6649   */\n  dup3\n    /* \"#utility.yul\":6635:6638   */\n  dup8\n    /* \"#utility.yul\":6631:6650   */\n  add\n    /* \"#utility.yul\":6625:6651   */\n  mload\n    /* \"#utility.yul\":6616:6651   */\n  swap1\n  pop\n    /* \"#utility.yul\":6588:6665   */\ntag_123:\n    /* \"#utility.yul\":6691:6758   */\n  tag_124\n    /* \"#utility.yul\":6751:6757   */\n  dup6\n    /* \"#utility.yul\":6744:6749   */\n  dup3\n    /* \"#utility.yul\":6691:6758   */\n  tag_49\n  jump\t// in\ntag_124:\n    /* \"#utility.yul\":6685:6689   */\n  dup7\n    /* \"#utility.yul\":6678:6759   */\n  sstore\n    /* \"#utility.yul\":6547:6769   */\n  pop\n    /* \"#utility.yul\":5882:6769   */\n  jump(tag_121)\n    /* \"#utility.yul\":5912:6530   */\ntag_122:\n    /* \"#utility.yul\":5964:5968   */\n  0x1f\n    /* \"#utility.yul\":5960:5969   */\n  not\n    /* \"#utility.yul\":5952:5958   */\n  dup5\n    /* \"#utility.yul\":5948:5970   */\n  and\n    /* \"#utility.yul\":5998:6035   */\n  tag_125\n    /* \"#utility.yul\":6030:6034   */\n  dup7\n    /* \"#utility.yul\":5998:6035   */\n  tag_34\n  jump\t// in\ntag_125:\n    /* \"#utility.yul\":6057:6058   */\n  0x00\n    /* \"#utility.yul\":6071:6279   */\ntag_126:\n    /* \"#utility.yul\":6085:6092   */\n  dup3\n    /* \"#utility.yul\":6082:6083   */\n  dup2\n    /* \"#utility.yul\":6079:6093   */\n  lt\n    /* \"#utility.yul\":6071:6279   */\n  iszero\n  tag_128\n  jumpi\n    /* \"#utility.yul\":6164:6173   */\n  dup5\n    /* \"#utility.yul\":6159:6162   */\n  dup10\n    /* \"#utility.yul\":6155:6174   */\n  add\n    /* \"#utility.yul\":6149:6175   */\n  mload\n    /* \"#utility.yul\":6141:6147   */\n  dup3\n    /* \"#utility.yul\":6134:6176   */\n  sstore\n    /* \"#utility.yul\":6215:6216   */\n  0x01\n    /* \"#utility.yul\":6207:6213   */\n  dup3\n    /* \"#utility.yul\":6203:6217   */\n  add\n    /* \"#utility.yul\":6193:6217   */\n  swap2\n  pop\n    /* \"#utility.yul\":6262:6264   */\n  0x20\n    /* \"#utility.yul\":6251:6260   */\n  dup6\n    /* \"#utility.yul\":6247:6265   */\n  add\n    /* \"#utility.yul\":6234:6265   */\n  swap5\n  pop\n    /* \"#utility.yul\":6108:6112   */\n  0x20\n    /* \"#utility.yul\":6105:6106   */\n  dup2\n    /* \"#utility.yul\":6101:6113   */\n  add\n    /* \"#utility.yul\":6096:6113   */\n  swap1\n  pop\n    /* \"#utility.yul\":6071:6279   */\n  jump(tag_126)\ntag_128:\n    /* \"#utility.yul\":6307:6313   */\n  dup7\n    /* \"#utility.yul\":6298:6305   */\n  dup4\n    /* \"#utility.yul\":6295:6314   */\n  lt\n    /* \"#utility.yul\":6292:6471   */\n  iszero\n  tag_129\n  jumpi\n    /* \"#utility.yul\":6365:6374   */\n  dup5\n    /* \"#utility.yul\":6360:6363   */\n  dup10\n    /* \"#utility.yul\":6356:6375   */\n  add\n    /* \"#utility.yul\":6350:6376   */\n  mload\n    /* \"#utility.yul\":6408:6456   */\n  tag_130\n    /* \"#utility.yul\":6450:6454   */\n  0x1f\n    /* \"#utility.yul\":6442:6448   */\n  dup10\n    /* \"#utility.yul\":6438:6455   */\n  and\n    /* \"#utility.yul\":6427:6436   */\n  dup3\n    /* \"#utility.yul\":6408:6456   */\n  tag_48\n  jump\t// in\ntag_130:\n    /* \"#utility.yul\":6400:6406   */\n  dup4\n    /* \"#utility.yul\":6393:6457   */\n  sstore\n    /* \"#utility.yul\":6315:6471   */\n  pop\n    /* \"#utility.yul\":6292:6471   */\ntag_129:\n    /* \"#utility.yul\":6517:6518   */\n  0x01\n    /* \"#utility.yul\":6513:6514   */\n  0x02\n    /* \"#utility.yul\":6505:6511   */\n  dup9\n    /* \"#utility.yul\":6501:6515   */\n  mul\n    /* \"#utility.yul\":6497:6519   */\n  add\n    /* \"#utility.yul\":6491:6495   */\n  dup9\n    /* \"#utility.yul\":6484:6520   */\n  sstore\n    /* \"#utility.yul\":5919:6530   */\n  pop\n  pop\n  pop\n    /* \"#utility.yul\":5882:6769   */\ntag_121:\n  pop\n    /* \"#utility.yul\":5472:6775   */\n  pop\n  pop\n  pop\n    /* \"#utility.yul\":5380:6775   */\n  pop\n  pop\n  jump\t// out\n    /* \"VolunteerCollectionNFT_flattened.sol\":60961:61261  contract VolunteerCollectionNFT is ERC1155, Ownable {... */\ntag_17:\n  dataSize(sub_0)\n  dup1\n  dataOffset(sub_0)\n  0x00\n  codecopy\n  0x00\n  return\nstop\n\nsub_0: assembly {\n        /* \"VolunteerCollectionNFT_flattened.sol\":60961:61261  contract VolunteerCollectionNFT is ERC1155, Ownable {... */\n      mstore(0x40, 0x80)\n      callvalue\n      dup1\n      iszero\n      tag_1\n      jumpi\n      0x00\n      dup1\n      revert\n    tag_1:\n      pop\n      jumpi(tag_2, lt(calldatasize, 0x04))\n      shr(0xe0, calldataload(0x00))\n      dup1\n      0x731133e9\n      gt\n      tag_15\n      jumpi\n      dup1\n      0x731133e9\n      eq\n      tag_9\n      jumpi\n      dup1\n      0x8da5cb5b\n      eq\n      tag_10\n      jumpi\n      dup1\n      0xa22cb465\n      eq\n      tag_11\n      jumpi\n      dup1\n      0xe985e9c5\n      eq\n      tag_12\n      jumpi\n      dup1\n      0xf242432a\n      eq\n      tag_13\n      jumpi\n      dup1\n      0xf2fde38b\n      eq\n      tag_14\n      jumpi\n      jump(tag_2)\n    tag_15:\n      dup1\n      0xfdd58e\n      eq\n      tag_3\n      jumpi\n      dup1\n      0x01ffc9a7\n      eq\n      tag_4\n      jumpi\n      dup1\n      0x0e89341c\n      eq\n      tag_5\n      jumpi\n      dup1\n      0x2eb2c2d6\n      eq\n      tag_6\n      jumpi\n      dup1\n      0x4e1273f4\n      eq\n      tag_7\n      jumpi\n      dup1\n      0x715018a6\n      eq\n      tag_8\n      jumpi\n    tag_2:\n      0x00\n      dup1\n      revert\n        /* \"VolunteerCollectionNFT_flattened.sol\":43130:43262  function balanceOf(address account, uint256 id) public view virtual returns (uint256) {... */\n    tag_3:\n      tag_16\n      0x04\n      dup1\n      calldatasize\n      sub\n      dup2\n      add\n      swap1\n      tag_17\n      swap2\n      swap1\n      tag_18\n      jump\t// in\n    tag_17:\n      tag_19\n      jump\t// in\n    tag_16:\n      mload(0x40)\n      tag_20\n      swap2\n      swap1\n      tag_21\n      jump\t// in\n    tag_20:\n      mload(0x40)\n      dup1\n      swap2\n      sub\n      swap1\n      return\n        /* \"VolunteerCollectionNFT_flattened.sol\":42263:42568  function supportsInterface(bytes4 interfaceId) public view virtual override(ERC165, IERC165) returns (bool) {... */\n    tag_4:\n      tag_22\n      0x04\n      dup1\n      calldatasize\n      sub\n      dup2\n      add\n      swap1\n      tag_23\n      swap2\n      swap1\n      tag_24\n      jump\t// in\n    tag_23:\n      tag_25\n      jump\t// in\n    tag_22:\n      mload(0x40)\n      tag_26\n      swap2\n      swap1\n      tag_27\n      jump\t// in\n    tag_26:\n      mload(0x40)\n      dup1\n      swap2\n      sub\n      swap1\n      return\n        /* \"VolunteerCollectionNFT_flattened.sol\":42967:43070  function uri(uint256 /* id */) public view virtual returns (string memory) {... */\n    tag_5:\n      tag_28\n      0x04\n      dup1\n      calldatasize\n      sub\n      dup2\n      add\n      swap1\n      tag_29\n      swap2\n      swap1\n      tag_30\n      jump\t// in\n    tag_29:\n      tag_31\n      jump\t// in\n    tag_28:\n      mload(0x40)\n      tag_32\n      swap2\n      swap1\n      tag_33\n      jump\t// in\n    tag_32:\n      mload(0x40)\n      dup1\n      swap2\n      sub\n      swap1\n      return\n        /* \"VolunteerCollectionNFT_flattened.sol\":44897:45326  function safeBatchTransferFrom(... */\n    tag_6:\n      tag_34\n      0x04\n      dup1\n      calldatasize\n      sub\n      dup2\n      add\n      swap1\n      tag_35\n      swap2\n      swap1\n      tag_36\n      jump\t// in\n    tag_35:\n      tag_37\n      jump\t// in\n    tag_34:\n      stop\n        /* \"VolunteerCollectionNFT_flattened.sol\":43419:43971  function balanceOfBatch(... */\n    tag_7:\n      tag_38\n      0x04\n      dup1\n      calldatasize\n      sub\n      dup2\n      add\n      swap1\n      tag_39\n      swap2\n      swap1\n      tag_40\n      jump\t// in\n    tag_39:\n      tag_41\n      jump\t// in\n    tag_38:\n      mload(0x40)\n      tag_42\n      swap2\n      swap1\n      tag_43\n      jump\t// in\n    tag_42:\n      mload(0x40)\n      dup1\n      swap2\n      sub\n      swap1\n      return\n        /* \"VolunteerCollectionNFT_flattened.sol\":60085:60186  function renounceOwnership() public virtual onlyOwner {... */\n    tag_8:\n      tag_44\n      tag_45\n      jump\t// in\n    tag_44:\n      stop\n        /* \"VolunteerCollectionNFT_flattened.sol\":61095:61259  function mint(address account, uint256 id, uint256 amount, bytes memory data)... */\n    tag_9:\n      tag_46\n      0x04\n      dup1\n      calldatasize\n      sub\n      dup2\n      add\n      swap1\n      tag_47\n      swap2\n      swap1\n      tag_48\n      jump\t// in\n    tag_47:\n      tag_49\n      jump\t// in\n    tag_46:\n      stop\n        /* \"VolunteerCollectionNFT_flattened.sol\":59430:59515  function owner() public view virtual returns (address) {... */\n    tag_10:\n      tag_50\n      tag_51\n      jump\t// in\n    tag_50:\n      mload(0x40)\n      tag_52\n      swap2\n      swap1\n      tag_53\n      jump\t// in\n    tag_52:\n      mload(0x40)\n      dup1\n      swap2\n      sub\n      swap1\n      return\n        /* \"VolunteerCollectionNFT_flattened.sol\":44039:44183  function setApprovalForAll(address operator, bool approved) public virtual {... */\n    tag_11:\n      tag_54\n      0x04\n      dup1\n      calldatasize\n      sub\n      dup2\n      add\n      swap1\n      tag_55\n      swap2\n      swap1\n      tag_56\n      jump\t// in\n    tag_55:\n      tag_57\n      jump\t// in\n    tag_54:\n      stop\n        /* \"VolunteerCollectionNFT_flattened.sol\":44250:44407  function isApprovedForAll(address account, address operator) public view virtual returns (bool) {... */\n    tag_12:\n      tag_58\n      0x04\n      dup1\n      calldatasize\n      sub\n      dup2\n      add\n      swap1\n      tag_59\n      swap2\n      swap1\n      tag_60\n      jump\t// in\n    tag_59:\n      tag_61\n      jump\t// in\n    tag_58:\n      mload(0x40)\n      tag_62\n      swap2\n      swap1\n      tag_27\n      jump\t// in\n    tag_62:\n      mload(0x40)\n      dup1\n      swap2\n      sub\n      swap1\n      return\n        /* \"VolunteerCollectionNFT_flattened.sol\":44474:44825  function safeTransferFrom(address from, address to, uint256 id, uint256 value, bytes memory data) public virtual {... */\n    tag_13:\n      tag_63\n      0x04\n      dup1\n      calldatasize\n      sub\n      dup2\n      add\n      swap1\n      tag_64\n      swap2\n      swap1\n      tag_65\n      jump\t// in\n    tag_64:\n      tag_66\n      jump\t// in\n    tag_63:\n      stop\n        /* \"VolunteerCollectionNFT_flattened.sol\":60335:60550  function transferOwnership(address newOwner) public virtual onlyOwner {... */\n    tag_14:\n      tag_67\n      0x04\n      dup1\n      calldatasize\n      sub\n      dup2\n      add\n      swap1\n      tag_68\n      swap2\n      swap1\n      tag_69\n      jump\t// in\n    tag_68:\n      tag_70\n      jump\t// in\n    tag_67:\n      stop\n        /* \"VolunteerCollectionNFT_flattened.sol\":43130:43262  function balanceOf(address account, uint256 id) public view virtual returns (uint256) {... */\n    tag_19:\n        /* \"VolunteerCollectionNFT_flattened.sol\":43207:43214  uint256 */\n      0x00\n        /* \"VolunteerCollectionNFT_flattened.sol\":43233:43242  _balances */\n      dup1\n        /* \"VolunteerCollectionNFT_flattened.sol\":43233:43246  _balances[id] */\n      0x00\n        /* \"VolunteerCollectionNFT_flattened.sol\":43243:43245  id */\n      dup4\n        /* \"VolunteerCollectionNFT_flattened.sol\":43233:43246  _balances[id] */\n      dup2\n      mstore\n      0x20\n      add\n      swap1\n      dup2\n      mstore\n      0x20\n      add\n      0x00\n      keccak256\n        /* \"VolunteerCollectionNFT_flattened.sol\":43233:43255  _balances[id][account] */\n      0x00\n        /* \"VolunteerCollectionNFT_flattened.sol\":43247:43254  account */\n      dup5\n        /* \"VolunteerCollectionNFT_flattened.sol\":43233:43255  _balances[id][account] */\n      0xffffffffffffffffffffffffffffffffffffffff\n      and\n      0xffffffffffffffffffffffffffffffffffffffff\n      and\n      dup2\n      mstore\n      0x20\n      add\n      swap1\n      dup2\n      mstore\n      0x20\n      add\n      0x00\n      keccak256\n      sload\n        /* \"VolunteerCollectionNFT_flattened.sol\":43226:43255  return _balances[id][account] */\n      swap1\n      pop\n        /* \"VolunteerCollectionNFT_flattened.sol\":43130:43262  function balanceOf(address account, uint256 id) public view virtual returns (uint256) {... */\n      swap3\n      swap2\n      pop\n      pop\n      jump\t// out\n        /* \"VolunteerCollectionNFT_flattened.sol\":42263:42568  function supportsInterface(bytes4 interfaceId) public view virtual override(ERC165, IERC165) returns (bool) {... */\n    tag_25:\n        /* \"VolunteerCollectionNFT_flattened.sol\":42365:42369  bool */\n      0x00\n        /* \"VolunteerCollectionNFT_flattened.sol\":42415:42441  type(IERC1155).interfaceId */\n      0xd9b67a2600000000000000000000000000000000000000000000000000000000\n        /* \"VolunteerCollectionNFT_flattened.sol\":42400:42441  interfaceId == type(IERC1155).interfaceId */\n      not(0xffffffffffffffffffffffffffffffffffffffffffffffffffffffff)\n      and\n        /* \"VolunteerCollectionNFT_flattened.sol\":42400:42411  interfaceId */\n      dup3\n        /* \"VolunteerCollectionNFT_flattened.sol\":42400:42441  interfaceId == type(IERC1155).interfaceId */\n      not(0xffffffffffffffffffffffffffffffffffffffffffffffffffffffff)\n      and\n      eq\n        /* \"VolunteerCollectionNFT_flattened.sol\":42400:42509  interfaceId == type(IERC1155).interfaceId ||... */\n      dup1\n      tag_73\n      jumpi\n      pop\n        /* \"VolunteerCollectionNFT_flattened.sol\":42472:42509  type(IERC1155MetadataURI).interfaceId */\n      0x0e89341c00000000000000000000000000000000000000000000000000000000\n        /* \"VolunteerCollectionNFT_flattened.sol\":42457:42509  interfaceId == type(IERC1155MetadataURI).interfaceId */\n      not(0xffffffffffffffffffffffffffffffffffffffffffffffffffffffff)\n      and\n        /* \"VolunteerCollectionNFT_flattened.sol\":42457:42468  interfaceId */\n      dup3\n        /* \"VolunteerCollectionNFT_flattened.sol\":42457:42509  interfaceId == type(IERC1155MetadataURI).interfaceId */\n      not(0xffffffffffffffffffffffffffffffffffffffffffffffffffffffff)\n      and\n      eq\n        /* \"VolunteerCollectionNFT_flattened.sol\":42400:42509  interfaceId == type(IERC1155).interfaceId ||... */\n    tag_73:\n        /* \"VolunteerCollectionNFT_flattened.sol\":42400:42561  interfaceId == type(IERC1155).interfaceId ||... */\n      dup1\n      tag_74\n      jumpi\n      pop\n        /* \"VolunteerCollectionNFT_flattened.sol\":42525:42561  super.supportsInterface(interfaceId) */\n      tag_75\n        /* \"VolunteerCollectionNFT_flattened.sol\":42549:42560  interfaceId */\n      dup3\n        /* \"VolunteerCollectionNFT_flattened.sol\":42525:42548  super.supportsInterface */\n      tag_76\n        /* \"VolunteerCollectionNFT_flattened.sol\":42525:42561  super.supportsInterface(interfaceId) */\n      jump\t// in\n    tag_75:\n        /* \"VolunteerCollectionNFT_flattened.sol\":42400:42561  interfaceId == type(IERC1155).interfaceId ||... */\n    tag_74:\n        /* \"VolunteerCollectionNFT_flattened.sol\":42381:42561  return... */\n      swap1\n      pop\n        /* \"VolunteerCollectionNFT_flattened.sol\":42263:42568  function supportsInterface(bytes4 interfaceId) public view virtual override(ERC165, IERC165) returns (bool) {... */\n      swap2\n      swap1\n      pop\n      jump\t// out\n        /* \"VolunteerCollectionNFT_flattened.sol\":42967:43070  function uri(uint256 /* id */) public view virtual returns (string memory) {... */\n    tag_31:\n        /* \"VolunteerCollectionNFT_flattened.sol\":43027:43040  string memory */\n      0x60\n        /* \"VolunteerCollectionNFT_flattened.sol\":43059:43063  _uri */\n      0x02\n        /* \"VolunteerCollectionNFT_flattened.sol\":43052:43063  return _uri */\n      dup1\n      sload\n      tag_78\n      swap1\n      tag_79\n      jump\t// in\n    tag_78:\n      dup1\n      0x1f\n      add\n      0x20\n      dup1\n      swap2\n      div\n      mul\n      0x20\n      add\n      mload(0x40)\n      swap1\n      dup2\n      add\n      0x40\n      mstore\n      dup1\n      swap3\n      swap2\n      swap1\n      dup2\n      dup2\n      mstore\n      0x20\n      add\n      dup3\n      dup1\n      sload\n      tag_80\n      swap1\n      tag_79\n      jump\t// in\n    tag_80:\n      dup1\n      iszero\n      tag_81\n      jumpi\n      dup1\n      0x1f\n      lt\n      tag_82\n      jumpi\n      0x0100\n      dup1\n      dup4\n      sload\n      div\n      mul\n      dup4\n      mstore\n      swap2\n      0x20\n      add\n      swap2\n      jump(tag_81)\n    tag_82:\n      dup3\n      add\n      swap2\n      swap1\n      0x00\n      mstore\n      keccak256(0x00, 0x20)\n      swap1\n    tag_83:\n      dup2\n      sload\n      dup2\n      mstore\n      swap1\n      0x01\n      add\n      swap1\n      0x20\n      add\n      dup1\n      dup4\n      gt\n      tag_83\n      jumpi\n      dup3\n      swap1\n      sub\n      0x1f\n      and\n      dup3\n      add\n      swap2\n    tag_81:\n      pop\n      pop\n      pop\n      pop\n      pop\n      swap1\n      pop\n        /* \"VolunteerCollectionNFT_flattened.sol\":42967:43070  function uri(uint256 /* id */) public view virtual returns (string memory) {... */\n      swap2\n      swap1\n      pop\n      jump\t// out\n        /* \"VolunteerCollectionNFT_flattened.sol\":44897:45326  function safeBatchTransferFrom(... */\n    tag_37:\n        /* \"VolunteerCollectionNFT_flattened.sol\":45091:45105  address sender */\n      0x00\n        /* \"VolunteerCollectionNFT_flattened.sol\":45108:45120  _msgSender() */\n      tag_85\n        /* \"VolunteerCollectionNFT_flattened.sol\":45108:45118  _msgSender */\n      tag_86\n        /* \"VolunteerCollectionNFT_flattened.sol\":45108:45120  _msgSender() */\n      jump\t// in\n    tag_85:\n        /* \"VolunteerCollectionNFT_flattened.sol\":45091:45120  address sender = _msgSender() */\n      swap1\n      pop\n        /* \"VolunteerCollectionNFT_flattened.sol\":45142:45148  sender */\n      dup1\n        /* \"VolunteerCollectionNFT_flattened.sol\":45134:45148  from != sender */\n      0xffffffffffffffffffffffffffffffffffffffff\n      and\n        /* \"VolunteerCollectionNFT_flattened.sol\":45134:45138  from */\n      dup7\n        /* \"VolunteerCollectionNFT_flattened.sol\":45134:45148  from != sender */\n      0xffffffffffffffffffffffffffffffffffffffff\n      and\n      eq\n      iszero\n        /* \"VolunteerCollectionNFT_flattened.sol\":45134:45183  from != sender && !isApprovedForAll(from, sender) */\n      dup1\n      iszero\n      tag_87\n      jumpi\n      pop\n        /* \"VolunteerCollectionNFT_flattened.sol\":45153:45183  isApprovedForAll(from, sender) */\n      tag_88\n        /* \"VolunteerCollectionNFT_flattened.sol\":45170:45174  from */\n      dup7\n        /* \"VolunteerCollectionNFT_flattened.sol\":45176:45182  sender */\n      dup3\n        /* \"VolunteerCollectionNFT_flattened.sol\":45153:45169  isApprovedForAll */\n      tag_61\n        /* \"VolunteerCollectionNFT_flattened.sol\":45153:45183  isApprovedForAll(from, sender) */\n      jump\t// in\n    tag_88:\n        /* \"VolunteerCollectionNFT_flattened.sol\":45152:45183  !isApprovedForAll(from, sender) */\n      iszero\n        /* \"VolunteerCollectionNFT_flattened.sol\":45134:45183  from != sender && !isApprovedForAll(from, sender) */\n    tag_87:\n        /* \"VolunteerCollectionNFT_flattened.sol\":45130:45259  if (from != sender && !isApprovedForAll(from, sender)) {... */\n      iszero\n      tag_89\n      jumpi\n        /* \"VolunteerCollectionNFT_flattened.sol\":45235:45241  sender */\n      dup1\n        /* \"VolunteerCollectionNFT_flattened.sol\":45243:45247  from */\n      dup7\n        /* \"VolunteerCollectionNFT_flattened.sol\":45206:45248  ERC1155MissingApprovalForAll(sender, from) */\n      mload(0x40)\n      0xe237d92200000000000000000000000000000000000000000000000000000000\n      dup2\n      mstore\n      0x04\n      add\n      tag_90\n      swap3\n      swap2\n      swap1\n      tag_91\n      jump\t// in\n    tag_90:\n      mload(0x40)\n      dup1\n      swap2\n      sub\n      swap1\n      revert\n        /* \"VolunteerCollectionNFT_flattened.sol\":45130:45259  if (from != sender && !isApprovedForAll(from, sender)) {... */\n    tag_89:\n        /* \"VolunteerCollectionNFT_flattened.sol\":45268:45319  _safeBatchTransferFrom(from, to, ids, values, data) */\n      tag_92\n        /* \"VolunteerCollectionNFT_flattened.sol\":45291:45295  from */\n      dup7\n        /* \"VolunteerCollectionNFT_flattened.sol\":45297:45299  to */\n      dup7\n        /* \"VolunteerCollectionNFT_flattened.sol\":45301:45304  ids */\n      dup7\n        /* \"VolunteerCollectionNFT_flattened.sol\":45306:45312  values */\n      dup7\n        /* \"VolunteerCollectionNFT_flattened.sol\":45314:45318  data */\n      dup7\n        /* \"VolunteerCollectionNFT_flattened.sol\":45268:45290  _safeBatchTransferFrom */\n      tag_93\n        /* \"VolunteerCollectionNFT_flattened.sol\":45268:45319  _safeBatchTransferFrom(from, to, ids, values, data) */\n      jump\t// in\n    tag_92:\n        /* \"VolunteerCollectionNFT_flattened.sol\":45081:45326  {... */\n      pop\n        /* \"VolunteerCollectionNFT_flattened.sol\":44897:45326  function safeBatchTransferFrom(... */\n      pop\n      pop\n      pop\n      pop\n      pop\n      jump\t// out\n        /* \"VolunteerCollectionNFT_flattened.sol\":43419:43971  function balanceOfBatch(... */\n    tag_41:\n        /* \"VolunteerCollectionNFT_flattened.sol\":43543:43559  uint256[] memory */\n      0x60\n        /* \"VolunteerCollectionNFT_flattened.sol\":43594:43597  ids */\n      dup2\n        /* \"VolunteerCollectionNFT_flattened.sol\":43594:43604  ids.length */\n      mload\n        /* \"VolunteerCollectionNFT_flattened.sol\":43575:43583  accounts */\n      dup4\n        /* \"VolunteerCollectionNFT_flattened.sol\":43575:43590  accounts.length */\n      mload\n        /* \"VolunteerCollectionNFT_flattened.sol\":43575:43604  accounts.length != ids.length */\n      eq\n        /* \"VolunteerCollectionNFT_flattened.sol\":43571:43692  if (accounts.length != ids.length) {... */\n      tag_95\n      jumpi\n        /* \"VolunteerCollectionNFT_flattened.sol\":43653:43656  ids */\n      dup2\n        /* \"VolunteerCollectionNFT_flattened.sol\":43653:43663  ids.length */\n      mload\n        /* \"VolunteerCollectionNFT_flattened.sol\":43665:43673  accounts */\n      dup4\n        /* \"VolunteerCollectionNFT_flattened.sol\":43665:43680  accounts.length */\n      mload\n        /* \"VolunteerCollectionNFT_flattened.sol\":43627:43681  ERC1155InvalidArrayLength(ids.length, accounts.length) */\n      mload(0x40)\n      0x5b05999100000000000000000000000000000000000000000000000000000000\n      dup2\n      mstore\n      0x04\n      add\n      tag_96\n      swap3\n      swap2\n      swap1\n      tag_97\n      jump\t// in\n    tag_96:\n      mload(0x40)\n      dup1\n      swap2\n      sub\n      swap1\n      revert\n        /* \"VolunteerCollectionNFT_flattened.sol\":43571:43692  if (accounts.length != ids.length) {... */\n    tag_95:\n        /* \"VolunteerCollectionNFT_flattened.sol\":43702:43732  uint256[] memory batchBalances */\n      0x00\n        /* \"VolunteerCollectionNFT_flattened.sol\":43749:43757  accounts */\n      dup4\n        /* \"VolunteerCollectionNFT_flattened.sol\":43749:43764  accounts.length */\n      mload\n        /* \"VolunteerCollectionNFT_flattened.sol\":43735:43765  new uint256[](accounts.length) */\n      0xffffffffffffffff\n      dup2\n      gt\n      iszero\n      tag_98\n      jumpi\n      tag_99\n      tag_100\n      jump\t// in\n    tag_99:\n    tag_98:\n      mload(0x40)\n      swap1\n      dup1\n      dup3\n      mstore\n      dup1\n      0x20\n      mul\n      0x20\n      add\n      dup3\n      add\n      0x40\n      mstore\n      dup1\n      iszero\n      tag_101\n      jumpi\n      dup2\n      0x20\n      add\n      0x20\n      dup3\n      mul\n      dup1\n      calldatasize\n      dup4\n      calldatacopy\n      dup1\n      dup3\n      add\n      swap2\n      pop\n      pop\n      swap1\n      pop\n    tag_101:\n      pop\n        /* \"VolunteerCollectionNFT_flattened.sol\":43702:43765  uint256[] memory batchBalances = new uint256[](accounts.length) */\n      swap1\n      pop\n        /* \"VolunteerCollectionNFT_flattened.sol\":43781:43790  uint256 i */\n      0x00\n        /* \"VolunteerCollectionNFT_flattened.sol\":43776:43934  for (uint256 i = 0; i < accounts.length; ++i) {... */\n    tag_102:\n        /* \"VolunteerCollectionNFT_flattened.sol\":43800:43808  accounts */\n      dup5\n        /* \"VolunteerCollectionNFT_flattened.sol\":43800:43815  accounts.length */\n      mload\n        /* \"VolunteerCollectionNFT_flattened.sol\":43796:43797  i */\n      dup2\n        /* \"VolunteerCollectionNFT_flattened.sol\":43796:43815  i < accounts.length */\n      lt\n        /* \"VolunteerCollectionNFT_flattened.sol\":43776:43934  for (uint256 i = 0; i < accounts.length; ++i) {... */\n      iszero\n      tag_103\n      jumpi\n        /* \"VolunteerCollectionNFT_flattened.sol\":43855:43923  balanceOf(accounts.unsafeMemoryAccess(i), ids.unsafeMemoryAccess(i)) */\n      tag_105\n        /* \"VolunteerCollectionNFT_flattened.sol\":43865:43895  accounts.unsafeMemoryAccess(i) */\n      tag_106\n        /* \"VolunteerCollectionNFT_flattened.sol\":43893:43894  i */\n      dup3\n        /* \"VolunteerCollectionNFT_flattened.sol\":43865:43873  accounts */\n      dup8\n        /* \"VolunteerCollectionNFT_flattened.sol\":43865:43892  accounts.unsafeMemoryAccess */\n      tag_107\n      swap1\n        /* \"VolunteerCollectionNFT_flattened.sol\":43865:43895  accounts.unsafeMemoryAccess(i) */\n      swap2\n      swap1\n      0xffffffff\n      and\n      jump\t// in\n    tag_106:\n        /* \"VolunteerCollectionNFT_flattened.sol\":43897:43922  ids.unsafeMemoryAccess(i) */\n      tag_108\n        /* \"VolunteerCollectionNFT_flattened.sol\":43920:43921  i */\n      dup4\n        /* \"VolunteerCollectionNFT_flattened.sol\":43897:43900  ids */\n      dup8\n        /* \"VolunteerCollectionNFT_flattened.sol\":43897:43919  ids.unsafeMemoryAccess */\n      tag_109\n      swap1\n        /* \"VolunteerCollectionNFT_flattened.sol\":43897:43922  ids.unsafeMemoryAccess(i) */\n      swap2\n      swap1\n      0xffffffff\n      and\n      jump\t// in\n    tag_108:\n        /* \"VolunteerCollectionNFT_flattened.sol\":43855:43864  balanceOf */\n      tag_19\n        /* \"VolunteerCollectionNFT_flattened.sol\":43855:43923  balanceOf(accounts.unsafeMemoryAccess(i), ids.unsafeMemoryAccess(i)) */\n      jump\t// in\n    tag_105:\n        /* \"VolunteerCollectionNFT_flattened.sol\":43836:43849  batchBalances */\n      dup3\n        /* \"VolunteerCollectionNFT_flattened.sol\":43850:43851  i */\n      dup3\n        /* \"VolunteerCollectionNFT_flattened.sol\":43836:43852  batchBalances[i] */\n      dup2\n      mload\n      dup2\n      lt\n      tag_110\n      jumpi\n      tag_111\n      tag_112\n      jump\t// in\n    tag_111:\n    tag_110:\n      0x20\n      mul\n      0x20\n      add\n      add\n        /* \"VolunteerCollectionNFT_flattened.sol\":43836:43923  batchBalances[i] = balanceOf(accounts.unsafeMemoryAccess(i), ids.unsafeMemoryAccess(i)) */\n      dup2\n      dup2\n      mstore\n      pop\n      pop\n        /* \"VolunteerCollectionNFT_flattened.sol\":43817:43820  ++i */\n      dup1\n      0x01\n      add\n      swap1\n      pop\n        /* \"VolunteerCollectionNFT_flattened.sol\":43776:43934  for (uint256 i = 0; i < accounts.length; ++i) {... */\n      jump(tag_102)\n    tag_103:\n      pop\n        /* \"VolunteerCollectionNFT_flattened.sol\":43951:43964  batchBalances */\n      dup1\n        /* \"VolunteerCollectionNFT_flattened.sol\":43944:43964  return batchBalances */\n      swap2\n      pop\n      pop\n        /* \"VolunteerCollectionNFT_flattened.sol\":43419:43971  function balanceOfBatch(... */\n      swap3\n      swap2\n      pop\n      pop\n      jump\t// out\n        /* \"VolunteerCollectionNFT_flattened.sol\":60085:60186  function renounceOwnership() public virtual onlyOwner {... */\n    tag_45:\n        /* \"VolunteerCollectionNFT_flattened.sol\":59323:59336  _checkOwner() */\n      tag_114\n        /* \"VolunteerCollectionNFT_flattened.sol\":59323:59334  _checkOwner */\n      tag_115\n        /* \"VolunteerCollectionNFT_flattened.sol\":59323:59336  _checkOwner() */\n      jump\t// in\n    tag_114:\n        /* \"VolunteerCollectionNFT_flattened.sol\":60149:60179  _transferOwnership(address(0)) */\n      tag_117\n        /* \"VolunteerCollectionNFT_flattened.sol\":60176:60177  0 */\n      0x00\n        /* \"VolunteerCollectionNFT_flattened.sol\":60149:60167  _transferOwnership */\n      tag_118\n        /* \"VolunteerCollectionNFT_flattened.sol\":60149:60179  _transferOwnership(address(0)) */\n      jump\t// in\n    tag_117:\n        /* \"VolunteerCollectionNFT_flattened.sol\":60085:60186  function renounceOwnership() public virtual onlyOwner {... */\n      jump\t// out\n        /* \"VolunteerCollectionNFT_flattened.sol\":61095:61259  function mint(address account, uint256 id, uint256 amount, bytes memory data)... */\n    tag_49:\n        /* \"VolunteerCollectionNFT_flattened.sol\":59323:59336  _checkOwner() */\n      tag_120\n        /* \"VolunteerCollectionNFT_flattened.sol\":59323:59334  _checkOwner */\n      tag_115\n        /* \"VolunteerCollectionNFT_flattened.sol\":59323:59336  _checkOwner() */\n      jump\t// in\n    tag_120:\n        /* \"VolunteerCollectionNFT_flattened.sol\":61220:61252  _mint(account, id, amount, data) */\n      tag_122\n        /* \"VolunteerCollectionNFT_flattened.sol\":61226:61233  account */\n      dup5\n        /* \"VolunteerCollectionNFT_flattened.sol\":61235:61237  id */\n      dup5\n        /* \"VolunteerCollectionNFT_flattened.sol\":61239:61245  amount */\n      dup5\n        /* \"VolunteerCollectionNFT_flattened.sol\":61247:61251  data */\n      dup5\n        /* \"VolunteerCollectionNFT_flattened.sol\":61220:61225  _mint */\n      tag_123\n        /* \"VolunteerCollectionNFT_flattened.sol\":61220:61252  _mint(account, id, amount, data) */\n      jump\t// in\n    tag_122:\n        /* \"VolunteerCollectionNFT_flattened.sol\":61095:61259  function mint(address account, uint256 id, uint256 amount, bytes memory data)... */\n      pop\n      pop\n      pop\n      pop\n      jump\t// out\n        /* \"VolunteerCollectionNFT_flattened.sol\":59430:59515  function owner() public view virtual returns (address) {... */\n    tag_51:\n        /* \"VolunteerCollectionNFT_flattened.sol\":59476:59483  address */\n      0x00\n        /* \"VolunteerCollectionNFT_flattened.sol\":59502:59508  _owner */\n      0x03\n      0x00\n      swap1\n      sload\n      swap1\n      0x0100\n      exp\n      swap1\n      div\n      0xffffffffffffffffffffffffffffffffffffffff\n      and\n        /* \"VolunteerCollectionNFT_flattened.sol\":59495:59508  return _owner */\n      swap1\n      pop\n        /* \"VolunteerCollectionNFT_flattened.sol\":59430:59515  function owner() public view virtual returns (address) {... */\n      swap1\n      jump\t// out\n        /* \"VolunteerCollectionNFT_flattened.sol\":44039:44183  function setApprovalForAll(address operator, bool approved) public virtual {... */\n    tag_57:\n        /* \"VolunteerCollectionNFT_flattened.sol\":44124:44176  _setApprovalForAll(_msgSender(), operator, approved) */\n      tag_126\n        /* \"VolunteerCollectionNFT_flattened.sol\":44143:44155  _msgSender() */\n      tag_127\n        /* \"VolunteerCollectionNFT_flattened.sol\":44143:44153  _msgSender */\n      tag_86\n        /* \"VolunteerCollectionNFT_flattened.sol\":44143:44155  _msgSender() */\n      jump\t// in\n    tag_127:\n        /* \"VolunteerCollectionNFT_flattened.sol\":44157:44165  operator */\n      dup4\n        /* \"VolunteerCollectionNFT_flattened.sol\":44167:44175  approved */\n      dup4\n        /* \"VolunteerCollectionNFT_flattened.sol\":44124:44142  _setApprovalForAll */\n      tag_128\n        /* \"VolunteerCollectionNFT_flattened.sol\":44124:44176  _setApprovalForAll(_msgSender(), operator, approved) */\n      jump\t// in\n    tag_126:\n        /* \"VolunteerCollectionNFT_flattened.sol\":44039:44183  function setApprovalForAll(address operator, bool approved) public virtual {... */\n      pop\n      pop\n      jump\t// out\n        /* \"VolunteerCollectionNFT_flattened.sol\":44250:44407  function isApprovedForAll(address account, address operator) public view virtual returns (bool) {... */\n    tag_61:\n        /* \"VolunteerCollectionNFT_flattened.sol\":44340:44344  bool */\n      0x00\n        /* \"VolunteerCollectionNFT_flattened.sol\":44363:44381  _operatorApprovals */\n      0x01\n        /* \"VolunteerCollectionNFT_flattened.sol\":44363:44390  _operatorApprovals[account] */\n      0x00\n        /* \"VolunteerCollectionNFT_flattened.sol\":44382:44389  account */\n      dup5\n        /* \"VolunteerCollectionNFT_flattened.sol\":44363:44390  _operatorApprovals[account] */\n      0xffffffffffffffffffffffffffffffffffffffff\n      and\n      0xffffffffffffffffffffffffffffffffffffffff\n      and\n      dup2\n      mstore\n      0x20\n      add\n      swap1\n      dup2\n      mstore\n      0x20\n      add\n      0x00\n      keccak256\n        /* \"VolunteerCollectionNFT_flattened.sol\":44363:44400  _operatorApprovals[account][operator] */\n      0x00\n        /* \"VolunteerCollectionNFT_flattened.sol\":44391:44399  operator */\n      dup4\n        /* \"VolunteerCollectionNFT_flattened.sol\":44363:44400  _operatorApprovals[account][operator] */\n      0xffffffffffffffffffffffffffffffffffffffff\n      and\n      0xffffffffffffffffffffffffffffffffffffffff\n      and\n      dup2\n      mstore\n      0x20\n      add\n      swap1\n      dup2\n      mstore\n      0x20\n      add\n      0x00\n      keccak256\n      0x00\n      swap1\n      sload\n      swap1\n      0x0100\n      exp\n      swap1\n      div\n      0xff\n      and\n        /* \"VolunteerCollectionNFT_flattened.sol\":44356:44400  return _operatorApprovals[account][operator] */\n      swap1\n      pop\n        /* \"VolunteerCollectionNFT_flattened.sol\":44250:44407  function isApprovedForAll(address account, address operator) public view virtual returns (bool) {... */\n      swap3\n      swap2\n      pop\n      pop\n      jump\t// out\n        /* \"VolunteerCollectionNFT_flattened.sol\":44474:44825  function safeTransferFrom(address from, address to, uint256 id, uint256 value, bytes memory data) public virtual {... */\n    tag_66:\n        /* \"VolunteerCollectionNFT_flattened.sol\":44597:44611  address sender */\n      0x00\n        /* \"VolunteerCollectionNFT_flattened.sol\":44614:44626  _msgSender() */\n      tag_131\n        /* \"VolunteerCollectionNFT_flattened.sol\":44614:44624  _msgSender */\n      tag_86\n        /* \"VolunteerCollectionNFT_flattened.sol\":44614:44626  _msgSender() */\n      jump\t// in\n    tag_131:\n        /* \"VolunteerCollectionNFT_flattened.sol\":44597:44626  address sender = _msgSender() */\n      swap1\n      pop\n        /* \"VolunteerCollectionNFT_flattened.sol\":44648:44654  sender */\n      dup1\n        /* \"VolunteerCollectionNFT_flattened.sol\":44640:44654  from != sender */\n      0xffffffffffffffffffffffffffffffffffffffff\n      and\n        /* \"VolunteerCollectionNFT_flattened.sol\":44640:44644  from */\n      dup7\n        /* \"VolunteerCollectionNFT_flattened.sol\":44640:44654  from != sender */\n      0xffffffffffffffffffffffffffffffffffffffff\n      and\n      eq\n      iszero\n        /* \"VolunteerCollectionNFT_flattened.sol\":44640:44689  from != sender && !isApprovedForAll(from, sender) */\n      dup1\n      iszero\n      tag_132\n      jumpi\n      pop\n        /* \"VolunteerCollectionNFT_flattened.sol\":44659:44689  isApprovedForAll(from, sender) */\n      tag_133\n        /* \"VolunteerCollectionNFT_flattened.sol\":44676:44680  from */\n      dup7\n        /* \"VolunteerCollectionNFT_flattened.sol\":44682:44688  sender */\n      dup3\n        /* \"VolunteerCollectionNFT_flattened.sol\":44659:44675  isApprovedForAll */\n      tag_61\n        /* \"VolunteerCollectionNFT_flattened.sol\":44659:44689  isApprovedForAll(from, sender) */\n      jump\t// in\n    tag_133:\n        /* \"VolunteerCollectionNFT_flattened.sol\":44658:44689  !isApprovedForAll(from, sender) */\n      iszero\n        /* \"VolunteerCollectionNFT_flattened.sol\":44640:44689  from != sender && !isApprovedForAll(from, sender) */\n    tag_132:\n        /* \"VolunteerCollectionNFT_flattened.sol\":44636:44765  if (from != sender && !isApprovedForAll(from, sender)) {... */\n      iszero\n      tag_134\n      jumpi\n        /* \"VolunteerCollectionNFT_flattened.sol\":44741:44747  sender */\n      dup1\n        /* \"VolunteerCollectionNFT_flattened.sol\":44749:44753  from */\n      dup7\n        /* \"VolunteerCollectionNFT_flattened.sol\":44712:44754  ERC1155MissingApprovalForAll(sender, from) */\n      mload(0x40)\n      0xe237d92200000000000000000000000000000000000000000000000000000000\n      dup2\n      mstore\n      0x04\n      add\n      tag_135\n      swap3\n      swap2\n      swap1\n      tag_91\n      jump\t// in\n    tag_135:\n      mload(0x40)\n      dup1\n      swap2\n      sub\n      swap1\n      revert\n        /* \"VolunteerCollectionNFT_flattened.sol\":44636:44765  if (from != sender && !isApprovedForAll(from, sender)) {... */\n    tag_134:\n        /* \"VolunteerCollectionNFT_flattened.sol\":44774:44818  _safeTransferFrom(from, to, id, value, data) */\n      tag_136\n        /* \"VolunteerCollectionNFT_flattened.sol\":44792:44796  from */\n      dup7\n        /* \"VolunteerCollectionNFT_flattened.sol\":44798:44800  to */\n      dup7\n        /* \"VolunteerCollectionNFT_flattened.sol\":44802:44804  id */\n      dup7\n        /* \"VolunteerCollectionNFT_flattened.sol\":44806:44811  value */\n      dup7\n        /* \"VolunteerCollectionNFT_flattened.sol\":44813:44817  data */\n      dup7\n        /* \"VolunteerCollectionNFT_flattened.sol\":44774:44791  _safeTransferFrom */\n      tag_137\n        /* \"VolunteerCollectionNFT_flattened.sol\":44774:44818  _safeTransferFrom(from, to, id, value, data) */\n      jump\t// in\n    tag_136:\n        /* \"VolunteerCollectionNFT_flattened.sol\":44587:44825  {... */\n      pop\n        /* \"VolunteerCollectionNFT_flattened.sol\":44474:44825  function safeTransferFrom(address from, address to, uint256 id, uint256 value, bytes memory data) public virtual {... */\n      pop\n      pop\n      pop\n      pop\n      pop\n      jump\t// out\n        /* \"VolunteerCollectionNFT_flattened.sol\":60335:60550  function transferOwnership(address newOwner) public virtual onlyOwner {... */\n    tag_70:\n        /* \"VolunteerCollectionNFT_flattened.sol\":59323:59336  _checkOwner() */\n      tag_139\n        /* \"VolunteerCollectionNFT_flattened.sol\":59323:59334  _checkOwner */\n      tag_115\n        /* \"VolunteerCollectionNFT_flattened.sol\":59323:59336  _checkOwner() */\n      jump\t// in\n    tag_139:\n        /* \"VolunteerCollectionNFT_flattened.sol\":60439:60440  0 */\n      0x00\n        /* \"VolunteerCollectionNFT_flattened.sol\":60419:60441  newOwner == address(0) */\n      0xffffffffffffffffffffffffffffffffffffffff\n      and\n        /* \"VolunteerCollectionNFT_flattened.sol\":60419:60427  newOwner */\n      dup2\n        /* \"VolunteerCollectionNFT_flattened.sol\":60419:60441  newOwner == address(0) */\n      0xffffffffffffffffffffffffffffffffffffffff\n      and\n      sub\n        /* \"VolunteerCollectionNFT_flattened.sol\":60415:60506  if (newOwner == address(0)) {... */\n      tag_141\n      jumpi\n        /* \"VolunteerCollectionNFT_flattened.sol\":60492:60493  0 */\n      0x00\n        /* \"VolunteerCollectionNFT_flattened.sol\":60464:60495  OwnableInvalidOwner(address(0)) */\n      mload(0x40)\n      0x1e4fbdf700000000000000000000000000000000000000000000000000000000\n      dup2\n      mstore\n      0x04\n      add\n      tag_142\n      swap2\n      swap1\n      tag_53\n      jump\t// in\n    tag_142:\n      mload(0x40)\n      dup1\n      swap2\n      sub\n      swap1\n      revert\n        /* \"VolunteerCollectionNFT_flattened.sol\":60415:60506  if (newOwner == address(0)) {... */\n    tag_141:\n        /* \"VolunteerCollectionNFT_flattened.sol\":60515:60543  _transferOwnership(newOwner) */\n      tag_143\n        /* \"VolunteerCollectionNFT_flattened.sol\":60534:60542  newOwner */\n      dup2\n        /* \"VolunteerCollectionNFT_flattened.sol\":60515:60533  _transferOwnership */\n      tag_118\n        /* \"VolunteerCollectionNFT_flattened.sol\":60515:60543  _transferOwnership(newOwner) */\n      jump\t// in\n    tag_143:\n        /* \"VolunteerCollectionNFT_flattened.sol\":60335:60550  function transferOwnership(address newOwner) public virtual onlyOwner {... */\n      pop\n      jump\t// out\n        /* \"VolunteerCollectionNFT_flattened.sol\":10699:10845  function supportsInterface(bytes4 interfaceId) public view virtual returns (bool) {... */\n    tag_76:\n        /* \"VolunteerCollectionNFT_flattened.sol\":10775:10779  bool */\n      0x00\n        /* \"VolunteerCollectionNFT_flattened.sol\":10813:10838  type(IERC165).interfaceId */\n      0x01ffc9a700000000000000000000000000000000000000000000000000000000\n        /* \"VolunteerCollectionNFT_flattened.sol\":10798:10838  interfaceId == type(IERC165).interfaceId */\n      not(0xffffffffffffffffffffffffffffffffffffffffffffffffffffffff)\n      and\n        /* \"VolunteerCollectionNFT_flattened.sol\":10798:10809  interfaceId */\n      dup3\n        /* \"VolunteerCollectionNFT_flattened.sol\":10798:10838  interfaceId == type(IERC165).interfaceId */\n      not(0xffffffffffffffffffffffffffffffffffffffffffffffffffffffff)\n      and\n      eq\n        /* \"VolunteerCollectionNFT_flattened.sol\":10791:10838  return interfaceId == type(IERC165).interfaceId */\n      swap1\n      pop\n        /* \"VolunteerCollectionNFT_flattened.sol\":10699:10845  function supportsInterface(bytes4 interfaceId) public view virtual returns (bool) {... */\n      swap2\n      swap1\n      pop\n      jump\t// out\n        /* \"VolunteerCollectionNFT_flattened.sol\":9634:9730  function _msgSender() internal view virtual returns (address) {... */\n    tag_86:\n        /* \"VolunteerCollectionNFT_flattened.sol\":9687:9694  address */\n      0x00\n        /* \"VolunteerCollectionNFT_flattened.sol\":9713:9723  msg.sender */\n      caller\n        /* \"VolunteerCollectionNFT_flattened.sol\":9706:9723  return msg.sender */\n      swap1\n      pop\n        /* \"VolunteerCollectionNFT_flattened.sol\":9634:9730  function _msgSender() internal view virtual returns (address) {... */\n      swap1\n      jump\t// out\n        /* \"VolunteerCollectionNFT_flattened.sol\":49898:50343  function _safeBatchTransferFrom(... */\n    tag_93:\n        /* \"VolunteerCollectionNFT_flattened.sol\":50105:50106  0 */\n      0x00\n        /* \"VolunteerCollectionNFT_flattened.sol\":50091:50107  to == address(0) */\n      0xffffffffffffffffffffffffffffffffffffffff\n      and\n        /* \"VolunteerCollectionNFT_flattened.sol\":50091:50093  to */\n      dup5\n        /* \"VolunteerCollectionNFT_flattened.sol\":50091:50107  to == address(0) */\n      0xffffffffffffffffffffffffffffffffffffffff\n      and\n      sub\n        /* \"VolunteerCollectionNFT_flattened.sol\":50087:50175  if (to == address(0)) {... */\n      tag_147\n      jumpi\n        /* \"VolunteerCollectionNFT_flattened.sol\":50161:50162  0 */\n      0x00\n        /* \"VolunteerCollectionNFT_flattened.sol\":50130:50164  ERC1155InvalidReceiver(address(0)) */\n      mload(0x40)\n      0x57f447ce00000000000000000000000000000000000000000000000000000000\n      dup2\n      mstore\n      0x04\n      add\n      tag_148\n      swap2\n      swap1\n      tag_53\n      jump\t// in\n    tag_148:\n      mload(0x40)\n      dup1\n      swap2\n      sub\n      swap1\n      revert\n        /* \"VolunteerCollectionNFT_flattened.sol\":50087:50175  if (to == address(0)) {... */\n    tag_147:\n        /* \"VolunteerCollectionNFT_flattened.sol\":50204:50205  0 */\n      0x00\n        /* \"VolunteerCollectionNFT_flattened.sol\":50188:50206  from == address(0) */\n      0xffffffffffffffffffffffffffffffffffffffff\n      and\n        /* \"VolunteerCollectionNFT_flattened.sol\":50188:50192  from */\n      dup6\n        /* \"VolunteerCollectionNFT_flattened.sol\":50188:50206  from == address(0) */\n      0xffffffffffffffffffffffffffffffffffffffff\n      and\n      sub\n        /* \"VolunteerCollectionNFT_flattened.sol\":50184:50272  if (from == address(0)) {... */\n      tag_149\n      jumpi\n        /* \"VolunteerCollectionNFT_flattened.sol\":50258:50259  0 */\n      0x00\n        /* \"VolunteerCollectionNFT_flattened.sol\":50229:50261  ERC1155InvalidSender(address(0)) */\n      mload(0x40)\n      0x01a8351400000000000000000000000000000000000000000000000000000000\n      dup2\n      mstore\n      0x04\n      add\n      tag_150\n      swap2\n      swap1\n      tag_53\n      jump\t// in\n    tag_150:\n      mload(0x40)\n      dup1\n      swap2\n      sub\n      swap1\n      revert\n        /* \"VolunteerCollectionNFT_flattened.sol\":50184:50272  if (from == address(0)) {... */\n    tag_149:\n        /* \"VolunteerCollectionNFT_flattened.sol\":50281:50336  _updateWithAcceptanceCheck(from, to, ids, values, data) */\n      tag_151\n        /* \"VolunteerCollectionNFT_flattened.sol\":50308:50312  from */\n      dup6\n        /* \"VolunteerCollectionNFT_flattened.sol\":50314:50316  to */\n      dup6\n        /* \"VolunteerCollectionNFT_flattened.sol\":50318:50321  ids */\n      dup6\n        /* \"VolunteerCollectionNFT_flattened.sol\":50323:50329  values */\n      dup6\n        /* \"VolunteerCollectionNFT_flattened.sol\":50331:50335  data */\n      dup6\n        /* \"VolunteerCollectionNFT_flattened.sol\":50281:50307  _updateWithAcceptanceCheck */\n      tag_152\n        /* \"VolunteerCollectionNFT_flattened.sol\":50281:50336  _updateWithAcceptanceCheck(from, to, ids, values, data) */\n      jump\t// in\n    tag_151:\n        /* \"VolunteerCollectionNFT_flattened.sol\":49898:50343  function _safeBatchTransferFrom(... */\n      pop\n      pop\n      pop\n      pop\n      pop\n      jump\t// out\n        /* \"VolunteerCollectionNFT_flattened.sol\":34487:34684  function unsafeMemoryAccess(address[] memory arr, uint256 pos) internal pure returns (address res) {... */\n    tag_107:\n        /* \"VolunteerCollectionNFT_flattened.sol\":34573:34584  address res */\n      0x00\n        /* \"VolunteerCollectionNFT_flattened.sol\":34661:34665  0x20 */\n      0x20\n        /* \"VolunteerCollectionNFT_flattened.sol\":34656:34659  pos */\n      dup3\n        /* \"VolunteerCollectionNFT_flattened.sol\":34652:34666  mul(pos, 0x20) */\n      mul\n        /* \"VolunteerCollectionNFT_flattened.sol\":34645:34649  0x20 */\n      0x20\n        /* \"VolunteerCollectionNFT_flattened.sol\":34640:34643  arr */\n      dup5\n        /* \"VolunteerCollectionNFT_flattened.sol\":34636:34650  add(arr, 0x20) */\n      add\n        /* \"VolunteerCollectionNFT_flattened.sol\":34632:34667  add(add(arr, 0x20), mul(pos, 0x20)) */\n      add\n        /* \"VolunteerCollectionNFT_flattened.sol\":34626:34668  mload(add(add(arr, 0x20), mul(pos, 0x20))) */\n      mload\n        /* \"VolunteerCollectionNFT_flattened.sol\":34619:34668  res := mload(add(add(arr, 0x20), mul(pos, 0x20))) */\n      swap1\n      pop\n        /* \"VolunteerCollectionNFT_flattened.sol\":34487:34684  function unsafeMemoryAccess(address[] memory arr, uint256 pos) internal pure returns (address res) {... */\n      swap3\n      swap2\n      pop\n      pop\n      jump\t// out\n        /* \"VolunteerCollectionNFT_flattened.sol\":34088:34285  function unsafeMemoryAccess(uint256[] memory arr, uint256 pos) internal pure returns (uint256 res) {... */\n    tag_109:\n        /* \"VolunteerCollectionNFT_flattened.sol\":34174:34185  uint256 res */\n      0x00\n        /* \"VolunteerCollectionNFT_flattened.sol\":34262:34266  0x20 */\n      0x20\n        /* \"VolunteerCollectionNFT_flattened.sol\":34257:34260  pos */\n      dup3\n        /* \"VolunteerCollectionNFT_flattened.sol\":34253:34267  mul(pos, 0x20) */\n      mul\n        /* \"VolunteerCollectionNFT_flattened.sol\":34246:34250  0x20 */\n      0x20\n        /* \"VolunteerCollectionNFT_flattened.sol\":34241:34244  arr */\n      dup5\n        /* \"VolunteerCollectionNFT_flattened.sol\":34237:34251  add(arr, 0x20) */\n      add\n        /* \"VolunteerCollectionNFT_flattened.sol\":34233:34268  add(add(arr, 0x20), mul(pos, 0x20)) */\n      add\n        /* \"VolunteerCollectionNFT_flattened.sol\":34227:34269  mload(add(add(arr, 0x20), mul(pos, 0x20))) */\n      mload\n        /* \"VolunteerCollectionNFT_flattened.sol\":34220:34269  res := mload(add(add(arr, 0x20), mul(pos, 0x20))) */\n      swap1\n      pop\n        /* \"VolunteerCollectionNFT_flattened.sol\":34088:34285  function unsafeMemoryAccess(uint256[] memory arr, uint256 pos) internal pure returns (uint256 res) {... */\n      swap3\n      swap2\n      pop\n      pop\n      jump\t// out\n        /* \"VolunteerCollectionNFT_flattened.sol\":59588:59750  function _checkOwner() internal view virtual {... */\n    tag_115:\n        /* \"VolunteerCollectionNFT_flattened.sol\":59658:59670  _msgSender() */\n      tag_156\n        /* \"VolunteerCollectionNFT_flattened.sol\":59658:59668  _msgSender */\n      tag_86\n        /* \"VolunteerCollectionNFT_flattened.sol\":59658:59670  _msgSender() */\n      jump\t// in\n    tag_156:\n        /* \"VolunteerCollectionNFT_flattened.sol\":59647:59670  owner() != _msgSender() */\n      0xffffffffffffffffffffffffffffffffffffffff\n      and\n        /* \"VolunteerCollectionNFT_flattened.sol\":59647:59654  owner() */\n      tag_157\n        /* \"VolunteerCollectionNFT_flattened.sol\":59647:59652  owner */\n      tag_51\n        /* \"VolunteerCollectionNFT_flattened.sol\":59647:59654  owner() */\n      jump\t// in\n    tag_157:\n        /* \"VolunteerCollectionNFT_flattened.sol\":59647:59670  owner() != _msgSender() */\n      0xffffffffffffffffffffffffffffffffffffffff\n      and\n      eq\n        /* \"VolunteerCollectionNFT_flattened.sol\":59643:59744  if (owner() != _msgSender()) {... */\n      tag_158\n      jumpi\n        /* \"VolunteerCollectionNFT_flattened.sol\":59720:59732  _msgSender() */\n      tag_159\n        /* \"VolunteerCollectionNFT_flattened.sol\":59720:59730  _msgSender */\n      tag_86\n        /* \"VolunteerCollectionNFT_flattened.sol\":59720:59732  _msgSender() */\n      jump\t// in\n    tag_159:\n        /* \"VolunteerCollectionNFT_flattened.sol\":59693:59733  OwnableUnauthorizedAccount(_msgSender()) */\n      mload(0x40)\n      0x118cdaa700000000000000000000000000000000000000000000000000000000\n      dup2\n      mstore\n      0x04\n      add\n      tag_160\n      swap2\n      swap1\n      tag_53\n      jump\t// in\n    tag_160:\n      mload(0x40)\n      dup1\n      swap2\n      sub\n      swap1\n      revert\n        /* \"VolunteerCollectionNFT_flattened.sol\":59643:59744  if (owner() != _msgSender()) {... */\n    tag_158:\n        /* \"VolunteerCollectionNFT_flattened.sol\":59588:59750  function _checkOwner() internal view virtual {... */\n      jump\t// out\n        /* \"VolunteerCollectionNFT_flattened.sol\":60704:60891  function _transferOwnership(address newOwner) internal virtual {... */\n    tag_118:\n        /* \"VolunteerCollectionNFT_flattened.sol\":60777:60793  address oldOwner */\n      0x00\n        /* \"VolunteerCollectionNFT_flattened.sol\":60796:60802  _owner */\n      0x03\n      0x00\n      swap1\n      sload\n      swap1\n      0x0100\n      exp\n      swap1\n      div\n      0xffffffffffffffffffffffffffffffffffffffff\n      and\n        /* \"VolunteerCollectionNFT_flattened.sol\":60777:60802  address oldOwner = _owner */\n      swap1\n      pop\n        /* \"VolunteerCollectionNFT_flattened.sol\":60821:60829  newOwner */\n      dup2\n        /* \"VolunteerCollectionNFT_flattened.sol\":60812:60818  _owner */\n      0x03\n      0x00\n        /* \"VolunteerCollectionNFT_flattened.sol\":60812:60829  _owner = newOwner */\n      0x0100\n      exp\n      dup2\n      sload\n      dup2\n      0xffffffffffffffffffffffffffffffffffffffff\n      mul\n      not\n      and\n      swap1\n      dup4\n      0xffffffffffffffffffffffffffffffffffffffff\n      and\n      mul\n      or\n      swap1\n      sstore\n      pop\n        /* \"VolunteerCollectionNFT_flattened.sol\":60875:60883  newOwner */\n      dup2\n        /* \"VolunteerCollectionNFT_flattened.sol\":60844:60884  OwnershipTransferred(oldOwner, newOwner) */\n      0xffffffffffffffffffffffffffffffffffffffff\n      and\n        /* \"VolunteerCollectionNFT_flattened.sol\":60865:60873  oldOwner */\n      dup2\n        /* \"VolunteerCollectionNFT_flattened.sol\":60844:60884  OwnershipTransferred(oldOwner, newOwner) */\n      0xffffffffffffffffffffffffffffffffffffffff\n      and\n      0x8be0079c531659141344cd1fd0a4f28419497f9722a3daafe3b4186f6b6457e0\n      mload(0x40)\n      mload(0x40)\n      dup1\n      swap2\n      sub\n      swap1\n      log3\n        /* \"VolunteerCollectionNFT_flattened.sol\":60767:60891  {... */\n      pop\n        /* \"VolunteerCollectionNFT_flattened.sol\":60704:60891  function _transferOwnership(address newOwner) internal virtual {... */\n      pop\n      jump\t// out\n        /* \"VolunteerCollectionNFT_flattened.sol\":51629:51975  function _mint(address to, uint256 id, uint256 value, bytes memory data) internal {... */\n    tag_123:\n        /* \"VolunteerCollectionNFT_flattened.sol\":51739:51740  0 */\n      0x00\n        /* \"VolunteerCollectionNFT_flattened.sol\":51725:51741  to == address(0) */\n      0xffffffffffffffffffffffffffffffffffffffff\n      and\n        /* \"VolunteerCollectionNFT_flattened.sol\":51725:51727  to */\n      dup5\n        /* \"VolunteerCollectionNFT_flattened.sol\":51725:51741  to == address(0) */\n      0xffffffffffffffffffffffffffffffffffffffff\n      and\n      sub\n        /* \"VolunteerCollectionNFT_flattened.sol\":51721:51809  if (to == address(0)) {... */\n      tag_163\n      jumpi\n        /* \"VolunteerCollectionNFT_flattened.sol\":51795:51796  0 */\n      0x00\n        /* \"VolunteerCollectionNFT_flattened.sol\":51764:51798  ERC1155InvalidReceiver(address(0)) */\n      mload(0x40)\n      0x57f447ce00000000000000000000000000000000000000000000000000000000\n      dup2\n      mstore\n      0x04\n      add\n      tag_164\n      swap2\n      swap1\n      tag_53\n      jump\t// in\n    tag_164:\n      mload(0x40)\n      dup1\n      swap2\n      sub\n      swap1\n      revert\n        /* \"VolunteerCollectionNFT_flattened.sol\":51721:51809  if (to == address(0)) {... */\n    tag_163:\n        /* \"VolunteerCollectionNFT_flattened.sol\":51819:51839  uint256[] memory ids */\n      0x00\n        /* \"VolunteerCollectionNFT_flattened.sol\":51841:51864  uint256[] memory values */\n      dup1\n        /* \"VolunteerCollectionNFT_flattened.sol\":51868:51897  _asSingletonArrays(id, value) */\n      tag_165\n        /* \"VolunteerCollectionNFT_flattened.sol\":51887:51889  id */\n      dup6\n        /* \"VolunteerCollectionNFT_flattened.sol\":51891:51896  value */\n      dup6\n        /* \"VolunteerCollectionNFT_flattened.sol\":51868:51886  _asSingletonArrays */\n      tag_166\n        /* \"VolunteerCollectionNFT_flattened.sol\":51868:51897  _asSingletonArrays(id, value) */\n      jump\t// in\n    tag_165:\n        /* \"VolunteerCollectionNFT_flattened.sol\":51818:51897  (uint256[] memory ids, uint256[] memory values) = _asSingletonArrays(id, value) */\n      swap2\n      pop\n      swap2\n      pop\n        /* \"VolunteerCollectionNFT_flattened.sol\":51907:51968  _updateWithAcceptanceCheck(address(0), to, ids, values, data) */\n      tag_167\n        /* \"VolunteerCollectionNFT_flattened.sol\":51942:51943  0 */\n      0x00\n        /* \"VolunteerCollectionNFT_flattened.sol\":51946:51948  to */\n      dup8\n        /* \"VolunteerCollectionNFT_flattened.sol\":51950:51953  ids */\n      dup5\n        /* \"VolunteerCollectionNFT_flattened.sol\":51955:51961  values */\n      dup5\n        /* \"VolunteerCollectionNFT_flattened.sol\":51963:51967  data */\n      dup8\n        /* \"VolunteerCollectionNFT_flattened.sol\":51907:51933  _updateWithAcceptanceCheck */\n      tag_152\n        /* \"VolunteerCollectionNFT_flattened.sol\":51907:51968  _updateWithAcceptanceCheck(address(0), to, ids, values, data) */\n      jump\t// in\n    tag_167:\n        /* \"VolunteerCollectionNFT_flattened.sol\":51711:51975  {... */\n      pop\n      pop\n        /* \"VolunteerCollectionNFT_flattened.sol\":51629:51975  function _mint(address to, uint256 id, uint256 value, bytes memory data) internal {... */\n      pop\n      pop\n      pop\n      pop\n      jump\t// out\n        /* \"VolunteerCollectionNFT_flattened.sol\":54151:54466  function _setApprovalForAll(address owner, address operator, bool approved) internal virtual {... */\n    tag_128:\n        /* \"VolunteerCollectionNFT_flattened.sol\":54278:54279  0 */\n      0x00\n        /* \"VolunteerCollectionNFT_flattened.sol\":54258:54280  operator == address(0) */\n      0xffffffffffffffffffffffffffffffffffffffff\n      and\n        /* \"VolunteerCollectionNFT_flattened.sol\":54258:54266  operator */\n      dup3\n        /* \"VolunteerCollectionNFT_flattened.sol\":54258:54280  operator == address(0) */\n      0xffffffffffffffffffffffffffffffffffffffff\n      and\n      sub\n        /* \"VolunteerCollectionNFT_flattened.sol\":54254:54348  if (operator == address(0)) {... */\n      tag_169\n      jumpi\n        /* \"VolunteerCollectionNFT_flattened.sol\":54334:54335  0 */\n      0x00\n        /* \"VolunteerCollectionNFT_flattened.sol\":54303:54337  ERC1155InvalidOperator(address(0)) */\n      mload(0x40)\n      0xced3e10000000000000000000000000000000000000000000000000000000000\n      dup2\n      mstore\n      0x04\n      add\n      tag_170\n      swap2\n      swap1\n      tag_53\n      jump\t// in\n    tag_170:\n      mload(0x40)\n      dup1\n      swap2\n      sub\n      swap1\n      revert\n        /* \"VolunteerCollectionNFT_flattened.sol\":54254:54348  if (operator == address(0)) {... */\n    tag_169:\n        /* \"VolunteerCollectionNFT_flattened.sol\":54395:54403  approved */\n      dup1\n        /* \"VolunteerCollectionNFT_flattened.sol\":54357:54375  _operatorApprovals */\n      0x01\n        /* \"VolunteerCollectionNFT_flattened.sol\":54357:54382  _operatorApprovals[owner] */\n      0x00\n        /* \"VolunteerCollectionNFT_flattened.sol\":54376:54381  owner */\n      dup6\n        /* \"VolunteerCollectionNFT_flattened.sol\":54357:54382  _operatorApprovals[owner] */\n      0xffffffffffffffffffffffffffffffffffffffff\n      and\n      0xffffffffffffffffffffffffffffffffffffffff\n      and\n      dup2\n      mstore\n      0x20\n      add\n      swap1\n      dup2\n      mstore\n      0x20\n      add\n      0x00\n      keccak256\n        /* \"VolunteerCollectionNFT_flattened.sol\":54357:54392  _operatorApprovals[owner][operator] */\n      0x00\n        /* \"VolunteerCollectionNFT_flattened.sol\":54383:54391  operator */\n      dup5\n        /* \"VolunteerCollectionNFT_flattened.sol\":54357:54392  _operatorApprovals[owner][operator] */\n      0xffffffffffffffffffffffffffffffffffffffff\n      and\n      0xffffffffffffffffffffffffffffffffffffffff\n      and\n      dup2\n      mstore\n      0x20\n      add\n      swap1\n      dup2\n      mstore\n      0x20\n      add\n      0x00\n      keccak256\n      0x00\n        /* \"VolunteerCollectionNFT_flattened.sol\":54357:54403  _operatorApprovals[owner][operator] = approved */\n      0x0100\n      exp\n      dup2\n      sload\n      dup2\n      0xff\n      mul\n      not\n      and\n      swap1\n      dup4\n      iszero\n      iszero\n      mul\n      or\n      swap1\n      sstore\n      pop\n        /* \"VolunteerCollectionNFT_flattened.sol\":54440:54448  operator */\n      dup2\n        /* \"VolunteerCollectionNFT_flattened.sol\":54418:54459  ApprovalForAll(owner, operator, approved) */\n      0xffffffffffffffffffffffffffffffffffffffff\n      and\n        /* \"VolunteerCollectionNFT_flattened.sol\":54433:54438  owner */\n      dup4\n        /* \"VolunteerCollectionNFT_flattened.sol\":54418:54459  ApprovalForAll(owner, operator, approved) */\n      0xffffffffffffffffffffffffffffffffffffffff\n      and\n      0x17307eab39ab6107e8899845ad3d59bd9653f200f220920489ca2b5937696c31\n        /* \"VolunteerCollectionNFT_flattened.sol\":54450:54458  approved */\n      dup4\n        /* \"VolunteerCollectionNFT_flattened.sol\":54418:54459  ApprovalForAll(owner, operator, approved) */\n      mload(0x40)\n      tag_171\n      swap2\n      swap1\n      tag_27\n      jump\t// in\n    tag_171:\n      mload(0x40)\n      dup1\n      swap2\n      sub\n      swap1\n      log3\n        /* \"VolunteerCollectionNFT_flattened.sol\":54151:54466  function _setApprovalForAll(address owner, address operator, bool approved) internal virtual {... */\n      pop\n      pop\n      pop\n      jump\t// out\n        /* \"VolunteerCollectionNFT_flattened.sol\":49034:49497  function _safeTransferFrom(address from, address to, uint256 id, uint256 value, bytes memory data) internal {... */\n    tag_137:\n        /* \"VolunteerCollectionNFT_flattened.sol\":49170:49171  0 */\n      0x00\n        /* \"VolunteerCollectionNFT_flattened.sol\":49156:49172  to == address(0) */\n      0xffffffffffffffffffffffffffffffffffffffff\n      and\n        /* \"VolunteerCollectionNFT_flattened.sol\":49156:49158  to */\n      dup5\n        /* \"VolunteerCollectionNFT_flattened.sol\":49156:49172  to == address(0) */\n      0xffffffffffffffffffffffffffffffffffffffff\n      and\n      sub\n        /* \"VolunteerCollectionNFT_flattened.sol\":49152:49240  if (to == address(0)) {... */\n      tag_173\n      jumpi\n        /* \"VolunteerCollectionNFT_flattened.sol\":49226:49227  0 */\n      0x00\n        /* \"VolunteerCollectionNFT_flattened.sol\":49195:49229  ERC1155InvalidReceiver(address(0)) */\n      mload(0x40)\n      0x57f447ce00000000000000000000000000000000000000000000000000000000\n      dup2\n      mstore\n      0x04\n      add\n      tag_174\n      swap2\n      swap1\n      tag_53\n      jump\t// in\n    tag_174:\n      mload(0x40)\n      dup1\n      swap2\n      sub\n      swap1\n      revert\n        /* \"VolunteerCollectionNFT_flattened.sol\":49152:49240  if (to == address(0)) {... */\n    tag_173:\n        /* \"VolunteerCollectionNFT_flattened.sol\":49269:49270  0 */\n      0x00\n        /* \"VolunteerCollectionNFT_flattened.sol\":49253:49271  from == address(0) */\n      0xffffffffffffffffffffffffffffffffffffffff\n      and\n        /* \"VolunteerCollectionNFT_flattened.sol\":49253:49257  from */\n      dup6\n        /* \"VolunteerCollectionNFT_flattened.sol\":49253:49271  from == address(0) */\n      0xffffffffffffffffffffffffffffffffffffffff\n      and\n      sub\n        /* \"VolunteerCollectionNFT_flattened.sol\":49249:49337  if (from == address(0)) {... */\n      tag_175\n      jumpi\n        /* \"VolunteerCollectionNFT_flattened.sol\":49323:49324  0 */\n      0x00\n        /* \"VolunteerCollectionNFT_flattened.sol\":49294:49326  ERC1155InvalidSender(address(0)) */\n      mload(0x40)\n      0x01a8351400000000000000000000000000000000000000000000000000000000\n      dup2\n      mstore\n      0x04\n      add\n      tag_176\n      swap2\n      swap1\n      tag_53\n      jump\t// in\n    tag_176:\n      mload(0x40)\n      dup1\n      swap2\n      sub\n      swap1\n      revert\n        /* \"VolunteerCollectionNFT_flattened.sol\":49249:49337  if (from == address(0)) {... */\n    tag_175:\n        /* \"VolunteerCollectionNFT_flattened.sol\":49347:49367  uint256[] memory ids */\n      0x00\n        /* \"VolunteerCollectionNFT_flattened.sol\":49369:49392  uint256[] memory values */\n      dup1\n        /* \"VolunteerCollectionNFT_flattened.sol\":49396:49425  _asSingletonArrays(id, value) */\n      tag_177\n        /* \"VolunteerCollectionNFT_flattened.sol\":49415:49417  id */\n      dup6\n        /* \"VolunteerCollectionNFT_flattened.sol\":49419:49424  value */\n      dup6\n        /* \"VolunteerCollectionNFT_flattened.sol\":49396:49414  _asSingletonArrays */\n      tag_166\n        /* \"VolunteerCollectionNFT_flattened.sol\":49396:49425  _asSingletonArrays(id, value) */\n      jump\t// in\n    tag_177:\n        /* \"VolunteerCollectionNFT_flattened.sol\":49346:49425  (uint256[] memory ids, uint256[] memory values) = _asSingletonArrays(id, value) */\n      swap2\n      pop\n      swap2\n      pop\n        /* \"VolunteerCollectionNFT_flattened.sol\":49435:49490  _updateWithAcceptanceCheck(from, to, ids, values, data) */\n      tag_178\n        /* \"VolunteerCollectionNFT_flattened.sol\":49462:49466  from */\n      dup8\n        /* \"VolunteerCollectionNFT_flattened.sol\":49468:49470  to */\n      dup8\n        /* \"VolunteerCollectionNFT_flattened.sol\":49472:49475  ids */\n      dup5\n        /* \"VolunteerCollectionNFT_flattened.sol\":49477:49483  values */\n      dup5\n        /* \"VolunteerCollectionNFT_flattened.sol\":49485:49489  data */\n      dup8\n        /* \"VolunteerCollectionNFT_flattened.sol\":49435:49461  _updateWithAcceptanceCheck */\n      tag_152\n        /* \"VolunteerCollectionNFT_flattened.sol\":49435:49490  _updateWithAcceptanceCheck(from, to, ids, values, data) */\n      jump\t// in\n    tag_178:\n        /* \"VolunteerCollectionNFT_flattened.sol\":49142:49497  {... */\n      pop\n      pop\n        /* \"VolunteerCollectionNFT_flattened.sol\":49034:49497  function _safeTransferFrom(address from, address to, uint256 id, uint256 value, bytes memory data) internal {... */\n      pop\n      pop\n      pop\n      pop\n      pop\n      jump\t// out\n        /* \"VolunteerCollectionNFT_flattened.sol\":47887:48577  function _updateWithAcceptanceCheck(... */\n    tag_152:\n        /* \"VolunteerCollectionNFT_flattened.sol\":48088:48118  _update(from, to, ids, values) */\n      tag_180\n        /* \"VolunteerCollectionNFT_flattened.sol\":48096:48100  from */\n      dup6\n        /* \"VolunteerCollectionNFT_flattened.sol\":48102:48104  to */\n      dup6\n        /* \"VolunteerCollectionNFT_flattened.sol\":48106:48109  ids */\n      dup6\n        /* \"VolunteerCollectionNFT_flattened.sol\":48111:48117  values */\n      dup6\n        /* \"VolunteerCollectionNFT_flattened.sol\":48088:48095  _update */\n      tag_181\n        /* \"VolunteerCollectionNFT_flattened.sol\":48088:48118  _update(from, to, ids, values) */\n      jump\t// in\n    tag_180:\n        /* \"VolunteerCollectionNFT_flattened.sol\":48146:48147  0 */\n      0x00\n        /* \"VolunteerCollectionNFT_flattened.sol\":48132:48148  to != address(0) */\n      0xffffffffffffffffffffffffffffffffffffffff\n      and\n        /* \"VolunteerCollectionNFT_flattened.sol\":48132:48134  to */\n      dup5\n        /* \"VolunteerCollectionNFT_flattened.sol\":48132:48148  to != address(0) */\n      0xffffffffffffffffffffffffffffffffffffffff\n      and\n      eq\n        /* \"VolunteerCollectionNFT_flattened.sol\":48128:48571  if (to != address(0)) {... */\n      tag_182\n      jumpi\n        /* \"VolunteerCollectionNFT_flattened.sol\":48164:48180  address operator */\n      0x00\n        /* \"VolunteerCollectionNFT_flattened.sol\":48183:48195  _msgSender() */\n      tag_183\n        /* \"VolunteerCollectionNFT_flattened.sol\":48183:48193  _msgSender */\n      tag_86\n        /* \"VolunteerCollectionNFT_flattened.sol\":48183:48195  _msgSender() */\n      jump\t// in\n    tag_183:\n        /* \"VolunteerCollectionNFT_flattened.sol\":48164:48195  address operator = _msgSender() */\n      swap1\n      pop\n        /* \"VolunteerCollectionNFT_flattened.sol\":48227:48228  1 */\n      0x01\n        /* \"VolunteerCollectionNFT_flattened.sol\":48213:48216  ids */\n      dup5\n        /* \"VolunteerCollectionNFT_flattened.sol\":48213:48223  ids.length */\n      mload\n        /* \"VolunteerCollectionNFT_flattened.sol\":48213:48228  ids.length == 1 */\n      sub\n        /* \"VolunteerCollectionNFT_flattened.sol\":48209:48561  if (ids.length == 1) {... */\n      tag_184\n      jumpi\n        /* \"VolunteerCollectionNFT_flattened.sol\":48248:48258  uint256 id */\n      0x00\n        /* \"VolunteerCollectionNFT_flattened.sol\":48261:48286  ids.unsafeMemoryAccess(0) */\n      tag_185\n        /* \"VolunteerCollectionNFT_flattened.sol\":48284:48285  0 */\n      0x00\n        /* \"VolunteerCollectionNFT_flattened.sol\":48261:48264  ids */\n      dup7\n        /* \"VolunteerCollectionNFT_flattened.sol\":48261:48283  ids.unsafeMemoryAccess */\n      tag_109\n      swap1\n        /* \"VolunteerCollectionNFT_flattened.sol\":48261:48286  ids.unsafeMemoryAccess(0) */\n      swap2\n      swap1\n      0xffffffff\n      and\n      jump\t// in\n    tag_185:\n        /* \"VolunteerCollectionNFT_flattened.sol\":48248:48286  uint256 id = ids.unsafeMemoryAccess(0) */\n      swap1\n      pop\n        /* \"VolunteerCollectionNFT_flattened.sol\":48304:48317  uint256 value */\n      0x00\n        /* \"VolunteerCollectionNFT_flattened.sol\":48320:48348  values.unsafeMemoryAccess(0) */\n      tag_186\n        /* \"VolunteerCollectionNFT_flattened.sol\":48346:48347  0 */\n      0x00\n        /* \"VolunteerCollectionNFT_flattened.sol\":48320:48326  values */\n      dup7\n        /* \"VolunteerCollectionNFT_flattened.sol\":48320:48345  values.unsafeMemoryAccess */\n      tag_109\n      swap1\n        /* \"VolunteerCollectionNFT_flattened.sol\":48320:48348  values.unsafeMemoryAccess(0) */\n      swap2\n      swap1\n      0xffffffff\n      and\n      jump\t// in\n    tag_186:\n        /* \"VolunteerCollectionNFT_flattened.sol\":48304:48348  uint256 value = values.unsafeMemoryAccess(0) */\n      swap1\n      pop\n        /* \"VolunteerCollectionNFT_flattened.sol\":48366:48433  _doSafeTransferAcceptanceCheck(operator, from, to, id, value, data) */\n      tag_187\n        /* \"VolunteerCollectionNFT_flattened.sol\":48397:48405  operator */\n      dup4\n        /* \"VolunteerCollectionNFT_flattened.sol\":48407:48411  from */\n      dup10\n        /* \"VolunteerCollectionNFT_flattened.sol\":48413:48415  to */\n      dup10\n        /* \"VolunteerCollectionNFT_flattened.sol\":48417:48419  id */\n      dup6\n        /* \"VolunteerCollectionNFT_flattened.sol\":48421:48426  value */\n      dup6\n        /* \"VolunteerCollectionNFT_flattened.sol\":48428:48432  data */\n      dup10\n        /* \"VolunteerCollectionNFT_flattened.sol\":48366:48396  _doSafeTransferAcceptanceCheck */\n      tag_188\n        /* \"VolunteerCollectionNFT_flattened.sol\":48366:48433  _doSafeTransferAcceptanceCheck(operator, from, to, id, value, data) */\n      jump\t// in\n    tag_187:\n        /* \"VolunteerCollectionNFT_flattened.sol\":48230:48448  {... */\n      pop\n      pop\n        /* \"VolunteerCollectionNFT_flattened.sol\":48209:48561  if (ids.length == 1) {... */\n      jump(tag_189)\n    tag_184:\n        /* \"VolunteerCollectionNFT_flattened.sol\":48472:48546  _doSafeBatchTransferAcceptanceCheck(operator, from, to, ids, values, data) */\n      tag_190\n        /* \"VolunteerCollectionNFT_flattened.sol\":48508:48516  operator */\n      dup2\n        /* \"VolunteerCollectionNFT_flattened.sol\":48518:48522  from */\n      dup8\n        /* \"VolunteerCollectionNFT_flattened.sol\":48524:48526  to */\n      dup8\n        /* \"VolunteerCollectionNFT_flattened.sol\":48528:48531  ids */\n      dup8\n        /* \"VolunteerCollectionNFT_flattened.sol\":48533:48539  values */\n      dup8\n        /* \"VolunteerCollectionNFT_flattened.sol\":48541:48545  data */\n      dup8\n        /* \"VolunteerCollectionNFT_flattened.sol\":48472:48507  _doSafeBatchTransferAcceptanceCheck */\n      tag_191\n        /* \"VolunteerCollectionNFT_flattened.sol\":48472:48546  _doSafeBatchTransferAcceptanceCheck(operator, from, to, ids, values, data) */\n      jump\t// in\n    tag_190:\n        /* \"VolunteerCollectionNFT_flattened.sol\":48209:48561  if (ids.length == 1) {... */\n    tag_189:\n        /* \"VolunteerCollectionNFT_flattened.sol\":48150:48571  {... */\n      pop\n        /* \"VolunteerCollectionNFT_flattened.sol\":48128:48571  if (to != address(0)) {... */\n    tag_182:\n        /* \"VolunteerCollectionNFT_flattened.sol\":47887:48577  function _updateWithAcceptanceCheck(... */\n      pop\n      pop\n      pop\n      pop\n      pop\n      jump\t// out\n        /* \"VolunteerCollectionNFT_flattened.sol\":56963:57812  function _asSingletonArrays(... */\n    tag_166:\n        /* \"VolunteerCollectionNFT_flattened.sol\":57071:57094  uint256[] memory array1 */\n      0x60\n        /* \"VolunteerCollectionNFT_flattened.sol\":57096:57119  uint256[] memory array2 */\n      dup1\n        /* \"VolunteerCollectionNFT_flattened.sol\":57257:57261  0x40 */\n      0x40\n        /* \"VolunteerCollectionNFT_flattened.sol\":57251:57262  mload(0x40) */\n      mload\n        /* \"VolunteerCollectionNFT_flattened.sol\":57241:57262  array1 := mload(0x40) */\n      swap2\n      pop\n        /* \"VolunteerCollectionNFT_flattened.sol\":57327:57328  1 */\n      0x01\n        /* \"VolunteerCollectionNFT_flattened.sol\":57319:57325  array1 */\n      dup3\n        /* \"VolunteerCollectionNFT_flattened.sol\":57312:57329  mstore(array1, 1) */\n      mstore\n        /* \"VolunteerCollectionNFT_flattened.sol\":57465:57473  element1 */\n      dup4\n        /* \"VolunteerCollectionNFT_flattened.sol\":57458:57462  0x20 */\n      0x20\n        /* \"VolunteerCollectionNFT_flattened.sol\":57450:57456  array1 */\n      dup4\n        /* \"VolunteerCollectionNFT_flattened.sol\":57446:57463  add(array1, 0x20) */\n      add\n        /* \"VolunteerCollectionNFT_flattened.sol\":57439:57474  mstore(add(array1, 0x20), element1) */\n      mstore\n        /* \"VolunteerCollectionNFT_flattened.sol\":57587:57591  0x40 */\n      0x40\n        /* \"VolunteerCollectionNFT_flattened.sol\":57579:57585  array1 */\n      dup3\n        /* \"VolunteerCollectionNFT_flattened.sol\":57575:57592  add(array1, 0x40) */\n      add\n        /* \"VolunteerCollectionNFT_flattened.sol\":57565:57592  array2 := add(array1, 0x40) */\n      swap1\n      pop\n        /* \"VolunteerCollectionNFT_flattened.sol\":57620:57621  1 */\n      0x01\n        /* \"VolunteerCollectionNFT_flattened.sol\":57612:57618  array2 */\n      dup2\n        /* \"VolunteerCollectionNFT_flattened.sol\":57605:57622  mstore(array2, 1) */\n      mstore\n        /* \"VolunteerCollectionNFT_flattened.sol\":57661:57669  element2 */\n      dup3\n        /* \"VolunteerCollectionNFT_flattened.sol\":57654:57658  0x20 */\n      0x20\n        /* \"VolunteerCollectionNFT_flattened.sol\":57646:57652  array2 */\n      dup3\n        /* \"VolunteerCollectionNFT_flattened.sol\":57642:57659  add(array2, 0x20) */\n      add\n        /* \"VolunteerCollectionNFT_flattened.sol\":57635:57670  mstore(add(array2, 0x20), element2) */\n      mstore\n        /* \"VolunteerCollectionNFT_flattened.sol\":57790:57794  0x40 */\n      0x40\n        /* \"VolunteerCollectionNFT_flattened.sol\":57782:57788  array2 */\n      dup2\n        /* \"VolunteerCollectionNFT_flattened.sol\":57778:57795  add(array2, 0x40) */\n      add\n        /* \"VolunteerCollectionNFT_flattened.sol\":57772:57776  0x40 */\n      0x40\n        /* \"VolunteerCollectionNFT_flattened.sol\":57765:57796  mstore(0x40, add(array2, 0x40)) */\n      mstore\n        /* \"VolunteerCollectionNFT_flattened.sol\":56963:57812  function _asSingletonArrays(... */\n      swap3\n      pop\n      swap3\n      swap1\n      pop\n      jump\t// out\n        /* \"VolunteerCollectionNFT_flattened.sol\":46027:47308  function _update(address from, address to, uint256[] memory ids, uint256[] memory values) internal virtual {... */\n    tag_181:\n        /* \"VolunteerCollectionNFT_flattened.sol\":46162:46168  values */\n      dup1\n        /* \"VolunteerCollectionNFT_flattened.sol\":46162:46175  values.length */\n      mload\n        /* \"VolunteerCollectionNFT_flattened.sol\":46148:46151  ids */\n      dup3\n        /* \"VolunteerCollectionNFT_flattened.sol\":46148:46158  ids.length */\n      mload\n        /* \"VolunteerCollectionNFT_flattened.sol\":46148:46175  ids.length != values.length */\n      eq\n        /* \"VolunteerCollectionNFT_flattened.sol\":46144:46261  if (ids.length != values.length) {... */\n      tag_194\n      jumpi\n        /* \"VolunteerCollectionNFT_flattened.sol\":46224:46227  ids */\n      dup2\n        /* \"VolunteerCollectionNFT_flattened.sol\":46224:46234  ids.length */\n      mload\n        /* \"VolunteerCollectionNFT_flattened.sol\":46236:46242  values */\n      dup2\n        /* \"VolunteerCollectionNFT_flattened.sol\":46236:46249  values.length */\n      mload\n        /* \"VolunteerCollectionNFT_flattened.sol\":46198:46250  ERC1155InvalidArrayLength(ids.length, values.length) */\n      mload(0x40)\n      0x5b05999100000000000000000000000000000000000000000000000000000000\n      dup2\n      mstore\n      0x04\n      add\n      tag_195\n      swap3\n      swap2\n      swap1\n      tag_97\n      jump\t// in\n    tag_195:\n      mload(0x40)\n      dup1\n      swap2\n      sub\n      swap1\n      revert\n        /* \"VolunteerCollectionNFT_flattened.sol\":46144:46261  if (ids.length != values.length) {... */\n    tag_194:\n        /* \"VolunteerCollectionNFT_flattened.sol\":46271:46287  address operator */\n      0x00\n        /* \"VolunteerCollectionNFT_flattened.sol\":46290:46302  _msgSender() */\n      tag_196\n        /* \"VolunteerCollectionNFT_flattened.sol\":46290:46300  _msgSender */\n      tag_86\n        /* \"VolunteerCollectionNFT_flattened.sol\":46290:46302  _msgSender() */\n      jump\t// in\n    tag_196:\n        /* \"VolunteerCollectionNFT_flattened.sol\":46271:46302  address operator = _msgSender() */\n      swap1\n      pop\n        /* \"VolunteerCollectionNFT_flattened.sol\":46318:46327  uint256 i */\n      0x00\n        /* \"VolunteerCollectionNFT_flattened.sol\":46313:47004  for (uint256 i = 0; i < ids.length; ++i) {... */\n    tag_197:\n        /* \"VolunteerCollectionNFT_flattened.sol\":46337:46340  ids */\n      dup4\n        /* \"VolunteerCollectionNFT_flattened.sol\":46337:46347  ids.length */\n      mload\n        /* \"VolunteerCollectionNFT_flattened.sol\":46333:46334  i */\n      dup2\n        /* \"VolunteerCollectionNFT_flattened.sol\":46333:46347  i < ids.length */\n      lt\n        /* \"VolunteerCollectionNFT_flattened.sol\":46313:47004  for (uint256 i = 0; i < ids.length; ++i) {... */\n      iszero\n      tag_198\n      jumpi\n        /* \"VolunteerCollectionNFT_flattened.sol\":46368:46378  uint256 id */\n      0x00\n        /* \"VolunteerCollectionNFT_flattened.sol\":46381:46406  ids.unsafeMemoryAccess(i) */\n      tag_200\n        /* \"VolunteerCollectionNFT_flattened.sol\":46404:46405  i */\n      dup3\n        /* \"VolunteerCollectionNFT_flattened.sol\":46381:46384  ids */\n      dup7\n        /* \"VolunteerCollectionNFT_flattened.sol\":46381:46403  ids.unsafeMemoryAccess */\n      tag_109\n      swap1\n        /* \"VolunteerCollectionNFT_flattened.sol\":46381:46406  ids.unsafeMemoryAccess(i) */\n      swap2\n      swap1\n      0xffffffff\n      and\n      jump\t// in\n    tag_200:\n        /* \"VolunteerCollectionNFT_flattened.sol\":46368:46406  uint256 id = ids.unsafeMemoryAccess(i) */\n      swap1\n      pop\n        /* \"VolunteerCollectionNFT_flattened.sol\":46420:46433  uint256 value */\n      0x00\n        /* \"VolunteerCollectionNFT_flattened.sol\":46436:46464  values.unsafeMemoryAccess(i) */\n      tag_201\n        /* \"VolunteerCollectionNFT_flattened.sol\":46462:46463  i */\n      dup4\n        /* \"VolunteerCollectionNFT_flattened.sol\":46436:46442  values */\n      dup7\n        /* \"VolunteerCollectionNFT_flattened.sol\":46436:46461  values.unsafeMemoryAccess */\n      tag_109\n      swap1\n        /* \"VolunteerCollectionNFT_flattened.sol\":46436:46464  values.unsafeMemoryAccess(i) */\n      swap2\n      swap1\n      0xffffffff\n      and\n      jump\t// in\n    tag_201:\n        /* \"VolunteerCollectionNFT_flattened.sol\":46420:46464  uint256 value = values.unsafeMemoryAccess(i) */\n      swap1\n      pop\n        /* \"VolunteerCollectionNFT_flattened.sol\":46499:46500  0 */\n      0x00\n        /* \"VolunteerCollectionNFT_flattened.sol\":46483:46501  from != address(0) */\n      0xffffffffffffffffffffffffffffffffffffffff\n      and\n        /* \"VolunteerCollectionNFT_flattened.sol\":46483:46487  from */\n      dup9\n        /* \"VolunteerCollectionNFT_flattened.sol\":46483:46501  from != address(0) */\n      0xffffffffffffffffffffffffffffffffffffffff\n      and\n      eq\n        /* \"VolunteerCollectionNFT_flattened.sol\":46479:46899  if (from != address(0)) {... */\n      tag_202\n      jumpi\n        /* \"VolunteerCollectionNFT_flattened.sol\":46521:46540  uint256 fromBalance */\n      0x00\n        /* \"VolunteerCollectionNFT_flattened.sol\":46543:46552  _balances */\n      dup1\n        /* \"VolunteerCollectionNFT_flattened.sol\":46543:46556  _balances[id] */\n      0x00\n        /* \"VolunteerCollectionNFT_flattened.sol\":46553:46555  id */\n      dup5\n        /* \"VolunteerCollectionNFT_flattened.sol\":46543:46556  _balances[id] */\n      dup2\n      mstore\n      0x20\n      add\n      swap1\n      dup2\n      mstore\n      0x20\n      add\n      0x00\n      keccak256\n        /* \"VolunteerCollectionNFT_flattened.sol\":46543:46562  _balances[id][from] */\n      0x00\n        /* \"VolunteerCollectionNFT_flattened.sol\":46557:46561  from */\n      dup11\n        /* \"VolunteerCollectionNFT_flattened.sol\":46543:46562  _balances[id][from] */\n      0xffffffffffffffffffffffffffffffffffffffff\n      and\n      0xffffffffffffffffffffffffffffffffffffffff\n      and\n      dup2\n      mstore\n      0x20\n      add\n      swap1\n      dup2\n      mstore\n      0x20\n      add\n      0x00\n      keccak256\n      sload\n        /* \"VolunteerCollectionNFT_flattened.sol\":46521:46562  uint256 fromBalance = _balances[id][from] */\n      swap1\n      pop\n        /* \"VolunteerCollectionNFT_flattened.sol\":46598:46603  value */\n      dup2\n        /* \"VolunteerCollectionNFT_flattened.sol\":46584:46595  fromBalance */\n      dup2\n        /* \"VolunteerCollectionNFT_flattened.sol\":46584:46603  fromBalance < value */\n      lt\n        /* \"VolunteerCollectionNFT_flattened.sol\":46580:46709  if (fromBalance < value) {... */\n      iszero\n      tag_203\n      jumpi\n        /* \"VolunteerCollectionNFT_flattened.sol\":46661:46665  from */\n      dup9\n        /* \"VolunteerCollectionNFT_flattened.sol\":46667:46678  fromBalance */\n      dup2\n        /* \"VolunteerCollectionNFT_flattened.sol\":46680:46685  value */\n      dup4\n        /* \"VolunteerCollectionNFT_flattened.sol\":46687:46689  id */\n      dup6\n        /* \"VolunteerCollectionNFT_flattened.sol\":46634:46690  ERC1155InsufficientBalance(from, fromBalance, value, id) */\n      mload(0x40)\n      0x03dee4c500000000000000000000000000000000000000000000000000000000\n      dup2\n      mstore\n      0x04\n      add\n      tag_204\n      swap5\n      swap4\n      swap3\n      swap2\n      swap1\n      tag_205\n      jump\t// in\n    tag_204:\n      mload(0x40)\n      dup1\n      swap2\n      sub\n      swap1\n      revert\n        /* \"VolunteerCollectionNFT_flattened.sol\":46580:46709  if (fromBalance < value) {... */\n    tag_203:\n        /* \"VolunteerCollectionNFT_flattened.sol\":46861:46866  value */\n      dup2\n        /* \"VolunteerCollectionNFT_flattened.sol\":46847:46858  fromBalance */\n      dup2\n        /* \"VolunteerCollectionNFT_flattened.sol\":46847:46866  fromBalance - value */\n      sub\n        /* \"VolunteerCollectionNFT_flattened.sol\":46825:46834  _balances */\n      0x00\n        /* \"VolunteerCollectionNFT_flattened.sol\":46825:46838  _balances[id] */\n      dup1\n        /* \"VolunteerCollectionNFT_flattened.sol\":46835:46837  id */\n      dup6\n        /* \"VolunteerCollectionNFT_flattened.sol\":46825:46838  _balances[id] */\n      dup2\n      mstore\n      0x20\n      add\n      swap1\n      dup2\n      mstore\n      0x20\n      add\n      0x00\n      keccak256\n        /* \"VolunteerCollectionNFT_flattened.sol\":46825:46844  _balances[id][from] */\n      0x00\n        /* \"VolunteerCollectionNFT_flattened.sol\":46839:46843  from */\n      dup12\n        /* \"VolunteerCollectionNFT_flattened.sol\":46825:46844  _balances[id][from] */\n      0xffffffffffffffffffffffffffffffffffffffff\n      and\n      0xffffffffffffffffffffffffffffffffffffffff\n      and\n      dup2\n      mstore\n      0x20\n      add\n      swap1\n      dup2\n      mstore\n      0x20\n      add\n      0x00\n      keccak256\n        /* \"VolunteerCollectionNFT_flattened.sol\":46825:46866  _balances[id][from] = fromBalance - value */\n      dup2\n      swap1\n      sstore\n      pop\n        /* \"VolunteerCollectionNFT_flattened.sol\":46503:46899  {... */\n      pop\n        /* \"VolunteerCollectionNFT_flattened.sol\":46479:46899  if (from != address(0)) {... */\n    tag_202:\n        /* \"VolunteerCollectionNFT_flattened.sol\":46931:46932  0 */\n      0x00\n        /* \"VolunteerCollectionNFT_flattened.sol\":46917:46933  to != address(0) */\n      0xffffffffffffffffffffffffffffffffffffffff\n      and\n        /* \"VolunteerCollectionNFT_flattened.sol\":46917:46919  to */\n      dup8\n        /* \"VolunteerCollectionNFT_flattened.sol\":46917:46933  to != address(0) */\n      0xffffffffffffffffffffffffffffffffffffffff\n      and\n      eq\n        /* \"VolunteerCollectionNFT_flattened.sol\":46913:46994  if (to != address(0)) {... */\n      tag_206\n      jumpi\n        /* \"VolunteerCollectionNFT_flattened.sol\":46974:46979  value */\n      dup1\n        /* \"VolunteerCollectionNFT_flattened.sol\":46953:46962  _balances */\n      0x00\n        /* \"VolunteerCollectionNFT_flattened.sol\":46953:46966  _balances[id] */\n      dup1\n        /* \"VolunteerCollectionNFT_flattened.sol\":46963:46965  id */\n      dup5\n        /* \"VolunteerCollectionNFT_flattened.sol\":46953:46966  _balances[id] */\n      dup2\n      mstore\n      0x20\n      add\n      swap1\n      dup2\n      mstore\n      0x20\n      add\n      0x00\n      keccak256\n        /* \"VolunteerCollectionNFT_flattened.sol\":46953:46970  _balances[id][to] */\n      0x00\n        /* \"VolunteerCollectionNFT_flattened.sol\":46967:46969  to */\n      dup10\n        /* \"VolunteerCollectionNFT_flattened.sol\":46953:46970  _balances[id][to] */\n      0xffffffffffffffffffffffffffffffffffffffff\n      and\n      0xffffffffffffffffffffffffffffffffffffffff\n      and\n      dup2\n      mstore\n      0x20\n      add\n      swap1\n      dup2\n      mstore\n      0x20\n      add\n      0x00\n      keccak256\n      0x00\n        /* \"VolunteerCollectionNFT_flattened.sol\":46953:46979  _balances[id][to] += value */\n      dup3\n      dup3\n      sload\n      tag_207\n      swap2\n      swap1\n      tag_208\n      jump\t// in\n    tag_207:\n      swap3\n      pop\n      pop\n      dup2\n      swap1\n      sstore\n      pop\n        /* \"VolunteerCollectionNFT_flattened.sol\":46913:46994  if (to != address(0)) {... */\n    tag_206:\n        /* \"VolunteerCollectionNFT_flattened.sol\":46354:47004  {... */\n      pop\n      pop\n        /* \"VolunteerCollectionNFT_flattened.sol\":46349:46352  ++i */\n      dup1\n      0x01\n      add\n      swap1\n      pop\n        /* \"VolunteerCollectionNFT_flattened.sol\":46313:47004  for (uint256 i = 0; i < ids.length; ++i) {... */\n      jump(tag_197)\n    tag_198:\n      pop\n        /* \"VolunteerCollectionNFT_flattened.sol\":47032:47033  1 */\n      0x01\n        /* \"VolunteerCollectionNFT_flattened.sol\":47018:47021  ids */\n      dup4\n        /* \"VolunteerCollectionNFT_flattened.sol\":47018:47028  ids.length */\n      mload\n        /* \"VolunteerCollectionNFT_flattened.sol\":47018:47033  ids.length == 1 */\n      sub\n        /* \"VolunteerCollectionNFT_flattened.sol\":47014:47302  if (ids.length == 1) {... */\n      tag_209\n      jumpi\n        /* \"VolunteerCollectionNFT_flattened.sol\":47049:47059  uint256 id */\n      0x00\n        /* \"VolunteerCollectionNFT_flattened.sol\":47062:47087  ids.unsafeMemoryAccess(0) */\n      tag_210\n        /* \"VolunteerCollectionNFT_flattened.sol\":47085:47086  0 */\n      0x00\n        /* \"VolunteerCollectionNFT_flattened.sol\":47062:47065  ids */\n      dup6\n        /* \"VolunteerCollectionNFT_flattened.sol\":47062:47084  ids.unsafeMemoryAccess */\n      tag_109\n      swap1\n        /* \"VolunteerCollectionNFT_flattened.sol\":47062:47087  ids.unsafeMemoryAccess(0) */\n      swap2\n      swap1\n      0xffffffff\n      and\n      jump\t// in\n    tag_210:\n        /* \"VolunteerCollectionNFT_flattened.sol\":47049:47087  uint256 id = ids.unsafeMemoryAccess(0) */\n      swap1\n      pop\n        /* \"VolunteerCollectionNFT_flattened.sol\":47101:47114  uint256 value */\n      0x00\n        /* \"VolunteerCollectionNFT_flattened.sol\":47117:47145  values.unsafeMemoryAccess(0) */\n      tag_211\n        /* \"VolunteerCollectionNFT_flattened.sol\":47143:47144  0 */\n      0x00\n        /* \"VolunteerCollectionNFT_flattened.sol\":47117:47123  values */\n      dup6\n        /* \"VolunteerCollectionNFT_flattened.sol\":47117:47142  values.unsafeMemoryAccess */\n      tag_109\n      swap1\n        /* \"VolunteerCollectionNFT_flattened.sol\":47117:47145  values.unsafeMemoryAccess(0) */\n      swap2\n      swap1\n      0xffffffff\n      and\n      jump\t// in\n    tag_211:\n        /* \"VolunteerCollectionNFT_flattened.sol\":47101:47145  uint256 value = values.unsafeMemoryAccess(0) */\n      swap1\n      pop\n        /* \"VolunteerCollectionNFT_flattened.sol\":47195:47197  to */\n      dup6\n        /* \"VolunteerCollectionNFT_flattened.sol\":47164:47209  TransferSingle(operator, from, to, id, value) */\n      0xffffffffffffffffffffffffffffffffffffffff\n      and\n        /* \"VolunteerCollectionNFT_flattened.sol\":47189:47193  from */\n      dup8\n        /* \"VolunteerCollectionNFT_flattened.sol\":47164:47209  TransferSingle(operator, from, to, id, value) */\n      0xffffffffffffffffffffffffffffffffffffffff\n      and\n        /* \"VolunteerCollectionNFT_flattened.sol\":47179:47187  operator */\n      dup5\n        /* \"VolunteerCollectionNFT_flattened.sol\":47164:47209  TransferSingle(operator, from, to, id, value) */\n      0xffffffffffffffffffffffffffffffffffffffff\n      and\n      0xc3d58168c5ae7397731d063d5bbf3d657854427343f4c083240f7aacaa2d0f62\n        /* \"VolunteerCollectionNFT_flattened.sol\":47199:47201  id */\n      dup6\n        /* \"VolunteerCollectionNFT_flattened.sol\":47203:47208  value */\n      dup6\n        /* \"VolunteerCollectionNFT_flattened.sol\":47164:47209  TransferSingle(operator, from, to, id, value) */\n      mload(0x40)\n      tag_212\n      swap3\n      swap2\n      swap1\n      tag_97\n      jump\t// in\n    tag_212:\n      mload(0x40)\n      dup1\n      swap2\n      sub\n      swap1\n      log4\n        /* \"VolunteerCollectionNFT_flattened.sol\":47035:47220  {... */\n      pop\n      pop\n        /* \"VolunteerCollectionNFT_flattened.sol\":47014:47302  if (ids.length == 1) {... */\n      jump(tag_213)\n    tag_209:\n        /* \"VolunteerCollectionNFT_flattened.sol\":47275:47277  to */\n      dup4\n        /* \"VolunteerCollectionNFT_flattened.sol\":47245:47291  TransferBatch(operator, from, to, ids, values) */\n      0xffffffffffffffffffffffffffffffffffffffff\n      and\n        /* \"VolunteerCollectionNFT_flattened.sol\":47269:47273  from */\n      dup6\n        /* \"VolunteerCollectionNFT_flattened.sol\":47245:47291  TransferBatch(operator, from, to, ids, values) */\n      0xffffffffffffffffffffffffffffffffffffffff\n      and\n        /* \"VolunteerCollectionNFT_flattened.sol\":47259:47267  operator */\n      dup3\n        /* \"VolunteerCollectionNFT_flattened.sol\":47245:47291  TransferBatch(operator, from, to, ids, values) */\n      0xffffffffffffffffffffffffffffffffffffffff\n      and\n      0x4a39dc06d4c0dbc64b70af90fd698a233a518aa5d07e595d983b8c0526c8f7fb\n        /* \"VolunteerCollectionNFT_flattened.sol\":47279:47282  ids */\n      dup7\n        /* \"VolunteerCollectionNFT_flattened.sol\":47284:47290  values */\n      dup7\n        /* \"VolunteerCollectionNFT_flattened.sol\":47245:47291  TransferBatch(operator, from, to, ids, values) */\n      mload(0x40)\n      tag_214\n      swap3\n      swap2\n      swap1\n      tag_215\n      jump\t// in\n    tag_214:\n      mload(0x40)\n      dup1\n      swap2\n      sub\n      swap1\n      log4\n        /* \"VolunteerCollectionNFT_flattened.sol\":47014:47302  if (ids.length == 1) {... */\n    tag_213:\n        /* \"VolunteerCollectionNFT_flattened.sol\":46134:47308  {... */\n      pop\n        /* \"VolunteerCollectionNFT_flattened.sol\":46027:47308  function _update(address from, address to, uint256[] memory ids, uint256[] memory values) internal virtual {... */\n      pop\n      pop\n      pop\n      pop\n      jump\t// out\n        /* \"VolunteerCollectionNFT_flattened.sol\":54644:55618  function _doSafeTransferAcceptanceCheck(... */\n    tag_188:\n        /* \"VolunteerCollectionNFT_flattened.sol\":54867:54868  0 */\n      0x00\n        /* \"VolunteerCollectionNFT_flattened.sol\":54850:54852  to */\n      dup5\n        /* \"VolunteerCollectionNFT_flattened.sol\":54850:54864  to.code.length */\n      0xffffffffffffffffffffffffffffffffffffffff\n      and\n      extcodesize\n        /* \"VolunteerCollectionNFT_flattened.sol\":54850:54868  to.code.length > 0 */\n      gt\n        /* \"VolunteerCollectionNFT_flattened.sol\":54846:55612  if (to.code.length > 0) {... */\n      iszero\n      tag_217\n      jumpi\n        /* \"VolunteerCollectionNFT_flattened.sol\":54905:54907  to */\n      dup4\n        /* \"VolunteerCollectionNFT_flattened.sol\":54888:54926  IERC1155Receiver(to).onERC1155Received */\n      0xffffffffffffffffffffffffffffffffffffffff\n      and\n      0xf23a6e61\n        /* \"VolunteerCollectionNFT_flattened.sol\":54927:54935  operator */\n      dup8\n        /* \"VolunteerCollectionNFT_flattened.sol\":54937:54941  from */\n      dup8\n        /* \"VolunteerCollectionNFT_flattened.sol\":54943:54945  id */\n      dup7\n        /* \"VolunteerCollectionNFT_flattened.sol\":54947:54952  value */\n      dup7\n        /* \"VolunteerCollectionNFT_flattened.sol\":54954:54958  data */\n      dup7\n        /* \"VolunteerCollectionNFT_flattened.sol\":54888:54959  IERC1155Receiver(to).onERC1155Received(operator, from, id, value, data) */\n      mload(0x40)\n      dup7\n      0xffffffff\n      and\n      0xe0\n      shl\n      dup2\n      mstore\n      0x04\n      add\n      tag_218\n      swap6\n      swap5\n      swap4\n      swap3\n      swap2\n      swap1\n      tag_219\n      jump\t// in\n    tag_218:\n      0x20\n      mload(0x40)\n      dup1\n      dup4\n      sub\n      dup2\n      0x00\n      dup8\n      gas\n      call\n      swap3\n      pop\n      pop\n      pop\n      dup1\n      iszero\n      tag_220\n      jumpi\n      pop\n      mload(0x40)\n      returndatasize\n      not(0x1f)\n      0x1f\n      dup3\n      add\n      and\n      dup3\n      add\n      dup1\n      0x40\n      mstore\n      pop\n      dup2\n      add\n      swap1\n      tag_221\n      swap2\n      swap1\n      tag_222\n      jump\t// in\n    tag_221:\n      0x01\n    tag_220:\n        /* \"VolunteerCollectionNFT_flattened.sol\":54884:55602  try IERC1155Receiver(to).onERC1155Received(operator, from, id, value, data) returns (bytes4 response) {... */\n      tag_223\n      jumpi\n      returndatasize\n      dup1\n      0x00\n      dup2\n      eq\n      tag_228\n      jumpi\n      mload(0x40)\n      swap2\n      pop\n      and(add(returndatasize, 0x3f), not(0x1f))\n      dup3\n      add\n      0x40\n      mstore\n      returndatasize\n      dup3\n      mstore\n      returndatasize\n      0x00\n      0x20\n      dup5\n      add\n      returndatacopy\n      jump(tag_227)\n    tag_228:\n      0x60\n      swap2\n      pop\n    tag_227:\n      pop\n        /* \"VolunteerCollectionNFT_flattened.sol\":55260:55261  0 */\n      0x00\n        /* \"VolunteerCollectionNFT_flattened.sol\":55243:55249  reason */\n      dup2\n        /* \"VolunteerCollectionNFT_flattened.sol\":55243:55256  reason.length */\n      mload\n        /* \"VolunteerCollectionNFT_flattened.sol\":55243:55261  reason.length == 0 */\n      sub\n        /* \"VolunteerCollectionNFT_flattened.sol\":55239:55588  if (reason.length == 0) {... */\n      tag_229\n      jumpi\n        /* \"VolunteerCollectionNFT_flattened.sol\":55370:55372  to */\n      dup5\n        /* \"VolunteerCollectionNFT_flattened.sol\":55347:55373  ERC1155InvalidReceiver(to) */\n      mload(0x40)\n      0x57f447ce00000000000000000000000000000000000000000000000000000000\n      dup2\n      mstore\n      0x04\n      add\n      tag_230\n      swap2\n      swap1\n      tag_53\n      jump\t// in\n    tag_230:\n      mload(0x40)\n      dup1\n      swap2\n      sub\n      swap1\n      revert\n        /* \"VolunteerCollectionNFT_flattened.sol\":55239:55588  if (reason.length == 0) {... */\n    tag_229:\n        /* \"VolunteerCollectionNFT_flattened.sol\":55540:55546  reason */\n      dup1\n        /* \"VolunteerCollectionNFT_flattened.sol\":55534:55547  mload(reason) */\n      mload\n        /* \"VolunteerCollectionNFT_flattened.sol\":55525:55531  reason */\n      dup2\n        /* \"VolunteerCollectionNFT_flattened.sol\":55521:55523  32 */\n      0x20\n        /* \"VolunteerCollectionNFT_flattened.sol\":55517:55532  add(32, reason) */\n      add\n        /* \"VolunteerCollectionNFT_flattened.sol\":55510:55548  revert(add(32, reason), mload(reason)) */\n      revert\n        /* \"VolunteerCollectionNFT_flattened.sol\":54884:55602  try IERC1155Receiver(to).onERC1155Received(operator, from, id, value, data) returns (bytes4 response) {... */\n    tag_223:\n        /* \"VolunteerCollectionNFT_flattened.sol\":55020:55063  IERC1155Receiver.onERC1155Received.selector */\n      shl(0xe0, 0xf23a6e61)\n        /* \"VolunteerCollectionNFT_flattened.sol\":55008:55063  response != IERC1155Receiver.onERC1155Received.selector */\n      not(0xffffffffffffffffffffffffffffffffffffffffffffffffffffffff)\n      and\n        /* \"VolunteerCollectionNFT_flattened.sol\":55008:55016  response */\n      dup2\n        /* \"VolunteerCollectionNFT_flattened.sol\":55008:55063  response != IERC1155Receiver.onERC1155Received.selector */\n      not(0xffffffffffffffffffffffffffffffffffffffffffffffffffffffff)\n      and\n      eq\n        /* \"VolunteerCollectionNFT_flattened.sol\":55004:55178  if (response != IERC1155Receiver.onERC1155Received.selector) {... */\n      tag_233\n      jumpi\n        /* \"VolunteerCollectionNFT_flattened.sol\":55156:55158  to */\n      dup5\n        /* \"VolunteerCollectionNFT_flattened.sol\":55133:55159  ERC1155InvalidReceiver(to) */\n      mload(0x40)\n      0x57f447ce00000000000000000000000000000000000000000000000000000000\n      dup2\n      mstore\n      0x04\n      add\n      tag_234\n      swap2\n      swap1\n      tag_53\n      jump\t// in\n    tag_234:\n      mload(0x40)\n      dup1\n      swap2\n      sub\n      swap1\n      revert\n        /* \"VolunteerCollectionNFT_flattened.sol\":55004:55178  if (response != IERC1155Receiver.onERC1155Received.selector) {... */\n    tag_233:\n        /* \"VolunteerCollectionNFT_flattened.sol\":54960:55192  returns (bytes4 response) {... */\n      pop\n        /* \"VolunteerCollectionNFT_flattened.sol\":54846:55612  if (to.code.length > 0) {... */\n    tag_217:\n        /* \"VolunteerCollectionNFT_flattened.sol\":54644:55618  function _doSafeTransferAcceptanceCheck(... */\n      pop\n      pop\n      pop\n      pop\n      pop\n      pop\n      jump\t// out\n        /* \"VolunteerCollectionNFT_flattened.sol\":55806:56847  function _doSafeBatchTransferAcceptanceCheck(... */\n    tag_191:\n        /* \"VolunteerCollectionNFT_flattened.sol\":56054:56055  0 */\n      0x00\n        /* \"VolunteerCollectionNFT_flattened.sol\":56037:56039  to */\n      dup5\n        /* \"VolunteerCollectionNFT_flattened.sol\":56037:56051  to.code.length */\n      0xffffffffffffffffffffffffffffffffffffffff\n      and\n      extcodesize\n        /* \"VolunteerCollectionNFT_flattened.sol\":56037:56055  to.code.length > 0 */\n      gt\n        /* \"VolunteerCollectionNFT_flattened.sol\":56033:56841  if (to.code.length > 0) {... */\n      iszero\n      tag_236\n      jumpi\n        /* \"VolunteerCollectionNFT_flattened.sol\":56092:56094  to */\n      dup4\n        /* \"VolunteerCollectionNFT_flattened.sol\":56075:56118  IERC1155Receiver(to).onERC1155BatchReceived */\n      0xffffffffffffffffffffffffffffffffffffffff\n      and\n      0xbc197c81\n        /* \"VolunteerCollectionNFT_flattened.sol\":56119:56127  operator */\n      dup8\n        /* \"VolunteerCollectionNFT_flattened.sol\":56129:56133  from */\n      dup8\n        /* \"VolunteerCollectionNFT_flattened.sol\":56135:56138  ids */\n      dup7\n        /* \"VolunteerCollectionNFT_flattened.sol\":56140:56146  values */\n      dup7\n        /* \"VolunteerCollectionNFT_flattened.sol\":56148:56152  data */\n      dup7\n        /* \"VolunteerCollectionNFT_flattened.sol\":56075:56153  IERC1155Receiver(to).onERC1155BatchReceived(operator, from, ids, values, data) */\n      mload(0x40)\n      dup7\n      0xffffffff\n      and\n      0xe0\n      shl\n      dup2\n      mstore\n      0x04\n      add\n      tag_237\n      swap6\n      swap5\n      swap4\n      swap3\n      swap2\n      swap1\n      tag_238\n      jump\t// in\n    tag_237:\n      0x20\n      mload(0x40)\n      dup1\n      dup4\n      sub\n      dup2\n      0x00\n      dup8\n      gas\n      call\n      swap3\n      pop\n      pop\n      pop\n      dup1\n      iszero\n      tag_239\n      jumpi\n      pop\n      mload(0x40)\n      returndatasize\n      not(0x1f)\n      0x1f\n      dup3\n      add\n      and\n      dup3\n      add\n      dup1\n      0x40\n      mstore\n      pop\n      dup2\n      add\n      swap1\n      tag_240\n      swap2\n      swap1\n      tag_222\n      jump\t// in\n    tag_240:\n      0x01\n    tag_239:\n        /* \"VolunteerCollectionNFT_flattened.sol\":56071:56831  try IERC1155Receiver(to).onERC1155BatchReceived(operator, from, ids, values, data) returns (... */\n      tag_241\n      jumpi\n      returndatasize\n      dup1\n      0x00\n      dup2\n      eq\n      tag_246\n      jumpi\n      mload(0x40)\n      swap2\n      pop\n      and(add(returndatasize, 0x3f), not(0x1f))\n      dup3\n      add\n      0x40\n      mstore\n      returndatasize\n      dup3\n      mstore\n      returndatasize\n      0x00\n      0x20\n      dup5\n      add\n      returndatacopy\n      jump(tag_245)\n    tag_246:\n      0x60\n      swap2\n      pop\n    tag_245:\n      pop\n        /* \"VolunteerCollectionNFT_flattened.sol\":56489:56490  0 */\n      0x00\n        /* \"VolunteerCollectionNFT_flattened.sol\":56472:56478  reason */\n      dup2\n        /* \"VolunteerCollectionNFT_flattened.sol\":56472:56485  reason.length */\n      mload\n        /* \"VolunteerCollectionNFT_flattened.sol\":56472:56490  reason.length == 0 */\n      sub\n        /* \"VolunteerCollectionNFT_flattened.sol\":56468:56817  if (reason.length == 0) {... */\n      tag_247\n      jumpi\n        /* \"VolunteerCollectionNFT_flattened.sol\":56599:56601  to */\n      dup5\n        /* \"VolunteerCollectionNFT_flattened.sol\":56576:56602  ERC1155InvalidReceiver(to) */\n      mload(0x40)\n      0x57f447ce00000000000000000000000000000000000000000000000000000000\n      dup2\n      mstore\n      0x04\n      add\n      tag_248\n      swap2\n      swap1\n      tag_53\n      jump\t// in\n    tag_248:\n      mload(0x40)\n      dup1\n      swap2\n      sub\n      swap1\n      revert\n        /* \"VolunteerCollectionNFT_flattened.sol\":56468:56817  if (reason.length == 0) {... */\n    tag_247:\n        /* \"VolunteerCollectionNFT_flattened.sol\":56769:56775  reason */\n      dup1\n        /* \"VolunteerCollectionNFT_flattened.sol\":56763:56776  mload(reason) */\n      mload\n        /* \"VolunteerCollectionNFT_flattened.sol\":56754:56760  reason */\n      dup2\n        /* \"VolunteerCollectionNFT_flattened.sol\":56750:56752  32 */\n      0x20\n        /* \"VolunteerCollectionNFT_flattened.sol\":56746:56761  add(32, reason) */\n      add\n        /* \"VolunteerCollectionNFT_flattened.sol\":56739:56777  revert(add(32, reason), mload(reason)) */\n      revert\n        /* \"VolunteerCollectionNFT_flattened.sol\":56071:56831  try IERC1155Receiver(to).onERC1155BatchReceived(operator, from, ids, values, data) returns (... */\n    tag_241:\n        /* \"VolunteerCollectionNFT_flattened.sol\":56244:56292  IERC1155Receiver.onERC1155BatchReceived.selector */\n      shl(0xe0, 0xbc197c81)\n        /* \"VolunteerCollectionNFT_flattened.sol\":56232:56292  response != IERC1155Receiver.onERC1155BatchReceived.selector */\n      not(0xffffffffffffffffffffffffffffffffffffffffffffffffffffffff)\n      and\n        /* \"VolunteerCollectionNFT_flattened.sol\":56232:56240  response */\n      dup2\n        /* \"VolunteerCollectionNFT_flattened.sol\":56232:56292  response != IERC1155Receiver.onERC1155BatchReceived.selector */\n      not(0xffffffffffffffffffffffffffffffffffffffffffffffffffffffff)\n      and\n      eq\n        /* \"VolunteerCollectionNFT_flattened.sol\":56228:56407  if (response != IERC1155Receiver.onERC1155BatchReceived.selector) {... */\n      tag_251\n      jumpi\n        /* \"VolunteerCollectionNFT_flattened.sol\":56385:56387  to */\n      dup5\n        /* \"VolunteerCollectionNFT_flattened.sol\":56362:56388  ERC1155InvalidReceiver(to) */\n      mload(0x40)\n      0x57f447ce00000000000000000000000000000000000000000000000000000000\n      dup2\n      mstore\n      0x04\n      add\n      tag_252\n      swap2\n      swap1\n      tag_53\n      jump\t// in\n    tag_252:\n      mload(0x40)\n      dup1\n      swap2\n      sub\n      swap1\n      revert\n        /* \"VolunteerCollectionNFT_flattened.sol\":56228:56407  if (response != IERC1155Receiver.onERC1155BatchReceived.selector) {... */\n    tag_251:\n        /* \"VolunteerCollectionNFT_flattened.sol\":56154:56421  returns (... */\n      pop\n        /* \"VolunteerCollectionNFT_flattened.sol\":56033:56841  if (to.code.length > 0) {... */\n    tag_236:\n        /* \"VolunteerCollectionNFT_flattened.sol\":55806:56847  function _doSafeBatchTransferAcceptanceCheck(... */\n      pop\n      pop\n      pop\n      pop\n      pop\n      pop\n      jump\t// out\n        /* \"#utility.yul\":7:82   */\n    tag_253:\n        /* \"#utility.yul\":40:46   */\n      0x00\n        /* \"#utility.yul\":73:75   */\n      0x40\n        /* \"#utility.yul\":67:76   */\n      mload\n        /* \"#utility.yul\":57:76   */\n      swap1\n      pop\n        /* \"#utility.yul\":7:82   */\n      swap1\n      jump\t// out\n        /* \"#utility.yul\":88:205   */\n    tag_254:\n        /* \"#utility.yul\":197:198   */\n      0x00\n        /* \"#utility.yul\":194:195   */\n      dup1\n        /* \"#utility.yul\":187:199   */\n      revert\n        /* \"#utility.yul\":211:328   */\n    tag_255:\n        /* \"#utility.yul\":320:321   */\n      0x00\n        /* \"#utility.yul\":317:318   */\n      dup1\n        /* \"#utility.yul\":310:322   */\n      revert\n        /* \"#utility.yul\":334:460   */\n    tag_256:\n        /* \"#utility.yul\":371:378   */\n      0x00\n        /* \"#utility.yul\":411:453   */\n      0xffffffffffffffffffffffffffffffffffffffff\n        /* \"#utility.yul\":404:409   */\n      dup3\n        /* \"#utility.yul\":400:454   */\n      and\n        /* \"#utility.yul\":389:454   */\n      swap1\n      pop\n        /* \"#utility.yul\":334:460   */\n      swap2\n      swap1\n      pop\n      jump\t// out\n        /* \"#utility.yul\":466:562   */\n    tag_257:\n        /* \"#utility.yul\":503:510   */\n      0x00\n        /* \"#utility.yul\":532:556   */\n      tag_311\n        /* \"#utility.yul\":550:555   */\n      dup3\n        /* \"#utility.yul\":532:556   */\n      tag_256\n      jump\t// in\n    tag_311:\n        /* \"#utility.yul\":521:556   */\n      swap1\n      pop\n        /* \"#utility.yul\":466:562   */\n      swap2\n      swap1\n      pop\n      jump\t// out\n        /* \"#utility.yul\":568:690   */\n    tag_258:\n        /* \"#utility.yul\":641:665   */\n      tag_313\n        /* \"#utility.yul\":659:664   */\n      dup2\n        /* \"#utility.yul\":641:665   */\n      tag_257\n      jump\t// in\n    tag_313:\n        /* \"#utility.yul\":634:639   */\n      dup2\n        /* \"#utility.yul\":631:666   */\n      eq\n        /* \"#utility.yul\":621:684   */\n      tag_314\n      jumpi\n        /* \"#utility.yul\":680:681   */\n      0x00\n        /* \"#utility.yul\":677:678   */\n      dup1\n        /* \"#utility.yul\":670:682   */\n      revert\n        /* \"#utility.yul\":621:684   */\n    tag_314:\n        /* \"#utility.yul\":568:690   */\n      pop\n      jump\t// out\n        /* \"#utility.yul\":696:835   */\n    tag_259:\n        /* \"#utility.yul\":742:747   */\n      0x00\n        /* \"#utility.yul\":780:786   */\n      dup2\n        /* \"#utility.yul\":767:787   */\n      calldataload\n        /* \"#utility.yul\":758:787   */\n      swap1\n      pop\n        /* \"#utility.yul\":796:829   */\n      tag_316\n        /* \"#utility.yul\":823:828   */\n      dup2\n        /* \"#utility.yul\":796:829   */\n      tag_258\n      jump\t// in\n    tag_316:\n        /* \"#utility.yul\":696:835   */\n      swap3\n      swap2\n      pop\n      pop\n      jump\t// out\n        /* \"#utility.yul\":841:918   */\n    tag_260:\n        /* \"#utility.yul\":878:885   */\n      0x00\n        /* \"#utility.yul\":907:912   */\n      dup2\n        /* \"#utility.yul\":896:912   */\n      swap1\n      pop\n        /* \"#utility.yul\":841:918   */\n      swap2\n      swap1\n      pop\n      jump\t// out\n        /* \"#utility.yul\":924:1046   */\n    tag_261:\n        /* \"#utility.yul\":997:1021   */\n      tag_319\n        /* \"#utility.yul\":1015:1020   */\n      dup2\n        /* \"#utility.yul\":997:1021   */\n      tag_260\n      jump\t// in\n    tag_319:\n        /* \"#utility.yul\":990:995   */\n      dup2\n        /* \"#utility.yul\":987:1022   */\n      eq\n        /* \"#utility.yul\":977:1040   */\n      tag_320\n      jumpi\n        /* \"#utility.yul\":1036:1037   */\n      0x00\n        /* \"#utility.yul\":1033:1034   */\n      dup1\n        /* \"#utility.yul\":1026:1038   */\n      revert\n        /* \"#utility.yul\":977:1040   */\n    tag_320:\n        /* \"#utility.yul\":924:1046   */\n      pop\n      jump\t// out\n        /* \"#utility.yul\":1052:1191   */\n    tag_262:\n        /* \"#utility.yul\":1098:1103   */\n      0x00\n        /* \"#utility.yul\":1136:1142   */\n      dup2\n        /* \"#utility.yul\":1123:1143   */\n      calldataload\n        /* \"#utility.yul\":1114:1143   */\n      swap1\n      pop\n        /* \"#utility.yul\":1152:1185   */\n      tag_322\n        /* \"#utility.yul\":1179:1184   */\n      dup2\n        /* \"#utility.yul\":1152:1185   */\n      tag_261\n      jump\t// in\n    tag_322:\n        /* \"#utility.yul\":1052:1191   */\n      swap3\n      swap2\n      pop\n      pop\n      jump\t// out\n        /* \"#utility.yul\":1197:1671   */\n    tag_18:\n        /* \"#utility.yul\":1265:1271   */\n      0x00\n        /* \"#utility.yul\":1273:1279   */\n      dup1\n        /* \"#utility.yul\":1322:1324   */\n      0x40\n        /* \"#utility.yul\":1310:1319   */\n      dup4\n        /* \"#utility.yul\":1301:1308   */\n      dup6\n        /* \"#utility.yul\":1297:1320   */\n      sub\n        /* \"#utility.yul\":1293:1325   */\n      slt\n        /* \"#utility.yul\":1290:1409   */\n      iszero\n      tag_324\n      jumpi\n        /* \"#utility.yul\":1328:1407   */\n      tag_325\n      tag_254\n      jump\t// in\n    tag_325:\n        /* \"#utility.yul\":1290:1409   */\n    tag_324:\n        /* \"#utility.yul\":1448:1449   */\n      0x00\n        /* \"#utility.yul\":1473:1526   */\n      tag_326\n        /* \"#utility.yul\":1518:1525   */\n      dup6\n        /* \"#utility.yul\":1509:1515   */\n      dup3\n        /* \"#utility.yul\":1498:1507   */\n      dup7\n        /* \"#utility.yul\":1494:1516   */\n      add\n        /* \"#utility.yul\":1473:1526   */\n      tag_259\n      jump\t// in\n    tag_326:\n        /* \"#utility.yul\":1463:1526   */\n      swap3\n      pop\n        /* \"#utility.yul\":1419:1536   */\n      pop\n        /* \"#utility.yul\":1575:1577   */\n      0x20\n        /* \"#utility.yul\":1601:1654   */\n      tag_327\n        /* \"#utility.yul\":1646:1653   */\n      dup6\n        /* \"#utility.yul\":1637:1643   */\n      dup3\n        /* \"#utility.yul\":1626:1635   */\n      dup7\n        /* \"#utility.yul\":1622:1644   */\n      add\n        /* \"#utility.yul\":1601:1654   */\n      tag_262\n      jump\t// in\n    tag_327:\n        /* \"#utility.yul\":1591:1654   */\n      swap2\n      pop\n        /* \"#utility.yul\":1546:1664   */\n      pop\n        /* \"#utility.yul\":1197:1671   */\n      swap3\n      pop\n      swap3\n      swap1\n      pop\n      jump\t// out\n        /* \"#utility.yul\":1677:1795   */\n    tag_263:\n        /* \"#utility.yul\":1764:1788   */\n      tag_329\n        /* \"#utility.yul\":1782:1787   */\n      dup2\n        /* \"#utility.yul\":1764:1788   */\n      tag_260\n      jump\t// in\n    tag_329:\n        /* \"#utility.yul\":1759:1762   */\n      dup3\n        /* \"#utility.yul\":1752:1789   */\n      mstore\n        /* \"#utility.yul\":1677:1795   */\n      pop\n      pop\n      jump\t// out\n        /* \"#utility.yul\":1801:2023   */\n    tag_21:\n        /* \"#utility.yul\":1894:1898   */\n      0x00\n        /* \"#utility.yul\":1932:1934   */\n      0x20\n        /* \"#utility.yul\":1921:1930   */\n      dup3\n        /* \"#utility.yul\":1917:1935   */\n      add\n        /* \"#utility.yul\":1909:1935   */\n      swap1\n      pop\n        /* \"#utility.yul\":1945:2016   */\n      tag_331\n        /* \"#utility.yul\":2013:2014   */\n      0x00\n        /* \"#utility.yul\":2002:2011   */\n      dup4\n        /* \"#utility.yul\":1998:2015   */\n      add\n        /* \"#utility.yul\":1989:1995   */\n      dup5\n        /* \"#utility.yul\":1945:2016   */\n      tag_263\n      jump\t// in\n    tag_331:\n        /* \"#utility.yul\":1801:2023   */\n      swap3\n      swap2\n      pop\n      pop\n      jump\t// out\n        /* \"#utility.yul\":2029:2178   */\n    tag_264:\n        /* \"#utility.yul\":2065:2072   */\n      0x00\n        /* \"#utility.yul\":2105:2171   */\n      0xffffffff00000000000000000000000000000000000000000000000000000000\n        /* \"#utility.yul\":2098:2103   */\n      dup3\n        /* \"#utility.yul\":2094:2172   */\n      and\n        /* \"#utility.yul\":2083:2172   */\n      swap1\n      pop\n        /* \"#utility.yul\":2029:2178   */\n      swap2\n      swap1\n      pop\n      jump\t// out\n        /* \"#utility.yul\":2184:2304   */\n    tag_265:\n        /* \"#utility.yul\":2256:2279   */\n      tag_334\n        /* \"#utility.yul\":2273:2278   */\n      dup2\n        /* \"#utility.yul\":2256:2279   */\n      tag_264\n      jump\t// in\n    tag_334:\n        /* \"#utility.yul\":2249:2254   */\n      dup2\n        /* \"#utility.yul\":2246:2280   */\n      eq\n        /* \"#utility.yul\":2236:2298   */\n      tag_335\n      jumpi\n        /* \"#utility.yul\":2294:2295   */\n      0x00\n        /* \"#utility.yul\":2291:2292   */\n      dup1\n        /* \"#utility.yul\":2284:2296   */\n      revert\n        /* \"#utility.yul\":2236:2298   */\n    tag_335:\n        /* \"#utility.yul\":2184:2304   */\n      pop\n      jump\t// out\n        /* \"#utility.yul\":2310:2447   */\n    tag_266:\n        /* \"#utility.yul\":2355:2360   */\n      0x00\n        /* \"#utility.yul\":2393:2399   */\n      dup2\n        /* \"#utility.yul\":2380:2400   */\n      calldataload\n        /* \"#utility.yul\":2371:2400   */\n      swap1\n      pop\n        /* \"#utility.yul\":2409:2441   */\n      tag_337\n        /* \"#utility.yul\":2435:2440   */\n      dup2\n        /* \"#utility.yul\":2409:2441   */\n      tag_265\n      jump\t// in\n    tag_337:\n        /* \"#utility.yul\":2310:2447   */\n      swap3\n      swap2\n      pop\n      pop\n      jump\t// out\n        /* \"#utility.yul\":2453:2780   */\n    tag_24:\n        /* \"#utility.yul\":2511:2517   */\n      0x00\n        /* \"#utility.yul\":2560:2562   */\n      0x20\n        /* \"#utility.yul\":2548:2557   */\n      dup3\n        /* \"#utility.yul\":2539:2546   */\n      dup5\n        /* \"#utility.yul\":2535:2558   */\n      sub\n        /* \"#utility.yul\":2531:2563   */\n      slt\n        /* \"#utility.yul\":2528:2647   */\n      iszero\n      tag_339\n      jumpi\n        /* \"#utility.yul\":2566:2645   */\n      tag_340\n      tag_254\n      jump\t// in\n    tag_340:\n        /* \"#utility.yul\":2528:2647   */\n    tag_339:\n        /* \"#utility.yul\":2686:2687   */\n      0x00\n        /* \"#utility.yul\":2711:2763   */\n      tag_341\n        /* \"#utility.yul\":2755:2762   */\n      dup5\n        /* \"#utility.yul\":2746:2752   */\n      dup3\n        /* \"#utility.yul\":2735:2744   */\n      dup6\n        /* \"#utility.yul\":2731:2753   */\n      add\n        /* \"#utility.yul\":2711:2763   */\n      tag_266\n      jump\t// in\n    tag_341:\n        /* \"#utility.yul\":2701:2763   */\n      swap2\n      pop\n        /* \"#utility.yul\":2657:2773   */\n      pop\n        /* \"#utility.yul\":2453:2780   */\n      swap3\n      swap2\n      pop\n      pop\n      jump\t// out\n        /* \"#utility.yul\":2786:2876   */\n    tag_267:\n        /* \"#utility.yul\":2820:2827   */\n      0x00\n        /* \"#utility.yul\":2863:2868   */\n      dup2\n        /* \"#utility.yul\":2856:2869   */\n      iszero\n        /* \"#utility.yul\":2849:2870   */\n      iszero\n        /* \"#utility.yul\":2838:2870   */\n      swap1\n      pop\n        /* \"#utility.yul\":2786:2876   */\n      swap2\n      swap1\n      pop\n      jump\t// out\n        /* \"#utility.yul\":2882:2991   */\n    tag_268:\n        /* \"#utility.yul\":2963:2984   */\n      tag_344\n        /* \"#utility.yul\":2978:2983   */\n      dup2\n        /* \"#utility.yul\":2963:2984   */\n      tag_267\n      jump\t// in\n    tag_344:\n        /* \"#utility.yul\":2958:2961   */\n      dup3\n        /* \"#utility.yul\":2951:2985   */\n      mstore\n        /* \"#utility.yul\":2882:2991   */\n      pop\n      pop\n      jump\t// out\n        /* \"#utility.yul\":2997:3207   */\n    tag_27:\n        /* \"#utility.yul\":3084:3088   */\n      0x00\n        /* \"#utility.yul\":3122:3124   */\n      0x20\n        /* \"#utility.yul\":3111:3120   */\n      dup3\n        /* \"#utility.yul\":3107:3125   */\n      add\n        /* \"#utility.yul\":3099:3125   */\n      swap1\n      pop\n        /* \"#utility.yul\":3135:3200   */\n      tag_346\n        /* \"#utility.yul\":3197:3198   */\n      0x00\n        /* \"#utility.yul\":3186:3195   */\n      dup4\n        /* \"#utility.yul\":3182:3199   */\n      add\n        /* \"#utility.yul\":3173:3179   */\n      dup5\n        /* \"#utility.yul\":3135:3200   */\n      tag_268\n      jump\t// in\n    tag_346:\n        /* \"#utility.yul\":2997:3207   */\n      swap3\n      swap2\n      pop\n      pop\n      jump\t// out\n        /* \"#utility.yul\":3213:3542   */\n    tag_30:\n        /* \"#utility.yul\":3272:3278   */\n      0x00\n        /* \"#utility.yul\":3321:3323   */\n      0x20\n        /* \"#utility.yul\":3309:3318   */\n      dup3\n        /* \"#utility.yul\":3300:3307   */\n      dup5\n        /* \"#utility.yul\":3296:3319   */\n      sub\n        /* \"#utility.yul\":3292:3324   */\n      slt\n        /* \"#utility.yul\":3289:3408   */\n      iszero\n      tag_348\n      jumpi\n        /* \"#utility.yul\":3327:3406   */\n      tag_349\n      tag_254\n      jump\t// in\n    tag_349:\n        /* \"#utility.yul\":3289:3408   */\n    tag_348:\n        /* \"#utility.yul\":3447:3448   */\n      0x00\n        /* \"#utility.yul\":3472:3525   */\n      tag_350\n        /* \"#utility.yul\":3517:3524   */\n      dup5\n        /* \"#utility.yul\":3508:3514   */\n      dup3\n        /* \"#utility.yul\":3497:3506   */\n      dup6\n        /* \"#utility.yul\":3493:3515   */\n      add\n        /* \"#utility.yul\":3472:3525   */\n      tag_262\n      jump\t// in\n    tag_350:\n        /* \"#utility.yul\":3462:3525   */\n      swap2\n      pop\n        /* \"#utility.yul\":3418:3535   */\n      pop\n        /* \"#utility.yul\":3213:3542   */\n      swap3\n      swap2\n      pop\n      pop\n      jump\t// out\n        /* \"#utility.yul\":3548:3647   */\n    tag_269:\n        /* \"#utility.yul\":3600:3606   */\n      0x00\n        /* \"#utility.yul\":3634:3639   */\n      dup2\n        /* \"#utility.yul\":3628:3640   */\n      mload\n        /* \"#utility.yul\":3618:3640   */\n      swap1\n      pop\n        /* \"#utility.yul\":3548:3647   */\n      swap2\n      swap1\n      pop\n      jump\t// out\n        /* \"#utility.yul\":3653:3822   */\n    tag_270:\n        /* \"#utility.yul\":3737:3748   */\n      0x00\n        /* \"#utility.yul\":3771:3777   */\n      dup3\n        /* \"#utility.yul\":3766:3769   */\n      dup3\n        /* \"#utility.yul\":3759:3778   */\n      mstore\n        /* \"#utility.yul\":3811:3815   */\n      0x20\n        /* \"#utility.yul\":3806:3809   */\n      dup3\n        /* \"#utility.yul\":3802:3816   */\n      add\n        /* \"#utility.yul\":3787:3816   */\n      swap1\n      pop\n        /* \"#utility.yul\":3653:3822   */\n      swap3\n      swap2\n      pop\n      pop\n      jump\t// out\n        /* \"#utility.yul\":3828:3967   */\n    tag_271:\n        /* \"#utility.yul\":3917:3923   */\n      dup3\n        /* \"#utility.yul\":3912:3915   */\n      dup2\n        /* \"#utility.yul\":3907:3910   */\n      dup4\n        /* \"#utility.yul\":3901:3924   */\n      mcopy\n        /* \"#utility.yul\":3958:3959   */\n      0x00\n        /* \"#utility.yul\":3949:3955   */\n      dup4\n        /* \"#utility.yul\":3944:3947   */\n      dup4\n        /* \"#utility.yul\":3940:3956   */\n      add\n        /* \"#utility.yul\":3933:3960   */\n      mstore\n        /* \"#utility.yul\":3828:3967   */\n      pop\n      pop\n      pop\n      jump\t// out\n        /* \"#utility.yul\":3973:4075   */\n    tag_272:\n        /* \"#utility.yul\":4014:4020   */\n      0x00\n        /* \"#utility.yul\":4065:4067   */\n      0x1f\n        /* \"#utility.yul\":4061:4068   */\n      not\n        /* \"#utility.yul\":4056:4058   */\n      0x1f\n        /* \"#utility.yul\":4049:4054   */\n      dup4\n        /* \"#utility.yul\":4045:4059   */\n      add\n        /* \"#utility.yul\":4041:4069   */\n      and\n        /* \"#utility.yul\":4031:4069   */\n      swap1\n      pop\n        /* \"#utility.yul\":3973:4075   */\n      swap2\n      swap1\n      pop\n      jump\t// out\n        /* \"#utility.yul\":4081:4458   */\n    tag_273:\n        /* \"#utility.yul\":4169:4172   */\n      0x00\n        /* \"#utility.yul\":4197:4236   */\n      tag_356\n        /* \"#utility.yul\":4230:4235   */\n      dup3\n        /* \"#utility.yul\":4197:4236   */\n      tag_269\n      jump\t// in\n    tag_356:\n        /* \"#utility.yul\":4252:4323   */\n      tag_357\n        /* \"#utility.yul\":4316:4322   */\n      dup2\n        /* \"#utility.yul\":4311:4314   */\n      dup6\n        /* \"#utility.yul\":4252:4323   */\n      tag_270\n      jump\t// in\n    tag_357:\n        /* \"#utility.yul\":4245:4323   */\n      swap4\n      pop\n        /* \"#utility.yul\":4332:4397   */\n      tag_358\n        /* \"#utility.yul\":4390:4396   */\n      dup2\n        /* \"#utility.yul\":4385:4388   */\n      dup6\n        /* \"#utility.yul\":4378:4382   */\n      0x20\n        /* \"#utility.yul\":4371:4376   */\n      dup7\n        /* \"#utility.yul\":4367:4383   */\n      add\n        /* \"#utility.yul\":4332:4397   */\n      tag_271\n      jump\t// in\n    tag_358:\n        /* \"#utility.yul\":4422:4451   */\n      tag_359\n        /* \"#utility.yul\":4444:4450   */\n      dup2\n        /* \"#utility.yul\":4422:4451   */\n      tag_272\n      jump\t// in\n    tag_359:\n        /* \"#utility.yul\":4417:4420   */\n      dup5\n        /* \"#utility.yul\":4413:4452   */\n      add\n        /* \"#utility.yul\":4406:4452   */\n      swap2\n      pop\n        /* \"#utility.yul\":4173:4458   */\n      pop\n        /* \"#utility.yul\":4081:4458   */\n      swap3\n      swap2\n      pop\n      pop\n      jump\t// out\n        /* \"#utility.yul\":4464:4777   */\n    tag_33:\n        /* \"#utility.yul\":4577:4581   */\n      0x00\n        /* \"#utility.yul\":4615:4617   */\n      0x20\n        /* \"#utility.yul\":4604:4613   */\n      dup3\n        /* \"#utility.yul\":4600:4618   */\n      add\n        /* \"#utility.yul\":4592:4618   */\n      swap1\n      pop\n        /* \"#utility.yul\":4664:4673   */\n      dup2\n        /* \"#utility.yul\":4658:4662   */\n      dup2\n        /* \"#utility.yul\":4654:4674   */\n      sub\n        /* \"#utility.yul\":4650:4651   */\n      0x00\n        /* \"#utility.yul\":4639:4648   */\n      dup4\n        /* \"#utility.yul\":4635:4652   */\n      add\n        /* \"#utility.yul\":4628:4675   */\n      mstore\n        /* \"#utility.yul\":4692:4770   */\n      tag_361\n        /* \"#utility.yul\":4765:4769   */\n      dup2\n        /* \"#utility.yul\":4756:4762   */\n      dup5\n        /* \"#utility.yul\":4692:4770   */\n      tag_273\n      jump\t// in\n    tag_361:\n        /* \"#utility.yul\":4684:4770   */\n      swap1\n      pop\n        /* \"#utility.yul\":4464:4777   */\n      swap3\n      swap2\n      pop\n      pop\n      jump\t// out\n        /* \"#utility.yul\":4783:4900   */\n    tag_274:\n        /* \"#utility.yul\":4892:4893   */\n      0x00\n        /* \"#utility.yul\":4889:4890   */\n      dup1\n        /* \"#utility.yul\":4882:4894   */\n      revert\n        /* \"#utility.yul\":4906:5086   */\n    tag_100:\n        /* \"#utility.yul\":4954:5031   */\n      0x4e487b7100000000000000000000000000000000000000000000000000000000\n        /* \"#utility.yul\":4951:4952   */\n      0x00\n        /* \"#utility.yul\":4944:5032   */\n      mstore\n        /* \"#utility.yul\":5051:5055   */\n      0x41\n        /* \"#utility.yul\":5048:5049   */\n      0x04\n        /* \"#utility.yul\":5041:5056   */\n      mstore\n        /* \"#utility.yul\":5075:5079   */\n      0x24\n        /* \"#utility.yul\":5072:5073   */\n      0x00\n        /* \"#utility.yul\":5065:5080   */\n      revert\n        /* \"#utility.yul\":5092:5373   */\n    tag_275:\n        /* \"#utility.yul\":5175:5202   */\n      tag_365\n        /* \"#utility.yul\":5197:5201   */\n      dup3\n        /* \"#utility.yul\":5175:5202   */\n      tag_272\n      jump\t// in\n    tag_365:\n        /* \"#utility.yul\":5167:5173   */\n      dup2\n        /* \"#utility.yul\":5163:5203   */\n      add\n        /* \"#utility.yul\":5305:5311   */\n      dup2\n        /* \"#utility.yul\":5293:5303   */\n      dup2\n        /* \"#utility.yul\":5290:5312   */\n      lt\n        /* \"#utility.yul\":5269:5287   */\n      0xffffffffffffffff\n        /* \"#utility.yul\":5257:5267   */\n      dup3\n        /* \"#utility.yul\":5254:5288   */\n      gt\n        /* \"#utility.yul\":5251:5313   */\n      or\n        /* \"#utility.yul\":5248:5336   */\n      iszero\n      tag_366\n      jumpi\n        /* \"#utility.yul\":5316:5334   */\n      tag_367\n      tag_100\n      jump\t// in\n    tag_367:\n        /* \"#utility.yul\":5248:5336   */\n    tag_366:\n        /* \"#utility.yul\":5356:5366   */\n      dup1\n        /* \"#utility.yul\":5352:5354   */\n      0x40\n        /* \"#utility.yul\":5345:5367   */\n      mstore\n        /* \"#utility.yul\":5135:5373   */\n      pop\n        /* \"#utility.yul\":5092:5373   */\n      pop\n      pop\n      jump\t// out\n        /* \"#utility.yul\":5379:5508   */\n    tag_276:\n        /* \"#utility.yul\":5413:5419   */\n      0x00\n        /* \"#utility.yul\":5440:5460   */\n      tag_369\n      tag_253\n      jump\t// in\n    tag_369:\n        /* \"#utility.yul\":5430:5460   */\n      swap1\n      pop\n        /* \"#utility.yul\":5469:5502   */\n      tag_370\n        /* \"#utility.yul\":5497:5501   */\n      dup3\n        /* \"#utility.yul\":5489:5495   */\n      dup3\n        /* \"#utility.yul\":5469:5502   */\n      tag_275\n      jump\t// in\n    tag_370:\n        /* \"#utility.yul\":5379:5508   */\n      swap2\n      swap1\n      pop\n      jump\t// out\n        /* \"#utility.yul\":5514:5825   */\n    tag_277:\n        /* \"#utility.yul\":5591:5595   */\n      0x00\n        /* \"#utility.yul\":5681:5699   */\n      0xffffffffffffffff\n        /* \"#utility.yul\":5673:5679   */\n      dup3\n        /* \"#utility.yul\":5670:5700   */\n      gt\n        /* \"#utility.yul\":5667:5723   */\n      iszero\n      tag_372\n      jumpi\n        /* \"#utility.yul\":5703:5721   */\n      tag_373\n      tag_100\n      jump\t// in\n    tag_373:\n        /* \"#utility.yul\":5667:5723   */\n    tag_372:\n        /* \"#utility.yul\":5753:5757   */\n      0x20\n        /* \"#utility.yul\":5745:5751   */\n      dup3\n        /* \"#utility.yul\":5741:5758   */\n      mul\n        /* \"#utility.yul\":5733:5758   */\n      swap1\n      pop\n        /* \"#utility.yul\":5813:5817   */\n      0x20\n        /* \"#utility.yul\":5807:5811   */\n      dup2\n        /* \"#utility.yul\":5803:5818   */\n      add\n        /* \"#utility.yul\":5795:5818   */\n      swap1\n      pop\n        /* \"#utility.yul\":5514:5825   */\n      swap2\n      swap1\n      pop\n      jump\t// out\n        /* \"#utility.yul\":5831:5948   */\n    tag_278:\n        /* \"#utility.yul\":5940:5941   */\n      0x00\n        /* \"#utility.yul\":5937:5938   */\n      dup1\n        /* \"#utility.yul\":5930:5942   */\n      revert\n        /* \"#utility.yul\":5971:6681   */\n    tag_279:\n        /* \"#utility.yul\":6067:6072   */\n      0x00\n        /* \"#utility.yul\":6092:6173   */\n      tag_376\n        /* \"#utility.yul\":6108:6172   */\n      tag_377\n        /* \"#utility.yul\":6165:6171   */\n      dup5\n        /* \"#utility.yul\":6108:6172   */\n      tag_277\n      jump\t// in\n    tag_377:\n        /* \"#utility.yul\":6092:6173   */\n      tag_276\n      jump\t// in\n    tag_376:\n        /* \"#utility.yul\":6083:6173   */\n      swap1\n      pop\n        /* \"#utility.yul\":6193:6198   */\n      dup1\n        /* \"#utility.yul\":6222:6228   */\n      dup4\n        /* \"#utility.yul\":6215:6220   */\n      dup3\n        /* \"#utility.yul\":6208:6229   */\n      mstore\n        /* \"#utility.yul\":6256:6260   */\n      0x20\n        /* \"#utility.yul\":6249:6254   */\n      dup3\n        /* \"#utility.yul\":6245:6261   */\n      add\n        /* \"#utility.yul\":6238:6261   */\n      swap1\n      pop\n        /* \"#utility.yul\":6309:6313   */\n      0x20\n        /* \"#utility.yul\":6301:6307   */\n      dup5\n        /* \"#utility.yul\":6297:6314   */\n      mul\n        /* \"#utility.yul\":6289:6295   */\n      dup4\n        /* \"#utility.yul\":6285:6315   */\n      add\n        /* \"#utility.yul\":6338:6341   */\n      dup6\n        /* \"#utility.yul\":6330:6336   */\n      dup2\n        /* \"#utility.yul\":6327:6342   */\n      gt\n        /* \"#utility.yul\":6324:6446   */\n      iszero\n      tag_378\n      jumpi\n        /* \"#utility.yul\":6357:6436   */\n      tag_379\n      tag_278\n      jump\t// in\n    tag_379:\n        /* \"#utility.yul\":6324:6446   */\n    tag_378:\n        /* \"#utility.yul\":6472:6478   */\n      dup4\n        /* \"#utility.yul\":6455:6675   */\n    tag_380:\n        /* \"#utility.yul\":6489:6495   */\n      dup2\n        /* \"#utility.yul\":6484:6487   */\n      dup2\n        /* \"#utility.yul\":6481:6496   */\n      lt\n        /* \"#utility.yul\":6455:6675   */\n      iszero\n      tag_382\n      jumpi\n        /* \"#utility.yul\":6564:6567   */\n      dup1\n        /* \"#utility.yul\":6593:6630   */\n      tag_383\n        /* \"#utility.yul\":6626:6629   */\n      dup9\n        /* \"#utility.yul\":6614:6624   */\n      dup3\n        /* \"#utility.yul\":6593:6630   */\n      tag_262\n      jump\t// in\n    tag_383:\n        /* \"#utility.yul\":6588:6591   */\n      dup5\n        /* \"#utility.yul\":6581:6631   */\n      mstore\n        /* \"#utility.yul\":6660:6664   */\n      0x20\n        /* \"#utility.yul\":6655:6658   */\n      dup5\n        /* \"#utility.yul\":6651:6665   */\n      add\n        /* \"#utility.yul\":6644:6665   */\n      swap4\n      pop\n        /* \"#utility.yul\":6531:6675   */\n      pop\n        /* \"#utility.yul\":6515:6519   */\n      0x20\n        /* \"#utility.yul\":6510:6513   */\n      dup2\n        /* \"#utility.yul\":6506:6520   */\n      add\n        /* \"#utility.yul\":6499:6520   */\n      swap1\n      pop\n        /* \"#utility.yul\":6455:6675   */\n      jump(tag_380)\n    tag_382:\n        /* \"#utility.yul\":6459:6480   */\n      pop\n        /* \"#utility.yul\":6073:6681   */\n      pop\n      pop\n        /* \"#utility.yul\":5971:6681   */\n      swap4\n      swap3\n      pop\n      pop\n      pop\n      jump\t// out\n        /* \"#utility.yul\":6704:7074   */\n    tag_280:\n        /* \"#utility.yul\":6775:6780   */\n      0x00\n        /* \"#utility.yul\":6824:6827   */\n      dup3\n        /* \"#utility.yul\":6817:6821   */\n      0x1f\n        /* \"#utility.yul\":6809:6815   */\n      dup4\n        /* \"#utility.yul\":6805:6822   */\n      add\n        /* \"#utility.yul\":6801:6828   */\n      slt\n        /* \"#utility.yul\":6791:6913   */\n      tag_385\n      jumpi\n        /* \"#utility.yul\":6832:6911   */\n      tag_386\n      tag_274\n      jump\t// in\n    tag_386:\n        /* \"#utility.yul\":6791:6913   */\n    tag_385:\n        /* \"#utility.yul\":6949:6955   */\n      dup2\n        /* \"#utility.yul\":6936:6956   */\n      calldataload\n        /* \"#utility.yul\":6974:7068   */\n      tag_387\n        /* \"#utility.yul\":7064:7067   */\n      dup5\n        /* \"#utility.yul\":7056:7062   */\n      dup3\n        /* \"#utility.yul\":7049:7053   */\n      0x20\n        /* \"#utility.yul\":7041:7047   */\n      dup7\n        /* \"#utility.yul\":7037:7054   */\n      add\n        /* \"#utility.yul\":6974:7068   */\n      tag_279\n      jump\t// in\n    tag_387:\n        /* \"#utility.yul\":6965:7068   */\n      swap2\n      pop\n        /* \"#utility.yul\":6781:7074   */\n      pop\n        /* \"#utility.yul\":6704:7074   */\n      swap3\n      swap2\n      pop\n      pop\n      jump\t// out\n        /* \"#utility.yul\":7080:7197   */\n    tag_281:\n        /* \"#utility.yul\":7189:7190   */\n      0x00\n        /* \"#utility.yul\":7186:7187   */\n      dup1\n        /* \"#utility.yul\":7179:7191   */\n      revert\n        /* \"#utility.yul\":7203:7510   */\n    tag_282:\n        /* \"#utility.yul\":7264:7268   */\n      0x00\n        /* \"#utility.yul\":7354:7372   */\n      0xffffffffffffffff\n        /* \"#utility.yul\":7346:7352   */\n      dup3\n        /* \"#utility.yul\":7343:7373   */\n      gt\n        /* \"#utility.yul\":7340:7396   */\n      iszero\n      tag_390\n      jumpi\n        /* \"#utility.yul\":7376:7394   */\n      tag_391\n      tag_100\n      jump\t// in\n    tag_391:\n        /* \"#utility.yul\":7340:7396   */\n    tag_390:\n        /* \"#utility.yul\":7414:7443   */\n      tag_392\n        /* \"#utility.yul\":7436:7442   */\n      dup3\n        /* \"#utility.yul\":7414:7443   */\n      tag_272\n      jump\t// in\n    tag_392:\n        /* \"#utility.yul\":7406:7443   */\n      swap1\n      pop\n        /* \"#utility.yul\":7498:7502   */\n      0x20\n        /* \"#utility.yul\":7492:7496   */\n      dup2\n        /* \"#utility.yul\":7488:7503   */\n      add\n        /* \"#utility.yul\":7480:7503   */\n      swap1\n      pop\n        /* \"#utility.yul\":7203:7510   */\n      swap2\n      swap1\n      pop\n      jump\t// out\n        /* \"#utility.yul\":7516:7664   */\n    tag_283:\n        /* \"#utility.yul\":7614:7620   */\n      dup3\n        /* \"#utility.yul\":7609:7612   */\n      dup2\n        /* \"#utility.yul\":7604:7607   */\n      dup4\n        /* \"#utility.yul\":7591:7621   */\n      calldatacopy\n        /* \"#utility.yul\":7655:7656   */\n      0x00\n        /* \"#utility.yul\":7646:7652   */\n      dup4\n        /* \"#utility.yul\":7641:7644   */\n      dup4\n        /* \"#utility.yul\":7637:7653   */\n      add\n        /* \"#utility.yul\":7630:7657   */\n      mstore\n        /* \"#utility.yul\":7516:7664   */\n      pop\n      pop\n      pop\n      jump\t// out\n        /* \"#utility.yul\":7670:8093   */\n    tag_284:\n        /* \"#utility.yul\":7747:7752   */\n      0x00\n        /* \"#utility.yul\":7772:7837   */\n      tag_395\n        /* \"#utility.yul\":7788:7836   */\n      tag_396\n        /* \"#utility.yul\":7829:7835   */\n      dup5\n        /* \"#utility.yul\":7788:7836   */\n      tag_282\n      jump\t// in\n    tag_396:\n        /* \"#utility.yul\":7772:7837   */\n      tag_276\n      jump\t// in\n    tag_395:\n        /* \"#utility.yul\":7763:7837   */\n      swap1\n      pop\n        /* \"#utility.yul\":7860:7866   */\n      dup3\n        /* \"#utility.yul\":7853:7858   */\n      dup2\n        /* \"#utility.yul\":7846:7867   */\n      mstore\n        /* \"#utility.yul\":7898:7902   */\n      0x20\n        /* \"#utility.yul\":7891:7896   */\n      dup2\n        /* \"#utility.yul\":7887:7903   */\n      add\n        /* \"#utility.yul\":7936:7939   */\n      dup5\n        /* \"#utility.yul\":7927:7933   */\n      dup5\n        /* \"#utility.yul\":7922:7925   */\n      dup5\n        /* \"#utility.yul\":7918:7934   */\n      add\n        /* \"#utility.yul\":7915:7940   */\n      gt\n        /* \"#utility.yul\":7912:8024   */\n      iszero\n      tag_397\n      jumpi\n        /* \"#utility.yul\":7943:8022   */\n      tag_398\n      tag_281\n      jump\t// in\n    tag_398:\n        /* \"#utility.yul\":7912:8024   */\n    tag_397:\n        /* \"#utility.yul\":8033:8087   */\n      tag_399\n        /* \"#utility.yul\":8080:8086   */\n      dup5\n        /* \"#utility.yul\":8075:8078   */\n      dup3\n        /* \"#utility.yul\":8070:8073   */\n      dup6\n        /* \"#utility.yul\":8033:8087   */\n      tag_283\n      jump\t// in\n    tag_399:\n        /* \"#utility.yul\":7753:8093   */\n      pop\n        /* \"#utility.yul\":7670:8093   */\n      swap4\n      swap3\n      pop\n      pop\n      pop\n      jump\t// out\n        /* \"#utility.yul\":8112:8450   */\n    tag_285:\n        /* \"#utility.yul\":8167:8172   */\n      0x00\n        /* \"#utility.yul\":8216:8219   */\n      dup3\n        /* \"#utility.yul\":8209:8213   */\n      0x1f\n        /* \"#utility.yul\":8201:8207   */\n      dup4\n        /* \"#utility.yul\":8197:8214   */\n      add\n        /* \"#utility.yul\":8193:8220   */\n      slt\n        /* \"#utility.yul\":8183:8305   */\n      tag_401\n      jumpi\n        /* \"#utility.yul\":8224:8303   */\n      tag_402\n      tag_274\n      jump\t// in\n    tag_402:\n        /* \"#utility.yul\":8183:8305   */\n    tag_401:\n        /* \"#utility.yul\":8341:8347   */\n      dup2\n        /* \"#utility.yul\":8328:8348   */\n      calldataload\n        /* \"#utility.yul\":8366:8444   */\n      tag_403\n        /* \"#utility.yul\":8440:8443   */\n      dup5\n        /* \"#utility.yul\":8432:8438   */\n      dup3\n        /* \"#utility.yul\":8425:8429   */\n      0x20\n        /* \"#utility.yul\":8417:8423   */\n      dup7\n        /* \"#utility.yul\":8413:8430   */\n      add\n        /* \"#utility.yul\":8366:8444   */\n      tag_284\n      jump\t// in\n    tag_403:\n        /* \"#utility.yul\":8357:8444   */\n      swap2\n      pop\n        /* \"#utility.yul\":8173:8450   */\n      pop\n        /* \"#utility.yul\":8112:8450   */\n      swap3\n      swap2\n      pop\n      pop\n      jump\t// out\n        /* \"#utility.yul\":8456:9965   */\n    tag_36:\n        /* \"#utility.yul\":8610:8616   */\n      0x00\n        /* \"#utility.yul\":8618:8624   */\n      dup1\n        /* \"#utility.yul\":8626:8632   */\n      0x00\n        /* \"#utility.yul\":8634:8640   */\n      dup1\n        /* \"#utility.yul\":8642:8648   */\n      0x00\n        /* \"#utility.yul\":8691:8694   */\n      0xa0\n        /* \"#utility.yul\":8679:8688   */\n      dup7\n        /* \"#utility.yul\":8670:8677   */\n      dup9\n        /* \"#utility.yul\":8666:8689   */\n      sub\n        /* \"#utility.yul\":8662:8695   */\n      slt\n        /* \"#utility.yul\":8659:8779   */\n      iszero\n      tag_405\n      jumpi\n        /* \"#utility.yul\":8698:8777   */\n      tag_406\n      tag_254\n      jump\t// in\n    tag_406:\n        /* \"#utility.yul\":8659:8779   */\n    tag_405:\n        /* \"#utility.yul\":8818:8819   */\n      0x00\n        /* \"#utility.yul\":8843:8896   */\n      tag_407\n        /* \"#utility.yul\":8888:8895   */\n      dup9\n        /* \"#utility.yul\":8879:8885   */\n      dup3\n        /* \"#utility.yul\":8868:8877   */\n      dup10\n        /* \"#utility.yul\":8864:8886   */\n      add\n        /* \"#utility.yul\":8843:8896   */\n      tag_259\n      jump\t// in\n    tag_407:\n        /* \"#utility.yul\":8833:8896   */\n      swap6\n      pop\n        /* \"#utility.yul\":8789:8906   */\n      pop\n        /* \"#utility.yul\":8945:8947   */\n      0x20\n        /* \"#utility.yul\":8971:9024   */\n      tag_408\n        /* \"#utility.yul\":9016:9023   */\n      dup9\n        /* \"#utility.yul\":9007:9013   */\n      dup3\n        /* \"#utility.yul\":8996:9005   */\n      dup10\n        /* \"#utility.yul\":8992:9014   */\n      add\n        /* \"#utility.yul\":8971:9024   */\n      tag_259\n      jump\t// in\n    tag_408:\n        /* \"#utility.yul\":8961:9024   */\n      swap5\n      pop\n        /* \"#utility.yul\":8916:9034   */\n      pop\n        /* \"#utility.yul\":9101:9103   */\n      0x40\n        /* \"#utility.yul\":9090:9099   */\n      dup7\n        /* \"#utility.yul\":9086:9104   */\n      add\n        /* \"#utility.yul\":9073:9105   */\n      calldataload\n        /* \"#utility.yul\":9132:9150   */\n      0xffffffffffffffff\n        /* \"#utility.yul\":9124:9130   */\n      dup2\n        /* \"#utility.yul\":9121:9151   */\n      gt\n        /* \"#utility.yul\":9118:9235   */\n      iszero\n      tag_409\n      jumpi\n        /* \"#utility.yul\":9154:9233   */\n      tag_410\n      tag_255\n      jump\t// in\n    tag_410:\n        /* \"#utility.yul\":9118:9235   */\n    tag_409:\n        /* \"#utility.yul\":9259:9337   */\n      tag_411\n        /* \"#utility.yul\":9329:9336   */\n      dup9\n        /* \"#utility.yul\":9320:9326   */\n      dup3\n        /* \"#utility.yul\":9309:9318   */\n      dup10\n        /* \"#utility.yul\":9305:9327   */\n      add\n        /* \"#utility.yul\":9259:9337   */\n      tag_280\n      jump\t// in\n    tag_411:\n        /* \"#utility.yul\":9249:9337   */\n      swap4\n      pop\n        /* \"#utility.yul\":9044:9347   */\n      pop\n        /* \"#utility.yul\":9414:9416   */\n      0x60\n        /* \"#utility.yul\":9403:9412   */\n      dup7\n        /* \"#utility.yul\":9399:9417   */\n      add\n        /* \"#utility.yul\":9386:9418   */\n      calldataload\n        /* \"#utility.yul\":9445:9463   */\n      0xffffffffffffffff\n        /* \"#utility.yul\":9437:9443   */\n      dup2\n        /* \"#utility.yul\":9434:9464   */\n      gt\n        /* \"#utility.yul\":9431:9548   */\n      iszero\n      tag_412\n      jumpi\n        /* \"#utility.yul\":9467:9546   */\n      tag_413\n      tag_255\n      jump\t// in\n    tag_413:\n        /* \"#utility.yul\":9431:9548   */\n    tag_412:\n        /* \"#utility.yul\":9572:9650   */\n      tag_414\n        /* \"#utility.yul\":9642:9649   */\n      dup9\n        /* \"#utility.yul\":9633:9639   */\n      dup3\n        /* \"#utility.yul\":9622:9631   */\n      dup10\n        /* \"#utility.yul\":9618:9640   */\n      add\n        /* \"#utility.yul\":9572:9650   */\n      tag_280\n      jump\t// in\n    tag_414:\n        /* \"#utility.yul\":9562:9650   */\n      swap3\n      pop\n        /* \"#utility.yul\":9357:9660   */\n      pop\n        /* \"#utility.yul\":9727:9730   */\n      0x80\n        /* \"#utility.yul\":9716:9725   */\n      dup7\n        /* \"#utility.yul\":9712:9731   */\n      add\n        /* \"#utility.yul\":9699:9732   */\n      calldataload\n        /* \"#utility.yul\":9759:9777   */\n      0xffffffffffffffff\n        /* \"#utility.yul\":9751:9757   */\n      dup2\n        /* \"#utility.yul\":9748:9778   */\n      gt\n        /* \"#utility.yul\":9745:9862   */\n      iszero\n      tag_415\n      jumpi\n        /* \"#utility.yul\":9781:9860   */\n      tag_416\n      tag_255\n      jump\t// in\n    tag_416:\n        /* \"#utility.yul\":9745:9862   */\n    tag_415:\n        /* \"#utility.yul\":9886:9948   */\n      tag_417\n        /* \"#utility.yul\":9940:9947   */\n      dup9\n        /* \"#utility.yul\":9931:9937   */\n      dup3\n        /* \"#utility.yul\":9920:9929   */\n      dup10\n        /* \"#utility.yul\":9916:9938   */\n      add\n        /* \"#utility.yul\":9886:9948   */\n      tag_285\n      jump\t// in\n    tag_417:\n        /* \"#utility.yul\":9876:9948   */\n      swap2\n      pop\n        /* \"#utility.yul\":9670:9958   */\n      pop\n        /* \"#utility.yul\":8456:9965   */\n      swap3\n      swap6\n      pop\n      swap3\n      swap6\n      swap1\n      swap4\n      pop\n      jump\t// out\n        /* \"#utility.yul\":9971:10282   */\n    tag_286:\n        /* \"#utility.yul\":10048:10052   */\n      0x00\n        /* \"#utility.yul\":10138:10156   */\n      0xffffffffffffffff\n        /* \"#utility.yul\":10130:10136   */\n      dup3\n        /* \"#utility.yul\":10127:10157   */\n      gt\n        /* \"#utility.yul\":10124:10180   */\n      iszero\n      tag_419\n      jumpi\n        /* \"#utility.yul\":10160:10178   */\n      tag_420\n      tag_100\n      jump\t// in\n    tag_420:\n        /* \"#utility.yul\":10124:10180   */\n    tag_419:\n        /* \"#utility.yul\":10210:10214   */\n      0x20\n        /* \"#utility.yul\":10202:10208   */\n      dup3\n        /* \"#utility.yul\":10198:10215   */\n      mul\n        /* \"#utility.yul\":10190:10215   */\n      swap1\n      pop\n        /* \"#utility.yul\":10270:10274   */\n      0x20\n        /* \"#utility.yul\":10264:10268   */\n      dup2\n        /* \"#utility.yul\":10260:10275   */\n      add\n        /* \"#utility.yul\":10252:10275   */\n      swap1\n      pop\n        /* \"#utility.yul\":9971:10282   */\n      swap2\n      swap1\n      pop\n      jump\t// out\n        /* \"#utility.yul\":10305:11015   */\n    tag_287:\n        /* \"#utility.yul\":10401:10406   */\n      0x00\n        /* \"#utility.yul\":10426:10507   */\n      tag_422\n        /* \"#utility.yul\":10442:10506   */\n      tag_423\n        /* \"#utility.yul\":10499:10505   */\n      dup5\n        /* \"#utility.yul\":10442:10506   */\n      tag_286\n      jump\t// in\n    tag_423:\n        /* \"#utility.yul\":10426:10507   */\n      tag_276\n      jump\t// in\n    tag_422:\n        /* \"#utility.yul\":10417:10507   */\n      swap1\n      pop\n        /* \"#utility.yul\":10527:10532   */\n      dup1\n        /* \"#utility.yul\":10556:10562   */\n      dup4\n        /* \"#utility.yul\":10549:10554   */\n      dup3\n        /* \"#utility.yul\":10542:10563   */\n      mstore\n        /* \"#utility.yul\":10590:10594   */\n      0x20\n        /* \"#utility.yul\":10583:10588   */\n      dup3\n        /* \"#utility.yul\":10579:10595   */\n      add\n        /* \"#utility.yul\":10572:10595   */\n      swap1\n      pop\n        /* \"#utility.yul\":10643:10647   */\n      0x20\n        /* \"#utility.yul\":10635:10641   */\n      dup5\n        /* \"#utility.yul\":10631:10648   */\n      mul\n        /* \"#utility.yul\":10623:10629   */\n      dup4\n        /* \"#utility.yul\":10619:10649   */\n      add\n        /* \"#utility.yul\":10672:10675   */\n      dup6\n        /* \"#utility.yul\":10664:10670   */\n      dup2\n        /* \"#utility.yul\":10661:10676   */\n      gt\n        /* \"#utility.yul\":10658:10780   */\n      iszero\n      tag_424\n      jumpi\n        /* \"#utility.yul\":10691:10770   */\n      tag_425\n      tag_278\n      jump\t// in\n    tag_425:\n        /* \"#utility.yul\":10658:10780   */\n    tag_424:\n        /* \"#utility.yul\":10806:10812   */\n      dup4\n        /* \"#utility.yul\":10789:11009   */\n    tag_426:\n        /* \"#utility.yul\":10823:10829   */\n      dup2\n        /* \"#utility.yul\":10818:10821   */\n      dup2\n        /* \"#utility.yul\":10815:10830   */\n      lt\n        /* \"#utility.yul\":10789:11009   */\n      iszero\n      tag_428\n      jumpi\n        /* \"#utility.yul\":10898:10901   */\n      dup1\n        /* \"#utility.yul\":10927:10964   */\n      tag_429\n        /* \"#utility.yul\":10960:10963   */\n      dup9\n        /* \"#utility.yul\":10948:10958   */\n      dup3\n        /* \"#utility.yul\":10927:10964   */\n      tag_259\n      jump\t// in\n    tag_429:\n        /* \"#utility.yul\":10922:10925   */\n      dup5\n        /* \"#utility.yul\":10915:10965   */\n      mstore\n        /* \"#utility.yul\":10994:10998   */\n      0x20\n        /* \"#utility.yul\":10989:10992   */\n      dup5\n        /* \"#utility.yul\":10985:10999   */\n      add\n        /* \"#utility.yul\":10978:10999   */\n      swap4\n      pop\n        /* \"#utility.yul\":10865:11009   */\n      pop\n        /* \"#utility.yul\":10849:10853   */\n      0x20\n        /* \"#utility.yul\":10844:10847   */\n      dup2\n        /* \"#utility.yul\":10840:10854   */\n      add\n        /* \"#utility.yul\":10833:10854   */\n      swap1\n      pop\n        /* \"#utility.yul\":10789:11009   */\n      jump(tag_426)\n    tag_428:\n        /* \"#utility.yul\":10793:10814   */\n      pop\n        /* \"#utility.yul\":10407:11015   */\n      pop\n      pop\n        /* \"#utility.yul\":10305:11015   */\n      swap4\n      swap3\n      pop\n      pop\n      pop\n      jump\t// out\n        /* \"#utility.yul\":11038:11408   */\n    tag_288:\n        /* \"#utility.yul\":11109:11114   */\n      0x00\n        /* \"#utility.yul\":11158:11161   */\n      dup3\n        /* \"#utility.yul\":11151:11155   */\n      0x1f\n        /* \"#utility.yul\":11143:11149   */\n      dup4\n        /* \"#utility.yul\":11139:11156   */\n      add\n        /* \"#utility.yul\":11135:11162   */\n      slt\n        /* \"#utility.yul\":11125:11247   */\n      tag_431\n      jumpi\n        /* \"#utility.yul\":11166:11245   */\n      tag_432\n      tag_274\n      jump\t// in\n    tag_432:\n        /* \"#utility.yul\":11125:11247   */\n    tag_431:\n        /* \"#utility.yul\":11283:11289   */\n      dup2\n        /* \"#utility.yul\":11270:11290   */\n      calldataload\n        /* \"#utility.yul\":11308:11402   */\n      tag_433\n        /* \"#utility.yul\":11398:11401   */\n      dup5\n        /* \"#utility.yul\":11390:11396   */\n      dup3\n        /* \"#utility.yul\":11383:11387   */\n      0x20\n        /* \"#utility.yul\":11375:11381   */\n      dup7\n        /* \"#utility.yul\":11371:11388   */\n      add\n        /* \"#utility.yul\":11308:11402   */\n      tag_287\n      jump\t// in\n    tag_433:\n        /* \"#utility.yul\":11299:11402   */\n      swap2\n      pop\n        /* \"#utility.yul\":11115:11408   */\n      pop\n        /* \"#utility.yul\":11038:11408   */\n      swap3\n      swap2\n      pop\n      pop\n      jump\t// out\n        /* \"#utility.yul\":11414:12308   */\n    tag_40:\n        /* \"#utility.yul\":11532:11538   */\n      0x00\n        /* \"#utility.yul\":11540:11546   */\n      dup1\n        /* \"#utility.yul\":11589:11591   */\n      0x40\n        /* \"#utility.yul\":11577:11586   */\n      dup4\n        /* \"#utility.yul\":11568:11575   */\n      dup6\n        /* \"#utility.yul\":11564:11587   */\n      sub\n        /* \"#utility.yul\":11560:11592   */\n      slt\n        /* \"#utility.yul\":11557:11676   */\n      iszero\n      tag_435\n      jumpi\n        /* \"#utility.yul\":11595:11674   */\n      tag_436\n      tag_254\n      jump\t// in\n    tag_436:\n        /* \"#utility.yul\":11557:11676   */\n    tag_435:\n        /* \"#utility.yul\":11743:11744   */\n      0x00\n        /* \"#utility.yul\":11732:11741   */\n      dup4\n        /* \"#utility.yul\":11728:11745   */\n      add\n        /* \"#utility.yul\":11715:11746   */\n      calldataload\n        /* \"#utility.yul\":11773:11791   */\n      0xffffffffffffffff\n        /* \"#utility.yul\":11765:11771   */\n      dup2\n        /* \"#utility.yul\":11762:11792   */\n      gt\n        /* \"#utility.yul\":11759:11876   */\n      iszero\n      tag_437\n      jumpi\n        /* \"#utility.yul\":11795:11874   */\n      tag_438\n      tag_255\n      jump\t// in\n    tag_438:\n        /* \"#utility.yul\":11759:11876   */\n    tag_437:\n        /* \"#utility.yul\":11900:11978   */\n      tag_439\n        /* \"#utility.yul\":11970:11977   */\n      dup6\n        /* \"#utility.yul\":11961:11967   */\n      dup3\n        /* \"#utility.yul\":11950:11959   */\n      dup7\n        /* \"#utility.yul\":11946:11968   */\n      add\n        /* \"#utility.yul\":11900:11978   */\n      tag_288\n      jump\t// in\n    tag_439:\n        /* \"#utility.yul\":11890:11978   */\n      swap3\n      pop\n        /* \"#utility.yul\":11686:11988   */\n      pop\n        /* \"#utility.yul\":12055:12057   */\n      0x20\n        /* \"#utility.yul\":12044:12053   */\n      dup4\n        /* \"#utility.yul\":12040:12058   */\n      add\n        /* \"#utility.yul\":12027:12059   */\n      calldataload\n        /* \"#utility.yul\":12086:12104   */\n      0xffffffffffffffff\n        /* \"#utility.yul\":12078:12084   */\n      dup2\n        /* \"#utility.yul\":12075:12105   */\n      gt\n        /* \"#utility.yul\":12072:12189   */\n      iszero\n      tag_440\n      jumpi\n        /* \"#utility.yul\":12108:12187   */\n      tag_441\n      tag_255\n      jump\t// in\n    tag_441:\n        /* \"#utility.yul\":12072:12189   */\n    tag_440:\n        /* \"#utility.yul\":12213:12291   */\n      tag_442\n        /* \"#utility.yul\":12283:12290   */\n      dup6\n        /* \"#utility.yul\":12274:12280   */\n      dup3\n        /* \"#utility.yul\":12263:12272   */\n      dup7\n        /* \"#utility.yul\":12259:12281   */\n      add\n        /* \"#utility.yul\":12213:12291   */\n      tag_280\n      jump\t// in\n    tag_442:\n        /* \"#utility.yul\":12203:12291   */\n      swap2\n      pop\n        /* \"#utility.yul\":11998:12301   */\n      pop\n        /* \"#utility.yul\":11414:12308   */\n      swap3\n      pop\n      swap3\n      swap1\n      pop\n      jump\t// out\n        /* \"#utility.yul\":12314:12428   */\n    tag_289:\n        /* \"#utility.yul\":12381:12387   */\n      0x00\n        /* \"#utility.yul\":12415:12420   */\n      dup2\n        /* \"#utility.yul\":12409:12421   */\n      mload\n        /* \"#utility.yul\":12399:12421   */\n      swap1\n      pop\n        /* \"#utility.yul\":12314:12428   */\n      swap2\n      swap1\n      pop\n      jump\t// out\n        /* \"#utility.yul\":12434:12618   */\n    tag_290:\n        /* \"#utility.yul\":12533:12544   */\n      0x00\n        /* \"#utility.yul\":12567:12573   */\n      dup3\n        /* \"#utility.yul\":12562:12565   */\n      dup3\n        /* \"#utility.yul\":12555:12574   */\n      mstore\n        /* \"#utility.yul\":12607:12611   */\n      0x20\n        /* \"#utility.yul\":12602:12605   */\n      dup3\n        /* \"#utility.yul\":12598:12612   */\n      add\n        /* \"#utility.yul\":12583:12612   */\n      swap1\n      pop\n        /* \"#utility.yul\":12434:12618   */\n      swap3\n      swap2\n      pop\n      pop\n      jump\t// out\n        /* \"#utility.yul\":12624:12756   */\n    tag_291:\n        /* \"#utility.yul\":12691:12695   */\n      0x00\n        /* \"#utility.yul\":12714:12717   */\n      dup2\n        /* \"#utility.yul\":12706:12717   */\n      swap1\n      pop\n        /* \"#utility.yul\":12744:12748   */\n      0x20\n        /* \"#utility.yul\":12739:12742   */\n      dup3\n        /* \"#utility.yul\":12735:12749   */\n      add\n        /* \"#utility.yul\":12727:12749   */\n      swap1\n      pop\n        /* \"#utility.yul\":12624:12756   */\n      swap2\n      swap1\n      pop\n      jump\t// out\n        /* \"#utility.yul\":12762:12870   */\n    tag_292:\n        /* \"#utility.yul\":12839:12863   */\n      tag_447\n        /* \"#utility.yul\":12857:12862   */\n      dup2\n        /* \"#utility.yul\":12839:12863   */\n      tag_260\n      jump\t// in\n    tag_447:\n        /* \"#utility.yul\":12834:12837   */\n      dup3\n        /* \"#utility.yul\":12827:12864   */\n      mstore\n        /* \"#utility.yul\":12762:12870   */\n      pop\n      pop\n      jump\t// out\n        /* \"#utility.yul\":12876:13055   */\n    tag_293:\n        /* \"#utility.yul\":12945:12955   */\n      0x00\n        /* \"#utility.yul\":12966:13012   */\n      tag_449\n        /* \"#utility.yul\":13008:13011   */\n      dup4\n        /* \"#utility.yul\":13000:13006   */\n      dup4\n        /* \"#utility.yul\":12966:13012   */\n      tag_292\n      jump\t// in\n    tag_449:\n        /* \"#utility.yul\":13044:13048   */\n      0x20\n        /* \"#utility.yul\":13039:13042   */\n      dup4\n        /* \"#utility.yul\":13035:13049   */\n      add\n        /* \"#utility.yul\":13021:13049   */\n      swap1\n      pop\n        /* \"#utility.yul\":12876:13055   */\n      swap3\n      swap2\n      pop\n      pop\n      jump\t// out\n        /* \"#utility.yul\":13061:13174   */\n    tag_294:\n        /* \"#utility.yul\":13131:13135   */\n      0x00\n        /* \"#utility.yul\":13163:13167   */\n      0x20\n        /* \"#utility.yul\":13158:13161   */\n      dup3\n        /* \"#utility.yul\":13154:13168   */\n      add\n        /* \"#utility.yul\":13146:13168   */\n      swap1\n      pop\n        /* \"#utility.yul\":13061:13174   */\n      swap2\n      swap1\n      pop\n      jump\t// out\n        /* \"#utility.yul\":13210:13942   */\n    tag_295:\n        /* \"#utility.yul\":13329:13332   */\n      0x00\n        /* \"#utility.yul\":13358:13412   */\n      tag_452\n        /* \"#utility.yul\":13406:13411   */\n      dup3\n        /* \"#utility.yul\":13358:13412   */\n      tag_289\n      jump\t// in\n    tag_452:\n        /* \"#utility.yul\":13428:13514   */\n      tag_453\n        /* \"#utility.yul\":13507:13513   */\n      dup2\n        /* \"#utility.yul\":13502:13505   */\n      dup6\n        /* \"#utility.yul\":13428:13514   */\n      tag_290\n      jump\t// in\n    tag_453:\n        /* \"#utility.yul\":13421:13514   */\n      swap4\n      pop\n        /* \"#utility.yul\":13538:13594   */\n      tag_454\n        /* \"#utility.yul\":13588:13593   */\n      dup4\n        /* \"#utility.yul\":13538:13594   */\n      tag_291\n      jump\t// in\n    tag_454:\n        /* \"#utility.yul\":13617:13624   */\n      dup1\n        /* \"#utility.yul\":13648:13649   */\n      0x00\n        /* \"#utility.yul\":13633:13917   */\n    tag_455:\n        /* \"#utility.yul\":13658:13664   */\n      dup4\n        /* \"#utility.yul\":13655:13656   */\n      dup2\n        /* \"#utility.yul\":13652:13665   */\n      lt\n        /* \"#utility.yul\":13633:13917   */\n      iszero\n      tag_457\n      jumpi\n        /* \"#utility.yul\":13734:13740   */\n      dup2\n        /* \"#utility.yul\":13728:13741   */\n      mload\n        /* \"#utility.yul\":13761:13824   */\n      tag_458\n        /* \"#utility.yul\":13820:13823   */\n      dup9\n        /* \"#utility.yul\":13805:13818   */\n      dup3\n        /* \"#utility.yul\":13761:13824   */\n      tag_293\n      jump\t// in\n    tag_458:\n        /* \"#utility.yul\":13754:13824   */\n      swap8\n      pop\n        /* \"#utility.yul\":13847:13907   */\n      tag_459\n        /* \"#utility.yul\":13900:13906   */\n      dup4\n        /* \"#utility.yul\":13847:13907   */\n      tag_294\n      jump\t// in\n    tag_459:\n        /* \"#utility.yul\":13837:13907   */\n      swap3\n      pop\n        /* \"#utility.yul\":13693:13917   */\n      pop\n        /* \"#utility.yul\":13680:13681   */\n      0x01\n        /* \"#utility.yul\":13677:13678   */\n      dup2\n        /* \"#utility.yul\":13673:13682   */\n      add\n        /* \"#utility.yul\":13668:13682   */\n      swap1\n      pop\n        /* \"#utility.yul\":13633:13917   */\n      jump(tag_455)\n    tag_457:\n        /* \"#utility.yul\":13637:13651   */\n      pop\n        /* \"#utility.yul\":13933:13936   */\n      dup6\n        /* \"#utility.yul\":13926:13936   */\n      swap4\n      pop\n        /* \"#utility.yul\":13334:13942   */\n      pop\n      pop\n      pop\n        /* \"#utility.yul\":13210:13942   */\n      swap3\n      swap2\n      pop\n      pop\n      jump\t// out\n        /* \"#utility.yul\":13948:14321   */\n    tag_43:\n        /* \"#utility.yul\":14091:14095   */\n      0x00\n        /* \"#utility.yul\":14129:14131   */\n      0x20\n        /* \"#utility.yul\":14118:14127   */\n      dup3\n        /* \"#utility.yul\":14114:14132   */\n      add\n        /* \"#utility.yul\":14106:14132   */\n      swap1\n      pop\n        /* \"#utility.yul\":14178:14187   */\n      dup2\n        /* \"#utility.yul\":14172:14176   */\n      dup2\n        /* \"#utility.yul\":14168:14188   */\n      sub\n        /* \"#utility.yul\":14164:14165   */\n      0x00\n        /* \"#utility.yul\":14153:14162   */\n      dup4\n        /* \"#utility.yul\":14149:14166   */\n      add\n        /* \"#utility.yul\":14142:14189   */\n      mstore\n        /* \"#utility.yul\":14206:14314   */\n      tag_461\n        /* \"#utility.yul\":14309:14313   */\n      dup2\n        /* \"#utility.yul\":14300:14306   */\n      dup5\n        /* \"#utility.yul\":14206:14314   */\n      tag_295\n      jump\t// in\n    tag_461:\n        /* \"#utility.yul\":14198:14314   */\n      swap1\n      pop\n        /* \"#utility.yul\":13948:14321   */\n      swap3\n      swap2\n      pop\n      pop\n      jump\t// out\n        /* \"#utility.yul\":14327:15270   */\n    tag_48:\n        /* \"#utility.yul\":14422:14428   */\n      0x00\n        /* \"#utility.yul\":14430:14436   */\n      dup1\n        /* \"#utility.yul\":14438:14444   */\n      0x00\n        /* \"#utility.yul\":14446:14452   */\n      dup1\n        /* \"#utility.yul\":14495:14498   */\n      0x80\n        /* \"#utility.yul\":14483:14492   */\n      dup6\n        /* \"#utility.yul\":14474:14481   */\n      dup8\n        /* \"#utility.yul\":14470:14493   */\n      sub\n        /* \"#utility.yul\":14466:14499   */\n      slt\n        /* \"#utility.yul\":14463:14583   */\n      iszero\n      tag_463\n      jumpi\n        /* \"#utility.yul\":14502:14581   */\n      tag_464\n      tag_254\n      jump\t// in\n    tag_464:\n        /* \"#utility.yul\":14463:14583   */\n    tag_463:\n        /* \"#utility.yul\":14622:14623   */\n      0x00\n        /* \"#utility.yul\":14647:14700   */\n      tag_465\n        /* \"#utility.yul\":14692:14699   */\n      dup8\n        /* \"#utility.yul\":14683:14689   */\n      dup3\n        /* \"#utility.yul\":14672:14681   */\n      dup9\n        /* \"#utility.yul\":14668:14690   */\n      add\n        /* \"#utility.yul\":14647:14700   */\n      tag_259\n      jump\t// in\n    tag_465:\n        /* \"#utility.yul\":14637:14700   */\n      swap5\n      pop\n        /* \"#utility.yul\":14593:14710   */\n      pop\n        /* \"#utility.yul\":14749:14751   */\n      0x20\n        /* \"#utility.yul\":14775:14828   */\n      tag_466\n        /* \"#utility.yul\":14820:14827   */\n      dup8\n        /* \"#utility.yul\":14811:14817   */\n      dup3\n        /* \"#utility.yul\":14800:14809   */\n      dup9\n        /* \"#utility.yul\":14796:14818   */\n      add\n        /* \"#utility.yul\":14775:14828   */\n      tag_262\n      jump\t// in\n    tag_466:\n        /* \"#utility.yul\":14765:14828   */\n      swap4\n      pop\n        /* \"#utility.yul\":14720:14838   */\n      pop\n        /* \"#utility.yul\":14877:14879   */\n      0x40\n        /* \"#utility.yul\":14903:14956   */\n      tag_467\n        /* \"#utility.yul\":14948:14955   */\n      dup8\n        /* \"#utility.yul\":14939:14945   */\n      dup3\n        /* \"#utility.yul\":14928:14937   */\n      dup9\n        /* \"#utility.yul\":14924:14946   */\n      add\n        /* \"#utility.yul\":14903:14956   */\n      tag_262\n      jump\t// in\n    tag_467:\n        /* \"#utility.yul\":14893:14956   */\n      swap3\n      pop\n        /* \"#utility.yul\":14848:14966   */\n      pop\n        /* \"#utility.yul\":15033:15035   */\n      0x60\n        /* \"#utility.yul\":15022:15031   */\n      dup6\n        /* \"#utility.yul\":15018:15036   */\n      add\n        /* \"#utility.yul\":15005:15037   */\n      calldataload\n        /* \"#utility.yul\":15064:15082   */\n      0xffffffffffffffff\n        /* \"#utility.yul\":15056:15062   */\n      dup2\n        /* \"#utility.yul\":15053:15083   */\n      gt\n        /* \"#utility.yul\":15050:15167   */\n      iszero\n      tag_468\n      jumpi\n        /* \"#utility.yul\":15086:15165   */\n      tag_469\n      tag_255\n      jump\t// in\n    tag_469:\n        /* \"#utility.yul\":15050:15167   */\n    tag_468:\n        /* \"#utility.yul\":15191:15253   */\n      tag_470\n        /* \"#utility.yul\":15245:15252   */\n      dup8\n        /* \"#utility.yul\":15236:15242   */\n      dup3\n        /* \"#utility.yul\":15225:15234   */\n      dup9\n        /* \"#utility.yul\":15221:15243   */\n      add\n        /* \"#utility.yul\":15191:15253   */\n      tag_285\n      jump\t// in\n    tag_470:\n        /* \"#utility.yul\":15181:15253   */\n      swap2\n      pop\n        /* \"#utility.yul\":14976:15263   */\n      pop\n        /* \"#utility.yul\":14327:15270   */\n      swap3\n      swap6\n      swap2\n      swap5\n      pop\n      swap3\n      pop\n      jump\t// out\n        /* \"#utility.yul\":15276:15394   */\n    tag_296:\n        /* \"#utility.yul\":15363:15387   */\n      tag_472\n        /* \"#utility.yul\":15381:15386   */\n      dup2\n        /* \"#utility.yul\":15363:15387   */\n      tag_257\n      jump\t// in\n    tag_472:\n        /* \"#utility.yul\":15358:15361   */\n      dup3\n        /* \"#utility.yul\":15351:15388   */\n      mstore\n        /* \"#utility.yul\":15276:15394   */\n      pop\n      pop\n      jump\t// out\n        /* \"#utility.yul\":15400:15622   */\n    tag_53:\n        /* \"#utility.yul\":15493:15497   */\n      0x00\n        /* \"#utility.yul\":15531:15533   */\n      0x20\n        /* \"#utility.yul\":15520:15529   */\n      dup3\n        /* \"#utility.yul\":15516:15534   */\n      add\n        /* \"#utility.yul\":15508:15534   */\n      swap1\n      pop\n        /* \"#utility.yul\":15544:15615   */\n      tag_474\n        /* \"#utility.yul\":15612:15613   */\n      0x00\n        /* \"#utility.yul\":15601:15610   */\n      dup4\n        /* \"#utility.yul\":15597:15614   */\n      add\n        /* \"#utility.yul\":15588:15594   */\n      dup5\n        /* \"#utility.yul\":15544:15615   */\n      tag_296\n      jump\t// in\n    tag_474:\n        /* \"#utility.yul\":15400:15622   */\n      swap3\n      swap2\n      pop\n      pop\n      jump\t// out\n        /* \"#utility.yul\":15628:15744   */\n    tag_297:\n        /* \"#utility.yul\":15698:15719   */\n      tag_476\n        /* \"#utility.yul\":15713:15718   */\n      dup2\n        /* \"#utility.yul\":15698:15719   */\n      tag_267\n      jump\t// in\n    tag_476:\n        /* \"#utility.yul\":15691:15696   */\n      dup2\n        /* \"#utility.yul\":15688:15720   */\n      eq\n        /* \"#utility.yul\":15678:15738   */\n      tag_477\n      jumpi\n        /* \"#utility.yul\":15734:15735   */\n      0x00\n        /* \"#utility.yul\":15731:15732   */\n      dup1\n        /* \"#utility.yul\":15724:15736   */\n      revert\n        /* \"#utility.yul\":15678:15738   */\n    tag_477:\n        /* \"#utility.yul\":15628:15744   */\n      pop\n      jump\t// out\n        /* \"#utility.yul\":15750:15883   */\n    tag_298:\n        /* \"#utility.yul\":15793:15798   */\n      0x00\n        /* \"#utility.yul\":15831:15837   */\n      dup2\n        /* \"#utility.yul\":15818:15838   */\n      calldataload\n        /* \"#utility.yul\":15809:15838   */\n      swap1\n      pop\n        /* \"#utility.yul\":15847:15877   */\n      tag_479\n        /* \"#utility.yul\":15871:15876   */\n      dup2\n        /* \"#utility.yul\":15847:15877   */\n      tag_297\n      jump\t// in\n    tag_479:\n        /* \"#utility.yul\":15750:15883   */\n      swap3\n      swap2\n      pop\n      pop\n      jump\t// out\n        /* \"#utility.yul\":15889:16357   */\n    tag_56:\n        /* \"#utility.yul\":15954:15960   */\n      0x00\n        /* \"#utility.yul\":15962:15968   */\n      dup1\n        /* \"#utility.yul\":16011:16013   */\n      0x40\n        /* \"#utility.yul\":15999:16008   */\n      dup4\n        /* \"#utility.yul\":15990:15997   */\n      dup6\n        /* \"#utility.yul\":15986:16009   */\n      sub\n        /* \"#utility.yul\":15982:16014   */\n      slt\n        /* \"#utility.yul\":15979:16098   */\n      iszero\n      tag_481\n      jumpi\n        /* \"#utility.yul\":16017:16096   */\n      tag_482\n      tag_254\n      jump\t// in\n    tag_482:\n        /* \"#utility.yul\":15979:16098   */\n    tag_481:\n        /* \"#utility.yul\":16137:16138   */\n      0x00\n        /* \"#utility.yul\":16162:16215   */\n      tag_483\n        /* \"#utility.yul\":16207:16214   */\n      dup6\n        /* \"#utility.yul\":16198:16204   */\n      dup3\n        /* \"#utility.yul\":16187:16196   */\n      dup7\n        /* \"#utility.yul\":16183:16205   */\n      add\n        /* \"#utility.yul\":16162:16215   */\n      tag_259\n      jump\t// in\n    tag_483:\n        /* \"#utility.yul\":16152:16215   */\n      swap3\n      pop\n        /* \"#utility.yul\":16108:16225   */\n      pop\n        /* \"#utility.yul\":16264:16266   */\n      0x20\n        /* \"#utility.yul\":16290:16340   */\n      tag_484\n        /* \"#utility.yul\":16332:16339   */\n      dup6\n        /* \"#utility.yul\":16323:16329   */\n      dup3\n        /* \"#utility.yul\":16312:16321   */\n      dup7\n        /* \"#utility.yul\":16308:16330   */\n      add\n        /* \"#utility.yul\":16290:16340   */\n      tag_298\n      jump\t// in\n    tag_484:\n        /* \"#utility.yul\":16280:16340   */\n      swap2\n      pop\n        /* \"#utility.yul\":16235:16350   */\n      pop\n        /* \"#utility.yul\":15889:16357   */\n      swap3\n      pop\n      swap3\n      swap1\n      pop\n      jump\t// out\n        /* \"#utility.yul\":16363:16837   */\n    tag_60:\n        /* \"#utility.yul\":16431:16437   */\n      0x00\n        /* \"#utility.yul\":16439:16445   */\n      dup1\n        /* \"#utility.yul\":16488:16490   */\n      0x40\n        /* \"#utility.yul\":16476:16485   */\n      dup4\n        /* \"#utility.yul\":16467:16474   */\n      dup6\n        /* \"#utility.yul\":16463:16486   */\n      sub\n        /* \"#utility.yul\":16459:16491   */\n      slt\n        /* \"#utility.yul\":16456:16575   */\n      iszero\n      tag_486\n      jumpi\n        /* \"#utility.yul\":16494:16573   */\n      tag_487\n      tag_254\n      jump\t// in\n    tag_487:\n        /* \"#utility.yul\":16456:16575   */\n    tag_486:\n        /* \"#utility.yul\":16614:16615   */\n      0x00\n        /* \"#utility.yul\":16639:16692   */\n      tag_488\n        /* \"#utility.yul\":16684:16691   */\n      dup6\n        /* \"#utility.yul\":16675:16681   */\n      dup3\n        /* \"#utility.yul\":16664:16673   */\n      dup7\n        /* \"#utility.yul\":16660:16682   */\n      add\n        /* \"#utility.yul\":16639:16692   */\n      tag_259\n      jump\t// in\n    tag_488:\n        /* \"#utility.yul\":16629:16692   */\n      swap3\n      pop\n        /* \"#utility.yul\":16585:16702   */\n      pop\n        /* \"#utility.yul\":16741:16743   */\n      0x20\n        /* \"#utility.yul\":16767:16820   */\n      tag_489\n        /* \"#utility.yul\":16812:16819   */\n      dup6\n        /* \"#utility.yul\":16803:16809   */\n      dup3\n        /* \"#utility.yul\":16792:16801   */\n      dup7\n        /* \"#utility.yul\":16788:16810   */\n      add\n        /* \"#utility.yul\":16767:16820   */\n      tag_259\n      jump\t// in\n    tag_489:\n        /* \"#utility.yul\":16757:16820   */\n      swap2\n      pop\n        /* \"#utility.yul\":16712:16830   */\n      pop\n        /* \"#utility.yul\":16363:16837   */\n      swap3\n      pop\n      swap3\n      swap1\n      pop\n      jump\t// out\n        /* \"#utility.yul\":16843:17932   */\n    tag_65:\n        /* \"#utility.yul\":16947:16953   */\n      0x00\n        /* \"#utility.yul\":16955:16961   */\n      dup1\n        /* \"#utility.yul\":16963:16969   */\n      0x00\n        /* \"#utility.yul\":16971:16977   */\n      dup1\n        /* \"#utility.yul\":16979:16985   */\n      0x00\n        /* \"#utility.yul\":17028:17031   */\n      0xa0\n        /* \"#utility.yul\":17016:17025   */\n      dup7\n        /* \"#utility.yul\":17007:17014   */\n      dup9\n        /* \"#utility.yul\":17003:17026   */\n      sub\n        /* \"#utility.yul\":16999:17032   */\n      slt\n        /* \"#utility.yul\":16996:17116   */\n      iszero\n      tag_491\n      jumpi\n        /* \"#utility.yul\":17035:17114   */\n      tag_492\n      tag_254\n      jump\t// in\n    tag_492:\n        /* \"#utility.yul\":16996:17116   */\n    tag_491:\n        /* \"#utility.yul\":17155:17156   */\n      0x00\n        /* \"#utility.yul\":17180:17233   */\n      tag_493\n        /* \"#utility.yul\":17225:17232   */\n      dup9\n        /* \"#utility.yul\":17216:17222   */\n      dup3\n        /* \"#utility.yul\":17205:17214   */\n      dup10\n        /* \"#utility.yul\":17201:17223   */\n      add\n        /* \"#utility.yul\":17180:17233   */\n      tag_259\n      jump\t// in\n    tag_493:\n        /* \"#utility.yul\":17170:17233   */\n      swap6\n      pop\n        /* \"#utility.yul\":17126:17243   */\n      pop\n        /* \"#utility.yul\":17282:17284   */\n      0x20\n        /* \"#utility.yul\":17308:17361   */\n      tag_494\n        /* \"#utility.yul\":17353:17360   */\n      dup9\n        /* \"#utility.yul\":17344:17350   */\n      dup3\n        /* \"#utility.yul\":17333:17342   */\n      dup10\n        /* \"#utility.yul\":17329:17351   */\n      add\n        /* \"#utility.yul\":17308:17361   */\n      tag_259\n      jump\t// in\n    tag_494:\n        /* \"#utility.yul\":17298:17361   */\n      swap5\n      pop\n        /* \"#utility.yul\":17253:17371   */\n      pop\n        /* \"#utility.yul\":17410:17412   */\n      0x40\n        /* \"#utility.yul\":17436:17489   */\n      tag_495\n        /* \"#utility.yul\":17481:17488   */\n      dup9\n        /* \"#utility.yul\":17472:17478   */\n      dup3\n        /* \"#utility.yul\":17461:17470   */\n      dup10\n        /* \"#utility.yul\":17457:17479   */\n      add\n        /* \"#utility.yul\":17436:17489   */\n      tag_262\n      jump\t// in\n    tag_495:\n        /* \"#utility.yul\":17426:17489   */\n      swap4\n      pop\n        /* \"#utility.yul\":17381:17499   */\n      pop\n        /* \"#utility.yul\":17538:17540   */\n      0x60\n        /* \"#utility.yul\":17564:17617   */\n      tag_496\n        /* \"#utility.yul\":17609:17616   */\n      dup9\n        /* \"#utility.yul\":17600:17606   */\n      dup3\n        /* \"#utility.yul\":17589:17598   */\n      dup10\n        /* \"#utility.yul\":17585:17607   */\n      add\n        /* \"#utility.yul\":17564:17617   */\n      tag_262\n      jump\t// in\n    tag_496:\n        /* \"#utility.yul\":17554:17617   */\n      swap3\n      pop\n        /* \"#utility.yul\":17509:17627   */\n      pop\n        /* \"#utility.yul\":17694:17697   */\n      0x80\n        /* \"#utility.yul\":17683:17692   */\n      dup7\n        /* \"#utility.yul\":17679:17698   */\n      add\n        /* \"#utility.yul\":17666:17699   */\n      calldataload\n        /* \"#utility.yul\":17726:17744   */\n      0xffffffffffffffff\n        /* \"#utility.yul\":17718:17724   */\n      dup2\n        /* \"#utility.yul\":17715:17745   */\n      gt\n        /* \"#utility.yul\":17712:17829   */\n      iszero\n      tag_497\n      jumpi\n        /* \"#utility.yul\":17748:17827   */\n      tag_498\n      tag_255\n      jump\t// in\n    tag_498:\n        /* \"#utility.yul\":17712:17829   */\n    tag_497:\n        /* \"#utility.yul\":17853:17915   */\n      tag_499\n        /* \"#utility.yul\":17907:17914   */\n      dup9\n        /* \"#utility.yul\":17898:17904   */\n      dup3\n        /* \"#utility.yul\":17887:17896   */\n      dup10\n        /* \"#utility.yul\":17883:17905   */\n      add\n        /* \"#utility.yul\":17853:17915   */\n      tag_285\n      jump\t// in\n    tag_499:\n        /* \"#utility.yul\":17843:17915   */\n      swap2\n      pop\n        /* \"#utility.yul\":17637:17925   */\n      pop\n        /* \"#utility.yul\":16843:17932   */\n      swap3\n      swap6\n      pop\n      swap3\n      swap6\n      swap1\n      swap4\n      pop\n      jump\t// out\n        /* \"#utility.yul\":17938:18267   */\n    tag_69:\n        /* \"#utility.yul\":17997:18003   */\n      0x00\n        /* \"#utility.yul\":18046:18048   */\n      0x20\n        /* \"#utility.yul\":18034:18043   */\n      dup3\n        /* \"#utility.yul\":18025:18032   */\n      dup5\n        /* \"#utility.yul\":18021:18044   */\n      sub\n        /* \"#utility.yul\":18017:18049   */\n      slt\n        /* \"#utility.yul\":18014:18133   */\n      iszero\n      tag_501\n      jumpi\n        /* \"#utility.yul\":18052:18131   */\n      tag_502\n      tag_254\n      jump\t// in\n    tag_502:\n        /* \"#utility.yul\":18014:18133   */\n    tag_501:\n        /* \"#utility.yul\":18172:18173   */\n      0x00\n        /* \"#utility.yul\":18197:18250   */\n      tag_503\n        /* \"#utility.yul\":18242:18249   */\n      dup5\n        /* \"#utility.yul\":18233:18239   */\n      dup3\n        /* \"#utility.yul\":18222:18231   */\n      dup6\n        /* \"#utility.yul\":18218:18240   */\n      add\n        /* \"#utility.yul\":18197:18250   */\n      tag_259\n      jump\t// in\n    tag_503:\n        /* \"#utility.yul\":18187:18250   */\n      swap2\n      pop\n        /* \"#utility.yul\":18143:18260   */\n      pop\n        /* \"#utility.yul\":17938:18267   */\n      swap3\n      swap2\n      pop\n      pop\n      jump\t// out\n        /* \"#utility.yul\":18273:18453   */\n    tag_299:\n        /* \"#utility.yul\":18321:18398   */\n      0x4e487b7100000000000000000000000000000000000000000000000000000000\n        /* \"#utility.yul\":18318:18319   */\n      0x00\n        /* \"#utility.yul\":18311:18399   */\n      mstore\n        /* \"#utility.yul\":18418:18422   */\n      0x22\n        /* \"#utility.yul\":18415:18416   */\n      0x04\n        /* \"#utility.yul\":18408:18423   */\n      mstore\n        /* \"#utility.yul\":18442:18446   */\n      0x24\n        /* \"#utility.yul\":18439:18440   */\n      0x00\n        /* \"#utility.yul\":18432:18447   */\n      revert\n        /* \"#utility.yul\":18459:18779   */\n    tag_79:\n        /* \"#utility.yul\":18503:18509   */\n      0x00\n        /* \"#utility.yul\":18540:18541   */\n      0x02\n        /* \"#utility.yul\":18534:18538   */\n      dup3\n        /* \"#utility.yul\":18530:18542   */\n      div\n        /* \"#utility.yul\":18520:18542   */\n      swap1\n      pop\n        /* \"#utility.yul\":18587:18588   */\n      0x01\n        /* \"#utility.yul\":18581:18585   */\n      dup3\n        /* \"#utility.yul\":18577:18589   */\n      and\n        /* \"#utility.yul\":18608:18626   */\n      dup1\n        /* \"#utility.yul\":18598:18679   */\n      tag_506\n      jumpi\n        /* \"#utility.yul\":18664:18668   */\n      0x7f\n        /* \"#utility.yul\":18656:18662   */\n      dup3\n        /* \"#utility.yul\":18652:18669   */\n      and\n        /* \"#utility.yul\":18642:18669   */\n      swap2\n      pop\n        /* \"#utility.yul\":18598:18679   */\n    tag_506:\n        /* \"#utility.yul\":18726:18728   */\n      0x20\n        /* \"#utility.yul\":18718:18724   */\n      dup3\n        /* \"#utility.yul\":18715:18729   */\n      lt\n        /* \"#utility.yul\":18695:18713   */\n      dup2\n        /* \"#utility.yul\":18692:18730   */\n      sub\n        /* \"#utility.yul\":18689:18773   */\n      tag_507\n      jumpi\n        /* \"#utility.yul\":18745:18763   */\n      tag_508\n      tag_299\n      jump\t// in\n    tag_508:\n        /* \"#utility.yul\":18689:18773   */\n    tag_507:\n        /* \"#utility.yul\":18510:18779   */\n      pop\n        /* \"#utility.yul\":18459:18779   */\n      swap2\n      swap1\n      pop\n      jump\t// out\n        /* \"#utility.yul\":18785:19117   */\n    tag_91:\n        /* \"#utility.yul\":18906:18910   */\n      0x00\n        /* \"#utility.yul\":18944:18946   */\n      0x40\n        /* \"#utility.yul\":18933:18942   */\n      dup3\n        /* \"#utility.yul\":18929:18947   */\n      add\n        /* \"#utility.yul\":18921:18947   */\n      swap1\n      pop\n        /* \"#utility.yul\":18957:19028   */\n      tag_510\n        /* \"#utility.yul\":19025:19026   */\n      0x00\n        /* \"#utility.yul\":19014:19023   */\n      dup4\n        /* \"#utility.yul\":19010:19027   */\n      add\n        /* \"#utility.yul\":19001:19007   */\n      dup6\n        /* \"#utility.yul\":18957:19028   */\n      tag_296\n      jump\t// in\n    tag_510:\n        /* \"#utility.yul\":19038:19110   */\n      tag_511\n        /* \"#utility.yul\":19106:19108   */\n      0x20\n        /* \"#utility.yul\":19095:19104   */\n      dup4\n        /* \"#utility.yul\":19091:19109   */\n      add\n        /* \"#utility.yul\":19082:19088   */\n      dup5\n        /* \"#utility.yul\":19038:19110   */\n      tag_296\n      jump\t// in\n    tag_511:\n        /* \"#utility.yul\":18785:19117   */\n      swap4\n      swap3\n      pop\n      pop\n      pop\n      jump\t// out\n        /* \"#utility.yul\":19123:19455   */\n    tag_97:\n        /* \"#utility.yul\":19244:19248   */\n      0x00\n        /* \"#utility.yul\":19282:19284   */\n      0x40\n        /* \"#utility.yul\":19271:19280   */\n      dup3\n        /* \"#utility.yul\":19267:19285   */\n      add\n        /* \"#utility.yul\":19259:19285   */\n      swap1\n      pop\n        /* \"#utility.yul\":19295:19366   */\n      tag_513\n        /* \"#utility.yul\":19363:19364   */\n      0x00\n        /* \"#utility.yul\":19352:19361   */\n      dup4\n        /* \"#utility.yul\":19348:19365   */\n      add\n        /* \"#utility.yul\":19339:19345   */\n      dup6\n        /* \"#utility.yul\":19295:19366   */\n      tag_263\n      jump\t// in\n    tag_513:\n        /* \"#utility.yul\":19376:19448   */\n      tag_514\n        /* \"#utility.yul\":19444:19446   */\n      0x20\n        /* \"#utility.yul\":19433:19442   */\n      dup4\n        /* \"#utility.yul\":19429:19447   */\n      add\n        /* \"#utility.yul\":19420:19426   */\n      dup5\n        /* \"#utility.yul\":19376:19448   */\n      tag_263\n      jump\t// in\n    tag_514:\n        /* \"#utility.yul\":19123:19455   */\n      swap4\n      swap3\n      pop\n      pop\n      pop\n      jump\t// out\n        /* \"#utility.yul\":19461:19641   */\n    tag_112:\n        /* \"#utility.yul\":19509:19586   */\n      0x4e487b7100000000000000000000000000000000000000000000000000000000\n        /* \"#utility.yul\":19506:19507   */\n      0x00\n        /* \"#utility.yul\":19499:19587   */\n      mstore\n        /* \"#utility.yul\":19606:19610   */\n      0x32\n        /* \"#utility.yul\":19603:19604   */\n      0x04\n        /* \"#utility.yul\":19596:19611   */\n      mstore\n        /* \"#utility.yul\":19630:19634   */\n      0x24\n        /* \"#utility.yul\":19627:19628   */\n      0x00\n        /* \"#utility.yul\":19620:19635   */\n      revert\n        /* \"#utility.yul\":19647:20200   */\n    tag_205:\n        /* \"#utility.yul\":19824:19828   */\n      0x00\n        /* \"#utility.yul\":19862:19865   */\n      0x80\n        /* \"#utility.yul\":19851:19860   */\n      dup3\n        /* \"#utility.yul\":19847:19866   */\n      add\n        /* \"#utility.yul\":19839:19866   */\n      swap1\n      pop\n        /* \"#utility.yul\":19876:19947   */\n      tag_517\n        /* \"#utility.yul\":19944:19945   */\n      0x00\n        /* \"#utility.yul\":19933:19942   */\n      dup4\n        /* \"#utility.yul\":19929:19946   */\n      add\n        /* \"#utility.yul\":19920:19926   */\n      dup8\n        /* \"#utility.yul\":19876:19947   */\n      tag_296\n      jump\t// in\n    tag_517:\n        /* \"#utility.yul\":19957:20029   */\n      tag_518\n        /* \"#utility.yul\":20025:20027   */\n      0x20\n        /* \"#utility.yul\":20014:20023   */\n      dup4\n        /* \"#utility.yul\":20010:20028   */\n      add\n        /* \"#utility.yul\":20001:20007   */\n      dup7\n        /* \"#utility.yul\":19957:20029   */\n      tag_263\n      jump\t// in\n    tag_518:\n        /* \"#utility.yul\":20039:20111   */\n      tag_519\n        /* \"#utility.yul\":20107:20109   */\n      0x40\n        /* \"#utility.yul\":20096:20105   */\n      dup4\n        /* \"#utility.yul\":20092:20110   */\n      add\n        /* \"#utility.yul\":20083:20089   */\n      dup6\n        /* \"#utility.yul\":20039:20111   */\n      tag_263\n      jump\t// in\n    tag_519:\n        /* \"#utility.yul\":20121:20193   */\n      tag_520\n        /* \"#utility.yul\":20189:20191   */\n      0x60\n        /* \"#utility.yul\":20178:20187   */\n      dup4\n        /* \"#utility.yul\":20174:20192   */\n      add\n        /* \"#utility.yul\":20165:20171   */\n      dup5\n        /* \"#utility.yul\":20121:20193   */\n      tag_263\n      jump\t// in\n    tag_520:\n        /* \"#utility.yul\":19647:20200   */\n      swap6\n      swap5\n      pop\n      pop\n      pop\n      pop\n      pop\n      jump\t// out\n        /* \"#utility.yul\":20206:20386   */\n    tag_300:\n        /* \"#utility.yul\":20254:20331   */\n      0x4e487b7100000000000000000000000000000000000000000000000000000000\n        /* \"#utility.yul\":20251:20252   */\n      0x00\n        /* \"#utility.yul\":20244:20332   */\n      mstore\n        /* \"#utility.yul\":20351:20355   */\n      0x11\n        /* \"#utility.yul\":20348:20349   */\n      0x04\n        /* \"#utility.yul\":20341:20356   */\n      mstore\n        /* \"#utility.yul\":20375:20379   */\n      0x24\n        /* \"#utility.yul\":20372:20373   */\n      0x00\n        /* \"#utility.yul\":20365:20380   */\n      revert\n        /* \"#utility.yul\":20392:20583   */\n    tag_208:\n        /* \"#utility.yul\":20432:20435   */\n      0x00\n        /* \"#utility.yul\":20451:20471   */\n      tag_523\n        /* \"#utility.yul\":20469:20470   */\n      dup3\n        /* \"#utility.yul\":20451:20471   */\n      tag_260\n      jump\t// in\n    tag_523:\n        /* \"#utility.yul\":20446:20471   */\n      swap2\n      pop\n        /* \"#utility.yul\":20485:20505   */\n      tag_524\n        /* \"#utility.yul\":20503:20504   */\n      dup4\n        /* \"#utility.yul\":20485:20505   */\n      tag_260\n      jump\t// in\n    tag_524:\n        /* \"#utility.yul\":20480:20505   */\n      swap3\n      pop\n        /* \"#utility.yul\":20528:20529   */\n      dup3\n        /* \"#utility.yul\":20525:20526   */\n      dup3\n        /* \"#utility.yul\":20521:20530   */\n      add\n        /* \"#utility.yul\":20514:20530   */\n      swap1\n      pop\n        /* \"#utility.yul\":20549:20552   */\n      dup1\n        /* \"#utility.yul\":20546:20547   */\n      dup3\n        /* \"#utility.yul\":20543:20553   */\n      gt\n        /* \"#utility.yul\":20540:20576   */\n      iszero\n      tag_525\n      jumpi\n        /* \"#utility.yul\":20556:20574   */\n      tag_526\n      tag_300\n      jump\t// in\n    tag_526:\n        /* \"#utility.yul\":20540:20576   */\n    tag_525:\n        /* \"#utility.yul\":20392:20583   */\n      swap3\n      swap2\n      pop\n      pop\n      jump\t// out\n        /* \"#utility.yul\":20589:21223   */\n    tag_215:\n        /* \"#utility.yul\":20810:20814   */\n      0x00\n        /* \"#utility.yul\":20848:20850   */\n      0x40\n        /* \"#utility.yul\":20837:20846   */\n      dup3\n        /* \"#utility.yul\":20833:20851   */\n      add\n        /* \"#utility.yul\":20825:20851   */\n      swap1\n      pop\n        /* \"#utility.yul\":20897:20906   */\n      dup2\n        /* \"#utility.yul\":20891:20895   */\n      dup2\n        /* \"#utility.yul\":20887:20907   */\n      sub\n        /* \"#utility.yul\":20883:20884   */\n      0x00\n        /* \"#utility.yul\":20872:20881   */\n      dup4\n        /* \"#utility.yul\":20868:20885   */\n      add\n        /* \"#utility.yul\":20861:20908   */\n      mstore\n        /* \"#utility.yul\":20925:21033   */\n      tag_528\n        /* \"#utility.yul\":21028:21032   */\n      dup2\n        /* \"#utility.yul\":21019:21025   */\n      dup6\n        /* \"#utility.yul\":20925:21033   */\n      tag_295\n      jump\t// in\n    tag_528:\n        /* \"#utility.yul\":20917:21033   */\n      swap1\n      pop\n        /* \"#utility.yul\":21080:21089   */\n      dup2\n        /* \"#utility.yul\":21074:21078   */\n      dup2\n        /* \"#utility.yul\":21070:21090   */\n      sub\n        /* \"#utility.yul\":21065:21067   */\n      0x20\n        /* \"#utility.yul\":21054:21063   */\n      dup4\n        /* \"#utility.yul\":21050:21068   */\n      add\n        /* \"#utility.yul\":21043:21091   */\n      mstore\n        /* \"#utility.yul\":21108:21216   */\n      tag_529\n        /* \"#utility.yul\":21211:21215   */\n      dup2\n        /* \"#utility.yul\":21202:21208   */\n      dup5\n        /* \"#utility.yul\":21108:21216   */\n      tag_295\n      jump\t// in\n    tag_529:\n        /* \"#utility.yul\":21100:21216   */\n      swap1\n      pop\n        /* \"#utility.yul\":20589:21223   */\n      swap4\n      swap3\n      pop\n      pop\n      pop\n      jump\t// out\n        /* \"#utility.yul\":21229:21327   */\n    tag_301:\n        /* \"#utility.yul\":21280:21286   */\n      0x00\n        /* \"#utility.yul\":21314:21319   */\n      dup2\n        /* \"#utility.yul\":21308:21320   */\n      mload\n        /* \"#utility.yul\":21298:21320   */\n      swap1\n      pop\n        /* \"#utility.yul\":21229:21327   */\n      swap2\n      swap1\n      pop\n      jump\t// out\n        /* \"#utility.yul\":21333:21501   */\n    tag_302:\n        /* \"#utility.yul\":21416:21427   */\n      0x00\n        /* \"#utility.yul\":21450:21456   */\n      dup3\n        /* \"#utility.yul\":21445:21448   */\n      dup3\n        /* \"#utility.yul\":21438:21457   */\n      mstore\n        /* \"#utility.yul\":21490:21494   */\n      0x20\n        /* \"#utility.yul\":21485:21488   */\n      dup3\n        /* \"#utility.yul\":21481:21495   */\n      add\n        /* \"#utility.yul\":21466:21495   */\n      swap1\n      pop\n        /* \"#utility.yul\":21333:21501   */\n      swap3\n      swap2\n      pop\n      pop\n      jump\t// out\n        /* \"#utility.yul\":21507:21880   */\n    tag_303:\n        /* \"#utility.yul\":21593:21596   */\n      0x00\n        /* \"#utility.yul\":21621:21659   */\n      tag_533\n        /* \"#utility.yul\":21653:21658   */\n      dup3\n        /* \"#utility.yul\":21621:21659   */\n      tag_301\n      jump\t// in\n    tag_533:\n        /* \"#utility.yul\":21675:21745   */\n      tag_534\n        /* \"#utility.yul\":21738:21744   */\n      dup2\n        /* \"#utility.yul\":21733:21736   */\n      dup6\n        /* \"#utility.yul\":21675:21745   */\n      tag_302\n      jump\t// in\n    tag_534:\n        /* \"#utility.yul\":21668:21745   */\n      swap4\n      pop\n        /* \"#utility.yul\":21754:21819   */\n      tag_535\n        /* \"#utility.yul\":21812:21818   */\n      dup2\n        /* \"#utility.yul\":21807:21810   */\n      dup6\n        /* \"#utility.yul\":21800:21804   */\n      0x20\n        /* \"#utility.yul\":21793:21798   */\n      dup7\n        /* \"#utility.yul\":21789:21805   */\n      add\n        /* \"#utility.yul\":21754:21819   */\n      tag_271\n      jump\t// in\n    tag_535:\n        /* \"#utility.yul\":21844:21873   */\n      tag_536\n        /* \"#utility.yul\":21866:21872   */\n      dup2\n        /* \"#utility.yul\":21844:21873   */\n      tag_272\n      jump\t// in\n    tag_536:\n        /* \"#utility.yul\":21839:21842   */\n      dup5\n        /* \"#utility.yul\":21835:21874   */\n      add\n        /* \"#utility.yul\":21828:21874   */\n      swap2\n      pop\n        /* \"#utility.yul\":21597:21880   */\n      pop\n        /* \"#utility.yul\":21507:21880   */\n      swap3\n      swap2\n      pop\n      pop\n      jump\t// out\n        /* \"#utility.yul\":21886:22637   */\n    tag_219:\n        /* \"#utility.yul\":22109:22113   */\n      0x00\n        /* \"#utility.yul\":22147:22150   */\n      0xa0\n        /* \"#utility.yul\":22136:22145   */\n      dup3\n        /* \"#utility.yul\":22132:22151   */\n      add\n        /* \"#utility.yul\":22124:22151   */\n      swap1\n      pop\n        /* \"#utility.yul\":22161:22232   */\n      tag_538\n        /* \"#utility.yul\":22229:22230   */\n      0x00\n        /* \"#utility.yul\":22218:22227   */\n      dup4\n        /* \"#utility.yul\":22214:22231   */\n      add\n        /* \"#utility.yul\":22205:22211   */\n      dup9\n        /* \"#utility.yul\":22161:22232   */\n      tag_296\n      jump\t// in\n    tag_538:\n        /* \"#utility.yul\":22242:22314   */\n      tag_539\n        /* \"#utility.yul\":22310:22312   */\n      0x20\n        /* \"#utility.yul\":22299:22308   */\n      dup4\n        /* \"#utility.yul\":22295:22313   */\n      add\n        /* \"#utility.yul\":22286:22292   */\n      dup8\n        /* \"#utility.yul\":22242:22314   */\n      tag_296\n      jump\t// in\n    tag_539:\n        /* \"#utility.yul\":22324:22396   */\n      tag_540\n        /* \"#utility.yul\":22392:22394   */\n      0x40\n        /* \"#utility.yul\":22381:22390   */\n      dup4\n        /* \"#utility.yul\":22377:22395   */\n      add\n        /* \"#utility.yul\":22368:22374   */\n      dup7\n        /* \"#utility.yul\":22324:22396   */\n      tag_263\n      jump\t// in\n    tag_540:\n        /* \"#utility.yul\":22406:22478   */\n      tag_541\n        /* \"#utility.yul\":22474:22476   */\n      0x60\n        /* \"#utility.yul\":22463:22472   */\n      dup4\n        /* \"#utility.yul\":22459:22477   */\n      add\n        /* \"#utility.yul\":22450:22456   */\n      dup6\n        /* \"#utility.yul\":22406:22478   */\n      tag_263\n      jump\t// in\n    tag_541:\n        /* \"#utility.yul\":22526:22535   */\n      dup2\n        /* \"#utility.yul\":22520:22524   */\n      dup2\n        /* \"#utility.yul\":22516:22536   */\n      sub\n        /* \"#utility.yul\":22510:22513   */\n      0x80\n        /* \"#utility.yul\":22499:22508   */\n      dup4\n        /* \"#utility.yul\":22495:22514   */\n      add\n        /* \"#utility.yul\":22488:22537   */\n      mstore\n        /* \"#utility.yul\":22554:22630   */\n      tag_542\n        /* \"#utility.yul\":22625:22629   */\n      dup2\n        /* \"#utility.yul\":22616:22622   */\n      dup5\n        /* \"#utility.yul\":22554:22630   */\n      tag_303\n      jump\t// in\n    tag_542:\n        /* \"#utility.yul\":22546:22630   */\n      swap1\n      pop\n        /* \"#utility.yul\":21886:22637   */\n      swap7\n      swap6\n      pop\n      pop\n      pop\n      pop\n      pop\n      pop\n      jump\t// out\n        /* \"#utility.yul\":22643:22784   */\n    tag_304:\n        /* \"#utility.yul\":22699:22704   */\n      0x00\n        /* \"#utility.yul\":22730:22736   */\n      dup2\n        /* \"#utility.yul\":22724:22737   */\n      mload\n        /* \"#utility.yul\":22715:22737   */\n      swap1\n      pop\n        /* \"#utility.yul\":22746:22778   */\n      tag_544\n        /* \"#utility.yul\":22772:22777   */\n      dup2\n        /* \"#utility.yul\":22746:22778   */\n      tag_265\n      jump\t// in\n    tag_544:\n        /* \"#utility.yul\":22643:22784   */\n      swap3\n      swap2\n      pop\n      pop\n      jump\t// out\n        /* \"#utility.yul\":22790:23139   */\n    tag_222:\n        /* \"#utility.yul\":22859:22865   */\n      0x00\n        /* \"#utility.yul\":22908:22910   */\n      0x20\n        /* \"#utility.yul\":22896:22905   */\n      dup3\n        /* \"#utility.yul\":22887:22894   */\n      dup5\n        /* \"#utility.yul\":22883:22906   */\n      sub\n        /* \"#utility.yul\":22879:22911   */\n      slt\n        /* \"#utility.yul\":22876:22995   */\n      iszero\n      tag_546\n      jumpi\n        /* \"#utility.yul\":22914:22993   */\n      tag_547\n      tag_254\n      jump\t// in\n    tag_547:\n        /* \"#utility.yul\":22876:22995   */\n    tag_546:\n        /* \"#utility.yul\":23034:23035   */\n      0x00\n        /* \"#utility.yul\":23059:23122   */\n      tag_548\n        /* \"#utility.yul\":23114:23121   */\n      dup5\n        /* \"#utility.yul\":23105:23111   */\n      dup3\n        /* \"#utility.yul\":23094:23103   */\n      dup6\n        /* \"#utility.yul\":23090:23112   */\n      add\n        /* \"#utility.yul\":23059:23122   */\n      tag_304\n      jump\t// in\n    tag_548:\n        /* \"#utility.yul\":23049:23122   */\n      swap2\n      pop\n        /* \"#utility.yul\":23005:23132   */\n      pop\n        /* \"#utility.yul\":22790:23139   */\n      swap3\n      swap2\n      pop\n      pop\n      jump\t// out\n        /* \"#utility.yul\":23145:24198   */\n    tag_238:\n        /* \"#utility.yul\":23468:23472   */\n      0x00\n        /* \"#utility.yul\":23506:23509   */\n      0xa0\n        /* \"#utility.yul\":23495:23504   */\n      dup3\n        /* \"#utility.yul\":23491:23510   */\n      add\n        /* \"#utility.yul\":23483:23510   */\n      swap1\n      pop\n        /* \"#utility.yul\":23520:23591   */\n      tag_550\n        /* \"#utility.yul\":23588:23589   */\n      0x00\n        /* \"#utility.yul\":23577:23586   */\n      dup4\n        /* \"#utility.yul\":23573:23590   */\n      add\n        /* \"#utility.yul\":23564:23570   */\n      dup9\n        /* \"#utility.yul\":23520:23591   */\n      tag_296\n      jump\t// in\n    tag_550:\n        /* \"#utility.yul\":23601:23673   */\n      tag_551\n        /* \"#utility.yul\":23669:23671   */\n      0x20\n        /* \"#utility.yul\":23658:23667   */\n      dup4\n        /* \"#utility.yul\":23654:23672   */\n      add\n        /* \"#utility.yul\":23645:23651   */\n      dup8\n        /* \"#utility.yul\":23601:23673   */\n      tag_296\n      jump\t// in\n    tag_551:\n        /* \"#utility.yul\":23720:23729   */\n      dup2\n        /* \"#utility.yul\":23714:23718   */\n      dup2\n        /* \"#utility.yul\":23710:23730   */\n      sub\n        /* \"#utility.yul\":23705:23707   */\n      0x40\n        /* \"#utility.yul\":23694:23703   */\n      dup4\n        /* \"#utility.yul\":23690:23708   */\n      add\n        /* \"#utility.yul\":23683:23731   */\n      mstore\n        /* \"#utility.yul\":23748:23856   */\n      tag_552\n        /* \"#utility.yul\":23851:23855   */\n      dup2\n        /* \"#utility.yul\":23842:23848   */\n      dup7\n        /* \"#utility.yul\":23748:23856   */\n      tag_295\n      jump\t// in\n    tag_552:\n        /* \"#utility.yul\":23740:23856   */\n      swap1\n      pop\n        /* \"#utility.yul\":23903:23912   */\n      dup2\n        /* \"#utility.yul\":23897:23901   */\n      dup2\n        /* \"#utility.yul\":23893:23913   */\n      sub\n        /* \"#utility.yul\":23888:23890   */\n      0x60\n        /* \"#utility.yul\":23877:23886   */\n      dup4\n        /* \"#utility.yul\":23873:23891   */\n      add\n        /* \"#utility.yul\":23866:23914   */\n      mstore\n        /* \"#utility.yul\":23931:24039   */\n      tag_553\n        /* \"#utility.yul\":24034:24038   */\n      dup2\n        /* \"#utility.yul\":24025:24031   */\n      dup6\n        /* \"#utility.yul\":23931:24039   */\n      tag_295\n      jump\t// in\n    tag_553:\n        /* \"#utility.yul\":23923:24039   */\n      swap1\n      pop\n        /* \"#utility.yul\":24087:24096   */\n      dup2\n        /* \"#utility.yul\":24081:24085   */\n      dup2\n        /* \"#utility.yul\":24077:24097   */\n      sub\n        /* \"#utility.yul\":24071:24074   */\n      0x80\n        /* \"#utility.yul\":24060:24069   */\n      dup4\n        /* \"#utility.yul\":24056:24075   */\n      add\n        /* \"#utility.yul\":24049:24098   */\n      mstore\n        /* \"#utility.yul\":24115:24191   */\n      tag_554\n        /* \"#utility.yul\":24186:24190   */\n      dup2\n        /* \"#utility.yul\":24177:24183   */\n      dup5\n        /* \"#utility.yul\":24115:24191   */\n      tag_303\n      jump\t// in\n    tag_554:\n        /* \"#utility.yul\":24107:24191   */\n      swap1\n      pop\n        /* \"#utility.yul\":23145:24198   */\n      swap7\n      swap6\n      pop\n      pop\n      pop\n      pop\n      pop\n      pop\n      jump\t// out\n\n    auxdata: 0xa2646970667358221220196ba38f7cc4b4525a926acf6ca645f00c5a5ddb99bf7bed9940d6f1314fa5e464736f6c634300081a0033\n}\n",
				"bytecode": {
					"linkReferences": {},
					"object": "608060405234801561000f575f80fd5b506040516127843803806127848339818101604052810190610031919061020b565b8060405180602001604052805f815250610050816100d760201b60201c565b505f73ffffffffffffffffffffffffffffffffffffffff168173ffffffffffffffffffffffffffffffffffffffff16036100c1575f6040517f1e4fbdf70000000000000000000000000000000000000000000000000000000081526004016100b89190610245565b60405180910390fd5b6100d0816100ea60201b60201c565b5050610567565b80600290816100e69190610498565b5050565b5f60035f9054906101000a900473ffffffffffffffffffffffffffffffffffffffff1690508160035f6101000a81548173ffffffffffffffffffffffffffffffffffffffff021916908373ffffffffffffffffffffffffffffffffffffffff1602179055508173ffffffffffffffffffffffffffffffffffffffff168173ffffffffffffffffffffffffffffffffffffffff167f8be0079c531659141344cd1fd0a4f28419497f9722a3daafe3b4186f6b6457e060405160405180910390a35050565b5f80fd5b5f73ffffffffffffffffffffffffffffffffffffffff82169050919050565b5f6101da826101b1565b9050919050565b6101ea816101d0565b81146101f4575f80fd5b50565b5f81519050610205816101e1565b92915050565b5f602082840312156102205761021f6101ad565b5b5f61022d848285016101f7565b91505092915050565b61023f816101d0565b82525050565b5f6020820190506102585f830184610236565b92915050565b5f81519050919050565b7f4e487b71000000000000000000000000000000000000000000000000000000005f52604160045260245ffd5b7f4e487b71000000000000000000000000000000000000000000000000000000005f52602260045260245ffd5b5f60028204905060018216806102d957607f821691505b6020821081036102ec576102eb610295565b5b50919050565b5f819050815f5260205f209050919050565b5f6020601f8301049050919050565b5f82821b905092915050565b5f6008830261034e7fffffffffffffffffffffffffffffffffffffffffffffffffffffffffffffffff82610313565b6103588683610313565b95508019841693508086168417925050509392505050565b5f819050919050565b5f819050919050565b5f61039c61039761039284610370565b610379565b610370565b9050919050565b5f819050919050565b6103b583610382565b6103c96103c1826103a3565b84845461031f565b825550505050565b5f90565b6103dd6103d1565b6103e88184846103ac565b505050565b5b8181101561040b576104005f826103d5565b6001810190506103ee565b5050565b601f82111561045057610421816102f2565b61042a84610304565b81016020851015610439578190505b61044d61044585610304565b8301826103ed565b50505b505050565b5f82821c905092915050565b5f6104705f1984600802610455565b1980831691505092915050565b5f6104888383610461565b9150826002028217905092915050565b6104a18261025e565b67ffffffffffffffff8111156104ba576104b9610268565b5b6104c482546102c2565b6104cf82828561040f565b5f60209050601f831160018114610500575f84156104ee578287015190505b6104f8858261047d565b86555061055f565b601f19841661050e866102f2565b5f5b8281101561053557848901518255600182019150602085019450602081019050610510565b86831015610552578489015161054e601f891682610461565b8355505b6001600288020188555050505b505050505050565b612210806105745f395ff3fe608060405234801561000f575f80fd5b50600436106100b1575f3560e01c8063731133e91161006f578063731133e91461019b5780638da5cb5b146101b7578063a22cb465146101d5578063e985e9c5146101f1578063f242432a14610221578063f2fde38b1461023d576100b1565b8062fdd58e146100b557806301ffc9a7146100e55780630e89341c146101155780632eb2c2d6146101455780634e1273f414610161578063715018a614610191575b5f80fd5b6100cf60048036038101906100ca9190611633565b610259565b6040516100dc9190611680565b60405180910390f35b6100ff60048036038101906100fa91906116ee565b6102ae565b60405161010c9190611733565b60405180910390f35b61012f600480360381019061012a919061174c565b61038f565b60405161013c91906117e7565b60405180910390f35b61015f600480360381019061015a91906119f7565b610421565b005b61017b60048036038101906101769190611b82565b6104c8565b6040516101889190611caf565b60405180910390f35b6101996105cf565b005b6101b560048036038101906101b09190611ccf565b6105e2565b005b6101bf6105fc565b6040516101cc9190611d5e565b60405180910390f35b6101ef60048036038101906101ea9190611da1565b610624565b005b61020b60048036038101906102069190611ddf565b61063a565b6040516102189190611733565b60405180910390f35b61023b60048036038101906102369190611e1d565b6106c8565b005b61025760048036038101906102529190611eb0565b61076f565b005b5f805f8381526020019081526020015f205f8473ffffffffffffffffffffffffffffffffffffffff1673ffffffffffffffffffffffffffffffffffffffff1681526020019081526020015f2054905092915050565b5f7fd9b67a26000000000000000000000000000000000000000000000000000000007bffffffffffffffffffffffffffffffffffffffffffffffffffffffff1916827bffffffffffffffffffffffffffffffffffffffffffffffffffffffff1916148061037857507f0e89341c000000000000000000000000000000000000000000000000000000007bffffffffffffffffffffffffffffffffffffffffffffffffffffffff1916827bffffffffffffffffffffffffffffffffffffffffffffffffffffffff1916145b806103885750610387826107f3565b5b9050919050565b60606002805461039e90611f08565b80601f01602080910402602001604051908101604052809291908181526020018280546103ca90611f08565b80156104155780601f106103ec57610100808354040283529160200191610415565b820191905f5260205f20905b8154815290600101906020018083116103f857829003601f168201915b50505050509050919050565b5f61042a61085c565b90508073ffffffffffffffffffffffffffffffffffffffff168673ffffffffffffffffffffffffffffffffffffffff161415801561046f575061046d868261063a565b155b156104b35780866040517fe237d9220000000000000000000000000000000000000000000000000000000081526004016104aa929190611f38565b60405180910390fd5b6104c08686868686610863565b505050505050565b6060815183511461051457815183516040517f5b05999100000000000000000000000000000000000000000000000000000000815260040161050b929190611f5f565b60405180910390fd5b5f835167ffffffffffffffff8111156105305761052f61180b565b5b60405190808252806020026020018201604052801561055e5781602001602082028036833780820191505090505b5090505f5b84518110156105c45761059a610582828761095790919063ffffffff16565b610595838761096a90919063ffffffff16565b610259565b8282815181106105ad576105ac611f86565b5b602002602001018181525050806001019050610563565b508091505092915050565b6105d761097d565b6105e05f610a04565b565b6105ea61097d565b6105f684848484610ac7565b50505050565b5f60035f9054906101000a900473ffffffffffffffffffffffffffffffffffffffff16905090565b61063661062f61085c565b8383610b5c565b5050565b5f60015f8473ffffffffffffffffffffffffffffffffffffffff1673ffffffffffffffffffffffffffffffffffffffff1681526020019081526020015f205f8373ffffffffffffffffffffffffffffffffffffffff1673ffffffffffffffffffffffffffffffffffffffff1681526020019081526020015f205f9054906101000a900460ff16905092915050565b5f6106d161085c565b90508073ffffffffffffffffffffffffffffffffffffffff168673ffffffffffffffffffffffffffffffffffffffff16141580156107165750610714868261063a565b155b1561075a5780866040517fe237d922000000000000000000000000000000000000000000000000000000008152600401610751929190611f38565b60405180910390fd5b6107678686868686610cc5565b505050505050565b61077761097d565b5f73ffffffffffffffffffffffffffffffffffffffff168173ffffffffffffffffffffffffffffffffffffffff16036107e7575f6040517f1e4fbdf70000000000000000000000000000000000000000000000000000000081526004016107de9190611d5e565b60405180910390fd5b6107f081610a04565b50565b5f7f01ffc9a7000000000000000000000000000000000000000000000000000000007bffffffffffffffffffffffffffffffffffffffffffffffffffffffff1916827bffffffffffffffffffffffffffffffffffffffffffffffffffffffff1916149050919050565b5f33905090565b5f73ffffffffffffffffffffffffffffffffffffffff168473ffffffffffffffffffffffffffffffffffffffff16036108d3575f6040517f57f447ce0000000000000000000000000000000000000000000000000000000081526004016108ca9190611d5e565b60405180910390fd5b5f73ffffffffffffffffffffffffffffffffffffffff168573ffffffffffffffffffffffffffffffffffffffff1603610943575f6040517f01a8351400000000000000000000000000000000000000000000000000000000815260040161093a9190611d5e565b60405180910390fd5b6109508585858585610dcb565b5050505050565b5f60208202602084010151905092915050565b5f60208202602084010151905092915050565b61098561085c565b73ffffffffffffffffffffffffffffffffffffffff166109a36105fc565b73ffffffffffffffffffffffffffffffffffffffff1614610a02576109c661085c565b6040517f118cdaa70000000000000000000000000000000000000000000000000000000081526004016109f99190611d5e565b60405180910390fd5b565b5f60035f9054906101000a900473ffffffffffffffffffffffffffffffffffffffff1690508160035f6101000a81548173ffffffffffffffffffffffffffffffffffffffff021916908373ffffffffffffffffffffffffffffffffffffffff1602179055508173ffffffffffffffffffffffffffffffffffffffff168173ffffffffffffffffffffffffffffffffffffffff167f8be0079c531659141344cd1fd0a4f28419497f9722a3daafe3b4186f6b6457e060405160405180910390a35050565b5f73ffffffffffffffffffffffffffffffffffffffff168473ffffffffffffffffffffffffffffffffffffffff1603610b37575f6040517f57f447ce000000000000000000000000000000000000000000000000000000008152600401610b2e9190611d5e565b60405180910390fd5b5f80610b438585610e77565b91509150610b545f87848487610dcb565b505050505050565b5f73ffffffffffffffffffffffffffffffffffffffff168273ffffffffffffffffffffffffffffffffffffffff1603610bcc575f6040517fced3e100000000000000000000000000000000000000000000000000000000008152600401610bc39190611d5e565b60405180910390fd5b8060015f8573ffffffffffffffffffffffffffffffffffffffff1673ffffffffffffffffffffffffffffffffffffffff1681526020019081526020015f205f8473ffffffffffffffffffffffffffffffffffffffff1673ffffffffffffffffffffffffffffffffffffffff1681526020019081526020015f205f6101000a81548160ff0219169083151502179055508173ffffffffffffffffffffffffffffffffffffffff168373ffffffffffffffffffffffffffffffffffffffff167f17307eab39ab6107e8899845ad3d59bd9653f200f220920489ca2b5937696c3183604051610cb89190611733565b60405180910390a3505050565b5f73ffffffffffffffffffffffffffffffffffffffff168473ffffffffffffffffffffffffffffffffffffffff1603610d35575f6040517f57f447ce000000000000000000000000000000000000000000000000000000008152600401610d2c9190611d5e565b60405180910390fd5b5f73ffffffffffffffffffffffffffffffffffffffff168573ffffffffffffffffffffffffffffffffffffffff1603610da5575f6040517f01a83514000000000000000000000000000000000000000000000000000000008152600401610d9c9190611d5e565b60405180910390fd5b5f80610db18585610e77565b91509150610dc28787848487610dcb565b50505050505050565b610dd785858585610ea7565b5f73ffffffffffffffffffffffffffffffffffffffff168473ffffffffffffffffffffffffffffffffffffffff1614610e70575f610e1361085c565b90506001845103610e5f575f610e325f8661096a90919063ffffffff16565b90505f610e485f8661096a90919063ffffffff16565b9050610e58838989858589611237565b5050610e6e565b610e6d8187878787876113e6565b5b505b5050505050565b60608060405191506001825283602083015260408201905060018152826020820152604081016040529250929050565b8051825114610ef157815181516040517f5b059991000000000000000000000000000000000000000000000000000000008152600401610ee8929190611f5f565b60405180910390fd5b5f610efa61085c565b90505f5b83518110156110f6575f610f1b828661096a90919063ffffffff16565b90505f610f31838661096a90919063ffffffff16565b90505f73ffffffffffffffffffffffffffffffffffffffff168873ffffffffffffffffffffffffffffffffffffffff1614611054575f805f8481526020019081526020015f205f8a73ffffffffffffffffffffffffffffffffffffffff1673ffffffffffffffffffffffffffffffffffffffff1681526020019081526020015f205490508181101561100057888183856040517f03dee4c5000000000000000000000000000000000000000000000000000000008152600401610ff79493929190611fb3565b60405180910390fd5b8181035f808581526020019081526020015f205f8b73ffffffffffffffffffffffffffffffffffffffff1673ffffffffffffffffffffffffffffffffffffffff1681526020019081526020015f2081905550505b5f73ffffffffffffffffffffffffffffffffffffffff168773ffffffffffffffffffffffffffffffffffffffff16146110e957805f808481526020019081526020015f205f8973ffffffffffffffffffffffffffffffffffffffff1673ffffffffffffffffffffffffffffffffffffffff1681526020019081526020015f205f8282546110e19190612023565b925050819055505b5050806001019050610efe565b5060018351036111b1575f6111145f8561096a90919063ffffffff16565b90505f61112a5f8561096a90919063ffffffff16565b90508573ffffffffffffffffffffffffffffffffffffffff168773ffffffffffffffffffffffffffffffffffffffff168473ffffffffffffffffffffffffffffffffffffffff167fc3d58168c5ae7397731d063d5bbf3d657854427343f4c083240f7aacaa2d0f6285856040516111a2929190611f5f565b60405180910390a45050611230565b8373ffffffffffffffffffffffffffffffffffffffff168573ffffffffffffffffffffffffffffffffffffffff168273ffffffffffffffffffffffffffffffffffffffff167f4a39dc06d4c0dbc64b70af90fd698a233a518aa5d07e595d983b8c0526c8f7fb8686604051611227929190612056565b60405180910390a45b5050505050565b5f8473ffffffffffffffffffffffffffffffffffffffff163b11156113de578373ffffffffffffffffffffffffffffffffffffffff1663f23a6e6187878686866040518663ffffffff1660e01b81526004016112979594939291906120dd565b6020604051808303815f875af19250505080156112d257506040513d601f19601f820116820180604052508101906112cf9190612149565b60015b611353573d805f8114611300576040519150601f19603f3d011682016040523d82523d5f602084013e611305565b606091505b505f81510361134b57846040517f57f447ce0000000000000000000000000000000000000000000000000000000081526004016113429190611d5e565b60405180910390fd5b805181602001fd5b63f23a6e6160e01b7bffffffffffffffffffffffffffffffffffffffffffffffffffffffff1916817bffffffffffffffffffffffffffffffffffffffffffffffffffffffff1916146113dc57846040517f57f447ce0000000000000000000000000000000000000000000000000000000081526004016113d39190611d5e565b60405180910390fd5b505b505050505050565b5f8473ffffffffffffffffffffffffffffffffffffffff163b111561158d578373ffffffffffffffffffffffffffffffffffffffff1663bc197c8187878686866040518663ffffffff1660e01b8152600401611446959493929190612174565b6020604051808303815f875af192505050801561148157506040513d601f19601f8201168201806040525081019061147e9190612149565b60015b611502573d805f81146114af576040519150601f19603f3d011682016040523d82523d5f602084013e6114b4565b606091505b505f8151036114fa57846040517f57f447ce0000000000000000000000000000000000000000000000000000000081526004016114f19190611d5e565b60405180910390fd5b805181602001fd5b63bc197c8160e01b7bffffffffffffffffffffffffffffffffffffffffffffffffffffffff1916817bffffffffffffffffffffffffffffffffffffffffffffffffffffffff19161461158b57846040517f57f447ce0000000000000000000000000000000000000000000000000000000081526004016115829190611d5e565b60405180910390fd5b505b505050505050565b5f604051905090565b5f80fd5b5f80fd5b5f73ffffffffffffffffffffffffffffffffffffffff82169050919050565b5f6115cf826115a6565b9050919050565b6115df816115c5565b81146115e9575f80fd5b50565b5f813590506115fa816115d6565b92915050565b5f819050919050565b61161281611600565b811461161c575f80fd5b50565b5f8135905061162d81611609565b92915050565b5f80604083850312156116495761164861159e565b5b5f611656858286016115ec565b92505060206116678582860161161f565b9150509250929050565b61167a81611600565b82525050565b5f6020820190506116935f830184611671565b92915050565b5f7fffffffff0000000000000000000000000000000000000000000000000000000082169050919050565b6116cd81611699565b81146116d7575f80fd5b50565b5f813590506116e8816116c4565b92915050565b5f602082840312156117035761170261159e565b5b5f611710848285016116da565b91505092915050565b5f8115159050919050565b61172d81611719565b82525050565b5f6020820190506117465f830184611724565b92915050565b5f602082840312156117615761176061159e565b5b5f61176e8482850161161f565b91505092915050565b5f81519050919050565b5f82825260208201905092915050565b8281835e5f83830152505050565b5f601f19601f8301169050919050565b5f6117b982611777565b6117c38185611781565b93506117d3818560208601611791565b6117dc8161179f565b840191505092915050565b5f6020820190508181035f8301526117ff81846117af565b905092915050565b5f80fd5b7f4e487b71000000000000000000000000000000000000000000000000000000005f52604160045260245ffd5b6118418261179f565b810181811067ffffffffffffffff821117156118605761185f61180b565b5b80604052505050565b5f611872611595565b905061187e8282611838565b919050565b5f67ffffffffffffffff82111561189d5761189c61180b565b5b602082029050602081019050919050565b5f80fd5b5f6118c46118bf84611883565b611869565b905080838252602082019050602084028301858111156118e7576118e66118ae565b5b835b8181101561191057806118fc888261161f565b8452602084019350506020810190506118e9565b5050509392505050565b5f82601f83011261192e5761192d611807565b5b813561193e8482602086016118b2565b91505092915050565b5f80fd5b5f67ffffffffffffffff8211156119655761196461180b565b5b61196e8261179f565b9050602081019050919050565b828183375f83830152505050565b5f61199b6119968461194b565b611869565b9050828152602081018484840111156119b7576119b6611947565b5b6119c284828561197b565b509392505050565b5f82601f8301126119de576119dd611807565b5b81356119ee848260208601611989565b91505092915050565b5f805f805f60a08688031215611a1057611a0f61159e565b5b5f611a1d888289016115ec565b9550506020611a2e888289016115ec565b945050604086013567ffffffffffffffff811115611a4f57611a4e6115a2565b5b611a5b8882890161191a565b935050606086013567ffffffffffffffff811115611a7c57611a7b6115a2565b5b611a888882890161191a565b925050608086013567ffffffffffffffff811115611aa957611aa86115a2565b5b611ab5888289016119ca565b9150509295509295909350565b5f67ffffffffffffffff821115611adc57611adb61180b565b5b602082029050602081019050919050565b5f611aff611afa84611ac2565b611869565b90508083825260208201905060208402830185811115611b2257611b216118ae565b5b835b81811015611b4b5780611b3788826115ec565b845260208401935050602081019050611b24565b5050509392505050565b5f82601f830112611b6957611b68611807565b5b8135611b79848260208601611aed565b91505092915050565b5f8060408385031215611b9857611b9761159e565b5b5f83013567ffffffffffffffff811115611bb557611bb46115a2565b5b611bc185828601611b55565b925050602083013567ffffffffffffffff811115611be257611be16115a2565b5b611bee8582860161191a565b9150509250929050565b5f81519050919050565b5f82825260208201905092915050565b5f819050602082019050919050565b611c2a81611600565b82525050565b5f611c3b8383611c21565b60208301905092915050565b5f602082019050919050565b5f611c5d82611bf8565b611c678185611c02565b9350611c7283611c12565b805f5b83811015611ca2578151611c898882611c30565b9750611c9483611c47565b925050600181019050611c75565b5085935050505092915050565b5f6020820190508181035f830152611cc78184611c53565b905092915050565b5f805f8060808587031215611ce757611ce661159e565b5b5f611cf4878288016115ec565b9450506020611d058782880161161f565b9350506040611d168782880161161f565b925050606085013567ffffffffffffffff811115611d3757611d366115a2565b5b611d43878288016119ca565b91505092959194509250565b611d58816115c5565b82525050565b5f602082019050611d715f830184611d4f565b92915050565b611d8081611719565b8114611d8a575f80fd5b50565b5f81359050611d9b81611d77565b92915050565b5f8060408385031215611db757611db661159e565b5b5f611dc4858286016115ec565b9250506020611dd585828601611d8d565b9150509250929050565b5f8060408385031215611df557611df461159e565b5b5f611e02858286016115ec565b9250506020611e13858286016115ec565b9150509250929050565b5f805f805f60a08688031215611e3657611e3561159e565b5b5f611e43888289016115ec565b9550506020611e54888289016115ec565b9450506040611e658882890161161f565b9350506060611e768882890161161f565b925050608086013567ffffffffffffffff811115611e9757611e966115a2565b5b611ea3888289016119ca565b9150509295509295909350565b5f60208284031215611ec557611ec461159e565b5b5f611ed2848285016115ec565b91505092915050565b7f4e487b71000000000000000000000000000000000000000000000000000000005f52602260045260245ffd5b5f6002820490506001821680611f1f57607f821691505b602082108103611f3257611f31611edb565b5b50919050565b5f604082019050611f4b5f830185611d4f565b611f586020830184611d4f565b9392505050565b5f604082019050611f725f830185611671565b611f7f6020830184611671565b9392505050565b7f4e487b71000000000000000000000000000000000000000000000000000000005f52603260045260245ffd5b5f608082019050611fc65f830187611d4f565b611fd36020830186611671565b611fe06040830185611671565b611fed6060830184611671565b95945050505050565b7f4e487b71000000000000000000000000000000000000000000000000000000005f52601160045260245ffd5b5f61202d82611600565b915061203883611600565b92508282019050808211156120505761204f611ff6565b5b92915050565b5f6040820190508181035f83015261206e8185611c53565b905081810360208301526120828184611c53565b90509392505050565b5f81519050919050565b5f82825260208201905092915050565b5f6120af8261208b565b6120b98185612095565b93506120c9818560208601611791565b6120d28161179f565b840191505092915050565b5f60a0820190506120f05f830188611d4f565b6120fd6020830187611d4f565b61210a6040830186611671565b6121176060830185611671565b818103608083015261212981846120a5565b90509695505050505050565b5f81519050612143816116c4565b92915050565b5f6020828403121561215e5761215d61159e565b5b5f61216b84828501612135565b91505092915050565b5f60a0820190506121875f830188611d4f565b6121946020830187611d4f565b81810360408301526121a68186611c53565b905081810360608301526121ba8185611c53565b905081810360808301526121ce81846120a5565b9050969550505050505056fea2646970667358221220196ba38f7cc4b4525a926acf6ca645f00c5a5ddb99bf7bed9940d6f1314fa5e464736f6c634300081a0033",
					"opcodes": "PUSH1 0x80 PUSH1 0x40 MSTORE CALLVALUE DUP1 ISZERO PUSH2 0xF JUMPI PUSH0 DUP1 REVERT JUMPDEST POP PUSH1 0x40 MLOAD PUSH2 0x2784 CODESIZE SUB DUP1 PUSH2 0x2784 DUP4 CODECOPY DUP2 DUP2 ADD PUSH1 0x40 MSTORE DUP2 ADD SWAP1 PUSH2 0x31 SWAP2 SWAP1 PUSH2 0x20B JUMP JUMPDEST DUP1 PUSH1 0x40 MLOAD DUP1 PUSH1 0x20 ADD PUSH1 0x40 MSTORE DUP1 PUSH0 DUP2 MSTORE POP PUSH2 0x50 DUP2 PUSH2 0xD7 PUSH1 0x20 SHL PUSH1 0x20 SHR JUMP JUMPDEST POP PUSH0 PUSH20 0xFFFFFFFFFFFFFFFFFFFFFFFFFFFFFFFFFFFFFFFF AND DUP2 PUSH20 0xFFFFFFFFFFFFFFFFFFFFFFFFFFFFFFFFFFFFFFFF AND SUB PUSH2 0xC1 JUMPI PUSH0 PUSH1 0x40 MLOAD PUSH32 0x1E4FBDF700000000000000000000000000000000000000000000000000000000 DUP2 MSTORE PUSH1 0x4 ADD PUSH2 0xB8 SWAP2 SWAP1 PUSH2 0x245 JUMP JUMPDEST PUSH1 0x40 MLOAD DUP1 SWAP2 SUB SWAP1 REVERT JUMPDEST PUSH2 0xD0 DUP2 PUSH2 0xEA PUSH1 0x20 SHL PUSH1 0x20 SHR JUMP JUMPDEST POP POP PUSH2 0x567 JUMP JUMPDEST DUP1 PUSH1 0x2 SWAP1 DUP2 PUSH2 0xE6 SWAP2 SWAP1 PUSH2 0x498 JUMP JUMPDEST POP POP JUMP JUMPDEST PUSH0 PUSH1 0x3 PUSH0 SWAP1 SLOAD SWAP1 PUSH2 0x100 EXP SWAP1 DIV PUSH20 0xFFFFFFFFFFFFFFFFFFFFFFFFFFFFFFFFFFFFFFFF AND SWAP1 POP DUP2 PUSH1 0x3 PUSH0 PUSH2 0x100 EXP DUP2 SLOAD DUP2 PUSH20 0xFFFFFFFFFFFFFFFFFFFFFFFFFFFFFFFFFFFFFFFF MUL NOT AND SWAP1 DUP4 PUSH20 0xFFFFFFFFFFFFFFFFFFFFFFFFFFFFFFFFFFFFFFFF AND MUL OR SWAP1 SSTORE POP DUP2 PUSH20 0xFFFFFFFFFFFFFFFFFFFFFFFFFFFFFFFFFFFFFFFF AND DUP2 PUSH20 0xFFFFFFFFFFFFFFFFFFFFFFFFFFFFFFFFFFFFFFFF AND PUSH32 0x8BE0079C531659141344CD1FD0A4F28419497F9722A3DAAFE3B4186F6B6457E0 PUSH1 0x40 MLOAD PUSH1 0x40 MLOAD DUP1 SWAP2 SUB SWAP1 LOG3 POP POP JUMP JUMPDEST PUSH0 DUP1 REVERT JUMPDEST PUSH0 PUSH20 0xFFFFFFFFFFFFFFFFFFFFFFFFFFFFFFFFFFFFFFFF DUP3 AND SWAP1 POP SWAP2 SWAP1 POP JUMP JUMPDEST PUSH0 PUSH2 0x1DA DUP3 PUSH2 0x1B1 JUMP JUMPDEST SWAP1 POP SWAP2 SWAP1 POP JUMP JUMPDEST PUSH2 0x1EA DUP2 PUSH2 0x1D0 JUMP JUMPDEST DUP2 EQ PUSH2 0x1F4 JUMPI PUSH0 DUP1 REVERT JUMPDEST POP JUMP JUMPDEST PUSH0 DUP2 MLOAD SWAP1 POP PUSH2 0x205 DUP2 PUSH2 0x1E1 JUMP JUMPDEST SWAP3 SWAP2 POP POP JUMP JUMPDEST PUSH0 PUSH1 0x20 DUP3 DUP5 SUB SLT ISZERO PUSH2 0x220 JUMPI PUSH2 0x21F PUSH2 0x1AD JUMP JUMPDEST JUMPDEST PUSH0 PUSH2 0x22D DUP5 DUP3 DUP6 ADD PUSH2 0x1F7 JUMP JUMPDEST SWAP2 POP POP SWAP3 SWAP2 POP POP JUMP JUMPDEST PUSH2 0x23F DUP2 PUSH2 0x1D0 JUMP JUMPDEST DUP3 MSTORE POP POP JUMP JUMPDEST PUSH0 PUSH1 0x20 DUP3 ADD SWAP1 POP PUSH2 0x258 PUSH0 DUP4 ADD DUP5 PUSH2 0x236 JUMP JUMPDEST SWAP3 SWAP2 POP POP JUMP JUMPDEST PUSH0 DUP2 MLOAD SWAP1 POP SWAP2 SWAP1 POP JUMP JUMPDEST PUSH32 0x4E487B7100000000000000000000000000000000000000000000000000000000 PUSH0 MSTORE PUSH1 0x41 PUSH1 0x4 MSTORE PUSH1 0x24 PUSH0 REVERT JUMPDEST PUSH32 0x4E487B7100000000000000000000000000000000000000000000000000000000 PUSH0 MSTORE PUSH1 0x22 PUSH1 0x4 MSTORE PUSH1 0x24 PUSH0 REVERT JUMPDEST PUSH0 PUSH1 0x2 DUP3 DIV SWAP1 POP PUSH1 0x1 DUP3 AND DUP1 PUSH2 0x2D9 JUMPI PUSH1 0x7F DUP3 AND SWAP2 POP JUMPDEST PUSH1 0x20 DUP3 LT DUP2 SUB PUSH2 0x2EC JUMPI PUSH2 0x2EB PUSH2 0x295 JUMP JUMPDEST JUMPDEST POP SWAP2 SWAP1 POP JUMP JUMPDEST PUSH0 DUP2 SWAP1 POP DUP2 PUSH0 MSTORE PUSH1 0x20 PUSH0 KECCAK256 SWAP1 POP SWAP2 SWAP1 POP JUMP JUMPDEST PUSH0 PUSH1 0x20 PUSH1 0x1F DUP4 ADD DIV SWAP1 POP SWAP2 SWAP1 POP JUMP JUMPDEST PUSH0 DUP3 DUP3 SHL SWAP1 POP SWAP3 SWAP2 POP POP JUMP JUMPDEST PUSH0 PUSH1 0x8 DUP4 MUL PUSH2 0x34E PUSH32 0xFFFFFFFFFFFFFFFFFFFFFFFFFFFFFFFFFFFFFFFFFFFFFFFFFFFFFFFFFFFFFFFF DUP3 PUSH2 0x313 JUMP JUMPDEST PUSH2 0x358 DUP7 DUP4 PUSH2 0x313 JUMP JUMPDEST SWAP6 POP DUP1 NOT DUP5 AND SWAP4 POP DUP1 DUP7 AND DUP5 OR SWAP3 POP POP POP SWAP4 SWAP3 POP POP POP JUMP JUMPDEST PUSH0 DUP2 SWAP1 POP SWAP2 SWAP1 POP JUMP JUMPDEST PUSH0 DUP2 SWAP1 POP SWAP2 SWAP1 POP JUMP JUMPDEST PUSH0 PUSH2 0x39C PUSH2 0x397 PUSH2 0x392 DUP5 PUSH2 0x370 JUMP JUMPDEST PUSH2 0x379 JUMP JUMPDEST PUSH2 0x370 JUMP JUMPDEST SWAP1 POP SWAP2 SWAP1 POP JUMP JUMPDEST PUSH0 DUP2 SWAP1 POP SWAP2 SWAP1 POP JUMP JUMPDEST PUSH2 0x3B5 DUP4 PUSH2 0x382 JUMP JUMPDEST PUSH2 0x3C9 PUSH2 0x3C1 DUP3 PUSH2 0x3A3 JUMP JUMPDEST DUP5 DUP5 SLOAD PUSH2 0x31F JUMP JUMPDEST DUP3 SSTORE POP POP POP POP JUMP JUMPDEST PUSH0 SWAP1 JUMP JUMPDEST PUSH2 0x3DD PUSH2 0x3D1 JUMP JUMPDEST PUSH2 0x3E8 DUP2 DUP5 DUP5 PUSH2 0x3AC JUMP JUMPDEST POP POP POP JUMP JUMPDEST JUMPDEST DUP2 DUP2 LT ISZERO PUSH2 0x40B JUMPI PUSH2 0x400 PUSH0 DUP3 PUSH2 0x3D5 JUMP JUMPDEST PUSH1 0x1 DUP2 ADD SWAP1 POP PUSH2 0x3EE JUMP JUMPDEST POP POP JUMP JUMPDEST PUSH1 0x1F DUP3 GT ISZERO PUSH2 0x450 JUMPI PUSH2 0x421 DUP2 PUSH2 0x2F2 JUMP JUMPDEST PUSH2 0x42A DUP5 PUSH2 0x304 JUMP JUMPDEST DUP2 ADD PUSH1 0x20 DUP6 LT ISZERO PUSH2 0x439 JUMPI DUP2 SWAP1 POP JUMPDEST PUSH2 0x44D PUSH2 0x445 DUP6 PUSH2 0x304 JUMP JUMPDEST DUP4 ADD DUP3 PUSH2 0x3ED JUMP JUMPDEST POP POP JUMPDEST POP POP POP JUMP JUMPDEST PUSH0 DUP3 DUP3 SHR SWAP1 POP SWAP3 SWAP2 POP POP JUMP JUMPDEST PUSH0 PUSH2 0x470 PUSH0 NOT DUP5 PUSH1 0x8 MUL PUSH2 0x455 JUMP JUMPDEST NOT DUP1 DUP4 AND SWAP2 POP POP SWAP3 SWAP2 POP POP JUMP JUMPDEST PUSH0 PUSH2 0x488 DUP4 DUP4 PUSH2 0x461 JUMP JUMPDEST SWAP2 POP DUP3 PUSH1 0x2 MUL DUP3 OR SWAP1 POP SWAP3 SWAP2 POP POP JUMP JUMPDEST PUSH2 0x4A1 DUP3 PUSH2 0x25E JUMP JUMPDEST PUSH8 0xFFFFFFFFFFFFFFFF DUP2 GT ISZERO PUSH2 0x4BA JUMPI PUSH2 0x4B9 PUSH2 0x268 JUMP JUMPDEST JUMPDEST PUSH2 0x4C4 DUP3 SLOAD PUSH2 0x2C2 JUMP JUMPDEST PUSH2 0x4CF DUP3 DUP3 DUP6 PUSH2 0x40F JUMP JUMPDEST PUSH0 PUSH1 0x20 SWAP1 POP PUSH1 0x1F DUP4 GT PUSH1 0x1 DUP2 EQ PUSH2 0x500 JUMPI PUSH0 DUP5 ISZERO PUSH2 0x4EE JUMPI DUP3 DUP8 ADD MLOAD SWAP1 POP JUMPDEST PUSH2 0x4F8 DUP6 DUP3 PUSH2 0x47D JUMP JUMPDEST DUP7 SSTORE POP PUSH2 0x55F JUMP JUMPDEST PUSH1 0x1F NOT DUP5 AND PUSH2 0x50E DUP7 PUSH2 0x2F2 JUMP JUMPDEST PUSH0 JUMPDEST DUP3 DUP2 LT ISZERO PUSH2 0x535 JUMPI DUP5 DUP10 ADD MLOAD DUP3 SSTORE PUSH1 0x1 DUP3 ADD SWAP2 POP PUSH1 0x20 DUP6 ADD SWAP5 POP PUSH1 0x20 DUP2 ADD SWAP1 POP PUSH2 0x510 JUMP JUMPDEST DUP7 DUP4 LT ISZERO PUSH2 0x552 JUMPI DUP5 DUP10 ADD MLOAD PUSH2 0x54E PUSH1 0x1F DUP10 AND DUP3 PUSH2 0x461 JUMP JUMPDEST DUP4 SSTORE POP JUMPDEST PUSH1 0x1 PUSH1 0x2 DUP9 MUL ADD DUP9 SSTORE POP POP POP JUMPDEST POP POP POP POP POP POP JUMP JUMPDEST PUSH2 0x2210 DUP1 PUSH2 0x574 PUSH0 CODECOPY PUSH0 RETURN INVALID PUSH1 0x80 PUSH1 0x40 MSTORE CALLVALUE DUP1 ISZERO PUSH2 0xF JUMPI PUSH0 DUP1 REVERT JUMPDEST POP PUSH1 0x4 CALLDATASIZE LT PUSH2 0xB1 JUMPI PUSH0 CALLDATALOAD PUSH1 0xE0 SHR DUP1 PUSH4 0x731133E9 GT PUSH2 0x6F JUMPI DUP1 PUSH4 0x731133E9 EQ PUSH2 0x19B JUMPI DUP1 PUSH4 0x8DA5CB5B EQ PUSH2 0x1B7 JUMPI DUP1 PUSH4 0xA22CB465 EQ PUSH2 0x1D5 JUMPI DUP1 PUSH4 0xE985E9C5 EQ PUSH2 0x1F1 JUMPI DUP1 PUSH4 0xF242432A EQ PUSH2 0x221 JUMPI DUP1 PUSH4 0xF2FDE38B EQ PUSH2 0x23D JUMPI PUSH2 0xB1 JUMP JUMPDEST DUP1 PUSH3 0xFDD58E EQ PUSH2 0xB5 JUMPI DUP1 PUSH4 0x1FFC9A7 EQ PUSH2 0xE5 JUMPI DUP1 PUSH4 0xE89341C EQ PUSH2 0x115 JUMPI DUP1 PUSH4 0x2EB2C2D6 EQ PUSH2 0x145 JUMPI DUP1 PUSH4 0x4E1273F4 EQ PUSH2 0x161 JUMPI DUP1 PUSH4 0x715018A6 EQ PUSH2 0x191 JUMPI JUMPDEST PUSH0 DUP1 REVERT JUMPDEST PUSH2 0xCF PUSH1 0x4 DUP1 CALLDATASIZE SUB DUP2 ADD SWAP1 PUSH2 0xCA SWAP2 SWAP1 PUSH2 0x1633 JUMP JUMPDEST PUSH2 0x259 JUMP JUMPDEST PUSH1 0x40 MLOAD PUSH2 0xDC SWAP2 SWAP1 PUSH2 0x1680 JUMP JUMPDEST PUSH1 0x40 MLOAD DUP1 SWAP2 SUB SWAP1 RETURN JUMPDEST PUSH2 0xFF PUSH1 0x4 DUP1 CALLDATASIZE SUB DUP2 ADD SWAP1 PUSH2 0xFA SWAP2 SWAP1 PUSH2 0x16EE JUMP JUMPDEST PUSH2 0x2AE JUMP JUMPDEST PUSH1 0x40 MLOAD PUSH2 0x10C SWAP2 SWAP1 PUSH2 0x1733 JUMP JUMPDEST PUSH1 0x40 MLOAD DUP1 SWAP2 SUB SWAP1 RETURN JUMPDEST PUSH2 0x12F PUSH1 0x4 DUP1 CALLDATASIZE SUB DUP2 ADD SWAP1 PUSH2 0x12A SWAP2 SWAP1 PUSH2 0x174C JUMP JUMPDEST PUSH2 0x38F JUMP JUMPDEST PUSH1 0x40 MLOAD PUSH2 0x13C SWAP2 SWAP1 PUSH2 0x17E7 JUMP JUMPDEST PUSH1 0x40 MLOAD DUP1 SWAP2 SUB SWAP1 RETURN JUMPDEST PUSH2 0x15F PUSH1 0x4 DUP1 CALLDATASIZE SUB DUP2 ADD SWAP1 PUSH2 0x15A SWAP2 SWAP1 PUSH2 0x19F7 JUMP JUMPDEST PUSH2 0x421 JUMP JUMPDEST STOP JUMPDEST PUSH2 0x17B PUSH1 0x4 DUP1 CALLDATASIZE SUB DUP2 ADD SWAP1 PUSH2 0x176 SWAP2 SWAP1 PUSH2 0x1B82 JUMP JUMPDEST PUSH2 0x4C8 JUMP JUMPDEST PUSH1 0x40 MLOAD PUSH2 0x188 SWAP2 SWAP1 PUSH2 0x1CAF JUMP JUMPDEST PUSH1 0x40 MLOAD DUP1 SWAP2 SUB SWAP1 RETURN JUMPDEST PUSH2 0x199 PUSH2 0x5CF JUMP JUMPDEST STOP JUMPDEST PUSH2 0x1B5 PUSH1 0x4 DUP1 CALLDATASIZE SUB DUP2 ADD SWAP1 PUSH2 0x1B0 SWAP2 SWAP1 PUSH2 0x1CCF JUMP JUMPDEST PUSH2 0x5E2 JUMP JUMPDEST STOP JUMPDEST PUSH2 0x1BF PUSH2 0x5FC JUMP JUMPDEST PUSH1 0x40 MLOAD PUSH2 0x1CC SWAP2 SWAP1 PUSH2 0x1D5E JUMP JUMPDEST PUSH1 0x40 MLOAD DUP1 SWAP2 SUB SWAP1 RETURN JUMPDEST PUSH2 0x1EF PUSH1 0x4 DUP1 CALLDATASIZE SUB DUP2 ADD SWAP1 PUSH2 0x1EA SWAP2 SWAP1 PUSH2 0x1DA1 JUMP JUMPDEST PUSH2 0x624 JUMP JUMPDEST STOP JUMPDEST PUSH2 0x20B PUSH1 0x4 DUP1 CALLDATASIZE SUB DUP2 ADD SWAP1 PUSH2 0x206 SWAP2 SWAP1 PUSH2 0x1DDF JUMP JUMPDEST PUSH2 0x63A JUMP JUMPDEST PUSH1 0x40 MLOAD PUSH2 0x218 SWAP2 SWAP1 PUSH2 0x1733 JUMP JUMPDEST PUSH1 0x40 MLOAD DUP1 SWAP2 SUB SWAP1 RETURN JUMPDEST PUSH2 0x23B PUSH1 0x4 DUP1 CALLDATASIZE SUB DUP2 ADD SWAP1 PUSH2 0x236 SWAP2 SWAP1 PUSH2 0x1E1D JUMP JUMPDEST PUSH2 0x6C8 JUMP JUMPDEST STOP JUMPDEST PUSH2 0x257 PUSH1 0x4 DUP1 CALLDATASIZE SUB DUP2 ADD SWAP1 PUSH2 0x252 SWAP2 SWAP1 PUSH2 0x1EB0 JUMP JUMPDEST PUSH2 0x76F JUMP JUMPDEST STOP JUMPDEST PUSH0 DUP1 PUSH0 DUP4 DUP2 MSTORE PUSH1 0x20 ADD SWAP1 DUP2 MSTORE PUSH1 0x20 ADD PUSH0 KECCAK256 PUSH0 DUP5 PUSH20 0xFFFFFFFFFFFFFFFFFFFFFFFFFFFFFFFFFFFFFFFF AND PUSH20 0xFFFFFFFFFFFFFFFFFFFFFFFFFFFFFFFFFFFFFFFF AND DUP2 MSTORE PUSH1 0x20 ADD SWAP1 DUP2 MSTORE PUSH1 0x20 ADD PUSH0 KECCAK256 SLOAD SWAP1 POP SWAP3 SWAP2 POP POP JUMP JUMPDEST PUSH0 PUSH32 0xD9B67A2600000000000000000000000000000000000000000000000000000000 PUSH28 0xFFFFFFFFFFFFFFFFFFFFFFFFFFFFFFFFFFFFFFFFFFFFFFFFFFFFFFFF NOT AND DUP3 PUSH28 0xFFFFFFFFFFFFFFFFFFFFFFFFFFFFFFFFFFFFFFFFFFFFFFFFFFFFFFFF NOT AND EQ DUP1 PUSH2 0x378 JUMPI POP PUSH32 0xE89341C00000000000000000000000000000000000000000000000000000000 PUSH28 0xFFFFFFFFFFFFFFFFFFFFFFFFFFFFFFFFFFFFFFFFFFFFFFFFFFFFFFFF NOT AND DUP3 PUSH28 0xFFFFFFFFFFFFFFFFFFFFFFFFFFFFFFFFFFFFFFFFFFFFFFFFFFFFFFFF NOT AND EQ JUMPDEST DUP1 PUSH2 0x388 JUMPI POP PUSH2 0x387 DUP3 PUSH2 0x7F3 JUMP JUMPDEST JUMPDEST SWAP1 POP SWAP2 SWAP1 POP JUMP JUMPDEST PUSH1 0x60 PUSH1 0x2 DUP1 SLOAD PUSH2 0x39E SWAP1 PUSH2 0x1F08 JUMP JUMPDEST DUP1 PUSH1 0x1F ADD PUSH1 0x20 DUP1 SWAP2 DIV MUL PUSH1 0x20 ADD PUSH1 0x40 MLOAD SWAP1 DUP2 ADD PUSH1 0x40 MSTORE DUP1 SWAP3 SWAP2 SWAP1 DUP2 DUP2 MSTORE PUSH1 0x20 ADD DUP3 DUP1 SLOAD PUSH2 0x3CA SWAP1 PUSH2 0x1F08 JUMP JUMPDEST DUP1 ISZERO PUSH2 0x415 JUMPI DUP1 PUSH1 0x1F LT PUSH2 0x3EC JUMPI PUSH2 0x100 DUP1 DUP4 SLOAD DIV MUL DUP4 MSTORE SWAP2 PUSH1 0x20 ADD SWAP2 PUSH2 0x415 JUMP JUMPDEST DUP3 ADD SWAP2 SWAP1 PUSH0 MSTORE PUSH1 0x20 PUSH0 KECCAK256 SWAP1 JUMPDEST DUP2 SLOAD DUP2 MSTORE SWAP1 PUSH1 0x1 ADD SWAP1 PUSH1 0x20 ADD DUP1 DUP4 GT PUSH2 0x3F8 JUMPI DUP3 SWAP1 SUB PUSH1 0x1F AND DUP3 ADD SWAP2 JUMPDEST POP POP POP POP POP SWAP1 POP SWAP2 SWAP1 POP JUMP JUMPDEST PUSH0 PUSH2 0x42A PUSH2 0x85C JUMP JUMPDEST SWAP1 POP DUP1 PUSH20 0xFFFFFFFFFFFFFFFFFFFFFFFFFFFFFFFFFFFFFFFF AND DUP7 PUSH20 0xFFFFFFFFFFFFFFFFFFFFFFFFFFFFFFFFFFFFFFFF AND EQ ISZERO DUP1 ISZERO PUSH2 0x46F JUMPI POP PUSH2 0x46D DUP7 DUP3 PUSH2 0x63A JUMP JUMPDEST ISZERO JUMPDEST ISZERO PUSH2 0x4B3 JUMPI DUP1 DUP7 PUSH1 0x40 MLOAD PUSH32 0xE237D92200000000000000000000000000000000000000000000000000000000 DUP2 MSTORE PUSH1 0x4 ADD PUSH2 0x4AA SWAP3 SWAP2 SWAP1 PUSH2 0x1F38 JUMP JUMPDEST PUSH1 0x40 MLOAD DUP1 SWAP2 SUB SWAP1 REVERT JUMPDEST PUSH2 0x4C0 DUP7 DUP7 DUP7 DUP7 DUP7 PUSH2 0x863 JUMP JUMPDEST POP POP POP POP POP POP JUMP JUMPDEST PUSH1 0x60 DUP2 MLOAD DUP4 MLOAD EQ PUSH2 0x514 JUMPI DUP2 MLOAD DUP4 MLOAD PUSH1 0x40 MLOAD PUSH32 0x5B05999100000000000000000000000000000000000000000000000000000000 DUP2 MSTORE PUSH1 0x4 ADD PUSH2 0x50B SWAP3 SWAP2 SWAP1 PUSH2 0x1F5F JUMP JUMPDEST PUSH1 0x40 MLOAD DUP1 SWAP2 SUB SWAP1 REVERT JUMPDEST PUSH0 DUP4 MLOAD PUSH8 0xFFFFFFFFFFFFFFFF DUP2 GT ISZERO PUSH2 0x530 JUMPI PUSH2 0x52F PUSH2 0x180B JUMP JUMPDEST JUMPDEST PUSH1 0x40 MLOAD SWAP1 DUP1 DUP3 MSTORE DUP1 PUSH1 0x20 MUL PUSH1 0x20 ADD DUP3 ADD PUSH1 0x40 MSTORE DUP1 ISZERO PUSH2 0x55E JUMPI DUP2 PUSH1 0x20 ADD PUSH1 0x20 DUP3 MUL DUP1 CALLDATASIZE DUP4 CALLDATACOPY DUP1 DUP3 ADD SWAP2 POP POP SWAP1 POP JUMPDEST POP SWAP1 POP PUSH0 JUMPDEST DUP5 MLOAD DUP2 LT ISZERO PUSH2 0x5C4 JUMPI PUSH2 0x59A PUSH2 0x582 DUP3 DUP8 PUSH2 0x957 SWAP1 SWAP2 SWAP1 PUSH4 0xFFFFFFFF AND JUMP JUMPDEST PUSH2 0x595 DUP4 DUP8 PUSH2 0x96A SWAP1 SWAP2 SWAP1 PUSH4 0xFFFFFFFF AND JUMP JUMPDEST PUSH2 0x259 JUMP JUMPDEST DUP3 DUP3 DUP2 MLOAD DUP2 LT PUSH2 0x5AD JUMPI PUSH2 0x5AC PUSH2 0x1F86 JUMP JUMPDEST JUMPDEST PUSH1 0x20 MUL PUSH1 0x20 ADD ADD DUP2 DUP2 MSTORE POP POP DUP1 PUSH1 0x1 ADD SWAP1 POP PUSH2 0x563 JUMP JUMPDEST POP DUP1 SWAP2 POP POP SWAP3 SWAP2 POP POP JUMP JUMPDEST PUSH2 0x5D7 PUSH2 0x97D JUMP JUMPDEST PUSH2 0x5E0 PUSH0 PUSH2 0xA04 JUMP JUMPDEST JUMP JUMPDEST PUSH2 0x5EA PUSH2 0x97D JUMP JUMPDEST PUSH2 0x5F6 DUP5 DUP5 DUP5 DUP5 PUSH2 0xAC7 JUMP JUMPDEST POP POP POP POP JUMP JUMPDEST PUSH0 PUSH1 0x3 PUSH0 SWAP1 SLOAD SWAP1 PUSH2 0x100 EXP SWAP1 DIV PUSH20 0xFFFFFFFFFFFFFFFFFFFFFFFFFFFFFFFFFFFFFFFF AND SWAP1 POP SWAP1 JUMP JUMPDEST PUSH2 0x636 PUSH2 0x62F PUSH2 0x85C JUMP JUMPDEST DUP4 DUP4 PUSH2 0xB5C JUMP JUMPDEST POP POP JUMP JUMPDEST PUSH0 PUSH1 0x1 PUSH0 DUP5 PUSH20 0xFFFFFFFFFFFFFFFFFFFFFFFFFFFFFFFFFFFFFFFF AND PUSH20 0xFFFFFFFFFFFFFFFFFFFFFFFFFFFFFFFFFFFFFFFF AND DUP2 MSTORE PUSH1 0x20 ADD SWAP1 DUP2 MSTORE PUSH1 0x20 ADD PUSH0 KECCAK256 PUSH0 DUP4 PUSH20 0xFFFFFFFFFFFFFFFFFFFFFFFFFFFFFFFFFFFFFFFF AND PUSH20 0xFFFFFFFFFFFFFFFFFFFFFFFFFFFFFFFFFFFFFFFF AND DUP2 MSTORE PUSH1 0x20 ADD SWAP1 DUP2 MSTORE PUSH1 0x20 ADD PUSH0 KECCAK256 PUSH0 SWAP1 SLOAD SWAP1 PUSH2 0x100 EXP SWAP1 DIV PUSH1 0xFF AND SWAP1 POP SWAP3 SWAP2 POP POP JUMP JUMPDEST PUSH0 PUSH2 0x6D1 PUSH2 0x85C JUMP JUMPDEST SWAP1 POP DUP1 PUSH20 0xFFFFFFFFFFFFFFFFFFFFFFFFFFFFFFFFFFFFFFFF AND DUP7 PUSH20 0xFFFFFFFFFFFFFFFFFFFFFFFFFFFFFFFFFFFFFFFF AND EQ ISZERO DUP1 ISZERO PUSH2 0x716 JUMPI POP PUSH2 0x714 DUP7 DUP3 PUSH2 0x63A JUMP JUMPDEST ISZERO JUMPDEST ISZERO PUSH2 0x75A JUMPI DUP1 DUP7 PUSH1 0x40 MLOAD PUSH32 0xE237D92200000000000000000000000000000000000000000000000000000000 DUP2 MSTORE PUSH1 0x4 ADD PUSH2 0x751 SWAP3 SWAP2 SWAP1 PUSH2 0x1F38 JUMP JUMPDEST PUSH1 0x40 MLOAD DUP1 SWAP2 SUB SWAP1 REVERT JUMPDEST PUSH2 0x767 DUP7 DUP7 DUP7 DUP7 DUP7 PUSH2 0xCC5 JUMP JUMPDEST POP POP POP POP POP POP JUMP JUMPDEST PUSH2 0x777 PUSH2 0x97D JUMP JUMPDEST PUSH0 PUSH20 0xFFFFFFFFFFFFFFFFFFFFFFFFFFFFFFFFFFFFFFFF AND DUP2 PUSH20 0xFFFFFFFFFFFFFFFFFFFFFFFFFFFFFFFFFFFFFFFF AND SUB PUSH2 0x7E7 JUMPI PUSH0 PUSH1 0x40 MLOAD PUSH32 0x1E4FBDF700000000000000000000000000000000000000000000000000000000 DUP2 MSTORE PUSH1 0x4 ADD PUSH2 0x7DE SWAP2 SWAP1 PUSH2 0x1D5E JUMP JUMPDEST PUSH1 0x40 MLOAD DUP1 SWAP2 SUB SWAP1 REVERT JUMPDEST PUSH2 0x7F0 DUP2 PUSH2 0xA04 JUMP JUMPDEST POP JUMP JUMPDEST PUSH0 PUSH32 0x1FFC9A700000000000000000000000000000000000000000000000000000000 PUSH28 0xFFFFFFFFFFFFFFFFFFFFFFFFFFFFFFFFFFFFFFFFFFFFFFFFFFFFFFFF NOT AND DUP3 PUSH28 0xFFFFFFFFFFFFFFFFFFFFFFFFFFFFFFFFFFFFFFFFFFFFFFFFFFFFFFFF NOT AND EQ SWAP1 POP SWAP2 SWAP1 POP JUMP JUMPDEST PUSH0 CALLER SWAP1 POP SWAP1 JUMP JUMPDEST PUSH0 PUSH20 0xFFFFFFFFFFFFFFFFFFFFFFFFFFFFFFFFFFFFFFFF AND DUP5 PUSH20 0xFFFFFFFFFFFFFFFFFFFFFFFFFFFFFFFFFFFFFFFF AND SUB PUSH2 0x8D3 JUMPI PUSH0 PUSH1 0x40 MLOAD PUSH32 0x57F447CE00000000000000000000000000000000000000000000000000000000 DUP2 MSTORE PUSH1 0x4 ADD PUSH2 0x8CA SWAP2 SWAP1 PUSH2 0x1D5E JUMP JUMPDEST PUSH1 0x40 MLOAD DUP1 SWAP2 SUB SWAP1 REVERT JUMPDEST PUSH0 PUSH20 0xFFFFFFFFFFFFFFFFFFFFFFFFFFFFFFFFFFFFFFFF AND DUP6 PUSH20 0xFFFFFFFFFFFFFFFFFFFFFFFFFFFFFFFFFFFFFFFF AND SUB PUSH2 0x943 JUMPI PUSH0 PUSH1 0x40 MLOAD PUSH32 0x1A8351400000000000000000000000000000000000000000000000000000000 DUP2 MSTORE PUSH1 0x4 ADD PUSH2 0x93A SWAP2 SWAP1 PUSH2 0x1D5E JUMP JUMPDEST PUSH1 0x40 MLOAD DUP1 SWAP2 SUB SWAP1 REVERT JUMPDEST PUSH2 0x950 DUP6 DUP6 DUP6 DUP6 DUP6 PUSH2 0xDCB JUMP JUMPDEST POP POP POP POP POP JUMP JUMPDEST PUSH0 PUSH1 0x20 DUP3 MUL PUSH1 0x20 DUP5 ADD ADD MLOAD SWAP1 POP SWAP3 SWAP2 POP POP JUMP JUMPDEST PUSH0 PUSH1 0x20 DUP3 MUL PUSH1 0x20 DUP5 ADD ADD MLOAD SWAP1 POP SWAP3 SWAP2 POP POP JUMP JUMPDEST PUSH2 0x985 PUSH2 0x85C JUMP JUMPDEST PUSH20 0xFFFFFFFFFFFFFFFFFFFFFFFFFFFFFFFFFFFFFFFF AND PUSH2 0x9A3 PUSH2 0x5FC JUMP JUMPDEST PUSH20 0xFFFFFFFFFFFFFFFFFFFFFFFFFFFFFFFFFFFFFFFF AND EQ PUSH2 0xA02 JUMPI PUSH2 0x9C6 PUSH2 0x85C JUMP JUMPDEST PUSH1 0x40 MLOAD PUSH32 0x118CDAA700000000000000000000000000000000000000000000000000000000 DUP2 MSTORE PUSH1 0x4 ADD PUSH2 0x9F9 SWAP2 SWAP1 PUSH2 0x1D5E JUMP JUMPDEST PUSH1 0x40 MLOAD DUP1 SWAP2 SUB SWAP1 REVERT JUMPDEST JUMP JUMPDEST PUSH0 PUSH1 0x3 PUSH0 SWAP1 SLOAD SWAP1 PUSH2 0x100 EXP SWAP1 DIV PUSH20 0xFFFFFFFFFFFFFFFFFFFFFFFFFFFFFFFFFFFFFFFF AND SWAP1 POP DUP2 PUSH1 0x3 PUSH0 PUSH2 0x100 EXP DUP2 SLOAD DUP2 PUSH20 0xFFFFFFFFFFFFFFFFFFFFFFFFFFFFFFFFFFFFFFFF MUL NOT AND SWAP1 DUP4 PUSH20 0xFFFFFFFFFFFFFFFFFFFFFFFFFFFFFFFFFFFFFFFF AND MUL OR SWAP1 SSTORE POP DUP2 PUSH20 0xFFFFFFFFFFFFFFFFFFFFFFFFFFFFFFFFFFFFFFFF AND DUP2 PUSH20 0xFFFFFFFFFFFFFFFFFFFFFFFFFFFFFFFFFFFFFFFF AND PUSH32 0x8BE0079C531659141344CD1FD0A4F28419497F9722A3DAAFE3B4186F6B6457E0 PUSH1 0x40 MLOAD PUSH1 0x40 MLOAD DUP1 SWAP2 SUB SWAP1 LOG3 POP POP JUMP JUMPDEST PUSH0 PUSH20 0xFFFFFFFFFFFFFFFFFFFFFFFFFFFFFFFFFFFFFFFF AND DUP5 PUSH20 0xFFFFFFFFFFFFFFFFFFFFFFFFFFFFFFFFFFFFFFFF AND SUB PUSH2 0xB37 JUMPI PUSH0 PUSH1 0x40 MLOAD PUSH32 0x57F447CE00000000000000000000000000000000000000000000000000000000 DUP2 MSTORE PUSH1 0x4 ADD PUSH2 0xB2E SWAP2 SWAP1 PUSH2 0x1D5E JUMP JUMPDEST PUSH1 0x40 MLOAD DUP1 SWAP2 SUB SWAP1 REVERT JUMPDEST PUSH0 DUP1 PUSH2 0xB43 DUP6 DUP6 PUSH2 0xE77 JUMP JUMPDEST SWAP2 POP SWAP2 POP PUSH2 0xB54 PUSH0 DUP8 DUP5 DUP5 DUP8 PUSH2 0xDCB JUMP JUMPDEST POP POP POP POP POP POP JUMP JUMPDEST PUSH0 PUSH20 0xFFFFFFFFFFFFFFFFFFFFFFFFFFFFFFFFFFFFFFFF AND DUP3 PUSH20 0xFFFFFFFFFFFFFFFFFFFFFFFFFFFFFFFFFFFFFFFF AND SUB PUSH2 0xBCC JUMPI PUSH0 PUSH1 0x40 MLOAD PUSH32 0xCED3E10000000000000000000000000000000000000000000000000000000000 DUP2 MSTORE PUSH1 0x4 ADD PUSH2 0xBC3 SWAP2 SWAP1 PUSH2 0x1D5E JUMP JUMPDEST PUSH1 0x40 MLOAD DUP1 SWAP2 SUB SWAP1 REVERT JUMPDEST DUP1 PUSH1 0x1 PUSH0 DUP6 PUSH20 0xFFFFFFFFFFFFFFFFFFFFFFFFFFFFFFFFFFFFFFFF AND PUSH20 0xFFFFFFFFFFFFFFFFFFFFFFFFFFFFFFFFFFFFFFFF AND DUP2 MSTORE PUSH1 0x20 ADD SWAP1 DUP2 MSTORE PUSH1 0x20 ADD PUSH0 KECCAK256 PUSH0 DUP5 PUSH20 0xFFFFFFFFFFFFFFFFFFFFFFFFFFFFFFFFFFFFFFFF AND PUSH20 0xFFFFFFFFFFFFFFFFFFFFFFFFFFFFFFFFFFFFFFFF AND DUP2 MSTORE PUSH1 0x20 ADD SWAP1 DUP2 MSTORE PUSH1 0x20 ADD PUSH0 KECCAK256 PUSH0 PUSH2 0x100 EXP DUP2 SLOAD DUP2 PUSH1 0xFF MUL NOT AND SWAP1 DUP4 ISZERO ISZERO MUL OR SWAP1 SSTORE POP DUP2 PUSH20 0xFFFFFFFFFFFFFFFFFFFFFFFFFFFFFFFFFFFFFFFF AND DUP4 PUSH20 0xFFFFFFFFFFFFFFFFFFFFFFFFFFFFFFFFFFFFFFFF AND PUSH32 0x17307EAB39AB6107E8899845AD3D59BD9653F200F220920489CA2B5937696C31 DUP4 PUSH1 0x40 MLOAD PUSH2 0xCB8 SWAP2 SWAP1 PUSH2 0x1733 JUMP JUMPDEST PUSH1 0x40 MLOAD DUP1 SWAP2 SUB SWAP1 LOG3 POP POP POP JUMP JUMPDEST PUSH0 PUSH20 0xFFFFFFFFFFFFFFFFFFFFFFFFFFFFFFFFFFFFFFFF AND DUP5 PUSH20 0xFFFFFFFFFFFFFFFFFFFFFFFFFFFFFFFFFFFFFFFF AND SUB PUSH2 0xD35 JUMPI PUSH0 PUSH1 0x40 MLOAD PUSH32 0x57F447CE00000000000000000000000000000000000000000000000000000000 DUP2 MSTORE PUSH1 0x4 ADD PUSH2 0xD2C SWAP2 SWAP1 PUSH2 0x1D5E JUMP JUMPDEST PUSH1 0x40 MLOAD DUP1 SWAP2 SUB SWAP1 REVERT JUMPDEST PUSH0 PUSH20 0xFFFFFFFFFFFFFFFFFFFFFFFFFFFFFFFFFFFFFFFF AND DUP6 PUSH20 0xFFFFFFFFFFFFFFFFFFFFFFFFFFFFFFFFFFFFFFFF AND SUB PUSH2 0xDA5 JUMPI PUSH0 PUSH1 0x40 MLOAD PUSH32 0x1A8351400000000000000000000000000000000000000000000000000000000 DUP2 MSTORE PUSH1 0x4 ADD PUSH2 0xD9C SWAP2 SWAP1 PUSH2 0x1D5E JUMP JUMPDEST PUSH1 0x40 MLOAD DUP1 SWAP2 SUB SWAP1 REVERT JUMPDEST PUSH0 DUP1 PUSH2 0xDB1 DUP6 DUP6 PUSH2 0xE77 JUMP JUMPDEST SWAP2 POP SWAP2 POP PUSH2 0xDC2 DUP8 DUP8 DUP5 DUP5 DUP8 PUSH2 0xDCB JUMP JUMPDEST POP POP POP POP POP POP POP JUMP JUMPDEST PUSH2 0xDD7 DUP6 DUP6 DUP6 DUP6 PUSH2 0xEA7 JUMP JUMPDEST PUSH0 PUSH20 0xFFFFFFFFFFFFFFFFFFFFFFFFFFFFFFFFFFFFFFFF AND DUP5 PUSH20 0xFFFFFFFFFFFFFFFFFFFFFFFFFFFFFFFFFFFFFFFF AND EQ PUSH2 0xE70 JUMPI PUSH0 PUSH2 0xE13 PUSH2 0x85C JUMP JUMPDEST SWAP1 POP PUSH1 0x1 DUP5 MLOAD SUB PUSH2 0xE5F JUMPI PUSH0 PUSH2 0xE32 PUSH0 DUP7 PUSH2 0x96A SWAP1 SWAP2 SWAP1 PUSH4 0xFFFFFFFF AND JUMP JUMPDEST SWAP1 POP PUSH0 PUSH2 0xE48 PUSH0 DUP7 PUSH2 0x96A SWAP1 SWAP2 SWAP1 PUSH4 0xFFFFFFFF AND JUMP JUMPDEST SWAP1 POP PUSH2 0xE58 DUP4 DUP10 DUP10 DUP6 DUP6 DUP10 PUSH2 0x1237 JUMP JUMPDEST POP POP PUSH2 0xE6E JUMP JUMPDEST PUSH2 0xE6D DUP2 DUP8 DUP8 DUP8 DUP8 DUP8 PUSH2 0x13E6 JUMP JUMPDEST JUMPDEST POP JUMPDEST POP POP POP POP POP JUMP JUMPDEST PUSH1 0x60 DUP1 PUSH1 0x40 MLOAD SWAP2 POP PUSH1 0x1 DUP3 MSTORE DUP4 PUSH1 0x20 DUP4 ADD MSTORE PUSH1 0x40 DUP3 ADD SWAP1 POP PUSH1 0x1 DUP2 MSTORE DUP3 PUSH1 0x20 DUP3 ADD MSTORE PUSH1 0x40 DUP2 ADD PUSH1 0x40 MSTORE SWAP3 POP SWAP3 SWAP1 POP JUMP JUMPDEST DUP1 MLOAD DUP3 MLOAD EQ PUSH2 0xEF1 JUMPI DUP2 MLOAD DUP2 MLOAD PUSH1 0x40 MLOAD PUSH32 0x5B05999100000000000000000000000000000000000000000000000000000000 DUP2 MSTORE PUSH1 0x4 ADD PUSH2 0xEE8 SWAP3 SWAP2 SWAP1 PUSH2 0x1F5F JUMP JUMPDEST PUSH1 0x40 MLOAD DUP1 SWAP2 SUB SWAP1 REVERT JUMPDEST PUSH0 PUSH2 0xEFA PUSH2 0x85C JUMP JUMPDEST SWAP1 POP PUSH0 JUMPDEST DUP4 MLOAD DUP2 LT ISZERO PUSH2 0x10F6 JUMPI PUSH0 PUSH2 0xF1B DUP3 DUP7 PUSH2 0x96A SWAP1 SWAP2 SWAP1 PUSH4 0xFFFFFFFF AND JUMP JUMPDEST SWAP1 POP PUSH0 PUSH2 0xF31 DUP4 DUP7 PUSH2 0x96A SWAP1 SWAP2 SWAP1 PUSH4 0xFFFFFFFF AND JUMP JUMPDEST SWAP1 POP PUSH0 PUSH20 0xFFFFFFFFFFFFFFFFFFFFFFFFFFFFFFFFFFFFFFFF AND DUP9 PUSH20 0xFFFFFFFFFFFFFFFFFFFFFFFFFFFFFFFFFFFFFFFF AND EQ PUSH2 0x1054 JUMPI PUSH0 DUP1 PUSH0 DUP5 DUP2 MSTORE PUSH1 0x20 ADD SWAP1 DUP2 MSTORE PUSH1 0x20 ADD PUSH0 KECCAK256 PUSH0 DUP11 PUSH20 0xFFFFFFFFFFFFFFFFFFFFFFFFFFFFFFFFFFFFFFFF AND PUSH20 0xFFFFFFFFFFFFFFFFFFFFFFFFFFFFFFFFFFFFFFFF AND DUP2 MSTORE PUSH1 0x20 ADD SWAP1 DUP2 MSTORE PUSH1 0x20 ADD PUSH0 KECCAK256 SLOAD SWAP1 POP DUP2 DUP2 LT ISZERO PUSH2 0x1000 JUMPI DUP9 DUP2 DUP4 DUP6 PUSH1 0x40 MLOAD PUSH32 0x3DEE4C500000000000000000000000000000000000000000000000000000000 DUP2 MSTORE PUSH1 0x4 ADD PUSH2 0xFF7 SWAP5 SWAP4 SWAP3 SWAP2 SWAP1 PUSH2 0x1FB3 JUMP JUMPDEST PUSH1 0x40 MLOAD DUP1 SWAP2 SUB SWAP1 REVERT JUMPDEST DUP2 DUP2 SUB PUSH0 DUP1 DUP6 DUP2 MSTORE PUSH1 0x20 ADD SWAP1 DUP2 MSTORE PUSH1 0x20 ADD PUSH0 KECCAK256 PUSH0 DUP12 PUSH20 0xFFFFFFFFFFFFFFFFFFFFFFFFFFFFFFFFFFFFFFFF AND PUSH20 0xFFFFFFFFFFFFFFFFFFFFFFFFFFFFFFFFFFFFFFFF AND DUP2 MSTORE PUSH1 0x20 ADD SWAP1 DUP2 MSTORE PUSH1 0x20 ADD PUSH0 KECCAK256 DUP2 SWAP1 SSTORE POP POP JUMPDEST PUSH0 PUSH20 0xFFFFFFFFFFFFFFFFFFFFFFFFFFFFFFFFFFFFFFFF AND DUP8 PUSH20 0xFFFFFFFFFFFFFFFFFFFFFFFFFFFFFFFFFFFFFFFF AND EQ PUSH2 0x10E9 JUMPI DUP1 PUSH0 DUP1 DUP5 DUP2 MSTORE PUSH1 0x20 ADD SWAP1 DUP2 MSTORE PUSH1 0x20 ADD PUSH0 KECCAK256 PUSH0 DUP10 PUSH20 0xFFFFFFFFFFFFFFFFFFFFFFFFFFFFFFFFFFFFFFFF AND PUSH20 0xFFFFFFFFFFFFFFFFFFFFFFFFFFFFFFFFFFFFFFFF AND DUP2 MSTORE PUSH1 0x20 ADD SWAP1 DUP2 MSTORE PUSH1 0x20 ADD PUSH0 KECCAK256 PUSH0 DUP3 DUP3 SLOAD PUSH2 0x10E1 SWAP2 SWAP1 PUSH2 0x2023 JUMP JUMPDEST SWAP3 POP POP DUP2 SWAP1 SSTORE POP JUMPDEST POP POP DUP1 PUSH1 0x1 ADD SWAP1 POP PUSH2 0xEFE JUMP JUMPDEST POP PUSH1 0x1 DUP4 MLOAD SUB PUSH2 0x11B1 JUMPI PUSH0 PUSH2 0x1114 PUSH0 DUP6 PUSH2 0x96A SWAP1 SWAP2 SWAP1 PUSH4 0xFFFFFFFF AND JUMP JUMPDEST SWAP1 POP PUSH0 PUSH2 0x112A PUSH0 DUP6 PUSH2 0x96A SWAP1 SWAP2 SWAP1 PUSH4 0xFFFFFFFF AND JUMP JUMPDEST SWAP1 POP DUP6 PUSH20 0xFFFFFFFFFFFFFFFFFFFFFFFFFFFFFFFFFFFFFFFF AND DUP8 PUSH20 0xFFFFFFFFFFFFFFFFFFFFFFFFFFFFFFFFFFFFFFFF AND DUP5 PUSH20 0xFFFFFFFFFFFFFFFFFFFFFFFFFFFFFFFFFFFFFFFF AND PUSH32 0xC3D58168C5AE7397731D063D5BBF3D657854427343F4C083240F7AACAA2D0F62 DUP6 DUP6 PUSH1 0x40 MLOAD PUSH2 0x11A2 SWAP3 SWAP2 SWAP1 PUSH2 0x1F5F JUMP JUMPDEST PUSH1 0x40 MLOAD DUP1 SWAP2 SUB SWAP1 LOG4 POP POP PUSH2 0x1230 JUMP JUMPDEST DUP4 PUSH20 0xFFFFFFFFFFFFFFFFFFFFFFFFFFFFFFFFFFFFFFFF AND DUP6 PUSH20 0xFFFFFFFFFFFFFFFFFFFFFFFFFFFFFFFFFFFFFFFF AND DUP3 PUSH20 0xFFFFFFFFFFFFFFFFFFFFFFFFFFFFFFFFFFFFFFFF AND PUSH32 0x4A39DC06D4C0DBC64B70AF90FD698A233A518AA5D07E595D983B8C0526C8F7FB DUP7 DUP7 PUSH1 0x40 MLOAD PUSH2 0x1227 SWAP3 SWAP2 SWAP1 PUSH2 0x2056 JUMP JUMPDEST PUSH1 0x40 MLOAD DUP1 SWAP2 SUB SWAP1 LOG4 JUMPDEST POP POP POP POP POP JUMP JUMPDEST PUSH0 DUP5 PUSH20 0xFFFFFFFFFFFFFFFFFFFFFFFFFFFFFFFFFFFFFFFF AND EXTCODESIZE GT ISZERO PUSH2 0x13DE JUMPI DUP4 PUSH20 0xFFFFFFFFFFFFFFFFFFFFFFFFFFFFFFFFFFFFFFFF AND PUSH4 0xF23A6E61 DUP8 DUP8 DUP7 DUP7 DUP7 PUSH1 0x40 MLOAD DUP7 PUSH4 0xFFFFFFFF AND PUSH1 0xE0 SHL DUP2 MSTORE PUSH1 0x4 ADD PUSH2 0x1297 SWAP6 SWAP5 SWAP4 SWAP3 SWAP2 SWAP1 PUSH2 0x20DD JUMP JUMPDEST PUSH1 0x20 PUSH1 0x40 MLOAD DUP1 DUP4 SUB DUP2 PUSH0 DUP8 GAS CALL SWAP3 POP POP POP DUP1 ISZERO PUSH2 0x12D2 JUMPI POP PUSH1 0x40 MLOAD RETURNDATASIZE PUSH1 0x1F NOT PUSH1 0x1F DUP3 ADD AND DUP3 ADD DUP1 PUSH1 0x40 MSTORE POP DUP2 ADD SWAP1 PUSH2 0x12CF SWAP2 SWAP1 PUSH2 0x2149 JUMP JUMPDEST PUSH1 0x1 JUMPDEST PUSH2 0x1353 JUMPI RETURNDATASIZE DUP1 PUSH0 DUP2 EQ PUSH2 0x1300 JUMPI PUSH1 0x40 MLOAD SWAP2 POP PUSH1 0x1F NOT PUSH1 0x3F RETURNDATASIZE ADD AND DUP3 ADD PUSH1 0x40 MSTORE RETURNDATASIZE DUP3 MSTORE RETURNDATASIZE PUSH0 PUSH1 0x20 DUP5 ADD RETURNDATACOPY PUSH2 0x1305 JUMP JUMPDEST PUSH1 0x60 SWAP2 POP JUMPDEST POP PUSH0 DUP2 MLOAD SUB PUSH2 0x134B JUMPI DUP5 PUSH1 0x40 MLOAD PUSH32 0x57F447CE00000000000000000000000000000000000000000000000000000000 DUP2 MSTORE PUSH1 0x4 ADD PUSH2 0x1342 SWAP2 SWAP1 PUSH2 0x1D5E JUMP JUMPDEST PUSH1 0x40 MLOAD DUP1 SWAP2 SUB SWAP1 REVERT JUMPDEST DUP1 MLOAD DUP2 PUSH1 0x20 ADD REVERT JUMPDEST PUSH4 0xF23A6E61 PUSH1 0xE0 SHL PUSH28 0xFFFFFFFFFFFFFFFFFFFFFFFFFFFFFFFFFFFFFFFFFFFFFFFFFFFFFFFF NOT AND DUP2 PUSH28 0xFFFFFFFFFFFFFFFFFFFFFFFFFFFFFFFFFFFFFFFFFFFFFFFFFFFFFFFF NOT AND EQ PUSH2 0x13DC JUMPI DUP5 PUSH1 0x40 MLOAD PUSH32 0x57F447CE00000000000000000000000000000000000000000000000000000000 DUP2 MSTORE PUSH1 0x4 ADD PUSH2 0x13D3 SWAP2 SWAP1 PUSH2 0x1D5E JUMP JUMPDEST PUSH1 0x40 MLOAD DUP1 SWAP2 SUB SWAP1 REVERT JUMPDEST POP JUMPDEST POP POP POP POP POP POP JUMP JUMPDEST PUSH0 DUP5 PUSH20 0xFFFFFFFFFFFFFFFFFFFFFFFFFFFFFFFFFFFFFFFF AND EXTCODESIZE GT ISZERO PUSH2 0x158D JUMPI DUP4 PUSH20 0xFFFFFFFFFFFFFFFFFFFFFFFFFFFFFFFFFFFFFFFF AND PUSH4 0xBC197C81 DUP8 DUP8 DUP7 DUP7 DUP7 PUSH1 0x40 MLOAD DUP7 PUSH4 0xFFFFFFFF AND PUSH1 0xE0 SHL DUP2 MSTORE PUSH1 0x4 ADD PUSH2 0x1446 SWAP6 SWAP5 SWAP4 SWAP3 SWAP2 SWAP1 PUSH2 0x2174 JUMP JUMPDEST PUSH1 0x20 PUSH1 0x40 MLOAD DUP1 DUP4 SUB DUP2 PUSH0 DUP8 GAS CALL SWAP3 POP POP POP DUP1 ISZERO PUSH2 0x1481 JUMPI POP PUSH1 0x40 MLOAD RETURNDATASIZE PUSH1 0x1F NOT PUSH1 0x1F DUP3 ADD AND DUP3 ADD DUP1 PUSH1 0x40 MSTORE POP DUP2 ADD SWAP1 PUSH2 0x147E SWAP2 SWAP1 PUSH2 0x2149 JUMP JUMPDEST PUSH1 0x1 JUMPDEST PUSH2 0x1502 JUMPI RETURNDATASIZE DUP1 PUSH0 DUP2 EQ PUSH2 0x14AF JUMPI PUSH1 0x40 MLOAD SWAP2 POP PUSH1 0x1F NOT PUSH1 0x3F RETURNDATASIZE ADD AND DUP3 ADD PUSH1 0x40 MSTORE RETURNDATASIZE DUP3 MSTORE RETURNDATASIZE PUSH0 PUSH1 0x20 DUP5 ADD RETURNDATACOPY PUSH2 0x14B4 JUMP JUMPDEST PUSH1 0x60 SWAP2 POP JUMPDEST POP PUSH0 DUP2 MLOAD SUB PUSH2 0x14FA JUMPI DUP5 PUSH1 0x40 MLOAD PUSH32 0x57F447CE00000000000000000000000000000000000000000000000000000000 DUP2 MSTORE PUSH1 0x4 ADD PUSH2 0x14F1 SWAP2 SWAP1 PUSH2 0x1D5E JUMP JUMPDEST PUSH1 0x40 MLOAD DUP1 SWAP2 SUB SWAP1 REVERT JUMPDEST DUP1 MLOAD DUP2 PUSH1 0x20 ADD REVERT JUMPDEST PUSH4 0xBC197C81 PUSH1 0xE0 SHL PUSH28 0xFFFFFFFFFFFFFFFFFFFFFFFFFFFFFFFFFFFFFFFFFFFFFFFFFFFFFFFF NOT AND DUP2 PUSH28 0xFFFFFFFFFFFFFFFFFFFFFFFFFFFFFFFFFFFFFFFFFFFFFFFFFFFFFFFF NOT AND EQ PUSH2 0x158B JUMPI DUP5 PUSH1 0x40 MLOAD PUSH32 0x57F447CE00000000000000000000000000000000000000000000000000000000 DUP2 MSTORE PUSH1 0x4 ADD PUSH2 0x1582 SWAP2 SWAP1 PUSH2 0x1D5E JUMP JUMPDEST PUSH1 0x40 MLOAD DUP1 SWAP2 SUB SWAP1 REVERT JUMPDEST POP JUMPDEST POP POP POP POP POP POP JUMP JUMPDEST PUSH0 PUSH1 0x40 MLOAD SWAP1 POP SWAP1 JUMP JUMPDEST PUSH0 DUP1 REVERT JUMPDEST PUSH0 DUP1 REVERT JUMPDEST PUSH0 PUSH20 0xFFFFFFFFFFFFFFFFFFFFFFFFFFFFFFFFFFFFFFFF DUP3 AND SWAP1 POP SWAP2 SWAP1 POP JUMP JUMPDEST PUSH0 PUSH2 0x15CF DUP3 PUSH2 0x15A6 JUMP JUMPDEST SWAP1 POP SWAP2 SWAP1 POP JUMP JUMPDEST PUSH2 0x15DF DUP2 PUSH2 0x15C5 JUMP JUMPDEST DUP2 EQ PUSH2 0x15E9 JUMPI PUSH0 DUP1 REVERT JUMPDEST POP JUMP JUMPDEST PUSH0 DUP2 CALLDATALOAD SWAP1 POP PUSH2 0x15FA DUP2 PUSH2 0x15D6 JUMP JUMPDEST SWAP3 SWAP2 POP POP JUMP JUMPDEST PUSH0 DUP2 SWAP1 POP SWAP2 SWAP1 POP JUMP JUMPDEST PUSH2 0x1612 DUP2 PUSH2 0x1600 JUMP JUMPDEST DUP2 EQ PUSH2 0x161C JUMPI PUSH0 DUP1 REVERT JUMPDEST POP JUMP JUMPDEST PUSH0 DUP2 CALLDATALOAD SWAP1 POP PUSH2 0x162D DUP2 PUSH2 0x1609 JUMP JUMPDEST SWAP3 SWAP2 POP POP JUMP JUMPDEST PUSH0 DUP1 PUSH1 0x40 DUP4 DUP6 SUB SLT ISZERO PUSH2 0x1649 JUMPI PUSH2 0x1648 PUSH2 0x159E JUMP JUMPDEST JUMPDEST PUSH0 PUSH2 0x1656 DUP6 DUP3 DUP7 ADD PUSH2 0x15EC JUMP JUMPDEST SWAP3 POP POP PUSH1 0x20 PUSH2 0x1667 DUP6 DUP3 DUP7 ADD PUSH2 0x161F JUMP JUMPDEST SWAP2 POP POP SWAP3 POP SWAP3 SWAP1 POP JUMP JUMPDEST PUSH2 0x167A DUP2 PUSH2 0x1600 JUMP JUMPDEST DUP3 MSTORE POP POP JUMP JUMPDEST PUSH0 PUSH1 0x20 DUP3 ADD SWAP1 POP PUSH2 0x1693 PUSH0 DUP4 ADD DUP5 PUSH2 0x1671 JUMP JUMPDEST SWAP3 SWAP2 POP POP JUMP JUMPDEST PUSH0 PUSH32 0xFFFFFFFF00000000000000000000000000000000000000000000000000000000 DUP3 AND SWAP1 POP SWAP2 SWAP1 POP JUMP JUMPDEST PUSH2 0x16CD DUP2 PUSH2 0x1699 JUMP JUMPDEST DUP2 EQ PUSH2 0x16D7 JUMPI PUSH0 DUP1 REVERT JUMPDEST POP JUMP JUMPDEST PUSH0 DUP2 CALLDATALOAD SWAP1 POP PUSH2 0x16E8 DUP2 PUSH2 0x16C4 JUMP JUMPDEST SWAP3 SWAP2 POP POP JUMP JUMPDEST PUSH0 PUSH1 0x20 DUP3 DUP5 SUB SLT ISZERO PUSH2 0x1703 JUMPI PUSH2 0x1702 PUSH2 0x159E JUMP JUMPDEST JUMPDEST PUSH0 PUSH2 0x1710 DUP5 DUP3 DUP6 ADD PUSH2 0x16DA JUMP JUMPDEST SWAP2 POP POP SWAP3 SWAP2 POP POP JUMP JUMPDEST PUSH0 DUP2 ISZERO ISZERO SWAP1 POP SWAP2 SWAP1 POP JUMP JUMPDEST PUSH2 0x172D DUP2 PUSH2 0x1719 JUMP JUMPDEST DUP3 MSTORE POP POP JUMP JUMPDEST PUSH0 PUSH1 0x20 DUP3 ADD SWAP1 POP PUSH2 0x1746 PUSH0 DUP4 ADD DUP5 PUSH2 0x1724 JUMP JUMPDEST SWAP3 SWAP2 POP POP JUMP JUMPDEST PUSH0 PUSH1 0x20 DUP3 DUP5 SUB SLT ISZERO PUSH2 0x1761 JUMPI PUSH2 0x1760 PUSH2 0x159E JUMP JUMPDEST JUMPDEST PUSH0 PUSH2 0x176E DUP5 DUP3 DUP6 ADD PUSH2 0x161F JUMP JUMPDEST SWAP2 POP POP SWAP3 SWAP2 POP POP JUMP JUMPDEST PUSH0 DUP2 MLOAD SWAP1 POP SWAP2 SWAP1 POP JUMP JUMPDEST PUSH0 DUP3 DUP3 MSTORE PUSH1 0x20 DUP3 ADD SWAP1 POP SWAP3 SWAP2 POP POP JUMP JUMPDEST DUP3 DUP2 DUP4 MCOPY PUSH0 DUP4 DUP4 ADD MSTORE POP POP POP JUMP JUMPDEST PUSH0 PUSH1 0x1F NOT PUSH1 0x1F DUP4 ADD AND SWAP1 POP SWAP2 SWAP1 POP JUMP JUMPDEST PUSH0 PUSH2 0x17B9 DUP3 PUSH2 0x1777 JUMP JUMPDEST PUSH2 0x17C3 DUP2 DUP6 PUSH2 0x1781 JUMP JUMPDEST SWAP4 POP PUSH2 0x17D3 DUP2 DUP6 PUSH1 0x20 DUP7 ADD PUSH2 0x1791 JUMP JUMPDEST PUSH2 0x17DC DUP2 PUSH2 0x179F JUMP JUMPDEST DUP5 ADD SWAP2 POP POP SWAP3 SWAP2 POP POP JUMP JUMPDEST PUSH0 PUSH1 0x20 DUP3 ADD SWAP1 POP DUP2 DUP2 SUB PUSH0 DUP4 ADD MSTORE PUSH2 0x17FF DUP2 DUP5 PUSH2 0x17AF JUMP JUMPDEST SWAP1 POP SWAP3 SWAP2 POP POP JUMP JUMPDEST PUSH0 DUP1 REVERT JUMPDEST PUSH32 0x4E487B7100000000000000000000000000000000000000000000000000000000 PUSH0 MSTORE PUSH1 0x41 PUSH1 0x4 MSTORE PUSH1 0x24 PUSH0 REVERT JUMPDEST PUSH2 0x1841 DUP3 PUSH2 0x179F JUMP JUMPDEST DUP2 ADD DUP2 DUP2 LT PUSH8 0xFFFFFFFFFFFFFFFF DUP3 GT OR ISZERO PUSH2 0x1860 JUMPI PUSH2 0x185F PUSH2 0x180B JUMP JUMPDEST JUMPDEST DUP1 PUSH1 0x40 MSTORE POP POP POP JUMP JUMPDEST PUSH0 PUSH2 0x1872 PUSH2 0x1595 JUMP JUMPDEST SWAP1 POP PUSH2 0x187E DUP3 DUP3 PUSH2 0x1838 JUMP JUMPDEST SWAP2 SWAP1 POP JUMP JUMPDEST PUSH0 PUSH8 0xFFFFFFFFFFFFFFFF DUP3 GT ISZERO PUSH2 0x189D JUMPI PUSH2 0x189C PUSH2 0x180B JUMP JUMPDEST JUMPDEST PUSH1 0x20 DUP3 MUL SWAP1 POP PUSH1 0x20 DUP2 ADD SWAP1 POP SWAP2 SWAP1 POP JUMP JUMPDEST PUSH0 DUP1 REVERT JUMPDEST PUSH0 PUSH2 0x18C4 PUSH2 0x18BF DUP5 PUSH2 0x1883 JUMP JUMPDEST PUSH2 0x1869 JUMP JUMPDEST SWAP1 POP DUP1 DUP4 DUP3 MSTORE PUSH1 0x20 DUP3 ADD SWAP1 POP PUSH1 0x20 DUP5 MUL DUP4 ADD DUP6 DUP2 GT ISZERO PUSH2 0x18E7 JUMPI PUSH2 0x18E6 PUSH2 0x18AE JUMP JUMPDEST JUMPDEST DUP4 JUMPDEST DUP2 DUP2 LT ISZERO PUSH2 0x1910 JUMPI DUP1 PUSH2 0x18FC DUP9 DUP3 PUSH2 0x161F JUMP JUMPDEST DUP5 MSTORE PUSH1 0x20 DUP5 ADD SWAP4 POP POP PUSH1 0x20 DUP2 ADD SWAP1 POP PUSH2 0x18E9 JUMP JUMPDEST POP POP POP SWAP4 SWAP3 POP POP POP JUMP JUMPDEST PUSH0 DUP3 PUSH1 0x1F DUP4 ADD SLT PUSH2 0x192E JUMPI PUSH2 0x192D PUSH2 0x1807 JUMP JUMPDEST JUMPDEST DUP2 CALLDATALOAD PUSH2 0x193E DUP5 DUP3 PUSH1 0x20 DUP7 ADD PUSH2 0x18B2 JUMP JUMPDEST SWAP2 POP POP SWAP3 SWAP2 POP POP JUMP JUMPDEST PUSH0 DUP1 REVERT JUMPDEST PUSH0 PUSH8 0xFFFFFFFFFFFFFFFF DUP3 GT ISZERO PUSH2 0x1965 JUMPI PUSH2 0x1964 PUSH2 0x180B JUMP JUMPDEST JUMPDEST PUSH2 0x196E DUP3 PUSH2 0x179F JUMP JUMPDEST SWAP1 POP PUSH1 0x20 DUP2 ADD SWAP1 POP SWAP2 SWAP1 POP JUMP JUMPDEST DUP3 DUP2 DUP4 CALLDATACOPY PUSH0 DUP4 DUP4 ADD MSTORE POP POP POP JUMP JUMPDEST PUSH0 PUSH2 0x199B PUSH2 0x1996 DUP5 PUSH2 0x194B JUMP JUMPDEST PUSH2 0x1869 JUMP JUMPDEST SWAP1 POP DUP3 DUP2 MSTORE PUSH1 0x20 DUP2 ADD DUP5 DUP5 DUP5 ADD GT ISZERO PUSH2 0x19B7 JUMPI PUSH2 0x19B6 PUSH2 0x1947 JUMP JUMPDEST JUMPDEST PUSH2 0x19C2 DUP5 DUP3 DUP6 PUSH2 0x197B JUMP JUMPDEST POP SWAP4 SWAP3 POP POP POP JUMP JUMPDEST PUSH0 DUP3 PUSH1 0x1F DUP4 ADD SLT PUSH2 0x19DE JUMPI PUSH2 0x19DD PUSH2 0x1807 JUMP JUMPDEST JUMPDEST DUP2 CALLDATALOAD PUSH2 0x19EE DUP5 DUP3 PUSH1 0x20 DUP7 ADD PUSH2 0x1989 JUMP JUMPDEST SWAP2 POP POP SWAP3 SWAP2 POP POP JUMP JUMPDEST PUSH0 DUP1 PUSH0 DUP1 PUSH0 PUSH1 0xA0 DUP7 DUP9 SUB SLT ISZERO PUSH2 0x1A10 JUMPI PUSH2 0x1A0F PUSH2 0x159E JUMP JUMPDEST JUMPDEST PUSH0 PUSH2 0x1A1D DUP9 DUP3 DUP10 ADD PUSH2 0x15EC JUMP JUMPDEST SWAP6 POP POP PUSH1 0x20 PUSH2 0x1A2E DUP9 DUP3 DUP10 ADD PUSH2 0x15EC JUMP JUMPDEST SWAP5 POP POP PUSH1 0x40 DUP7 ADD CALLDATALOAD PUSH8 0xFFFFFFFFFFFFFFFF DUP2 GT ISZERO PUSH2 0x1A4F JUMPI PUSH2 0x1A4E PUSH2 0x15A2 JUMP JUMPDEST JUMPDEST PUSH2 0x1A5B DUP9 DUP3 DUP10 ADD PUSH2 0x191A JUMP JUMPDEST SWAP4 POP POP PUSH1 0x60 DUP7 ADD CALLDATALOAD PUSH8 0xFFFFFFFFFFFFFFFF DUP2 GT ISZERO PUSH2 0x1A7C JUMPI PUSH2 0x1A7B PUSH2 0x15A2 JUMP JUMPDEST JUMPDEST PUSH2 0x1A88 DUP9 DUP3 DUP10 ADD PUSH2 0x191A JUMP JUMPDEST SWAP3 POP POP PUSH1 0x80 DUP7 ADD CALLDATALOAD PUSH8 0xFFFFFFFFFFFFFFFF DUP2 GT ISZERO PUSH2 0x1AA9 JUMPI PUSH2 0x1AA8 PUSH2 0x15A2 JUMP JUMPDEST JUMPDEST PUSH2 0x1AB5 DUP9 DUP3 DUP10 ADD PUSH2 0x19CA JUMP JUMPDEST SWAP2 POP POP SWAP3 SWAP6 POP SWAP3 SWAP6 SWAP1 SWAP4 POP JUMP JUMPDEST PUSH0 PUSH8 0xFFFFFFFFFFFFFFFF DUP3 GT ISZERO PUSH2 0x1ADC JUMPI PUSH2 0x1ADB PUSH2 0x180B JUMP JUMPDEST JUMPDEST PUSH1 0x20 DUP3 MUL SWAP1 POP PUSH1 0x20 DUP2 ADD SWAP1 POP SWAP2 SWAP1 POP JUMP JUMPDEST PUSH0 PUSH2 0x1AFF PUSH2 0x1AFA DUP5 PUSH2 0x1AC2 JUMP JUMPDEST PUSH2 0x1869 JUMP JUMPDEST SWAP1 POP DUP1 DUP4 DUP3 MSTORE PUSH1 0x20 DUP3 ADD SWAP1 POP PUSH1 0x20 DUP5 MUL DUP4 ADD DUP6 DUP2 GT ISZERO PUSH2 0x1B22 JUMPI PUSH2 0x1B21 PUSH2 0x18AE JUMP JUMPDEST JUMPDEST DUP4 JUMPDEST DUP2 DUP2 LT ISZERO PUSH2 0x1B4B JUMPI DUP1 PUSH2 0x1B37 DUP9 DUP3 PUSH2 0x15EC JUMP JUMPDEST DUP5 MSTORE PUSH1 0x20 DUP5 ADD SWAP4 POP POP PUSH1 0x20 DUP2 ADD SWAP1 POP PUSH2 0x1B24 JUMP JUMPDEST POP POP POP SWAP4 SWAP3 POP POP POP JUMP JUMPDEST PUSH0 DUP3 PUSH1 0x1F DUP4 ADD SLT PUSH2 0x1B69 JUMPI PUSH2 0x1B68 PUSH2 0x1807 JUMP JUMPDEST JUMPDEST DUP2 CALLDATALOAD PUSH2 0x1B79 DUP5 DUP3 PUSH1 0x20 DUP7 ADD PUSH2 0x1AED JUMP JUMPDEST SWAP2 POP POP SWAP3 SWAP2 POP POP JUMP JUMPDEST PUSH0 DUP1 PUSH1 0x40 DUP4 DUP6 SUB SLT ISZERO PUSH2 0x1B98 JUMPI PUSH2 0x1B97 PUSH2 0x159E JUMP JUMPDEST JUMPDEST PUSH0 DUP4 ADD CALLDATALOAD PUSH8 0xFFFFFFFFFFFFFFFF DUP2 GT ISZERO PUSH2 0x1BB5 JUMPI PUSH2 0x1BB4 PUSH2 0x15A2 JUMP JUMPDEST JUMPDEST PUSH2 0x1BC1 DUP6 DUP3 DUP7 ADD PUSH2 0x1B55 JUMP JUMPDEST SWAP3 POP POP PUSH1 0x20 DUP4 ADD CALLDATALOAD PUSH8 0xFFFFFFFFFFFFFFFF DUP2 GT ISZERO PUSH2 0x1BE2 JUMPI PUSH2 0x1BE1 PUSH2 0x15A2 JUMP JUMPDEST JUMPDEST PUSH2 0x1BEE DUP6 DUP3 DUP7 ADD PUSH2 0x191A JUMP JUMPDEST SWAP2 POP POP SWAP3 POP SWAP3 SWAP1 POP JUMP JUMPDEST PUSH0 DUP2 MLOAD SWAP1 POP SWAP2 SWAP1 POP JUMP JUMPDEST PUSH0 DUP3 DUP3 MSTORE PUSH1 0x20 DUP3 ADD SWAP1 POP SWAP3 SWAP2 POP POP JUMP JUMPDEST PUSH0 DUP2 SWAP1 POP PUSH1 0x20 DUP3 ADD SWAP1 POP SWAP2 SWAP1 POP JUMP JUMPDEST PUSH2 0x1C2A DUP2 PUSH2 0x1600 JUMP JUMPDEST DUP3 MSTORE POP POP JUMP JUMPDEST PUSH0 PUSH2 0x1C3B DUP4 DUP4 PUSH2 0x1C21 JUMP JUMPDEST PUSH1 0x20 DUP4 ADD SWAP1 POP SWAP3 SWAP2 POP POP JUMP JUMPDEST PUSH0 PUSH1 0x20 DUP3 ADD SWAP1 POP SWAP2 SWAP1 POP JUMP JUMPDEST PUSH0 PUSH2 0x1C5D DUP3 PUSH2 0x1BF8 JUMP JUMPDEST PUSH2 0x1C67 DUP2 DUP6 PUSH2 0x1C02 JUMP JUMPDEST SWAP4 POP PUSH2 0x1C72 DUP4 PUSH2 0x1C12 JUMP JUMPDEST DUP1 PUSH0 JUMPDEST DUP4 DUP2 LT ISZERO PUSH2 0x1CA2 JUMPI DUP2 MLOAD PUSH2 0x1C89 DUP9 DUP3 PUSH2 0x1C30 JUMP JUMPDEST SWAP8 POP PUSH2 0x1C94 DUP4 PUSH2 0x1C47 JUMP JUMPDEST SWAP3 POP POP PUSH1 0x1 DUP2 ADD SWAP1 POP PUSH2 0x1C75 JUMP JUMPDEST POP DUP6 SWAP4 POP POP POP POP SWAP3 SWAP2 POP POP JUMP JUMPDEST PUSH0 PUSH1 0x20 DUP3 ADD SWAP1 POP DUP2 DUP2 SUB PUSH0 DUP4 ADD MSTORE PUSH2 0x1CC7 DUP2 DUP5 PUSH2 0x1C53 JUMP JUMPDEST SWAP1 POP SWAP3 SWAP2 POP POP JUMP JUMPDEST PUSH0 DUP1 PUSH0 DUP1 PUSH1 0x80 DUP6 DUP8 SUB SLT ISZERO PUSH2 0x1CE7 JUMPI PUSH2 0x1CE6 PUSH2 0x159E JUMP JUMPDEST JUMPDEST PUSH0 PUSH2 0x1CF4 DUP8 DUP3 DUP9 ADD PUSH2 0x15EC JUMP JUMPDEST SWAP5 POP POP PUSH1 0x20 PUSH2 0x1D05 DUP8 DUP3 DUP9 ADD PUSH2 0x161F JUMP JUMPDEST SWAP4 POP POP PUSH1 0x40 PUSH2 0x1D16 DUP8 DUP3 DUP9 ADD PUSH2 0x161F JUMP JUMPDEST SWAP3 POP POP PUSH1 0x60 DUP6 ADD CALLDATALOAD PUSH8 0xFFFFFFFFFFFFFFFF DUP2 GT ISZERO PUSH2 0x1D37 JUMPI PUSH2 0x1D36 PUSH2 0x15A2 JUMP JUMPDEST JUMPDEST PUSH2 0x1D43 DUP8 DUP3 DUP9 ADD PUSH2 0x19CA JUMP JUMPDEST SWAP2 POP POP SWAP3 SWAP6 SWAP2 SWAP5 POP SWAP3 POP JUMP JUMPDEST PUSH2 0x1D58 DUP2 PUSH2 0x15C5 JUMP JUMPDEST DUP3 MSTORE POP POP JUMP JUMPDEST PUSH0 PUSH1 0x20 DUP3 ADD SWAP1 POP PUSH2 0x1D71 PUSH0 DUP4 ADD DUP5 PUSH2 0x1D4F JUMP JUMPDEST SWAP3 SWAP2 POP POP JUMP JUMPDEST PUSH2 0x1D80 DUP2 PUSH2 0x1719 JUMP JUMPDEST DUP2 EQ PUSH2 0x1D8A JUMPI PUSH0 DUP1 REVERT JUMPDEST POP JUMP JUMPDEST PUSH0 DUP2 CALLDATALOAD SWAP1 POP PUSH2 0x1D9B DUP2 PUSH2 0x1D77 JUMP JUMPDEST SWAP3 SWAP2 POP POP JUMP JUMPDEST PUSH0 DUP1 PUSH1 0x40 DUP4 DUP6 SUB SLT ISZERO PUSH2 0x1DB7 JUMPI PUSH2 0x1DB6 PUSH2 0x159E JUMP JUMPDEST JUMPDEST PUSH0 PUSH2 0x1DC4 DUP6 DUP3 DUP7 ADD PUSH2 0x15EC JUMP JUMPDEST SWAP3 POP POP PUSH1 0x20 PUSH2 0x1DD5 DUP6 DUP3 DUP7 ADD PUSH2 0x1D8D JUMP JUMPDEST SWAP2 POP POP SWAP3 POP SWAP3 SWAP1 POP JUMP JUMPDEST PUSH0 DUP1 PUSH1 0x40 DUP4 DUP6 SUB SLT ISZERO PUSH2 0x1DF5 JUMPI PUSH2 0x1DF4 PUSH2 0x159E JUMP JUMPDEST JUMPDEST PUSH0 PUSH2 0x1E02 DUP6 DUP3 DUP7 ADD PUSH2 0x15EC JUMP JUMPDEST SWAP3 POP POP PUSH1 0x20 PUSH2 0x1E13 DUP6 DUP3 DUP7 ADD PUSH2 0x15EC JUMP JUMPDEST SWAP2 POP POP SWAP3 POP SWAP3 SWAP1 POP JUMP JUMPDEST PUSH0 DUP1 PUSH0 DUP1 PUSH0 PUSH1 0xA0 DUP7 DUP9 SUB SLT ISZERO PUSH2 0x1E36 JUMPI PUSH2 0x1E35 PUSH2 0x159E JUMP JUMPDEST JUMPDEST PUSH0 PUSH2 0x1E43 DUP9 DUP3 DUP10 ADD PUSH2 0x15EC JUMP JUMPDEST SWAP6 POP POP PUSH1 0x20 PUSH2 0x1E54 DUP9 DUP3 DUP10 ADD PUSH2 0x15EC JUMP JUMPDEST SWAP5 POP POP PUSH1 0x40 PUSH2 0x1E65 DUP9 DUP3 DUP10 ADD PUSH2 0x161F JUMP JUMPDEST SWAP4 POP POP PUSH1 0x60 PUSH2 0x1E76 DUP9 DUP3 DUP10 ADD PUSH2 0x161F JUMP JUMPDEST SWAP3 POP POP PUSH1 0x80 DUP7 ADD CALLDATALOAD PUSH8 0xFFFFFFFFFFFFFFFF DUP2 GT ISZERO PUSH2 0x1E97 JUMPI PUSH2 0x1E96 PUSH2 0x15A2 JUMP JUMPDEST JUMPDEST PUSH2 0x1EA3 DUP9 DUP3 DUP10 ADD PUSH2 0x19CA JUMP JUMPDEST SWAP2 POP POP SWAP3 SWAP6 POP SWAP3 SWAP6 SWAP1 SWAP4 POP JUMP JUMPDEST PUSH0 PUSH1 0x20 DUP3 DUP5 SUB SLT ISZERO PUSH2 0x1EC5 JUMPI PUSH2 0x1EC4 PUSH2 0x159E JUMP JUMPDEST JUMPDEST PUSH0 PUSH2 0x1ED2 DUP5 DUP3 DUP6 ADD PUSH2 0x15EC JUMP JUMPDEST SWAP2 POP POP SWAP3 SWAP2 POP POP JUMP JUMPDEST PUSH32 0x4E487B7100000000000000000000000000000000000000000000000000000000 PUSH0 MSTORE PUSH1 0x22 PUSH1 0x4 MSTORE PUSH1 0x24 PUSH0 REVERT JUMPDEST PUSH0 PUSH1 0x2 DUP3 DIV SWAP1 POP PUSH1 0x1 DUP3 AND DUP1 PUSH2 0x1F1F JUMPI PUSH1 0x7F DUP3 AND SWAP2 POP JUMPDEST PUSH1 0x20 DUP3 LT DUP2 SUB PUSH2 0x1F32 JUMPI PUSH2 0x1F31 PUSH2 0x1EDB JUMP JUMPDEST JUMPDEST POP SWAP2 SWAP1 POP JUMP JUMPDEST PUSH0 PUSH1 0x40 DUP3 ADD SWAP1 POP PUSH2 0x1F4B PUSH0 DUP4 ADD DUP6 PUSH2 0x1D4F JUMP JUMPDEST PUSH2 0x1F58 PUSH1 0x20 DUP4 ADD DUP5 PUSH2 0x1D4F JUMP JUMPDEST SWAP4 SWAP3 POP POP POP JUMP JUMPDEST PUSH0 PUSH1 0x40 DUP3 ADD SWAP1 POP PUSH2 0x1F72 PUSH0 DUP4 ADD DUP6 PUSH2 0x1671 JUMP JUMPDEST PUSH2 0x1F7F PUSH1 0x20 DUP4 ADD DUP5 PUSH2 0x1671 JUMP JUMPDEST SWAP4 SWAP3 POP POP POP JUMP JUMPDEST PUSH32 0x4E487B7100000000000000000000000000000000000000000000000000000000 PUSH0 MSTORE PUSH1 0x32 PUSH1 0x4 MSTORE PUSH1 0x24 PUSH0 REVERT JUMPDEST PUSH0 PUSH1 0x80 DUP3 ADD SWAP1 POP PUSH2 0x1FC6 PUSH0 DUP4 ADD DUP8 PUSH2 0x1D4F JUMP JUMPDEST PUSH2 0x1FD3 PUSH1 0x20 DUP4 ADD DUP7 PUSH2 0x1671 JUMP JUMPDEST PUSH2 0x1FE0 PUSH1 0x40 DUP4 ADD DUP6 PUSH2 0x1671 JUMP JUMPDEST PUSH2 0x1FED PUSH1 0x60 DUP4 ADD DUP5 PUSH2 0x1671 JUMP JUMPDEST SWAP6 SWAP5 POP POP POP POP POP JUMP JUMPDEST PUSH32 0x4E487B7100000000000000000000000000000000000000000000000000000000 PUSH0 MSTORE PUSH1 0x11 PUSH1 0x4 MSTORE PUSH1 0x24 PUSH0 REVERT JUMPDEST PUSH0 PUSH2 0x202D DUP3 PUSH2 0x1600 JUMP JUMPDEST SWAP2 POP PUSH2 0x2038 DUP4 PUSH2 0x1600 JUMP JUMPDEST SWAP3 POP DUP3 DUP3 ADD SWAP1 POP DUP1 DUP3 GT ISZERO PUSH2 0x2050 JUMPI PUSH2 0x204F PUSH2 0x1FF6 JUMP JUMPDEST JUMPDEST SWAP3 SWAP2 POP POP JUMP JUMPDEST PUSH0 PUSH1 0x40 DUP3 ADD SWAP1 POP DUP2 DUP2 SUB PUSH0 DUP4 ADD MSTORE PUSH2 0x206E DUP2 DUP6 PUSH2 0x1C53 JUMP JUMPDEST SWAP1 POP DUP2 DUP2 SUB PUSH1 0x20 DUP4 ADD MSTORE PUSH2 0x2082 DUP2 DUP5 PUSH2 0x1C53 JUMP JUMPDEST SWAP1 POP SWAP4 SWAP3 POP POP POP JUMP JUMPDEST PUSH0 DUP2 MLOAD SWAP1 POP SWAP2 SWAP1 POP JUMP JUMPDEST PUSH0 DUP3 DUP3 MSTORE PUSH1 0x20 DUP3 ADD SWAP1 POP SWAP3 SWAP2 POP POP JUMP JUMPDEST PUSH0 PUSH2 0x20AF DUP3 PUSH2 0x208B JUMP JUMPDEST PUSH2 0x20B9 DUP2 DUP6 PUSH2 0x2095 JUMP JUMPDEST SWAP4 POP PUSH2 0x20C9 DUP2 DUP6 PUSH1 0x20 DUP7 ADD PUSH2 0x1791 JUMP JUMPDEST PUSH2 0x20D2 DUP2 PUSH2 0x179F JUMP JUMPDEST DUP5 ADD SWAP2 POP POP SWAP3 SWAP2 POP POP JUMP JUMPDEST PUSH0 PUSH1 0xA0 DUP3 ADD SWAP1 POP PUSH2 0x20F0 PUSH0 DUP4 ADD DUP9 PUSH2 0x1D4F JUMP JUMPDEST PUSH2 0x20FD PUSH1 0x20 DUP4 ADD DUP8 PUSH2 0x1D4F JUMP JUMPDEST PUSH2 0x210A PUSH1 0x40 DUP4 ADD DUP7 PUSH2 0x1671 JUMP JUMPDEST PUSH2 0x2117 PUSH1 0x60 DUP4 ADD DUP6 PUSH2 0x1671 JUMP JUMPDEST DUP2 DUP2 SUB PUSH1 0x80 DUP4 ADD MSTORE PUSH2 0x2129 DUP2 DUP5 PUSH2 0x20A5 JUMP JUMPDEST SWAP1 POP SWAP7 SWAP6 POP POP POP POP POP POP JUMP JUMPDEST PUSH0 DUP2 MLOAD SWAP1 POP PUSH2 0x2143 DUP2 PUSH2 0x16C4 JUMP JUMPDEST SWAP3 SWAP2 POP POP JUMP JUMPDEST PUSH0 PUSH1 0x20 DUP3 DUP5 SUB SLT ISZERO PUSH2 0x215E JUMPI PUSH2 0x215D PUSH2 0x159E JUMP JUMPDEST JUMPDEST PUSH0 PUSH2 0x216B DUP5 DUP3 DUP6 ADD PUSH2 0x2135 JUMP JUMPDEST SWAP2 POP POP SWAP3 SWAP2 POP POP JUMP JUMPDEST PUSH0 PUSH1 0xA0 DUP3 ADD SWAP1 POP PUSH2 0x2187 PUSH0 DUP4 ADD DUP9 PUSH2 0x1D4F JUMP JUMPDEST PUSH2 0x2194 PUSH1 0x20 DUP4 ADD DUP8 PUSH2 0x1D4F JUMP JUMPDEST DUP2 DUP2 SUB PUSH1 0x40 DUP4 ADD MSTORE PUSH2 0x21A6 DUP2 DUP7 PUSH2 0x1C53 JUMP JUMPDEST SWAP1 POP DUP2 DUP2 SUB PUSH1 0x60 DUP4 ADD MSTORE PUSH2 0x21BA DUP2 DUP6 PUSH2 0x1C53 JUMP JUMPDEST SWAP1 POP DUP2 DUP2 SUB PUSH1 0x80 DUP4 ADD MSTORE PUSH2 0x21CE DUP2 DUP5 PUSH2 0x20A5 JUMP JUMPDEST SWAP1 POP SWAP7 SWAP6 POP POP POP POP POP POP JUMP INVALID LOG2 PUSH5 0x6970667358 0x22 SLT KECCAK256 NOT PUSH12 0xA38F7CC4B4525A926ACF6CA6 GASLIMIT CREATE 0xC GAS TSTORE 0xDB SWAP10 0xBF PUSH28 0xED9940D6F1314FA5E464736F6C634300081A00330000000000000000 "
				},
				"gasEstimates": {
					"creation": {
						"codeDepositCost": "1744000",
						"executionCost": "infinite",
						"totalCost": "infinite"
					},
					"external": {
						"balanceOf(address,uint256)": "infinite",
						"balanceOfBatch(address[],uint256[])": "infinite",
						"isApprovedForAll(address,address)": "infinite",
						"mint(address,uint256,uint256,bytes)": "infinite",
						"owner()": "2537",
						"renounceOwnership()": "infinite",
						"safeBatchTransferFrom(address,address,uint256[],uint256[],bytes)": "infinite",
						"safeTransferFrom(address,address,uint256,uint256,bytes)": "infinite",
						"setApprovalForAll(address,bool)": "infinite",
						"supportsInterface(bytes4)": "786",
						"transferOwnership(address)": "infinite",
						"uri(uint256)": "infinite"
					}
				},
				"methodIdentifiers": {
					"balanceOf(address,uint256)": "00fdd58e",
					"balanceOfBatch(address[],uint256[])": "4e1273f4",
					"isApprovedForAll(address,address)": "e985e9c5",
					"mint(address,uint256,uint256,bytes)": "731133e9",
					"owner()": "8da5cb5b",
					"renounceOwnership()": "715018a6",
					"safeBatchTransferFrom(address,address,uint256[],uint256[],bytes)": "2eb2c2d6",
					"safeTransferFrom(address,address,uint256,uint256,bytes)": "f242432a",
					"setApprovalForAll(address,bool)": "a22cb465",
					"supportsInterface(bytes4)": "01ffc9a7",
					"transferOwnership(address)": "f2fde38b",
					"uri(uint256)": "0e89341c"
				}
			},
			"storageLayout": {
				"storage": [
					{
						"astId": 1735,
						"contract": "VolunteerCollectionNFT_flattened.sol:VolunteerCollectionNFT",
						"label": "_balances",
						"offset": 0,
						"slot": "0",
						"type": "t_mapping(t_uint256,t_mapping(t_address,t_uint256))"
					},
					{
						"astId": 1741,
						"contract": "VolunteerCollectionNFT_flattened.sol:VolunteerCollectionNFT",
						"label": "_operatorApprovals",
						"offset": 0,
						"slot": "1",
						"type": "t_mapping(t_address,t_mapping(t_address,t_bool))"
					},
					{
						"astId": 1743,
						"contract": "VolunteerCollectionNFT_flattened.sol:VolunteerCollectionNFT",
						"label": "_uri",
						"offset": 0,
						"slot": "2",
						"type": "t_string_storage"
					},
					{
						"astId": 2750,
						"contract": "VolunteerCollectionNFT_flattened.sol:VolunteerCollectionNFT",
						"label": "_owner",
						"offset": 0,
						"slot": "3",
						"type": "t_address"
					}
				],
				"types": {
					"t_address": {
						"encoding": "inplace",
						"label": "address",
						"numberOfBytes": "20"
					},
					"t_bool": {
						"encoding": "inplace",
						"label": "bool",
						"numberOfBytes": "1"
					},
					"t_mapping(t_address,t_bool)": {
						"encoding": "mapping",
						"key": "t_address",
						"label": "mapping(address => bool)",
						"numberOfBytes": "32",
						"value": "t_bool"
					},
					"t_mapping(t_address,t_mapping(t_address,t_bool))": {
						"encoding": "mapping",
						"key": "t_address",
						"label": "mapping(address => mapping(address => bool))",
						"numberOfBytes": "32",
						"value": "t_mapping(t_address,t_bool)"
					},
					"t_mapping(t_address,t_uint256)": {
						"encoding": "mapping",
						"key": "t_address",
						"label": "mapping(address => uint256)",
						"numberOfBytes": "32",
						"value": "t_uint256"
					},
					"t_mapping(t_uint256,t_mapping(t_address,t_uint256))": {
						"encoding": "mapping",
						"key": "t_uint256",
						"label": "mapping(uint256 => mapping(address => uint256))",
						"numberOfBytes": "32",
						"value": "t_mapping(t_address,t_uint256)"
					},
					"t_string_storage": {
						"encoding": "bytes",
						"label": "string",
						"numberOfBytes": "32"
					},
					"t_uint256": {
						"encoding": "inplace",
						"label": "uint256",
						"numberOfBytes": "32"
					}
				}
			},
			"userdoc": {
				"kind": "user",
				"methods": {},
				"version": 1
			}
		}
	}
}