{
	"contracts/Volunteer.sol": {
		"Volunteer": {
			"abi": [
				{
					"inputs": [
						{
							"internalType": "uint256",
							"name": "_deadlineSeconds",
							"type": "uint256"
						},
						{
							"internalType": "address",
							"name": "_destinationAddr",
							"type": "address"
						},
						{
							"internalType": "uint256",
							"name": "_minimumDonation",
							"type": "uint256"
						}
					],
					"stateMutability": "nonpayable",
					"type": "constructor"
				},
				{
					"inputs": [],
					"name": "donate",
					"outputs": [],
					"stateMutability": "payable",
					"type": "function"
				},
				{
					"inputs": [],
					"name": "getDonatedTotal",
					"outputs": [
						{
							"internalType": "uint256",
							"name": "",
							"type": "uint256"
						}
					],
					"stateMutability": "view",
					"type": "function"
				},
				{
					"inputs": [
						{
							"internalType": "address",
							"name": "addr",
							"type": "address"
						}
					],
					"name": "getDonationValueByAddr",
					"outputs": [
						{
							"internalType": "uint256",
							"name": "",
							"type": "uint256"
						}
					],
					"stateMutability": "view",
					"type": "function"
				},
				{
					"inputs": [],
					"name": "getDonators",
					"outputs": [
						{
							"internalType": "address[]",
							"name": "",
							"type": "address[]"
						}
					],
					"stateMutability": "view",
					"type": "function"
				},
				{
					"inputs": [],
					"name": "getOwnerAdress",
					"outputs": [
						{
							"internalType": "address",
							"name": "",
							"type": "address"
						}
					],
					"stateMutability": "view",
					"type": "function"
				},
				{
					"inputs": [],
					"name": "isDeadline",
					"outputs": [
						{
							"internalType": "bool",
							"name": "",
							"type": "bool"
						}
					],
					"stateMutability": "view",
					"type": "function"
				},
				{
					"inputs": [
						{
							"internalType": "address",
							"name": "addr",
							"type": "address"
						}
					],
					"name": "setCherityDestinationAddress",
					"outputs": [],
					"stateMutability": "nonpayable",
					"type": "function"
				},
				{
					"inputs": [
						{
							"internalType": "address",
							"name": "addr",
							"type": "address"
						}
					],
					"name": "setCherityRepresentativeAddress",
					"outputs": [],
					"stateMutability": "nonpayable",
					"type": "function"
				},
				{
					"inputs": [
						{
							"internalType": "uint256",
							"name": "_deadline",
							"type": "uint256"
						}
					],
					"name": "setDeadline",
					"outputs": [],
					"stateMutability": "nonpayable",
					"type": "function"
				},
				{
					"inputs": [
						{
							"internalType": "uint256",
							"name": "_minValue",
							"type": "uint256"
						}
					],
					"name": "setMinumumDonationValue",
					"outputs": [],
					"stateMutability": "nonpayable",
					"type": "function"
				},
				{
					"inputs": [],
					"name": "withdraw",
					"outputs": [],
					"stateMutability": "nonpayable",
					"type": "function"
				}
			],
			"devdoc": {
				"kind": "dev",
				"methods": {},
				"version": 1
			},
			"evm": {
				"assembly": "    /* \"contracts/Volunteer.sol\":122:3887  contract Volunteer {... */\n  mstore(0x40, 0x80)\n    /* \"contracts/Volunteer.sol\":599:1047  constructor(uint256 _deadlineSeconds, address _destinationAddr, uint256 _minimumDonation) {... */\n  callvalue\n  dup1\n  iszero\n  tag_1\n  jumpi\n  0x00\n  dup1\n  revert\ntag_1:\n  pop\n  mload(0x40)\n  sub(codesize, bytecodeSize)\n  dup1\n  bytecodeSize\n  dup4\n  codecopy\n  dup2\n  dup2\n  add\n  0x40\n  mstore\n  dup2\n  add\n  swap1\n  tag_2\n  swap2\n  swap1\n  tag_3\n  jump\t// in\ntag_2:\n    /* \"contracts/Volunteer.sol\":711:721  msg.sender */\n  caller\n    /* \"contracts/Volunteer.sol\":699:708  ownerAdrr */\n  0x00\n  dup1\n    /* \"contracts/Volunteer.sol\":699:721  ownerAdrr = msg.sender */\n  0x0100\n  exp\n  dup2\n  sload\n  dup2\n  0xffffffffffffffffffffffffffffffffffffffff\n  mul\n  not\n  and\n  swap1\n  dup4\n  0xffffffffffffffffffffffffffffffffffffffff\n  and\n  mul\n  or\n  swap1\n  sstore\n  pop\n    /* \"contracts/Volunteer.sol\":778:819  setMinumumDonationValue(_minimumDonation) */\n  tag_6\n    /* \"contracts/Volunteer.sol\":802:818  _minimumDonation */\n  dup2\n    /* \"contracts/Volunteer.sol\":778:801  setMinumumDonationValue */\n  shl(0x20, tag_7)\n    /* \"contracts/Volunteer.sol\":778:819  setMinumumDonationValue(_minimumDonation) */\n  0x20\n  shr\n  jump\t// in\ntag_6:\n    /* \"contracts/Volunteer.sol\":840:856  _deadlineSeconds */\n  dup3\n    /* \"contracts/Volunteer.sol\":829:837  deadline */\n  0x05\n    /* \"contracts/Volunteer.sol\":829:856  deadline = _deadlineSeconds */\n  dup2\n  swap1\n  sstore\n  pop\n    /* \"contracts/Volunteer.sol\":895:911  _destinationAddr */\n  dup2\n    /* \"contracts/Volunteer.sol\":866:884  destinationAddress */\n  0x06\n  0x00\n    /* \"contracts/Volunteer.sol\":866:912  destinationAddress = payable(_destinationAddr) */\n  0x0100\n  exp\n  dup2\n  sload\n  dup2\n  0xffffffffffffffffffffffffffffffffffffffff\n  mul\n  not\n  and\n  swap1\n  dup4\n  0xffffffffffffffffffffffffffffffffffffffff\n  and\n  mul\n  or\n  swap1\n  sstore\n  pop\n    /* \"contracts/Volunteer.sol\":946:956  msg.sender */\n  caller\n    /* \"contracts/Volunteer.sol\":922:943  representativeAddress */\n  0x07\n  0x00\n    /* \"contracts/Volunteer.sol\":922:956  representativeAddress = msg.sender */\n  0x0100\n  exp\n  dup2\n  sload\n  dup2\n  0xffffffffffffffffffffffffffffffffffffffff\n  mul\n  not\n  and\n  swap1\n  dup4\n  0xffffffffffffffffffffffffffffffffffffffff\n  and\n  mul\n  or\n  swap1\n  sstore\n  pop\n    /* \"contracts/Volunteer.sol\":1025:1040  block.timestamp */\n  timestamp\n    /* \"contracts/Volunteer.sol\":1008:1022  startTimestamp */\n  0x08\n    /* \"contracts/Volunteer.sol\":1008:1040  startTimestamp = block.timestamp */\n  dup2\n  swap1\n  sstore\n  pop\n    /* \"contracts/Volunteer.sol\":599:1047  constructor(uint256 _deadlineSeconds, address _destinationAddr, uint256 _minimumDonation) {... */\n  pop\n  pop\n  pop\n    /* \"contracts/Volunteer.sol\":122:3887  contract Volunteer {... */\n  jump(tag_8)\n    /* \"contracts/Volunteer.sol\":2727:3019  function setMinumumDonationValue(uint256 _minValue) public isOwner {... */\ntag_7:\n    /* \"contracts/Volunteer.sol\":3471:3480  ownerAdrr */\n  0x00\n  dup1\n  sload\n  swap1\n  0x0100\n  exp\n  swap1\n  div\n  0xffffffffffffffffffffffffffffffffffffffff\n  and\n    /* \"contracts/Volunteer.sol\":3457:3480  msg.sender == ownerAdrr */\n  0xffffffffffffffffffffffffffffffffffffffff\n  and\n    /* \"contracts/Volunteer.sol\":3457:3467  msg.sender */\n  caller\n    /* \"contracts/Volunteer.sol\":3457:3480  msg.sender == ownerAdrr */\n  0xffffffffffffffffffffffffffffffffffffffff\n  and\n  eq\n    /* \"contracts/Volunteer.sol\":3449:3504  require(msg.sender == ownerAdrr, \"Caller is not owner\") */\n  tag_10\n  jumpi\n  mload(0x40)\n  0x08c379a000000000000000000000000000000000000000000000000000000000\n  dup2\n  mstore\n  0x04\n  add\n  tag_11\n  swap1\n  tag_12\n  jump\t// in\ntag_11:\n  mload(0x40)\n  dup1\n  swap2\n  sub\n  swap1\n  revert\ntag_10:\n    /* \"contracts/Volunteer.sol\":531:545  1 ether / 1000 */\n  0x038d7ea4c68000\n    /* \"contracts/Volunteer.sol\":2839:2874  _minValue >= defaultMinimumDonation */\n  0xffffffffffffffff\n  and\n    /* \"contracts/Volunteer.sol\":2839:2848  _minValue */\n  dup2\n    /* \"contracts/Volunteer.sol\":2839:2874  _minValue >= defaultMinimumDonation */\n  lt\n  iszero\n    /* \"contracts/Volunteer.sol\":2890:2930  Strings.toString(defaultMinimumDonation) */\n  tag_14\n    /* \"contracts/Volunteer.sol\":531:545  1 ether / 1000 */\n  0x038d7ea4c68000\n    /* \"contracts/Volunteer.sol\":2890:2930  Strings.toString(defaultMinimumDonation) */\n  0xffffffffffffffff\n  and\n    /* \"contracts/Volunteer.sol\":2890:2906  Strings.toString */\n  shl(0x20, tag_15)\n    /* \"contracts/Volunteer.sol\":2890:2930  Strings.toString(defaultMinimumDonation) */\n  0x20\n  shr\n  jump\t// in\ntag_14:\n    /* \"contracts/Volunteer.sol\":2876:2974  string.concat(Strings.toString(defaultMinimumDonation), \" is minimum value to set lower donation\") */\n  add(0x20, mload(0x40))\n  tag_16\n  swap2\n  swap1\n  tag_17\n  jump\t// in\ntag_16:\n  mload(0x40)\n  0x20\n  dup2\n  dup4\n  sub\n  sub\n  dup2\n  mstore\n  swap1\n  0x40\n  mstore\n    /* \"contracts/Volunteer.sol\":2831:2975  require(_minValue >= defaultMinimumDonation, string.concat(Strings.toString(defaultMinimumDonation), \" is minimum value to set lower donation\")) */\n  swap1\n  tag_18\n  jumpi\n  mload(0x40)\n  0x08c379a000000000000000000000000000000000000000000000000000000000\n  dup2\n  mstore\n  0x04\n  add\n  tag_19\n  swap2\n  swap1\n  tag_20\n  jump\t// in\ntag_19:\n  mload(0x40)\n  dup1\n  swap2\n  sub\n  swap1\n  revert\ntag_18:\n  pop\n    /* \"contracts/Volunteer.sol\":3003:3012  _minValue */\n  dup1\n    /* \"contracts/Volunteer.sol\":2985:3000  minimumDonation */\n  0x04\n    /* \"contracts/Volunteer.sol\":2985:3012  minimumDonation = _minValue */\n  dup2\n  swap1\n  sstore\n  pop\n    /* \"contracts/Volunteer.sol\":2727:3019  function setMinumumDonationValue(uint256 _minValue) public isOwner {... */\n  pop\n  jump\t// out\n    /* \"@openzeppelin/contracts/utils/Strings.sol\":637:1335  function toString(uint256 value) internal pure returns (string memory) {... */\ntag_15:\n    /* \"@openzeppelin/contracts/utils/Strings.sol\":693:706  string memory */\n  0x60\n    /* \"@openzeppelin/contracts/utils/Strings.sol\":742:756  uint256 length */\n  0x00\n    /* \"@openzeppelin/contracts/utils/Strings.sol\":779:780  1 */\n  0x01\n    /* \"@openzeppelin/contracts/utils/Strings.sol\":759:776  Math.log10(value) */\n  tag_22\n    /* \"@openzeppelin/contracts/utils/Strings.sol\":770:775  value */\n  dup5\n    /* \"@openzeppelin/contracts/utils/Strings.sol\":759:769  Math.log10 */\n  shl(0x20, tag_23)\n    /* \"@openzeppelin/contracts/utils/Strings.sol\":759:776  Math.log10(value) */\n  0x20\n  shr\n  jump\t// in\ntag_22:\n    /* \"@openzeppelin/contracts/utils/Strings.sol\":759:780  Math.log10(value) + 1 */\n  add\n    /* \"@openzeppelin/contracts/utils/Strings.sol\":742:780  uint256 length = Math.log10(value) + 1 */\n  swap1\n  pop\n    /* \"@openzeppelin/contracts/utils/Strings.sol\":794:814  string memory buffer */\n  0x00\n    /* \"@openzeppelin/contracts/utils/Strings.sol\":828:834  length */\n  dup2\n    /* \"@openzeppelin/contracts/utils/Strings.sol\":817:835  new string(length) */\n  0xffffffffffffffff\n  dup2\n  gt\n  iszero\n  tag_24\n  jumpi\n  tag_25\n  tag_26\n  jump\t// in\ntag_25:\ntag_24:\n  mload(0x40)\n  swap1\n  dup1\n  dup3\n  mstore\n  dup1\n  0x1f\n  add\n  not(0x1f)\n  and\n  0x20\n  add\n  dup3\n  add\n  0x40\n  mstore\n  dup1\n  iszero\n  tag_27\n  jumpi\n  dup2\n  0x20\n  add\n  0x01\n  dup3\n  mul\n  dup1\n  calldatasize\n  dup4\n  calldatacopy\n  dup1\n  dup3\n  add\n  swap2\n  pop\n  pop\n  swap1\n  pop\ntag_27:\n  pop\n    /* \"@openzeppelin/contracts/utils/Strings.sol\":794:835  string memory buffer = new string(length) */\n  swap1\n  pop\n    /* \"@openzeppelin/contracts/utils/Strings.sol\":849:860  uint256 ptr */\n  0x00\n    /* \"@openzeppelin/contracts/utils/Strings.sol\":975:981  length */\n  dup3\n    /* \"@openzeppelin/contracts/utils/Strings.sol\":971:973  32 */\n  0x20\n    /* \"@openzeppelin/contracts/utils/Strings.sol\":967:982  add(32, length) */\n  add\n    /* \"@openzeppelin/contracts/utils/Strings.sol\":959:965  buffer */\n  dup3\n    /* \"@openzeppelin/contracts/utils/Strings.sol\":955:983  add(buffer, add(32, length)) */\n  add\n    /* \"@openzeppelin/contracts/utils/Strings.sol\":948:983  ptr := add(buffer, add(32, length)) */\n  swap1\n  pop\n    /* \"@openzeppelin/contracts/utils/Strings.sol\":1010:1292  while (true) {... */\ntag_28:\n    /* \"@openzeppelin/contracts/utils/Strings.sol\":1017:1021  true */\n  0x01\n    /* \"@openzeppelin/contracts/utils/Strings.sol\":1010:1292  while (true) {... */\n  iszero\n  tag_29\n  jumpi\n    /* \"@openzeppelin/contracts/utils/Strings.sol\":1041:1046  ptr-- */\n  dup1\n  dup1\n  0x01\n  swap1\n  sub\n  swap2\n  pop\n  pop\n    /* \"@openzeppelin/contracts/utils/Strings.sol\":1180:1190  HEX_DIGITS */\n  0x3031323334353637383961626364656600000000000000000000000000000000\n    /* \"@openzeppelin/contracts/utils/Strings.sol\":1175:1177  10 */\n  0x0a\n    /* \"@openzeppelin/contracts/utils/Strings.sol\":1168:1173  value */\n  dup7\n    /* \"@openzeppelin/contracts/utils/Strings.sol\":1164:1178  mod(value, 10) */\n  mod\n    /* \"@openzeppelin/contracts/utils/Strings.sol\":1159:1191  byte(mod(value, 10), HEX_DIGITS) */\n  byte\n    /* \"@openzeppelin/contracts/utils/Strings.sol\":1154:1157  ptr */\n  dup2\n    /* \"@openzeppelin/contracts/utils/Strings.sol\":1146:1192  mstore8(ptr, byte(mod(value, 10), HEX_DIGITS)) */\n  mstore8\n    /* \"@openzeppelin/contracts/utils/Strings.sol\":1236:1238  10 */\n  0x0a\n    /* \"@openzeppelin/contracts/utils/Strings.sol\":1227:1238  value /= 10 */\n  dup6\n  dup2\n  tag_30\n  jumpi\n  tag_31\n  tag_32\n  jump\t// in\ntag_31:\ntag_30:\n  div\n  swap5\n  pop\n    /* \"@openzeppelin/contracts/utils/Strings.sol\":1269:1270  0 */\n  0x00\n    /* \"@openzeppelin/contracts/utils/Strings.sol\":1260:1265  value */\n  dup6\n    /* \"@openzeppelin/contracts/utils/Strings.sol\":1260:1270  value == 0 */\n  sub\n    /* \"@openzeppelin/contracts/utils/Strings.sol\":1010:1292  while (true) {... */\n  tag_28\n    /* \"@openzeppelin/contracts/utils/Strings.sol\":1256:1277  if (value == 0) break */\n  jumpi\n    /* \"@openzeppelin/contracts/utils/Strings.sol\":1010:1292  while (true) {... */\ntag_29:\n    /* \"@openzeppelin/contracts/utils/Strings.sol\":1312:1318  buffer */\n  dup2\n    /* \"@openzeppelin/contracts/utils/Strings.sol\":1305:1318  return buffer */\n  swap4\n  pop\n  pop\n  pop\n  pop\n    /* \"@openzeppelin/contracts/utils/Strings.sol\":637:1335  function toString(uint256 value) internal pure returns (string memory) {... */\n  swap2\n  swap1\n  pop\n  jump\t// out\n    /* \"@openzeppelin/contracts/utils/math/Math.sol\":12214:13130  function log10(uint256 value) internal pure returns (uint256) {... */\ntag_23:\n    /* \"@openzeppelin/contracts/utils/math/Math.sol\":12267:12274  uint256 */\n  0x00\n    /* \"@openzeppelin/contracts/utils/math/Math.sol\":12286:12300  uint256 result */\n  dup1\n    /* \"@openzeppelin/contracts/utils/math/Math.sol\":12303:12304  0 */\n  0x00\n    /* \"@openzeppelin/contracts/utils/math/Math.sol\":12286:12304  uint256 result = 0 */\n  swap1\n  pop\n    /* \"@openzeppelin/contracts/utils/math/Math.sol\":12351:12359  10 ** 64 */\n  0x184f03e93ff9f4daa797ed6e38ed64bf6a1f010000000000000000\n    /* \"@openzeppelin/contracts/utils/math/Math.sol\":12342:12347  value */\n  dup4\n    /* \"@openzeppelin/contracts/utils/math/Math.sol\":12342:12359  value >= 10 ** 64 */\n  lt\n    /* \"@openzeppelin/contracts/utils/math/Math.sol\":12338:12441  if (value >= 10 ** 64) {... */\n  tag_35\n  jumpi\n    /* \"@openzeppelin/contracts/utils/math/Math.sol\":12388:12396  10 ** 64 */\n  0x184f03e93ff9f4daa797ed6e38ed64bf6a1f010000000000000000\n    /* \"@openzeppelin/contracts/utils/math/Math.sol\":12379:12396  value /= 10 ** 64 */\n  dup4\n  dup2\n  tag_36\n  jumpi\n  tag_37\n  tag_32\n  jump\t// in\ntag_37:\ntag_36:\n  div\n  swap3\n  pop\n    /* \"@openzeppelin/contracts/utils/math/Math.sol\":12424:12426  64 */\n  0x40\n    /* \"@openzeppelin/contracts/utils/math/Math.sol\":12414:12426  result += 64 */\n  dup2\n  add\n  swap1\n  pop\n    /* \"@openzeppelin/contracts/utils/math/Math.sol\":12338:12441  if (value >= 10 ** 64) {... */\ntag_35:\n    /* \"@openzeppelin/contracts/utils/math/Math.sol\":12467:12475  10 ** 32 */\n  0x04ee2d6d415b85acef8100000000\n    /* \"@openzeppelin/contracts/utils/math/Math.sol\":12458:12463  value */\n  dup4\n    /* \"@openzeppelin/contracts/utils/math/Math.sol\":12458:12475  value >= 10 ** 32 */\n  lt\n    /* \"@openzeppelin/contracts/utils/math/Math.sol\":12454:12557  if (value >= 10 ** 32) {... */\n  tag_38\n  jumpi\n    /* \"@openzeppelin/contracts/utils/math/Math.sol\":12504:12512  10 ** 32 */\n  0x04ee2d6d415b85acef8100000000\n    /* \"@openzeppelin/contracts/utils/math/Math.sol\":12495:12512  value /= 10 ** 32 */\n  dup4\n  dup2\n  tag_39\n  jumpi\n  tag_40\n  tag_32\n  jump\t// in\ntag_40:\ntag_39:\n  div\n  swap3\n  pop\n    /* \"@openzeppelin/contracts/utils/math/Math.sol\":12540:12542  32 */\n  0x20\n    /* \"@openzeppelin/contracts/utils/math/Math.sol\":12530:12542  result += 32 */\n  dup2\n  add\n  swap1\n  pop\n    /* \"@openzeppelin/contracts/utils/math/Math.sol\":12454:12557  if (value >= 10 ** 32) {... */\ntag_38:\n    /* \"@openzeppelin/contracts/utils/math/Math.sol\":12583:12591  10 ** 16 */\n  0x2386f26fc10000\n    /* \"@openzeppelin/contracts/utils/math/Math.sol\":12574:12579  value */\n  dup4\n    /* \"@openzeppelin/contracts/utils/math/Math.sol\":12574:12591  value >= 10 ** 16 */\n  lt\n    /* \"@openzeppelin/contracts/utils/math/Math.sol\":12570:12673  if (value >= 10 ** 16) {... */\n  tag_41\n  jumpi\n    /* \"@openzeppelin/contracts/utils/math/Math.sol\":12620:12628  10 ** 16 */\n  0x2386f26fc10000\n    /* \"@openzeppelin/contracts/utils/math/Math.sol\":12611:12628  value /= 10 ** 16 */\n  dup4\n  dup2\n  tag_42\n  jumpi\n  tag_43\n  tag_32\n  jump\t// in\ntag_43:\ntag_42:\n  div\n  swap3\n  pop\n    /* \"@openzeppelin/contracts/utils/math/Math.sol\":12656:12658  16 */\n  0x10\n    /* \"@openzeppelin/contracts/utils/math/Math.sol\":12646:12658  result += 16 */\n  dup2\n  add\n  swap1\n  pop\n    /* \"@openzeppelin/contracts/utils/math/Math.sol\":12570:12673  if (value >= 10 ** 16) {... */\ntag_41:\n    /* \"@openzeppelin/contracts/utils/math/Math.sol\":12699:12706  10 ** 8 */\n  0x05f5e100\n    /* \"@openzeppelin/contracts/utils/math/Math.sol\":12690:12695  value */\n  dup4\n    /* \"@openzeppelin/contracts/utils/math/Math.sol\":12690:12706  value >= 10 ** 8 */\n  lt\n    /* \"@openzeppelin/contracts/utils/math/Math.sol\":12686:12786  if (value >= 10 ** 8) {... */\n  tag_44\n  jumpi\n    /* \"@openzeppelin/contracts/utils/math/Math.sol\":12735:12742  10 ** 8 */\n  0x05f5e100\n    /* \"@openzeppelin/contracts/utils/math/Math.sol\":12726:12742  value /= 10 ** 8 */\n  dup4\n  dup2\n  tag_45\n  jumpi\n  tag_46\n  tag_32\n  jump\t// in\ntag_46:\ntag_45:\n  div\n  swap3\n  pop\n    /* \"@openzeppelin/contracts/utils/math/Math.sol\":12770:12771  8 */\n  0x08\n    /* \"@openzeppelin/contracts/utils/math/Math.sol\":12760:12771  result += 8 */\n  dup2\n  add\n  swap1\n  pop\n    /* \"@openzeppelin/contracts/utils/math/Math.sol\":12686:12786  if (value >= 10 ** 8) {... */\ntag_44:\n    /* \"@openzeppelin/contracts/utils/math/Math.sol\":12812:12819  10 ** 4 */\n  0x2710\n    /* \"@openzeppelin/contracts/utils/math/Math.sol\":12803:12808  value */\n  dup4\n    /* \"@openzeppelin/contracts/utils/math/Math.sol\":12803:12819  value >= 10 ** 4 */\n  lt\n    /* \"@openzeppelin/contracts/utils/math/Math.sol\":12799:12899  if (value >= 10 ** 4) {... */\n  tag_47\n  jumpi\n    /* \"@openzeppelin/contracts/utils/math/Math.sol\":12848:12855  10 ** 4 */\n  0x2710\n    /* \"@openzeppelin/contracts/utils/math/Math.sol\":12839:12855  value /= 10 ** 4 */\n  dup4\n  dup2\n  tag_48\n  jumpi\n  tag_49\n  tag_32\n  jump\t// in\ntag_49:\ntag_48:\n  div\n  swap3\n  pop\n    /* \"@openzeppelin/contracts/utils/math/Math.sol\":12883:12884  4 */\n  0x04\n    /* \"@openzeppelin/contracts/utils/math/Math.sol\":12873:12884  result += 4 */\n  dup2\n  add\n  swap1\n  pop\n    /* \"@openzeppelin/contracts/utils/math/Math.sol\":12799:12899  if (value >= 10 ** 4) {... */\ntag_47:\n    /* \"@openzeppelin/contracts/utils/math/Math.sol\":12925:12932  10 ** 2 */\n  0x64\n    /* \"@openzeppelin/contracts/utils/math/Math.sol\":12916:12921  value */\n  dup4\n    /* \"@openzeppelin/contracts/utils/math/Math.sol\":12916:12932  value >= 10 ** 2 */\n  lt\n    /* \"@openzeppelin/contracts/utils/math/Math.sol\":12912:13012  if (value >= 10 ** 2) {... */\n  tag_50\n  jumpi\n    /* \"@openzeppelin/contracts/utils/math/Math.sol\":12961:12968  10 ** 2 */\n  0x64\n    /* \"@openzeppelin/contracts/utils/math/Math.sol\":12952:12968  value /= 10 ** 2 */\n  dup4\n  dup2\n  tag_51\n  jumpi\n  tag_52\n  tag_32\n  jump\t// in\ntag_52:\ntag_51:\n  div\n  swap3\n  pop\n    /* \"@openzeppelin/contracts/utils/math/Math.sol\":12996:12997  2 */\n  0x02\n    /* \"@openzeppelin/contracts/utils/math/Math.sol\":12986:12997  result += 2 */\n  dup2\n  add\n  swap1\n  pop\n    /* \"@openzeppelin/contracts/utils/math/Math.sol\":12912:13012  if (value >= 10 ** 2) {... */\ntag_50:\n    /* \"@openzeppelin/contracts/utils/math/Math.sol\":13038:13045  10 ** 1 */\n  0x0a\n    /* \"@openzeppelin/contracts/utils/math/Math.sol\":13029:13034  value */\n  dup4\n    /* \"@openzeppelin/contracts/utils/math/Math.sol\":13029:13045  value >= 10 ** 1 */\n  lt\n    /* \"@openzeppelin/contracts/utils/math/Math.sol\":13025:13091  if (value >= 10 ** 1) {... */\n  tag_53\n  jumpi\n    /* \"@openzeppelin/contracts/utils/math/Math.sol\":13075:13076  1 */\n  0x01\n    /* \"@openzeppelin/contracts/utils/math/Math.sol\":13065:13076  result += 1 */\n  dup2\n  add\n  swap1\n  pop\n    /* \"@openzeppelin/contracts/utils/math/Math.sol\":13025:13091  if (value >= 10 ** 1) {... */\ntag_53:\n    /* \"@openzeppelin/contracts/utils/math/Math.sol\":13117:13123  result */\n  dup1\n    /* \"@openzeppelin/contracts/utils/math/Math.sol\":13110:13123  return result */\n  swap2\n  pop\n  pop\n    /* \"@openzeppelin/contracts/utils/math/Math.sol\":12214:13130  function log10(uint256 value) internal pure returns (uint256) {... */\n  swap2\n  swap1\n  pop\n  jump\t// out\n    /* \"#utility.yul\":88:205   */\ntag_55:\n    /* \"#utility.yul\":197:198   */\n  0x00\n    /* \"#utility.yul\":194:195   */\n  dup1\n    /* \"#utility.yul\":187:199   */\n  revert\n    /* \"#utility.yul\":334:411   */\ntag_57:\n    /* \"#utility.yul\":371:378   */\n  0x00\n    /* \"#utility.yul\":400:405   */\n  dup2\n    /* \"#utility.yul\":389:405   */\n  swap1\n  pop\n    /* \"#utility.yul\":334:411   */\n  swap2\n  swap1\n  pop\n  jump\t// out\n    /* \"#utility.yul\":417:539   */\ntag_58:\n    /* \"#utility.yul\":490:514   */\n  tag_81\n    /* \"#utility.yul\":508:513   */\n  dup2\n    /* \"#utility.yul\":490:514   */\n  tag_57\n  jump\t// in\ntag_81:\n    /* \"#utility.yul\":483:488   */\n  dup2\n    /* \"#utility.yul\":480:515   */\n  eq\n    /* \"#utility.yul\":470:533   */\n  tag_82\n  jumpi\n    /* \"#utility.yul\":529:530   */\n  0x00\n    /* \"#utility.yul\":526:527   */\n  dup1\n    /* \"#utility.yul\":519:531   */\n  revert\n    /* \"#utility.yul\":470:533   */\ntag_82:\n    /* \"#utility.yul\":417:539   */\n  pop\n  jump\t// out\n    /* \"#utility.yul\":545:688   */\ntag_59:\n    /* \"#utility.yul\":602:607   */\n  0x00\n    /* \"#utility.yul\":633:639   */\n  dup2\n    /* \"#utility.yul\":627:640   */\n  mload\n    /* \"#utility.yul\":618:640   */\n  swap1\n  pop\n    /* \"#utility.yul\":649:682   */\n  tag_84\n    /* \"#utility.yul\":676:681   */\n  dup2\n    /* \"#utility.yul\":649:682   */\n  tag_58\n  jump\t// in\ntag_84:\n    /* \"#utility.yul\":545:688   */\n  swap3\n  swap2\n  pop\n  pop\n  jump\t// out\n    /* \"#utility.yul\":694:820   */\ntag_60:\n    /* \"#utility.yul\":731:738   */\n  0x00\n    /* \"#utility.yul\":771:813   */\n  0xffffffffffffffffffffffffffffffffffffffff\n    /* \"#utility.yul\":764:769   */\n  dup3\n    /* \"#utility.yul\":760:814   */\n  and\n    /* \"#utility.yul\":749:814   */\n  swap1\n  pop\n    /* \"#utility.yul\":694:820   */\n  swap2\n  swap1\n  pop\n  jump\t// out\n    /* \"#utility.yul\":826:922   */\ntag_61:\n    /* \"#utility.yul\":863:870   */\n  0x00\n    /* \"#utility.yul\":892:916   */\n  tag_87\n    /* \"#utility.yul\":910:915   */\n  dup3\n    /* \"#utility.yul\":892:916   */\n  tag_60\n  jump\t// in\ntag_87:\n    /* \"#utility.yul\":881:916   */\n  swap1\n  pop\n    /* \"#utility.yul\":826:922   */\n  swap2\n  swap1\n  pop\n  jump\t// out\n    /* \"#utility.yul\":928:1050   */\ntag_62:\n    /* \"#utility.yul\":1001:1025   */\n  tag_89\n    /* \"#utility.yul\":1019:1024   */\n  dup2\n    /* \"#utility.yul\":1001:1025   */\n  tag_61\n  jump\t// in\ntag_89:\n    /* \"#utility.yul\":994:999   */\n  dup2\n    /* \"#utility.yul\":991:1026   */\n  eq\n    /* \"#utility.yul\":981:1044   */\n  tag_90\n  jumpi\n    /* \"#utility.yul\":1040:1041   */\n  0x00\n    /* \"#utility.yul\":1037:1038   */\n  dup1\n    /* \"#utility.yul\":1030:1042   */\n  revert\n    /* \"#utility.yul\":981:1044   */\ntag_90:\n    /* \"#utility.yul\":928:1050   */\n  pop\n  jump\t// out\n    /* \"#utility.yul\":1056:1199   */\ntag_63:\n    /* \"#utility.yul\":1113:1118   */\n  0x00\n    /* \"#utility.yul\":1144:1150   */\n  dup2\n    /* \"#utility.yul\":1138:1151   */\n  mload\n    /* \"#utility.yul\":1129:1151   */\n  swap1\n  pop\n    /* \"#utility.yul\":1160:1193   */\n  tag_92\n    /* \"#utility.yul\":1187:1192   */\n  dup2\n    /* \"#utility.yul\":1160:1193   */\n  tag_62\n  jump\t// in\ntag_92:\n    /* \"#utility.yul\":1056:1199   */\n  swap3\n  swap2\n  pop\n  pop\n  jump\t// out\n    /* \"#utility.yul\":1205:1868   */\ntag_3:\n    /* \"#utility.yul\":1293:1299   */\n  0x00\n    /* \"#utility.yul\":1301:1307   */\n  dup1\n    /* \"#utility.yul\":1309:1315   */\n  0x00\n    /* \"#utility.yul\":1358:1360   */\n  0x60\n    /* \"#utility.yul\":1346:1355   */\n  dup5\n    /* \"#utility.yul\":1337:1344   */\n  dup7\n    /* \"#utility.yul\":1333:1356   */\n  sub\n    /* \"#utility.yul\":1329:1361   */\n  slt\n    /* \"#utility.yul\":1326:1445   */\n  iszero\n  tag_94\n  jumpi\n    /* \"#utility.yul\":1364:1443   */\n  tag_95\n  tag_55\n  jump\t// in\ntag_95:\n    /* \"#utility.yul\":1326:1445   */\ntag_94:\n    /* \"#utility.yul\":1484:1485   */\n  0x00\n    /* \"#utility.yul\":1509:1573   */\n  tag_96\n    /* \"#utility.yul\":1565:1572   */\n  dup7\n    /* \"#utility.yul\":1556:1562   */\n  dup3\n    /* \"#utility.yul\":1545:1554   */\n  dup8\n    /* \"#utility.yul\":1541:1563   */\n  add\n    /* \"#utility.yul\":1509:1573   */\n  tag_59\n  jump\t// in\ntag_96:\n    /* \"#utility.yul\":1499:1573   */\n  swap4\n  pop\n    /* \"#utility.yul\":1455:1583   */\n  pop\n    /* \"#utility.yul\":1622:1624   */\n  0x20\n    /* \"#utility.yul\":1648:1712   */\n  tag_97\n    /* \"#utility.yul\":1704:1711   */\n  dup7\n    /* \"#utility.yul\":1695:1701   */\n  dup3\n    /* \"#utility.yul\":1684:1693   */\n  dup8\n    /* \"#utility.yul\":1680:1702   */\n  add\n    /* \"#utility.yul\":1648:1712   */\n  tag_63\n  jump\t// in\ntag_97:\n    /* \"#utility.yul\":1638:1712   */\n  swap3\n  pop\n    /* \"#utility.yul\":1593:1722   */\n  pop\n    /* \"#utility.yul\":1761:1763   */\n  0x40\n    /* \"#utility.yul\":1787:1851   */\n  tag_98\n    /* \"#utility.yul\":1843:1850   */\n  dup7\n    /* \"#utility.yul\":1834:1840   */\n  dup3\n    /* \"#utility.yul\":1823:1832   */\n  dup8\n    /* \"#utility.yul\":1819:1841   */\n  add\n    /* \"#utility.yul\":1787:1851   */\n  tag_59\n  jump\t// in\ntag_98:\n    /* \"#utility.yul\":1777:1851   */\n  swap2\n  pop\n    /* \"#utility.yul\":1732:1861   */\n  pop\n    /* \"#utility.yul\":1205:1868   */\n  swap3\n  pop\n  swap3\n  pop\n  swap3\n  jump\t// out\n    /* \"#utility.yul\":1874:2043   */\ntag_64:\n    /* \"#utility.yul\":1958:1969   */\n  0x00\n    /* \"#utility.yul\":1992:1998   */\n  dup3\n    /* \"#utility.yul\":1987:1990   */\n  dup3\n    /* \"#utility.yul\":1980:1999   */\n  mstore\n    /* \"#utility.yul\":2032:2036   */\n  0x20\n    /* \"#utility.yul\":2027:2030   */\n  dup3\n    /* \"#utility.yul\":2023:2037   */\n  add\n    /* \"#utility.yul\":2008:2037   */\n  swap1\n  pop\n    /* \"#utility.yul\":1874:2043   */\n  swap3\n  swap2\n  pop\n  pop\n  jump\t// out\n    /* \"#utility.yul\":2049:2218   */\ntag_65:\n    /* \"#utility.yul\":2189:2210   */\n  0x43616c6c6572206973206e6f74206f776e657200000000000000000000000000\n    /* \"#utility.yul\":2185:2186   */\n  0x00\n    /* \"#utility.yul\":2177:2183   */\n  dup3\n    /* \"#utility.yul\":2173:2187   */\n  add\n    /* \"#utility.yul\":2166:2211   */\n  mstore\n    /* \"#utility.yul\":2049:2218   */\n  pop\n  jump\t// out\n    /* \"#utility.yul\":2224:2590   */\ntag_66:\n    /* \"#utility.yul\":2366:2369   */\n  0x00\n    /* \"#utility.yul\":2387:2454   */\n  tag_102\n    /* \"#utility.yul\":2451:2453   */\n  0x13\n    /* \"#utility.yul\":2446:2449   */\n  dup4\n    /* \"#utility.yul\":2387:2454   */\n  tag_64\n  jump\t// in\ntag_102:\n    /* \"#utility.yul\":2380:2454   */\n  swap2\n  pop\n    /* \"#utility.yul\":2463:2556   */\n  tag_103\n    /* \"#utility.yul\":2552:2555   */\n  dup3\n    /* \"#utility.yul\":2463:2556   */\n  tag_65\n  jump\t// in\ntag_103:\n    /* \"#utility.yul\":2581:2583   */\n  0x20\n    /* \"#utility.yul\":2576:2579   */\n  dup3\n    /* \"#utility.yul\":2572:2584   */\n  add\n    /* \"#utility.yul\":2565:2584   */\n  swap1\n  pop\n    /* \"#utility.yul\":2224:2590   */\n  swap2\n  swap1\n  pop\n  jump\t// out\n    /* \"#utility.yul\":2596:3015   */\ntag_12:\n    /* \"#utility.yul\":2762:2766   */\n  0x00\n    /* \"#utility.yul\":2800:2802   */\n  0x20\n    /* \"#utility.yul\":2789:2798   */\n  dup3\n    /* \"#utility.yul\":2785:2803   */\n  add\n    /* \"#utility.yul\":2777:2803   */\n  swap1\n  pop\n    /* \"#utility.yul\":2849:2858   */\n  dup2\n    /* \"#utility.yul\":2843:2847   */\n  dup2\n    /* \"#utility.yul\":2839:2859   */\n  sub\n    /* \"#utility.yul\":2835:2836   */\n  0x00\n    /* \"#utility.yul\":2824:2833   */\n  dup4\n    /* \"#utility.yul\":2820:2837   */\n  add\n    /* \"#utility.yul\":2813:2860   */\n  mstore\n    /* \"#utility.yul\":2877:3008   */\n  tag_105\n    /* \"#utility.yul\":3003:3007   */\n  dup2\n    /* \"#utility.yul\":2877:3008   */\n  tag_66\n  jump\t// in\ntag_105:\n    /* \"#utility.yul\":2869:3008   */\n  swap1\n  pop\n    /* \"#utility.yul\":2596:3015   */\n  swap2\n  swap1\n  pop\n  jump\t// out\n    /* \"#utility.yul\":3021:3120   */\ntag_67:\n    /* \"#utility.yul\":3073:3079   */\n  0x00\n    /* \"#utility.yul\":3107:3112   */\n  dup2\n    /* \"#utility.yul\":3101:3113   */\n  mload\n    /* \"#utility.yul\":3091:3113   */\n  swap1\n  pop\n    /* \"#utility.yul\":3021:3120   */\n  swap2\n  swap1\n  pop\n  jump\t// out\n    /* \"#utility.yul\":3126:3274   */\ntag_68:\n    /* \"#utility.yul\":3228:3239   */\n  0x00\n    /* \"#utility.yul\":3265:3268   */\n  dup2\n    /* \"#utility.yul\":3250:3268   */\n  swap1\n  pop\n    /* \"#utility.yul\":3126:3274   */\n  swap3\n  swap2\n  pop\n  pop\n  jump\t// out\n    /* \"#utility.yul\":3280:3419   */\ntag_69:\n    /* \"#utility.yul\":3369:3375   */\n  dup3\n    /* \"#utility.yul\":3364:3367   */\n  dup2\n    /* \"#utility.yul\":3359:3362   */\n  dup4\n    /* \"#utility.yul\":3353:3376   */\n  mcopy\n    /* \"#utility.yul\":3410:3411   */\n  0x00\n    /* \"#utility.yul\":3401:3407   */\n  dup4\n    /* \"#utility.yul\":3396:3399   */\n  dup4\n    /* \"#utility.yul\":3392:3408   */\n  add\n    /* \"#utility.yul\":3385:3412   */\n  mstore\n    /* \"#utility.yul\":3280:3419   */\n  pop\n  pop\n  pop\n  jump\t// out\n    /* \"#utility.yul\":3425:3815   */\ntag_70:\n    /* \"#utility.yul\":3531:3534   */\n  0x00\n    /* \"#utility.yul\":3559:3598   */\n  tag_110\n    /* \"#utility.yul\":3592:3597   */\n  dup3\n    /* \"#utility.yul\":3559:3598   */\n  tag_67\n  jump\t// in\ntag_110:\n    /* \"#utility.yul\":3614:3703   */\n  tag_111\n    /* \"#utility.yul\":3696:3702   */\n  dup2\n    /* \"#utility.yul\":3691:3694   */\n  dup6\n    /* \"#utility.yul\":3614:3703   */\n  tag_68\n  jump\t// in\ntag_111:\n    /* \"#utility.yul\":3607:3703   */\n  swap4\n  pop\n    /* \"#utility.yul\":3712:3777   */\n  tag_112\n    /* \"#utility.yul\":3770:3776   */\n  dup2\n    /* \"#utility.yul\":3765:3768   */\n  dup6\n    /* \"#utility.yul\":3758:3762   */\n  0x20\n    /* \"#utility.yul\":3751:3756   */\n  dup7\n    /* \"#utility.yul\":3747:3763   */\n  add\n    /* \"#utility.yul\":3712:3777   */\n  tag_69\n  jump\t// in\ntag_112:\n    /* \"#utility.yul\":3802:3808   */\n  dup1\n    /* \"#utility.yul\":3797:3800   */\n  dup5\n    /* \"#utility.yul\":3793:3809   */\n  add\n    /* \"#utility.yul\":3786:3809   */\n  swap2\n  pop\n    /* \"#utility.yul\":3535:3815   */\n  pop\n    /* \"#utility.yul\":3425:3815   */\n  swap3\n  swap2\n  pop\n  pop\n  jump\t// out\n    /* \"#utility.yul\":3821:4047   */\ntag_71:\n    /* \"#utility.yul\":3961:3995   */\n  0x206973206d696e696d756d2076616c756520746f20736574206c6f7765722064\n    /* \"#utility.yul\":3957:3958   */\n  0x00\n    /* \"#utility.yul\":3949:3955   */\n  dup3\n    /* \"#utility.yul\":3945:3959   */\n  add\n    /* \"#utility.yul\":3938:3996   */\n  mstore\n    /* \"#utility.yul\":4030:4039   */\n  0x6f6e6174696f6e00000000000000000000000000000000000000000000000000\n    /* \"#utility.yul\":4025:4027   */\n  0x20\n    /* \"#utility.yul\":4017:4023   */\n  dup3\n    /* \"#utility.yul\":4013:4028   */\n  add\n    /* \"#utility.yul\":4006:4040   */\n  mstore\n    /* \"#utility.yul\":3821:4047   */\n  pop\n  jump\t// out\n    /* \"#utility.yul\":4053:4455   */\ntag_72:\n    /* \"#utility.yul\":4213:4216   */\n  0x00\n    /* \"#utility.yul\":4234:4319   */\n  tag_115\n    /* \"#utility.yul\":4316:4318   */\n  0x27\n    /* \"#utility.yul\":4311:4314   */\n  dup4\n    /* \"#utility.yul\":4234:4319   */\n  tag_68\n  jump\t// in\ntag_115:\n    /* \"#utility.yul\":4227:4319   */\n  swap2\n  pop\n    /* \"#utility.yul\":4328:4421   */\n  tag_116\n    /* \"#utility.yul\":4417:4420   */\n  dup3\n    /* \"#utility.yul\":4328:4421   */\n  tag_71\n  jump\t// in\ntag_116:\n    /* \"#utility.yul\":4446:4448   */\n  0x27\n    /* \"#utility.yul\":4441:4444   */\n  dup3\n    /* \"#utility.yul\":4437:4449   */\n  add\n    /* \"#utility.yul\":4430:4449   */\n  swap1\n  pop\n    /* \"#utility.yul\":4053:4455   */\n  swap2\n  swap1\n  pop\n  jump\t// out\n    /* \"#utility.yul\":4461:5002   */\ntag_17:\n    /* \"#utility.yul\":4694:4697   */\n  0x00\n    /* \"#utility.yul\":4716:4811   */\n  tag_118\n    /* \"#utility.yul\":4807:4810   */\n  dup3\n    /* \"#utility.yul\":4798:4804   */\n  dup5\n    /* \"#utility.yul\":4716:4811   */\n  tag_70\n  jump\t// in\ntag_118:\n    /* \"#utility.yul\":4709:4811   */\n  swap2\n  pop\n    /* \"#utility.yul\":4828:4976   */\n  tag_119\n    /* \"#utility.yul\":4972:4975   */\n  dup3\n    /* \"#utility.yul\":4828:4976   */\n  tag_72\n  jump\t// in\ntag_119:\n    /* \"#utility.yul\":4821:4976   */\n  swap2\n  pop\n    /* \"#utility.yul\":4993:4996   */\n  dup2\n    /* \"#utility.yul\":4986:4996   */\n  swap1\n  pop\n    /* \"#utility.yul\":4461:5002   */\n  swap3\n  swap2\n  pop\n  pop\n  jump\t// out\n    /* \"#utility.yul\":5008:5110   */\ntag_73:\n    /* \"#utility.yul\":5049:5055   */\n  0x00\n    /* \"#utility.yul\":5100:5102   */\n  0x1f\n    /* \"#utility.yul\":5096:5103   */\n  not\n    /* \"#utility.yul\":5091:5093   */\n  0x1f\n    /* \"#utility.yul\":5084:5089   */\n  dup4\n    /* \"#utility.yul\":5080:5094   */\n  add\n    /* \"#utility.yul\":5076:5104   */\n  and\n    /* \"#utility.yul\":5066:5104   */\n  swap1\n  pop\n    /* \"#utility.yul\":5008:5110   */\n  swap2\n  swap1\n  pop\n  jump\t// out\n    /* \"#utility.yul\":5116:5493   */\ntag_74:\n    /* \"#utility.yul\":5204:5207   */\n  0x00\n    /* \"#utility.yul\":5232:5271   */\n  tag_122\n    /* \"#utility.yul\":5265:5270   */\n  dup3\n    /* \"#utility.yul\":5232:5271   */\n  tag_67\n  jump\t// in\ntag_122:\n    /* \"#utility.yul\":5287:5358   */\n  tag_123\n    /* \"#utility.yul\":5351:5357   */\n  dup2\n    /* \"#utility.yul\":5346:5349   */\n  dup6\n    /* \"#utility.yul\":5287:5358   */\n  tag_64\n  jump\t// in\ntag_123:\n    /* \"#utility.yul\":5280:5358   */\n  swap4\n  pop\n    /* \"#utility.yul\":5367:5432   */\n  tag_124\n    /* \"#utility.yul\":5425:5431   */\n  dup2\n    /* \"#utility.yul\":5420:5423   */\n  dup6\n    /* \"#utility.yul\":5413:5417   */\n  0x20\n    /* \"#utility.yul\":5406:5411   */\n  dup7\n    /* \"#utility.yul\":5402:5418   */\n  add\n    /* \"#utility.yul\":5367:5432   */\n  tag_69\n  jump\t// in\ntag_124:\n    /* \"#utility.yul\":5457:5486   */\n  tag_125\n    /* \"#utility.yul\":5479:5485   */\n  dup2\n    /* \"#utility.yul\":5457:5486   */\n  tag_73\n  jump\t// in\ntag_125:\n    /* \"#utility.yul\":5452:5455   */\n  dup5\n    /* \"#utility.yul\":5448:5487   */\n  add\n    /* \"#utility.yul\":5441:5487   */\n  swap2\n  pop\n    /* \"#utility.yul\":5208:5493   */\n  pop\n    /* \"#utility.yul\":5116:5493   */\n  swap3\n  swap2\n  pop\n  pop\n  jump\t// out\n    /* \"#utility.yul\":5499:5812   */\ntag_20:\n    /* \"#utility.yul\":5612:5616   */\n  0x00\n    /* \"#utility.yul\":5650:5652   */\n  0x20\n    /* \"#utility.yul\":5639:5648   */\n  dup3\n    /* \"#utility.yul\":5635:5653   */\n  add\n    /* \"#utility.yul\":5627:5653   */\n  swap1\n  pop\n    /* \"#utility.yul\":5699:5708   */\n  dup2\n    /* \"#utility.yul\":5693:5697   */\n  dup2\n    /* \"#utility.yul\":5689:5709   */\n  sub\n    /* \"#utility.yul\":5685:5686   */\n  0x00\n    /* \"#utility.yul\":5674:5683   */\n  dup4\n    /* \"#utility.yul\":5670:5687   */\n  add\n    /* \"#utility.yul\":5663:5710   */\n  mstore\n    /* \"#utility.yul\":5727:5805   */\n  tag_127\n    /* \"#utility.yul\":5800:5804   */\n  dup2\n    /* \"#utility.yul\":5791:5797   */\n  dup5\n    /* \"#utility.yul\":5727:5805   */\n  tag_74\n  jump\t// in\ntag_127:\n    /* \"#utility.yul\":5719:5805   */\n  swap1\n  pop\n    /* \"#utility.yul\":5499:5812   */\n  swap3\n  swap2\n  pop\n  pop\n  jump\t// out\n    /* \"#utility.yul\":5818:5998   */\ntag_26:\n    /* \"#utility.yul\":5866:5943   */\n  0x4e487b7100000000000000000000000000000000000000000000000000000000\n    /* \"#utility.yul\":5863:5864   */\n  0x00\n    /* \"#utility.yul\":5856:5944   */\n  mstore\n    /* \"#utility.yul\":5963:5967   */\n  0x41\n    /* \"#utility.yul\":5960:5961   */\n  0x04\n    /* \"#utility.yul\":5953:5968   */\n  mstore\n    /* \"#utility.yul\":5987:5991   */\n  0x24\n    /* \"#utility.yul\":5984:5985   */\n  0x00\n    /* \"#utility.yul\":5977:5992   */\n  revert\n    /* \"#utility.yul\":6004:6184   */\ntag_32:\n    /* \"#utility.yul\":6052:6129   */\n  0x4e487b7100000000000000000000000000000000000000000000000000000000\n    /* \"#utility.yul\":6049:6050   */\n  0x00\n    /* \"#utility.yul\":6042:6130   */\n  mstore\n    /* \"#utility.yul\":6149:6153   */\n  0x12\n    /* \"#utility.yul\":6146:6147   */\n  0x04\n    /* \"#utility.yul\":6139:6154   */\n  mstore\n    /* \"#utility.yul\":6173:6177   */\n  0x24\n    /* \"#utility.yul\":6170:6171   */\n  0x00\n    /* \"#utility.yul\":6163:6178   */\n  revert\n    /* \"contracts/Volunteer.sol\":122:3887  contract Volunteer {... */\ntag_8:\n  dataSize(sub_0)\n  dup1\n  dataOffset(sub_0)\n  0x00\n  codecopy\n  0x00\n  return\nstop\n\nsub_0: assembly {\n        /* \"contracts/Volunteer.sol\":122:3887  contract Volunteer {... */\n      mstore(0x40, 0x80)\n      jumpi(tag_1, lt(calldatasize, 0x04))\n      shr(0xe0, calldataload(0x00))\n      dup1\n      0x811d36e9\n      gt\n      tag_13\n      jumpi\n      dup1\n      0x811d36e9\n      eq\n      tag_7\n      jumpi\n      dup1\n      0xbf1482fa\n      eq\n      tag_8\n      jumpi\n      dup1\n      0xc12cfa63\n      eq\n      tag_9\n      jumpi\n      dup1\n      0xc2348491\n      eq\n      tag_10\n      jumpi\n      dup1\n      0xc3d6fdf2\n      eq\n      tag_11\n      jumpi\n      dup1\n      0xed88c68e\n      eq\n      tag_12\n      jumpi\n      jump(tag_1)\n    tag_13:\n      dup1\n      0x0ab5d8be\n      eq\n      tag_2\n      jumpi\n      dup1\n      0x195199f6\n      eq\n      tag_3\n      jumpi\n      dup1\n      0x1e09c9ca\n      eq\n      tag_4\n      jumpi\n      dup1\n      0x3ccfd60b\n      eq\n      tag_5\n      jumpi\n      dup1\n      0x528a28b7\n      eq\n      tag_6\n      jumpi\n    tag_1:\n      0x00\n      dup1\n      revert\n        /* \"contracts/Volunteer.sol\":1773:1869  function getDonatedTotal() external view returns (uint256) {... */\n    tag_2:\n      callvalue\n      dup1\n      iszero\n      tag_14\n      jumpi\n      0x00\n      dup1\n      revert\n    tag_14:\n      pop\n      tag_15\n      tag_16\n      jump\t// in\n    tag_15:\n      mload(0x40)\n      tag_17\n      swap2\n      swap1\n      tag_18\n      jump\t// in\n    tag_17:\n      mload(0x40)\n      dup1\n      swap2\n      sub\n      swap1\n      return\n        /* \"contracts/Volunteer.sol\":2247:2341  function setDeadline(uint256 _deadline) external isOwner {... */\n    tag_3:\n      callvalue\n      dup1\n      iszero\n      tag_19\n      jumpi\n      0x00\n      dup1\n      revert\n    tag_19:\n      pop\n      tag_20\n      0x04\n      dup1\n      calldatasize\n      sub\n      dup2\n      add\n      swap1\n      tag_21\n      swap2\n      swap1\n      tag_22\n      jump\t// in\n    tag_21:\n      tag_23\n      jump\t// in\n    tag_20:\n      stop\n        /* \"contracts/Volunteer.sol\":2727:3019  function setMinumumDonationValue(uint256 _minValue) public isOwner {... */\n    tag_4:\n      callvalue\n      dup1\n      iszero\n      tag_24\n      jumpi\n      0x00\n      dup1\n      revert\n    tag_24:\n      pop\n      tag_25\n      0x04\n      dup1\n      calldatasize\n      sub\n      dup2\n      add\n      swap1\n      tag_26\n      swap2\n      swap1\n      tag_22\n      jump\t// in\n    tag_26:\n      tag_27\n      jump\t// in\n    tag_25:\n      stop\n        /* \"contracts/Volunteer.sol\":2347:2721  function withdraw() external isRepresentative {... */\n    tag_5:\n      callvalue\n      dup1\n      iszero\n      tag_28\n      jumpi\n      0x00\n      dup1\n      revert\n    tag_28:\n      pop\n      tag_29\n      tag_30\n      jump\t// in\n    tag_29:\n      stop\n        /* \"contracts/Volunteer.sol\":3025:3145  function isDeadline() public view returns (bool) {... */\n    tag_6:\n      callvalue\n      dup1\n      iszero\n      tag_31\n      jumpi\n      0x00\n      dup1\n      revert\n    tag_31:\n      pop\n      tag_32\n      tag_33\n      jump\t// in\n    tag_32:\n      mload(0x40)\n      tag_34\n      swap2\n      swap1\n      tag_35\n      jump\t// in\n    tag_34:\n      mload(0x40)\n      dup1\n      swap2\n      sub\n      swap1\n      return\n        /* \"contracts/Volunteer.sol\":2124:2241  function setCherityRepresentativeAddress(address addr) external isOwner {... */\n    tag_7:\n      callvalue\n      dup1\n      iszero\n      tag_36\n      jumpi\n      0x00\n      dup1\n      revert\n    tag_36:\n      pop\n      tag_37\n      0x04\n      dup1\n      calldatasize\n      sub\n      dup2\n      add\n      swap1\n      tag_38\n      swap2\n      swap1\n      tag_39\n      jump\t// in\n    tag_38:\n      tag_40\n      jump\t// in\n    tag_37:\n      stop\n        /* \"contracts/Volunteer.sol\":1662:1767  function getDonators() external view returns (address [] memory) {... */\n    tag_8:\n      callvalue\n      dup1\n      iszero\n      tag_41\n      jumpi\n      0x00\n      dup1\n      revert\n    tag_41:\n      pop\n      tag_42\n      tag_43\n      jump\t// in\n    tag_42:\n      mload(0x40)\n      tag_44\n      swap2\n      swap1\n      tag_45\n      jump\t// in\n    tag_44:\n      mload(0x40)\n      dup1\n      swap2\n      sub\n      swap1\n      return\n        /* \"contracts/Volunteer.sol\":1565:1656  function getOwnerAdress() external view returns (address) {... */\n    tag_9:\n      callvalue\n      dup1\n      iszero\n      tag_46\n      jumpi\n      0x00\n      dup1\n      revert\n    tag_46:\n      pop\n      tag_47\n      tag_48\n      jump\t// in\n    tag_47:\n      mload(0x40)\n      tag_49\n      swap2\n      swap1\n      tag_50\n      jump\t// in\n    tag_49:\n      mload(0x40)\n      dup1\n      swap2\n      sub\n      swap1\n      return\n        /* \"contracts/Volunteer.sol\":1998:2118  function setCherityDestinationAddress(address addr) external isOwner {... */\n    tag_10:\n      callvalue\n      dup1\n      iszero\n      tag_51\n      jumpi\n      0x00\n      dup1\n      revert\n    tag_51:\n      pop\n      tag_52\n      0x04\n      dup1\n      calldatasize\n      sub\n      dup2\n      add\n      swap1\n      tag_53\n      swap2\n      swap1\n      tag_39\n      jump\t// in\n    tag_53:\n      tag_54\n      jump\t// in\n    tag_52:\n      stop\n        /* \"contracts/Volunteer.sol\":1875:1992  function getDonationValueByAddr(address addr) external view returns (uint256) {... */\n    tag_11:\n      callvalue\n      dup1\n      iszero\n      tag_55\n      jumpi\n      0x00\n      dup1\n      revert\n    tag_55:\n      pop\n      tag_56\n      0x04\n      dup1\n      calldatasize\n      sub\n      dup2\n      add\n      swap1\n      tag_57\n      swap2\n      swap1\n      tag_39\n      jump\t// in\n    tag_57:\n      tag_58\n      jump\t// in\n    tag_56:\n      mload(0x40)\n      tag_59\n      swap2\n      swap1\n      tag_18\n      jump\t// in\n    tag_59:\n      mload(0x40)\n      dup1\n      swap2\n      sub\n      swap1\n      return\n        /* \"contracts/Volunteer.sol\":1053:1559  function donate() external payable {... */\n    tag_12:\n      tag_60\n      tag_61\n      jump\t// in\n    tag_60:\n      stop\n        /* \"contracts/Volunteer.sol\":1773:1869  function getDonatedTotal() external view returns (uint256) {... */\n    tag_16:\n        /* \"contracts/Volunteer.sol\":1823:1830  uint256 */\n      0x00\n        /* \"contracts/Volunteer.sol\":1849:1862  donationTotal */\n      sload(0x03)\n        /* \"contracts/Volunteer.sol\":1842:1862  return donationTotal */\n      swap1\n      pop\n        /* \"contracts/Volunteer.sol\":1773:1869  function getDonatedTotal() external view returns (uint256) {... */\n      swap1\n      jump\t// out\n        /* \"contracts/Volunteer.sol\":2247:2341  function setDeadline(uint256 _deadline) external isOwner {... */\n    tag_23:\n        /* \"contracts/Volunteer.sol\":3471:3480  ownerAdrr */\n      0x00\n      dup1\n      sload\n      swap1\n      0x0100\n      exp\n      swap1\n      div\n      0xffffffffffffffffffffffffffffffffffffffff\n      and\n        /* \"contracts/Volunteer.sol\":3457:3480  msg.sender == ownerAdrr */\n      0xffffffffffffffffffffffffffffffffffffffff\n      and\n        /* \"contracts/Volunteer.sol\":3457:3467  msg.sender */\n      caller\n        /* \"contracts/Volunteer.sol\":3457:3480  msg.sender == ownerAdrr */\n      0xffffffffffffffffffffffffffffffffffffffff\n      and\n      eq\n        /* \"contracts/Volunteer.sol\":3449:3504  require(msg.sender == ownerAdrr, \"Caller is not owner\") */\n      tag_64\n      jumpi\n      mload(0x40)\n      0x08c379a000000000000000000000000000000000000000000000000000000000\n      dup2\n      mstore\n      0x04\n      add\n      tag_65\n      swap1\n      tag_66\n      jump\t// in\n    tag_65:\n      mload(0x40)\n      dup1\n      swap2\n      sub\n      swap1\n      revert\n    tag_64:\n        /* \"contracts/Volunteer.sol\":2325:2334  _deadline */\n      dup1\n        /* \"contracts/Volunteer.sol\":2314:2322  deadline */\n      0x05\n        /* \"contracts/Volunteer.sol\":2314:2334  deadline = _deadline */\n      dup2\n      swap1\n      sstore\n      pop\n        /* \"contracts/Volunteer.sol\":2247:2341  function setDeadline(uint256 _deadline) external isOwner {... */\n      pop\n      jump\t// out\n        /* \"contracts/Volunteer.sol\":2727:3019  function setMinumumDonationValue(uint256 _minValue) public isOwner {... */\n    tag_27:\n        /* \"contracts/Volunteer.sol\":3471:3480  ownerAdrr */\n      0x00\n      dup1\n      sload\n      swap1\n      0x0100\n      exp\n      swap1\n      div\n      0xffffffffffffffffffffffffffffffffffffffff\n      and\n        /* \"contracts/Volunteer.sol\":3457:3480  msg.sender == ownerAdrr */\n      0xffffffffffffffffffffffffffffffffffffffff\n      and\n        /* \"contracts/Volunteer.sol\":3457:3467  msg.sender */\n      caller\n        /* \"contracts/Volunteer.sol\":3457:3480  msg.sender == ownerAdrr */\n      0xffffffffffffffffffffffffffffffffffffffff\n      and\n      eq\n        /* \"contracts/Volunteer.sol\":3449:3504  require(msg.sender == ownerAdrr, \"Caller is not owner\") */\n      tag_69\n      jumpi\n      mload(0x40)\n      0x08c379a000000000000000000000000000000000000000000000000000000000\n      dup2\n      mstore\n      0x04\n      add\n      tag_70\n      swap1\n      tag_66\n      jump\t// in\n    tag_70:\n      mload(0x40)\n      dup1\n      swap2\n      sub\n      swap1\n      revert\n    tag_69:\n        /* \"contracts/Volunteer.sol\":531:545  1 ether / 1000 */\n      0x038d7ea4c68000\n        /* \"contracts/Volunteer.sol\":2839:2874  _minValue >= defaultMinimumDonation */\n      0xffffffffffffffff\n      and\n        /* \"contracts/Volunteer.sol\":2839:2848  _minValue */\n      dup2\n        /* \"contracts/Volunteer.sol\":2839:2874  _minValue >= defaultMinimumDonation */\n      lt\n      iszero\n        /* \"contracts/Volunteer.sol\":2890:2930  Strings.toString(defaultMinimumDonation) */\n      tag_72\n        /* \"contracts/Volunteer.sol\":531:545  1 ether / 1000 */\n      0x038d7ea4c68000\n        /* \"contracts/Volunteer.sol\":2890:2930  Strings.toString(defaultMinimumDonation) */\n      0xffffffffffffffff\n      and\n        /* \"contracts/Volunteer.sol\":2890:2906  Strings.toString */\n      tag_73\n        /* \"contracts/Volunteer.sol\":2890:2930  Strings.toString(defaultMinimumDonation) */\n      jump\t// in\n    tag_72:\n        /* \"contracts/Volunteer.sol\":2876:2974  string.concat(Strings.toString(defaultMinimumDonation), \" is minimum value to set lower donation\") */\n      add(0x20, mload(0x40))\n      tag_74\n      swap2\n      swap1\n      tag_75\n      jump\t// in\n    tag_74:\n      mload(0x40)\n      0x20\n      dup2\n      dup4\n      sub\n      sub\n      dup2\n      mstore\n      swap1\n      0x40\n      mstore\n        /* \"contracts/Volunteer.sol\":2831:2975  require(_minValue >= defaultMinimumDonation, string.concat(Strings.toString(defaultMinimumDonation), \" is minimum value to set lower donation\")) */\n      swap1\n      tag_76\n      jumpi\n      mload(0x40)\n      0x08c379a000000000000000000000000000000000000000000000000000000000\n      dup2\n      mstore\n      0x04\n      add\n      tag_77\n      swap2\n      swap1\n      tag_78\n      jump\t// in\n    tag_77:\n      mload(0x40)\n      dup1\n      swap2\n      sub\n      swap1\n      revert\n    tag_76:\n      pop\n        /* \"contracts/Volunteer.sol\":3003:3012  _minValue */\n      dup1\n        /* \"contracts/Volunteer.sol\":2985:3000  minimumDonation */\n      0x04\n        /* \"contracts/Volunteer.sol\":2985:3012  minimumDonation = _minValue */\n      dup2\n      swap1\n      sstore\n      pop\n        /* \"contracts/Volunteer.sol\":2727:3019  function setMinumumDonationValue(uint256 _minValue) public isOwner {... */\n      pop\n      jump\t// out\n        /* \"contracts/Volunteer.sol\":2347:2721  function withdraw() external isRepresentative {... */\n    tag_30:\n        /* \"contracts/Volunteer.sol\":3588:3609  representativeAddress */\n      0x07\n      0x00\n      swap1\n      sload\n      swap1\n      0x0100\n      exp\n      swap1\n      div\n      0xffffffffffffffffffffffffffffffffffffffff\n      and\n        /* \"contracts/Volunteer.sol\":3574:3609  msg.sender == representativeAddress */\n      0xffffffffffffffffffffffffffffffffffffffff\n      and\n        /* \"contracts/Volunteer.sol\":3574:3584  msg.sender */\n      caller\n        /* \"contracts/Volunteer.sol\":3574:3609  msg.sender == representativeAddress */\n      0xffffffffffffffffffffffffffffffffffffffff\n      and\n      eq\n        /* \"contracts/Volunteer.sol\":3566:3645  require(msg.sender == representativeAddress, \"Allowed only for representative\") */\n      tag_80\n      jumpi\n      mload(0x40)\n      0x08c379a000000000000000000000000000000000000000000000000000000000\n      dup2\n      mstore\n      0x04\n      add\n      tag_81\n      swap1\n      tag_82\n      jump\t// in\n    tag_81:\n      mload(0x40)\n      dup1\n      swap2\n      sub\n      swap1\n      revert\n    tag_80:\n        /* \"contracts/Volunteer.sol\":2441:2442  0 */\n      0x00\n        /* \"contracts/Volunteer.sol\":2411:2443  destinationAddress != address(0) */\n      0xffffffffffffffffffffffffffffffffffffffff\n      and\n        /* \"contracts/Volunteer.sol\":2411:2429  destinationAddress */\n      0x06\n      0x00\n      swap1\n      sload\n      swap1\n      0x0100\n      exp\n      swap1\n      div\n      0xffffffffffffffffffffffffffffffffffffffff\n      and\n        /* \"contracts/Volunteer.sol\":2411:2443  destinationAddress != address(0) */\n      0xffffffffffffffffffffffffffffffffffffffff\n      and\n      sub\n        /* \"contracts/Volunteer.sol\":2403:2475  require(destinationAddress != address(0), \"Destination addr is not set\") */\n      tag_84\n      jumpi\n      mload(0x40)\n      0x08c379a000000000000000000000000000000000000000000000000000000000\n      dup2\n      mstore\n      0x04\n      add\n      tag_85\n      swap1\n      tag_86\n      jump\t// in\n    tag_85:\n      mload(0x40)\n      dup1\n      swap2\n      sub\n      swap1\n      revert\n    tag_84:\n        /* \"contracts/Volunteer.sol\":2493:2505  isDeadline() */\n      tag_87\n        /* \"contracts/Volunteer.sol\":2493:2503  isDeadline */\n      tag_33\n        /* \"contracts/Volunteer.sol\":2493:2505  isDeadline() */\n      jump\t// in\n    tag_87:\n        /* \"contracts/Volunteer.sol\":2485:2529  require(isDeadline(), \"Is not deadline yet\") */\n      tag_88\n      jumpi\n      mload(0x40)\n      0x08c379a000000000000000000000000000000000000000000000000000000000\n      dup2\n      mstore\n      0x04\n      add\n      tag_89\n      swap1\n      tag_90\n      jump\t// in\n    tag_89:\n      mload(0x40)\n      dup1\n      swap2\n      sub\n      swap1\n      revert\n    tag_88:\n        /* \"contracts/Volunteer.sol\":2540:2552  uint balance */\n      0x00\n        /* \"contracts/Volunteer.sol\":2555:2576  address(this).balance */\n      selfbalance\n        /* \"contracts/Volunteer.sol\":2540:2576  uint balance = address(this).balance */\n      swap1\n      pop\n        /* \"contracts/Volunteer.sol\":2587:2596  bool sent */\n      0x00\n        /* \"contracts/Volunteer.sol\":2598:2615  bytes memory data */\n      dup1\n        /* \"contracts/Volunteer.sol\":2619:2637  destinationAddress */\n      0x06\n      0x00\n      swap1\n      sload\n      swap1\n      0x0100\n      exp\n      swap1\n      div\n      0xffffffffffffffffffffffffffffffffffffffff\n      and\n        /* \"contracts/Volunteer.sol\":2619:2642  destinationAddress.call */\n      0xffffffffffffffffffffffffffffffffffffffff\n      and\n        /* \"contracts/Volunteer.sol\":2650:2657  balance */\n      dup4\n        /* \"contracts/Volunteer.sol\":2619:2662  destinationAddress.call{value: balance}(\"\") */\n      mload(0x40)\n      tag_91\n      swap1\n      tag_92\n      jump\t// in\n    tag_91:\n      0x00\n      mload(0x40)\n      dup1\n      dup4\n      sub\n      dup2\n      dup6\n      dup8\n      gas\n      call\n      swap3\n      pop\n      pop\n      pop\n      returndatasize\n      dup1\n      0x00\n      dup2\n      eq\n      tag_95\n      jumpi\n      mload(0x40)\n      swap2\n      pop\n      and(add(returndatasize, 0x3f), not(0x1f))\n      dup3\n      add\n      0x40\n      mstore\n      returndatasize\n      dup3\n      mstore\n      returndatasize\n      0x00\n      0x20\n      dup5\n      add\n      returndatacopy\n      jump(tag_94)\n    tag_95:\n      0x60\n      swap2\n      pop\n    tag_94:\n      pop\n        /* \"contracts/Volunteer.sol\":2586:2662  (bool sent, bytes memory data) = destinationAddress.call{value: balance}(\"\") */\n      swap2\n      pop\n      swap2\n      pop\n        /* \"contracts/Volunteer.sol\":2680:2684  sent */\n      dup2\n        /* \"contracts/Volunteer.sol\":2672:2713  require(sent, \"Failed to send donations\") */\n      tag_96\n      jumpi\n      mload(0x40)\n      0x08c379a000000000000000000000000000000000000000000000000000000000\n      dup2\n      mstore\n      0x04\n      add\n      tag_97\n      swap1\n      tag_98\n      jump\t// in\n    tag_97:\n      mload(0x40)\n      dup1\n      swap2\n      sub\n      swap1\n      revert\n    tag_96:\n        /* \"contracts/Volunteer.sol\":2393:2721  {... */\n      pop\n      pop\n      pop\n        /* \"contracts/Volunteer.sol\":2347:2721  function withdraw() external isRepresentative {... */\n      jump\t// out\n        /* \"contracts/Volunteer.sol\":3025:3145  function isDeadline() public view returns (bool) {... */\n    tag_33:\n        /* \"contracts/Volunteer.sol\":3068:3072  bool */\n      0x00\n        /* \"contracts/Volunteer.sol\":3129:3137  deadline */\n      sload(0x05)\n        /* \"contracts/Volunteer.sol\":3112:3126  startTimestamp */\n      sload(0x08)\n        /* \"contracts/Volunteer.sol\":3112:3137  startTimestamp + deadline */\n      tag_100\n      swap2\n      swap1\n      tag_101\n      jump\t// in\n    tag_100:\n        /* \"contracts/Volunteer.sol\":3093:3108  block.timestamp */\n      timestamp\n        /* \"contracts/Volunteer.sol\":3093:3137  block.timestamp >= startTimestamp + deadline */\n      lt\n      iszero\n        /* \"contracts/Volunteer.sol\":3085:3138  return (block.timestamp >= startTimestamp + deadline) */\n      swap1\n      pop\n        /* \"contracts/Volunteer.sol\":3025:3145  function isDeadline() public view returns (bool) {... */\n      swap1\n      jump\t// out\n        /* \"contracts/Volunteer.sol\":2124:2241  function setCherityRepresentativeAddress(address addr) external isOwner {... */\n    tag_40:\n        /* \"contracts/Volunteer.sol\":3471:3480  ownerAdrr */\n      0x00\n      dup1\n      sload\n      swap1\n      0x0100\n      exp\n      swap1\n      div\n      0xffffffffffffffffffffffffffffffffffffffff\n      and\n        /* \"contracts/Volunteer.sol\":3457:3480  msg.sender == ownerAdrr */\n      0xffffffffffffffffffffffffffffffffffffffff\n      and\n        /* \"contracts/Volunteer.sol\":3457:3467  msg.sender */\n      caller\n        /* \"contracts/Volunteer.sol\":3457:3480  msg.sender == ownerAdrr */\n      0xffffffffffffffffffffffffffffffffffffffff\n      and\n      eq\n        /* \"contracts/Volunteer.sol\":3449:3504  require(msg.sender == ownerAdrr, \"Caller is not owner\") */\n      tag_103\n      jumpi\n      mload(0x40)\n      0x08c379a000000000000000000000000000000000000000000000000000000000\n      dup2\n      mstore\n      0x04\n      add\n      tag_104\n      swap1\n      tag_66\n      jump\t// in\n    tag_104:\n      mload(0x40)\n      dup1\n      swap2\n      sub\n      swap1\n      revert\n    tag_103:\n        /* \"contracts/Volunteer.sol\":2230:2234  addr */\n      dup1\n        /* \"contracts/Volunteer.sol\":2206:2227  representativeAddress */\n      0x07\n      0x00\n        /* \"contracts/Volunteer.sol\":2206:2234  representativeAddress = addr */\n      0x0100\n      exp\n      dup2\n      sload\n      dup2\n      0xffffffffffffffffffffffffffffffffffffffff\n      mul\n      not\n      and\n      swap1\n      dup4\n      0xffffffffffffffffffffffffffffffffffffffff\n      and\n      mul\n      or\n      swap1\n      sstore\n      pop\n        /* \"contracts/Volunteer.sol\":2124:2241  function setCherityRepresentativeAddress(address addr) external isOwner {... */\n      pop\n      jump\t// out\n        /* \"contracts/Volunteer.sol\":1662:1767  function getDonators() external view returns (address [] memory) {... */\n    tag_43:\n        /* \"contracts/Volunteer.sol\":1708:1725  address [] memory */\n      0x60\n        /* \"contracts/Volunteer.sol\":1744:1760  donatorAddresses */\n      0x02\n        /* \"contracts/Volunteer.sol\":1737:1760  return donatorAddresses */\n      dup1\n      sload\n      dup1\n      0x20\n      mul\n      0x20\n      add\n      mload(0x40)\n      swap1\n      dup2\n      add\n      0x40\n      mstore\n      dup1\n      swap3\n      swap2\n      swap1\n      dup2\n      dup2\n      mstore\n      0x20\n      add\n      dup3\n      dup1\n      sload\n      dup1\n      iszero\n      tag_107\n      jumpi\n      0x20\n      mul\n      dup3\n      add\n      swap2\n      swap1\n      0x00\n      mstore\n      keccak256(0x00, 0x20)\n      swap1\n    tag_108:\n      dup2\n      0x00\n      swap1\n      sload\n      swap1\n      0x0100\n      exp\n      swap1\n      div\n      0xffffffffffffffffffffffffffffffffffffffff\n      and\n      0xffffffffffffffffffffffffffffffffffffffff\n      and\n      dup2\n      mstore\n      0x20\n      add\n      swap1\n      0x01\n      add\n      swap1\n      dup1\n      dup4\n      gt\n      tag_108\n      jumpi\n    tag_107:\n      pop\n      pop\n      pop\n      pop\n      pop\n      swap1\n      pop\n        /* \"contracts/Volunteer.sol\":1662:1767  function getDonators() external view returns (address [] memory) {... */\n      swap1\n      jump\t// out\n        /* \"contracts/Volunteer.sol\":1565:1656  function getOwnerAdress() external view returns (address) {... */\n    tag_48:\n        /* \"contracts/Volunteer.sol\":1614:1621  address */\n      0x00\n        /* \"contracts/Volunteer.sol\":1640:1649  ownerAdrr */\n      dup1\n      0x00\n      swap1\n      sload\n      swap1\n      0x0100\n      exp\n      swap1\n      div\n      0xffffffffffffffffffffffffffffffffffffffff\n      and\n        /* \"contracts/Volunteer.sol\":1633:1649  return ownerAdrr */\n      swap1\n      pop\n        /* \"contracts/Volunteer.sol\":1565:1656  function getOwnerAdress() external view returns (address) {... */\n      swap1\n      jump\t// out\n        /* \"contracts/Volunteer.sol\":1998:2118  function setCherityDestinationAddress(address addr) external isOwner {... */\n    tag_54:\n        /* \"contracts/Volunteer.sol\":3471:3480  ownerAdrr */\n      0x00\n      dup1\n      sload\n      swap1\n      0x0100\n      exp\n      swap1\n      div\n      0xffffffffffffffffffffffffffffffffffffffff\n      and\n        /* \"contracts/Volunteer.sol\":3457:3480  msg.sender == ownerAdrr */\n      0xffffffffffffffffffffffffffffffffffffffff\n      and\n        /* \"contracts/Volunteer.sol\":3457:3467  msg.sender */\n      caller\n        /* \"contracts/Volunteer.sol\":3457:3480  msg.sender == ownerAdrr */\n      0xffffffffffffffffffffffffffffffffffffffff\n      and\n      eq\n        /* \"contracts/Volunteer.sol\":3449:3504  require(msg.sender == ownerAdrr, \"Caller is not owner\") */\n      tag_111\n      jumpi\n      mload(0x40)\n      0x08c379a000000000000000000000000000000000000000000000000000000000\n      dup2\n      mstore\n      0x04\n      add\n      tag_112\n      swap1\n      tag_66\n      jump\t// in\n    tag_112:\n      mload(0x40)\n      dup1\n      swap2\n      sub\n      swap1\n      revert\n    tag_111:\n        /* \"contracts/Volunteer.sol\":2106:2110  addr */\n      dup1\n        /* \"contracts/Volunteer.sol\":2077:2095  destinationAddress */\n      0x06\n      0x00\n        /* \"contracts/Volunteer.sol\":2077:2111  destinationAddress = payable(addr) */\n      0x0100\n      exp\n      dup2\n      sload\n      dup2\n      0xffffffffffffffffffffffffffffffffffffffff\n      mul\n      not\n      and\n      swap1\n      dup4\n      0xffffffffffffffffffffffffffffffffffffffff\n      and\n      mul\n      or\n      swap1\n      sstore\n      pop\n        /* \"contracts/Volunteer.sol\":1998:2118  function setCherityDestinationAddress(address addr) external isOwner {... */\n      pop\n      jump\t// out\n        /* \"contracts/Volunteer.sol\":1875:1992  function getDonationValueByAddr(address addr) external view returns (uint256) {... */\n    tag_58:\n        /* \"contracts/Volunteer.sol\":1944:1951  uint256 */\n      0x00\n        /* \"contracts/Volunteer.sol\":1970:1979  donations */\n      0x01\n        /* \"contracts/Volunteer.sol\":1970:1985  donations[addr] */\n      0x00\n        /* \"contracts/Volunteer.sol\":1980:1984  addr */\n      dup4\n        /* \"contracts/Volunteer.sol\":1970:1985  donations[addr] */\n      0xffffffffffffffffffffffffffffffffffffffff\n      and\n      0xffffffffffffffffffffffffffffffffffffffff\n      and\n      dup2\n      mstore\n      0x20\n      add\n      swap1\n      dup2\n      mstore\n      0x20\n      add\n      0x00\n      keccak256\n      sload\n        /* \"contracts/Volunteer.sol\":1963:1985  return donations[addr] */\n      swap1\n      pop\n        /* \"contracts/Volunteer.sol\":1875:1992  function getDonationValueByAddr(address addr) external view returns (uint256) {... */\n      swap2\n      swap1\n      pop\n      jump\t// out\n        /* \"contracts/Volunteer.sol\":1053:1559  function donate() external payable {... */\n    tag_61:\n        /* \"contracts/Volunteer.sol\":1119:1134  minimumDonation */\n      sload(0x04)\n        /* \"contracts/Volunteer.sol\":1106:1115  msg.value */\n      callvalue\n        /* \"contracts/Volunteer.sol\":1106:1134  msg.value >= minimumDonation */\n      lt\n      iszero\n        /* \"contracts/Volunteer.sol\":1150:1183  Strings.toString(minimumDonation) */\n      tag_116\n        /* \"contracts/Volunteer.sol\":1167:1182  minimumDonation */\n      sload(0x04)\n        /* \"contracts/Volunteer.sol\":1150:1166  Strings.toString */\n      tag_73\n        /* \"contracts/Volunteer.sol\":1150:1183  Strings.toString(minimumDonation) */\n      jump\t// in\n    tag_116:\n        /* \"contracts/Volunteer.sol\":1136:1205  string.concat(Strings.toString(minimumDonation), \" is minimum value\") */\n      add(0x20, mload(0x40))\n      tag_117\n      swap2\n      swap1\n      tag_118\n      jump\t// in\n    tag_117:\n      mload(0x40)\n      0x20\n      dup2\n      dup4\n      sub\n      sub\n      dup2\n      mstore\n      swap1\n      0x40\n      mstore\n        /* \"contracts/Volunteer.sol\":1098:1206  require(msg.value >= minimumDonation, string.concat(Strings.toString(minimumDonation), \" is minimum value\")) */\n      swap1\n      tag_119\n      jumpi\n      mload(0x40)\n      0x08c379a000000000000000000000000000000000000000000000000000000000\n      dup2\n      mstore\n      0x04\n      add\n      tag_120\n      swap2\n      swap1\n      tag_78\n      jump\t// in\n    tag_120:\n      mload(0x40)\n      dup1\n      swap2\n      sub\n      swap1\n      revert\n    tag_119:\n      pop\n        /* \"contracts/Volunteer.sol\":1225:1237  isDeadline() */\n      tag_121\n        /* \"contracts/Volunteer.sol\":1225:1235  isDeadline */\n      tag_33\n        /* \"contracts/Volunteer.sol\":1225:1237  isDeadline() */\n      jump\t// in\n    tag_121:\n        /* \"contracts/Volunteer.sol\":1224:1237  !isDeadline() */\n      iszero\n        /* \"contracts/Volunteer.sol\":1216:1277  require(!isDeadline(), \"Donation not allowed after deadline\") */\n      tag_122\n      jumpi\n      mload(0x40)\n      0x08c379a000000000000000000000000000000000000000000000000000000000\n      dup2\n      mstore\n      0x04\n      add\n      tag_123\n      swap1\n      tag_124\n      jump\t// in\n    tag_123:\n      mload(0x40)\n      dup1\n      swap2\n      sub\n      swap1\n      revert\n    tag_122:\n        /* \"contracts/Volunteer.sol\":1313:1322  msg.value */\n      callvalue\n        /* \"contracts/Volunteer.sol\":1288:1297  donations */\n      0x01\n        /* \"contracts/Volunteer.sol\":1288:1309  donations[msg.sender] */\n      0x00\n        /* \"contracts/Volunteer.sol\":1298:1308  msg.sender */\n      caller\n        /* \"contracts/Volunteer.sol\":1288:1309  donations[msg.sender] */\n      0xffffffffffffffffffffffffffffffffffffffff\n      and\n      0xffffffffffffffffffffffffffffffffffffffff\n      and\n      dup2\n      mstore\n      0x20\n      add\n      swap1\n      dup2\n      mstore\n      0x20\n      add\n      0x00\n      keccak256\n      0x00\n        /* \"contracts/Volunteer.sol\":1288:1322  donations[msg.sender] += msg.value */\n      dup3\n      dup3\n      sload\n      tag_125\n      swap2\n      swap1\n      tag_101\n      jump\t// in\n    tag_125:\n      swap3\n      pop\n      pop\n      dup2\n      swap1\n      sstore\n      pop\n        /* \"contracts/Volunteer.sol\":1338:1386  _existsAddressItem(donatorAddresses, msg.sender) */\n      tag_126\n        /* \"contracts/Volunteer.sol\":1357:1373  donatorAddresses */\n      0x02\n        /* \"contracts/Volunteer.sol\":1338:1386  _existsAddressItem(donatorAddresses, msg.sender) */\n      dup1\n      sload\n      dup1\n      0x20\n      mul\n      0x20\n      add\n      mload(0x40)\n      swap1\n      dup2\n      add\n      0x40\n      mstore\n      dup1\n      swap3\n      swap2\n      swap1\n      dup2\n      dup2\n      mstore\n      0x20\n      add\n      dup3\n      dup1\n      sload\n      dup1\n      iszero\n      tag_127\n      jumpi\n      0x20\n      mul\n      dup3\n      add\n      swap2\n      swap1\n      0x00\n      mstore\n      keccak256(0x00, 0x20)\n      swap1\n    tag_128:\n      dup2\n      0x00\n      swap1\n      sload\n      swap1\n      0x0100\n      exp\n      swap1\n      div\n      0xffffffffffffffffffffffffffffffffffffffff\n      and\n      0xffffffffffffffffffffffffffffffffffffffff\n      and\n      dup2\n      mstore\n      0x20\n      add\n      swap1\n      0x01\n      add\n      swap1\n      dup1\n      dup4\n      gt\n      tag_128\n      jumpi\n    tag_127:\n      pop\n      pop\n      pop\n      pop\n      pop\n        /* \"contracts/Volunteer.sol\":1375:1385  msg.sender */\n      caller\n        /* \"contracts/Volunteer.sol\":1338:1356  _existsAddressItem */\n      tag_129\n        /* \"contracts/Volunteer.sol\":1338:1386  _existsAddressItem(donatorAddresses, msg.sender) */\n      jump\t// in\n    tag_126:\n        /* \"contracts/Volunteer.sol\":1333:1516  if (!_existsAddressItem(donatorAddresses, msg.sender)) {... */\n      tag_130\n      jumpi\n        /* \"contracts/Volunteer.sol\":1472:1488  donatorAddresses */\n      0x02\n        /* \"contracts/Volunteer.sol\":1494:1504  msg.sender */\n      caller\n        /* \"contracts/Volunteer.sol\":1472:1505  donatorAddresses.push(msg.sender) */\n      swap1\n      dup1\n      0x01\n      dup2\n      sload\n      add\n      dup1\n      dup3\n      sstore\n      dup1\n      swap2\n      pop\n      pop\n      0x01\n      swap1\n      sub\n      swap1\n      0x00\n      mstore\n      keccak256(0x00, 0x20)\n      add\n      0x00\n      swap1\n      swap2\n      swap1\n      swap2\n      swap1\n      swap2\n      0x0100\n      exp\n      dup2\n      sload\n      dup2\n      0xffffffffffffffffffffffffffffffffffffffff\n      mul\n      not\n      and\n      swap1\n      dup4\n      0xffffffffffffffffffffffffffffffffffffffff\n      and\n      mul\n      or\n      swap1\n      sstore\n      pop\n        /* \"contracts/Volunteer.sol\":1333:1516  if (!_existsAddressItem(donatorAddresses, msg.sender)) {... */\n    tag_130:\n        /* \"contracts/Volunteer.sol\":1543:1552  msg.value */\n      callvalue\n        /* \"contracts/Volunteer.sol\":1526:1539  donationTotal */\n      0x03\n      0x00\n        /* \"contracts/Volunteer.sol\":1526:1552  donationTotal += msg.value */\n      dup3\n      dup3\n      sload\n      tag_132\n      swap2\n      swap1\n      tag_101\n      jump\t// in\n    tag_132:\n      swap3\n      pop\n      pop\n      dup2\n      swap1\n      sstore\n      pop\n        /* \"contracts/Volunteer.sol\":1053:1559  function donate() external payable {... */\n      jump\t// out\n        /* \"@openzeppelin/contracts/utils/Strings.sol\":637:1335  function toString(uint256 value) internal pure returns (string memory) {... */\n    tag_73:\n        /* \"@openzeppelin/contracts/utils/Strings.sol\":693:706  string memory */\n      0x60\n        /* \"@openzeppelin/contracts/utils/Strings.sol\":742:756  uint256 length */\n      0x00\n        /* \"@openzeppelin/contracts/utils/Strings.sol\":779:780  1 */\n      0x01\n        /* \"@openzeppelin/contracts/utils/Strings.sol\":759:776  Math.log10(value) */\n      tag_134\n        /* \"@openzeppelin/contracts/utils/Strings.sol\":770:775  value */\n      dup5\n        /* \"@openzeppelin/contracts/utils/Strings.sol\":759:769  Math.log10 */\n      tag_135\n        /* \"@openzeppelin/contracts/utils/Strings.sol\":759:776  Math.log10(value) */\n      jump\t// in\n    tag_134:\n        /* \"@openzeppelin/contracts/utils/Strings.sol\":759:780  Math.log10(value) + 1 */\n      add\n        /* \"@openzeppelin/contracts/utils/Strings.sol\":742:780  uint256 length = Math.log10(value) + 1 */\n      swap1\n      pop\n        /* \"@openzeppelin/contracts/utils/Strings.sol\":794:814  string memory buffer */\n      0x00\n        /* \"@openzeppelin/contracts/utils/Strings.sol\":828:834  length */\n      dup2\n        /* \"@openzeppelin/contracts/utils/Strings.sol\":817:835  new string(length) */\n      0xffffffffffffffff\n      dup2\n      gt\n      iszero\n      tag_136\n      jumpi\n      tag_137\n      tag_138\n      jump\t// in\n    tag_137:\n    tag_136:\n      mload(0x40)\n      swap1\n      dup1\n      dup3\n      mstore\n      dup1\n      0x1f\n      add\n      not(0x1f)\n      and\n      0x20\n      add\n      dup3\n      add\n      0x40\n      mstore\n      dup1\n      iszero\n      tag_139\n      jumpi\n      dup2\n      0x20\n      add\n      0x01\n      dup3\n      mul\n      dup1\n      calldatasize\n      dup4\n      calldatacopy\n      dup1\n      dup3\n      add\n      swap2\n      pop\n      pop\n      swap1\n      pop\n    tag_139:\n      pop\n        /* \"@openzeppelin/contracts/utils/Strings.sol\":794:835  string memory buffer = new string(length) */\n      swap1\n      pop\n        /* \"@openzeppelin/contracts/utils/Strings.sol\":849:860  uint256 ptr */\n      0x00\n        /* \"@openzeppelin/contracts/utils/Strings.sol\":975:981  length */\n      dup3\n        /* \"@openzeppelin/contracts/utils/Strings.sol\":971:973  32 */\n      0x20\n        /* \"@openzeppelin/contracts/utils/Strings.sol\":967:982  add(32, length) */\n      add\n        /* \"@openzeppelin/contracts/utils/Strings.sol\":959:965  buffer */\n      dup3\n        /* \"@openzeppelin/contracts/utils/Strings.sol\":955:983  add(buffer, add(32, length)) */\n      add\n        /* \"@openzeppelin/contracts/utils/Strings.sol\":948:983  ptr := add(buffer, add(32, length)) */\n      swap1\n      pop\n        /* \"@openzeppelin/contracts/utils/Strings.sol\":1010:1292  while (true) {... */\n    tag_140:\n        /* \"@openzeppelin/contracts/utils/Strings.sol\":1017:1021  true */\n      0x01\n        /* \"@openzeppelin/contracts/utils/Strings.sol\":1010:1292  while (true) {... */\n      iszero\n      tag_141\n      jumpi\n        /* \"@openzeppelin/contracts/utils/Strings.sol\":1041:1046  ptr-- */\n      dup1\n      dup1\n      0x01\n      swap1\n      sub\n      swap2\n      pop\n      pop\n        /* \"@openzeppelin/contracts/utils/Strings.sol\":1180:1190  HEX_DIGITS */\n      0x3031323334353637383961626364656600000000000000000000000000000000\n        /* \"@openzeppelin/contracts/utils/Strings.sol\":1175:1177  10 */\n      0x0a\n        /* \"@openzeppelin/contracts/utils/Strings.sol\":1168:1173  value */\n      dup7\n        /* \"@openzeppelin/contracts/utils/Strings.sol\":1164:1178  mod(value, 10) */\n      mod\n        /* \"@openzeppelin/contracts/utils/Strings.sol\":1159:1191  byte(mod(value, 10), HEX_DIGITS) */\n      byte\n        /* \"@openzeppelin/contracts/utils/Strings.sol\":1154:1157  ptr */\n      dup2\n        /* \"@openzeppelin/contracts/utils/Strings.sol\":1146:1192  mstore8(ptr, byte(mod(value, 10), HEX_DIGITS)) */\n      mstore8\n        /* \"@openzeppelin/contracts/utils/Strings.sol\":1236:1238  10 */\n      0x0a\n        /* \"@openzeppelin/contracts/utils/Strings.sol\":1227:1238  value /= 10 */\n      dup6\n      dup2\n      tag_142\n      jumpi\n      tag_143\n      tag_144\n      jump\t// in\n    tag_143:\n    tag_142:\n      div\n      swap5\n      pop\n        /* \"@openzeppelin/contracts/utils/Strings.sol\":1269:1270  0 */\n      0x00\n        /* \"@openzeppelin/contracts/utils/Strings.sol\":1260:1265  value */\n      dup6\n        /* \"@openzeppelin/contracts/utils/Strings.sol\":1260:1270  value == 0 */\n      sub\n        /* \"@openzeppelin/contracts/utils/Strings.sol\":1010:1292  while (true) {... */\n      tag_140\n        /* \"@openzeppelin/contracts/utils/Strings.sol\":1256:1277  if (value == 0) break */\n      jumpi\n        /* \"@openzeppelin/contracts/utils/Strings.sol\":1010:1292  while (true) {... */\n    tag_141:\n        /* \"@openzeppelin/contracts/utils/Strings.sol\":1312:1318  buffer */\n      dup2\n        /* \"@openzeppelin/contracts/utils/Strings.sol\":1305:1318  return buffer */\n      swap4\n      pop\n      pop\n      pop\n      pop\n        /* \"@openzeppelin/contracts/utils/Strings.sol\":637:1335  function toString(uint256 value) internal pure returns (string memory) {... */\n      swap2\n      swap1\n      pop\n      jump\t// out\n        /* \"contracts/Volunteer.sol\":3151:3414  function _existsAddressItem(address[] memory array, address addr) private pure returns (bool) {... */\n    tag_129:\n        /* \"contracts/Volunteer.sol\":3239:3243  bool */\n      0x00\n        /* \"contracts/Volunteer.sol\":3260:3266  uint i */\n      dup1\n        /* \"contracts/Volunteer.sol\":3269:3270  0 */\n      0x00\n        /* \"contracts/Volunteer.sol\":3260:3270  uint i = 0 */\n      swap1\n      pop\n        /* \"contracts/Volunteer.sol\":3255:3385  for (uint i = 0; i < array.length; i++) {... */\n    tag_147:\n        /* \"contracts/Volunteer.sol\":3276:3281  array */\n      dup4\n        /* \"contracts/Volunteer.sol\":3276:3288  array.length */\n      mload\n        /* \"contracts/Volunteer.sol\":3272:3273  i */\n      dup2\n        /* \"contracts/Volunteer.sol\":3272:3288  i < array.length */\n      lt\n        /* \"contracts/Volunteer.sol\":3255:3385  for (uint i = 0; i < array.length; i++) {... */\n      iszero\n      tag_148\n      jumpi\n        /* \"contracts/Volunteer.sol\":3325:3329  addr */\n      dup3\n        /* \"contracts/Volunteer.sol\":3313:3329  array[i] == addr */\n      0xffffffffffffffffffffffffffffffffffffffff\n      and\n        /* \"contracts/Volunteer.sol\":3313:3318  array */\n      dup5\n        /* \"contracts/Volunteer.sol\":3319:3320  i */\n      dup3\n        /* \"contracts/Volunteer.sol\":3313:3321  array[i] */\n      dup2\n      mload\n      dup2\n      lt\n      tag_150\n      jumpi\n      tag_151\n      tag_152\n      jump\t// in\n    tag_151:\n    tag_150:\n      0x20\n      mul\n      0x20\n      add\n      add\n      mload\n        /* \"contracts/Volunteer.sol\":3313:3329  array[i] == addr */\n      0xffffffffffffffffffffffffffffffffffffffff\n      and\n      sub\n        /* \"contracts/Volunteer.sol\":3309:3375  if (array[i] == addr) {... */\n      tag_153\n      jumpi\n        /* \"contracts/Volunteer.sol\":3356:3360  true */\n      0x01\n        /* \"contracts/Volunteer.sol\":3349:3360  return true */\n      swap2\n      pop\n      pop\n      jump(tag_146)\n        /* \"contracts/Volunteer.sol\":3309:3375  if (array[i] == addr) {... */\n    tag_153:\n        /* \"contracts/Volunteer.sol\":3290:3293  i++ */\n      dup1\n      dup1\n      0x01\n      add\n      swap2\n      pop\n      pop\n        /* \"contracts/Volunteer.sol\":3255:3385  for (uint i = 0; i < array.length; i++) {... */\n      jump(tag_147)\n    tag_148:\n      pop\n        /* \"contracts/Volunteer.sol\":3402:3407  false */\n      0x00\n        /* \"contracts/Volunteer.sol\":3395:3407  return false */\n      swap1\n      pop\n        /* \"contracts/Volunteer.sol\":3151:3414  function _existsAddressItem(address[] memory array, address addr) private pure returns (bool) {... */\n    tag_146:\n      swap3\n      swap2\n      pop\n      pop\n      jump\t// out\n        /* \"@openzeppelin/contracts/utils/math/Math.sol\":12214:13130  function log10(uint256 value) internal pure returns (uint256) {... */\n    tag_135:\n        /* \"@openzeppelin/contracts/utils/math/Math.sol\":12267:12274  uint256 */\n      0x00\n        /* \"@openzeppelin/contracts/utils/math/Math.sol\":12286:12300  uint256 result */\n      dup1\n        /* \"@openzeppelin/contracts/utils/math/Math.sol\":12303:12304  0 */\n      0x00\n        /* \"@openzeppelin/contracts/utils/math/Math.sol\":12286:12304  uint256 result = 0 */\n      swap1\n      pop\n        /* \"@openzeppelin/contracts/utils/math/Math.sol\":12351:12359  10 ** 64 */\n      0x184f03e93ff9f4daa797ed6e38ed64bf6a1f010000000000000000\n        /* \"@openzeppelin/contracts/utils/math/Math.sol\":12342:12347  value */\n      dup4\n        /* \"@openzeppelin/contracts/utils/math/Math.sol\":12342:12359  value >= 10 ** 64 */\n      lt\n        /* \"@openzeppelin/contracts/utils/math/Math.sol\":12338:12441  if (value >= 10 ** 64) {... */\n      tag_155\n      jumpi\n        /* \"@openzeppelin/contracts/utils/math/Math.sol\":12388:12396  10 ** 64 */\n      0x184f03e93ff9f4daa797ed6e38ed64bf6a1f010000000000000000\n        /* \"@openzeppelin/contracts/utils/math/Math.sol\":12379:12396  value /= 10 ** 64 */\n      dup4\n      dup2\n      tag_156\n      jumpi\n      tag_157\n      tag_144\n      jump\t// in\n    tag_157:\n    tag_156:\n      div\n      swap3\n      pop\n        /* \"@openzeppelin/contracts/utils/math/Math.sol\":12424:12426  64 */\n      0x40\n        /* \"@openzeppelin/contracts/utils/math/Math.sol\":12414:12426  result += 64 */\n      dup2\n      add\n      swap1\n      pop\n        /* \"@openzeppelin/contracts/utils/math/Math.sol\":12338:12441  if (value >= 10 ** 64) {... */\n    tag_155:\n        /* \"@openzeppelin/contracts/utils/math/Math.sol\":12467:12475  10 ** 32 */\n      0x04ee2d6d415b85acef8100000000\n        /* \"@openzeppelin/contracts/utils/math/Math.sol\":12458:12463  value */\n      dup4\n        /* \"@openzeppelin/contracts/utils/math/Math.sol\":12458:12475  value >= 10 ** 32 */\n      lt\n        /* \"@openzeppelin/contracts/utils/math/Math.sol\":12454:12557  if (value >= 10 ** 32) {... */\n      tag_158\n      jumpi\n        /* \"@openzeppelin/contracts/utils/math/Math.sol\":12504:12512  10 ** 32 */\n      0x04ee2d6d415b85acef8100000000\n        /* \"@openzeppelin/contracts/utils/math/Math.sol\":12495:12512  value /= 10 ** 32 */\n      dup4\n      dup2\n      tag_159\n      jumpi\n      tag_160\n      tag_144\n      jump\t// in\n    tag_160:\n    tag_159:\n      div\n      swap3\n      pop\n        /* \"@openzeppelin/contracts/utils/math/Math.sol\":12540:12542  32 */\n      0x20\n        /* \"@openzeppelin/contracts/utils/math/Math.sol\":12530:12542  result += 32 */\n      dup2\n      add\n      swap1\n      pop\n        /* \"@openzeppelin/contracts/utils/math/Math.sol\":12454:12557  if (value >= 10 ** 32) {... */\n    tag_158:\n        /* \"@openzeppelin/contracts/utils/math/Math.sol\":12583:12591  10 ** 16 */\n      0x2386f26fc10000\n        /* \"@openzeppelin/contracts/utils/math/Math.sol\":12574:12579  value */\n      dup4\n        /* \"@openzeppelin/contracts/utils/math/Math.sol\":12574:12591  value >= 10 ** 16 */\n      lt\n        /* \"@openzeppelin/contracts/utils/math/Math.sol\":12570:12673  if (value >= 10 ** 16) {... */\n      tag_161\n      jumpi\n        /* \"@openzeppelin/contracts/utils/math/Math.sol\":12620:12628  10 ** 16 */\n      0x2386f26fc10000\n        /* \"@openzeppelin/contracts/utils/math/Math.sol\":12611:12628  value /= 10 ** 16 */\n      dup4\n      dup2\n      tag_162\n      jumpi\n      tag_163\n      tag_144\n      jump\t// in\n    tag_163:\n    tag_162:\n      div\n      swap3\n      pop\n        /* \"@openzeppelin/contracts/utils/math/Math.sol\":12656:12658  16 */\n      0x10\n        /* \"@openzeppelin/contracts/utils/math/Math.sol\":12646:12658  result += 16 */\n      dup2\n      add\n      swap1\n      pop\n        /* \"@openzeppelin/contracts/utils/math/Math.sol\":12570:12673  if (value >= 10 ** 16) {... */\n    tag_161:\n        /* \"@openzeppelin/contracts/utils/math/Math.sol\":12699:12706  10 ** 8 */\n      0x05f5e100\n        /* \"@openzeppelin/contracts/utils/math/Math.sol\":12690:12695  value */\n      dup4\n        /* \"@openzeppelin/contracts/utils/math/Math.sol\":12690:12706  value >= 10 ** 8 */\n      lt\n        /* \"@openzeppelin/contracts/utils/math/Math.sol\":12686:12786  if (value >= 10 ** 8) {... */\n      tag_164\n      jumpi\n        /* \"@openzeppelin/contracts/utils/math/Math.sol\":12735:12742  10 ** 8 */\n      0x05f5e100\n        /* \"@openzeppelin/contracts/utils/math/Math.sol\":12726:12742  value /= 10 ** 8 */\n      dup4\n      dup2\n      tag_165\n      jumpi\n      tag_166\n      tag_144\n      jump\t// in\n    tag_166:\n    tag_165:\n      div\n      swap3\n      pop\n        /* \"@openzeppelin/contracts/utils/math/Math.sol\":12770:12771  8 */\n      0x08\n        /* \"@openzeppelin/contracts/utils/math/Math.sol\":12760:12771  result += 8 */\n      dup2\n      add\n      swap1\n      pop\n        /* \"@openzeppelin/contracts/utils/math/Math.sol\":12686:12786  if (value >= 10 ** 8) {... */\n    tag_164:\n        /* \"@openzeppelin/contracts/utils/math/Math.sol\":12812:12819  10 ** 4 */\n      0x2710\n        /* \"@openzeppelin/contracts/utils/math/Math.sol\":12803:12808  value */\n      dup4\n        /* \"@openzeppelin/contracts/utils/math/Math.sol\":12803:12819  value >= 10 ** 4 */\n      lt\n        /* \"@openzeppelin/contracts/utils/math/Math.sol\":12799:12899  if (value >= 10 ** 4) {... */\n      tag_167\n      jumpi\n        /* \"@openzeppelin/contracts/utils/math/Math.sol\":12848:12855  10 ** 4 */\n      0x2710\n        /* \"@openzeppelin/contracts/utils/math/Math.sol\":12839:12855  value /= 10 ** 4 */\n      dup4\n      dup2\n      tag_168\n      jumpi\n      tag_169\n      tag_144\n      jump\t// in\n    tag_169:\n    tag_168:\n      div\n      swap3\n      pop\n        /* \"@openzeppelin/contracts/utils/math/Math.sol\":12883:12884  4 */\n      0x04\n        /* \"@openzeppelin/contracts/utils/math/Math.sol\":12873:12884  result += 4 */\n      dup2\n      add\n      swap1\n      pop\n        /* \"@openzeppelin/contracts/utils/math/Math.sol\":12799:12899  if (value >= 10 ** 4) {... */\n    tag_167:\n        /* \"@openzeppelin/contracts/utils/math/Math.sol\":12925:12932  10 ** 2 */\n      0x64\n        /* \"@openzeppelin/contracts/utils/math/Math.sol\":12916:12921  value */\n      dup4\n        /* \"@openzeppelin/contracts/utils/math/Math.sol\":12916:12932  value >= 10 ** 2 */\n      lt\n        /* \"@openzeppelin/contracts/utils/math/Math.sol\":12912:13012  if (value >= 10 ** 2) {... */\n      tag_170\n      jumpi\n        /* \"@openzeppelin/contracts/utils/math/Math.sol\":12961:12968  10 ** 2 */\n      0x64\n        /* \"@openzeppelin/contracts/utils/math/Math.sol\":12952:12968  value /= 10 ** 2 */\n      dup4\n      dup2\n      tag_171\n      jumpi\n      tag_172\n      tag_144\n      jump\t// in\n    tag_172:\n    tag_171:\n      div\n      swap3\n      pop\n        /* \"@openzeppelin/contracts/utils/math/Math.sol\":12996:12997  2 */\n      0x02\n        /* \"@openzeppelin/contracts/utils/math/Math.sol\":12986:12997  result += 2 */\n      dup2\n      add\n      swap1\n      pop\n        /* \"@openzeppelin/contracts/utils/math/Math.sol\":12912:13012  if (value >= 10 ** 2) {... */\n    tag_170:\n        /* \"@openzeppelin/contracts/utils/math/Math.sol\":13038:13045  10 ** 1 */\n      0x0a\n        /* \"@openzeppelin/contracts/utils/math/Math.sol\":13029:13034  value */\n      dup4\n        /* \"@openzeppelin/contracts/utils/math/Math.sol\":13029:13045  value >= 10 ** 1 */\n      lt\n        /* \"@openzeppelin/contracts/utils/math/Math.sol\":13025:13091  if (value >= 10 ** 1) {... */\n      tag_173\n      jumpi\n        /* \"@openzeppelin/contracts/utils/math/Math.sol\":13075:13076  1 */\n      0x01\n        /* \"@openzeppelin/contracts/utils/math/Math.sol\":13065:13076  result += 1 */\n      dup2\n      add\n      swap1\n      pop\n        /* \"@openzeppelin/contracts/utils/math/Math.sol\":13025:13091  if (value >= 10 ** 1) {... */\n    tag_173:\n        /* \"@openzeppelin/contracts/utils/math/Math.sol\":13117:13123  result */\n      dup1\n        /* \"@openzeppelin/contracts/utils/math/Math.sol\":13110:13123  return result */\n      swap2\n      pop\n      pop\n        /* \"@openzeppelin/contracts/utils/math/Math.sol\":12214:13130  function log10(uint256 value) internal pure returns (uint256) {... */\n      swap2\n      swap1\n      pop\n      jump\t// out\n        /* \"#utility.yul\":7:84   */\n    tag_174:\n        /* \"#utility.yul\":44:51   */\n      0x00\n        /* \"#utility.yul\":73:78   */\n      dup2\n        /* \"#utility.yul\":62:78   */\n      swap1\n      pop\n        /* \"#utility.yul\":7:84   */\n      swap2\n      swap1\n      pop\n      jump\t// out\n        /* \"#utility.yul\":90:208   */\n    tag_175:\n        /* \"#utility.yul\":177:201   */\n      tag_224\n        /* \"#utility.yul\":195:200   */\n      dup2\n        /* \"#utility.yul\":177:201   */\n      tag_174\n      jump\t// in\n    tag_224:\n        /* \"#utility.yul\":172:175   */\n      dup3\n        /* \"#utility.yul\":165:202   */\n      mstore\n        /* \"#utility.yul\":90:208   */\n      pop\n      pop\n      jump\t// out\n        /* \"#utility.yul\":214:436   */\n    tag_18:\n        /* \"#utility.yul\":307:311   */\n      0x00\n        /* \"#utility.yul\":345:347   */\n      0x20\n        /* \"#utility.yul\":334:343   */\n      dup3\n        /* \"#utility.yul\":330:348   */\n      add\n        /* \"#utility.yul\":322:348   */\n      swap1\n      pop\n        /* \"#utility.yul\":358:429   */\n      tag_226\n        /* \"#utility.yul\":426:427   */\n      0x00\n        /* \"#utility.yul\":415:424   */\n      dup4\n        /* \"#utility.yul\":411:428   */\n      add\n        /* \"#utility.yul\":402:408   */\n      dup5\n        /* \"#utility.yul\":358:429   */\n      tag_175\n      jump\t// in\n    tag_226:\n        /* \"#utility.yul\":214:436   */\n      swap3\n      swap2\n      pop\n      pop\n      jump\t// out\n        /* \"#utility.yul\":523:640   */\n    tag_177:\n        /* \"#utility.yul\":632:633   */\n      0x00\n        /* \"#utility.yul\":629:630   */\n      dup1\n        /* \"#utility.yul\":622:634   */\n      revert\n        /* \"#utility.yul\":769:891   */\n    tag_179:\n        /* \"#utility.yul\":842:866   */\n      tag_231\n        /* \"#utility.yul\":860:865   */\n      dup2\n        /* \"#utility.yul\":842:866   */\n      tag_174\n      jump\t// in\n    tag_231:\n        /* \"#utility.yul\":835:840   */\n      dup2\n        /* \"#utility.yul\":832:867   */\n      eq\n        /* \"#utility.yul\":822:885   */\n      tag_232\n      jumpi\n        /* \"#utility.yul\":881:882   */\n      0x00\n        /* \"#utility.yul\":878:879   */\n      dup1\n        /* \"#utility.yul\":871:883   */\n      revert\n        /* \"#utility.yul\":822:885   */\n    tag_232:\n        /* \"#utility.yul\":769:891   */\n      pop\n      jump\t// out\n        /* \"#utility.yul\":897:1036   */\n    tag_180:\n        /* \"#utility.yul\":943:948   */\n      0x00\n        /* \"#utility.yul\":981:987   */\n      dup2\n        /* \"#utility.yul\":968:988   */\n      calldataload\n        /* \"#utility.yul\":959:988   */\n      swap1\n      pop\n        /* \"#utility.yul\":997:1030   */\n      tag_234\n        /* \"#utility.yul\":1024:1029   */\n      dup2\n        /* \"#utility.yul\":997:1030   */\n      tag_179\n      jump\t// in\n    tag_234:\n        /* \"#utility.yul\":897:1036   */\n      swap3\n      swap2\n      pop\n      pop\n      jump\t// out\n        /* \"#utility.yul\":1042:1371   */\n    tag_22:\n        /* \"#utility.yul\":1101:1107   */\n      0x00\n        /* \"#utility.yul\":1150:1152   */\n      0x20\n        /* \"#utility.yul\":1138:1147   */\n      dup3\n        /* \"#utility.yul\":1129:1136   */\n      dup5\n        /* \"#utility.yul\":1125:1148   */\n      sub\n        /* \"#utility.yul\":1121:1153   */\n      slt\n        /* \"#utility.yul\":1118:1237   */\n      iszero\n      tag_236\n      jumpi\n        /* \"#utility.yul\":1156:1235   */\n      tag_237\n      tag_177\n      jump\t// in\n    tag_237:\n        /* \"#utility.yul\":1118:1237   */\n    tag_236:\n        /* \"#utility.yul\":1276:1277   */\n      0x00\n        /* \"#utility.yul\":1301:1354   */\n      tag_238\n        /* \"#utility.yul\":1346:1353   */\n      dup5\n        /* \"#utility.yul\":1337:1343   */\n      dup3\n        /* \"#utility.yul\":1326:1335   */\n      dup6\n        /* \"#utility.yul\":1322:1344   */\n      add\n        /* \"#utility.yul\":1301:1354   */\n      tag_180\n      jump\t// in\n    tag_238:\n        /* \"#utility.yul\":1291:1354   */\n      swap2\n      pop\n        /* \"#utility.yul\":1247:1364   */\n      pop\n        /* \"#utility.yul\":1042:1371   */\n      swap3\n      swap2\n      pop\n      pop\n      jump\t// out\n        /* \"#utility.yul\":1377:1467   */\n    tag_181:\n        /* \"#utility.yul\":1411:1418   */\n      0x00\n        /* \"#utility.yul\":1454:1459   */\n      dup2\n        /* \"#utility.yul\":1447:1460   */\n      iszero\n        /* \"#utility.yul\":1440:1461   */\n      iszero\n        /* \"#utility.yul\":1429:1461   */\n      swap1\n      pop\n        /* \"#utility.yul\":1377:1467   */\n      swap2\n      swap1\n      pop\n      jump\t// out\n        /* \"#utility.yul\":1473:1582   */\n    tag_182:\n        /* \"#utility.yul\":1554:1575   */\n      tag_241\n        /* \"#utility.yul\":1569:1574   */\n      dup2\n        /* \"#utility.yul\":1554:1575   */\n      tag_181\n      jump\t// in\n    tag_241:\n        /* \"#utility.yul\":1549:1552   */\n      dup3\n        /* \"#utility.yul\":1542:1576   */\n      mstore\n        /* \"#utility.yul\":1473:1582   */\n      pop\n      pop\n      jump\t// out\n        /* \"#utility.yul\":1588:1798   */\n    tag_35:\n        /* \"#utility.yul\":1675:1679   */\n      0x00\n        /* \"#utility.yul\":1713:1715   */\n      0x20\n        /* \"#utility.yul\":1702:1711   */\n      dup3\n        /* \"#utility.yul\":1698:1716   */\n      add\n        /* \"#utility.yul\":1690:1716   */\n      swap1\n      pop\n        /* \"#utility.yul\":1726:1791   */\n      tag_243\n        /* \"#utility.yul\":1788:1789   */\n      0x00\n        /* \"#utility.yul\":1777:1786   */\n      dup4\n        /* \"#utility.yul\":1773:1790   */\n      add\n        /* \"#utility.yul\":1764:1770   */\n      dup5\n        /* \"#utility.yul\":1726:1791   */\n      tag_182\n      jump\t// in\n    tag_243:\n        /* \"#utility.yul\":1588:1798   */\n      swap3\n      swap2\n      pop\n      pop\n      jump\t// out\n        /* \"#utility.yul\":1804:1930   */\n    tag_183:\n        /* \"#utility.yul\":1841:1848   */\n      0x00\n        /* \"#utility.yul\":1881:1923   */\n      0xffffffffffffffffffffffffffffffffffffffff\n        /* \"#utility.yul\":1874:1879   */\n      dup3\n        /* \"#utility.yul\":1870:1924   */\n      and\n        /* \"#utility.yul\":1859:1924   */\n      swap1\n      pop\n        /* \"#utility.yul\":1804:1930   */\n      swap2\n      swap1\n      pop\n      jump\t// out\n        /* \"#utility.yul\":1936:2032   */\n    tag_184:\n        /* \"#utility.yul\":1973:1980   */\n      0x00\n        /* \"#utility.yul\":2002:2026   */\n      tag_246\n        /* \"#utility.yul\":2020:2025   */\n      dup3\n        /* \"#utility.yul\":2002:2026   */\n      tag_183\n      jump\t// in\n    tag_246:\n        /* \"#utility.yul\":1991:2026   */\n      swap1\n      pop\n        /* \"#utility.yul\":1936:2032   */\n      swap2\n      swap1\n      pop\n      jump\t// out\n        /* \"#utility.yul\":2038:2160   */\n    tag_185:\n        /* \"#utility.yul\":2111:2135   */\n      tag_248\n        /* \"#utility.yul\":2129:2134   */\n      dup2\n        /* \"#utility.yul\":2111:2135   */\n      tag_184\n      jump\t// in\n    tag_248:\n        /* \"#utility.yul\":2104:2109   */\n      dup2\n        /* \"#utility.yul\":2101:2136   */\n      eq\n        /* \"#utility.yul\":2091:2154   */\n      tag_249\n      jumpi\n        /* \"#utility.yul\":2150:2151   */\n      0x00\n        /* \"#utility.yul\":2147:2148   */\n      dup1\n        /* \"#utility.yul\":2140:2152   */\n      revert\n        /* \"#utility.yul\":2091:2154   */\n    tag_249:\n        /* \"#utility.yul\":2038:2160   */\n      pop\n      jump\t// out\n        /* \"#utility.yul\":2166:2305   */\n    tag_186:\n        /* \"#utility.yul\":2212:2217   */\n      0x00\n        /* \"#utility.yul\":2250:2256   */\n      dup2\n        /* \"#utility.yul\":2237:2257   */\n      calldataload\n        /* \"#utility.yul\":2228:2257   */\n      swap1\n      pop\n        /* \"#utility.yul\":2266:2299   */\n      tag_251\n        /* \"#utility.yul\":2293:2298   */\n      dup2\n        /* \"#utility.yul\":2266:2299   */\n      tag_185\n      jump\t// in\n    tag_251:\n        /* \"#utility.yul\":2166:2305   */\n      swap3\n      swap2\n      pop\n      pop\n      jump\t// out\n        /* \"#utility.yul\":2311:2640   */\n    tag_39:\n        /* \"#utility.yul\":2370:2376   */\n      0x00\n        /* \"#utility.yul\":2419:2421   */\n      0x20\n        /* \"#utility.yul\":2407:2416   */\n      dup3\n        /* \"#utility.yul\":2398:2405   */\n      dup5\n        /* \"#utility.yul\":2394:2417   */\n      sub\n        /* \"#utility.yul\":2390:2422   */\n      slt\n        /* \"#utility.yul\":2387:2506   */\n      iszero\n      tag_253\n      jumpi\n        /* \"#utility.yul\":2425:2504   */\n      tag_254\n      tag_177\n      jump\t// in\n    tag_254:\n        /* \"#utility.yul\":2387:2506   */\n    tag_253:\n        /* \"#utility.yul\":2545:2546   */\n      0x00\n        /* \"#utility.yul\":2570:2623   */\n      tag_255\n        /* \"#utility.yul\":2615:2622   */\n      dup5\n        /* \"#utility.yul\":2606:2612   */\n      dup3\n        /* \"#utility.yul\":2595:2604   */\n      dup6\n        /* \"#utility.yul\":2591:2613   */\n      add\n        /* \"#utility.yul\":2570:2623   */\n      tag_186\n      jump\t// in\n    tag_255:\n        /* \"#utility.yul\":2560:2623   */\n      swap2\n      pop\n        /* \"#utility.yul\":2516:2633   */\n      pop\n        /* \"#utility.yul\":2311:2640   */\n      swap3\n      swap2\n      pop\n      pop\n      jump\t// out\n        /* \"#utility.yul\":2646:2760   */\n    tag_187:\n        /* \"#utility.yul\":2713:2719   */\n      0x00\n        /* \"#utility.yul\":2747:2752   */\n      dup2\n        /* \"#utility.yul\":2741:2753   */\n      mload\n        /* \"#utility.yul\":2731:2753   */\n      swap1\n      pop\n        /* \"#utility.yul\":2646:2760   */\n      swap2\n      swap1\n      pop\n      jump\t// out\n        /* \"#utility.yul\":2766:2950   */\n    tag_188:\n        /* \"#utility.yul\":2865:2876   */\n      0x00\n        /* \"#utility.yul\":2899:2905   */\n      dup3\n        /* \"#utility.yul\":2894:2897   */\n      dup3\n        /* \"#utility.yul\":2887:2906   */\n      mstore\n        /* \"#utility.yul\":2939:2943   */\n      0x20\n        /* \"#utility.yul\":2934:2937   */\n      dup3\n        /* \"#utility.yul\":2930:2944   */\n      add\n        /* \"#utility.yul\":2915:2944   */\n      swap1\n      pop\n        /* \"#utility.yul\":2766:2950   */\n      swap3\n      swap2\n      pop\n      pop\n      jump\t// out\n        /* \"#utility.yul\":2956:3088   */\n    tag_189:\n        /* \"#utility.yul\":3023:3027   */\n      0x00\n        /* \"#utility.yul\":3046:3049   */\n      dup2\n        /* \"#utility.yul\":3038:3049   */\n      swap1\n      pop\n        /* \"#utility.yul\":3076:3080   */\n      0x20\n        /* \"#utility.yul\":3071:3074   */\n      dup3\n        /* \"#utility.yul\":3067:3081   */\n      add\n        /* \"#utility.yul\":3059:3081   */\n      swap1\n      pop\n        /* \"#utility.yul\":2956:3088   */\n      swap2\n      swap1\n      pop\n      jump\t// out\n        /* \"#utility.yul\":3094:3202   */\n    tag_190:\n        /* \"#utility.yul\":3171:3195   */\n      tag_260\n        /* \"#utility.yul\":3189:3194   */\n      dup2\n        /* \"#utility.yul\":3171:3195   */\n      tag_184\n      jump\t// in\n    tag_260:\n        /* \"#utility.yul\":3166:3169   */\n      dup3\n        /* \"#utility.yul\":3159:3196   */\n      mstore\n        /* \"#utility.yul\":3094:3202   */\n      pop\n      pop\n      jump\t// out\n        /* \"#utility.yul\":3208:3387   */\n    tag_191:\n        /* \"#utility.yul\":3277:3287   */\n      0x00\n        /* \"#utility.yul\":3298:3344   */\n      tag_262\n        /* \"#utility.yul\":3340:3343   */\n      dup4\n        /* \"#utility.yul\":3332:3338   */\n      dup4\n        /* \"#utility.yul\":3298:3344   */\n      tag_190\n      jump\t// in\n    tag_262:\n        /* \"#utility.yul\":3376:3380   */\n      0x20\n        /* \"#utility.yul\":3371:3374   */\n      dup4\n        /* \"#utility.yul\":3367:3381   */\n      add\n        /* \"#utility.yul\":3353:3381   */\n      swap1\n      pop\n        /* \"#utility.yul\":3208:3387   */\n      swap3\n      swap2\n      pop\n      pop\n      jump\t// out\n        /* \"#utility.yul\":3393:3506   */\n    tag_192:\n        /* \"#utility.yul\":3463:3467   */\n      0x00\n        /* \"#utility.yul\":3495:3499   */\n      0x20\n        /* \"#utility.yul\":3490:3493   */\n      dup3\n        /* \"#utility.yul\":3486:3500   */\n      add\n        /* \"#utility.yul\":3478:3500   */\n      swap1\n      pop\n        /* \"#utility.yul\":3393:3506   */\n      swap2\n      swap1\n      pop\n      jump\t// out\n        /* \"#utility.yul\":3542:4274   */\n    tag_193:\n        /* \"#utility.yul\":3661:3664   */\n      0x00\n        /* \"#utility.yul\":3690:3744   */\n      tag_265\n        /* \"#utility.yul\":3738:3743   */\n      dup3\n        /* \"#utility.yul\":3690:3744   */\n      tag_187\n      jump\t// in\n    tag_265:\n        /* \"#utility.yul\":3760:3846   */\n      tag_266\n        /* \"#utility.yul\":3839:3845   */\n      dup2\n        /* \"#utility.yul\":3834:3837   */\n      dup6\n        /* \"#utility.yul\":3760:3846   */\n      tag_188\n      jump\t// in\n    tag_266:\n        /* \"#utility.yul\":3753:3846   */\n      swap4\n      pop\n        /* \"#utility.yul\":3870:3926   */\n      tag_267\n        /* \"#utility.yul\":3920:3925   */\n      dup4\n        /* \"#utility.yul\":3870:3926   */\n      tag_189\n      jump\t// in\n    tag_267:\n        /* \"#utility.yul\":3949:3956   */\n      dup1\n        /* \"#utility.yul\":3980:3981   */\n      0x00\n        /* \"#utility.yul\":3965:4249   */\n    tag_268:\n        /* \"#utility.yul\":3990:3996   */\n      dup4\n        /* \"#utility.yul\":3987:3988   */\n      dup2\n        /* \"#utility.yul\":3984:3997   */\n      lt\n        /* \"#utility.yul\":3965:4249   */\n      iszero\n      tag_270\n      jumpi\n        /* \"#utility.yul\":4066:4072   */\n      dup2\n        /* \"#utility.yul\":4060:4073   */\n      mload\n        /* \"#utility.yul\":4093:4156   */\n      tag_271\n        /* \"#utility.yul\":4152:4155   */\n      dup9\n        /* \"#utility.yul\":4137:4150   */\n      dup3\n        /* \"#utility.yul\":4093:4156   */\n      tag_191\n      jump\t// in\n    tag_271:\n        /* \"#utility.yul\":4086:4156   */\n      swap8\n      pop\n        /* \"#utility.yul\":4179:4239   */\n      tag_272\n        /* \"#utility.yul\":4232:4238   */\n      dup4\n        /* \"#utility.yul\":4179:4239   */\n      tag_192\n      jump\t// in\n    tag_272:\n        /* \"#utility.yul\":4169:4239   */\n      swap3\n      pop\n        /* \"#utility.yul\":4025:4249   */\n      pop\n        /* \"#utility.yul\":4012:4013   */\n      0x01\n        /* \"#utility.yul\":4009:4010   */\n      dup2\n        /* \"#utility.yul\":4005:4014   */\n      add\n        /* \"#utility.yul\":4000:4014   */\n      swap1\n      pop\n        /* \"#utility.yul\":3965:4249   */\n      jump(tag_268)\n    tag_270:\n        /* \"#utility.yul\":3969:3983   */\n      pop\n        /* \"#utility.yul\":4265:4268   */\n      dup6\n        /* \"#utility.yul\":4258:4268   */\n      swap4\n      pop\n        /* \"#utility.yul\":3666:4274   */\n      pop\n      pop\n      pop\n        /* \"#utility.yul\":3542:4274   */\n      swap3\n      swap2\n      pop\n      pop\n      jump\t// out\n        /* \"#utility.yul\":4280:4653   */\n    tag_45:\n        /* \"#utility.yul\":4423:4427   */\n      0x00\n        /* \"#utility.yul\":4461:4463   */\n      0x20\n        /* \"#utility.yul\":4450:4459   */\n      dup3\n        /* \"#utility.yul\":4446:4464   */\n      add\n        /* \"#utility.yul\":4438:4464   */\n      swap1\n      pop\n        /* \"#utility.yul\":4510:4519   */\n      dup2\n        /* \"#utility.yul\":4504:4508   */\n      dup2\n        /* \"#utility.yul\":4500:4520   */\n      sub\n        /* \"#utility.yul\":4496:4497   */\n      0x00\n        /* \"#utility.yul\":4485:4494   */\n      dup4\n        /* \"#utility.yul\":4481:4498   */\n      add\n        /* \"#utility.yul\":4474:4521   */\n      mstore\n        /* \"#utility.yul\":4538:4646   */\n      tag_274\n        /* \"#utility.yul\":4641:4645   */\n      dup2\n        /* \"#utility.yul\":4632:4638   */\n      dup5\n        /* \"#utility.yul\":4538:4646   */\n      tag_193\n      jump\t// in\n    tag_274:\n        /* \"#utility.yul\":4530:4646   */\n      swap1\n      pop\n        /* \"#utility.yul\":4280:4653   */\n      swap3\n      swap2\n      pop\n      pop\n      jump\t// out\n        /* \"#utility.yul\":4659:4777   */\n    tag_194:\n        /* \"#utility.yul\":4746:4770   */\n      tag_276\n        /* \"#utility.yul\":4764:4769   */\n      dup2\n        /* \"#utility.yul\":4746:4770   */\n      tag_184\n      jump\t// in\n    tag_276:\n        /* \"#utility.yul\":4741:4744   */\n      dup3\n        /* \"#utility.yul\":4734:4771   */\n      mstore\n        /* \"#utility.yul\":4659:4777   */\n      pop\n      pop\n      jump\t// out\n        /* \"#utility.yul\":4783:5005   */\n    tag_50:\n        /* \"#utility.yul\":4876:4880   */\n      0x00\n        /* \"#utility.yul\":4914:4916   */\n      0x20\n        /* \"#utility.yul\":4903:4912   */\n      dup3\n        /* \"#utility.yul\":4899:4917   */\n      add\n        /* \"#utility.yul\":4891:4917   */\n      swap1\n      pop\n        /* \"#utility.yul\":4927:4998   */\n      tag_278\n        /* \"#utility.yul\":4995:4996   */\n      0x00\n        /* \"#utility.yul\":4984:4993   */\n      dup4\n        /* \"#utility.yul\":4980:4997   */\n      add\n        /* \"#utility.yul\":4971:4977   */\n      dup5\n        /* \"#utility.yul\":4927:4998   */\n      tag_194\n      jump\t// in\n    tag_278:\n        /* \"#utility.yul\":4783:5005   */\n      swap3\n      swap2\n      pop\n      pop\n      jump\t// out\n        /* \"#utility.yul\":5011:5180   */\n    tag_195:\n        /* \"#utility.yul\":5095:5106   */\n      0x00\n        /* \"#utility.yul\":5129:5135   */\n      dup3\n        /* \"#utility.yul\":5124:5127   */\n      dup3\n        /* \"#utility.yul\":5117:5136   */\n      mstore\n        /* \"#utility.yul\":5169:5173   */\n      0x20\n        /* \"#utility.yul\":5164:5167   */\n      dup3\n        /* \"#utility.yul\":5160:5174   */\n      add\n        /* \"#utility.yul\":5145:5174   */\n      swap1\n      pop\n        /* \"#utility.yul\":5011:5180   */\n      swap3\n      swap2\n      pop\n      pop\n      jump\t// out\n        /* \"#utility.yul\":5186:5355   */\n    tag_196:\n        /* \"#utility.yul\":5326:5347   */\n      0x43616c6c6572206973206e6f74206f776e657200000000000000000000000000\n        /* \"#utility.yul\":5322:5323   */\n      0x00\n        /* \"#utility.yul\":5314:5320   */\n      dup3\n        /* \"#utility.yul\":5310:5324   */\n      add\n        /* \"#utility.yul\":5303:5348   */\n      mstore\n        /* \"#utility.yul\":5186:5355   */\n      pop\n      jump\t// out\n        /* \"#utility.yul\":5361:5727   */\n    tag_197:\n        /* \"#utility.yul\":5503:5506   */\n      0x00\n        /* \"#utility.yul\":5524:5591   */\n      tag_282\n        /* \"#utility.yul\":5588:5590   */\n      0x13\n        /* \"#utility.yul\":5583:5586   */\n      dup4\n        /* \"#utility.yul\":5524:5591   */\n      tag_195\n      jump\t// in\n    tag_282:\n        /* \"#utility.yul\":5517:5591   */\n      swap2\n      pop\n        /* \"#utility.yul\":5600:5693   */\n      tag_283\n        /* \"#utility.yul\":5689:5692   */\n      dup3\n        /* \"#utility.yul\":5600:5693   */\n      tag_196\n      jump\t// in\n    tag_283:\n        /* \"#utility.yul\":5718:5720   */\n      0x20\n        /* \"#utility.yul\":5713:5716   */\n      dup3\n        /* \"#utility.yul\":5709:5721   */\n      add\n        /* \"#utility.yul\":5702:5721   */\n      swap1\n      pop\n        /* \"#utility.yul\":5361:5727   */\n      swap2\n      swap1\n      pop\n      jump\t// out\n        /* \"#utility.yul\":5733:6152   */\n    tag_66:\n        /* \"#utility.yul\":5899:5903   */\n      0x00\n        /* \"#utility.yul\":5937:5939   */\n      0x20\n        /* \"#utility.yul\":5926:5935   */\n      dup3\n        /* \"#utility.yul\":5922:5940   */\n      add\n        /* \"#utility.yul\":5914:5940   */\n      swap1\n      pop\n        /* \"#utility.yul\":5986:5995   */\n      dup2\n        /* \"#utility.yul\":5980:5984   */\n      dup2\n        /* \"#utility.yul\":5976:5996   */\n      sub\n        /* \"#utility.yul\":5972:5973   */\n      0x00\n        /* \"#utility.yul\":5961:5970   */\n      dup4\n        /* \"#utility.yul\":5957:5974   */\n      add\n        /* \"#utility.yul\":5950:5997   */\n      mstore\n        /* \"#utility.yul\":6014:6145   */\n      tag_285\n        /* \"#utility.yul\":6140:6144   */\n      dup2\n        /* \"#utility.yul\":6014:6145   */\n      tag_197\n      jump\t// in\n    tag_285:\n        /* \"#utility.yul\":6006:6145   */\n      swap1\n      pop\n        /* \"#utility.yul\":5733:6152   */\n      swap2\n      swap1\n      pop\n      jump\t// out\n        /* \"#utility.yul\":6158:6257   */\n    tag_198:\n        /* \"#utility.yul\":6210:6216   */\n      0x00\n        /* \"#utility.yul\":6244:6249   */\n      dup2\n        /* \"#utility.yul\":6238:6250   */\n      mload\n        /* \"#utility.yul\":6228:6250   */\n      swap1\n      pop\n        /* \"#utility.yul\":6158:6257   */\n      swap2\n      swap1\n      pop\n      jump\t// out\n        /* \"#utility.yul\":6263:6411   */\n    tag_199:\n        /* \"#utility.yul\":6365:6376   */\n      0x00\n        /* \"#utility.yul\":6402:6405   */\n      dup2\n        /* \"#utility.yul\":6387:6405   */\n      swap1\n      pop\n        /* \"#utility.yul\":6263:6411   */\n      swap3\n      swap2\n      pop\n      pop\n      jump\t// out\n        /* \"#utility.yul\":6417:6556   */\n    tag_200:\n        /* \"#utility.yul\":6506:6512   */\n      dup3\n        /* \"#utility.yul\":6501:6504   */\n      dup2\n        /* \"#utility.yul\":6496:6499   */\n      dup4\n        /* \"#utility.yul\":6490:6513   */\n      mcopy\n        /* \"#utility.yul\":6547:6548   */\n      0x00\n        /* \"#utility.yul\":6538:6544   */\n      dup4\n        /* \"#utility.yul\":6533:6536   */\n      dup4\n        /* \"#utility.yul\":6529:6545   */\n      add\n        /* \"#utility.yul\":6522:6549   */\n      mstore\n        /* \"#utility.yul\":6417:6556   */\n      pop\n      pop\n      pop\n      jump\t// out\n        /* \"#utility.yul\":6562:6952   */\n    tag_201:\n        /* \"#utility.yul\":6668:6671   */\n      0x00\n        /* \"#utility.yul\":6696:6735   */\n      tag_290\n        /* \"#utility.yul\":6729:6734   */\n      dup3\n        /* \"#utility.yul\":6696:6735   */\n      tag_198\n      jump\t// in\n    tag_290:\n        /* \"#utility.yul\":6751:6840   */\n      tag_291\n        /* \"#utility.yul\":6833:6839   */\n      dup2\n        /* \"#utility.yul\":6828:6831   */\n      dup6\n        /* \"#utility.yul\":6751:6840   */\n      tag_199\n      jump\t// in\n    tag_291:\n        /* \"#utility.yul\":6744:6840   */\n      swap4\n      pop\n        /* \"#utility.yul\":6849:6914   */\n      tag_292\n        /* \"#utility.yul\":6907:6913   */\n      dup2\n        /* \"#utility.yul\":6902:6905   */\n      dup6\n        /* \"#utility.yul\":6895:6899   */\n      0x20\n        /* \"#utility.yul\":6888:6893   */\n      dup7\n        /* \"#utility.yul\":6884:6900   */\n      add\n        /* \"#utility.yul\":6849:6914   */\n      tag_200\n      jump\t// in\n    tag_292:\n        /* \"#utility.yul\":6939:6945   */\n      dup1\n        /* \"#utility.yul\":6934:6937   */\n      dup5\n        /* \"#utility.yul\":6930:6946   */\n      add\n        /* \"#utility.yul\":6923:6946   */\n      swap2\n      pop\n        /* \"#utility.yul\":6672:6952   */\n      pop\n        /* \"#utility.yul\":6562:6952   */\n      swap3\n      swap2\n      pop\n      pop\n      jump\t// out\n        /* \"#utility.yul\":6958:7184   */\n    tag_202:\n        /* \"#utility.yul\":7098:7132   */\n      0x206973206d696e696d756d2076616c756520746f20736574206c6f7765722064\n        /* \"#utility.yul\":7094:7095   */\n      0x00\n        /* \"#utility.yul\":7086:7092   */\n      dup3\n        /* \"#utility.yul\":7082:7096   */\n      add\n        /* \"#utility.yul\":7075:7133   */\n      mstore\n        /* \"#utility.yul\":7167:7176   */\n      0x6f6e6174696f6e00000000000000000000000000000000000000000000000000\n        /* \"#utility.yul\":7162:7164   */\n      0x20\n        /* \"#utility.yul\":7154:7160   */\n      dup3\n        /* \"#utility.yul\":7150:7165   */\n      add\n        /* \"#utility.yul\":7143:7177   */\n      mstore\n        /* \"#utility.yul\":6958:7184   */\n      pop\n      jump\t// out\n        /* \"#utility.yul\":7190:7592   */\n    tag_203:\n        /* \"#utility.yul\":7350:7353   */\n      0x00\n        /* \"#utility.yul\":7371:7456   */\n      tag_295\n        /* \"#utility.yul\":7453:7455   */\n      0x27\n        /* \"#utility.yul\":7448:7451   */\n      dup4\n        /* \"#utility.yul\":7371:7456   */\n      tag_199\n      jump\t// in\n    tag_295:\n        /* \"#utility.yul\":7364:7456   */\n      swap2\n      pop\n        /* \"#utility.yul\":7465:7558   */\n      tag_296\n        /* \"#utility.yul\":7554:7557   */\n      dup3\n        /* \"#utility.yul\":7465:7558   */\n      tag_202\n      jump\t// in\n    tag_296:\n        /* \"#utility.yul\":7583:7585   */\n      0x27\n        /* \"#utility.yul\":7578:7581   */\n      dup3\n        /* \"#utility.yul\":7574:7586   */\n      add\n        /* \"#utility.yul\":7567:7586   */\n      swap1\n      pop\n        /* \"#utility.yul\":7190:7592   */\n      swap2\n      swap1\n      pop\n      jump\t// out\n        /* \"#utility.yul\":7598:8139   */\n    tag_75:\n        /* \"#utility.yul\":7831:7834   */\n      0x00\n        /* \"#utility.yul\":7853:7948   */\n      tag_298\n        /* \"#utility.yul\":7944:7947   */\n      dup3\n        /* \"#utility.yul\":7935:7941   */\n      dup5\n        /* \"#utility.yul\":7853:7948   */\n      tag_201\n      jump\t// in\n    tag_298:\n        /* \"#utility.yul\":7846:7948   */\n      swap2\n      pop\n        /* \"#utility.yul\":7965:8113   */\n      tag_299\n        /* \"#utility.yul\":8109:8112   */\n      dup3\n        /* \"#utility.yul\":7965:8113   */\n      tag_203\n      jump\t// in\n    tag_299:\n        /* \"#utility.yul\":7958:8113   */\n      swap2\n      pop\n        /* \"#utility.yul\":8130:8133   */\n      dup2\n        /* \"#utility.yul\":8123:8133   */\n      swap1\n      pop\n        /* \"#utility.yul\":7598:8139   */\n      swap3\n      swap2\n      pop\n      pop\n      jump\t// out\n        /* \"#utility.yul\":8145:8247   */\n    tag_204:\n        /* \"#utility.yul\":8186:8192   */\n      0x00\n        /* \"#utility.yul\":8237:8239   */\n      0x1f\n        /* \"#utility.yul\":8233:8240   */\n      not\n        /* \"#utility.yul\":8228:8230   */\n      0x1f\n        /* \"#utility.yul\":8221:8226   */\n      dup4\n        /* \"#utility.yul\":8217:8231   */\n      add\n        /* \"#utility.yul\":8213:8241   */\n      and\n        /* \"#utility.yul\":8203:8241   */\n      swap1\n      pop\n        /* \"#utility.yul\":8145:8247   */\n      swap2\n      swap1\n      pop\n      jump\t// out\n        /* \"#utility.yul\":8253:8630   */\n    tag_205:\n        /* \"#utility.yul\":8341:8344   */\n      0x00\n        /* \"#utility.yul\":8369:8408   */\n      tag_302\n        /* \"#utility.yul\":8402:8407   */\n      dup3\n        /* \"#utility.yul\":8369:8408   */\n      tag_198\n      jump\t// in\n    tag_302:\n        /* \"#utility.yul\":8424:8495   */\n      tag_303\n        /* \"#utility.yul\":8488:8494   */\n      dup2\n        /* \"#utility.yul\":8483:8486   */\n      dup6\n        /* \"#utility.yul\":8424:8495   */\n      tag_195\n      jump\t// in\n    tag_303:\n        /* \"#utility.yul\":8417:8495   */\n      swap4\n      pop\n        /* \"#utility.yul\":8504:8569   */\n      tag_304\n        /* \"#utility.yul\":8562:8568   */\n      dup2\n        /* \"#utility.yul\":8557:8560   */\n      dup6\n        /* \"#utility.yul\":8550:8554   */\n      0x20\n        /* \"#utility.yul\":8543:8548   */\n      dup7\n        /* \"#utility.yul\":8539:8555   */\n      add\n        /* \"#utility.yul\":8504:8569   */\n      tag_200\n      jump\t// in\n    tag_304:\n        /* \"#utility.yul\":8594:8623   */\n      tag_305\n        /* \"#utility.yul\":8616:8622   */\n      dup2\n        /* \"#utility.yul\":8594:8623   */\n      tag_204\n      jump\t// in\n    tag_305:\n        /* \"#utility.yul\":8589:8592   */\n      dup5\n        /* \"#utility.yul\":8585:8624   */\n      add\n        /* \"#utility.yul\":8578:8624   */\n      swap2\n      pop\n        /* \"#utility.yul\":8345:8630   */\n      pop\n        /* \"#utility.yul\":8253:8630   */\n      swap3\n      swap2\n      pop\n      pop\n      jump\t// out\n        /* \"#utility.yul\":8636:8949   */\n    tag_78:\n        /* \"#utility.yul\":8749:8753   */\n      0x00\n        /* \"#utility.yul\":8787:8789   */\n      0x20\n        /* \"#utility.yul\":8776:8785   */\n      dup3\n        /* \"#utility.yul\":8772:8790   */\n      add\n        /* \"#utility.yul\":8764:8790   */\n      swap1\n      pop\n        /* \"#utility.yul\":8836:8845   */\n      dup2\n        /* \"#utility.yul\":8830:8834   */\n      dup2\n        /* \"#utility.yul\":8826:8846   */\n      sub\n        /* \"#utility.yul\":8822:8823   */\n      0x00\n        /* \"#utility.yul\":8811:8820   */\n      dup4\n        /* \"#utility.yul\":8807:8824   */\n      add\n        /* \"#utility.yul\":8800:8847   */\n      mstore\n        /* \"#utility.yul\":8864:8942   */\n      tag_307\n        /* \"#utility.yul\":8937:8941   */\n      dup2\n        /* \"#utility.yul\":8928:8934   */\n      dup5\n        /* \"#utility.yul\":8864:8942   */\n      tag_205\n      jump\t// in\n    tag_307:\n        /* \"#utility.yul\":8856:8942   */\n      swap1\n      pop\n        /* \"#utility.yul\":8636:8949   */\n      swap3\n      swap2\n      pop\n      pop\n      jump\t// out\n        /* \"#utility.yul\":8955:9136   */\n    tag_206:\n        /* \"#utility.yul\":9095:9128   */\n      0x416c6c6f776564206f6e6c7920666f7220726570726573656e74617469766500\n        /* \"#utility.yul\":9091:9092   */\n      0x00\n        /* \"#utility.yul\":9083:9089   */\n      dup3\n        /* \"#utility.yul\":9079:9093   */\n      add\n        /* \"#utility.yul\":9072:9129   */\n      mstore\n        /* \"#utility.yul\":8955:9136   */\n      pop\n      jump\t// out\n        /* \"#utility.yul\":9142:9508   */\n    tag_207:\n        /* \"#utility.yul\":9284:9287   */\n      0x00\n        /* \"#utility.yul\":9305:9372   */\n      tag_310\n        /* \"#utility.yul\":9369:9371   */\n      0x1f\n        /* \"#utility.yul\":9364:9367   */\n      dup4\n        /* \"#utility.yul\":9305:9372   */\n      tag_195\n      jump\t// in\n    tag_310:\n        /* \"#utility.yul\":9298:9372   */\n      swap2\n      pop\n        /* \"#utility.yul\":9381:9474   */\n      tag_311\n        /* \"#utility.yul\":9470:9473   */\n      dup3\n        /* \"#utility.yul\":9381:9474   */\n      tag_206\n      jump\t// in\n    tag_311:\n        /* \"#utility.yul\":9499:9501   */\n      0x20\n        /* \"#utility.yul\":9494:9497   */\n      dup3\n        /* \"#utility.yul\":9490:9502   */\n      add\n        /* \"#utility.yul\":9483:9502   */\n      swap1\n      pop\n        /* \"#utility.yul\":9142:9508   */\n      swap2\n      swap1\n      pop\n      jump\t// out\n        /* \"#utility.yul\":9514:9933   */\n    tag_82:\n        /* \"#utility.yul\":9680:9684   */\n      0x00\n        /* \"#utility.yul\":9718:9720   */\n      0x20\n        /* \"#utility.yul\":9707:9716   */\n      dup3\n        /* \"#utility.yul\":9703:9721   */\n      add\n        /* \"#utility.yul\":9695:9721   */\n      swap1\n      pop\n        /* \"#utility.yul\":9767:9776   */\n      dup2\n        /* \"#utility.yul\":9761:9765   */\n      dup2\n        /* \"#utility.yul\":9757:9777   */\n      sub\n        /* \"#utility.yul\":9753:9754   */\n      0x00\n        /* \"#utility.yul\":9742:9751   */\n      dup4\n        /* \"#utility.yul\":9738:9755   */\n      add\n        /* \"#utility.yul\":9731:9778   */\n      mstore\n        /* \"#utility.yul\":9795:9926   */\n      tag_313\n        /* \"#utility.yul\":9921:9925   */\n      dup2\n        /* \"#utility.yul\":9795:9926   */\n      tag_207\n      jump\t// in\n    tag_313:\n        /* \"#utility.yul\":9787:9926   */\n      swap1\n      pop\n        /* \"#utility.yul\":9514:9933   */\n      swap2\n      swap1\n      pop\n      jump\t// out\n        /* \"#utility.yul\":9939:10116   */\n    tag_208:\n        /* \"#utility.yul\":10079:10108   */\n      0x44657374696e6174696f6e2061646472206973206e6f74207365740000000000\n        /* \"#utility.yul\":10075:10076   */\n      0x00\n        /* \"#utility.yul\":10067:10073   */\n      dup3\n        /* \"#utility.yul\":10063:10077   */\n      add\n        /* \"#utility.yul\":10056:10109   */\n      mstore\n        /* \"#utility.yul\":9939:10116   */\n      pop\n      jump\t// out\n        /* \"#utility.yul\":10122:10488   */\n    tag_209:\n        /* \"#utility.yul\":10264:10267   */\n      0x00\n        /* \"#utility.yul\":10285:10352   */\n      tag_316\n        /* \"#utility.yul\":10349:10351   */\n      0x1b\n        /* \"#utility.yul\":10344:10347   */\n      dup4\n        /* \"#utility.yul\":10285:10352   */\n      tag_195\n      jump\t// in\n    tag_316:\n        /* \"#utility.yul\":10278:10352   */\n      swap2\n      pop\n        /* \"#utility.yul\":10361:10454   */\n      tag_317\n        /* \"#utility.yul\":10450:10453   */\n      dup3\n        /* \"#utility.yul\":10361:10454   */\n      tag_208\n      jump\t// in\n    tag_317:\n        /* \"#utility.yul\":10479:10481   */\n      0x20\n        /* \"#utility.yul\":10474:10477   */\n      dup3\n        /* \"#utility.yul\":10470:10482   */\n      add\n        /* \"#utility.yul\":10463:10482   */\n      swap1\n      pop\n        /* \"#utility.yul\":10122:10488   */\n      swap2\n      swap1\n      pop\n      jump\t// out\n        /* \"#utility.yul\":10494:10913   */\n    tag_86:\n        /* \"#utility.yul\":10660:10664   */\n      0x00\n        /* \"#utility.yul\":10698:10700   */\n      0x20\n        /* \"#utility.yul\":10687:10696   */\n      dup3\n        /* \"#utility.yul\":10683:10701   */\n      add\n        /* \"#utility.yul\":10675:10701   */\n      swap1\n      pop\n        /* \"#utility.yul\":10747:10756   */\n      dup2\n        /* \"#utility.yul\":10741:10745   */\n      dup2\n        /* \"#utility.yul\":10737:10757   */\n      sub\n        /* \"#utility.yul\":10733:10734   */\n      0x00\n        /* \"#utility.yul\":10722:10731   */\n      dup4\n        /* \"#utility.yul\":10718:10735   */\n      add\n        /* \"#utility.yul\":10711:10758   */\n      mstore\n        /* \"#utility.yul\":10775:10906   */\n      tag_319\n        /* \"#utility.yul\":10901:10905   */\n      dup2\n        /* \"#utility.yul\":10775:10906   */\n      tag_209\n      jump\t// in\n    tag_319:\n        /* \"#utility.yul\":10767:10906   */\n      swap1\n      pop\n        /* \"#utility.yul\":10494:10913   */\n      swap2\n      swap1\n      pop\n      jump\t// out\n        /* \"#utility.yul\":10919:11088   */\n    tag_210:\n        /* \"#utility.yul\":11059:11080   */\n      0x4973206e6f7420646561646c696e652079657400000000000000000000000000\n        /* \"#utility.yul\":11055:11056   */\n      0x00\n        /* \"#utility.yul\":11047:11053   */\n      dup3\n        /* \"#utility.yul\":11043:11057   */\n      add\n        /* \"#utility.yul\":11036:11081   */\n      mstore\n        /* \"#utility.yul\":10919:11088   */\n      pop\n      jump\t// out\n        /* \"#utility.yul\":11094:11460   */\n    tag_211:\n        /* \"#utility.yul\":11236:11239   */\n      0x00\n        /* \"#utility.yul\":11257:11324   */\n      tag_322\n        /* \"#utility.yul\":11321:11323   */\n      0x13\n        /* \"#utility.yul\":11316:11319   */\n      dup4\n        /* \"#utility.yul\":11257:11324   */\n      tag_195\n      jump\t// in\n    tag_322:\n        /* \"#utility.yul\":11250:11324   */\n      swap2\n      pop\n        /* \"#utility.yul\":11333:11426   */\n      tag_323\n        /* \"#utility.yul\":11422:11425   */\n      dup3\n        /* \"#utility.yul\":11333:11426   */\n      tag_210\n      jump\t// in\n    tag_323:\n        /* \"#utility.yul\":11451:11453   */\n      0x20\n        /* \"#utility.yul\":11446:11449   */\n      dup3\n        /* \"#utility.yul\":11442:11454   */\n      add\n        /* \"#utility.yul\":11435:11454   */\n      swap1\n      pop\n        /* \"#utility.yul\":11094:11460   */\n      swap2\n      swap1\n      pop\n      jump\t// out\n        /* \"#utility.yul\":11466:11885   */\n    tag_90:\n        /* \"#utility.yul\":11632:11636   */\n      0x00\n        /* \"#utility.yul\":11670:11672   */\n      0x20\n        /* \"#utility.yul\":11659:11668   */\n      dup3\n        /* \"#utility.yul\":11655:11673   */\n      add\n        /* \"#utility.yul\":11647:11673   */\n      swap1\n      pop\n        /* \"#utility.yul\":11719:11728   */\n      dup2\n        /* \"#utility.yul\":11713:11717   */\n      dup2\n        /* \"#utility.yul\":11709:11729   */\n      sub\n        /* \"#utility.yul\":11705:11706   */\n      0x00\n        /* \"#utility.yul\":11694:11703   */\n      dup4\n        /* \"#utility.yul\":11690:11707   */\n      add\n        /* \"#utility.yul\":11683:11730   */\n      mstore\n        /* \"#utility.yul\":11747:11878   */\n      tag_325\n        /* \"#utility.yul\":11873:11877   */\n      dup2\n        /* \"#utility.yul\":11747:11878   */\n      tag_211\n      jump\t// in\n    tag_325:\n        /* \"#utility.yul\":11739:11878   */\n      swap1\n      pop\n        /* \"#utility.yul\":11466:11885   */\n      swap2\n      swap1\n      pop\n      jump\t// out\n        /* \"#utility.yul\":11891:12038   */\n    tag_212:\n        /* \"#utility.yul\":11992:12003   */\n      0x00\n        /* \"#utility.yul\":12029:12032   */\n      dup2\n        /* \"#utility.yul\":12014:12032   */\n      swap1\n      pop\n        /* \"#utility.yul\":11891:12038   */\n      swap3\n      swap2\n      pop\n      pop\n      jump\t// out\n        /* \"#utility.yul\":12044:12158   */\n    tag_213:\n      pop\n      jump\t// out\n        /* \"#utility.yul\":12164:12562   */\n    tag_214:\n        /* \"#utility.yul\":12323:12326   */\n      0x00\n        /* \"#utility.yul\":12344:12427   */\n      tag_329\n        /* \"#utility.yul\":12425:12426   */\n      0x00\n        /* \"#utility.yul\":12420:12423   */\n      dup4\n        /* \"#utility.yul\":12344:12427   */\n      tag_212\n      jump\t// in\n    tag_329:\n        /* \"#utility.yul\":12337:12427   */\n      swap2\n      pop\n        /* \"#utility.yul\":12436:12529   */\n      tag_330\n        /* \"#utility.yul\":12525:12528   */\n      dup3\n        /* \"#utility.yul\":12436:12529   */\n      tag_213\n      jump\t// in\n    tag_330:\n        /* \"#utility.yul\":12554:12555   */\n      0x00\n        /* \"#utility.yul\":12549:12552   */\n      dup3\n        /* \"#utility.yul\":12545:12556   */\n      add\n        /* \"#utility.yul\":12538:12556   */\n      swap1\n      pop\n        /* \"#utility.yul\":12164:12562   */\n      swap2\n      swap1\n      pop\n      jump\t// out\n        /* \"#utility.yul\":12568:12947   */\n    tag_92:\n        /* \"#utility.yul\":12752:12755   */\n      0x00\n        /* \"#utility.yul\":12774:12921   */\n      tag_332\n        /* \"#utility.yul\":12917:12920   */\n      dup3\n        /* \"#utility.yul\":12774:12921   */\n      tag_214\n      jump\t// in\n    tag_332:\n        /* \"#utility.yul\":12767:12921   */\n      swap2\n      pop\n        /* \"#utility.yul\":12938:12941   */\n      dup2\n        /* \"#utility.yul\":12931:12941   */\n      swap1\n      pop\n        /* \"#utility.yul\":12568:12947   */\n      swap2\n      swap1\n      pop\n      jump\t// out\n        /* \"#utility.yul\":12953:13127   */\n    tag_215:\n        /* \"#utility.yul\":13093:13119   */\n      0x4661696c656420746f2073656e6420646f6e6174696f6e730000000000000000\n        /* \"#utility.yul\":13089:13090   */\n      0x00\n        /* \"#utility.yul\":13081:13087   */\n      dup3\n        /* \"#utility.yul\":13077:13091   */\n      add\n        /* \"#utility.yul\":13070:13120   */\n      mstore\n        /* \"#utility.yul\":12953:13127   */\n      pop\n      jump\t// out\n        /* \"#utility.yul\":13133:13499   */\n    tag_216:\n        /* \"#utility.yul\":13275:13278   */\n      0x00\n        /* \"#utility.yul\":13296:13363   */\n      tag_335\n        /* \"#utility.yul\":13360:13362   */\n      0x18\n        /* \"#utility.yul\":13355:13358   */\n      dup4\n        /* \"#utility.yul\":13296:13363   */\n      tag_195\n      jump\t// in\n    tag_335:\n        /* \"#utility.yul\":13289:13363   */\n      swap2\n      pop\n        /* \"#utility.yul\":13372:13465   */\n      tag_336\n        /* \"#utility.yul\":13461:13464   */\n      dup3\n        /* \"#utility.yul\":13372:13465   */\n      tag_215\n      jump\t// in\n    tag_336:\n        /* \"#utility.yul\":13490:13492   */\n      0x20\n        /* \"#utility.yul\":13485:13488   */\n      dup3\n        /* \"#utility.yul\":13481:13493   */\n      add\n        /* \"#utility.yul\":13474:13493   */\n      swap1\n      pop\n        /* \"#utility.yul\":13133:13499   */\n      swap2\n      swap1\n      pop\n      jump\t// out\n        /* \"#utility.yul\":13505:13924   */\n    tag_98:\n        /* \"#utility.yul\":13671:13675   */\n      0x00\n        /* \"#utility.yul\":13709:13711   */\n      0x20\n        /* \"#utility.yul\":13698:13707   */\n      dup3\n        /* \"#utility.yul\":13694:13712   */\n      add\n        /* \"#utility.yul\":13686:13712   */\n      swap1\n      pop\n        /* \"#utility.yul\":13758:13767   */\n      dup2\n        /* \"#utility.yul\":13752:13756   */\n      dup2\n        /* \"#utility.yul\":13748:13768   */\n      sub\n        /* \"#utility.yul\":13744:13745   */\n      0x00\n        /* \"#utility.yul\":13733:13742   */\n      dup4\n        /* \"#utility.yul\":13729:13746   */\n      add\n        /* \"#utility.yul\":13722:13769   */\n      mstore\n        /* \"#utility.yul\":13786:13917   */\n      tag_338\n        /* \"#utility.yul\":13912:13916   */\n      dup2\n        /* \"#utility.yul\":13786:13917   */\n      tag_216\n      jump\t// in\n    tag_338:\n        /* \"#utility.yul\":13778:13917   */\n      swap1\n      pop\n        /* \"#utility.yul\":13505:13924   */\n      swap2\n      swap1\n      pop\n      jump\t// out\n        /* \"#utility.yul\":13930:14110   */\n    tag_217:\n        /* \"#utility.yul\":13978:14055   */\n      0x4e487b7100000000000000000000000000000000000000000000000000000000\n        /* \"#utility.yul\":13975:13976   */\n      0x00\n        /* \"#utility.yul\":13968:14056   */\n      mstore\n        /* \"#utility.yul\":14075:14079   */\n      0x11\n        /* \"#utility.yul\":14072:14073   */\n      0x04\n        /* \"#utility.yul\":14065:14080   */\n      mstore\n        /* \"#utility.yul\":14099:14103   */\n      0x24\n        /* \"#utility.yul\":14096:14097   */\n      0x00\n        /* \"#utility.yul\":14089:14104   */\n      revert\n        /* \"#utility.yul\":14116:14307   */\n    tag_101:\n        /* \"#utility.yul\":14156:14159   */\n      0x00\n        /* \"#utility.yul\":14175:14195   */\n      tag_341\n        /* \"#utility.yul\":14193:14194   */\n      dup3\n        /* \"#utility.yul\":14175:14195   */\n      tag_174\n      jump\t// in\n    tag_341:\n        /* \"#utility.yul\":14170:14195   */\n      swap2\n      pop\n        /* \"#utility.yul\":14209:14229   */\n      tag_342\n        /* \"#utility.yul\":14227:14228   */\n      dup4\n        /* \"#utility.yul\":14209:14229   */\n      tag_174\n      jump\t// in\n    tag_342:\n        /* \"#utility.yul\":14204:14229   */\n      swap3\n      pop\n        /* \"#utility.yul\":14252:14253   */\n      dup3\n        /* \"#utility.yul\":14249:14250   */\n      dup3\n        /* \"#utility.yul\":14245:14254   */\n      add\n        /* \"#utility.yul\":14238:14254   */\n      swap1\n      pop\n        /* \"#utility.yul\":14273:14276   */\n      dup1\n        /* \"#utility.yul\":14270:14271   */\n      dup3\n        /* \"#utility.yul\":14267:14277   */\n      gt\n        /* \"#utility.yul\":14264:14300   */\n      iszero\n      tag_343\n      jumpi\n        /* \"#utility.yul\":14280:14298   */\n      tag_344\n      tag_217\n      jump\t// in\n    tag_344:\n        /* \"#utility.yul\":14264:14300   */\n    tag_343:\n        /* \"#utility.yul\":14116:14307   */\n      swap3\n      swap2\n      pop\n      pop\n      jump\t// out\n        /* \"#utility.yul\":14313:14508   */\n    tag_218:\n        /* \"#utility.yul\":14482:14501   */\n      0x206973206d696e696d756d2076616c7565000000000000000000000000000000\n        /* \"#utility.yul\":14477:14480   */\n      dup2\n        /* \"#utility.yul\":14470:14502   */\n      mstore\n        /* \"#utility.yul\":14313:14508   */\n      pop\n      jump\t// out\n        /* \"#utility.yul\":14514:15056   */\n    tag_118:\n        /* \"#utility.yul\":14737:14740   */\n      0x00\n        /* \"#utility.yul\":14759:14854   */\n      tag_347\n        /* \"#utility.yul\":14850:14853   */\n      dup3\n        /* \"#utility.yul\":14841:14847   */\n      dup5\n        /* \"#utility.yul\":14759:14854   */\n      tag_201\n      jump\t// in\n    tag_347:\n        /* \"#utility.yul\":14752:14854   */\n      swap2\n      pop\n        /* \"#utility.yul\":14864:15002   */\n      tag_348\n        /* \"#utility.yul\":14998:15001   */\n      dup3\n        /* \"#utility.yul\":14864:15002   */\n      tag_218\n      jump\t// in\n    tag_348:\n        /* \"#utility.yul\":15027:15029   */\n      0x11\n        /* \"#utility.yul\":15022:15025   */\n      dup3\n        /* \"#utility.yul\":15018:15030   */\n      add\n        /* \"#utility.yul\":15011:15030   */\n      swap2\n      pop\n        /* \"#utility.yul\":15047:15050   */\n      dup2\n        /* \"#utility.yul\":15040:15050   */\n      swap1\n      pop\n        /* \"#utility.yul\":14514:15056   */\n      swap3\n      swap2\n      pop\n      pop\n      jump\t// out\n        /* \"#utility.yul\":15062:15284   */\n    tag_219:\n        /* \"#utility.yul\":15202:15236   */\n      0x446f6e6174696f6e206e6f7420616c6c6f77656420616674657220646561646c\n        /* \"#utility.yul\":15198:15199   */\n      0x00\n        /* \"#utility.yul\":15190:15196   */\n      dup3\n        /* \"#utility.yul\":15186:15200   */\n      add\n        /* \"#utility.yul\":15179:15237   */\n      mstore\n        /* \"#utility.yul\":15271:15276   */\n      0x696e650000000000000000000000000000000000000000000000000000000000\n        /* \"#utility.yul\":15266:15268   */\n      0x20\n        /* \"#utility.yul\":15258:15264   */\n      dup3\n        /* \"#utility.yul\":15254:15269   */\n      add\n        /* \"#utility.yul\":15247:15277   */\n      mstore\n        /* \"#utility.yul\":15062:15284   */\n      pop\n      jump\t// out\n        /* \"#utility.yul\":15290:15656   */\n    tag_220:\n        /* \"#utility.yul\":15432:15435   */\n      0x00\n        /* \"#utility.yul\":15453:15520   */\n      tag_351\n        /* \"#utility.yul\":15517:15519   */\n      0x23\n        /* \"#utility.yul\":15512:15515   */\n      dup4\n        /* \"#utility.yul\":15453:15520   */\n      tag_195\n      jump\t// in\n    tag_351:\n        /* \"#utility.yul\":15446:15520   */\n      swap2\n      pop\n        /* \"#utility.yul\":15529:15622   */\n      tag_352\n        /* \"#utility.yul\":15618:15621   */\n      dup3\n        /* \"#utility.yul\":15529:15622   */\n      tag_219\n      jump\t// in\n    tag_352:\n        /* \"#utility.yul\":15647:15649   */\n      0x40\n        /* \"#utility.yul\":15642:15645   */\n      dup3\n        /* \"#utility.yul\":15638:15650   */\n      add\n        /* \"#utility.yul\":15631:15650   */\n      swap1\n      pop\n        /* \"#utility.yul\":15290:15656   */\n      swap2\n      swap1\n      pop\n      jump\t// out\n        /* \"#utility.yul\":15662:16081   */\n    tag_124:\n        /* \"#utility.yul\":15828:15832   */\n      0x00\n        /* \"#utility.yul\":15866:15868   */\n      0x20\n        /* \"#utility.yul\":15855:15864   */\n      dup3\n        /* \"#utility.yul\":15851:15869   */\n      add\n        /* \"#utility.yul\":15843:15869   */\n      swap1\n      pop\n        /* \"#utility.yul\":15915:15924   */\n      dup2\n        /* \"#utility.yul\":15909:15913   */\n      dup2\n        /* \"#utility.yul\":15905:15925   */\n      sub\n        /* \"#utility.yul\":15901:15902   */\n      0x00\n        /* \"#utility.yul\":15890:15899   */\n      dup4\n        /* \"#utility.yul\":15886:15903   */\n      add\n        /* \"#utility.yul\":15879:15926   */\n      mstore\n        /* \"#utility.yul\":15943:16074   */\n      tag_354\n        /* \"#utility.yul\":16069:16073   */\n      dup2\n        /* \"#utility.yul\":15943:16074   */\n      tag_220\n      jump\t// in\n    tag_354:\n        /* \"#utility.yul\":15935:16074   */\n      swap1\n      pop\n        /* \"#utility.yul\":15662:16081   */\n      swap2\n      swap1\n      pop\n      jump\t// out\n        /* \"#utility.yul\":16087:16267   */\n    tag_138:\n        /* \"#utility.yul\":16135:16212   */\n      0x4e487b7100000000000000000000000000000000000000000000000000000000\n        /* \"#utility.yul\":16132:16133   */\n      0x00\n        /* \"#utility.yul\":16125:16213   */\n      mstore\n        /* \"#utility.yul\":16232:16236   */\n      0x41\n        /* \"#utility.yul\":16229:16230   */\n      0x04\n        /* \"#utility.yul\":16222:16237   */\n      mstore\n        /* \"#utility.yul\":16256:16260   */\n      0x24\n        /* \"#utility.yul\":16253:16254   */\n      0x00\n        /* \"#utility.yul\":16246:16261   */\n      revert\n        /* \"#utility.yul\":16273:16453   */\n    tag_144:\n        /* \"#utility.yul\":16321:16398   */\n      0x4e487b7100000000000000000000000000000000000000000000000000000000\n        /* \"#utility.yul\":16318:16319   */\n      0x00\n        /* \"#utility.yul\":16311:16399   */\n      mstore\n        /* \"#utility.yul\":16418:16422   */\n      0x12\n        /* \"#utility.yul\":16415:16416   */\n      0x04\n        /* \"#utility.yul\":16408:16423   */\n      mstore\n        /* \"#utility.yul\":16442:16446   */\n      0x24\n        /* \"#utility.yul\":16439:16440   */\n      0x00\n        /* \"#utility.yul\":16432:16447   */\n      revert\n        /* \"#utility.yul\":16459:16639   */\n    tag_152:\n        /* \"#utility.yul\":16507:16584   */\n      0x4e487b7100000000000000000000000000000000000000000000000000000000\n        /* \"#utility.yul\":16504:16505   */\n      0x00\n        /* \"#utility.yul\":16497:16585   */\n      mstore\n        /* \"#utility.yul\":16604:16608   */\n      0x32\n        /* \"#utility.yul\":16601:16602   */\n      0x04\n        /* \"#utility.yul\":16594:16609   */\n      mstore\n        /* \"#utility.yul\":16628:16632   */\n      0x24\n        /* \"#utility.yul\":16625:16626   */\n      0x00\n        /* \"#utility.yul\":16618:16633   */\n      revert\n\n    auxdata: 0xa26469706673582212204ad37707f1ab0e4e3183e22d1663fefc481d227c8016f320297ea089ccb7b14864736f6c634300081a0033\n}\n",
				"bytecode": {
					"linkReferences": {},
					"object": "608060405234801561000f575f80fd5b50604051611cef380380611cef833981810160405281019061003191906104f4565b335f806101000a81548173ffffffffffffffffffffffffffffffffffffffff021916908373ffffffffffffffffffffffffffffffffffffffff16021790555061007f8161011560201b60201c565b826005819055508160065f6101000a81548173ffffffffffffffffffffffffffffffffffffffff021916908373ffffffffffffffffffffffffffffffffffffffff1602179055503360075f6101000a81548173ffffffffffffffffffffffffffffffffffffffff021916908373ffffffffffffffffffffffffffffffffffffffff16021790555042600881905550505050610761565b5f8054906101000a900473ffffffffffffffffffffffffffffffffffffffff1673ffffffffffffffffffffffffffffffffffffffff163373ffffffffffffffffffffffffffffffffffffffff16146101a2576040517f08c379a00000000000000000000000000000000000000000000000000000000081526004016101999061059e565b60405180910390fd5b66038d7ea4c6800067ffffffffffffffff168110156101d766038d7ea4c6800067ffffffffffffffff1661024260201b60201c565b6040516020016101e7919061067e565b60405160208183030381529060405290610237576040517f08c379a000000000000000000000000000000000000000000000000000000000815260040161022e91906106e7565b60405180910390fd5b508060048190555050565b60605f60016102568461031260201b60201c565b0190505f8167ffffffffffffffff81111561027457610273610707565b5b6040519080825280601f01601f1916602001820160405280156102a65781602001600182028036833780820191505090505b5090505f82602001820190505b600115610307578080600190039150507f3031323334353637383961626364656600000000000000000000000000000000600a86061a8153600a85816102fc576102fb610734565b5b0494505f85036102b3575b819350505050919050565b5f805f90507a184f03e93ff9f4daa797ed6e38ed64bf6a1f010000000000000000831061036e577a184f03e93ff9f4daa797ed6e38ed64bf6a1f010000000000000000838161036457610363610734565b5b0492506040810190505b6d04ee2d6d415b85acef810000000083106103ab576d04ee2d6d415b85acef810000000083816103a1576103a0610734565b5b0492506020810190505b662386f26fc1000083106103da57662386f26fc1000083816103d0576103cf610734565b5b0492506010810190505b6305f5e1008310610403576305f5e10083816103f9576103f8610734565b5b0492506008810190505b612710831061042857612710838161041e5761041d610734565b5b0492506004810190505b6064831061044b576064838161044157610440610734565b5b0492506002810190505b600a831061045a576001810190505b80915050919050565b5f80fd5b5f819050919050565b61047981610467565b8114610483575f80fd5b50565b5f8151905061049481610470565b92915050565b5f73ffffffffffffffffffffffffffffffffffffffff82169050919050565b5f6104c38261049a565b9050919050565b6104d3816104b9565b81146104dd575f80fd5b50565b5f815190506104ee816104ca565b92915050565b5f805f6060848603121561050b5761050a610463565b5b5f61051886828701610486565b9350506020610529868287016104e0565b925050604061053a86828701610486565b9150509250925092565b5f82825260208201905092915050565b7f43616c6c6572206973206e6f74206f776e6572000000000000000000000000005f82015250565b5f610588601383610544565b915061059382610554565b602082019050919050565b5f6020820190508181035f8301526105b58161057c565b9050919050565b5f81519050919050565b5f81905092915050565b8281835e5f83830152505050565b5f6105e8826105bc565b6105f281856105c6565b93506106028185602086016105d0565b80840191505092915050565b7f206973206d696e696d756d2076616c756520746f20736574206c6f77657220645f8201527f6f6e6174696f6e00000000000000000000000000000000000000000000000000602082015250565b5f6106686027836105c6565b91506106738261060e565b602782019050919050565b5f61068982846105de565b91506106948261065c565b915081905092915050565b5f601f19601f8301169050919050565b5f6106b9826105bc565b6106c38185610544565b93506106d38185602086016105d0565b6106dc8161069f565b840191505092915050565b5f6020820190508181035f8301526106ff81846106af565b905092915050565b7f4e487b71000000000000000000000000000000000000000000000000000000005f52604160045260245ffd5b7f4e487b71000000000000000000000000000000000000000000000000000000005f52601260045260245ffd5b6115818061076e5f395ff3fe60806040526004361061009b575f3560e01c8063811d36e911610063578063811d36e914610159578063bf1482fa14610181578063c12cfa63146101ab578063c2348491146101d5578063c3d6fdf2146101fd578063ed88c68e146102395761009b565b80630ab5d8be1461009f578063195199f6146100c95780631e09c9ca146100f15780633ccfd60b14610119578063528a28b71461012f575b5f80fd5b3480156100aa575f80fd5b506100b3610243565b6040516100c09190610dbe565b60405180910390f35b3480156100d4575f80fd5b506100ef60048036038101906100ea9190610e05565b61024c565b005b3480156100fc575f80fd5b5061011760048036038101906101129190610e05565b6102e3565b005b348015610124575f80fd5b5061012d61040a565b005b34801561013a575f80fd5b50610143610643565b6040516101509190610e4a565b60405180910390f35b348015610164575f80fd5b5061017f600480360381019061017a9190610ebd565b61065c565b005b34801561018c575f80fd5b5061019561072c565b6040516101a29190610f9f565b60405180910390f35b3480156101b6575f80fd5b506101bf6107b7565b6040516101cc9190610fce565b60405180910390f35b3480156101e0575f80fd5b506101fb60048036038101906101f69190610ebd565b6107de565b005b348015610208575f80fd5b50610223600480360381019061021e9190610ebd565b6108ae565b6040516102309190610dbe565b60405180910390f35b6102416108f4565b005b5f600354905090565b5f8054906101000a900473ffffffffffffffffffffffffffffffffffffffff1673ffffffffffffffffffffffffffffffffffffffff163373ffffffffffffffffffffffffffffffffffffffff16146102d9576040517f08c379a00000000000000000000000000000000000000000000000000000000081526004016102d090611041565b60405180910390fd5b8060058190555050565b5f8054906101000a900473ffffffffffffffffffffffffffffffffffffffff1673ffffffffffffffffffffffffffffffffffffffff163373ffffffffffffffffffffffffffffffffffffffff1614610370576040517f08c379a000000000000000000000000000000000000000000000000000000000815260040161036790611041565b60405180910390fd5b66038d7ea4c6800067ffffffffffffffff1681101561039f66038d7ea4c6800067ffffffffffffffff16610b0d565b6040516020016103af9190611121565b604051602081830303815290604052906103ff576040517f08c379a00000000000000000000000000000000000000000000000000000000081526004016103f6919061118a565b60405180910390fd5b508060048190555050565b60075f9054906101000a900473ffffffffffffffffffffffffffffffffffffffff1673ffffffffffffffffffffffffffffffffffffffff163373ffffffffffffffffffffffffffffffffffffffff1614610499576040517f08c379a0000000000000000000000000000000000000000000000000000000008152600401610490906111f4565b60405180910390fd5b5f73ffffffffffffffffffffffffffffffffffffffff1660065f9054906101000a900473ffffffffffffffffffffffffffffffffffffffff1673ffffffffffffffffffffffffffffffffffffffff1603610528576040517f08c379a000000000000000000000000000000000000000000000000000000000815260040161051f9061125c565b60405180910390fd5b610530610643565b61056f576040517f08c379a0000000000000000000000000000000000000000000000000000000008152600401610566906112c4565b60405180910390fd5b5f4790505f8060065f9054906101000a900473ffffffffffffffffffffffffffffffffffffffff1673ffffffffffffffffffffffffffffffffffffffff16836040516105ba9061130f565b5f6040518083038185875af1925050503d805f81146105f4576040519150601f19603f3d011682016040523d82523d5f602084013e6105f9565b606091505b50915091508161063e576040517f08c379a00000000000000000000000000000000000000000000000000000000081526004016106359061136d565b60405180910390fd5b505050565b5f60055460085461065491906113b8565b421015905090565b5f8054906101000a900473ffffffffffffffffffffffffffffffffffffffff1673ffffffffffffffffffffffffffffffffffffffff163373ffffffffffffffffffffffffffffffffffffffff16146106e9576040517f08c379a00000000000000000000000000000000000000000000000000000000081526004016106e090611041565b60405180910390fd5b8060075f6101000a81548173ffffffffffffffffffffffffffffffffffffffff021916908373ffffffffffffffffffffffffffffffffffffffff16021790555050565b606060028054806020026020016040519081016040528092919081815260200182805480156107ad57602002820191905f5260205f20905b815f9054906101000a900473ffffffffffffffffffffffffffffffffffffffff1673ffffffffffffffffffffffffffffffffffffffff1681526020019060010190808311610764575b5050505050905090565b5f805f9054906101000a900473ffffffffffffffffffffffffffffffffffffffff16905090565b5f8054906101000a900473ffffffffffffffffffffffffffffffffffffffff1673ffffffffffffffffffffffffffffffffffffffff163373ffffffffffffffffffffffffffffffffffffffff161461086b576040517f08c379a000000000000000000000000000000000000000000000000000000000815260040161086290611041565b60405180910390fd5b8060065f6101000a81548173ffffffffffffffffffffffffffffffffffffffff021916908373ffffffffffffffffffffffffffffffffffffffff16021790555050565b5f60015f8373ffffffffffffffffffffffffffffffffffffffff1673ffffffffffffffffffffffffffffffffffffffff1681526020019081526020015f20549050919050565b600454341015610905600454610b0d565b6040516020016109159190611411565b60405160208183030381529060405290610965576040517f08c379a000000000000000000000000000000000000000000000000000000000815260040161095c919061118a565b60405180910390fd5b5061096e610643565b156109ae576040517f08c379a00000000000000000000000000000000000000000000000000000000081526004016109a5906114a6565b60405180910390fd5b3460015f3373ffffffffffffffffffffffffffffffffffffffff1673ffffffffffffffffffffffffffffffffffffffff1681526020019081526020015f205f8282546109fa91906113b8565b92505081905550610a8e6002805480602002602001604051908101604052809291908181526020018280548015610a8357602002820191905f5260205f20905b815f9054906101000a900473ffffffffffffffffffffffffffffffffffffffff1673ffffffffffffffffffffffffffffffffffffffff1681526020019060010190808311610a3a575b505050505033610bd7565b610af357600233908060018154018082558091505060019003905f5260205f20015f9091909190916101000a81548173ffffffffffffffffffffffffffffffffffffffff021916908373ffffffffffffffffffffffffffffffffffffffff1602179055505b3460035f828254610b0491906113b8565b92505081905550565b60605f6001610b1b84610c55565b0190505f8167ffffffffffffffff811115610b3957610b386114c4565b5b6040519080825280601f01601f191660200182016040528015610b6b5781602001600182028036833780820191505090505b5090505f82602001820190505b600115610bcc578080600190039150507f3031323334353637383961626364656600000000000000000000000000000000600a86061a8153600a8581610bc157610bc06114f1565b5b0494505f8503610b78575b819350505050919050565b5f805f90505b8351811015610c4a578273ffffffffffffffffffffffffffffffffffffffff16848281518110610c1057610c0f61151e565b5b602002602001015173ffffffffffffffffffffffffffffffffffffffff1603610c3d576001915050610c4f565b8080600101915050610bdd565b505f90505b92915050565b5f805f90507a184f03e93ff9f4daa797ed6e38ed64bf6a1f0100000000000000008310610cb1577a184f03e93ff9f4daa797ed6e38ed64bf6a1f0100000000000000008381610ca757610ca66114f1565b5b0492506040810190505b6d04ee2d6d415b85acef81000000008310610cee576d04ee2d6d415b85acef81000000008381610ce457610ce36114f1565b5b0492506020810190505b662386f26fc100008310610d1d57662386f26fc100008381610d1357610d126114f1565b5b0492506010810190505b6305f5e1008310610d46576305f5e1008381610d3c57610d3b6114f1565b5b0492506008810190505b6127108310610d6b576127108381610d6157610d606114f1565b5b0492506004810190505b60648310610d8e5760648381610d8457610d836114f1565b5b0492506002810190505b600a8310610d9d576001810190505b80915050919050565b5f819050919050565b610db881610da6565b82525050565b5f602082019050610dd15f830184610daf565b92915050565b5f80fd5b610de481610da6565b8114610dee575f80fd5b50565b5f81359050610dff81610ddb565b92915050565b5f60208284031215610e1a57610e19610dd7565b5b5f610e2784828501610df1565b91505092915050565b5f8115159050919050565b610e4481610e30565b82525050565b5f602082019050610e5d5f830184610e3b565b92915050565b5f73ffffffffffffffffffffffffffffffffffffffff82169050919050565b5f610e8c82610e63565b9050919050565b610e9c81610e82565b8114610ea6575f80fd5b50565b5f81359050610eb781610e93565b92915050565b5f60208284031215610ed257610ed1610dd7565b5b5f610edf84828501610ea9565b91505092915050565b5f81519050919050565b5f82825260208201905092915050565b5f819050602082019050919050565b610f1a81610e82565b82525050565b5f610f2b8383610f11565b60208301905092915050565b5f602082019050919050565b5f610f4d82610ee8565b610f578185610ef2565b9350610f6283610f02565b805f5b83811015610f92578151610f798882610f20565b9750610f8483610f37565b925050600181019050610f65565b5085935050505092915050565b5f6020820190508181035f830152610fb78184610f43565b905092915050565b610fc881610e82565b82525050565b5f602082019050610fe15f830184610fbf565b92915050565b5f82825260208201905092915050565b7f43616c6c6572206973206e6f74206f776e6572000000000000000000000000005f82015250565b5f61102b601383610fe7565b915061103682610ff7565b602082019050919050565b5f6020820190508181035f8301526110588161101f565b9050919050565b5f81519050919050565b5f81905092915050565b8281835e5f83830152505050565b5f61108b8261105f565b6110958185611069565b93506110a5818560208601611073565b80840191505092915050565b7f206973206d696e696d756d2076616c756520746f20736574206c6f77657220645f8201527f6f6e6174696f6e00000000000000000000000000000000000000000000000000602082015250565b5f61110b602783611069565b9150611116826110b1565b602782019050919050565b5f61112c8284611081565b9150611137826110ff565b915081905092915050565b5f601f19601f8301169050919050565b5f61115c8261105f565b6111668185610fe7565b9350611176818560208601611073565b61117f81611142565b840191505092915050565b5f6020820190508181035f8301526111a28184611152565b905092915050565b7f416c6c6f776564206f6e6c7920666f7220726570726573656e746174697665005f82015250565b5f6111de601f83610fe7565b91506111e9826111aa565b602082019050919050565b5f6020820190508181035f83015261120b816111d2565b9050919050565b7f44657374696e6174696f6e2061646472206973206e6f742073657400000000005f82015250565b5f611246601b83610fe7565b915061125182611212565b602082019050919050565b5f6020820190508181035f8301526112738161123a565b9050919050565b7f4973206e6f7420646561646c696e6520796574000000000000000000000000005f82015250565b5f6112ae601383610fe7565b91506112b98261127a565b602082019050919050565b5f6020820190508181035f8301526112db816112a2565b9050919050565b5f81905092915050565b50565b5f6112fa5f836112e2565b9150611305826112ec565b5f82019050919050565b5f611319826112ef565b9150819050919050565b7f4661696c656420746f2073656e6420646f6e6174696f6e7300000000000000005f82015250565b5f611357601883610fe7565b915061136282611323565b602082019050919050565b5f6020820190508181035f8301526113848161134b565b9050919050565b7f4e487b71000000000000000000000000000000000000000000000000000000005f52601160045260245ffd5b5f6113c282610da6565b91506113cd83610da6565b92508282019050808211156113e5576113e461138b565b5b92915050565b7f206973206d696e696d756d2076616c7565000000000000000000000000000000815250565b5f61141c8284611081565b9150611427826113eb565b60118201915081905092915050565b7f446f6e6174696f6e206e6f7420616c6c6f77656420616674657220646561646c5f8201527f696e650000000000000000000000000000000000000000000000000000000000602082015250565b5f611490602383610fe7565b915061149b82611436565b604082019050919050565b5f6020820190508181035f8301526114bd81611484565b9050919050565b7f4e487b71000000000000000000000000000000000000000000000000000000005f52604160045260245ffd5b7f4e487b71000000000000000000000000000000000000000000000000000000005f52601260045260245ffd5b7f4e487b71000000000000000000000000000000000000000000000000000000005f52603260045260245ffdfea26469706673582212204ad37707f1ab0e4e3183e22d1663fefc481d227c8016f320297ea089ccb7b14864736f6c634300081a0033",
					"opcodes": "PUSH1 0x80 PUSH1 0x40 MSTORE CALLVALUE DUP1 ISZERO PUSH2 0xF JUMPI PUSH0 DUP1 REVERT JUMPDEST POP PUSH1 0x40 MLOAD PUSH2 0x1CEF CODESIZE SUB DUP1 PUSH2 0x1CEF DUP4 CODECOPY DUP2 DUP2 ADD PUSH1 0x40 MSTORE DUP2 ADD SWAP1 PUSH2 0x31 SWAP2 SWAP1 PUSH2 0x4F4 JUMP JUMPDEST CALLER PUSH0 DUP1 PUSH2 0x100 EXP DUP2 SLOAD DUP2 PUSH20 0xFFFFFFFFFFFFFFFFFFFFFFFFFFFFFFFFFFFFFFFF MUL NOT AND SWAP1 DUP4 PUSH20 0xFFFFFFFFFFFFFFFFFFFFFFFFFFFFFFFFFFFFFFFF AND MUL OR SWAP1 SSTORE POP PUSH2 0x7F DUP2 PUSH2 0x115 PUSH1 0x20 SHL PUSH1 0x20 SHR JUMP JUMPDEST DUP3 PUSH1 0x5 DUP2 SWAP1 SSTORE POP DUP2 PUSH1 0x6 PUSH0 PUSH2 0x100 EXP DUP2 SLOAD DUP2 PUSH20 0xFFFFFFFFFFFFFFFFFFFFFFFFFFFFFFFFFFFFFFFF MUL NOT AND SWAP1 DUP4 PUSH20 0xFFFFFFFFFFFFFFFFFFFFFFFFFFFFFFFFFFFFFFFF AND MUL OR SWAP1 SSTORE POP CALLER PUSH1 0x7 PUSH0 PUSH2 0x100 EXP DUP2 SLOAD DUP2 PUSH20 0xFFFFFFFFFFFFFFFFFFFFFFFFFFFFFFFFFFFFFFFF MUL NOT AND SWAP1 DUP4 PUSH20 0xFFFFFFFFFFFFFFFFFFFFFFFFFFFFFFFFFFFFFFFF AND MUL OR SWAP1 SSTORE POP TIMESTAMP PUSH1 0x8 DUP2 SWAP1 SSTORE POP POP POP POP PUSH2 0x761 JUMP JUMPDEST PUSH0 DUP1 SLOAD SWAP1 PUSH2 0x100 EXP SWAP1 DIV PUSH20 0xFFFFFFFFFFFFFFFFFFFFFFFFFFFFFFFFFFFFFFFF AND PUSH20 0xFFFFFFFFFFFFFFFFFFFFFFFFFFFFFFFFFFFFFFFF AND CALLER PUSH20 0xFFFFFFFFFFFFFFFFFFFFFFFFFFFFFFFFFFFFFFFF AND EQ PUSH2 0x1A2 JUMPI PUSH1 0x40 MLOAD PUSH32 0x8C379A000000000000000000000000000000000000000000000000000000000 DUP2 MSTORE PUSH1 0x4 ADD PUSH2 0x199 SWAP1 PUSH2 0x59E JUMP JUMPDEST PUSH1 0x40 MLOAD DUP1 SWAP2 SUB SWAP1 REVERT JUMPDEST PUSH7 0x38D7EA4C68000 PUSH8 0xFFFFFFFFFFFFFFFF AND DUP2 LT ISZERO PUSH2 0x1D7 PUSH7 0x38D7EA4C68000 PUSH8 0xFFFFFFFFFFFFFFFF AND PUSH2 0x242 PUSH1 0x20 SHL PUSH1 0x20 SHR JUMP JUMPDEST PUSH1 0x40 MLOAD PUSH1 0x20 ADD PUSH2 0x1E7 SWAP2 SWAP1 PUSH2 0x67E JUMP JUMPDEST PUSH1 0x40 MLOAD PUSH1 0x20 DUP2 DUP4 SUB SUB DUP2 MSTORE SWAP1 PUSH1 0x40 MSTORE SWAP1 PUSH2 0x237 JUMPI PUSH1 0x40 MLOAD PUSH32 0x8C379A000000000000000000000000000000000000000000000000000000000 DUP2 MSTORE PUSH1 0x4 ADD PUSH2 0x22E SWAP2 SWAP1 PUSH2 0x6E7 JUMP JUMPDEST PUSH1 0x40 MLOAD DUP1 SWAP2 SUB SWAP1 REVERT JUMPDEST POP DUP1 PUSH1 0x4 DUP2 SWAP1 SSTORE POP POP JUMP JUMPDEST PUSH1 0x60 PUSH0 PUSH1 0x1 PUSH2 0x256 DUP5 PUSH2 0x312 PUSH1 0x20 SHL PUSH1 0x20 SHR JUMP JUMPDEST ADD SWAP1 POP PUSH0 DUP2 PUSH8 0xFFFFFFFFFFFFFFFF DUP2 GT ISZERO PUSH2 0x274 JUMPI PUSH2 0x273 PUSH2 0x707 JUMP JUMPDEST JUMPDEST PUSH1 0x40 MLOAD SWAP1 DUP1 DUP3 MSTORE DUP1 PUSH1 0x1F ADD PUSH1 0x1F NOT AND PUSH1 0x20 ADD DUP3 ADD PUSH1 0x40 MSTORE DUP1 ISZERO PUSH2 0x2A6 JUMPI DUP2 PUSH1 0x20 ADD PUSH1 0x1 DUP3 MUL DUP1 CALLDATASIZE DUP4 CALLDATACOPY DUP1 DUP3 ADD SWAP2 POP POP SWAP1 POP JUMPDEST POP SWAP1 POP PUSH0 DUP3 PUSH1 0x20 ADD DUP3 ADD SWAP1 POP JUMPDEST PUSH1 0x1 ISZERO PUSH2 0x307 JUMPI DUP1 DUP1 PUSH1 0x1 SWAP1 SUB SWAP2 POP POP PUSH32 0x3031323334353637383961626364656600000000000000000000000000000000 PUSH1 0xA DUP7 MOD BYTE DUP2 MSTORE8 PUSH1 0xA DUP6 DUP2 PUSH2 0x2FC JUMPI PUSH2 0x2FB PUSH2 0x734 JUMP JUMPDEST JUMPDEST DIV SWAP5 POP PUSH0 DUP6 SUB PUSH2 0x2B3 JUMPI JUMPDEST DUP2 SWAP4 POP POP POP POP SWAP2 SWAP1 POP JUMP JUMPDEST PUSH0 DUP1 PUSH0 SWAP1 POP PUSH27 0x184F03E93FF9F4DAA797ED6E38ED64BF6A1F010000000000000000 DUP4 LT PUSH2 0x36E JUMPI PUSH27 0x184F03E93FF9F4DAA797ED6E38ED64BF6A1F010000000000000000 DUP4 DUP2 PUSH2 0x364 JUMPI PUSH2 0x363 PUSH2 0x734 JUMP JUMPDEST JUMPDEST DIV SWAP3 POP PUSH1 0x40 DUP2 ADD SWAP1 POP JUMPDEST PUSH14 0x4EE2D6D415B85ACEF8100000000 DUP4 LT PUSH2 0x3AB JUMPI PUSH14 0x4EE2D6D415B85ACEF8100000000 DUP4 DUP2 PUSH2 0x3A1 JUMPI PUSH2 0x3A0 PUSH2 0x734 JUMP JUMPDEST JUMPDEST DIV SWAP3 POP PUSH1 0x20 DUP2 ADD SWAP1 POP JUMPDEST PUSH7 0x2386F26FC10000 DUP4 LT PUSH2 0x3DA JUMPI PUSH7 0x2386F26FC10000 DUP4 DUP2 PUSH2 0x3D0 JUMPI PUSH2 0x3CF PUSH2 0x734 JUMP JUMPDEST JUMPDEST DIV SWAP3 POP PUSH1 0x10 DUP2 ADD SWAP1 POP JUMPDEST PUSH4 0x5F5E100 DUP4 LT PUSH2 0x403 JUMPI PUSH4 0x5F5E100 DUP4 DUP2 PUSH2 0x3F9 JUMPI PUSH2 0x3F8 PUSH2 0x734 JUMP JUMPDEST JUMPDEST DIV SWAP3 POP PUSH1 0x8 DUP2 ADD SWAP1 POP JUMPDEST PUSH2 0x2710 DUP4 LT PUSH2 0x428 JUMPI PUSH2 0x2710 DUP4 DUP2 PUSH2 0x41E JUMPI PUSH2 0x41D PUSH2 0x734 JUMP JUMPDEST JUMPDEST DIV SWAP3 POP PUSH1 0x4 DUP2 ADD SWAP1 POP JUMPDEST PUSH1 0x64 DUP4 LT PUSH2 0x44B JUMPI PUSH1 0x64 DUP4 DUP2 PUSH2 0x441 JUMPI PUSH2 0x440 PUSH2 0x734 JUMP JUMPDEST JUMPDEST DIV SWAP3 POP PUSH1 0x2 DUP2 ADD SWAP1 POP JUMPDEST PUSH1 0xA DUP4 LT PUSH2 0x45A JUMPI PUSH1 0x1 DUP2 ADD SWAP1 POP JUMPDEST DUP1 SWAP2 POP POP SWAP2 SWAP1 POP JUMP JUMPDEST PUSH0 DUP1 REVERT JUMPDEST PUSH0 DUP2 SWAP1 POP SWAP2 SWAP1 POP JUMP JUMPDEST PUSH2 0x479 DUP2 PUSH2 0x467 JUMP JUMPDEST DUP2 EQ PUSH2 0x483 JUMPI PUSH0 DUP1 REVERT JUMPDEST POP JUMP JUMPDEST PUSH0 DUP2 MLOAD SWAP1 POP PUSH2 0x494 DUP2 PUSH2 0x470 JUMP JUMPDEST SWAP3 SWAP2 POP POP JUMP JUMPDEST PUSH0 PUSH20 0xFFFFFFFFFFFFFFFFFFFFFFFFFFFFFFFFFFFFFFFF DUP3 AND SWAP1 POP SWAP2 SWAP1 POP JUMP JUMPDEST PUSH0 PUSH2 0x4C3 DUP3 PUSH2 0x49A JUMP JUMPDEST SWAP1 POP SWAP2 SWAP1 POP JUMP JUMPDEST PUSH2 0x4D3 DUP2 PUSH2 0x4B9 JUMP JUMPDEST DUP2 EQ PUSH2 0x4DD JUMPI PUSH0 DUP1 REVERT JUMPDEST POP JUMP JUMPDEST PUSH0 DUP2 MLOAD SWAP1 POP PUSH2 0x4EE DUP2 PUSH2 0x4CA JUMP JUMPDEST SWAP3 SWAP2 POP POP JUMP JUMPDEST PUSH0 DUP1 PUSH0 PUSH1 0x60 DUP5 DUP7 SUB SLT ISZERO PUSH2 0x50B JUMPI PUSH2 0x50A PUSH2 0x463 JUMP JUMPDEST JUMPDEST PUSH0 PUSH2 0x518 DUP7 DUP3 DUP8 ADD PUSH2 0x486 JUMP JUMPDEST SWAP4 POP POP PUSH1 0x20 PUSH2 0x529 DUP7 DUP3 DUP8 ADD PUSH2 0x4E0 JUMP JUMPDEST SWAP3 POP POP PUSH1 0x40 PUSH2 0x53A DUP7 DUP3 DUP8 ADD PUSH2 0x486 JUMP JUMPDEST SWAP2 POP POP SWAP3 POP SWAP3 POP SWAP3 JUMP JUMPDEST PUSH0 DUP3 DUP3 MSTORE PUSH1 0x20 DUP3 ADD SWAP1 POP SWAP3 SWAP2 POP POP JUMP JUMPDEST PUSH32 0x43616C6C6572206973206E6F74206F776E657200000000000000000000000000 PUSH0 DUP3 ADD MSTORE POP JUMP JUMPDEST PUSH0 PUSH2 0x588 PUSH1 0x13 DUP4 PUSH2 0x544 JUMP JUMPDEST SWAP2 POP PUSH2 0x593 DUP3 PUSH2 0x554 JUMP JUMPDEST PUSH1 0x20 DUP3 ADD SWAP1 POP SWAP2 SWAP1 POP JUMP JUMPDEST PUSH0 PUSH1 0x20 DUP3 ADD SWAP1 POP DUP2 DUP2 SUB PUSH0 DUP4 ADD MSTORE PUSH2 0x5B5 DUP2 PUSH2 0x57C JUMP JUMPDEST SWAP1 POP SWAP2 SWAP1 POP JUMP JUMPDEST PUSH0 DUP2 MLOAD SWAP1 POP SWAP2 SWAP1 POP JUMP JUMPDEST PUSH0 DUP2 SWAP1 POP SWAP3 SWAP2 POP POP JUMP JUMPDEST DUP3 DUP2 DUP4 MCOPY PUSH0 DUP4 DUP4 ADD MSTORE POP POP POP JUMP JUMPDEST PUSH0 PUSH2 0x5E8 DUP3 PUSH2 0x5BC JUMP JUMPDEST PUSH2 0x5F2 DUP2 DUP6 PUSH2 0x5C6 JUMP JUMPDEST SWAP4 POP PUSH2 0x602 DUP2 DUP6 PUSH1 0x20 DUP7 ADD PUSH2 0x5D0 JUMP JUMPDEST DUP1 DUP5 ADD SWAP2 POP POP SWAP3 SWAP2 POP POP JUMP JUMPDEST PUSH32 0x206973206D696E696D756D2076616C756520746F20736574206C6F7765722064 PUSH0 DUP3 ADD MSTORE PUSH32 0x6F6E6174696F6E00000000000000000000000000000000000000000000000000 PUSH1 0x20 DUP3 ADD MSTORE POP JUMP JUMPDEST PUSH0 PUSH2 0x668 PUSH1 0x27 DUP4 PUSH2 0x5C6 JUMP JUMPDEST SWAP2 POP PUSH2 0x673 DUP3 PUSH2 0x60E JUMP JUMPDEST PUSH1 0x27 DUP3 ADD SWAP1 POP SWAP2 SWAP1 POP JUMP JUMPDEST PUSH0 PUSH2 0x689 DUP3 DUP5 PUSH2 0x5DE JUMP JUMPDEST SWAP2 POP PUSH2 0x694 DUP3 PUSH2 0x65C JUMP JUMPDEST SWAP2 POP DUP2 SWAP1 POP SWAP3 SWAP2 POP POP JUMP JUMPDEST PUSH0 PUSH1 0x1F NOT PUSH1 0x1F DUP4 ADD AND SWAP1 POP SWAP2 SWAP1 POP JUMP JUMPDEST PUSH0 PUSH2 0x6B9 DUP3 PUSH2 0x5BC JUMP JUMPDEST PUSH2 0x6C3 DUP2 DUP6 PUSH2 0x544 JUMP JUMPDEST SWAP4 POP PUSH2 0x6D3 DUP2 DUP6 PUSH1 0x20 DUP7 ADD PUSH2 0x5D0 JUMP JUMPDEST PUSH2 0x6DC DUP2 PUSH2 0x69F JUMP JUMPDEST DUP5 ADD SWAP2 POP POP SWAP3 SWAP2 POP POP JUMP JUMPDEST PUSH0 PUSH1 0x20 DUP3 ADD SWAP1 POP DUP2 DUP2 SUB PUSH0 DUP4 ADD MSTORE PUSH2 0x6FF DUP2 DUP5 PUSH2 0x6AF JUMP JUMPDEST SWAP1 POP SWAP3 SWAP2 POP POP JUMP JUMPDEST PUSH32 0x4E487B7100000000000000000000000000000000000000000000000000000000 PUSH0 MSTORE PUSH1 0x41 PUSH1 0x4 MSTORE PUSH1 0x24 PUSH0 REVERT JUMPDEST PUSH32 0x4E487B7100000000000000000000000000000000000000000000000000000000 PUSH0 MSTORE PUSH1 0x12 PUSH1 0x4 MSTORE PUSH1 0x24 PUSH0 REVERT JUMPDEST PUSH2 0x1581 DUP1 PUSH2 0x76E PUSH0 CODECOPY PUSH0 RETURN INVALID PUSH1 0x80 PUSH1 0x40 MSTORE PUSH1 0x4 CALLDATASIZE LT PUSH2 0x9B JUMPI PUSH0 CALLDATALOAD PUSH1 0xE0 SHR DUP1 PUSH4 0x811D36E9 GT PUSH2 0x63 JUMPI DUP1 PUSH4 0x811D36E9 EQ PUSH2 0x159 JUMPI DUP1 PUSH4 0xBF1482FA EQ PUSH2 0x181 JUMPI DUP1 PUSH4 0xC12CFA63 EQ PUSH2 0x1AB JUMPI DUP1 PUSH4 0xC2348491 EQ PUSH2 0x1D5 JUMPI DUP1 PUSH4 0xC3D6FDF2 EQ PUSH2 0x1FD JUMPI DUP1 PUSH4 0xED88C68E EQ PUSH2 0x239 JUMPI PUSH2 0x9B JUMP JUMPDEST DUP1 PUSH4 0xAB5D8BE EQ PUSH2 0x9F JUMPI DUP1 PUSH4 0x195199F6 EQ PUSH2 0xC9 JUMPI DUP1 PUSH4 0x1E09C9CA EQ PUSH2 0xF1 JUMPI DUP1 PUSH4 0x3CCFD60B EQ PUSH2 0x119 JUMPI DUP1 PUSH4 0x528A28B7 EQ PUSH2 0x12F JUMPI JUMPDEST PUSH0 DUP1 REVERT JUMPDEST CALLVALUE DUP1 ISZERO PUSH2 0xAA JUMPI PUSH0 DUP1 REVERT JUMPDEST POP PUSH2 0xB3 PUSH2 0x243 JUMP JUMPDEST PUSH1 0x40 MLOAD PUSH2 0xC0 SWAP2 SWAP1 PUSH2 0xDBE JUMP JUMPDEST PUSH1 0x40 MLOAD DUP1 SWAP2 SUB SWAP1 RETURN JUMPDEST CALLVALUE DUP1 ISZERO PUSH2 0xD4 JUMPI PUSH0 DUP1 REVERT JUMPDEST POP PUSH2 0xEF PUSH1 0x4 DUP1 CALLDATASIZE SUB DUP2 ADD SWAP1 PUSH2 0xEA SWAP2 SWAP1 PUSH2 0xE05 JUMP JUMPDEST PUSH2 0x24C JUMP JUMPDEST STOP JUMPDEST CALLVALUE DUP1 ISZERO PUSH2 0xFC JUMPI PUSH0 DUP1 REVERT JUMPDEST POP PUSH2 0x117 PUSH1 0x4 DUP1 CALLDATASIZE SUB DUP2 ADD SWAP1 PUSH2 0x112 SWAP2 SWAP1 PUSH2 0xE05 JUMP JUMPDEST PUSH2 0x2E3 JUMP JUMPDEST STOP JUMPDEST CALLVALUE DUP1 ISZERO PUSH2 0x124 JUMPI PUSH0 DUP1 REVERT JUMPDEST POP PUSH2 0x12D PUSH2 0x40A JUMP JUMPDEST STOP JUMPDEST CALLVALUE DUP1 ISZERO PUSH2 0x13A JUMPI PUSH0 DUP1 REVERT JUMPDEST POP PUSH2 0x143 PUSH2 0x643 JUMP JUMPDEST PUSH1 0x40 MLOAD PUSH2 0x150 SWAP2 SWAP1 PUSH2 0xE4A JUMP JUMPDEST PUSH1 0x40 MLOAD DUP1 SWAP2 SUB SWAP1 RETURN JUMPDEST CALLVALUE DUP1 ISZERO PUSH2 0x164 JUMPI PUSH0 DUP1 REVERT JUMPDEST POP PUSH2 0x17F PUSH1 0x4 DUP1 CALLDATASIZE SUB DUP2 ADD SWAP1 PUSH2 0x17A SWAP2 SWAP1 PUSH2 0xEBD JUMP JUMPDEST PUSH2 0x65C JUMP JUMPDEST STOP JUMPDEST CALLVALUE DUP1 ISZERO PUSH2 0x18C JUMPI PUSH0 DUP1 REVERT JUMPDEST POP PUSH2 0x195 PUSH2 0x72C JUMP JUMPDEST PUSH1 0x40 MLOAD PUSH2 0x1A2 SWAP2 SWAP1 PUSH2 0xF9F JUMP JUMPDEST PUSH1 0x40 MLOAD DUP1 SWAP2 SUB SWAP1 RETURN JUMPDEST CALLVALUE DUP1 ISZERO PUSH2 0x1B6 JUMPI PUSH0 DUP1 REVERT JUMPDEST POP PUSH2 0x1BF PUSH2 0x7B7 JUMP JUMPDEST PUSH1 0x40 MLOAD PUSH2 0x1CC SWAP2 SWAP1 PUSH2 0xFCE JUMP JUMPDEST PUSH1 0x40 MLOAD DUP1 SWAP2 SUB SWAP1 RETURN JUMPDEST CALLVALUE DUP1 ISZERO PUSH2 0x1E0 JUMPI PUSH0 DUP1 REVERT JUMPDEST POP PUSH2 0x1FB PUSH1 0x4 DUP1 CALLDATASIZE SUB DUP2 ADD SWAP1 PUSH2 0x1F6 SWAP2 SWAP1 PUSH2 0xEBD JUMP JUMPDEST PUSH2 0x7DE JUMP JUMPDEST STOP JUMPDEST CALLVALUE DUP1 ISZERO PUSH2 0x208 JUMPI PUSH0 DUP1 REVERT JUMPDEST POP PUSH2 0x223 PUSH1 0x4 DUP1 CALLDATASIZE SUB DUP2 ADD SWAP1 PUSH2 0x21E SWAP2 SWAP1 PUSH2 0xEBD JUMP JUMPDEST PUSH2 0x8AE JUMP JUMPDEST PUSH1 0x40 MLOAD PUSH2 0x230 SWAP2 SWAP1 PUSH2 0xDBE JUMP JUMPDEST PUSH1 0x40 MLOAD DUP1 SWAP2 SUB SWAP1 RETURN JUMPDEST PUSH2 0x241 PUSH2 0x8F4 JUMP JUMPDEST STOP JUMPDEST PUSH0 PUSH1 0x3 SLOAD SWAP1 POP SWAP1 JUMP JUMPDEST PUSH0 DUP1 SLOAD SWAP1 PUSH2 0x100 EXP SWAP1 DIV PUSH20 0xFFFFFFFFFFFFFFFFFFFFFFFFFFFFFFFFFFFFFFFF AND PUSH20 0xFFFFFFFFFFFFFFFFFFFFFFFFFFFFFFFFFFFFFFFF AND CALLER PUSH20 0xFFFFFFFFFFFFFFFFFFFFFFFFFFFFFFFFFFFFFFFF AND EQ PUSH2 0x2D9 JUMPI PUSH1 0x40 MLOAD PUSH32 0x8C379A000000000000000000000000000000000000000000000000000000000 DUP2 MSTORE PUSH1 0x4 ADD PUSH2 0x2D0 SWAP1 PUSH2 0x1041 JUMP JUMPDEST PUSH1 0x40 MLOAD DUP1 SWAP2 SUB SWAP1 REVERT JUMPDEST DUP1 PUSH1 0x5 DUP2 SWAP1 SSTORE POP POP JUMP JUMPDEST PUSH0 DUP1 SLOAD SWAP1 PUSH2 0x100 EXP SWAP1 DIV PUSH20 0xFFFFFFFFFFFFFFFFFFFFFFFFFFFFFFFFFFFFFFFF AND PUSH20 0xFFFFFFFFFFFFFFFFFFFFFFFFFFFFFFFFFFFFFFFF AND CALLER PUSH20 0xFFFFFFFFFFFFFFFFFFFFFFFFFFFFFFFFFFFFFFFF AND EQ PUSH2 0x370 JUMPI PUSH1 0x40 MLOAD PUSH32 0x8C379A000000000000000000000000000000000000000000000000000000000 DUP2 MSTORE PUSH1 0x4 ADD PUSH2 0x367 SWAP1 PUSH2 0x1041 JUMP JUMPDEST PUSH1 0x40 MLOAD DUP1 SWAP2 SUB SWAP1 REVERT JUMPDEST PUSH7 0x38D7EA4C68000 PUSH8 0xFFFFFFFFFFFFFFFF AND DUP2 LT ISZERO PUSH2 0x39F PUSH7 0x38D7EA4C68000 PUSH8 0xFFFFFFFFFFFFFFFF AND PUSH2 0xB0D JUMP JUMPDEST PUSH1 0x40 MLOAD PUSH1 0x20 ADD PUSH2 0x3AF SWAP2 SWAP1 PUSH2 0x1121 JUMP JUMPDEST PUSH1 0x40 MLOAD PUSH1 0x20 DUP2 DUP4 SUB SUB DUP2 MSTORE SWAP1 PUSH1 0x40 MSTORE SWAP1 PUSH2 0x3FF JUMPI PUSH1 0x40 MLOAD PUSH32 0x8C379A000000000000000000000000000000000000000000000000000000000 DUP2 MSTORE PUSH1 0x4 ADD PUSH2 0x3F6 SWAP2 SWAP1 PUSH2 0x118A JUMP JUMPDEST PUSH1 0x40 MLOAD DUP1 SWAP2 SUB SWAP1 REVERT JUMPDEST POP DUP1 PUSH1 0x4 DUP2 SWAP1 SSTORE POP POP JUMP JUMPDEST PUSH1 0x7 PUSH0 SWAP1 SLOAD SWAP1 PUSH2 0x100 EXP SWAP1 DIV PUSH20 0xFFFFFFFFFFFFFFFFFFFFFFFFFFFFFFFFFFFFFFFF AND PUSH20 0xFFFFFFFFFFFFFFFFFFFFFFFFFFFFFFFFFFFFFFFF AND CALLER PUSH20 0xFFFFFFFFFFFFFFFFFFFFFFFFFFFFFFFFFFFFFFFF AND EQ PUSH2 0x499 JUMPI PUSH1 0x40 MLOAD PUSH32 0x8C379A000000000000000000000000000000000000000000000000000000000 DUP2 MSTORE PUSH1 0x4 ADD PUSH2 0x490 SWAP1 PUSH2 0x11F4 JUMP JUMPDEST PUSH1 0x40 MLOAD DUP1 SWAP2 SUB SWAP1 REVERT JUMPDEST PUSH0 PUSH20 0xFFFFFFFFFFFFFFFFFFFFFFFFFFFFFFFFFFFFFFFF AND PUSH1 0x6 PUSH0 SWAP1 SLOAD SWAP1 PUSH2 0x100 EXP SWAP1 DIV PUSH20 0xFFFFFFFFFFFFFFFFFFFFFFFFFFFFFFFFFFFFFFFF AND PUSH20 0xFFFFFFFFFFFFFFFFFFFFFFFFFFFFFFFFFFFFFFFF AND SUB PUSH2 0x528 JUMPI PUSH1 0x40 MLOAD PUSH32 0x8C379A000000000000000000000000000000000000000000000000000000000 DUP2 MSTORE PUSH1 0x4 ADD PUSH2 0x51F SWAP1 PUSH2 0x125C JUMP JUMPDEST PUSH1 0x40 MLOAD DUP1 SWAP2 SUB SWAP1 REVERT JUMPDEST PUSH2 0x530 PUSH2 0x643 JUMP JUMPDEST PUSH2 0x56F JUMPI PUSH1 0x40 MLOAD PUSH32 0x8C379A000000000000000000000000000000000000000000000000000000000 DUP2 MSTORE PUSH1 0x4 ADD PUSH2 0x566 SWAP1 PUSH2 0x12C4 JUMP JUMPDEST PUSH1 0x40 MLOAD DUP1 SWAP2 SUB SWAP1 REVERT JUMPDEST PUSH0 SELFBALANCE SWAP1 POP PUSH0 DUP1 PUSH1 0x6 PUSH0 SWAP1 SLOAD SWAP1 PUSH2 0x100 EXP SWAP1 DIV PUSH20 0xFFFFFFFFFFFFFFFFFFFFFFFFFFFFFFFFFFFFFFFF AND PUSH20 0xFFFFFFFFFFFFFFFFFFFFFFFFFFFFFFFFFFFFFFFF AND DUP4 PUSH1 0x40 MLOAD PUSH2 0x5BA SWAP1 PUSH2 0x130F JUMP JUMPDEST PUSH0 PUSH1 0x40 MLOAD DUP1 DUP4 SUB DUP2 DUP6 DUP8 GAS CALL SWAP3 POP POP POP RETURNDATASIZE DUP1 PUSH0 DUP2 EQ PUSH2 0x5F4 JUMPI PUSH1 0x40 MLOAD SWAP2 POP PUSH1 0x1F NOT PUSH1 0x3F RETURNDATASIZE ADD AND DUP3 ADD PUSH1 0x40 MSTORE RETURNDATASIZE DUP3 MSTORE RETURNDATASIZE PUSH0 PUSH1 0x20 DUP5 ADD RETURNDATACOPY PUSH2 0x5F9 JUMP JUMPDEST PUSH1 0x60 SWAP2 POP JUMPDEST POP SWAP2 POP SWAP2 POP DUP2 PUSH2 0x63E JUMPI PUSH1 0x40 MLOAD PUSH32 0x8C379A000000000000000000000000000000000000000000000000000000000 DUP2 MSTORE PUSH1 0x4 ADD PUSH2 0x635 SWAP1 PUSH2 0x136D JUMP JUMPDEST PUSH1 0x40 MLOAD DUP1 SWAP2 SUB SWAP1 REVERT JUMPDEST POP POP POP JUMP JUMPDEST PUSH0 PUSH1 0x5 SLOAD PUSH1 0x8 SLOAD PUSH2 0x654 SWAP2 SWAP1 PUSH2 0x13B8 JUMP JUMPDEST TIMESTAMP LT ISZERO SWAP1 POP SWAP1 JUMP JUMPDEST PUSH0 DUP1 SLOAD SWAP1 PUSH2 0x100 EXP SWAP1 DIV PUSH20 0xFFFFFFFFFFFFFFFFFFFFFFFFFFFFFFFFFFFFFFFF AND PUSH20 0xFFFFFFFFFFFFFFFFFFFFFFFFFFFFFFFFFFFFFFFF AND CALLER PUSH20 0xFFFFFFFFFFFFFFFFFFFFFFFFFFFFFFFFFFFFFFFF AND EQ PUSH2 0x6E9 JUMPI PUSH1 0x40 MLOAD PUSH32 0x8C379A000000000000000000000000000000000000000000000000000000000 DUP2 MSTORE PUSH1 0x4 ADD PUSH2 0x6E0 SWAP1 PUSH2 0x1041 JUMP JUMPDEST PUSH1 0x40 MLOAD DUP1 SWAP2 SUB SWAP1 REVERT JUMPDEST DUP1 PUSH1 0x7 PUSH0 PUSH2 0x100 EXP DUP2 SLOAD DUP2 PUSH20 0xFFFFFFFFFFFFFFFFFFFFFFFFFFFFFFFFFFFFFFFF MUL NOT AND SWAP1 DUP4 PUSH20 0xFFFFFFFFFFFFFFFFFFFFFFFFFFFFFFFFFFFFFFFF AND MUL OR SWAP1 SSTORE POP POP JUMP JUMPDEST PUSH1 0x60 PUSH1 0x2 DUP1 SLOAD DUP1 PUSH1 0x20 MUL PUSH1 0x20 ADD PUSH1 0x40 MLOAD SWAP1 DUP2 ADD PUSH1 0x40 MSTORE DUP1 SWAP3 SWAP2 SWAP1 DUP2 DUP2 MSTORE PUSH1 0x20 ADD DUP3 DUP1 SLOAD DUP1 ISZERO PUSH2 0x7AD JUMPI PUSH1 0x20 MUL DUP3 ADD SWAP2 SWAP1 PUSH0 MSTORE PUSH1 0x20 PUSH0 KECCAK256 SWAP1 JUMPDEST DUP2 PUSH0 SWAP1 SLOAD SWAP1 PUSH2 0x100 EXP SWAP1 DIV PUSH20 0xFFFFFFFFFFFFFFFFFFFFFFFFFFFFFFFFFFFFFFFF AND PUSH20 0xFFFFFFFFFFFFFFFFFFFFFFFFFFFFFFFFFFFFFFFF AND DUP2 MSTORE PUSH1 0x20 ADD SWAP1 PUSH1 0x1 ADD SWAP1 DUP1 DUP4 GT PUSH2 0x764 JUMPI JUMPDEST POP POP POP POP POP SWAP1 POP SWAP1 JUMP JUMPDEST PUSH0 DUP1 PUSH0 SWAP1 SLOAD SWAP1 PUSH2 0x100 EXP SWAP1 DIV PUSH20 0xFFFFFFFFFFFFFFFFFFFFFFFFFFFFFFFFFFFFFFFF AND SWAP1 POP SWAP1 JUMP JUMPDEST PUSH0 DUP1 SLOAD SWAP1 PUSH2 0x100 EXP SWAP1 DIV PUSH20 0xFFFFFFFFFFFFFFFFFFFFFFFFFFFFFFFFFFFFFFFF AND PUSH20 0xFFFFFFFFFFFFFFFFFFFFFFFFFFFFFFFFFFFFFFFF AND CALLER PUSH20 0xFFFFFFFFFFFFFFFFFFFFFFFFFFFFFFFFFFFFFFFF AND EQ PUSH2 0x86B JUMPI PUSH1 0x40 MLOAD PUSH32 0x8C379A000000000000000000000000000000000000000000000000000000000 DUP2 MSTORE PUSH1 0x4 ADD PUSH2 0x862 SWAP1 PUSH2 0x1041 JUMP JUMPDEST PUSH1 0x40 MLOAD DUP1 SWAP2 SUB SWAP1 REVERT JUMPDEST DUP1 PUSH1 0x6 PUSH0 PUSH2 0x100 EXP DUP2 SLOAD DUP2 PUSH20 0xFFFFFFFFFFFFFFFFFFFFFFFFFFFFFFFFFFFFFFFF MUL NOT AND SWAP1 DUP4 PUSH20 0xFFFFFFFFFFFFFFFFFFFFFFFFFFFFFFFFFFFFFFFF AND MUL OR SWAP1 SSTORE POP POP JUMP JUMPDEST PUSH0 PUSH1 0x1 PUSH0 DUP4 PUSH20 0xFFFFFFFFFFFFFFFFFFFFFFFFFFFFFFFFFFFFFFFF AND PUSH20 0xFFFFFFFFFFFFFFFFFFFFFFFFFFFFFFFFFFFFFFFF AND DUP2 MSTORE PUSH1 0x20 ADD SWAP1 DUP2 MSTORE PUSH1 0x20 ADD PUSH0 KECCAK256 SLOAD SWAP1 POP SWAP2 SWAP1 POP JUMP JUMPDEST PUSH1 0x4 SLOAD CALLVALUE LT ISZERO PUSH2 0x905 PUSH1 0x4 SLOAD PUSH2 0xB0D JUMP JUMPDEST PUSH1 0x40 MLOAD PUSH1 0x20 ADD PUSH2 0x915 SWAP2 SWAP1 PUSH2 0x1411 JUMP JUMPDEST PUSH1 0x40 MLOAD PUSH1 0x20 DUP2 DUP4 SUB SUB DUP2 MSTORE SWAP1 PUSH1 0x40 MSTORE SWAP1 PUSH2 0x965 JUMPI PUSH1 0x40 MLOAD PUSH32 0x8C379A000000000000000000000000000000000000000000000000000000000 DUP2 MSTORE PUSH1 0x4 ADD PUSH2 0x95C SWAP2 SWAP1 PUSH2 0x118A JUMP JUMPDEST PUSH1 0x40 MLOAD DUP1 SWAP2 SUB SWAP1 REVERT JUMPDEST POP PUSH2 0x96E PUSH2 0x643 JUMP JUMPDEST ISZERO PUSH2 0x9AE JUMPI PUSH1 0x40 MLOAD PUSH32 0x8C379A000000000000000000000000000000000000000000000000000000000 DUP2 MSTORE PUSH1 0x4 ADD PUSH2 0x9A5 SWAP1 PUSH2 0x14A6 JUMP JUMPDEST PUSH1 0x40 MLOAD DUP1 SWAP2 SUB SWAP1 REVERT JUMPDEST CALLVALUE PUSH1 0x1 PUSH0 CALLER PUSH20 0xFFFFFFFFFFFFFFFFFFFFFFFFFFFFFFFFFFFFFFFF AND PUSH20 0xFFFFFFFFFFFFFFFFFFFFFFFFFFFFFFFFFFFFFFFF AND DUP2 MSTORE PUSH1 0x20 ADD SWAP1 DUP2 MSTORE PUSH1 0x20 ADD PUSH0 KECCAK256 PUSH0 DUP3 DUP3 SLOAD PUSH2 0x9FA SWAP2 SWAP1 PUSH2 0x13B8 JUMP JUMPDEST SWAP3 POP POP DUP2 SWAP1 SSTORE POP PUSH2 0xA8E PUSH1 0x2 DUP1 SLOAD DUP1 PUSH1 0x20 MUL PUSH1 0x20 ADD PUSH1 0x40 MLOAD SWAP1 DUP2 ADD PUSH1 0x40 MSTORE DUP1 SWAP3 SWAP2 SWAP1 DUP2 DUP2 MSTORE PUSH1 0x20 ADD DUP3 DUP1 SLOAD DUP1 ISZERO PUSH2 0xA83 JUMPI PUSH1 0x20 MUL DUP3 ADD SWAP2 SWAP1 PUSH0 MSTORE PUSH1 0x20 PUSH0 KECCAK256 SWAP1 JUMPDEST DUP2 PUSH0 SWAP1 SLOAD SWAP1 PUSH2 0x100 EXP SWAP1 DIV PUSH20 0xFFFFFFFFFFFFFFFFFFFFFFFFFFFFFFFFFFFFFFFF AND PUSH20 0xFFFFFFFFFFFFFFFFFFFFFFFFFFFFFFFFFFFFFFFF AND DUP2 MSTORE PUSH1 0x20 ADD SWAP1 PUSH1 0x1 ADD SWAP1 DUP1 DUP4 GT PUSH2 0xA3A JUMPI JUMPDEST POP POP POP POP POP CALLER PUSH2 0xBD7 JUMP JUMPDEST PUSH2 0xAF3 JUMPI PUSH1 0x2 CALLER SWAP1 DUP1 PUSH1 0x1 DUP2 SLOAD ADD DUP1 DUP3 SSTORE DUP1 SWAP2 POP POP PUSH1 0x1 SWAP1 SUB SWAP1 PUSH0 MSTORE PUSH1 0x20 PUSH0 KECCAK256 ADD PUSH0 SWAP1 SWAP2 SWAP1 SWAP2 SWAP1 SWAP2 PUSH2 0x100 EXP DUP2 SLOAD DUP2 PUSH20 0xFFFFFFFFFFFFFFFFFFFFFFFFFFFFFFFFFFFFFFFF MUL NOT AND SWAP1 DUP4 PUSH20 0xFFFFFFFFFFFFFFFFFFFFFFFFFFFFFFFFFFFFFFFF AND MUL OR SWAP1 SSTORE POP JUMPDEST CALLVALUE PUSH1 0x3 PUSH0 DUP3 DUP3 SLOAD PUSH2 0xB04 SWAP2 SWAP1 PUSH2 0x13B8 JUMP JUMPDEST SWAP3 POP POP DUP2 SWAP1 SSTORE POP JUMP JUMPDEST PUSH1 0x60 PUSH0 PUSH1 0x1 PUSH2 0xB1B DUP5 PUSH2 0xC55 JUMP JUMPDEST ADD SWAP1 POP PUSH0 DUP2 PUSH8 0xFFFFFFFFFFFFFFFF DUP2 GT ISZERO PUSH2 0xB39 JUMPI PUSH2 0xB38 PUSH2 0x14C4 JUMP JUMPDEST JUMPDEST PUSH1 0x40 MLOAD SWAP1 DUP1 DUP3 MSTORE DUP1 PUSH1 0x1F ADD PUSH1 0x1F NOT AND PUSH1 0x20 ADD DUP3 ADD PUSH1 0x40 MSTORE DUP1 ISZERO PUSH2 0xB6B JUMPI DUP2 PUSH1 0x20 ADD PUSH1 0x1 DUP3 MUL DUP1 CALLDATASIZE DUP4 CALLDATACOPY DUP1 DUP3 ADD SWAP2 POP POP SWAP1 POP JUMPDEST POP SWAP1 POP PUSH0 DUP3 PUSH1 0x20 ADD DUP3 ADD SWAP1 POP JUMPDEST PUSH1 0x1 ISZERO PUSH2 0xBCC JUMPI DUP1 DUP1 PUSH1 0x1 SWAP1 SUB SWAP2 POP POP PUSH32 0x3031323334353637383961626364656600000000000000000000000000000000 PUSH1 0xA DUP7 MOD BYTE DUP2 MSTORE8 PUSH1 0xA DUP6 DUP2 PUSH2 0xBC1 JUMPI PUSH2 0xBC0 PUSH2 0x14F1 JUMP JUMPDEST JUMPDEST DIV SWAP5 POP PUSH0 DUP6 SUB PUSH2 0xB78 JUMPI JUMPDEST DUP2 SWAP4 POP POP POP POP SWAP2 SWAP1 POP JUMP JUMPDEST PUSH0 DUP1 PUSH0 SWAP1 POP JUMPDEST DUP4 MLOAD DUP2 LT ISZERO PUSH2 0xC4A JUMPI DUP3 PUSH20 0xFFFFFFFFFFFFFFFFFFFFFFFFFFFFFFFFFFFFFFFF AND DUP5 DUP3 DUP2 MLOAD DUP2 LT PUSH2 0xC10 JUMPI PUSH2 0xC0F PUSH2 0x151E JUMP JUMPDEST JUMPDEST PUSH1 0x20 MUL PUSH1 0x20 ADD ADD MLOAD PUSH20 0xFFFFFFFFFFFFFFFFFFFFFFFFFFFFFFFFFFFFFFFF AND SUB PUSH2 0xC3D JUMPI PUSH1 0x1 SWAP2 POP POP PUSH2 0xC4F JUMP JUMPDEST DUP1 DUP1 PUSH1 0x1 ADD SWAP2 POP POP PUSH2 0xBDD JUMP JUMPDEST POP PUSH0 SWAP1 POP JUMPDEST SWAP3 SWAP2 POP POP JUMP JUMPDEST PUSH0 DUP1 PUSH0 SWAP1 POP PUSH27 0x184F03E93FF9F4DAA797ED6E38ED64BF6A1F010000000000000000 DUP4 LT PUSH2 0xCB1 JUMPI PUSH27 0x184F03E93FF9F4DAA797ED6E38ED64BF6A1F010000000000000000 DUP4 DUP2 PUSH2 0xCA7 JUMPI PUSH2 0xCA6 PUSH2 0x14F1 JUMP JUMPDEST JUMPDEST DIV SWAP3 POP PUSH1 0x40 DUP2 ADD SWAP1 POP JUMPDEST PUSH14 0x4EE2D6D415B85ACEF8100000000 DUP4 LT PUSH2 0xCEE JUMPI PUSH14 0x4EE2D6D415B85ACEF8100000000 DUP4 DUP2 PUSH2 0xCE4 JUMPI PUSH2 0xCE3 PUSH2 0x14F1 JUMP JUMPDEST JUMPDEST DIV SWAP3 POP PUSH1 0x20 DUP2 ADD SWAP1 POP JUMPDEST PUSH7 0x2386F26FC10000 DUP4 LT PUSH2 0xD1D JUMPI PUSH7 0x2386F26FC10000 DUP4 DUP2 PUSH2 0xD13 JUMPI PUSH2 0xD12 PUSH2 0x14F1 JUMP JUMPDEST JUMPDEST DIV SWAP3 POP PUSH1 0x10 DUP2 ADD SWAP1 POP JUMPDEST PUSH4 0x5F5E100 DUP4 LT PUSH2 0xD46 JUMPI PUSH4 0x5F5E100 DUP4 DUP2 PUSH2 0xD3C JUMPI PUSH2 0xD3B PUSH2 0x14F1 JUMP JUMPDEST JUMPDEST DIV SWAP3 POP PUSH1 0x8 DUP2 ADD SWAP1 POP JUMPDEST PUSH2 0x2710 DUP4 LT PUSH2 0xD6B JUMPI PUSH2 0x2710 DUP4 DUP2 PUSH2 0xD61 JUMPI PUSH2 0xD60 PUSH2 0x14F1 JUMP JUMPDEST JUMPDEST DIV SWAP3 POP PUSH1 0x4 DUP2 ADD SWAP1 POP JUMPDEST PUSH1 0x64 DUP4 LT PUSH2 0xD8E JUMPI PUSH1 0x64 DUP4 DUP2 PUSH2 0xD84 JUMPI PUSH2 0xD83 PUSH2 0x14F1 JUMP JUMPDEST JUMPDEST DIV SWAP3 POP PUSH1 0x2 DUP2 ADD SWAP1 POP JUMPDEST PUSH1 0xA DUP4 LT PUSH2 0xD9D JUMPI PUSH1 0x1 DUP2 ADD SWAP1 POP JUMPDEST DUP1 SWAP2 POP POP SWAP2 SWAP1 POP JUMP JUMPDEST PUSH0 DUP2 SWAP1 POP SWAP2 SWAP1 POP JUMP JUMPDEST PUSH2 0xDB8 DUP2 PUSH2 0xDA6 JUMP JUMPDEST DUP3 MSTORE POP POP JUMP JUMPDEST PUSH0 PUSH1 0x20 DUP3 ADD SWAP1 POP PUSH2 0xDD1 PUSH0 DUP4 ADD DUP5 PUSH2 0xDAF JUMP JUMPDEST SWAP3 SWAP2 POP POP JUMP JUMPDEST PUSH0 DUP1 REVERT JUMPDEST PUSH2 0xDE4 DUP2 PUSH2 0xDA6 JUMP JUMPDEST DUP2 EQ PUSH2 0xDEE JUMPI PUSH0 DUP1 REVERT JUMPDEST POP JUMP JUMPDEST PUSH0 DUP2 CALLDATALOAD SWAP1 POP PUSH2 0xDFF DUP2 PUSH2 0xDDB JUMP JUMPDEST SWAP3 SWAP2 POP POP JUMP JUMPDEST PUSH0 PUSH1 0x20 DUP3 DUP5 SUB SLT ISZERO PUSH2 0xE1A JUMPI PUSH2 0xE19 PUSH2 0xDD7 JUMP JUMPDEST JUMPDEST PUSH0 PUSH2 0xE27 DUP5 DUP3 DUP6 ADD PUSH2 0xDF1 JUMP JUMPDEST SWAP2 POP POP SWAP3 SWAP2 POP POP JUMP JUMPDEST PUSH0 DUP2 ISZERO ISZERO SWAP1 POP SWAP2 SWAP1 POP JUMP JUMPDEST PUSH2 0xE44 DUP2 PUSH2 0xE30 JUMP JUMPDEST DUP3 MSTORE POP POP JUMP JUMPDEST PUSH0 PUSH1 0x20 DUP3 ADD SWAP1 POP PUSH2 0xE5D PUSH0 DUP4 ADD DUP5 PUSH2 0xE3B JUMP JUMPDEST SWAP3 SWAP2 POP POP JUMP JUMPDEST PUSH0 PUSH20 0xFFFFFFFFFFFFFFFFFFFFFFFFFFFFFFFFFFFFFFFF DUP3 AND SWAP1 POP SWAP2 SWAP1 POP JUMP JUMPDEST PUSH0 PUSH2 0xE8C DUP3 PUSH2 0xE63 JUMP JUMPDEST SWAP1 POP SWAP2 SWAP1 POP JUMP JUMPDEST PUSH2 0xE9C DUP2 PUSH2 0xE82 JUMP JUMPDEST DUP2 EQ PUSH2 0xEA6 JUMPI PUSH0 DUP1 REVERT JUMPDEST POP JUMP JUMPDEST PUSH0 DUP2 CALLDATALOAD SWAP1 POP PUSH2 0xEB7 DUP2 PUSH2 0xE93 JUMP JUMPDEST SWAP3 SWAP2 POP POP JUMP JUMPDEST PUSH0 PUSH1 0x20 DUP3 DUP5 SUB SLT ISZERO PUSH2 0xED2 JUMPI PUSH2 0xED1 PUSH2 0xDD7 JUMP JUMPDEST JUMPDEST PUSH0 PUSH2 0xEDF DUP5 DUP3 DUP6 ADD PUSH2 0xEA9 JUMP JUMPDEST SWAP2 POP POP SWAP3 SWAP2 POP POP JUMP JUMPDEST PUSH0 DUP2 MLOAD SWAP1 POP SWAP2 SWAP1 POP JUMP JUMPDEST PUSH0 DUP3 DUP3 MSTORE PUSH1 0x20 DUP3 ADD SWAP1 POP SWAP3 SWAP2 POP POP JUMP JUMPDEST PUSH0 DUP2 SWAP1 POP PUSH1 0x20 DUP3 ADD SWAP1 POP SWAP2 SWAP1 POP JUMP JUMPDEST PUSH2 0xF1A DUP2 PUSH2 0xE82 JUMP JUMPDEST DUP3 MSTORE POP POP JUMP JUMPDEST PUSH0 PUSH2 0xF2B DUP4 DUP4 PUSH2 0xF11 JUMP JUMPDEST PUSH1 0x20 DUP4 ADD SWAP1 POP SWAP3 SWAP2 POP POP JUMP JUMPDEST PUSH0 PUSH1 0x20 DUP3 ADD SWAP1 POP SWAP2 SWAP1 POP JUMP JUMPDEST PUSH0 PUSH2 0xF4D DUP3 PUSH2 0xEE8 JUMP JUMPDEST PUSH2 0xF57 DUP2 DUP6 PUSH2 0xEF2 JUMP JUMPDEST SWAP4 POP PUSH2 0xF62 DUP4 PUSH2 0xF02 JUMP JUMPDEST DUP1 PUSH0 JUMPDEST DUP4 DUP2 LT ISZERO PUSH2 0xF92 JUMPI DUP2 MLOAD PUSH2 0xF79 DUP9 DUP3 PUSH2 0xF20 JUMP JUMPDEST SWAP8 POP PUSH2 0xF84 DUP4 PUSH2 0xF37 JUMP JUMPDEST SWAP3 POP POP PUSH1 0x1 DUP2 ADD SWAP1 POP PUSH2 0xF65 JUMP JUMPDEST POP DUP6 SWAP4 POP POP POP POP SWAP3 SWAP2 POP POP JUMP JUMPDEST PUSH0 PUSH1 0x20 DUP3 ADD SWAP1 POP DUP2 DUP2 SUB PUSH0 DUP4 ADD MSTORE PUSH2 0xFB7 DUP2 DUP5 PUSH2 0xF43 JUMP JUMPDEST SWAP1 POP SWAP3 SWAP2 POP POP JUMP JUMPDEST PUSH2 0xFC8 DUP2 PUSH2 0xE82 JUMP JUMPDEST DUP3 MSTORE POP POP JUMP JUMPDEST PUSH0 PUSH1 0x20 DUP3 ADD SWAP1 POP PUSH2 0xFE1 PUSH0 DUP4 ADD DUP5 PUSH2 0xFBF JUMP JUMPDEST SWAP3 SWAP2 POP POP JUMP JUMPDEST PUSH0 DUP3 DUP3 MSTORE PUSH1 0x20 DUP3 ADD SWAP1 POP SWAP3 SWAP2 POP POP JUMP JUMPDEST PUSH32 0x43616C6C6572206973206E6F74206F776E657200000000000000000000000000 PUSH0 DUP3 ADD MSTORE POP JUMP JUMPDEST PUSH0 PUSH2 0x102B PUSH1 0x13 DUP4 PUSH2 0xFE7 JUMP JUMPDEST SWAP2 POP PUSH2 0x1036 DUP3 PUSH2 0xFF7 JUMP JUMPDEST PUSH1 0x20 DUP3 ADD SWAP1 POP SWAP2 SWAP1 POP JUMP JUMPDEST PUSH0 PUSH1 0x20 DUP3 ADD SWAP1 POP DUP2 DUP2 SUB PUSH0 DUP4 ADD MSTORE PUSH2 0x1058 DUP2 PUSH2 0x101F JUMP JUMPDEST SWAP1 POP SWAP2 SWAP1 POP JUMP JUMPDEST PUSH0 DUP2 MLOAD SWAP1 POP SWAP2 SWAP1 POP JUMP JUMPDEST PUSH0 DUP2 SWAP1 POP SWAP3 SWAP2 POP POP JUMP JUMPDEST DUP3 DUP2 DUP4 MCOPY PUSH0 DUP4 DUP4 ADD MSTORE POP POP POP JUMP JUMPDEST PUSH0 PUSH2 0x108B DUP3 PUSH2 0x105F JUMP JUMPDEST PUSH2 0x1095 DUP2 DUP6 PUSH2 0x1069 JUMP JUMPDEST SWAP4 POP PUSH2 0x10A5 DUP2 DUP6 PUSH1 0x20 DUP7 ADD PUSH2 0x1073 JUMP JUMPDEST DUP1 DUP5 ADD SWAP2 POP POP SWAP3 SWAP2 POP POP JUMP JUMPDEST PUSH32 0x206973206D696E696D756D2076616C756520746F20736574206C6F7765722064 PUSH0 DUP3 ADD MSTORE PUSH32 0x6F6E6174696F6E00000000000000000000000000000000000000000000000000 PUSH1 0x20 DUP3 ADD MSTORE POP JUMP JUMPDEST PUSH0 PUSH2 0x110B PUSH1 0x27 DUP4 PUSH2 0x1069 JUMP JUMPDEST SWAP2 POP PUSH2 0x1116 DUP3 PUSH2 0x10B1 JUMP JUMPDEST PUSH1 0x27 DUP3 ADD SWAP1 POP SWAP2 SWAP1 POP JUMP JUMPDEST PUSH0 PUSH2 0x112C DUP3 DUP5 PUSH2 0x1081 JUMP JUMPDEST SWAP2 POP PUSH2 0x1137 DUP3 PUSH2 0x10FF JUMP JUMPDEST SWAP2 POP DUP2 SWAP1 POP SWAP3 SWAP2 POP POP JUMP JUMPDEST PUSH0 PUSH1 0x1F NOT PUSH1 0x1F DUP4 ADD AND SWAP1 POP SWAP2 SWAP1 POP JUMP JUMPDEST PUSH0 PUSH2 0x115C DUP3 PUSH2 0x105F JUMP JUMPDEST PUSH2 0x1166 DUP2 DUP6 PUSH2 0xFE7 JUMP JUMPDEST SWAP4 POP PUSH2 0x1176 DUP2 DUP6 PUSH1 0x20 DUP7 ADD PUSH2 0x1073 JUMP JUMPDEST PUSH2 0x117F DUP2 PUSH2 0x1142 JUMP JUMPDEST DUP5 ADD SWAP2 POP POP SWAP3 SWAP2 POP POP JUMP JUMPDEST PUSH0 PUSH1 0x20 DUP3 ADD SWAP1 POP DUP2 DUP2 SUB PUSH0 DUP4 ADD MSTORE PUSH2 0x11A2 DUP2 DUP5 PUSH2 0x1152 JUMP JUMPDEST SWAP1 POP SWAP3 SWAP2 POP POP JUMP JUMPDEST PUSH32 0x416C6C6F776564206F6E6C7920666F7220726570726573656E74617469766500 PUSH0 DUP3 ADD MSTORE POP JUMP JUMPDEST PUSH0 PUSH2 0x11DE PUSH1 0x1F DUP4 PUSH2 0xFE7 JUMP JUMPDEST SWAP2 POP PUSH2 0x11E9 DUP3 PUSH2 0x11AA JUMP JUMPDEST PUSH1 0x20 DUP3 ADD SWAP1 POP SWAP2 SWAP1 POP JUMP JUMPDEST PUSH0 PUSH1 0x20 DUP3 ADD SWAP1 POP DUP2 DUP2 SUB PUSH0 DUP4 ADD MSTORE PUSH2 0x120B DUP2 PUSH2 0x11D2 JUMP JUMPDEST SWAP1 POP SWAP2 SWAP1 POP JUMP JUMPDEST PUSH32 0x44657374696E6174696F6E2061646472206973206E6F74207365740000000000 PUSH0 DUP3 ADD MSTORE POP JUMP JUMPDEST PUSH0 PUSH2 0x1246 PUSH1 0x1B DUP4 PUSH2 0xFE7 JUMP JUMPDEST SWAP2 POP PUSH2 0x1251 DUP3 PUSH2 0x1212 JUMP JUMPDEST PUSH1 0x20 DUP3 ADD SWAP1 POP SWAP2 SWAP1 POP JUMP JUMPDEST PUSH0 PUSH1 0x20 DUP3 ADD SWAP1 POP DUP2 DUP2 SUB PUSH0 DUP4 ADD MSTORE PUSH2 0x1273 DUP2 PUSH2 0x123A JUMP JUMPDEST SWAP1 POP SWAP2 SWAP1 POP JUMP JUMPDEST PUSH32 0x4973206E6F7420646561646C696E652079657400000000000000000000000000 PUSH0 DUP3 ADD MSTORE POP JUMP JUMPDEST PUSH0 PUSH2 0x12AE PUSH1 0x13 DUP4 PUSH2 0xFE7 JUMP JUMPDEST SWAP2 POP PUSH2 0x12B9 DUP3 PUSH2 0x127A JUMP JUMPDEST PUSH1 0x20 DUP3 ADD SWAP1 POP SWAP2 SWAP1 POP JUMP JUMPDEST PUSH0 PUSH1 0x20 DUP3 ADD SWAP1 POP DUP2 DUP2 SUB PUSH0 DUP4 ADD MSTORE PUSH2 0x12DB DUP2 PUSH2 0x12A2 JUMP JUMPDEST SWAP1 POP SWAP2 SWAP1 POP JUMP JUMPDEST PUSH0 DUP2 SWAP1 POP SWAP3 SWAP2 POP POP JUMP JUMPDEST POP JUMP JUMPDEST PUSH0 PUSH2 0x12FA PUSH0 DUP4 PUSH2 0x12E2 JUMP JUMPDEST SWAP2 POP PUSH2 0x1305 DUP3 PUSH2 0x12EC JUMP JUMPDEST PUSH0 DUP3 ADD SWAP1 POP SWAP2 SWAP1 POP JUMP JUMPDEST PUSH0 PUSH2 0x1319 DUP3 PUSH2 0x12EF JUMP JUMPDEST SWAP2 POP DUP2 SWAP1 POP SWAP2 SWAP1 POP JUMP JUMPDEST PUSH32 0x4661696C656420746F2073656E6420646F6E6174696F6E730000000000000000 PUSH0 DUP3 ADD MSTORE POP JUMP JUMPDEST PUSH0 PUSH2 0x1357 PUSH1 0x18 DUP4 PUSH2 0xFE7 JUMP JUMPDEST SWAP2 POP PUSH2 0x1362 DUP3 PUSH2 0x1323 JUMP JUMPDEST PUSH1 0x20 DUP3 ADD SWAP1 POP SWAP2 SWAP1 POP JUMP JUMPDEST PUSH0 PUSH1 0x20 DUP3 ADD SWAP1 POP DUP2 DUP2 SUB PUSH0 DUP4 ADD MSTORE PUSH2 0x1384 DUP2 PUSH2 0x134B JUMP JUMPDEST SWAP1 POP SWAP2 SWAP1 POP JUMP JUMPDEST PUSH32 0x4E487B7100000000000000000000000000000000000000000000000000000000 PUSH0 MSTORE PUSH1 0x11 PUSH1 0x4 MSTORE PUSH1 0x24 PUSH0 REVERT JUMPDEST PUSH0 PUSH2 0x13C2 DUP3 PUSH2 0xDA6 JUMP JUMPDEST SWAP2 POP PUSH2 0x13CD DUP4 PUSH2 0xDA6 JUMP JUMPDEST SWAP3 POP DUP3 DUP3 ADD SWAP1 POP DUP1 DUP3 GT ISZERO PUSH2 0x13E5 JUMPI PUSH2 0x13E4 PUSH2 0x138B JUMP JUMPDEST JUMPDEST SWAP3 SWAP2 POP POP JUMP JUMPDEST PUSH32 0x206973206D696E696D756D2076616C7565000000000000000000000000000000 DUP2 MSTORE POP JUMP JUMPDEST PUSH0 PUSH2 0x141C DUP3 DUP5 PUSH2 0x1081 JUMP JUMPDEST SWAP2 POP PUSH2 0x1427 DUP3 PUSH2 0x13EB JUMP JUMPDEST PUSH1 0x11 DUP3 ADD SWAP2 POP DUP2 SWAP1 POP SWAP3 SWAP2 POP POP JUMP JUMPDEST PUSH32 0x446F6E6174696F6E206E6F7420616C6C6F77656420616674657220646561646C PUSH0 DUP3 ADD MSTORE PUSH32 0x696E650000000000000000000000000000000000000000000000000000000000 PUSH1 0x20 DUP3 ADD MSTORE POP JUMP JUMPDEST PUSH0 PUSH2 0x1490 PUSH1 0x23 DUP4 PUSH2 0xFE7 JUMP JUMPDEST SWAP2 POP PUSH2 0x149B DUP3 PUSH2 0x1436 JUMP JUMPDEST PUSH1 0x40 DUP3 ADD SWAP1 POP SWAP2 SWAP1 POP JUMP JUMPDEST PUSH0 PUSH1 0x20 DUP3 ADD SWAP1 POP DUP2 DUP2 SUB PUSH0 DUP4 ADD MSTORE PUSH2 0x14BD DUP2 PUSH2 0x1484 JUMP JUMPDEST SWAP1 POP SWAP2 SWAP1 POP JUMP JUMPDEST PUSH32 0x4E487B7100000000000000000000000000000000000000000000000000000000 PUSH0 MSTORE PUSH1 0x41 PUSH1 0x4 MSTORE PUSH1 0x24 PUSH0 REVERT JUMPDEST PUSH32 0x4E487B7100000000000000000000000000000000000000000000000000000000 PUSH0 MSTORE PUSH1 0x12 PUSH1 0x4 MSTORE PUSH1 0x24 PUSH0 REVERT JUMPDEST PUSH32 0x4E487B7100000000000000000000000000000000000000000000000000000000 PUSH0 MSTORE PUSH1 0x32 PUSH1 0x4 MSTORE PUSH1 0x24 PUSH0 REVERT INVALID LOG2 PUSH5 0x6970667358 0x22 SLT KECCAK256 BLOBBASEFEE 0xD3 PUSH24 0x7F1AB0E4E3183E22D1663FEFC481D227C8016F320297EA0 DUP10 0xCC 0xB7 0xB1 BASEFEE PUSH5 0x736F6C6343 STOP ADDMOD BYTE STOP CALLER "
				},
				"gasEstimates": {
					"creation": {
						"codeDepositCost": "1101000",
						"executionCost": "infinite",
						"totalCost": "infinite"
					},
					"external": {
						"donate()": "infinite",
						"getDonatedTotal()": "2433",
						"getDonationValueByAddr(address)": "2917",
						"getDonators()": "infinite",
						"getOwnerAdress()": "2559",
						"isDeadline()": "infinite",
						"setCherityDestinationAddress(address)": "26947",
						"setCherityRepresentativeAddress(address)": "26881",
						"setDeadline(uint256)": "24704",
						"setMinumumDonationValue(uint256)": "infinite",
						"withdraw()": "infinite"
					},
					"internal": {
						"_existsAddressItem(address[] memory,address)": "infinite"
					}
				},
				"methodIdentifiers": {
					"donate()": "ed88c68e",
					"getDonatedTotal()": "0ab5d8be",
					"getDonationValueByAddr(address)": "c3d6fdf2",
					"getDonators()": "bf1482fa",
					"getOwnerAdress()": "c12cfa63",
					"isDeadline()": "528a28b7",
					"setCherityDestinationAddress(address)": "c2348491",
					"setCherityRepresentativeAddress(address)": "811d36e9",
					"setDeadline(uint256)": "195199f6",
					"setMinumumDonationValue(uint256)": "1e09c9ca",
					"withdraw()": "3ccfd60b"
				}
			},
			"storageLayout": {
				"storage": [
					{
						"astId": 1418,
						"contract": "contracts/Volunteer.sol:Volunteer",
						"label": "ownerAdrr",
						"offset": 0,
						"slot": "0",
						"type": "t_address"
					},
					{
						"astId": 1422,
						"contract": "contracts/Volunteer.sol:Volunteer",
						"label": "donations",
						"offset": 0,
						"slot": "1",
						"type": "t_mapping(t_address,t_uint256)"
					},
					{
						"astId": 1425,
						"contract": "contracts/Volunteer.sol:Volunteer",
						"label": "donatorAddresses",
						"offset": 0,
						"slot": "2",
						"type": "t_array(t_address)dyn_storage"
					},
					{
						"astId": 1427,
						"contract": "contracts/Volunteer.sol:Volunteer",
						"label": "donationTotal",
						"offset": 0,
						"slot": "3",
						"type": "t_uint256"
					},
					{
						"astId": 1429,
						"contract": "contracts/Volunteer.sol:Volunteer",
						"label": "minimumDonation",
						"offset": 0,
						"slot": "4",
						"type": "t_uint256"
					},
					{
						"astId": 1431,
						"contract": "contracts/Volunteer.sol:Volunteer",
						"label": "deadline",
						"offset": 0,
						"slot": "5",
						"type": "t_uint256"
					},
					{
						"astId": 1433,
						"contract": "contracts/Volunteer.sol:Volunteer",
						"label": "destinationAddress",
						"offset": 0,
						"slot": "6",
						"type": "t_address_payable"
					},
					{
						"astId": 1435,
						"contract": "contracts/Volunteer.sol:Volunteer",
						"label": "representativeAddress",
						"offset": 0,
						"slot": "7",
						"type": "t_address"
					},
					{
						"astId": 1442,
						"contract": "contracts/Volunteer.sol:Volunteer",
						"label": "startTimestamp",
						"offset": 0,
						"slot": "8",
						"type": "t_uint256"
					}
				],
				"types": {
					"t_address": {
						"encoding": "inplace",
						"label": "address",
						"numberOfBytes": "20"
					},
					"t_address_payable": {
						"encoding": "inplace",
						"label": "address payable",
						"numberOfBytes": "20"
					},
					"t_array(t_address)dyn_storage": {
						"base": "t_address",
						"encoding": "dynamic_array",
						"label": "address[]",
						"numberOfBytes": "32"
					},
					"t_mapping(t_address,t_uint256)": {
						"encoding": "mapping",
						"key": "t_address",
						"label": "mapping(address => uint256)",
						"numberOfBytes": "32",
						"value": "t_uint256"
					},
					"t_uint256": {
						"encoding": "inplace",
						"label": "uint256",
						"numberOfBytes": "32"
					}
				}
			},
			"userdoc": {
				"kind": "user",
				"methods": {},
				"version": 1
			}
		}
	}
}