{
	"ADToken_flattened.sol": {
		"ADToken": {
			"abi": [
				{
					"inputs": [],
					"stateMutability": "nonpayable",
					"type": "constructor"
				},
				{
					"inputs": [
						{
							"internalType": "address",
							"name": "spender",
							"type": "address"
						},
						{
							"internalType": "uint256",
							"name": "allowance",
							"type": "uint256"
						},
						{
							"internalType": "uint256",
							"name": "needed",
							"type": "uint256"
						}
					],
					"name": "ERC20InsufficientAllowance",
					"type": "error"
				},
				{
					"inputs": [
						{
							"internalType": "address",
							"name": "sender",
							"type": "address"
						},
						{
							"internalType": "uint256",
							"name": "balance",
							"type": "uint256"
						},
						{
							"internalType": "uint256",
							"name": "needed",
							"type": "uint256"
						}
					],
					"name": "ERC20InsufficientBalance",
					"type": "error"
				},
				{
					"inputs": [
						{
							"internalType": "address",
							"name": "approver",
							"type": "address"
						}
					],
					"name": "ERC20InvalidApprover",
					"type": "error"
				},
				{
					"inputs": [
						{
							"internalType": "address",
							"name": "receiver",
							"type": "address"
						}
					],
					"name": "ERC20InvalidReceiver",
					"type": "error"
				},
				{
					"inputs": [
						{
							"internalType": "address",
							"name": "sender",
							"type": "address"
						}
					],
					"name": "ERC20InvalidSender",
					"type": "error"
				},
				{
					"inputs": [
						{
							"internalType": "address",
							"name": "spender",
							"type": "address"
						}
					],
					"name": "ERC20InvalidSpender",
					"type": "error"
				},
				{
					"anonymous": false,
					"inputs": [
						{
							"indexed": true,
							"internalType": "address",
							"name": "owner",
							"type": "address"
						},
						{
							"indexed": true,
							"internalType": "address",
							"name": "spender",
							"type": "address"
						},
						{
							"indexed": false,
							"internalType": "uint256",
							"name": "value",
							"type": "uint256"
						}
					],
					"name": "Approval",
					"type": "event"
				},
				{
					"anonymous": false,
					"inputs": [
						{
							"indexed": true,
							"internalType": "address",
							"name": "from",
							"type": "address"
						},
						{
							"indexed": true,
							"internalType": "address",
							"name": "to",
							"type": "address"
						},
						{
							"indexed": false,
							"internalType": "uint256",
							"name": "value",
							"type": "uint256"
						}
					],
					"name": "Transfer",
					"type": "event"
				},
				{
					"inputs": [
						{
							"internalType": "address",
							"name": "owner",
							"type": "address"
						},
						{
							"internalType": "address",
							"name": "spender",
							"type": "address"
						}
					],
					"name": "allowance",
					"outputs": [
						{
							"internalType": "uint256",
							"name": "",
							"type": "uint256"
						}
					],
					"stateMutability": "view",
					"type": "function"
				},
				{
					"inputs": [
						{
							"internalType": "address",
							"name": "spender",
							"type": "address"
						},
						{
							"internalType": "uint256",
							"name": "value",
							"type": "uint256"
						}
					],
					"name": "approve",
					"outputs": [
						{
							"internalType": "bool",
							"name": "",
							"type": "bool"
						}
					],
					"stateMutability": "nonpayable",
					"type": "function"
				},
				{
					"inputs": [
						{
							"internalType": "address",
							"name": "account",
							"type": "address"
						}
					],
					"name": "balanceOf",
					"outputs": [
						{
							"internalType": "uint256",
							"name": "",
							"type": "uint256"
						}
					],
					"stateMutability": "view",
					"type": "function"
				},
				{
					"inputs": [],
					"name": "buyADT",
					"outputs": [
						{
							"internalType": "uint256",
							"name": "",
							"type": "uint256"
						}
					],
					"stateMutability": "payable",
					"type": "function"
				},
				{
					"inputs": [],
					"name": "decimals",
					"outputs": [
						{
							"internalType": "uint8",
							"name": "",
							"type": "uint8"
						}
					],
					"stateMutability": "view",
					"type": "function"
				},
				{
					"inputs": [],
					"name": "name",
					"outputs": [
						{
							"internalType": "string",
							"name": "",
							"type": "string"
						}
					],
					"stateMutability": "view",
					"type": "function"
				},
				{
					"inputs": [
						{
							"internalType": "uint256",
							"name": "ADTamound",
							"type": "uint256"
						}
					],
					"name": "sellADT",
					"outputs": [],
					"stateMutability": "nonpayable",
					"type": "function"
				},
				{
					"inputs": [],
					"name": "symbol",
					"outputs": [
						{
							"internalType": "string",
							"name": "",
							"type": "string"
						}
					],
					"stateMutability": "view",
					"type": "function"
				},
				{
					"inputs": [],
					"name": "totalSupply",
					"outputs": [
						{
							"internalType": "uint256",
							"name": "",
							"type": "uint256"
						}
					],
					"stateMutability": "view",
					"type": "function"
				},
				{
					"inputs": [
						{
							"internalType": "address",
							"name": "to",
							"type": "address"
						},
						{
							"internalType": "uint256",
							"name": "value",
							"type": "uint256"
						}
					],
					"name": "transfer",
					"outputs": [
						{
							"internalType": "bool",
							"name": "",
							"type": "bool"
						}
					],
					"stateMutability": "nonpayable",
					"type": "function"
				},
				{
					"inputs": [
						{
							"internalType": "address",
							"name": "from",
							"type": "address"
						},
						{
							"internalType": "address",
							"name": "to",
							"type": "address"
						},
						{
							"internalType": "uint256",
							"name": "value",
							"type": "uint256"
						}
					],
					"name": "transferFrom",
					"outputs": [
						{
							"internalType": "bool",
							"name": "",
							"type": "bool"
						}
					],
					"stateMutability": "nonpayable",
					"type": "function"
				}
			],
			"devdoc": {
				"errors": {
					"ERC20InsufficientAllowance(address,uint256,uint256)": [
						{
							"details": "Indicates a failure with the `spender`’s `allowance`. Used in transfers.",
							"params": {
								"allowance": "Amount of tokens a `spender` is allowed to operate with.",
								"needed": "Minimum amount required to perform a transfer.",
								"spender": "Address that may be allowed to operate on tokens without being their owner."
							}
						}
					],
					"ERC20InsufficientBalance(address,uint256,uint256)": [
						{
							"details": "Indicates an error related to the current `balance` of a `sender`. Used in transfers.",
							"params": {
								"balance": "Current balance for the interacting account.",
								"needed": "Minimum amount required to perform a transfer.",
								"sender": "Address whose tokens are being transferred."
							}
						}
					],
					"ERC20InvalidApprover(address)": [
						{
							"details": "Indicates a failure with the `approver` of a token to be approved. Used in approvals.",
							"params": {
								"approver": "Address initiating an approval operation."
							}
						}
					],
					"ERC20InvalidReceiver(address)": [
						{
							"details": "Indicates a failure with the token `receiver`. Used in transfers.",
							"params": {
								"receiver": "Address to which tokens are being transferred."
							}
						}
					],
					"ERC20InvalidSender(address)": [
						{
							"details": "Indicates a failure with the token `sender`. Used in transfers.",
							"params": {
								"sender": "Address whose tokens are being transferred."
							}
						}
					],
					"ERC20InvalidSpender(address)": [
						{
							"details": "Indicates a failure with the `spender` to be approved. Used in approvals.",
							"params": {
								"spender": "Address that may be allowed to operate on tokens without being their owner."
							}
						}
					]
				},
				"events": {
					"Approval(address,address,uint256)": {
						"details": "Emitted when the allowance of a `spender` for an `owner` is set by a call to {approve}. `value` is the new allowance."
					},
					"Transfer(address,address,uint256)": {
						"details": "Emitted when `value` tokens are moved from one account (`from`) to another (`to`). Note that `value` may be zero."
					}
				},
				"kind": "dev",
				"methods": {
					"allowance(address,address)": {
						"details": "See {IERC20-allowance}."
					},
					"approve(address,uint256)": {
						"details": "See {IERC20-approve}. NOTE: If `value` is the maximum `uint256`, the allowance is not updated on `transferFrom`. This is semantically equivalent to an infinite approval. Requirements: - `spender` cannot be the zero address."
					},
					"balanceOf(address)": {
						"details": "See {IERC20-balanceOf}."
					},
					"decimals()": {
						"details": "Returns the number of decimals used to get its user representation. For example, if `decimals` equals `2`, a balance of `505` tokens should be displayed to a user as `5.05` (`505 / 10 ** 2`). Tokens usually opt for a value of 18, imitating the relationship between Ether and Wei. This is the default value returned by this function, unless it's overridden. NOTE: This information is only used for _display_ purposes: it in no way affects any of the arithmetic of the contract, including {IERC20-balanceOf} and {IERC20-transfer}."
					},
					"name()": {
						"details": "Returns the name of the token."
					},
					"symbol()": {
						"details": "Returns the symbol of the token, usually a shorter version of the name."
					},
					"totalSupply()": {
						"details": "See {IERC20-totalSupply}."
					},
					"transfer(address,uint256)": {
						"details": "See {IERC20-transfer}. Requirements: - `to` cannot be the zero address. - the caller must have a balance of at least `value`."
					},
					"transferFrom(address,address,uint256)": {
						"details": "See {IERC20-transferFrom}. Emits an {Approval} event indicating the updated allowance. This is not required by the EIP. See the note at the beginning of {ERC20}. NOTE: Does not update the allowance if the current allowance is the maximum `uint256`. Requirements: - `from` and `to` cannot be the zero address. - `from` must have a balance of at least `value`. - the caller must have allowance for ``from``'s tokens of at least `value`."
					}
				},
				"version": 1
			},
			"evm": {
				"assembly": "    /* \"ADToken_flattened.sol\":41558:42762  contract ADToken is ERC20 {... */\n  mstore(0x40, 0x80)\n    /* \"ADToken_flattened.sol\":41800:41845  constructor() ERC20(\"ADToken\", \"ADT\") {... */\n  callvalue\n  dup1\n  iszero\n  tag_1\n  jumpi\n  0x00\n  dup1\n  revert\ntag_1:\n  pop\n    /* \"ADToken_flattened.sol\":12757:12870  constructor(string memory name_, string memory symbol_) {... */\n  mload(0x40)\n  dup1\n  0x40\n  add\n  0x40\n  mstore\n  dup1\n  0x07\n  dup2\n  mstore\n  0x20\n  add\n  0x4144546f6b656e00000000000000000000000000000000000000000000000000\n  dup2\n  mstore\n  pop\n  mload(0x40)\n  dup1\n  0x40\n  add\n  0x40\n  mstore\n  dup1\n  0x03\n  dup2\n  mstore\n  0x20\n  add\n  0x4144540000000000000000000000000000000000000000000000000000000000\n  dup2\n  mstore\n  pop\n    /* \"ADToken_flattened.sol\":12831:12836  name_ */\n  dup2\n    /* \"ADToken_flattened.sol\":12823:12828  _name */\n  0x03\n    /* \"ADToken_flattened.sol\":12823:12836  _name = name_ */\n  swap1\n  dup2\n  tag_5\n  swap2\n  swap1\n  tag_6\n  jump\t// in\ntag_5:\n  pop\n    /* \"ADToken_flattened.sol\":12856:12863  symbol_ */\n  dup1\n    /* \"ADToken_flattened.sol\":12846:12853  _symbol */\n  0x04\n    /* \"ADToken_flattened.sol\":12846:12863  _symbol = symbol_ */\n  swap1\n  dup2\n  tag_7\n  swap2\n  swap1\n  tag_6\n  jump\t// in\ntag_7:\n  pop\n    /* \"ADToken_flattened.sol\":12757:12870  constructor(string memory name_, string memory symbol_) {... */\n  pop\n  pop\n    /* \"ADToken_flattened.sol\":41558:42762  contract ADToken is ERC20 {... */\n  jump(tag_9)\n    /* \"#utility.yul\":7:106   */\ntag_10:\n    /* \"#utility.yul\":59:65   */\n  0x00\n    /* \"#utility.yul\":93:98   */\n  dup2\n    /* \"#utility.yul\":87:99   */\n  mload\n    /* \"#utility.yul\":77:99   */\n  swap1\n  pop\n    /* \"#utility.yul\":7:106   */\n  swap2\n  swap1\n  pop\n  jump\t// out\n    /* \"#utility.yul\":112:292   */\ntag_11:\n    /* \"#utility.yul\":160:237   */\n  0x4e487b7100000000000000000000000000000000000000000000000000000000\n    /* \"#utility.yul\":157:158   */\n  0x00\n    /* \"#utility.yul\":150:238   */\n  mstore\n    /* \"#utility.yul\":257:261   */\n  0x41\n    /* \"#utility.yul\":254:255   */\n  0x04\n    /* \"#utility.yul\":247:262   */\n  mstore\n    /* \"#utility.yul\":281:285   */\n  0x24\n    /* \"#utility.yul\":278:279   */\n  0x00\n    /* \"#utility.yul\":271:286   */\n  revert\n    /* \"#utility.yul\":298:478   */\ntag_12:\n    /* \"#utility.yul\":346:423   */\n  0x4e487b7100000000000000000000000000000000000000000000000000000000\n    /* \"#utility.yul\":343:344   */\n  0x00\n    /* \"#utility.yul\":336:424   */\n  mstore\n    /* \"#utility.yul\":443:447   */\n  0x22\n    /* \"#utility.yul\":440:441   */\n  0x04\n    /* \"#utility.yul\":433:448   */\n  mstore\n    /* \"#utility.yul\":467:471   */\n  0x24\n    /* \"#utility.yul\":464:465   */\n  0x00\n    /* \"#utility.yul\":457:472   */\n  revert\n    /* \"#utility.yul\":484:804   */\ntag_13:\n    /* \"#utility.yul\":528:534   */\n  0x00\n    /* \"#utility.yul\":565:566   */\n  0x02\n    /* \"#utility.yul\":559:563   */\n  dup3\n    /* \"#utility.yul\":555:567   */\n  div\n    /* \"#utility.yul\":545:567   */\n  swap1\n  pop\n    /* \"#utility.yul\":612:613   */\n  0x01\n    /* \"#utility.yul\":606:610   */\n  dup3\n    /* \"#utility.yul\":602:614   */\n  and\n    /* \"#utility.yul\":633:651   */\n  dup1\n    /* \"#utility.yul\":623:704   */\n  tag_35\n  jumpi\n    /* \"#utility.yul\":689:693   */\n  0x7f\n    /* \"#utility.yul\":681:687   */\n  dup3\n    /* \"#utility.yul\":677:694   */\n  and\n    /* \"#utility.yul\":667:694   */\n  swap2\n  pop\n    /* \"#utility.yul\":623:704   */\ntag_35:\n    /* \"#utility.yul\":751:753   */\n  0x20\n    /* \"#utility.yul\":743:749   */\n  dup3\n    /* \"#utility.yul\":740:754   */\n  lt\n    /* \"#utility.yul\":720:738   */\n  dup2\n    /* \"#utility.yul\":717:755   */\n  sub\n    /* \"#utility.yul\":714:798   */\n  tag_36\n  jumpi\n    /* \"#utility.yul\":770:788   */\n  tag_37\n  tag_12\n  jump\t// in\ntag_37:\n    /* \"#utility.yul\":714:798   */\ntag_36:\n    /* \"#utility.yul\":535:804   */\n  pop\n    /* \"#utility.yul\":484:804   */\n  swap2\n  swap1\n  pop\n  jump\t// out\n    /* \"#utility.yul\":810:951   */\ntag_14:\n    /* \"#utility.yul\":859:863   */\n  0x00\n    /* \"#utility.yul\":882:885   */\n  dup2\n    /* \"#utility.yul\":874:885   */\n  swap1\n  pop\n    /* \"#utility.yul\":905:908   */\n  dup2\n    /* \"#utility.yul\":902:903   */\n  0x00\n    /* \"#utility.yul\":895:909   */\n  mstore\n    /* \"#utility.yul\":939:943   */\n  0x20\n    /* \"#utility.yul\":936:937   */\n  0x00\n    /* \"#utility.yul\":926:944   */\n  keccak256\n    /* \"#utility.yul\":918:944   */\n  swap1\n  pop\n    /* \"#utility.yul\":810:951   */\n  swap2\n  swap1\n  pop\n  jump\t// out\n    /* \"#utility.yul\":957:1050   */\ntag_15:\n    /* \"#utility.yul\":994:1000   */\n  0x00\n    /* \"#utility.yul\":1041:1043   */\n  0x20\n    /* \"#utility.yul\":1036:1038   */\n  0x1f\n    /* \"#utility.yul\":1029:1034   */\n  dup4\n    /* \"#utility.yul\":1025:1039   */\n  add\n    /* \"#utility.yul\":1021:1044   */\n  div\n    /* \"#utility.yul\":1011:1044   */\n  swap1\n  pop\n    /* \"#utility.yul\":957:1050   */\n  swap2\n  swap1\n  pop\n  jump\t// out\n    /* \"#utility.yul\":1056:1163   */\ntag_16:\n    /* \"#utility.yul\":1100:1108   */\n  0x00\n    /* \"#utility.yul\":1150:1155   */\n  dup3\n    /* \"#utility.yul\":1144:1148   */\n  dup3\n    /* \"#utility.yul\":1140:1156   */\n  shl\n    /* \"#utility.yul\":1119:1156   */\n  swap1\n  pop\n    /* \"#utility.yul\":1056:1163   */\n  swap3\n  swap2\n  pop\n  pop\n  jump\t// out\n    /* \"#utility.yul\":1169:1562   */\ntag_17:\n    /* \"#utility.yul\":1238:1244   */\n  0x00\n    /* \"#utility.yul\":1288:1289   */\n  0x08\n    /* \"#utility.yul\":1276:1286   */\n  dup4\n    /* \"#utility.yul\":1272:1290   */\n  mul\n    /* \"#utility.yul\":1311:1408   */\n  tag_42\n    /* \"#utility.yul\":1341:1407   */\n  0xffffffffffffffffffffffffffffffffffffffffffffffffffffffffffffffff\n    /* \"#utility.yul\":1330:1339   */\n  dup3\n    /* \"#utility.yul\":1311:1408   */\n  tag_16\n  jump\t// in\ntag_42:\n    /* \"#utility.yul\":1429:1468   */\n  tag_43\n    /* \"#utility.yul\":1459:1467   */\n  dup7\n    /* \"#utility.yul\":1448:1457   */\n  dup4\n    /* \"#utility.yul\":1429:1468   */\n  tag_16\n  jump\t// in\ntag_43:\n    /* \"#utility.yul\":1417:1468   */\n  swap6\n  pop\n    /* \"#utility.yul\":1501:1505   */\n  dup1\n    /* \"#utility.yul\":1497:1506   */\n  not\n    /* \"#utility.yul\":1490:1495   */\n  dup5\n    /* \"#utility.yul\":1486:1507   */\n  and\n    /* \"#utility.yul\":1477:1507   */\n  swap4\n  pop\n    /* \"#utility.yul\":1550:1554   */\n  dup1\n    /* \"#utility.yul\":1540:1548   */\n  dup7\n    /* \"#utility.yul\":1536:1555   */\n  and\n    /* \"#utility.yul\":1529:1534   */\n  dup5\n    /* \"#utility.yul\":1526:1556   */\n  or\n    /* \"#utility.yul\":1516:1556   */\n  swap3\n  pop\n    /* \"#utility.yul\":1245:1562   */\n  pop\n  pop\n    /* \"#utility.yul\":1169:1562   */\n  swap4\n  swap3\n  pop\n  pop\n  pop\n  jump\t// out\n    /* \"#utility.yul\":1568:1645   */\ntag_18:\n    /* \"#utility.yul\":1605:1612   */\n  0x00\n    /* \"#utility.yul\":1634:1639   */\n  dup2\n    /* \"#utility.yul\":1623:1639   */\n  swap1\n  pop\n    /* \"#utility.yul\":1568:1645   */\n  swap2\n  swap1\n  pop\n  jump\t// out\n    /* \"#utility.yul\":1651:1711   */\ntag_19:\n    /* \"#utility.yul\":1679:1682   */\n  0x00\n    /* \"#utility.yul\":1700:1705   */\n  dup2\n    /* \"#utility.yul\":1693:1705   */\n  swap1\n  pop\n    /* \"#utility.yul\":1651:1711   */\n  swap2\n  swap1\n  pop\n  jump\t// out\n    /* \"#utility.yul\":1717:1859   */\ntag_20:\n    /* \"#utility.yul\":1767:1776   */\n  0x00\n    /* \"#utility.yul\":1800:1853   */\n  tag_47\n    /* \"#utility.yul\":1818:1852   */\n  tag_48\n    /* \"#utility.yul\":1827:1851   */\n  tag_49\n    /* \"#utility.yul\":1845:1850   */\n  dup5\n    /* \"#utility.yul\":1827:1851   */\n  tag_18\n  jump\t// in\ntag_49:\n    /* \"#utility.yul\":1818:1852   */\n  tag_19\n  jump\t// in\ntag_48:\n    /* \"#utility.yul\":1800:1853   */\n  tag_18\n  jump\t// in\ntag_47:\n    /* \"#utility.yul\":1787:1853   */\n  swap1\n  pop\n    /* \"#utility.yul\":1717:1859   */\n  swap2\n  swap1\n  pop\n  jump\t// out\n    /* \"#utility.yul\":1865:1940   */\ntag_21:\n    /* \"#utility.yul\":1908:1911   */\n  0x00\n    /* \"#utility.yul\":1929:1934   */\n  dup2\n    /* \"#utility.yul\":1922:1934   */\n  swap1\n  pop\n    /* \"#utility.yul\":1865:1940   */\n  swap2\n  swap1\n  pop\n  jump\t// out\n    /* \"#utility.yul\":1946:2215   */\ntag_22:\n    /* \"#utility.yul\":2056:2095   */\n  tag_52\n    /* \"#utility.yul\":2087:2094   */\n  dup4\n    /* \"#utility.yul\":2056:2095   */\n  tag_20\n  jump\t// in\ntag_52:\n    /* \"#utility.yul\":2117:2208   */\n  tag_53\n    /* \"#utility.yul\":2166:2207   */\n  tag_54\n    /* \"#utility.yul\":2190:2206   */\n  dup3\n    /* \"#utility.yul\":2166:2207   */\n  tag_21\n  jump\t// in\ntag_54:\n    /* \"#utility.yul\":2158:2164   */\n  dup5\n    /* \"#utility.yul\":2151:2155   */\n  dup5\n    /* \"#utility.yul\":2145:2156   */\n  sload\n    /* \"#utility.yul\":2117:2208   */\n  tag_17\n  jump\t// in\ntag_53:\n    /* \"#utility.yul\":2111:2115   */\n  dup3\n    /* \"#utility.yul\":2104:2209   */\n  sstore\n    /* \"#utility.yul\":2022:2215   */\n  pop\n    /* \"#utility.yul\":1946:2215   */\n  pop\n  pop\n  pop\n  jump\t// out\n    /* \"#utility.yul\":2221:2294   */\ntag_23:\n    /* \"#utility.yul\":2266:2269   */\n  0x00\n    /* \"#utility.yul\":2221:2294   */\n  swap1\n  jump\t// out\n    /* \"#utility.yul\":2300:2489   */\ntag_24:\n    /* \"#utility.yul\":2377:2409   */\n  tag_57\n  tag_23\n  jump\t// in\ntag_57:\n    /* \"#utility.yul\":2418:2483   */\n  tag_58\n    /* \"#utility.yul\":2476:2482   */\n  dup2\n    /* \"#utility.yul\":2468:2474   */\n  dup5\n    /* \"#utility.yul\":2462:2466   */\n  dup5\n    /* \"#utility.yul\":2418:2483   */\n  tag_22\n  jump\t// in\ntag_58:\n    /* \"#utility.yul\":2353:2489   */\n  pop\n    /* \"#utility.yul\":2300:2489   */\n  pop\n  pop\n  jump\t// out\n    /* \"#utility.yul\":2495:2681   */\ntag_25:\n    /* \"#utility.yul\":2555:2675   */\ntag_60:\n    /* \"#utility.yul\":2572:2575   */\n  dup2\n    /* \"#utility.yul\":2565:2570   */\n  dup2\n    /* \"#utility.yul\":2562:2576   */\n  lt\n    /* \"#utility.yul\":2555:2675   */\n  iszero\n  tag_62\n  jumpi\n    /* \"#utility.yul\":2626:2665   */\n  tag_63\n    /* \"#utility.yul\":2663:2664   */\n  0x00\n    /* \"#utility.yul\":2656:2661   */\n  dup3\n    /* \"#utility.yul\":2626:2665   */\n  tag_24\n  jump\t// in\ntag_63:\n    /* \"#utility.yul\":2599:2600   */\n  0x01\n    /* \"#utility.yul\":2592:2597   */\n  dup2\n    /* \"#utility.yul\":2588:2601   */\n  add\n    /* \"#utility.yul\":2579:2601   */\n  swap1\n  pop\n    /* \"#utility.yul\":2555:2675   */\n  jump(tag_60)\ntag_62:\n    /* \"#utility.yul\":2495:2681   */\n  pop\n  pop\n  jump\t// out\n    /* \"#utility.yul\":2687:3230   */\ntag_26:\n    /* \"#utility.yul\":2788:2790   */\n  0x1f\n    /* \"#utility.yul\":2783:2786   */\n  dup3\n    /* \"#utility.yul\":2780:2791   */\n  gt\n    /* \"#utility.yul\":2777:3223   */\n  iszero\n  tag_65\n  jumpi\n    /* \"#utility.yul\":2822:2860   */\n  tag_66\n    /* \"#utility.yul\":2854:2859   */\n  dup2\n    /* \"#utility.yul\":2822:2860   */\n  tag_14\n  jump\t// in\ntag_66:\n    /* \"#utility.yul\":2906:2935   */\n  tag_67\n    /* \"#utility.yul\":2924:2934   */\n  dup5\n    /* \"#utility.yul\":2906:2935   */\n  tag_15\n  jump\t// in\ntag_67:\n    /* \"#utility.yul\":2896:2904   */\n  dup2\n    /* \"#utility.yul\":2892:2936   */\n  add\n    /* \"#utility.yul\":3089:3091   */\n  0x20\n    /* \"#utility.yul\":3077:3087   */\n  dup6\n    /* \"#utility.yul\":3074:3092   */\n  lt\n    /* \"#utility.yul\":3071:3120   */\n  iszero\n  tag_68\n  jumpi\n    /* \"#utility.yul\":3110:3118   */\n  dup2\n    /* \"#utility.yul\":3095:3118   */\n  swap1\n  pop\n    /* \"#utility.yul\":3071:3120   */\ntag_68:\n    /* \"#utility.yul\":3133:3213   */\n  tag_69\n    /* \"#utility.yul\":3189:3211   */\n  tag_70\n    /* \"#utility.yul\":3207:3210   */\n  dup6\n    /* \"#utility.yul\":3189:3211   */\n  tag_15\n  jump\t// in\ntag_70:\n    /* \"#utility.yul\":3179:3187   */\n  dup4\n    /* \"#utility.yul\":3175:3212   */\n  add\n    /* \"#utility.yul\":3162:3173   */\n  dup3\n    /* \"#utility.yul\":3133:3213   */\n  tag_25\n  jump\t// in\ntag_69:\n    /* \"#utility.yul\":2792:3223   */\n  pop\n  pop\n    /* \"#utility.yul\":2777:3223   */\ntag_65:\n    /* \"#utility.yul\":2687:3230   */\n  pop\n  pop\n  pop\n  jump\t// out\n    /* \"#utility.yul\":3236:3353   */\ntag_27:\n    /* \"#utility.yul\":3290:3298   */\n  0x00\n    /* \"#utility.yul\":3340:3345   */\n  dup3\n    /* \"#utility.yul\":3334:3338   */\n  dup3\n    /* \"#utility.yul\":3330:3346   */\n  shr\n    /* \"#utility.yul\":3309:3346   */\n  swap1\n  pop\n    /* \"#utility.yul\":3236:3353   */\n  swap3\n  swap2\n  pop\n  pop\n  jump\t// out\n    /* \"#utility.yul\":3359:3528   */\ntag_28:\n    /* \"#utility.yul\":3403:3409   */\n  0x00\n    /* \"#utility.yul\":3436:3487   */\n  tag_73\n    /* \"#utility.yul\":3484:3485   */\n  0x00\n    /* \"#utility.yul\":3480:3486   */\n  not\n    /* \"#utility.yul\":3472:3477   */\n  dup5\n    /* \"#utility.yul\":3469:3470   */\n  0x08\n    /* \"#utility.yul\":3465:3478   */\n  mul\n    /* \"#utility.yul\":3436:3487   */\n  tag_27\n  jump\t// in\ntag_73:\n    /* \"#utility.yul\":3432:3488   */\n  not\n    /* \"#utility.yul\":3517:3521   */\n  dup1\n    /* \"#utility.yul\":3511:3515   */\n  dup4\n    /* \"#utility.yul\":3507:3522   */\n  and\n    /* \"#utility.yul\":3497:3522   */\n  swap2\n  pop\n    /* \"#utility.yul\":3410:3528   */\n  pop\n    /* \"#utility.yul\":3359:3528   */\n  swap3\n  swap2\n  pop\n  pop\n  jump\t// out\n    /* \"#utility.yul\":3533:3828   */\ntag_29:\n    /* \"#utility.yul\":3609:3613   */\n  0x00\n    /* \"#utility.yul\":3755:3784   */\n  tag_75\n    /* \"#utility.yul\":3780:3783   */\n  dup4\n    /* \"#utility.yul\":3774:3778   */\n  dup4\n    /* \"#utility.yul\":3755:3784   */\n  tag_28\n  jump\t// in\ntag_75:\n    /* \"#utility.yul\":3747:3784   */\n  swap2\n  pop\n    /* \"#utility.yul\":3817:3820   */\n  dup3\n    /* \"#utility.yul\":3814:3815   */\n  0x02\n    /* \"#utility.yul\":3810:3821   */\n  mul\n    /* \"#utility.yul\":3804:3808   */\n  dup3\n    /* \"#utility.yul\":3801:3822   */\n  or\n    /* \"#utility.yul\":3793:3822   */\n  swap1\n  pop\n    /* \"#utility.yul\":3533:3828   */\n  swap3\n  swap2\n  pop\n  pop\n  jump\t// out\n    /* \"#utility.yul\":3833:5228   */\ntag_6:\n    /* \"#utility.yul\":3950:3987   */\n  tag_77\n    /* \"#utility.yul\":3983:3986   */\n  dup3\n    /* \"#utility.yul\":3950:3987   */\n  tag_10\n  jump\t// in\ntag_77:\n    /* \"#utility.yul\":4052:4070   */\n  0xffffffffffffffff\n    /* \"#utility.yul\":4044:4050   */\n  dup2\n    /* \"#utility.yul\":4041:4071   */\n  gt\n    /* \"#utility.yul\":4038:4094   */\n  iszero\n  tag_78\n  jumpi\n    /* \"#utility.yul\":4074:4092   */\n  tag_79\n  tag_11\n  jump\t// in\ntag_79:\n    /* \"#utility.yul\":4038:4094   */\ntag_78:\n    /* \"#utility.yul\":4118:4156   */\n  tag_80\n    /* \"#utility.yul\":4150:4154   */\n  dup3\n    /* \"#utility.yul\":4144:4155   */\n  sload\n    /* \"#utility.yul\":4118:4156   */\n  tag_13\n  jump\t// in\ntag_80:\n    /* \"#utility.yul\":4203:4270   */\n  tag_81\n    /* \"#utility.yul\":4263:4269   */\n  dup3\n    /* \"#utility.yul\":4255:4261   */\n  dup3\n    /* \"#utility.yul\":4249:4253   */\n  dup6\n    /* \"#utility.yul\":4203:4270   */\n  tag_26\n  jump\t// in\ntag_81:\n    /* \"#utility.yul\":4297:4298   */\n  0x00\n    /* \"#utility.yul\":4321:4325   */\n  0x20\n    /* \"#utility.yul\":4308:4325   */\n  swap1\n  pop\n    /* \"#utility.yul\":4353:4355   */\n  0x1f\n    /* \"#utility.yul\":4345:4351   */\n  dup4\n    /* \"#utility.yul\":4342:4356   */\n  gt\n    /* \"#utility.yul\":4370:4371   */\n  0x01\n    /* \"#utility.yul\":4365:4983   */\n  dup2\n  eq\n  tag_83\n  jumpi\n    /* \"#utility.yul\":5027:5028   */\n  0x00\n    /* \"#utility.yul\":5044:5050   */\n  dup5\n    /* \"#utility.yul\":5041:5118   */\n  iszero\n  tag_84\n  jumpi\n    /* \"#utility.yul\":5093:5102   */\n  dup3\n    /* \"#utility.yul\":5088:5091   */\n  dup8\n    /* \"#utility.yul\":5084:5103   */\n  add\n    /* \"#utility.yul\":5078:5104   */\n  mload\n    /* \"#utility.yul\":5069:5104   */\n  swap1\n  pop\n    /* \"#utility.yul\":5041:5118   */\ntag_84:\n    /* \"#utility.yul\":5144:5211   */\n  tag_85\n    /* \"#utility.yul\":5204:5210   */\n  dup6\n    /* \"#utility.yul\":5197:5202   */\n  dup3\n    /* \"#utility.yul\":5144:5211   */\n  tag_29\n  jump\t// in\ntag_85:\n    /* \"#utility.yul\":5138:5142   */\n  dup7\n    /* \"#utility.yul\":5131:5212   */\n  sstore\n    /* \"#utility.yul\":5000:5222   */\n  pop\n    /* \"#utility.yul\":4335:5222   */\n  jump(tag_82)\n    /* \"#utility.yul\":4365:4983   */\ntag_83:\n    /* \"#utility.yul\":4417:4421   */\n  0x1f\n    /* \"#utility.yul\":4413:4422   */\n  not\n    /* \"#utility.yul\":4405:4411   */\n  dup5\n    /* \"#utility.yul\":4401:4423   */\n  and\n    /* \"#utility.yul\":4451:4488   */\n  tag_86\n    /* \"#utility.yul\":4483:4487   */\n  dup7\n    /* \"#utility.yul\":4451:4488   */\n  tag_14\n  jump\t// in\ntag_86:\n    /* \"#utility.yul\":4510:4511   */\n  0x00\n    /* \"#utility.yul\":4524:4732   */\ntag_87:\n    /* \"#utility.yul\":4538:4545   */\n  dup3\n    /* \"#utility.yul\":4535:4536   */\n  dup2\n    /* \"#utility.yul\":4532:4546   */\n  lt\n    /* \"#utility.yul\":4524:4732   */\n  iszero\n  tag_89\n  jumpi\n    /* \"#utility.yul\":4617:4626   */\n  dup5\n    /* \"#utility.yul\":4612:4615   */\n  dup10\n    /* \"#utility.yul\":4608:4627   */\n  add\n    /* \"#utility.yul\":4602:4628   */\n  mload\n    /* \"#utility.yul\":4594:4600   */\n  dup3\n    /* \"#utility.yul\":4587:4629   */\n  sstore\n    /* \"#utility.yul\":4668:4669   */\n  0x01\n    /* \"#utility.yul\":4660:4666   */\n  dup3\n    /* \"#utility.yul\":4656:4670   */\n  add\n    /* \"#utility.yul\":4646:4670   */\n  swap2\n  pop\n    /* \"#utility.yul\":4715:4717   */\n  0x20\n    /* \"#utility.yul\":4704:4713   */\n  dup6\n    /* \"#utility.yul\":4700:4718   */\n  add\n    /* \"#utility.yul\":4687:4718   */\n  swap5\n  pop\n    /* \"#utility.yul\":4561:4565   */\n  0x20\n    /* \"#utility.yul\":4558:4559   */\n  dup2\n    /* \"#utility.yul\":4554:4566   */\n  add\n    /* \"#utility.yul\":4549:4566   */\n  swap1\n  pop\n    /* \"#utility.yul\":4524:4732   */\n  jump(tag_87)\ntag_89:\n    /* \"#utility.yul\":4760:4766   */\n  dup7\n    /* \"#utility.yul\":4751:4758   */\n  dup4\n    /* \"#utility.yul\":4748:4767   */\n  lt\n    /* \"#utility.yul\":4745:4924   */\n  iszero\n  tag_90\n  jumpi\n    /* \"#utility.yul\":4818:4827   */\n  dup5\n    /* \"#utility.yul\":4813:4816   */\n  dup10\n    /* \"#utility.yul\":4809:4828   */\n  add\n    /* \"#utility.yul\":4803:4829   */\n  mload\n    /* \"#utility.yul\":4861:4909   */\n  tag_91\n    /* \"#utility.yul\":4903:4907   */\n  0x1f\n    /* \"#utility.yul\":4895:4901   */\n  dup10\n    /* \"#utility.yul\":4891:4908   */\n  and\n    /* \"#utility.yul\":4880:4889   */\n  dup3\n    /* \"#utility.yul\":4861:4909   */\n  tag_28\n  jump\t// in\ntag_91:\n    /* \"#utility.yul\":4853:4859   */\n  dup4\n    /* \"#utility.yul\":4846:4910   */\n  sstore\n    /* \"#utility.yul\":4768:4924   */\n  pop\n    /* \"#utility.yul\":4745:4924   */\ntag_90:\n    /* \"#utility.yul\":4970:4971   */\n  0x01\n    /* \"#utility.yul\":4966:4967   */\n  0x02\n    /* \"#utility.yul\":4958:4964   */\n  dup9\n    /* \"#utility.yul\":4954:4968   */\n  mul\n    /* \"#utility.yul\":4950:4972   */\n  add\n    /* \"#utility.yul\":4944:4948   */\n  dup9\n    /* \"#utility.yul\":4937:4973   */\n  sstore\n    /* \"#utility.yul\":4372:4983   */\n  pop\n  pop\n  pop\n    /* \"#utility.yul\":4335:5222   */\ntag_82:\n  pop\n    /* \"#utility.yul\":3925:5228   */\n  pop\n  pop\n  pop\n    /* \"#utility.yul\":3833:5228   */\n  pop\n  pop\n  jump\t// out\n    /* \"ADToken_flattened.sol\":41558:42762  contract ADToken is ERC20 {... */\ntag_9:\n  dataSize(sub_0)\n  dup1\n  dataOffset(sub_0)\n  0x00\n  codecopy\n  0x00\n  return\nstop\n\nsub_0: assembly {\n        /* \"ADToken_flattened.sol\":41558:42762  contract ADToken is ERC20 {... */\n      mstore(0x40, 0x80)\n      jumpi(tag_1, lt(calldatasize, 0x04))\n      shr(0xe0, calldataload(0x00))\n      dup1\n      0x67c0feab\n      gt\n      tag_13\n      jumpi\n      dup1\n      0x67c0feab\n      eq\n      tag_7\n      jumpi\n      dup1\n      0x70a08231\n      eq\n      tag_8\n      jumpi\n      dup1\n      0x95d89b41\n      eq\n      tag_9\n      jumpi\n      dup1\n      0xa9059cbb\n      eq\n      tag_10\n      jumpi\n      dup1\n      0xd5dca896\n      eq\n      tag_11\n      jumpi\n      dup1\n      0xdd62ed3e\n      eq\n      tag_12\n      jumpi\n      jump(tag_1)\n    tag_13:\n      dup1\n      0x06fdde03\n      eq\n      tag_2\n      jumpi\n      dup1\n      0x095ea7b3\n      eq\n      tag_3\n      jumpi\n      dup1\n      0x18160ddd\n      eq\n      tag_4\n      jumpi\n      dup1\n      0x23b872dd\n      eq\n      tag_5\n      jumpi\n      dup1\n      0x313ce567\n      eq\n      tag_6\n      jumpi\n    tag_1:\n      0x00\n      dup1\n      revert\n        /* \"ADToken_flattened.sol\":12935:13024  function name() public view virtual returns (string memory) {... */\n    tag_2:\n      callvalue\n      dup1\n      iszero\n      tag_14\n      jumpi\n      0x00\n      dup1\n      revert\n    tag_14:\n      pop\n      tag_15\n      tag_16\n      jump\t// in\n    tag_15:\n      mload(0x40)\n      tag_17\n      swap2\n      swap1\n      tag_18\n      jump\t// in\n    tag_17:\n      mload(0x40)\n      dup1\n      swap2\n      sub\n      swap1\n      return\n        /* \"ADToken_flattened.sol\":15154:15340  function approve(address spender, uint256 value) public virtual returns (bool) {... */\n    tag_3:\n      callvalue\n      dup1\n      iszero\n      tag_19\n      jumpi\n      0x00\n      dup1\n      revert\n    tag_19:\n      pop\n      tag_20\n      0x04\n      dup1\n      calldatasize\n      sub\n      dup2\n      add\n      swap1\n      tag_21\n      swap2\n      swap1\n      tag_22\n      jump\t// in\n    tag_21:\n      tag_23\n      jump\t// in\n    tag_20:\n      mload(0x40)\n      tag_24\n      swap2\n      swap1\n      tag_25\n      jump\t// in\n    tag_24:\n      mload(0x40)\n      dup1\n      swap2\n      sub\n      swap1\n      return\n        /* \"ADToken_flattened.sol\":14005:14102  function totalSupply() public view virtual returns (uint256) {... */\n    tag_4:\n      callvalue\n      dup1\n      iszero\n      tag_26\n      jumpi\n      0x00\n      dup1\n      revert\n    tag_26:\n      pop\n      tag_27\n      tag_28\n      jump\t// in\n    tag_27:\n      mload(0x40)\n      tag_29\n      swap2\n      swap1\n      tag_30\n      jump\t// in\n    tag_29:\n      mload(0x40)\n      dup1\n      swap2\n      sub\n      swap1\n      return\n        /* \"ADToken_flattened.sol\":15900:16144  function transferFrom(address from, address to, uint256 value) public virtual returns (bool) {... */\n    tag_5:\n      callvalue\n      dup1\n      iszero\n      tag_31\n      jumpi\n      0x00\n      dup1\n      revert\n    tag_31:\n      pop\n      tag_32\n      0x04\n      dup1\n      calldatasize\n      sub\n      dup2\n      add\n      swap1\n      tag_33\n      swap2\n      swap1\n      tag_34\n      jump\t// in\n    tag_33:\n      tag_35\n      jump\t// in\n    tag_32:\n      mload(0x40)\n      tag_36\n      swap2\n      swap1\n      tag_25\n      jump\t// in\n    tag_36:\n      mload(0x40)\n      dup1\n      swap2\n      sub\n      swap1\n      return\n        /* \"ADToken_flattened.sol\":13863:13945  function decimals() public view virtual returns (uint8) {... */\n    tag_6:\n      callvalue\n      dup1\n      iszero\n      tag_37\n      jumpi\n      0x00\n      dup1\n      revert\n    tag_37:\n      pop\n      tag_38\n      tag_39\n      jump\t// in\n    tag_38:\n      mload(0x40)\n      tag_40\n      swap2\n      swap1\n      tag_41\n      jump\t// in\n    tag_40:\n      mload(0x40)\n      dup1\n      swap2\n      sub\n      swap1\n      return\n        /* \"ADToken_flattened.sol\":42362:42760  function sellADT(uint256 ADTamound) external {... */\n    tag_7:\n      callvalue\n      dup1\n      iszero\n      tag_42\n      jumpi\n      0x00\n      dup1\n      revert\n    tag_42:\n      pop\n      tag_43\n      0x04\n      dup1\n      calldatasize\n      sub\n      dup2\n      add\n      swap1\n      tag_44\n      swap2\n      swap1\n      tag_45\n      jump\t// in\n    tag_44:\n      tag_46\n      jump\t// in\n    tag_43:\n      stop\n        /* \"ADToken_flattened.sol\":14160:14276  function balanceOf(address account) public view virtual returns (uint256) {... */\n    tag_8:\n      callvalue\n      dup1\n      iszero\n      tag_47\n      jumpi\n      0x00\n      dup1\n      revert\n    tag_47:\n      pop\n      tag_48\n      0x04\n      dup1\n      calldatasize\n      sub\n      dup2\n      add\n      swap1\n      tag_49\n      swap2\n      swap1\n      tag_50\n      jump\t// in\n    tag_49:\n      tag_51\n      jump\t// in\n    tag_48:\n      mload(0x40)\n      tag_52\n      swap2\n      swap1\n      tag_30\n      jump\t// in\n    tag_52:\n      mload(0x40)\n      dup1\n      swap2\n      sub\n      swap1\n      return\n        /* \"ADToken_flattened.sol\":13137:13230  function symbol() public view virtual returns (string memory) {... */\n    tag_9:\n      callvalue\n      dup1\n      iszero\n      tag_53\n      jumpi\n      0x00\n      dup1\n      revert\n    tag_53:\n      pop\n      tag_54\n      tag_55\n      jump\t// in\n    tag_54:\n      mload(0x40)\n      tag_56\n      swap2\n      swap1\n      tag_18\n      jump\t// in\n    tag_56:\n      mload(0x40)\n      dup1\n      swap2\n      sub\n      swap1\n      return\n        /* \"ADToken_flattened.sol\":14471:14649  function transfer(address to, uint256 value) public virtual returns (bool) {... */\n    tag_10:\n      callvalue\n      dup1\n      iszero\n      tag_57\n      jumpi\n      0x00\n      dup1\n      revert\n    tag_57:\n      pop\n      tag_58\n      0x04\n      dup1\n      calldatasize\n      sub\n      dup2\n      add\n      swap1\n      tag_59\n      swap2\n      swap1\n      tag_22\n      jump\t// in\n    tag_59:\n      tag_60\n      jump\t// in\n    tag_58:\n      mload(0x40)\n      tag_61\n      swap2\n      swap1\n      tag_25\n      jump\t// in\n    tag_61:\n      mload(0x40)\n      dup1\n      swap2\n      sub\n      swap1\n      return\n        /* \"ADToken_flattened.sol\":42029:42356  function buyADT() external payable returns (uint256) {... */\n    tag_11:\n      tag_62\n      tag_63\n      jump\t// in\n    tag_62:\n      mload(0x40)\n      tag_64\n      swap2\n      swap1\n      tag_30\n      jump\t// in\n    tag_64:\n      mload(0x40)\n      dup1\n      swap2\n      sub\n      swap1\n      return\n        /* \"ADToken_flattened.sol\":14707:14847  function allowance(address owner, address spender) public view virtual returns (uint256) {... */\n    tag_12:\n      callvalue\n      dup1\n      iszero\n      tag_65\n      jumpi\n      0x00\n      dup1\n      revert\n    tag_65:\n      pop\n      tag_66\n      0x04\n      dup1\n      calldatasize\n      sub\n      dup2\n      add\n      swap1\n      tag_67\n      swap2\n      swap1\n      tag_68\n      jump\t// in\n    tag_67:\n      tag_69\n      jump\t// in\n    tag_66:\n      mload(0x40)\n      tag_70\n      swap2\n      swap1\n      tag_30\n      jump\t// in\n    tag_70:\n      mload(0x40)\n      dup1\n      swap2\n      sub\n      swap1\n      return\n        /* \"ADToken_flattened.sol\":12935:13024  function name() public view virtual returns (string memory) {... */\n    tag_16:\n        /* \"ADToken_flattened.sol\":12980:12993  string memory */\n      0x60\n        /* \"ADToken_flattened.sol\":13012:13017  _name */\n      0x03\n        /* \"ADToken_flattened.sol\":13005:13017  return _name */\n      dup1\n      sload\n      tag_72\n      swap1\n      tag_73\n      jump\t// in\n    tag_72:\n      dup1\n      0x1f\n      add\n      0x20\n      dup1\n      swap2\n      div\n      mul\n      0x20\n      add\n      mload(0x40)\n      swap1\n      dup2\n      add\n      0x40\n      mstore\n      dup1\n      swap3\n      swap2\n      swap1\n      dup2\n      dup2\n      mstore\n      0x20\n      add\n      dup3\n      dup1\n      sload\n      tag_74\n      swap1\n      tag_73\n      jump\t// in\n    tag_74:\n      dup1\n      iszero\n      tag_75\n      jumpi\n      dup1\n      0x1f\n      lt\n      tag_76\n      jumpi\n      0x0100\n      dup1\n      dup4\n      sload\n      div\n      mul\n      dup4\n      mstore\n      swap2\n      0x20\n      add\n      swap2\n      jump(tag_75)\n    tag_76:\n      dup3\n      add\n      swap2\n      swap1\n      0x00\n      mstore\n      keccak256(0x00, 0x20)\n      swap1\n    tag_77:\n      dup2\n      sload\n      dup2\n      mstore\n      swap1\n      0x01\n      add\n      swap1\n      0x20\n      add\n      dup1\n      dup4\n      gt\n      tag_77\n      jumpi\n      dup3\n      swap1\n      sub\n      0x1f\n      and\n      dup3\n      add\n      swap2\n    tag_75:\n      pop\n      pop\n      pop\n      pop\n      pop\n      swap1\n      pop\n        /* \"ADToken_flattened.sol\":12935:13024  function name() public view virtual returns (string memory) {... */\n      swap1\n      jump\t// out\n        /* \"ADToken_flattened.sol\":15154:15340  function approve(address spender, uint256 value) public virtual returns (bool) {... */\n    tag_23:\n        /* \"ADToken_flattened.sol\":15227:15231  bool */\n      0x00\n        /* \"ADToken_flattened.sol\":15243:15256  address owner */\n      dup1\n        /* \"ADToken_flattened.sol\":15259:15271  _msgSender() */\n      tag_79\n        /* \"ADToken_flattened.sol\":15259:15269  _msgSender */\n      tag_80\n        /* \"ADToken_flattened.sol\":15259:15271  _msgSender() */\n      jump\t// in\n    tag_79:\n        /* \"ADToken_flattened.sol\":15243:15271  address owner = _msgSender() */\n      swap1\n      pop\n        /* \"ADToken_flattened.sol\":15281:15312  _approve(owner, spender, value) */\n      tag_81\n        /* \"ADToken_flattened.sol\":15290:15295  owner */\n      dup2\n        /* \"ADToken_flattened.sol\":15297:15304  spender */\n      dup6\n        /* \"ADToken_flattened.sol\":15306:15311  value */\n      dup6\n        /* \"ADToken_flattened.sol\":15281:15289  _approve */\n      tag_82\n        /* \"ADToken_flattened.sol\":15281:15312  _approve(owner, spender, value) */\n      jump\t// in\n    tag_81:\n        /* \"ADToken_flattened.sol\":15329:15333  true */\n      0x01\n        /* \"ADToken_flattened.sol\":15322:15333  return true */\n      swap2\n      pop\n      pop\n        /* \"ADToken_flattened.sol\":15154:15340  function approve(address spender, uint256 value) public virtual returns (bool) {... */\n      swap3\n      swap2\n      pop\n      pop\n      jump\t// out\n        /* \"ADToken_flattened.sol\":14005:14102  function totalSupply() public view virtual returns (uint256) {... */\n    tag_28:\n        /* \"ADToken_flattened.sol\":14057:14064  uint256 */\n      0x00\n        /* \"ADToken_flattened.sol\":14083:14095  _totalSupply */\n      sload(0x02)\n        /* \"ADToken_flattened.sol\":14076:14095  return _totalSupply */\n      swap1\n      pop\n        /* \"ADToken_flattened.sol\":14005:14102  function totalSupply() public view virtual returns (uint256) {... */\n      swap1\n      jump\t// out\n        /* \"ADToken_flattened.sol\":15900:16144  function transferFrom(address from, address to, uint256 value) public virtual returns (bool) {... */\n    tag_35:\n        /* \"ADToken_flattened.sol\":15987:15991  bool */\n      0x00\n        /* \"ADToken_flattened.sol\":16003:16018  address spender */\n      dup1\n        /* \"ADToken_flattened.sol\":16021:16033  _msgSender() */\n      tag_85\n        /* \"ADToken_flattened.sol\":16021:16031  _msgSender */\n      tag_80\n        /* \"ADToken_flattened.sol\":16021:16033  _msgSender() */\n      jump\t// in\n    tag_85:\n        /* \"ADToken_flattened.sol\":16003:16033  address spender = _msgSender() */\n      swap1\n      pop\n        /* \"ADToken_flattened.sol\":16043:16080  _spendAllowance(from, spender, value) */\n      tag_86\n        /* \"ADToken_flattened.sol\":16059:16063  from */\n      dup6\n        /* \"ADToken_flattened.sol\":16065:16072  spender */\n      dup3\n        /* \"ADToken_flattened.sol\":16074:16079  value */\n      dup6\n        /* \"ADToken_flattened.sol\":16043:16058  _spendAllowance */\n      tag_87\n        /* \"ADToken_flattened.sol\":16043:16080  _spendAllowance(from, spender, value) */\n      jump\t// in\n    tag_86:\n        /* \"ADToken_flattened.sol\":16090:16116  _transfer(from, to, value) */\n      tag_88\n        /* \"ADToken_flattened.sol\":16100:16104  from */\n      dup6\n        /* \"ADToken_flattened.sol\":16106:16108  to */\n      dup6\n        /* \"ADToken_flattened.sol\":16110:16115  value */\n      dup6\n        /* \"ADToken_flattened.sol\":16090:16099  _transfer */\n      tag_89\n        /* \"ADToken_flattened.sol\":16090:16116  _transfer(from, to, value) */\n      jump\t// in\n    tag_88:\n        /* \"ADToken_flattened.sol\":16133:16137  true */\n      0x01\n        /* \"ADToken_flattened.sol\":16126:16137  return true */\n      swap2\n      pop\n      pop\n        /* \"ADToken_flattened.sol\":15900:16144  function transferFrom(address from, address to, uint256 value) public virtual returns (bool) {... */\n      swap4\n      swap3\n      pop\n      pop\n      pop\n      jump\t// out\n        /* \"ADToken_flattened.sol\":13863:13945  function decimals() public view virtual returns (uint8) {... */\n    tag_39:\n        /* \"ADToken_flattened.sol\":13912:13917  uint8 */\n      0x00\n        /* \"ADToken_flattened.sol\":13936:13938  18 */\n      0x12\n        /* \"ADToken_flattened.sol\":13929:13938  return 18 */\n      swap1\n      pop\n        /* \"ADToken_flattened.sol\":13863:13945  function decimals() public view virtual returns (uint8) {... */\n      swap1\n      jump\t// out\n        /* \"ADToken_flattened.sol\":42362:42760  function sellADT(uint256 ADTamound) external {... */\n    tag_46:\n        /* \"ADToken_flattened.sol\":42417:42445  _burn(msg.sender, ADTamound) */\n      tag_92\n        /* \"ADToken_flattened.sol\":42423:42433  msg.sender */\n      caller\n        /* \"ADToken_flattened.sol\":42435:42444  ADTamound */\n      dup3\n        /* \"ADToken_flattened.sol\":42417:42422  _burn */\n      tag_93\n        /* \"ADToken_flattened.sol\":42417:42445  _burn(msg.sender, ADTamound) */\n      jump\t// in\n    tag_92:\n        /* \"ADToken_flattened.sol\":42546:42555  bool sent */\n      0x00\n        /* \"ADToken_flattened.sol\":42557:42574  bytes memory data */\n      dup1\n        /* \"ADToken_flattened.sol\":42578:42588  msg.sender */\n      caller\n        /* \"ADToken_flattened.sol\":42578:42593  msg.sender.call */\n      0xffffffffffffffffffffffffffffffffffffffff\n      and\n        /* \"ADToken_flattened.sol\":42601:42610  ADTamound */\n      dup4\n        /* \"ADToken_flattened.sol\":42578:42615  msg.sender.call{value: ADTamound}(\"\") */\n      mload(0x40)\n      tag_94\n      swap1\n      tag_95\n      jump\t// in\n    tag_94:\n      0x00\n      mload(0x40)\n      dup1\n      dup4\n      sub\n      dup2\n      dup6\n      dup8\n      gas\n      call\n      swap3\n      pop\n      pop\n      pop\n      returndatasize\n      dup1\n      0x00\n      dup2\n      eq\n      tag_98\n      jumpi\n      mload(0x40)\n      swap2\n      pop\n      and(add(returndatasize, 0x3f), not(0x1f))\n      dup3\n      add\n      0x40\n      mstore\n      returndatasize\n      dup3\n      mstore\n      returndatasize\n      0x00\n      0x20\n      dup5\n      add\n      returndatacopy\n      jump(tag_97)\n    tag_98:\n      0x60\n      swap2\n      pop\n    tag_97:\n      pop\n        /* \"ADToken_flattened.sol\":42545:42615  (bool sent, bytes memory data) = msg.sender.call{value: ADTamound}(\"\") */\n      swap2\n      pop\n      swap2\n      pop\n        /* \"ADToken_flattened.sol\":42658:42662  sent */\n      dup2\n        /* \"ADToken_flattened.sol\":42650:42685  require(sent, \"Failed to sell ADT\") */\n      tag_99\n      jumpi\n      mload(0x40)\n      0x08c379a000000000000000000000000000000000000000000000000000000000\n      dup2\n      mstore\n      0x04\n      add\n      tag_100\n      swap1\n      tag_101\n      jump\t// in\n    tag_100:\n      mload(0x40)\n      dup1\n      swap2\n      sub\n      swap1\n      revert\n    tag_99:\n        /* \"ADToken_flattened.sol\":42708:42717  ADTamound */\n      dup3\n        /* \"ADToken_flattened.sol\":42697:42704  balance */\n      0x05\n      0x00\n        /* \"ADToken_flattened.sol\":42697:42717  balance -= ADTamound */\n      dup3\n      dup3\n      sload\n      tag_102\n      swap2\n      swap1\n      tag_103\n      jump\t// in\n    tag_102:\n      swap3\n      pop\n      pop\n      dup2\n      swap1\n      sstore\n      pop\n        /* \"ADToken_flattened.sol\":42407:42760  {... */\n      pop\n      pop\n        /* \"ADToken_flattened.sol\":42362:42760  function sellADT(uint256 ADTamound) external {... */\n      pop\n      jump\t// out\n        /* \"ADToken_flattened.sol\":14160:14276  function balanceOf(address account) public view virtual returns (uint256) {... */\n    tag_51:\n        /* \"ADToken_flattened.sol\":14225:14232  uint256 */\n      0x00\n        /* \"ADToken_flattened.sol\":14251:14260  _balances */\n      dup1\n        /* \"ADToken_flattened.sol\":14251:14269  _balances[account] */\n      0x00\n        /* \"ADToken_flattened.sol\":14261:14268  account */\n      dup4\n        /* \"ADToken_flattened.sol\":14251:14269  _balances[account] */\n      0xffffffffffffffffffffffffffffffffffffffff\n      and\n      0xffffffffffffffffffffffffffffffffffffffff\n      and\n      dup2\n      mstore\n      0x20\n      add\n      swap1\n      dup2\n      mstore\n      0x20\n      add\n      0x00\n      keccak256\n      sload\n        /* \"ADToken_flattened.sol\":14244:14269  return _balances[account] */\n      swap1\n      pop\n        /* \"ADToken_flattened.sol\":14160:14276  function balanceOf(address account) public view virtual returns (uint256) {... */\n      swap2\n      swap1\n      pop\n      jump\t// out\n        /* \"ADToken_flattened.sol\":13137:13230  function symbol() public view virtual returns (string memory) {... */\n    tag_55:\n        /* \"ADToken_flattened.sol\":13184:13197  string memory */\n      0x60\n        /* \"ADToken_flattened.sol\":13216:13223  _symbol */\n      0x04\n        /* \"ADToken_flattened.sol\":13209:13223  return _symbol */\n      dup1\n      sload\n      tag_106\n      swap1\n      tag_73\n      jump\t// in\n    tag_106:\n      dup1\n      0x1f\n      add\n      0x20\n      dup1\n      swap2\n      div\n      mul\n      0x20\n      add\n      mload(0x40)\n      swap1\n      dup2\n      add\n      0x40\n      mstore\n      dup1\n      swap3\n      swap2\n      swap1\n      dup2\n      dup2\n      mstore\n      0x20\n      add\n      dup3\n      dup1\n      sload\n      tag_107\n      swap1\n      tag_73\n      jump\t// in\n    tag_107:\n      dup1\n      iszero\n      tag_108\n      jumpi\n      dup1\n      0x1f\n      lt\n      tag_109\n      jumpi\n      0x0100\n      dup1\n      dup4\n      sload\n      div\n      mul\n      dup4\n      mstore\n      swap2\n      0x20\n      add\n      swap2\n      jump(tag_108)\n    tag_109:\n      dup3\n      add\n      swap2\n      swap1\n      0x00\n      mstore\n      keccak256(0x00, 0x20)\n      swap1\n    tag_110:\n      dup2\n      sload\n      dup2\n      mstore\n      swap1\n      0x01\n      add\n      swap1\n      0x20\n      add\n      dup1\n      dup4\n      gt\n      tag_110\n      jumpi\n      dup3\n      swap1\n      sub\n      0x1f\n      and\n      dup3\n      add\n      swap2\n    tag_108:\n      pop\n      pop\n      pop\n      pop\n      pop\n      swap1\n      pop\n        /* \"ADToken_flattened.sol\":13137:13230  function symbol() public view virtual returns (string memory) {... */\n      swap1\n      jump\t// out\n        /* \"ADToken_flattened.sol\":14471:14649  function transfer(address to, uint256 value) public virtual returns (bool) {... */\n    tag_60:\n        /* \"ADToken_flattened.sol\":14540:14544  bool */\n      0x00\n        /* \"ADToken_flattened.sol\":14556:14569  address owner */\n      dup1\n        /* \"ADToken_flattened.sol\":14572:14584  _msgSender() */\n      tag_112\n        /* \"ADToken_flattened.sol\":14572:14582  _msgSender */\n      tag_80\n        /* \"ADToken_flattened.sol\":14572:14584  _msgSender() */\n      jump\t// in\n    tag_112:\n        /* \"ADToken_flattened.sol\":14556:14584  address owner = _msgSender() */\n      swap1\n      pop\n        /* \"ADToken_flattened.sol\":14594:14621  _transfer(owner, to, value) */\n      tag_113\n        /* \"ADToken_flattened.sol\":14604:14609  owner */\n      dup2\n        /* \"ADToken_flattened.sol\":14611:14613  to */\n      dup6\n        /* \"ADToken_flattened.sol\":14615:14620  value */\n      dup6\n        /* \"ADToken_flattened.sol\":14594:14603  _transfer */\n      tag_89\n        /* \"ADToken_flattened.sol\":14594:14621  _transfer(owner, to, value) */\n      jump\t// in\n    tag_113:\n        /* \"ADToken_flattened.sol\":14638:14642  true */\n      0x01\n        /* \"ADToken_flattened.sol\":14631:14642  return true */\n      swap2\n      pop\n      pop\n        /* \"ADToken_flattened.sol\":14471:14649  function transfer(address to, uint256 value) public virtual returns (bool) {... */\n      swap3\n      swap2\n      pop\n      pop\n      jump\t// out\n        /* \"ADToken_flattened.sol\":42029:42356  function buyADT() external payable returns (uint256) {... */\n    tag_63:\n        /* \"ADToken_flattened.sol\":42073:42080  uint256 */\n      0x00\n        /* \"ADToken_flattened.sol\":41695:41696  1 */\n      0x01\n        /* \"ADToken_flattened.sol\":42100:42130  msg.value >= minimumTokenToBuy */\n      0xffffffffffffffff\n      and\n        /* \"ADToken_flattened.sol\":42100:42109  msg.value */\n      callvalue\n        /* \"ADToken_flattened.sol\":42100:42130  msg.value >= minimumTokenToBuy */\n      lt\n      iszero\n        /* \"ADToken_flattened.sol\":42146:42181  Strings.toString(minimumTokenToBuy) */\n      tag_115\n        /* \"ADToken_flattened.sol\":41695:41696  1 */\n      0x01\n        /* \"ADToken_flattened.sol\":42146:42181  Strings.toString(minimumTokenToBuy) */\n      0xffffffffffffffff\n      and\n        /* \"ADToken_flattened.sol\":42146:42162  Strings.toString */\n      tag_116\n        /* \"ADToken_flattened.sol\":42146:42181  Strings.toString(minimumTokenToBuy) */\n      jump\t// in\n    tag_115:\n        /* \"ADToken_flattened.sol\":42132:42239  string.concat(Strings.toString(minimumTokenToBuy), \" WEI is minimum value to buy token, eq 1 ETH to 1 ADT\") */\n      add(0x20, mload(0x40))\n      tag_117\n      swap2\n      swap1\n      tag_118\n      jump\t// in\n    tag_117:\n      mload(0x40)\n      0x20\n      dup2\n      dup4\n      sub\n      sub\n      dup2\n      mstore\n      swap1\n      0x40\n      mstore\n        /* \"ADToken_flattened.sol\":42092:42240  require(msg.value >= minimumTokenToBuy, string.concat(Strings.toString(minimumTokenToBuy), \" WEI is minimum value to buy token, eq 1 ETH to 1 ADT\")) */\n      swap1\n      tag_119\n      jumpi\n      mload(0x40)\n      0x08c379a000000000000000000000000000000000000000000000000000000000\n      dup2\n      mstore\n      0x04\n      add\n      tag_120\n      swap2\n      swap1\n      tag_18\n      jump\t// in\n    tag_120:\n      mload(0x40)\n      dup1\n      swap2\n      sub\n      swap1\n      revert\n    tag_119:\n      pop\n        /* \"ADToken_flattened.sol\":42251:42279  _mint(msg.sender, msg.value) */\n      tag_121\n        /* \"ADToken_flattened.sol\":42257:42267  msg.sender */\n      caller\n        /* \"ADToken_flattened.sol\":42269:42278  msg.value */\n      callvalue\n        /* \"ADToken_flattened.sol\":42251:42256  _mint */\n      tag_122\n        /* \"ADToken_flattened.sol\":42251:42279  _mint(msg.sender, msg.value) */\n      jump\t// in\n    tag_121:\n        /* \"ADToken_flattened.sol\":42301:42310  msg.value */\n      callvalue\n        /* \"ADToken_flattened.sol\":42290:42297  balance */\n      0x05\n      0x00\n        /* \"ADToken_flattened.sol\":42290:42310  balance += msg.value */\n      dup3\n      dup3\n      sload\n      tag_123\n      swap2\n      swap1\n      tag_124\n      jump\t// in\n    tag_123:\n      swap3\n      pop\n      pop\n      dup2\n      swap1\n      sstore\n      pop\n        /* \"ADToken_flattened.sol\":42328:42349  balanceOf(msg.sender) */\n      tag_125\n        /* \"ADToken_flattened.sol\":42338:42348  msg.sender */\n      caller\n        /* \"ADToken_flattened.sol\":42328:42337  balanceOf */\n      tag_51\n        /* \"ADToken_flattened.sol\":42328:42349  balanceOf(msg.sender) */\n      jump\t// in\n    tag_125:\n        /* \"ADToken_flattened.sol\":42321:42349  return balanceOf(msg.sender) */\n      swap1\n      pop\n        /* \"ADToken_flattened.sol\":42029:42356  function buyADT() external payable returns (uint256) {... */\n      swap1\n      jump\t// out\n        /* \"ADToken_flattened.sol\":14707:14847  function allowance(address owner, address spender) public view virtual returns (uint256) {... */\n    tag_69:\n        /* \"ADToken_flattened.sol\":14787:14794  uint256 */\n      0x00\n        /* \"ADToken_flattened.sol\":14813:14824  _allowances */\n      0x01\n        /* \"ADToken_flattened.sol\":14813:14831  _allowances[owner] */\n      0x00\n        /* \"ADToken_flattened.sol\":14825:14830  owner */\n      dup5\n        /* \"ADToken_flattened.sol\":14813:14831  _allowances[owner] */\n      0xffffffffffffffffffffffffffffffffffffffff\n      and\n      0xffffffffffffffffffffffffffffffffffffffff\n      and\n      dup2\n      mstore\n      0x20\n      add\n      swap1\n      dup2\n      mstore\n      0x20\n      add\n      0x00\n      keccak256\n        /* \"ADToken_flattened.sol\":14813:14840  _allowances[owner][spender] */\n      0x00\n        /* \"ADToken_flattened.sol\":14832:14839  spender */\n      dup4\n        /* \"ADToken_flattened.sol\":14813:14840  _allowances[owner][spender] */\n      0xffffffffffffffffffffffffffffffffffffffff\n      and\n      0xffffffffffffffffffffffffffffffffffffffff\n      and\n      dup2\n      mstore\n      0x20\n      add\n      swap1\n      dup2\n      mstore\n      0x20\n      add\n      0x00\n      keccak256\n      sload\n        /* \"ADToken_flattened.sol\":14806:14840  return _allowances[owner][spender] */\n      swap1\n      pop\n        /* \"ADToken_flattened.sol\":14707:14847  function allowance(address owner, address spender) public view virtual returns (uint256) {... */\n      swap3\n      swap2\n      pop\n      pop\n      jump\t// out\n        /* \"ADToken_flattened.sol\":4175:4271  function _msgSender() internal view virtual returns (address) {... */\n    tag_80:\n        /* \"ADToken_flattened.sol\":4228:4235  address */\n      0x00\n        /* \"ADToken_flattened.sol\":4254:4264  msg.sender */\n      caller\n        /* \"ADToken_flattened.sol\":4247:4264  return msg.sender */\n      swap1\n      pop\n        /* \"ADToken_flattened.sol\":4175:4271  function _msgSender() internal view virtual returns (address) {... */\n      swap1\n      jump\t// out\n        /* \"ADToken_flattened.sol\":19850:19978  function _approve(address owner, address spender, uint256 value) internal {... */\n    tag_82:\n        /* \"ADToken_flattened.sol\":19934:19971  _approve(owner, spender, value, true) */\n      tag_129\n        /* \"ADToken_flattened.sol\":19943:19948  owner */\n      dup4\n        /* \"ADToken_flattened.sol\":19950:19957  spender */\n      dup4\n        /* \"ADToken_flattened.sol\":19959:19964  value */\n      dup4\n        /* \"ADToken_flattened.sol\":19966:19970  true */\n      0x01\n        /* \"ADToken_flattened.sol\":19934:19942  _approve */\n      tag_130\n        /* \"ADToken_flattened.sol\":19934:19971  _approve(owner, spender, value, true) */\n      jump\t// in\n    tag_129:\n        /* \"ADToken_flattened.sol\":19850:19978  function _approve(address owner, address spender, uint256 value) internal {... */\n      pop\n      pop\n      pop\n      jump\t// out\n        /* \"ADToken_flattened.sol\":21524:22001  function _spendAllowance(address owner, address spender, uint256 value) internal virtual {... */\n    tag_87:\n        /* \"ADToken_flattened.sol\":21623:21647  uint256 currentAllowance */\n      0x00\n        /* \"ADToken_flattened.sol\":21650:21675  allowance(owner, spender) */\n      tag_132\n        /* \"ADToken_flattened.sol\":21660:21665  owner */\n      dup5\n        /* \"ADToken_flattened.sol\":21667:21674  spender */\n      dup5\n        /* \"ADToken_flattened.sol\":21650:21659  allowance */\n      tag_69\n        /* \"ADToken_flattened.sol\":21650:21675  allowance(owner, spender) */\n      jump\t// in\n    tag_132:\n        /* \"ADToken_flattened.sol\":21623:21675  uint256 currentAllowance = allowance(owner, spender) */\n      swap1\n      pop\n        /* \"ADToken_flattened.sol\":21709:21726  type(uint256).max */\n      0xffffffffffffffffffffffffffffffffffffffffffffffffffffffffffffffff\n        /* \"ADToken_flattened.sol\":21689:21705  currentAllowance */\n      dup2\n        /* \"ADToken_flattened.sol\":21689:21726  currentAllowance != type(uint256).max */\n      eq\n        /* \"ADToken_flattened.sol\":21685:21995  if (currentAllowance != type(uint256).max) {... */\n      tag_133\n      jumpi\n        /* \"ADToken_flattened.sol\":21765:21770  value */\n      dup2\n        /* \"ADToken_flattened.sol\":21746:21762  currentAllowance */\n      dup2\n        /* \"ADToken_flattened.sol\":21746:21770  currentAllowance < value */\n      lt\n        /* \"ADToken_flattened.sol\":21742:21872  if (currentAllowance < value) {... */\n      iszero\n      tag_134\n      jumpi\n        /* \"ADToken_flattened.sol\":21824:21831  spender */\n      dup3\n        /* \"ADToken_flattened.sol\":21833:21849  currentAllowance */\n      dup2\n        /* \"ADToken_flattened.sol\":21851:21856  value */\n      dup4\n        /* \"ADToken_flattened.sol\":21797:21857  ERC20InsufficientAllowance(spender, currentAllowance, value) */\n      mload(0x40)\n      0xfb8f41b200000000000000000000000000000000000000000000000000000000\n      dup2\n      mstore\n      0x04\n      add\n      tag_135\n      swap4\n      swap3\n      swap2\n      swap1\n      tag_136\n      jump\t// in\n    tag_135:\n      mload(0x40)\n      dup1\n      swap2\n      sub\n      swap1\n      revert\n        /* \"ADToken_flattened.sol\":21742:21872  if (currentAllowance < value) {... */\n    tag_134:\n        /* \"ADToken_flattened.sol\":21913:21970  _approve(owner, spender, currentAllowance - value, false) */\n      tag_137\n        /* \"ADToken_flattened.sol\":21922:21927  owner */\n      dup5\n        /* \"ADToken_flattened.sol\":21929:21936  spender */\n      dup5\n        /* \"ADToken_flattened.sol\":21957:21962  value */\n      dup5\n        /* \"ADToken_flattened.sol\":21938:21954  currentAllowance */\n      dup5\n        /* \"ADToken_flattened.sol\":21938:21962  currentAllowance - value */\n      sub\n        /* \"ADToken_flattened.sol\":21964:21969  false */\n      0x00\n        /* \"ADToken_flattened.sol\":21913:21921  _approve */\n      tag_130\n        /* \"ADToken_flattened.sol\":21913:21970  _approve(owner, spender, currentAllowance - value, false) */\n      jump\t// in\n    tag_137:\n        /* \"ADToken_flattened.sol\":21685:21995  if (currentAllowance != type(uint256).max) {... */\n    tag_133:\n        /* \"ADToken_flattened.sol\":21613:22001  {... */\n      pop\n        /* \"ADToken_flattened.sol\":21524:22001  function _spendAllowance(address owner, address spender, uint256 value) internal virtual {... */\n      pop\n      pop\n      pop\n      jump\t// out\n        /* \"ADToken_flattened.sol\":16517:16817  function _transfer(address from, address to, uint256 value) internal {... */\n    tag_89:\n        /* \"ADToken_flattened.sol\":16616:16617  0 */\n      0x00\n        /* \"ADToken_flattened.sol\":16600:16618  from == address(0) */\n      0xffffffffffffffffffffffffffffffffffffffff\n      and\n        /* \"ADToken_flattened.sol\":16600:16604  from */\n      dup4\n        /* \"ADToken_flattened.sol\":16600:16618  from == address(0) */\n      0xffffffffffffffffffffffffffffffffffffffff\n      and\n      sub\n        /* \"ADToken_flattened.sol\":16596:16682  if (from == address(0)) {... */\n      tag_139\n      jumpi\n        /* \"ADToken_flattened.sol\":16668:16669  0 */\n      0x00\n        /* \"ADToken_flattened.sol\":16641:16671  ERC20InvalidSender(address(0)) */\n      mload(0x40)\n      0x96c6fd1e00000000000000000000000000000000000000000000000000000000\n      dup2\n      mstore\n      0x04\n      add\n      tag_140\n      swap2\n      swap1\n      tag_141\n      jump\t// in\n    tag_140:\n      mload(0x40)\n      dup1\n      swap2\n      sub\n      swap1\n      revert\n        /* \"ADToken_flattened.sol\":16596:16682  if (from == address(0)) {... */\n    tag_139:\n        /* \"ADToken_flattened.sol\":16709:16710  0 */\n      0x00\n        /* \"ADToken_flattened.sol\":16695:16711  to == address(0) */\n      0xffffffffffffffffffffffffffffffffffffffff\n      and\n        /* \"ADToken_flattened.sol\":16695:16697  to */\n      dup3\n        /* \"ADToken_flattened.sol\":16695:16711  to == address(0) */\n      0xffffffffffffffffffffffffffffffffffffffff\n      and\n      sub\n        /* \"ADToken_flattened.sol\":16691:16777  if (to == address(0)) {... */\n      tag_142\n      jumpi\n        /* \"ADToken_flattened.sol\":16763:16764  0 */\n      0x00\n        /* \"ADToken_flattened.sol\":16734:16766  ERC20InvalidReceiver(address(0)) */\n      mload(0x40)\n      0xec442f0500000000000000000000000000000000000000000000000000000000\n      dup2\n      mstore\n      0x04\n      add\n      tag_143\n      swap2\n      swap1\n      tag_141\n      jump\t// in\n    tag_143:\n      mload(0x40)\n      dup1\n      swap2\n      sub\n      swap1\n      revert\n        /* \"ADToken_flattened.sol\":16691:16777  if (to == address(0)) {... */\n    tag_142:\n        /* \"ADToken_flattened.sol\":16786:16810  _update(from, to, value) */\n      tag_144\n        /* \"ADToken_flattened.sol\":16794:16798  from */\n      dup4\n        /* \"ADToken_flattened.sol\":16800:16802  to */\n      dup4\n        /* \"ADToken_flattened.sol\":16804:16809  value */\n      dup4\n        /* \"ADToken_flattened.sol\":16786:16793  _update */\n      tag_145\n        /* \"ADToken_flattened.sol\":16786:16810  _update(from, to, value) */\n      jump\t// in\n    tag_144:\n        /* \"ADToken_flattened.sol\":16517:16817  function _transfer(address from, address to, uint256 value) internal {... */\n      pop\n      pop\n      pop\n      jump\t// out\n        /* \"ADToken_flattened.sol\":19108:19314  function _burn(address account, uint256 value) internal {... */\n    tag_93:\n        /* \"ADToken_flattened.sol\":19197:19198  0 */\n      0x00\n        /* \"ADToken_flattened.sol\":19178:19199  account == address(0) */\n      0xffffffffffffffffffffffffffffffffffffffff\n      and\n        /* \"ADToken_flattened.sol\":19178:19185  account */\n      dup3\n        /* \"ADToken_flattened.sol\":19178:19199  account == address(0) */\n      0xffffffffffffffffffffffffffffffffffffffff\n      and\n      sub\n        /* \"ADToken_flattened.sol\":19174:19263  if (account == address(0)) {... */\n      tag_147\n      jumpi\n        /* \"ADToken_flattened.sol\":19249:19250  0 */\n      0x00\n        /* \"ADToken_flattened.sol\":19222:19252  ERC20InvalidSender(address(0)) */\n      mload(0x40)\n      0x96c6fd1e00000000000000000000000000000000000000000000000000000000\n      dup2\n      mstore\n      0x04\n      add\n      tag_148\n      swap2\n      swap1\n      tag_141\n      jump\t// in\n    tag_148:\n      mload(0x40)\n      dup1\n      swap2\n      sub\n      swap1\n      revert\n        /* \"ADToken_flattened.sol\":19174:19263  if (account == address(0)) {... */\n    tag_147:\n        /* \"ADToken_flattened.sol\":19272:19307  _update(account, address(0), value) */\n      tag_149\n        /* \"ADToken_flattened.sol\":19280:19287  account */\n      dup3\n        /* \"ADToken_flattened.sol\":19297:19298  0 */\n      0x00\n        /* \"ADToken_flattened.sol\":19301:19306  value */\n      dup4\n        /* \"ADToken_flattened.sol\":19272:19279  _update */\n      tag_145\n        /* \"ADToken_flattened.sol\":19272:19307  _update(account, address(0), value) */\n      jump\t// in\n    tag_149:\n        /* \"ADToken_flattened.sol\":19108:19314  function _burn(address account, uint256 value) internal {... */\n      pop\n      pop\n      jump\t// out\n        /* \"ADToken_flattened.sol\":39012:39710  function toString(uint256 value) internal pure returns (string memory) {... */\n    tag_116:\n        /* \"ADToken_flattened.sol\":39068:39081  string memory */\n      0x60\n        /* \"ADToken_flattened.sol\":39117:39131  uint256 length */\n      0x00\n        /* \"ADToken_flattened.sol\":39154:39155  1 */\n      0x01\n        /* \"ADToken_flattened.sol\":39134:39151  Math.log10(value) */\n      tag_151\n        /* \"ADToken_flattened.sol\":39145:39150  value */\n      dup5\n        /* \"ADToken_flattened.sol\":39134:39144  Math.log10 */\n      tag_152\n        /* \"ADToken_flattened.sol\":39134:39151  Math.log10(value) */\n      jump\t// in\n    tag_151:\n        /* \"ADToken_flattened.sol\":39134:39155  Math.log10(value) + 1 */\n      add\n        /* \"ADToken_flattened.sol\":39117:39155  uint256 length = Math.log10(value) + 1 */\n      swap1\n      pop\n        /* \"ADToken_flattened.sol\":39169:39189  string memory buffer */\n      0x00\n        /* \"ADToken_flattened.sol\":39203:39209  length */\n      dup2\n        /* \"ADToken_flattened.sol\":39192:39210  new string(length) */\n      0xffffffffffffffff\n      dup2\n      gt\n      iszero\n      tag_153\n      jumpi\n      tag_154\n      tag_155\n      jump\t// in\n    tag_154:\n    tag_153:\n      mload(0x40)\n      swap1\n      dup1\n      dup3\n      mstore\n      dup1\n      0x1f\n      add\n      not(0x1f)\n      and\n      0x20\n      add\n      dup3\n      add\n      0x40\n      mstore\n      dup1\n      iszero\n      tag_156\n      jumpi\n      dup2\n      0x20\n      add\n      0x01\n      dup3\n      mul\n      dup1\n      calldatasize\n      dup4\n      calldatacopy\n      dup1\n      dup3\n      add\n      swap2\n      pop\n      pop\n      swap1\n      pop\n    tag_156:\n      pop\n        /* \"ADToken_flattened.sol\":39169:39210  string memory buffer = new string(length) */\n      swap1\n      pop\n        /* \"ADToken_flattened.sol\":39224:39235  uint256 ptr */\n      0x00\n        /* \"ADToken_flattened.sol\":39350:39356  length */\n      dup3\n        /* \"ADToken_flattened.sol\":39346:39348  32 */\n      0x20\n        /* \"ADToken_flattened.sol\":39342:39357  add(32, length) */\n      add\n        /* \"ADToken_flattened.sol\":39334:39340  buffer */\n      dup3\n        /* \"ADToken_flattened.sol\":39330:39358  add(buffer, add(32, length)) */\n      add\n        /* \"ADToken_flattened.sol\":39323:39358  ptr := add(buffer, add(32, length)) */\n      swap1\n      pop\n        /* \"ADToken_flattened.sol\":39385:39667  while (true) {... */\n    tag_157:\n        /* \"ADToken_flattened.sol\":39392:39396  true */\n      0x01\n        /* \"ADToken_flattened.sol\":39385:39667  while (true) {... */\n      iszero\n      tag_158\n      jumpi\n        /* \"ADToken_flattened.sol\":39416:39421  ptr-- */\n      dup1\n      dup1\n      0x01\n      swap1\n      sub\n      swap2\n      pop\n      pop\n        /* \"ADToken_flattened.sol\":39555:39565  HEX_DIGITS */\n      0x3031323334353637383961626364656600000000000000000000000000000000\n        /* \"ADToken_flattened.sol\":39550:39552  10 */\n      0x0a\n        /* \"ADToken_flattened.sol\":39543:39548  value */\n      dup7\n        /* \"ADToken_flattened.sol\":39539:39553  mod(value, 10) */\n      mod\n        /* \"ADToken_flattened.sol\":39534:39566  byte(mod(value, 10), HEX_DIGITS) */\n      byte\n        /* \"ADToken_flattened.sol\":39529:39532  ptr */\n      dup2\n        /* \"ADToken_flattened.sol\":39521:39567  mstore8(ptr, byte(mod(value, 10), HEX_DIGITS)) */\n      mstore8\n        /* \"ADToken_flattened.sol\":39611:39613  10 */\n      0x0a\n        /* \"ADToken_flattened.sol\":39602:39613  value /= 10 */\n      dup6\n      dup2\n      tag_159\n      jumpi\n      tag_160\n      tag_161\n      jump\t// in\n    tag_160:\n    tag_159:\n      div\n      swap5\n      pop\n        /* \"ADToken_flattened.sol\":39644:39645  0 */\n      0x00\n        /* \"ADToken_flattened.sol\":39635:39640  value */\n      dup6\n        /* \"ADToken_flattened.sol\":39635:39645  value == 0 */\n      sub\n        /* \"ADToken_flattened.sol\":39385:39667  while (true) {... */\n      tag_157\n        /* \"ADToken_flattened.sol\":39631:39652  if (value == 0) break */\n      jumpi\n        /* \"ADToken_flattened.sol\":39385:39667  while (true) {... */\n    tag_158:\n        /* \"ADToken_flattened.sol\":39687:39693  buffer */\n      dup2\n        /* \"ADToken_flattened.sol\":39680:39693  return buffer */\n      swap4\n      pop\n      pop\n      pop\n      pop\n        /* \"ADToken_flattened.sol\":39012:39710  function toString(uint256 value) internal pure returns (string memory) {... */\n      swap2\n      swap1\n      pop\n      jump\t// out\n        /* \"ADToken_flattened.sol\":18582:18790  function _mint(address account, uint256 value) internal {... */\n    tag_122:\n        /* \"ADToken_flattened.sol\":18671:18672  0 */\n      0x00\n        /* \"ADToken_flattened.sol\":18652:18673  account == address(0) */\n      0xffffffffffffffffffffffffffffffffffffffff\n      and\n        /* \"ADToken_flattened.sol\":18652:18659  account */\n      dup3\n        /* \"ADToken_flattened.sol\":18652:18673  account == address(0) */\n      0xffffffffffffffffffffffffffffffffffffffff\n      and\n      sub\n        /* \"ADToken_flattened.sol\":18648:18739  if (account == address(0)) {... */\n      tag_164\n      jumpi\n        /* \"ADToken_flattened.sol\":18725:18726  0 */\n      0x00\n        /* \"ADToken_flattened.sol\":18696:18728  ERC20InvalidReceiver(address(0)) */\n      mload(0x40)\n      0xec442f0500000000000000000000000000000000000000000000000000000000\n      dup2\n      mstore\n      0x04\n      add\n      tag_165\n      swap2\n      swap1\n      tag_141\n      jump\t// in\n    tag_165:\n      mload(0x40)\n      dup1\n      swap2\n      sub\n      swap1\n      revert\n        /* \"ADToken_flattened.sol\":18648:18739  if (account == address(0)) {... */\n    tag_164:\n        /* \"ADToken_flattened.sol\":18748:18783  _update(address(0), account, value) */\n      tag_166\n        /* \"ADToken_flattened.sol\":18764:18765  0 */\n      0x00\n        /* \"ADToken_flattened.sol\":18768:18775  account */\n      dup4\n        /* \"ADToken_flattened.sol\":18777:18782  value */\n      dup4\n        /* \"ADToken_flattened.sol\":18748:18755  _update */\n      tag_145\n        /* \"ADToken_flattened.sol\":18748:18783  _update(address(0), account, value) */\n      jump\t// in\n    tag_166:\n        /* \"ADToken_flattened.sol\":18582:18790  function _mint(address account, uint256 value) internal {... */\n      pop\n      pop\n      jump\t// out\n        /* \"ADToken_flattened.sol\":20810:21242  function _approve(address owner, address spender, uint256 value, bool emitEvent) internal virtual {... */\n    tag_130:\n        /* \"ADToken_flattened.sol\":20939:20940  0 */\n      0x00\n        /* \"ADToken_flattened.sol\":20922:20941  owner == address(0) */\n      0xffffffffffffffffffffffffffffffffffffffff\n      and\n        /* \"ADToken_flattened.sol\":20922:20927  owner */\n      dup5\n        /* \"ADToken_flattened.sol\":20922:20941  owner == address(0) */\n      0xffffffffffffffffffffffffffffffffffffffff\n      and\n      sub\n        /* \"ADToken_flattened.sol\":20918:21007  if (owner == address(0)) {... */\n      tag_168\n      jumpi\n        /* \"ADToken_flattened.sol\":20993:20994  0 */\n      0x00\n        /* \"ADToken_flattened.sol\":20964:20996  ERC20InvalidApprover(address(0)) */\n      mload(0x40)\n      0xe602df0500000000000000000000000000000000000000000000000000000000\n      dup2\n      mstore\n      0x04\n      add\n      tag_169\n      swap2\n      swap1\n      tag_141\n      jump\t// in\n    tag_169:\n      mload(0x40)\n      dup1\n      swap2\n      sub\n      swap1\n      revert\n        /* \"ADToken_flattened.sol\":20918:21007  if (owner == address(0)) {... */\n    tag_168:\n        /* \"ADToken_flattened.sol\":21039:21040  0 */\n      0x00\n        /* \"ADToken_flattened.sol\":21020:21041  spender == address(0) */\n      0xffffffffffffffffffffffffffffffffffffffff\n      and\n        /* \"ADToken_flattened.sol\":21020:21027  spender */\n      dup4\n        /* \"ADToken_flattened.sol\":21020:21041  spender == address(0) */\n      0xffffffffffffffffffffffffffffffffffffffff\n      and\n      sub\n        /* \"ADToken_flattened.sol\":21016:21106  if (spender == address(0)) {... */\n      tag_170\n      jumpi\n        /* \"ADToken_flattened.sol\":21092:21093  0 */\n      0x00\n        /* \"ADToken_flattened.sol\":21064:21095  ERC20InvalidSpender(address(0)) */\n      mload(0x40)\n      0x94280d6200000000000000000000000000000000000000000000000000000000\n      dup2\n      mstore\n      0x04\n      add\n      tag_171\n      swap2\n      swap1\n      tag_141\n      jump\t// in\n    tag_171:\n      mload(0x40)\n      dup1\n      swap2\n      sub\n      swap1\n      revert\n        /* \"ADToken_flattened.sol\":21016:21106  if (spender == address(0)) {... */\n    tag_170:\n        /* \"ADToken_flattened.sol\":21145:21150  value */\n      dup2\n        /* \"ADToken_flattened.sol\":21115:21126  _allowances */\n      0x01\n        /* \"ADToken_flattened.sol\":21115:21133  _allowances[owner] */\n      0x00\n        /* \"ADToken_flattened.sol\":21127:21132  owner */\n      dup7\n        /* \"ADToken_flattened.sol\":21115:21133  _allowances[owner] */\n      0xffffffffffffffffffffffffffffffffffffffff\n      and\n      0xffffffffffffffffffffffffffffffffffffffff\n      and\n      dup2\n      mstore\n      0x20\n      add\n      swap1\n      dup2\n      mstore\n      0x20\n      add\n      0x00\n      keccak256\n        /* \"ADToken_flattened.sol\":21115:21142  _allowances[owner][spender] */\n      0x00\n        /* \"ADToken_flattened.sol\":21134:21141  spender */\n      dup6\n        /* \"ADToken_flattened.sol\":21115:21142  _allowances[owner][spender] */\n      0xffffffffffffffffffffffffffffffffffffffff\n      and\n      0xffffffffffffffffffffffffffffffffffffffff\n      and\n      dup2\n      mstore\n      0x20\n      add\n      swap1\n      dup2\n      mstore\n      0x20\n      add\n      0x00\n      keccak256\n        /* \"ADToken_flattened.sol\":21115:21150  _allowances[owner][spender] = value */\n      dup2\n      swap1\n      sstore\n      pop\n        /* \"ADToken_flattened.sol\":21164:21173  emitEvent */\n      dup1\n        /* \"ADToken_flattened.sol\":21160:21236  if (emitEvent) {... */\n      iszero\n      tag_172\n      jumpi\n        /* \"ADToken_flattened.sol\":21210:21217  spender */\n      dup3\n        /* \"ADToken_flattened.sol\":21194:21225  Approval(owner, spender, value) */\n      0xffffffffffffffffffffffffffffffffffffffff\n      and\n        /* \"ADToken_flattened.sol\":21203:21208  owner */\n      dup5\n        /* \"ADToken_flattened.sol\":21194:21225  Approval(owner, spender, value) */\n      0xffffffffffffffffffffffffffffffffffffffff\n      and\n      0x8c5be1e5ebec7d5bd14f71427d1e84f3dd0314c0f7b2291e5b200ac8c7c3b925\n        /* \"ADToken_flattened.sol\":21219:21224  value */\n      dup5\n        /* \"ADToken_flattened.sol\":21194:21225  Approval(owner, spender, value) */\n      mload(0x40)\n      tag_173\n      swap2\n      swap1\n      tag_30\n      jump\t// in\n    tag_173:\n      mload(0x40)\n      dup1\n      swap2\n      sub\n      swap1\n      log3\n        /* \"ADToken_flattened.sol\":21160:21236  if (emitEvent) {... */\n    tag_172:\n        /* \"ADToken_flattened.sol\":20810:21242  function _approve(address owner, address spender, uint256 value, bool emitEvent) internal virtual {... */\n      pop\n      pop\n      pop\n      pop\n      jump\t// out\n        /* \"ADToken_flattened.sol\":17132:18239  function _update(address from, address to, uint256 value) internal virtual {... */\n    tag_145:\n        /* \"ADToken_flattened.sol\":17237:17238  0 */\n      0x00\n        /* \"ADToken_flattened.sol\":17221:17239  from == address(0) */\n      0xffffffffffffffffffffffffffffffffffffffff\n      and\n        /* \"ADToken_flattened.sol\":17221:17225  from */\n      dup4\n        /* \"ADToken_flattened.sol\":17221:17239  from == address(0) */\n      0xffffffffffffffffffffffffffffffffffffffff\n      and\n      sub\n        /* \"ADToken_flattened.sol\":17217:17757  if (from == address(0)) {... */\n      tag_175\n      jumpi\n        /* \"ADToken_flattened.sol\":17373:17378  value */\n      dup1\n        /* \"ADToken_flattened.sol\":17357:17369  _totalSupply */\n      0x02\n      0x00\n        /* \"ADToken_flattened.sol\":17357:17378  _totalSupply += value */\n      dup3\n      dup3\n      sload\n      tag_176\n      swap2\n      swap1\n      tag_124\n      jump\t// in\n    tag_176:\n      swap3\n      pop\n      pop\n      dup2\n      swap1\n      sstore\n      pop\n        /* \"ADToken_flattened.sol\":17217:17757  if (from == address(0)) {... */\n      jump(tag_177)\n    tag_175:\n        /* \"ADToken_flattened.sol\":17409:17428  uint256 fromBalance */\n      0x00\n        /* \"ADToken_flattened.sol\":17431:17440  _balances */\n      dup1\n        /* \"ADToken_flattened.sol\":17431:17446  _balances[from] */\n      0x00\n        /* \"ADToken_flattened.sol\":17441:17445  from */\n      dup6\n        /* \"ADToken_flattened.sol\":17431:17446  _balances[from] */\n      0xffffffffffffffffffffffffffffffffffffffff\n      and\n      0xffffffffffffffffffffffffffffffffffffffff\n      and\n      dup2\n      mstore\n      0x20\n      add\n      swap1\n      dup2\n      mstore\n      0x20\n      add\n      0x00\n      keccak256\n      sload\n        /* \"ADToken_flattened.sol\":17409:17446  uint256 fromBalance = _balances[from] */\n      swap1\n      pop\n        /* \"ADToken_flattened.sol\":17478:17483  value */\n      dup2\n        /* \"ADToken_flattened.sol\":17464:17475  fromBalance */\n      dup2\n        /* \"ADToken_flattened.sol\":17464:17483  fromBalance < value */\n      lt\n        /* \"ADToken_flattened.sol\":17460:17575  if (fromBalance < value) {... */\n      iszero\n      tag_178\n      jumpi\n        /* \"ADToken_flattened.sol\":17535:17539  from */\n      dup4\n        /* \"ADToken_flattened.sol\":17541:17552  fromBalance */\n      dup2\n        /* \"ADToken_flattened.sol\":17554:17559  value */\n      dup4\n        /* \"ADToken_flattened.sol\":17510:17560  ERC20InsufficientBalance(from, fromBalance, value) */\n      mload(0x40)\n      0xe450d38c00000000000000000000000000000000000000000000000000000000\n      dup2\n      mstore\n      0x04\n      add\n      tag_179\n      swap4\n      swap3\n      swap2\n      swap1\n      tag_136\n      jump\t// in\n    tag_179:\n      mload(0x40)\n      dup1\n      swap2\n      sub\n      swap1\n      revert\n        /* \"ADToken_flattened.sol\":17460:17575  if (fromBalance < value) {... */\n    tag_178:\n        /* \"ADToken_flattened.sol\":17727:17732  value */\n      dup2\n        /* \"ADToken_flattened.sol\":17713:17724  fromBalance */\n      dup2\n        /* \"ADToken_flattened.sol\":17713:17732  fromBalance - value */\n      sub\n        /* \"ADToken_flattened.sol\":17695:17704  _balances */\n      0x00\n        /* \"ADToken_flattened.sol\":17695:17710  _balances[from] */\n      dup1\n        /* \"ADToken_flattened.sol\":17705:17709  from */\n      dup7\n        /* \"ADToken_flattened.sol\":17695:17710  _balances[from] */\n      0xffffffffffffffffffffffffffffffffffffffff\n      and\n      0xffffffffffffffffffffffffffffffffffffffff\n      and\n      dup2\n      mstore\n      0x20\n      add\n      swap1\n      dup2\n      mstore\n      0x20\n      add\n      0x00\n      keccak256\n        /* \"ADToken_flattened.sol\":17695:17732  _balances[from] = fromBalance - value */\n      dup2\n      swap1\n      sstore\n      pop\n        /* \"ADToken_flattened.sol\":17395:17757  {... */\n      pop\n        /* \"ADToken_flattened.sol\":17217:17757  if (from == address(0)) {... */\n    tag_177:\n        /* \"ADToken_flattened.sol\":17785:17786  0 */\n      0x00\n        /* \"ADToken_flattened.sol\":17771:17787  to == address(0) */\n      0xffffffffffffffffffffffffffffffffffffffff\n      and\n        /* \"ADToken_flattened.sol\":17771:17773  to */\n      dup3\n        /* \"ADToken_flattened.sol\":17771:17787  to == address(0) */\n      0xffffffffffffffffffffffffffffffffffffffff\n      and\n      sub\n        /* \"ADToken_flattened.sol\":17767:18192  if (to == address(0)) {... */\n      tag_180\n      jumpi\n        /* \"ADToken_flattened.sol\":17950:17955  value */\n      dup1\n        /* \"ADToken_flattened.sol\":17934:17946  _totalSupply */\n      0x02\n      0x00\n        /* \"ADToken_flattened.sol\":17934:17955  _totalSupply -= value */\n      dup3\n      dup3\n      sload\n      sub\n      swap3\n      pop\n      pop\n      dup2\n      swap1\n      sstore\n      pop\n        /* \"ADToken_flattened.sol\":17767:18192  if (to == address(0)) {... */\n      jump(tag_181)\n    tag_180:\n        /* \"ADToken_flattened.sol\":18162:18167  value */\n      dup1\n        /* \"ADToken_flattened.sol\":18145:18154  _balances */\n      0x00\n        /* \"ADToken_flattened.sol\":18145:18158  _balances[to] */\n      dup1\n        /* \"ADToken_flattened.sol\":18155:18157  to */\n      dup5\n        /* \"ADToken_flattened.sol\":18145:18158  _balances[to] */\n      0xffffffffffffffffffffffffffffffffffffffff\n      and\n      0xffffffffffffffffffffffffffffffffffffffff\n      and\n      dup2\n      mstore\n      0x20\n      add\n      swap1\n      dup2\n      mstore\n      0x20\n      add\n      0x00\n      keccak256\n      0x00\n        /* \"ADToken_flattened.sol\":18145:18167  _balances[to] += value */\n      dup3\n      dup3\n      sload\n      add\n      swap3\n      pop\n      pop\n      dup2\n      swap1\n      sstore\n      pop\n        /* \"ADToken_flattened.sol\":17767:18192  if (to == address(0)) {... */\n    tag_181:\n        /* \"ADToken_flattened.sol\":18222:18224  to */\n      dup2\n        /* \"ADToken_flattened.sol\":18207:18232  Transfer(from, to, value) */\n      0xffffffffffffffffffffffffffffffffffffffff\n      and\n        /* \"ADToken_flattened.sol\":18216:18220  from */\n      dup4\n        /* \"ADToken_flattened.sol\":18207:18232  Transfer(from, to, value) */\n      0xffffffffffffffffffffffffffffffffffffffff\n      and\n      0xddf252ad1be2c89b69c2b068fc378daa952ba7f163c4a11628f55a4df523b3ef\n        /* \"ADToken_flattened.sol\":18226:18231  value */\n      dup4\n        /* \"ADToken_flattened.sol\":18207:18232  Transfer(from, to, value) */\n      mload(0x40)\n      tag_182\n      swap2\n      swap1\n      tag_30\n      jump\t// in\n    tag_182:\n      mload(0x40)\n      dup1\n      swap2\n      sub\n      swap1\n      log3\n        /* \"ADToken_flattened.sol\":17132:18239  function _update(address from, address to, uint256 value) internal virtual {... */\n      pop\n      pop\n      pop\n      jump\t// out\n        /* \"ADToken_flattened.sol\":34242:35158  function log10(uint256 value) internal pure returns (uint256) {... */\n    tag_152:\n        /* \"ADToken_flattened.sol\":34295:34302  uint256 */\n      0x00\n        /* \"ADToken_flattened.sol\":34314:34328  uint256 result */\n      dup1\n        /* \"ADToken_flattened.sol\":34331:34332  0 */\n      0x00\n        /* \"ADToken_flattened.sol\":34314:34332  uint256 result = 0 */\n      swap1\n      pop\n        /* \"ADToken_flattened.sol\":34379:34387  10 ** 64 */\n      0x184f03e93ff9f4daa797ed6e38ed64bf6a1f010000000000000000\n        /* \"ADToken_flattened.sol\":34370:34375  value */\n      dup4\n        /* \"ADToken_flattened.sol\":34370:34387  value >= 10 ** 64 */\n      lt\n        /* \"ADToken_flattened.sol\":34366:34469  if (value >= 10 ** 64) {... */\n      tag_184\n      jumpi\n        /* \"ADToken_flattened.sol\":34416:34424  10 ** 64 */\n      0x184f03e93ff9f4daa797ed6e38ed64bf6a1f010000000000000000\n        /* \"ADToken_flattened.sol\":34407:34424  value /= 10 ** 64 */\n      dup4\n      dup2\n      tag_185\n      jumpi\n      tag_186\n      tag_161\n      jump\t// in\n    tag_186:\n    tag_185:\n      div\n      swap3\n      pop\n        /* \"ADToken_flattened.sol\":34452:34454  64 */\n      0x40\n        /* \"ADToken_flattened.sol\":34442:34454  result += 64 */\n      dup2\n      add\n      swap1\n      pop\n        /* \"ADToken_flattened.sol\":34366:34469  if (value >= 10 ** 64) {... */\n    tag_184:\n        /* \"ADToken_flattened.sol\":34495:34503  10 ** 32 */\n      0x04ee2d6d415b85acef8100000000\n        /* \"ADToken_flattened.sol\":34486:34491  value */\n      dup4\n        /* \"ADToken_flattened.sol\":34486:34503  value >= 10 ** 32 */\n      lt\n        /* \"ADToken_flattened.sol\":34482:34585  if (value >= 10 ** 32) {... */\n      tag_187\n      jumpi\n        /* \"ADToken_flattened.sol\":34532:34540  10 ** 32 */\n      0x04ee2d6d415b85acef8100000000\n        /* \"ADToken_flattened.sol\":34523:34540  value /= 10 ** 32 */\n      dup4\n      dup2\n      tag_188\n      jumpi\n      tag_189\n      tag_161\n      jump\t// in\n    tag_189:\n    tag_188:\n      div\n      swap3\n      pop\n        /* \"ADToken_flattened.sol\":34568:34570  32 */\n      0x20\n        /* \"ADToken_flattened.sol\":34558:34570  result += 32 */\n      dup2\n      add\n      swap1\n      pop\n        /* \"ADToken_flattened.sol\":34482:34585  if (value >= 10 ** 32) {... */\n    tag_187:\n        /* \"ADToken_flattened.sol\":34611:34619  10 ** 16 */\n      0x2386f26fc10000\n        /* \"ADToken_flattened.sol\":34602:34607  value */\n      dup4\n        /* \"ADToken_flattened.sol\":34602:34619  value >= 10 ** 16 */\n      lt\n        /* \"ADToken_flattened.sol\":34598:34701  if (value >= 10 ** 16) {... */\n      tag_190\n      jumpi\n        /* \"ADToken_flattened.sol\":34648:34656  10 ** 16 */\n      0x2386f26fc10000\n        /* \"ADToken_flattened.sol\":34639:34656  value /= 10 ** 16 */\n      dup4\n      dup2\n      tag_191\n      jumpi\n      tag_192\n      tag_161\n      jump\t// in\n    tag_192:\n    tag_191:\n      div\n      swap3\n      pop\n        /* \"ADToken_flattened.sol\":34684:34686  16 */\n      0x10\n        /* \"ADToken_flattened.sol\":34674:34686  result += 16 */\n      dup2\n      add\n      swap1\n      pop\n        /* \"ADToken_flattened.sol\":34598:34701  if (value >= 10 ** 16) {... */\n    tag_190:\n        /* \"ADToken_flattened.sol\":34727:34734  10 ** 8 */\n      0x05f5e100\n        /* \"ADToken_flattened.sol\":34718:34723  value */\n      dup4\n        /* \"ADToken_flattened.sol\":34718:34734  value >= 10 ** 8 */\n      lt\n        /* \"ADToken_flattened.sol\":34714:34814  if (value >= 10 ** 8) {... */\n      tag_193\n      jumpi\n        /* \"ADToken_flattened.sol\":34763:34770  10 ** 8 */\n      0x05f5e100\n        /* \"ADToken_flattened.sol\":34754:34770  value /= 10 ** 8 */\n      dup4\n      dup2\n      tag_194\n      jumpi\n      tag_195\n      tag_161\n      jump\t// in\n    tag_195:\n    tag_194:\n      div\n      swap3\n      pop\n        /* \"ADToken_flattened.sol\":34798:34799  8 */\n      0x08\n        /* \"ADToken_flattened.sol\":34788:34799  result += 8 */\n      dup2\n      add\n      swap1\n      pop\n        /* \"ADToken_flattened.sol\":34714:34814  if (value >= 10 ** 8) {... */\n    tag_193:\n        /* \"ADToken_flattened.sol\":34840:34847  10 ** 4 */\n      0x2710\n        /* \"ADToken_flattened.sol\":34831:34836  value */\n      dup4\n        /* \"ADToken_flattened.sol\":34831:34847  value >= 10 ** 4 */\n      lt\n        /* \"ADToken_flattened.sol\":34827:34927  if (value >= 10 ** 4) {... */\n      tag_196\n      jumpi\n        /* \"ADToken_flattened.sol\":34876:34883  10 ** 4 */\n      0x2710\n        /* \"ADToken_flattened.sol\":34867:34883  value /= 10 ** 4 */\n      dup4\n      dup2\n      tag_197\n      jumpi\n      tag_198\n      tag_161\n      jump\t// in\n    tag_198:\n    tag_197:\n      div\n      swap3\n      pop\n        /* \"ADToken_flattened.sol\":34911:34912  4 */\n      0x04\n        /* \"ADToken_flattened.sol\":34901:34912  result += 4 */\n      dup2\n      add\n      swap1\n      pop\n        /* \"ADToken_flattened.sol\":34827:34927  if (value >= 10 ** 4) {... */\n    tag_196:\n        /* \"ADToken_flattened.sol\":34953:34960  10 ** 2 */\n      0x64\n        /* \"ADToken_flattened.sol\":34944:34949  value */\n      dup4\n        /* \"ADToken_flattened.sol\":34944:34960  value >= 10 ** 2 */\n      lt\n        /* \"ADToken_flattened.sol\":34940:35040  if (value >= 10 ** 2) {... */\n      tag_199\n      jumpi\n        /* \"ADToken_flattened.sol\":34989:34996  10 ** 2 */\n      0x64\n        /* \"ADToken_flattened.sol\":34980:34996  value /= 10 ** 2 */\n      dup4\n      dup2\n      tag_200\n      jumpi\n      tag_201\n      tag_161\n      jump\t// in\n    tag_201:\n    tag_200:\n      div\n      swap3\n      pop\n        /* \"ADToken_flattened.sol\":35024:35025  2 */\n      0x02\n        /* \"ADToken_flattened.sol\":35014:35025  result += 2 */\n      dup2\n      add\n      swap1\n      pop\n        /* \"ADToken_flattened.sol\":34940:35040  if (value >= 10 ** 2) {... */\n    tag_199:\n        /* \"ADToken_flattened.sol\":35066:35073  10 ** 1 */\n      0x0a\n        /* \"ADToken_flattened.sol\":35057:35062  value */\n      dup4\n        /* \"ADToken_flattened.sol\":35057:35073  value >= 10 ** 1 */\n      lt\n        /* \"ADToken_flattened.sol\":35053:35119  if (value >= 10 ** 1) {... */\n      tag_202\n      jumpi\n        /* \"ADToken_flattened.sol\":35103:35104  1 */\n      0x01\n        /* \"ADToken_flattened.sol\":35093:35104  result += 1 */\n      dup2\n      add\n      swap1\n      pop\n        /* \"ADToken_flattened.sol\":35053:35119  if (value >= 10 ** 1) {... */\n    tag_202:\n        /* \"ADToken_flattened.sol\":35145:35151  result */\n      dup1\n        /* \"ADToken_flattened.sol\":35138:35151  return result */\n      swap2\n      pop\n      pop\n        /* \"ADToken_flattened.sol\":34242:35158  function log10(uint256 value) internal pure returns (uint256) {... */\n      swap2\n      swap1\n      pop\n      jump\t// out\n        /* \"#utility.yul\":7:106   */\n    tag_203:\n        /* \"#utility.yul\":59:65   */\n      0x00\n        /* \"#utility.yul\":93:98   */\n      dup2\n        /* \"#utility.yul\":87:99   */\n      mload\n        /* \"#utility.yul\":77:99   */\n      swap1\n      pop\n        /* \"#utility.yul\":7:106   */\n      swap2\n      swap1\n      pop\n      jump\t// out\n        /* \"#utility.yul\":112:281   */\n    tag_204:\n        /* \"#utility.yul\":196:207   */\n      0x00\n        /* \"#utility.yul\":230:236   */\n      dup3\n        /* \"#utility.yul\":225:228   */\n      dup3\n        /* \"#utility.yul\":218:237   */\n      mstore\n        /* \"#utility.yul\":270:274   */\n      0x20\n        /* \"#utility.yul\":265:268   */\n      dup3\n        /* \"#utility.yul\":261:275   */\n      add\n        /* \"#utility.yul\":246:275   */\n      swap1\n      pop\n        /* \"#utility.yul\":112:281   */\n      swap3\n      swap2\n      pop\n      pop\n      jump\t// out\n        /* \"#utility.yul\":287:426   */\n    tag_205:\n        /* \"#utility.yul\":376:382   */\n      dup3\n        /* \"#utility.yul\":371:374   */\n      dup2\n        /* \"#utility.yul\":366:369   */\n      dup4\n        /* \"#utility.yul\":360:383   */\n      mcopy\n        /* \"#utility.yul\":417:418   */\n      0x00\n        /* \"#utility.yul\":408:414   */\n      dup4\n        /* \"#utility.yul\":403:406   */\n      dup4\n        /* \"#utility.yul\":399:415   */\n      add\n        /* \"#utility.yul\":392:419   */\n      mstore\n        /* \"#utility.yul\":287:426   */\n      pop\n      pop\n      pop\n      jump\t// out\n        /* \"#utility.yul\":432:534   */\n    tag_206:\n        /* \"#utility.yul\":473:479   */\n      0x00\n        /* \"#utility.yul\":524:526   */\n      0x1f\n        /* \"#utility.yul\":520:527   */\n      not\n        /* \"#utility.yul\":515:517   */\n      0x1f\n        /* \"#utility.yul\":508:513   */\n      dup4\n        /* \"#utility.yul\":504:518   */\n      add\n        /* \"#utility.yul\":500:528   */\n      and\n        /* \"#utility.yul\":490:528   */\n      swap1\n      pop\n        /* \"#utility.yul\":432:534   */\n      swap2\n      swap1\n      pop\n      jump\t// out\n        /* \"#utility.yul\":540:917   */\n    tag_207:\n        /* \"#utility.yul\":628:631   */\n      0x00\n        /* \"#utility.yul\":656:695   */\n      tag_241\n        /* \"#utility.yul\":689:694   */\n      dup3\n        /* \"#utility.yul\":656:695   */\n      tag_203\n      jump\t// in\n    tag_241:\n        /* \"#utility.yul\":711:782   */\n      tag_242\n        /* \"#utility.yul\":775:781   */\n      dup2\n        /* \"#utility.yul\":770:773   */\n      dup6\n        /* \"#utility.yul\":711:782   */\n      tag_204\n      jump\t// in\n    tag_242:\n        /* \"#utility.yul\":704:782   */\n      swap4\n      pop\n        /* \"#utility.yul\":791:856   */\n      tag_243\n        /* \"#utility.yul\":849:855   */\n      dup2\n        /* \"#utility.yul\":844:847   */\n      dup6\n        /* \"#utility.yul\":837:841   */\n      0x20\n        /* \"#utility.yul\":830:835   */\n      dup7\n        /* \"#utility.yul\":826:842   */\n      add\n        /* \"#utility.yul\":791:856   */\n      tag_205\n      jump\t// in\n    tag_243:\n        /* \"#utility.yul\":881:910   */\n      tag_244\n        /* \"#utility.yul\":903:909   */\n      dup2\n        /* \"#utility.yul\":881:910   */\n      tag_206\n      jump\t// in\n    tag_244:\n        /* \"#utility.yul\":876:879   */\n      dup5\n        /* \"#utility.yul\":872:911   */\n      add\n        /* \"#utility.yul\":865:911   */\n      swap2\n      pop\n        /* \"#utility.yul\":632:917   */\n      pop\n        /* \"#utility.yul\":540:917   */\n      swap3\n      swap2\n      pop\n      pop\n      jump\t// out\n        /* \"#utility.yul\":923:1236   */\n    tag_18:\n        /* \"#utility.yul\":1036:1040   */\n      0x00\n        /* \"#utility.yul\":1074:1076   */\n      0x20\n        /* \"#utility.yul\":1063:1072   */\n      dup3\n        /* \"#utility.yul\":1059:1077   */\n      add\n        /* \"#utility.yul\":1051:1077   */\n      swap1\n      pop\n        /* \"#utility.yul\":1123:1132   */\n      dup2\n        /* \"#utility.yul\":1117:1121   */\n      dup2\n        /* \"#utility.yul\":1113:1133   */\n      sub\n        /* \"#utility.yul\":1109:1110   */\n      0x00\n        /* \"#utility.yul\":1098:1107   */\n      dup4\n        /* \"#utility.yul\":1094:1111   */\n      add\n        /* \"#utility.yul\":1087:1134   */\n      mstore\n        /* \"#utility.yul\":1151:1229   */\n      tag_246\n        /* \"#utility.yul\":1224:1228   */\n      dup2\n        /* \"#utility.yul\":1215:1221   */\n      dup5\n        /* \"#utility.yul\":1151:1229   */\n      tag_207\n      jump\t// in\n    tag_246:\n        /* \"#utility.yul\":1143:1229   */\n      swap1\n      pop\n        /* \"#utility.yul\":923:1236   */\n      swap3\n      swap2\n      pop\n      pop\n      jump\t// out\n        /* \"#utility.yul\":1323:1440   */\n    tag_209:\n        /* \"#utility.yul\":1432:1433   */\n      0x00\n        /* \"#utility.yul\":1429:1430   */\n      dup1\n        /* \"#utility.yul\":1422:1434   */\n      revert\n        /* \"#utility.yul\":1569:1695   */\n    tag_211:\n        /* \"#utility.yul\":1606:1613   */\n      0x00\n        /* \"#utility.yul\":1646:1688   */\n      0xffffffffffffffffffffffffffffffffffffffff\n        /* \"#utility.yul\":1639:1644   */\n      dup3\n        /* \"#utility.yul\":1635:1689   */\n      and\n        /* \"#utility.yul\":1624:1689   */\n      swap1\n      pop\n        /* \"#utility.yul\":1569:1695   */\n      swap2\n      swap1\n      pop\n      jump\t// out\n        /* \"#utility.yul\":1701:1797   */\n    tag_212:\n        /* \"#utility.yul\":1738:1745   */\n      0x00\n        /* \"#utility.yul\":1767:1791   */\n      tag_252\n        /* \"#utility.yul\":1785:1790   */\n      dup3\n        /* \"#utility.yul\":1767:1791   */\n      tag_211\n      jump\t// in\n    tag_252:\n        /* \"#utility.yul\":1756:1791   */\n      swap1\n      pop\n        /* \"#utility.yul\":1701:1797   */\n      swap2\n      swap1\n      pop\n      jump\t// out\n        /* \"#utility.yul\":1803:1925   */\n    tag_213:\n        /* \"#utility.yul\":1876:1900   */\n      tag_254\n        /* \"#utility.yul\":1894:1899   */\n      dup2\n        /* \"#utility.yul\":1876:1900   */\n      tag_212\n      jump\t// in\n    tag_254:\n        /* \"#utility.yul\":1869:1874   */\n      dup2\n        /* \"#utility.yul\":1866:1901   */\n      eq\n        /* \"#utility.yul\":1856:1919   */\n      tag_255\n      jumpi\n        /* \"#utility.yul\":1915:1916   */\n      0x00\n        /* \"#utility.yul\":1912:1913   */\n      dup1\n        /* \"#utility.yul\":1905:1917   */\n      revert\n        /* \"#utility.yul\":1856:1919   */\n    tag_255:\n        /* \"#utility.yul\":1803:1925   */\n      pop\n      jump\t// out\n        /* \"#utility.yul\":1931:2070   */\n    tag_214:\n        /* \"#utility.yul\":1977:1982   */\n      0x00\n        /* \"#utility.yul\":2015:2021   */\n      dup2\n        /* \"#utility.yul\":2002:2022   */\n      calldataload\n        /* \"#utility.yul\":1993:2022   */\n      swap1\n      pop\n        /* \"#utility.yul\":2031:2064   */\n      tag_257\n        /* \"#utility.yul\":2058:2063   */\n      dup2\n        /* \"#utility.yul\":2031:2064   */\n      tag_213\n      jump\t// in\n    tag_257:\n        /* \"#utility.yul\":1931:2070   */\n      swap3\n      swap2\n      pop\n      pop\n      jump\t// out\n        /* \"#utility.yul\":2076:2153   */\n    tag_215:\n        /* \"#utility.yul\":2113:2120   */\n      0x00\n        /* \"#utility.yul\":2142:2147   */\n      dup2\n        /* \"#utility.yul\":2131:2147   */\n      swap1\n      pop\n        /* \"#utility.yul\":2076:2153   */\n      swap2\n      swap1\n      pop\n      jump\t// out\n        /* \"#utility.yul\":2159:2281   */\n    tag_216:\n        /* \"#utility.yul\":2232:2256   */\n      tag_260\n        /* \"#utility.yul\":2250:2255   */\n      dup2\n        /* \"#utility.yul\":2232:2256   */\n      tag_215\n      jump\t// in\n    tag_260:\n        /* \"#utility.yul\":2225:2230   */\n      dup2\n        /* \"#utility.yul\":2222:2257   */\n      eq\n        /* \"#utility.yul\":2212:2275   */\n      tag_261\n      jumpi\n        /* \"#utility.yul\":2271:2272   */\n      0x00\n        /* \"#utility.yul\":2268:2269   */\n      dup1\n        /* \"#utility.yul\":2261:2273   */\n      revert\n        /* \"#utility.yul\":2212:2275   */\n    tag_261:\n        /* \"#utility.yul\":2159:2281   */\n      pop\n      jump\t// out\n        /* \"#utility.yul\":2287:2426   */\n    tag_217:\n        /* \"#utility.yul\":2333:2338   */\n      0x00\n        /* \"#utility.yul\":2371:2377   */\n      dup2\n        /* \"#utility.yul\":2358:2378   */\n      calldataload\n        /* \"#utility.yul\":2349:2378   */\n      swap1\n      pop\n        /* \"#utility.yul\":2387:2420   */\n      tag_263\n        /* \"#utility.yul\":2414:2419   */\n      dup2\n        /* \"#utility.yul\":2387:2420   */\n      tag_216\n      jump\t// in\n    tag_263:\n        /* \"#utility.yul\":2287:2426   */\n      swap3\n      swap2\n      pop\n      pop\n      jump\t// out\n        /* \"#utility.yul\":2432:2906   */\n    tag_22:\n        /* \"#utility.yul\":2500:2506   */\n      0x00\n        /* \"#utility.yul\":2508:2514   */\n      dup1\n        /* \"#utility.yul\":2557:2559   */\n      0x40\n        /* \"#utility.yul\":2545:2554   */\n      dup4\n        /* \"#utility.yul\":2536:2543   */\n      dup6\n        /* \"#utility.yul\":2532:2555   */\n      sub\n        /* \"#utility.yul\":2528:2560   */\n      slt\n        /* \"#utility.yul\":2525:2644   */\n      iszero\n      tag_265\n      jumpi\n        /* \"#utility.yul\":2563:2642   */\n      tag_266\n      tag_209\n      jump\t// in\n    tag_266:\n        /* \"#utility.yul\":2525:2644   */\n    tag_265:\n        /* \"#utility.yul\":2683:2684   */\n      0x00\n        /* \"#utility.yul\":2708:2761   */\n      tag_267\n        /* \"#utility.yul\":2753:2760   */\n      dup6\n        /* \"#utility.yul\":2744:2750   */\n      dup3\n        /* \"#utility.yul\":2733:2742   */\n      dup7\n        /* \"#utility.yul\":2729:2751   */\n      add\n        /* \"#utility.yul\":2708:2761   */\n      tag_214\n      jump\t// in\n    tag_267:\n        /* \"#utility.yul\":2698:2761   */\n      swap3\n      pop\n        /* \"#utility.yul\":2654:2771   */\n      pop\n        /* \"#utility.yul\":2810:2812   */\n      0x20\n        /* \"#utility.yul\":2836:2889   */\n      tag_268\n        /* \"#utility.yul\":2881:2888   */\n      dup6\n        /* \"#utility.yul\":2872:2878   */\n      dup3\n        /* \"#utility.yul\":2861:2870   */\n      dup7\n        /* \"#utility.yul\":2857:2879   */\n      add\n        /* \"#utility.yul\":2836:2889   */\n      tag_217\n      jump\t// in\n    tag_268:\n        /* \"#utility.yul\":2826:2889   */\n      swap2\n      pop\n        /* \"#utility.yul\":2781:2899   */\n      pop\n        /* \"#utility.yul\":2432:2906   */\n      swap3\n      pop\n      swap3\n      swap1\n      pop\n      jump\t// out\n        /* \"#utility.yul\":2912:3002   */\n    tag_218:\n        /* \"#utility.yul\":2946:2953   */\n      0x00\n        /* \"#utility.yul\":2989:2994   */\n      dup2\n        /* \"#utility.yul\":2982:2995   */\n      iszero\n        /* \"#utility.yul\":2975:2996   */\n      iszero\n        /* \"#utility.yul\":2964:2996   */\n      swap1\n      pop\n        /* \"#utility.yul\":2912:3002   */\n      swap2\n      swap1\n      pop\n      jump\t// out\n        /* \"#utility.yul\":3008:3117   */\n    tag_219:\n        /* \"#utility.yul\":3089:3110   */\n      tag_271\n        /* \"#utility.yul\":3104:3109   */\n      dup2\n        /* \"#utility.yul\":3089:3110   */\n      tag_218\n      jump\t// in\n    tag_271:\n        /* \"#utility.yul\":3084:3087   */\n      dup3\n        /* \"#utility.yul\":3077:3111   */\n      mstore\n        /* \"#utility.yul\":3008:3117   */\n      pop\n      pop\n      jump\t// out\n        /* \"#utility.yul\":3123:3333   */\n    tag_25:\n        /* \"#utility.yul\":3210:3214   */\n      0x00\n        /* \"#utility.yul\":3248:3250   */\n      0x20\n        /* \"#utility.yul\":3237:3246   */\n      dup3\n        /* \"#utility.yul\":3233:3251   */\n      add\n        /* \"#utility.yul\":3225:3251   */\n      swap1\n      pop\n        /* \"#utility.yul\":3261:3326   */\n      tag_273\n        /* \"#utility.yul\":3323:3324   */\n      0x00\n        /* \"#utility.yul\":3312:3321   */\n      dup4\n        /* \"#utility.yul\":3308:3325   */\n      add\n        /* \"#utility.yul\":3299:3305   */\n      dup5\n        /* \"#utility.yul\":3261:3326   */\n      tag_219\n      jump\t// in\n    tag_273:\n        /* \"#utility.yul\":3123:3333   */\n      swap3\n      swap2\n      pop\n      pop\n      jump\t// out\n        /* \"#utility.yul\":3339:3457   */\n    tag_220:\n        /* \"#utility.yul\":3426:3450   */\n      tag_275\n        /* \"#utility.yul\":3444:3449   */\n      dup2\n        /* \"#utility.yul\":3426:3450   */\n      tag_215\n      jump\t// in\n    tag_275:\n        /* \"#utility.yul\":3421:3424   */\n      dup3\n        /* \"#utility.yul\":3414:3451   */\n      mstore\n        /* \"#utility.yul\":3339:3457   */\n      pop\n      pop\n      jump\t// out\n        /* \"#utility.yul\":3463:3685   */\n    tag_30:\n        /* \"#utility.yul\":3556:3560   */\n      0x00\n        /* \"#utility.yul\":3594:3596   */\n      0x20\n        /* \"#utility.yul\":3583:3592   */\n      dup3\n        /* \"#utility.yul\":3579:3597   */\n      add\n        /* \"#utility.yul\":3571:3597   */\n      swap1\n      pop\n        /* \"#utility.yul\":3607:3678   */\n      tag_277\n        /* \"#utility.yul\":3675:3676   */\n      0x00\n        /* \"#utility.yul\":3664:3673   */\n      dup4\n        /* \"#utility.yul\":3660:3677   */\n      add\n        /* \"#utility.yul\":3651:3657   */\n      dup5\n        /* \"#utility.yul\":3607:3678   */\n      tag_220\n      jump\t// in\n    tag_277:\n        /* \"#utility.yul\":3463:3685   */\n      swap3\n      swap2\n      pop\n      pop\n      jump\t// out\n        /* \"#utility.yul\":3691:4310   */\n    tag_34:\n        /* \"#utility.yul\":3768:3774   */\n      0x00\n        /* \"#utility.yul\":3776:3782   */\n      dup1\n        /* \"#utility.yul\":3784:3790   */\n      0x00\n        /* \"#utility.yul\":3833:3835   */\n      0x60\n        /* \"#utility.yul\":3821:3830   */\n      dup5\n        /* \"#utility.yul\":3812:3819   */\n      dup7\n        /* \"#utility.yul\":3808:3831   */\n      sub\n        /* \"#utility.yul\":3804:3836   */\n      slt\n        /* \"#utility.yul\":3801:3920   */\n      iszero\n      tag_279\n      jumpi\n        /* \"#utility.yul\":3839:3918   */\n      tag_280\n      tag_209\n      jump\t// in\n    tag_280:\n        /* \"#utility.yul\":3801:3920   */\n    tag_279:\n        /* \"#utility.yul\":3959:3960   */\n      0x00\n        /* \"#utility.yul\":3984:4037   */\n      tag_281\n        /* \"#utility.yul\":4029:4036   */\n      dup7\n        /* \"#utility.yul\":4020:4026   */\n      dup3\n        /* \"#utility.yul\":4009:4018   */\n      dup8\n        /* \"#utility.yul\":4005:4027   */\n      add\n        /* \"#utility.yul\":3984:4037   */\n      tag_214\n      jump\t// in\n    tag_281:\n        /* \"#utility.yul\":3974:4037   */\n      swap4\n      pop\n        /* \"#utility.yul\":3930:4047   */\n      pop\n        /* \"#utility.yul\":4086:4088   */\n      0x20\n        /* \"#utility.yul\":4112:4165   */\n      tag_282\n        /* \"#utility.yul\":4157:4164   */\n      dup7\n        /* \"#utility.yul\":4148:4154   */\n      dup3\n        /* \"#utility.yul\":4137:4146   */\n      dup8\n        /* \"#utility.yul\":4133:4155   */\n      add\n        /* \"#utility.yul\":4112:4165   */\n      tag_214\n      jump\t// in\n    tag_282:\n        /* \"#utility.yul\":4102:4165   */\n      swap3\n      pop\n        /* \"#utility.yul\":4057:4175   */\n      pop\n        /* \"#utility.yul\":4214:4216   */\n      0x40\n        /* \"#utility.yul\":4240:4293   */\n      tag_283\n        /* \"#utility.yul\":4285:4292   */\n      dup7\n        /* \"#utility.yul\":4276:4282   */\n      dup3\n        /* \"#utility.yul\":4265:4274   */\n      dup8\n        /* \"#utility.yul\":4261:4283   */\n      add\n        /* \"#utility.yul\":4240:4293   */\n      tag_217\n      jump\t// in\n    tag_283:\n        /* \"#utility.yul\":4230:4293   */\n      swap2\n      pop\n        /* \"#utility.yul\":4185:4303   */\n      pop\n        /* \"#utility.yul\":3691:4310   */\n      swap3\n      pop\n      swap3\n      pop\n      swap3\n      jump\t// out\n        /* \"#utility.yul\":4316:4402   */\n    tag_221:\n        /* \"#utility.yul\":4351:4358   */\n      0x00\n        /* \"#utility.yul\":4391:4395   */\n      0xff\n        /* \"#utility.yul\":4384:4389   */\n      dup3\n        /* \"#utility.yul\":4380:4396   */\n      and\n        /* \"#utility.yul\":4369:4396   */\n      swap1\n      pop\n        /* \"#utility.yul\":4316:4402   */\n      swap2\n      swap1\n      pop\n      jump\t// out\n        /* \"#utility.yul\":4408:4520   */\n    tag_222:\n        /* \"#utility.yul\":4491:4513   */\n      tag_286\n        /* \"#utility.yul\":4507:4512   */\n      dup2\n        /* \"#utility.yul\":4491:4513   */\n      tag_221\n      jump\t// in\n    tag_286:\n        /* \"#utility.yul\":4486:4489   */\n      dup3\n        /* \"#utility.yul\":4479:4514   */\n      mstore\n        /* \"#utility.yul\":4408:4520   */\n      pop\n      pop\n      jump\t// out\n        /* \"#utility.yul\":4526:4740   */\n    tag_41:\n        /* \"#utility.yul\":4615:4619   */\n      0x00\n        /* \"#utility.yul\":4653:4655   */\n      0x20\n        /* \"#utility.yul\":4642:4651   */\n      dup3\n        /* \"#utility.yul\":4638:4656   */\n      add\n        /* \"#utility.yul\":4630:4656   */\n      swap1\n      pop\n        /* \"#utility.yul\":4666:4733   */\n      tag_288\n        /* \"#utility.yul\":4730:4731   */\n      0x00\n        /* \"#utility.yul\":4719:4728   */\n      dup4\n        /* \"#utility.yul\":4715:4732   */\n      add\n        /* \"#utility.yul\":4706:4712   */\n      dup5\n        /* \"#utility.yul\":4666:4733   */\n      tag_222\n      jump\t// in\n    tag_288:\n        /* \"#utility.yul\":4526:4740   */\n      swap3\n      swap2\n      pop\n      pop\n      jump\t// out\n        /* \"#utility.yul\":4746:5075   */\n    tag_45:\n        /* \"#utility.yul\":4805:4811   */\n      0x00\n        /* \"#utility.yul\":4854:4856   */\n      0x20\n        /* \"#utility.yul\":4842:4851   */\n      dup3\n        /* \"#utility.yul\":4833:4840   */\n      dup5\n        /* \"#utility.yul\":4829:4852   */\n      sub\n        /* \"#utility.yul\":4825:4857   */\n      slt\n        /* \"#utility.yul\":4822:4941   */\n      iszero\n      tag_290\n      jumpi\n        /* \"#utility.yul\":4860:4939   */\n      tag_291\n      tag_209\n      jump\t// in\n    tag_291:\n        /* \"#utility.yul\":4822:4941   */\n    tag_290:\n        /* \"#utility.yul\":4980:4981   */\n      0x00\n        /* \"#utility.yul\":5005:5058   */\n      tag_292\n        /* \"#utility.yul\":5050:5057   */\n      dup5\n        /* \"#utility.yul\":5041:5047   */\n      dup3\n        /* \"#utility.yul\":5030:5039   */\n      dup6\n        /* \"#utility.yul\":5026:5048   */\n      add\n        /* \"#utility.yul\":5005:5058   */\n      tag_217\n      jump\t// in\n    tag_292:\n        /* \"#utility.yul\":4995:5058   */\n      swap2\n      pop\n        /* \"#utility.yul\":4951:5068   */\n      pop\n        /* \"#utility.yul\":4746:5075   */\n      swap3\n      swap2\n      pop\n      pop\n      jump\t// out\n        /* \"#utility.yul\":5081:5410   */\n    tag_50:\n        /* \"#utility.yul\":5140:5146   */\n      0x00\n        /* \"#utility.yul\":5189:5191   */\n      0x20\n        /* \"#utility.yul\":5177:5186   */\n      dup3\n        /* \"#utility.yul\":5168:5175   */\n      dup5\n        /* \"#utility.yul\":5164:5187   */\n      sub\n        /* \"#utility.yul\":5160:5192   */\n      slt\n        /* \"#utility.yul\":5157:5276   */\n      iszero\n      tag_294\n      jumpi\n        /* \"#utility.yul\":5195:5274   */\n      tag_295\n      tag_209\n      jump\t// in\n    tag_295:\n        /* \"#utility.yul\":5157:5276   */\n    tag_294:\n        /* \"#utility.yul\":5315:5316   */\n      0x00\n        /* \"#utility.yul\":5340:5393   */\n      tag_296\n        /* \"#utility.yul\":5385:5392   */\n      dup5\n        /* \"#utility.yul\":5376:5382   */\n      dup3\n        /* \"#utility.yul\":5365:5374   */\n      dup6\n        /* \"#utility.yul\":5361:5383   */\n      add\n        /* \"#utility.yul\":5340:5393   */\n      tag_214\n      jump\t// in\n    tag_296:\n        /* \"#utility.yul\":5330:5393   */\n      swap2\n      pop\n        /* \"#utility.yul\":5286:5403   */\n      pop\n        /* \"#utility.yul\":5081:5410   */\n      swap3\n      swap2\n      pop\n      pop\n      jump\t// out\n        /* \"#utility.yul\":5416:5890   */\n    tag_68:\n        /* \"#utility.yul\":5484:5490   */\n      0x00\n        /* \"#utility.yul\":5492:5498   */\n      dup1\n        /* \"#utility.yul\":5541:5543   */\n      0x40\n        /* \"#utility.yul\":5529:5538   */\n      dup4\n        /* \"#utility.yul\":5520:5527   */\n      dup6\n        /* \"#utility.yul\":5516:5539   */\n      sub\n        /* \"#utility.yul\":5512:5544   */\n      slt\n        /* \"#utility.yul\":5509:5628   */\n      iszero\n      tag_298\n      jumpi\n        /* \"#utility.yul\":5547:5626   */\n      tag_299\n      tag_209\n      jump\t// in\n    tag_299:\n        /* \"#utility.yul\":5509:5628   */\n    tag_298:\n        /* \"#utility.yul\":5667:5668   */\n      0x00\n        /* \"#utility.yul\":5692:5745   */\n      tag_300\n        /* \"#utility.yul\":5737:5744   */\n      dup6\n        /* \"#utility.yul\":5728:5734   */\n      dup3\n        /* \"#utility.yul\":5717:5726   */\n      dup7\n        /* \"#utility.yul\":5713:5735   */\n      add\n        /* \"#utility.yul\":5692:5745   */\n      tag_214\n      jump\t// in\n    tag_300:\n        /* \"#utility.yul\":5682:5745   */\n      swap3\n      pop\n        /* \"#utility.yul\":5638:5755   */\n      pop\n        /* \"#utility.yul\":5794:5796   */\n      0x20\n        /* \"#utility.yul\":5820:5873   */\n      tag_301\n        /* \"#utility.yul\":5865:5872   */\n      dup6\n        /* \"#utility.yul\":5856:5862   */\n      dup3\n        /* \"#utility.yul\":5845:5854   */\n      dup7\n        /* \"#utility.yul\":5841:5863   */\n      add\n        /* \"#utility.yul\":5820:5873   */\n      tag_214\n      jump\t// in\n    tag_301:\n        /* \"#utility.yul\":5810:5873   */\n      swap2\n      pop\n        /* \"#utility.yul\":5765:5883   */\n      pop\n        /* \"#utility.yul\":5416:5890   */\n      swap3\n      pop\n      swap3\n      swap1\n      pop\n      jump\t// out\n        /* \"#utility.yul\":5896:6076   */\n    tag_223:\n        /* \"#utility.yul\":5944:6021   */\n      0x4e487b7100000000000000000000000000000000000000000000000000000000\n        /* \"#utility.yul\":5941:5942   */\n      0x00\n        /* \"#utility.yul\":5934:6022   */\n      mstore\n        /* \"#utility.yul\":6041:6045   */\n      0x22\n        /* \"#utility.yul\":6038:6039   */\n      0x04\n        /* \"#utility.yul\":6031:6046   */\n      mstore\n        /* \"#utility.yul\":6065:6069   */\n      0x24\n        /* \"#utility.yul\":6062:6063   */\n      0x00\n        /* \"#utility.yul\":6055:6070   */\n      revert\n        /* \"#utility.yul\":6082:6402   */\n    tag_73:\n        /* \"#utility.yul\":6126:6132   */\n      0x00\n        /* \"#utility.yul\":6163:6164   */\n      0x02\n        /* \"#utility.yul\":6157:6161   */\n      dup3\n        /* \"#utility.yul\":6153:6165   */\n      div\n        /* \"#utility.yul\":6143:6165   */\n      swap1\n      pop\n        /* \"#utility.yul\":6210:6211   */\n      0x01\n        /* \"#utility.yul\":6204:6208   */\n      dup3\n        /* \"#utility.yul\":6200:6212   */\n      and\n        /* \"#utility.yul\":6231:6249   */\n      dup1\n        /* \"#utility.yul\":6221:6302   */\n      tag_304\n      jumpi\n        /* \"#utility.yul\":6287:6291   */\n      0x7f\n        /* \"#utility.yul\":6279:6285   */\n      dup3\n        /* \"#utility.yul\":6275:6292   */\n      and\n        /* \"#utility.yul\":6265:6292   */\n      swap2\n      pop\n        /* \"#utility.yul\":6221:6302   */\n    tag_304:\n        /* \"#utility.yul\":6349:6351   */\n      0x20\n        /* \"#utility.yul\":6341:6347   */\n      dup3\n        /* \"#utility.yul\":6338:6352   */\n      lt\n        /* \"#utility.yul\":6318:6336   */\n      dup2\n        /* \"#utility.yul\":6315:6353   */\n      sub\n        /* \"#utility.yul\":6312:6396   */\n      tag_305\n      jumpi\n        /* \"#utility.yul\":6368:6386   */\n      tag_306\n      tag_223\n      jump\t// in\n    tag_306:\n        /* \"#utility.yul\":6312:6396   */\n    tag_305:\n        /* \"#utility.yul\":6133:6402   */\n      pop\n        /* \"#utility.yul\":6082:6402   */\n      swap2\n      swap1\n      pop\n      jump\t// out\n        /* \"#utility.yul\":6408:6555   */\n    tag_224:\n        /* \"#utility.yul\":6509:6520   */\n      0x00\n        /* \"#utility.yul\":6546:6549   */\n      dup2\n        /* \"#utility.yul\":6531:6549   */\n      swap1\n      pop\n        /* \"#utility.yul\":6408:6555   */\n      swap3\n      swap2\n      pop\n      pop\n      jump\t// out\n        /* \"#utility.yul\":6561:6675   */\n    tag_225:\n      pop\n      jump\t// out\n        /* \"#utility.yul\":6681:7079   */\n    tag_226:\n        /* \"#utility.yul\":6840:6843   */\n      0x00\n        /* \"#utility.yul\":6861:6944   */\n      tag_310\n        /* \"#utility.yul\":6942:6943   */\n      0x00\n        /* \"#utility.yul\":6937:6940   */\n      dup4\n        /* \"#utility.yul\":6861:6944   */\n      tag_224\n      jump\t// in\n    tag_310:\n        /* \"#utility.yul\":6854:6944   */\n      swap2\n      pop\n        /* \"#utility.yul\":6953:7046   */\n      tag_311\n        /* \"#utility.yul\":7042:7045   */\n      dup3\n        /* \"#utility.yul\":6953:7046   */\n      tag_225\n      jump\t// in\n    tag_311:\n        /* \"#utility.yul\":7071:7072   */\n      0x00\n        /* \"#utility.yul\":7066:7069   */\n      dup3\n        /* \"#utility.yul\":7062:7073   */\n      add\n        /* \"#utility.yul\":7055:7073   */\n      swap1\n      pop\n        /* \"#utility.yul\":6681:7079   */\n      swap2\n      swap1\n      pop\n      jump\t// out\n        /* \"#utility.yul\":7085:7464   */\n    tag_95:\n        /* \"#utility.yul\":7269:7272   */\n      0x00\n        /* \"#utility.yul\":7291:7438   */\n      tag_313\n        /* \"#utility.yul\":7434:7437   */\n      dup3\n        /* \"#utility.yul\":7291:7438   */\n      tag_226\n      jump\t// in\n    tag_313:\n        /* \"#utility.yul\":7284:7438   */\n      swap2\n      pop\n        /* \"#utility.yul\":7455:7458   */\n      dup2\n        /* \"#utility.yul\":7448:7458   */\n      swap1\n      pop\n        /* \"#utility.yul\":7085:7464   */\n      swap2\n      swap1\n      pop\n      jump\t// out\n        /* \"#utility.yul\":7470:7638   */\n    tag_227:\n        /* \"#utility.yul\":7610:7630   */\n      0x4661696c656420746f2073656c6c204144540000000000000000000000000000\n        /* \"#utility.yul\":7606:7607   */\n      0x00\n        /* \"#utility.yul\":7598:7604   */\n      dup3\n        /* \"#utility.yul\":7594:7608   */\n      add\n        /* \"#utility.yul\":7587:7631   */\n      mstore\n        /* \"#utility.yul\":7470:7638   */\n      pop\n      jump\t// out\n        /* \"#utility.yul\":7644:8010   */\n    tag_228:\n        /* \"#utility.yul\":7786:7789   */\n      0x00\n        /* \"#utility.yul\":7807:7874   */\n      tag_316\n        /* \"#utility.yul\":7871:7873   */\n      0x12\n        /* \"#utility.yul\":7866:7869   */\n      dup4\n        /* \"#utility.yul\":7807:7874   */\n      tag_204\n      jump\t// in\n    tag_316:\n        /* \"#utility.yul\":7800:7874   */\n      swap2\n      pop\n        /* \"#utility.yul\":7883:7976   */\n      tag_317\n        /* \"#utility.yul\":7972:7975   */\n      dup3\n        /* \"#utility.yul\":7883:7976   */\n      tag_227\n      jump\t// in\n    tag_317:\n        /* \"#utility.yul\":8001:8003   */\n      0x20\n        /* \"#utility.yul\":7996:7999   */\n      dup3\n        /* \"#utility.yul\":7992:8004   */\n      add\n        /* \"#utility.yul\":7985:8004   */\n      swap1\n      pop\n        /* \"#utility.yul\":7644:8010   */\n      swap2\n      swap1\n      pop\n      jump\t// out\n        /* \"#utility.yul\":8016:8435   */\n    tag_101:\n        /* \"#utility.yul\":8182:8186   */\n      0x00\n        /* \"#utility.yul\":8220:8222   */\n      0x20\n        /* \"#utility.yul\":8209:8218   */\n      dup3\n        /* \"#utility.yul\":8205:8223   */\n      add\n        /* \"#utility.yul\":8197:8223   */\n      swap1\n      pop\n        /* \"#utility.yul\":8269:8278   */\n      dup2\n        /* \"#utility.yul\":8263:8267   */\n      dup2\n        /* \"#utility.yul\":8259:8279   */\n      sub\n        /* \"#utility.yul\":8255:8256   */\n      0x00\n        /* \"#utility.yul\":8244:8253   */\n      dup4\n        /* \"#utility.yul\":8240:8257   */\n      add\n        /* \"#utility.yul\":8233:8280   */\n      mstore\n        /* \"#utility.yul\":8297:8428   */\n      tag_319\n        /* \"#utility.yul\":8423:8427   */\n      dup2\n        /* \"#utility.yul\":8297:8428   */\n      tag_228\n      jump\t// in\n    tag_319:\n        /* \"#utility.yul\":8289:8428   */\n      swap1\n      pop\n        /* \"#utility.yul\":8016:8435   */\n      swap2\n      swap1\n      pop\n      jump\t// out\n        /* \"#utility.yul\":8441:8621   */\n    tag_229:\n        /* \"#utility.yul\":8489:8566   */\n      0x4e487b7100000000000000000000000000000000000000000000000000000000\n        /* \"#utility.yul\":8486:8487   */\n      0x00\n        /* \"#utility.yul\":8479:8567   */\n      mstore\n        /* \"#utility.yul\":8586:8590   */\n      0x11\n        /* \"#utility.yul\":8583:8584   */\n      0x04\n        /* \"#utility.yul\":8576:8591   */\n      mstore\n        /* \"#utility.yul\":8610:8614   */\n      0x24\n        /* \"#utility.yul\":8607:8608   */\n      0x00\n        /* \"#utility.yul\":8600:8615   */\n      revert\n        /* \"#utility.yul\":8627:8821   */\n    tag_103:\n        /* \"#utility.yul\":8667:8671   */\n      0x00\n        /* \"#utility.yul\":8687:8707   */\n      tag_322\n        /* \"#utility.yul\":8705:8706   */\n      dup3\n        /* \"#utility.yul\":8687:8707   */\n      tag_215\n      jump\t// in\n    tag_322:\n        /* \"#utility.yul\":8682:8707   */\n      swap2\n      pop\n        /* \"#utility.yul\":8721:8741   */\n      tag_323\n        /* \"#utility.yul\":8739:8740   */\n      dup4\n        /* \"#utility.yul\":8721:8741   */\n      tag_215\n      jump\t// in\n    tag_323:\n        /* \"#utility.yul\":8716:8741   */\n      swap3\n      pop\n        /* \"#utility.yul\":8765:8766   */\n      dup3\n        /* \"#utility.yul\":8762:8763   */\n      dup3\n        /* \"#utility.yul\":8758:8767   */\n      sub\n        /* \"#utility.yul\":8750:8767   */\n      swap1\n      pop\n        /* \"#utility.yul\":8789:8790   */\n      dup2\n        /* \"#utility.yul\":8783:8787   */\n      dup2\n        /* \"#utility.yul\":8780:8791   */\n      gt\n        /* \"#utility.yul\":8777:8814   */\n      iszero\n      tag_324\n      jumpi\n        /* \"#utility.yul\":8794:8812   */\n      tag_325\n      tag_229\n      jump\t// in\n    tag_325:\n        /* \"#utility.yul\":8777:8814   */\n    tag_324:\n        /* \"#utility.yul\":8627:8821   */\n      swap3\n      swap2\n      pop\n      pop\n      jump\t// out\n        /* \"#utility.yul\":8827:8975   */\n    tag_230:\n        /* \"#utility.yul\":8929:8940   */\n      0x00\n        /* \"#utility.yul\":8966:8969   */\n      dup2\n        /* \"#utility.yul\":8951:8969   */\n      swap1\n      pop\n        /* \"#utility.yul\":8827:8975   */\n      swap3\n      swap2\n      pop\n      pop\n      jump\t// out\n        /* \"#utility.yul\":8981:9371   */\n    tag_231:\n        /* \"#utility.yul\":9087:9090   */\n      0x00\n        /* \"#utility.yul\":9115:9154   */\n      tag_328\n        /* \"#utility.yul\":9148:9153   */\n      dup3\n        /* \"#utility.yul\":9115:9154   */\n      tag_203\n      jump\t// in\n    tag_328:\n        /* \"#utility.yul\":9170:9259   */\n      tag_329\n        /* \"#utility.yul\":9252:9258   */\n      dup2\n        /* \"#utility.yul\":9247:9250   */\n      dup6\n        /* \"#utility.yul\":9170:9259   */\n      tag_230\n      jump\t// in\n    tag_329:\n        /* \"#utility.yul\":9163:9259   */\n      swap4\n      pop\n        /* \"#utility.yul\":9268:9333   */\n      tag_330\n        /* \"#utility.yul\":9326:9332   */\n      dup2\n        /* \"#utility.yul\":9321:9324   */\n      dup6\n        /* \"#utility.yul\":9314:9318   */\n      0x20\n        /* \"#utility.yul\":9307:9312   */\n      dup7\n        /* \"#utility.yul\":9303:9319   */\n      add\n        /* \"#utility.yul\":9268:9333   */\n      tag_205\n      jump\t// in\n    tag_330:\n        /* \"#utility.yul\":9358:9364   */\n      dup1\n        /* \"#utility.yul\":9353:9356   */\n      dup5\n        /* \"#utility.yul\":9349:9365   */\n      add\n        /* \"#utility.yul\":9342:9365   */\n      swap2\n      pop\n        /* \"#utility.yul\":9091:9371   */\n      pop\n        /* \"#utility.yul\":8981:9371   */\n      swap3\n      swap2\n      pop\n      pop\n      jump\t// out\n        /* \"#utility.yul\":9377:9617   */\n    tag_232:\n        /* \"#utility.yul\":9517:9551   */\n      0x20574549206973206d696e696d756d2076616c756520746f2062757920746f6b\n        /* \"#utility.yul\":9513:9514   */\n      0x00\n        /* \"#utility.yul\":9505:9511   */\n      dup3\n        /* \"#utility.yul\":9501:9515   */\n      add\n        /* \"#utility.yul\":9494:9552   */\n      mstore\n        /* \"#utility.yul\":9586:9609   */\n      0x656e2c20657120312045544820746f2031204144540000000000000000000000\n        /* \"#utility.yul\":9581:9583   */\n      0x20\n        /* \"#utility.yul\":9573:9579   */\n      dup3\n        /* \"#utility.yul\":9569:9584   */\n      add\n        /* \"#utility.yul\":9562:9610   */\n      mstore\n        /* \"#utility.yul\":9377:9617   */\n      pop\n      jump\t// out\n        /* \"#utility.yul\":9623:10025   */\n    tag_233:\n        /* \"#utility.yul\":9783:9786   */\n      0x00\n        /* \"#utility.yul\":9804:9889   */\n      tag_333\n        /* \"#utility.yul\":9886:9888   */\n      0x35\n        /* \"#utility.yul\":9881:9884   */\n      dup4\n        /* \"#utility.yul\":9804:9889   */\n      tag_230\n      jump\t// in\n    tag_333:\n        /* \"#utility.yul\":9797:9889   */\n      swap2\n      pop\n        /* \"#utility.yul\":9898:9991   */\n      tag_334\n        /* \"#utility.yul\":9987:9990   */\n      dup3\n        /* \"#utility.yul\":9898:9991   */\n      tag_232\n      jump\t// in\n    tag_334:\n        /* \"#utility.yul\":10016:10018   */\n      0x35\n        /* \"#utility.yul\":10011:10014   */\n      dup3\n        /* \"#utility.yul\":10007:10019   */\n      add\n        /* \"#utility.yul\":10000:10019   */\n      swap1\n      pop\n        /* \"#utility.yul\":9623:10025   */\n      swap2\n      swap1\n      pop\n      jump\t// out\n        /* \"#utility.yul\":10031:10572   */\n    tag_118:\n        /* \"#utility.yul\":10264:10267   */\n      0x00\n        /* \"#utility.yul\":10286:10381   */\n      tag_336\n        /* \"#utility.yul\":10377:10380   */\n      dup3\n        /* \"#utility.yul\":10368:10374   */\n      dup5\n        /* \"#utility.yul\":10286:10381   */\n      tag_231\n      jump\t// in\n    tag_336:\n        /* \"#utility.yul\":10279:10381   */\n      swap2\n      pop\n        /* \"#utility.yul\":10398:10546   */\n      tag_337\n        /* \"#utility.yul\":10542:10545   */\n      dup3\n        /* \"#utility.yul\":10398:10546   */\n      tag_233\n      jump\t// in\n    tag_337:\n        /* \"#utility.yul\":10391:10546   */\n      swap2\n      pop\n        /* \"#utility.yul\":10563:10566   */\n      dup2\n        /* \"#utility.yul\":10556:10566   */\n      swap1\n      pop\n        /* \"#utility.yul\":10031:10572   */\n      swap3\n      swap2\n      pop\n      pop\n      jump\t// out\n        /* \"#utility.yul\":10578:10769   */\n    tag_124:\n        /* \"#utility.yul\":10618:10621   */\n      0x00\n        /* \"#utility.yul\":10637:10657   */\n      tag_339\n        /* \"#utility.yul\":10655:10656   */\n      dup3\n        /* \"#utility.yul\":10637:10657   */\n      tag_215\n      jump\t// in\n    tag_339:\n        /* \"#utility.yul\":10632:10657   */\n      swap2\n      pop\n        /* \"#utility.yul\":10671:10691   */\n      tag_340\n        /* \"#utility.yul\":10689:10690   */\n      dup4\n        /* \"#utility.yul\":10671:10691   */\n      tag_215\n      jump\t// in\n    tag_340:\n        /* \"#utility.yul\":10666:10691   */\n      swap3\n      pop\n        /* \"#utility.yul\":10714:10715   */\n      dup3\n        /* \"#utility.yul\":10711:10712   */\n      dup3\n        /* \"#utility.yul\":10707:10716   */\n      add\n        /* \"#utility.yul\":10700:10716   */\n      swap1\n      pop\n        /* \"#utility.yul\":10735:10738   */\n      dup1\n        /* \"#utility.yul\":10732:10733   */\n      dup3\n        /* \"#utility.yul\":10729:10739   */\n      gt\n        /* \"#utility.yul\":10726:10762   */\n      iszero\n      tag_341\n      jumpi\n        /* \"#utility.yul\":10742:10760   */\n      tag_342\n      tag_229\n      jump\t// in\n    tag_342:\n        /* \"#utility.yul\":10726:10762   */\n    tag_341:\n        /* \"#utility.yul\":10578:10769   */\n      swap3\n      swap2\n      pop\n      pop\n      jump\t// out\n        /* \"#utility.yul\":10775:10893   */\n    tag_234:\n        /* \"#utility.yul\":10862:10886   */\n      tag_344\n        /* \"#utility.yul\":10880:10885   */\n      dup2\n        /* \"#utility.yul\":10862:10886   */\n      tag_212\n      jump\t// in\n    tag_344:\n        /* \"#utility.yul\":10857:10860   */\n      dup3\n        /* \"#utility.yul\":10850:10887   */\n      mstore\n        /* \"#utility.yul\":10775:10893   */\n      pop\n      pop\n      jump\t// out\n        /* \"#utility.yul\":10899:11341   */\n    tag_136:\n        /* \"#utility.yul\":11048:11052   */\n      0x00\n        /* \"#utility.yul\":11086:11088   */\n      0x60\n        /* \"#utility.yul\":11075:11084   */\n      dup3\n        /* \"#utility.yul\":11071:11089   */\n      add\n        /* \"#utility.yul\":11063:11089   */\n      swap1\n      pop\n        /* \"#utility.yul\":11099:11170   */\n      tag_346\n        /* \"#utility.yul\":11167:11168   */\n      0x00\n        /* \"#utility.yul\":11156:11165   */\n      dup4\n        /* \"#utility.yul\":11152:11169   */\n      add\n        /* \"#utility.yul\":11143:11149   */\n      dup7\n        /* \"#utility.yul\":11099:11170   */\n      tag_234\n      jump\t// in\n    tag_346:\n        /* \"#utility.yul\":11180:11252   */\n      tag_347\n        /* \"#utility.yul\":11248:11250   */\n      0x20\n        /* \"#utility.yul\":11237:11246   */\n      dup4\n        /* \"#utility.yul\":11233:11251   */\n      add\n        /* \"#utility.yul\":11224:11230   */\n      dup6\n        /* \"#utility.yul\":11180:11252   */\n      tag_220\n      jump\t// in\n    tag_347:\n        /* \"#utility.yul\":11262:11334   */\n      tag_348\n        /* \"#utility.yul\":11330:11332   */\n      0x40\n        /* \"#utility.yul\":11319:11328   */\n      dup4\n        /* \"#utility.yul\":11315:11333   */\n      add\n        /* \"#utility.yul\":11306:11312   */\n      dup5\n        /* \"#utility.yul\":11262:11334   */\n      tag_220\n      jump\t// in\n    tag_348:\n        /* \"#utility.yul\":10899:11341   */\n      swap5\n      swap4\n      pop\n      pop\n      pop\n      pop\n      jump\t// out\n        /* \"#utility.yul\":11347:11569   */\n    tag_141:\n        /* \"#utility.yul\":11440:11444   */\n      0x00\n        /* \"#utility.yul\":11478:11480   */\n      0x20\n        /* \"#utility.yul\":11467:11476   */\n      dup3\n        /* \"#utility.yul\":11463:11481   */\n      add\n        /* \"#utility.yul\":11455:11481   */\n      swap1\n      pop\n        /* \"#utility.yul\":11491:11562   */\n      tag_350\n        /* \"#utility.yul\":11559:11560   */\n      0x00\n        /* \"#utility.yul\":11548:11557   */\n      dup4\n        /* \"#utility.yul\":11544:11561   */\n      add\n        /* \"#utility.yul\":11535:11541   */\n      dup5\n        /* \"#utility.yul\":11491:11562   */\n      tag_234\n      jump\t// in\n    tag_350:\n        /* \"#utility.yul\":11347:11569   */\n      swap3\n      swap2\n      pop\n      pop\n      jump\t// out\n        /* \"#utility.yul\":11575:11755   */\n    tag_155:\n        /* \"#utility.yul\":11623:11700   */\n      0x4e487b7100000000000000000000000000000000000000000000000000000000\n        /* \"#utility.yul\":11620:11621   */\n      0x00\n        /* \"#utility.yul\":11613:11701   */\n      mstore\n        /* \"#utility.yul\":11720:11724   */\n      0x41\n        /* \"#utility.yul\":11717:11718   */\n      0x04\n        /* \"#utility.yul\":11710:11725   */\n      mstore\n        /* \"#utility.yul\":11744:11748   */\n      0x24\n        /* \"#utility.yul\":11741:11742   */\n      0x00\n        /* \"#utility.yul\":11734:11749   */\n      revert\n        /* \"#utility.yul\":11761:11941   */\n    tag_161:\n        /* \"#utility.yul\":11809:11886   */\n      0x4e487b7100000000000000000000000000000000000000000000000000000000\n        /* \"#utility.yul\":11806:11807   */\n      0x00\n        /* \"#utility.yul\":11799:11887   */\n      mstore\n        /* \"#utility.yul\":11906:11910   */\n      0x12\n        /* \"#utility.yul\":11903:11904   */\n      0x04\n        /* \"#utility.yul\":11896:11911   */\n      mstore\n        /* \"#utility.yul\":11930:11934   */\n      0x24\n        /* \"#utility.yul\":11927:11928   */\n      0x00\n        /* \"#utility.yul\":11920:11935   */\n      revert\n\n    auxdata: 0xa26469706673582212204c3c7244702c13e6501dc5a038b84b9528b0255fcdf76c935d0a83ef1ee8890564736f6c634300081a0033\n}\n",
				"bytecode": {
					"linkReferences": {},
					"object": "608060405234801561000f575f80fd5b506040518060400160405280600781526020017f4144546f6b656e000000000000000000000000000000000000000000000000008152506040518060400160405280600381526020017f4144540000000000000000000000000000000000000000000000000000000000815250816003908161008b91906102dd565b50806004908161009b91906102dd565b5050506103ac565b5f81519050919050565b7f4e487b71000000000000000000000000000000000000000000000000000000005f52604160045260245ffd5b7f4e487b71000000000000000000000000000000000000000000000000000000005f52602260045260245ffd5b5f600282049050600182168061011e57607f821691505b602082108103610131576101306100da565b5b50919050565b5f819050815f5260205f209050919050565b5f6020601f8301049050919050565b5f82821b905092915050565b5f600883026101937fffffffffffffffffffffffffffffffffffffffffffffffffffffffffffffffff82610158565b61019d8683610158565b95508019841693508086168417925050509392505050565b5f819050919050565b5f819050919050565b5f6101e16101dc6101d7846101b5565b6101be565b6101b5565b9050919050565b5f819050919050565b6101fa836101c7565b61020e610206826101e8565b848454610164565b825550505050565b5f90565b610222610216565b61022d8184846101f1565b505050565b5b81811015610250576102455f8261021a565b600181019050610233565b5050565b601f8211156102955761026681610137565b61026f84610149565b8101602085101561027e578190505b61029261028a85610149565b830182610232565b50505b505050565b5f82821c905092915050565b5f6102b55f198460080261029a565b1980831691505092915050565b5f6102cd83836102a6565b9150826002028217905092915050565b6102e6826100a3565b67ffffffffffffffff8111156102ff576102fe6100ad565b5b6103098254610107565b610314828285610254565b5f60209050601f831160018114610345575f8415610333578287015190505b61033d85826102c2565b8655506103a4565b601f19841661035386610137565b5f5b8281101561037a57848901518255600182019150602085019450602081019050610355565b868310156103975784890151610393601f8916826102a6565b8355505b6001600288020188555050505b505050505050565b611568806103b95f395ff3fe60806040526004361061009b575f3560e01c806367c0feab1161006357806367c0feab1461019557806370a08231146101bd57806395d89b41146101f9578063a9059cbb14610223578063d5dca8961461025f578063dd62ed3e1461027d5761009b565b806306fdde031461009f578063095ea7b3146100c957806318160ddd1461010557806323b872dd1461012f578063313ce5671461016b575b5f80fd5b3480156100aa575f80fd5b506100b36102b9565b6040516100c09190610fb5565b60405180910390f35b3480156100d4575f80fd5b506100ef60048036038101906100ea9190611066565b610349565b6040516100fc91906110be565b60405180910390f35b348015610110575f80fd5b5061011961036b565b60405161012691906110e6565b60405180910390f35b34801561013a575f80fd5b50610155600480360381019061015091906110ff565b610374565b60405161016291906110be565b60405180910390f35b348015610176575f80fd5b5061017f6103a2565b60405161018c919061116a565b60405180910390f35b3480156101a0575f80fd5b506101bb60048036038101906101b69190611183565b6103aa565b005b3480156101c8575f80fd5b506101e360048036038101906101de91906111ae565b61047b565b6040516101f091906110e6565b60405180910390f35b348015610204575f80fd5b5061020d6104c0565b60405161021a9190610fb5565b60405180910390f35b34801561022e575f80fd5b5061024960048036038101906102449190611066565b610550565b60405161025691906110be565b60405180910390f35b610267610572565b60405161027491906110e6565b60405180910390f35b348015610288575f80fd5b506102a3600480360381019061029e91906111d9565b610627565b6040516102b091906110e6565b60405180910390f35b6060600380546102c890611244565b80601f01602080910402602001604051908101604052809291908181526020018280546102f490611244565b801561033f5780601f106103165761010080835404028352916020019161033f565b820191905f5260205f20905b81548152906001019060200180831161032257829003601f168201915b5050505050905090565b5f806103536106a9565b90506103608185856106b0565b600191505092915050565b5f600254905090565b5f8061037e6106a9565b905061038b8582856106c2565b610396858585610754565b60019150509392505050565b5f6012905090565b6103b43382610844565b5f803373ffffffffffffffffffffffffffffffffffffffff16836040516103da906112a1565b5f6040518083038185875af1925050503d805f8114610414576040519150601f19603f3d011682016040523d82523d5f602084013e610419565b606091505b50915091508161045e576040517f08c379a0000000000000000000000000000000000000000000000000000000008152600401610455906112ff565b60405180910390fd5b8260055f82825461046f919061134a565b92505081905550505050565b5f805f8373ffffffffffffffffffffffffffffffffffffffff1673ffffffffffffffffffffffffffffffffffffffff1681526020019081526020015f20549050919050565b6060600480546104cf90611244565b80601f01602080910402602001604051908101604052809291908181526020018280546104fb90611244565b80156105465780601f1061051d57610100808354040283529160200191610546565b820191905f5260205f20905b81548152906001019060200180831161052957829003601f168201915b5050505050905090565b5f8061055a6106a9565b9050610567818585610754565b600191505092915050565b5f600167ffffffffffffffff16341015610596600167ffffffffffffffff166108c3565b6040516020016105a69190611427565b604051602081830303815290604052906105f6576040517f08c379a00000000000000000000000000000000000000000000000000000000081526004016105ed9190610fb5565b60405180910390fd5b50610601333461098d565b3460055f8282546106129190611448565b925050819055506106223361047b565b905090565b5f60015f8473ffffffffffffffffffffffffffffffffffffffff1673ffffffffffffffffffffffffffffffffffffffff1681526020019081526020015f205f8373ffffffffffffffffffffffffffffffffffffffff1673ffffffffffffffffffffffffffffffffffffffff1681526020019081526020015f2054905092915050565b5f33905090565b6106bd8383836001610a0c565b505050565b5f6106cd8484610627565b90507fffffffffffffffffffffffffffffffffffffffffffffffffffffffffffffffff811461074e578181101561073f578281836040517ffb8f41b20000000000000000000000000000000000000000000000000000000081526004016107369392919061148a565b60405180910390fd5b61074d84848484035f610a0c565b5b50505050565b5f73ffffffffffffffffffffffffffffffffffffffff168373ffffffffffffffffffffffffffffffffffffffff16036107c4575f6040517f96c6fd1e0000000000000000000000000000000000000000000000000000000081526004016107bb91906114bf565b60405180910390fd5b5f73ffffffffffffffffffffffffffffffffffffffff168273ffffffffffffffffffffffffffffffffffffffff1603610834575f6040517fec442f0500000000000000000000000000000000000000000000000000000000815260040161082b91906114bf565b60405180910390fd5b61083f838383610bdb565b505050565b5f73ffffffffffffffffffffffffffffffffffffffff168273ffffffffffffffffffffffffffffffffffffffff16036108b4575f6040517f96c6fd1e0000000000000000000000000000000000000000000000000000000081526004016108ab91906114bf565b60405180910390fd5b6108bf825f83610bdb565b5050565b60605f60016108d184610df4565b0190505f8167ffffffffffffffff8111156108ef576108ee6114d8565b5b6040519080825280601f01601f1916602001820160405280156109215781602001600182028036833780820191505090505b5090505f82602001820190505b600115610982578080600190039150507f3031323334353637383961626364656600000000000000000000000000000000600a86061a8153600a858161097757610976611505565b5b0494505f850361092e575b819350505050919050565b5f73ffffffffffffffffffffffffffffffffffffffff168273ffffffffffffffffffffffffffffffffffffffff16036109fd575f6040517fec442f050000000000000000000000000000000000000000000000000000000081526004016109f491906114bf565b60405180910390fd5b610a085f8383610bdb565b5050565b5f73ffffffffffffffffffffffffffffffffffffffff168473ffffffffffffffffffffffffffffffffffffffff1603610a7c575f6040517fe602df05000000000000000000000000000000000000000000000000000000008152600401610a7391906114bf565b60405180910390fd5b5f73ffffffffffffffffffffffffffffffffffffffff168373ffffffffffffffffffffffffffffffffffffffff1603610aec575f6040517f94280d62000000000000000000000000000000000000000000000000000000008152600401610ae391906114bf565b60405180910390fd5b8160015f8673ffffffffffffffffffffffffffffffffffffffff1673ffffffffffffffffffffffffffffffffffffffff1681526020019081526020015f205f8573ffffffffffffffffffffffffffffffffffffffff1673ffffffffffffffffffffffffffffffffffffffff1681526020019081526020015f20819055508015610bd5578273ffffffffffffffffffffffffffffffffffffffff168473ffffffffffffffffffffffffffffffffffffffff167f8c5be1e5ebec7d5bd14f71427d1e84f3dd0314c0f7b2291e5b200ac8c7c3b92584604051610bcc91906110e6565b60405180910390a35b50505050565b5f73ffffffffffffffffffffffffffffffffffffffff168373ffffffffffffffffffffffffffffffffffffffff1603610c2b578060025f828254610c1f9190611448565b92505081905550610cf9565b5f805f8573ffffffffffffffffffffffffffffffffffffffff1673ffffffffffffffffffffffffffffffffffffffff1681526020019081526020015f2054905081811015610cb4578381836040517fe450d38c000000000000000000000000000000000000000000000000000000008152600401610cab9392919061148a565b60405180910390fd5b8181035f808673ffffffffffffffffffffffffffffffffffffffff1673ffffffffffffffffffffffffffffffffffffffff1681526020019081526020015f2081905550505b5f73ffffffffffffffffffffffffffffffffffffffff168273ffffffffffffffffffffffffffffffffffffffff1603610d40578060025f8282540392505081905550610d8a565b805f808473ffffffffffffffffffffffffffffffffffffffff1673ffffffffffffffffffffffffffffffffffffffff1681526020019081526020015f205f82825401925050819055505b8173ffffffffffffffffffffffffffffffffffffffff168373ffffffffffffffffffffffffffffffffffffffff167fddf252ad1be2c89b69c2b068fc378daa952ba7f163c4a11628f55a4df523b3ef83604051610de791906110e6565b60405180910390a3505050565b5f805f90507a184f03e93ff9f4daa797ed6e38ed64bf6a1f0100000000000000008310610e50577a184f03e93ff9f4daa797ed6e38ed64bf6a1f0100000000000000008381610e4657610e45611505565b5b0492506040810190505b6d04ee2d6d415b85acef81000000008310610e8d576d04ee2d6d415b85acef81000000008381610e8357610e82611505565b5b0492506020810190505b662386f26fc100008310610ebc57662386f26fc100008381610eb257610eb1611505565b5b0492506010810190505b6305f5e1008310610ee5576305f5e1008381610edb57610eda611505565b5b0492506008810190505b6127108310610f0a576127108381610f0057610eff611505565b5b0492506004810190505b60648310610f2d5760648381610f2357610f22611505565b5b0492506002810190505b600a8310610f3c576001810190505b80915050919050565b5f81519050919050565b5f82825260208201905092915050565b8281835e5f83830152505050565b5f601f19601f8301169050919050565b5f610f8782610f45565b610f918185610f4f565b9350610fa1818560208601610f5f565b610faa81610f6d565b840191505092915050565b5f6020820190508181035f830152610fcd8184610f7d565b905092915050565b5f80fd5b5f73ffffffffffffffffffffffffffffffffffffffff82169050919050565b5f61100282610fd9565b9050919050565b61101281610ff8565b811461101c575f80fd5b50565b5f8135905061102d81611009565b92915050565b5f819050919050565b61104581611033565b811461104f575f80fd5b50565b5f813590506110608161103c565b92915050565b5f806040838503121561107c5761107b610fd5565b5b5f6110898582860161101f565b925050602061109a85828601611052565b9150509250929050565b5f8115159050919050565b6110b8816110a4565b82525050565b5f6020820190506110d15f8301846110af565b92915050565b6110e081611033565b82525050565b5f6020820190506110f95f8301846110d7565b92915050565b5f805f6060848603121561111657611115610fd5565b5b5f6111238682870161101f565b93505060206111348682870161101f565b925050604061114586828701611052565b9150509250925092565b5f60ff82169050919050565b6111648161114f565b82525050565b5f60208201905061117d5f83018461115b565b92915050565b5f6020828403121561119857611197610fd5565b5b5f6111a584828501611052565b91505092915050565b5f602082840312156111c3576111c2610fd5565b5b5f6111d08482850161101f565b91505092915050565b5f80604083850312156111ef576111ee610fd5565b5b5f6111fc8582860161101f565b925050602061120d8582860161101f565b9150509250929050565b7f4e487b71000000000000000000000000000000000000000000000000000000005f52602260045260245ffd5b5f600282049050600182168061125b57607f821691505b60208210810361126e5761126d611217565b5b50919050565b5f81905092915050565b50565b5f61128c5f83611274565b91506112978261127e565b5f82019050919050565b5f6112ab82611281565b9150819050919050565b7f4661696c656420746f2073656c6c2041445400000000000000000000000000005f82015250565b5f6112e9601283610f4f565b91506112f4826112b5565b602082019050919050565b5f6020820190508181035f830152611316816112dd565b9050919050565b7f4e487b71000000000000000000000000000000000000000000000000000000005f52601160045260245ffd5b5f61135482611033565b915061135f83611033565b92508282039050818111156113775761137661131d565b5b92915050565b5f81905092915050565b5f61139182610f45565b61139b818561137d565b93506113ab818560208601610f5f565b80840191505092915050565b7f20574549206973206d696e696d756d2076616c756520746f2062757920746f6b5f8201527f656e2c20657120312045544820746f2031204144540000000000000000000000602082015250565b5f61141160358361137d565b915061141c826113b7565b603582019050919050565b5f6114328284611387565b915061143d82611405565b915081905092915050565b5f61145282611033565b915061145d83611033565b92508282019050808211156114755761147461131d565b5b92915050565b61148481610ff8565b82525050565b5f60608201905061149d5f83018661147b565b6114aa60208301856110d7565b6114b760408301846110d7565b949350505050565b5f6020820190506114d25f83018461147b565b92915050565b7f4e487b71000000000000000000000000000000000000000000000000000000005f52604160045260245ffd5b7f4e487b71000000000000000000000000000000000000000000000000000000005f52601260045260245ffdfea26469706673582212204c3c7244702c13e6501dc5a038b84b9528b0255fcdf76c935d0a83ef1ee8890564736f6c634300081a0033",
					"opcodes": "PUSH1 0x80 PUSH1 0x40 MSTORE CALLVALUE DUP1 ISZERO PUSH2 0xF JUMPI PUSH0 DUP1 REVERT JUMPDEST POP PUSH1 0x40 MLOAD DUP1 PUSH1 0x40 ADD PUSH1 0x40 MSTORE DUP1 PUSH1 0x7 DUP2 MSTORE PUSH1 0x20 ADD PUSH32 0x4144546F6B656E00000000000000000000000000000000000000000000000000 DUP2 MSTORE POP PUSH1 0x40 MLOAD DUP1 PUSH1 0x40 ADD PUSH1 0x40 MSTORE DUP1 PUSH1 0x3 DUP2 MSTORE PUSH1 0x20 ADD PUSH32 0x4144540000000000000000000000000000000000000000000000000000000000 DUP2 MSTORE POP DUP2 PUSH1 0x3 SWAP1 DUP2 PUSH2 0x8B SWAP2 SWAP1 PUSH2 0x2DD JUMP JUMPDEST POP DUP1 PUSH1 0x4 SWAP1 DUP2 PUSH2 0x9B SWAP2 SWAP1 PUSH2 0x2DD JUMP JUMPDEST POP POP POP PUSH2 0x3AC JUMP JUMPDEST PUSH0 DUP2 MLOAD SWAP1 POP SWAP2 SWAP1 POP JUMP JUMPDEST PUSH32 0x4E487B7100000000000000000000000000000000000000000000000000000000 PUSH0 MSTORE PUSH1 0x41 PUSH1 0x4 MSTORE PUSH1 0x24 PUSH0 REVERT JUMPDEST PUSH32 0x4E487B7100000000000000000000000000000000000000000000000000000000 PUSH0 MSTORE PUSH1 0x22 PUSH1 0x4 MSTORE PUSH1 0x24 PUSH0 REVERT JUMPDEST PUSH0 PUSH1 0x2 DUP3 DIV SWAP1 POP PUSH1 0x1 DUP3 AND DUP1 PUSH2 0x11E JUMPI PUSH1 0x7F DUP3 AND SWAP2 POP JUMPDEST PUSH1 0x20 DUP3 LT DUP2 SUB PUSH2 0x131 JUMPI PUSH2 0x130 PUSH2 0xDA JUMP JUMPDEST JUMPDEST POP SWAP2 SWAP1 POP JUMP JUMPDEST PUSH0 DUP2 SWAP1 POP DUP2 PUSH0 MSTORE PUSH1 0x20 PUSH0 KECCAK256 SWAP1 POP SWAP2 SWAP1 POP JUMP JUMPDEST PUSH0 PUSH1 0x20 PUSH1 0x1F DUP4 ADD DIV SWAP1 POP SWAP2 SWAP1 POP JUMP JUMPDEST PUSH0 DUP3 DUP3 SHL SWAP1 POP SWAP3 SWAP2 POP POP JUMP JUMPDEST PUSH0 PUSH1 0x8 DUP4 MUL PUSH2 0x193 PUSH32 0xFFFFFFFFFFFFFFFFFFFFFFFFFFFFFFFFFFFFFFFFFFFFFFFFFFFFFFFFFFFFFFFF DUP3 PUSH2 0x158 JUMP JUMPDEST PUSH2 0x19D DUP7 DUP4 PUSH2 0x158 JUMP JUMPDEST SWAP6 POP DUP1 NOT DUP5 AND SWAP4 POP DUP1 DUP7 AND DUP5 OR SWAP3 POP POP POP SWAP4 SWAP3 POP POP POP JUMP JUMPDEST PUSH0 DUP2 SWAP1 POP SWAP2 SWAP1 POP JUMP JUMPDEST PUSH0 DUP2 SWAP1 POP SWAP2 SWAP1 POP JUMP JUMPDEST PUSH0 PUSH2 0x1E1 PUSH2 0x1DC PUSH2 0x1D7 DUP5 PUSH2 0x1B5 JUMP JUMPDEST PUSH2 0x1BE JUMP JUMPDEST PUSH2 0x1B5 JUMP JUMPDEST SWAP1 POP SWAP2 SWAP1 POP JUMP JUMPDEST PUSH0 DUP2 SWAP1 POP SWAP2 SWAP1 POP JUMP JUMPDEST PUSH2 0x1FA DUP4 PUSH2 0x1C7 JUMP JUMPDEST PUSH2 0x20E PUSH2 0x206 DUP3 PUSH2 0x1E8 JUMP JUMPDEST DUP5 DUP5 SLOAD PUSH2 0x164 JUMP JUMPDEST DUP3 SSTORE POP POP POP POP JUMP JUMPDEST PUSH0 SWAP1 JUMP JUMPDEST PUSH2 0x222 PUSH2 0x216 JUMP JUMPDEST PUSH2 0x22D DUP2 DUP5 DUP5 PUSH2 0x1F1 JUMP JUMPDEST POP POP POP JUMP JUMPDEST JUMPDEST DUP2 DUP2 LT ISZERO PUSH2 0x250 JUMPI PUSH2 0x245 PUSH0 DUP3 PUSH2 0x21A JUMP JUMPDEST PUSH1 0x1 DUP2 ADD SWAP1 POP PUSH2 0x233 JUMP JUMPDEST POP POP JUMP JUMPDEST PUSH1 0x1F DUP3 GT ISZERO PUSH2 0x295 JUMPI PUSH2 0x266 DUP2 PUSH2 0x137 JUMP JUMPDEST PUSH2 0x26F DUP5 PUSH2 0x149 JUMP JUMPDEST DUP2 ADD PUSH1 0x20 DUP6 LT ISZERO PUSH2 0x27E JUMPI DUP2 SWAP1 POP JUMPDEST PUSH2 0x292 PUSH2 0x28A DUP6 PUSH2 0x149 JUMP JUMPDEST DUP4 ADD DUP3 PUSH2 0x232 JUMP JUMPDEST POP POP JUMPDEST POP POP POP JUMP JUMPDEST PUSH0 DUP3 DUP3 SHR SWAP1 POP SWAP3 SWAP2 POP POP JUMP JUMPDEST PUSH0 PUSH2 0x2B5 PUSH0 NOT DUP5 PUSH1 0x8 MUL PUSH2 0x29A JUMP JUMPDEST NOT DUP1 DUP4 AND SWAP2 POP POP SWAP3 SWAP2 POP POP JUMP JUMPDEST PUSH0 PUSH2 0x2CD DUP4 DUP4 PUSH2 0x2A6 JUMP JUMPDEST SWAP2 POP DUP3 PUSH1 0x2 MUL DUP3 OR SWAP1 POP SWAP3 SWAP2 POP POP JUMP JUMPDEST PUSH2 0x2E6 DUP3 PUSH2 0xA3 JUMP JUMPDEST PUSH8 0xFFFFFFFFFFFFFFFF DUP2 GT ISZERO PUSH2 0x2FF JUMPI PUSH2 0x2FE PUSH2 0xAD JUMP JUMPDEST JUMPDEST PUSH2 0x309 DUP3 SLOAD PUSH2 0x107 JUMP JUMPDEST PUSH2 0x314 DUP3 DUP3 DUP6 PUSH2 0x254 JUMP JUMPDEST PUSH0 PUSH1 0x20 SWAP1 POP PUSH1 0x1F DUP4 GT PUSH1 0x1 DUP2 EQ PUSH2 0x345 JUMPI PUSH0 DUP5 ISZERO PUSH2 0x333 JUMPI DUP3 DUP8 ADD MLOAD SWAP1 POP JUMPDEST PUSH2 0x33D DUP6 DUP3 PUSH2 0x2C2 JUMP JUMPDEST DUP7 SSTORE POP PUSH2 0x3A4 JUMP JUMPDEST PUSH1 0x1F NOT DUP5 AND PUSH2 0x353 DUP7 PUSH2 0x137 JUMP JUMPDEST PUSH0 JUMPDEST DUP3 DUP2 LT ISZERO PUSH2 0x37A JUMPI DUP5 DUP10 ADD MLOAD DUP3 SSTORE PUSH1 0x1 DUP3 ADD SWAP2 POP PUSH1 0x20 DUP6 ADD SWAP5 POP PUSH1 0x20 DUP2 ADD SWAP1 POP PUSH2 0x355 JUMP JUMPDEST DUP7 DUP4 LT ISZERO PUSH2 0x397 JUMPI DUP5 DUP10 ADD MLOAD PUSH2 0x393 PUSH1 0x1F DUP10 AND DUP3 PUSH2 0x2A6 JUMP JUMPDEST DUP4 SSTORE POP JUMPDEST PUSH1 0x1 PUSH1 0x2 DUP9 MUL ADD DUP9 SSTORE POP POP POP JUMPDEST POP POP POP POP POP POP JUMP JUMPDEST PUSH2 0x1568 DUP1 PUSH2 0x3B9 PUSH0 CODECOPY PUSH0 RETURN INVALID PUSH1 0x80 PUSH1 0x40 MSTORE PUSH1 0x4 CALLDATASIZE LT PUSH2 0x9B JUMPI PUSH0 CALLDATALOAD PUSH1 0xE0 SHR DUP1 PUSH4 0x67C0FEAB GT PUSH2 0x63 JUMPI DUP1 PUSH4 0x67C0FEAB EQ PUSH2 0x195 JUMPI DUP1 PUSH4 0x70A08231 EQ PUSH2 0x1BD JUMPI DUP1 PUSH4 0x95D89B41 EQ PUSH2 0x1F9 JUMPI DUP1 PUSH4 0xA9059CBB EQ PUSH2 0x223 JUMPI DUP1 PUSH4 0xD5DCA896 EQ PUSH2 0x25F JUMPI DUP1 PUSH4 0xDD62ED3E EQ PUSH2 0x27D JUMPI PUSH2 0x9B JUMP JUMPDEST DUP1 PUSH4 0x6FDDE03 EQ PUSH2 0x9F JUMPI DUP1 PUSH4 0x95EA7B3 EQ PUSH2 0xC9 JUMPI DUP1 PUSH4 0x18160DDD EQ PUSH2 0x105 JUMPI DUP1 PUSH4 0x23B872DD EQ PUSH2 0x12F JUMPI DUP1 PUSH4 0x313CE567 EQ PUSH2 0x16B JUMPI JUMPDEST PUSH0 DUP1 REVERT JUMPDEST CALLVALUE DUP1 ISZERO PUSH2 0xAA JUMPI PUSH0 DUP1 REVERT JUMPDEST POP PUSH2 0xB3 PUSH2 0x2B9 JUMP JUMPDEST PUSH1 0x40 MLOAD PUSH2 0xC0 SWAP2 SWAP1 PUSH2 0xFB5 JUMP JUMPDEST PUSH1 0x40 MLOAD DUP1 SWAP2 SUB SWAP1 RETURN JUMPDEST CALLVALUE DUP1 ISZERO PUSH2 0xD4 JUMPI PUSH0 DUP1 REVERT JUMPDEST POP PUSH2 0xEF PUSH1 0x4 DUP1 CALLDATASIZE SUB DUP2 ADD SWAP1 PUSH2 0xEA SWAP2 SWAP1 PUSH2 0x1066 JUMP JUMPDEST PUSH2 0x349 JUMP JUMPDEST PUSH1 0x40 MLOAD PUSH2 0xFC SWAP2 SWAP1 PUSH2 0x10BE JUMP JUMPDEST PUSH1 0x40 MLOAD DUP1 SWAP2 SUB SWAP1 RETURN JUMPDEST CALLVALUE DUP1 ISZERO PUSH2 0x110 JUMPI PUSH0 DUP1 REVERT JUMPDEST POP PUSH2 0x119 PUSH2 0x36B JUMP JUMPDEST PUSH1 0x40 MLOAD PUSH2 0x126 SWAP2 SWAP1 PUSH2 0x10E6 JUMP JUMPDEST PUSH1 0x40 MLOAD DUP1 SWAP2 SUB SWAP1 RETURN JUMPDEST CALLVALUE DUP1 ISZERO PUSH2 0x13A JUMPI PUSH0 DUP1 REVERT JUMPDEST POP PUSH2 0x155 PUSH1 0x4 DUP1 CALLDATASIZE SUB DUP2 ADD SWAP1 PUSH2 0x150 SWAP2 SWAP1 PUSH2 0x10FF JUMP JUMPDEST PUSH2 0x374 JUMP JUMPDEST PUSH1 0x40 MLOAD PUSH2 0x162 SWAP2 SWAP1 PUSH2 0x10BE JUMP JUMPDEST PUSH1 0x40 MLOAD DUP1 SWAP2 SUB SWAP1 RETURN JUMPDEST CALLVALUE DUP1 ISZERO PUSH2 0x176 JUMPI PUSH0 DUP1 REVERT JUMPDEST POP PUSH2 0x17F PUSH2 0x3A2 JUMP JUMPDEST PUSH1 0x40 MLOAD PUSH2 0x18C SWAP2 SWAP1 PUSH2 0x116A JUMP JUMPDEST PUSH1 0x40 MLOAD DUP1 SWAP2 SUB SWAP1 RETURN JUMPDEST CALLVALUE DUP1 ISZERO PUSH2 0x1A0 JUMPI PUSH0 DUP1 REVERT JUMPDEST POP PUSH2 0x1BB PUSH1 0x4 DUP1 CALLDATASIZE SUB DUP2 ADD SWAP1 PUSH2 0x1B6 SWAP2 SWAP1 PUSH2 0x1183 JUMP JUMPDEST PUSH2 0x3AA JUMP JUMPDEST STOP JUMPDEST CALLVALUE DUP1 ISZERO PUSH2 0x1C8 JUMPI PUSH0 DUP1 REVERT JUMPDEST POP PUSH2 0x1E3 PUSH1 0x4 DUP1 CALLDATASIZE SUB DUP2 ADD SWAP1 PUSH2 0x1DE SWAP2 SWAP1 PUSH2 0x11AE JUMP JUMPDEST PUSH2 0x47B JUMP JUMPDEST PUSH1 0x40 MLOAD PUSH2 0x1F0 SWAP2 SWAP1 PUSH2 0x10E6 JUMP JUMPDEST PUSH1 0x40 MLOAD DUP1 SWAP2 SUB SWAP1 RETURN JUMPDEST CALLVALUE DUP1 ISZERO PUSH2 0x204 JUMPI PUSH0 DUP1 REVERT JUMPDEST POP PUSH2 0x20D PUSH2 0x4C0 JUMP JUMPDEST PUSH1 0x40 MLOAD PUSH2 0x21A SWAP2 SWAP1 PUSH2 0xFB5 JUMP JUMPDEST PUSH1 0x40 MLOAD DUP1 SWAP2 SUB SWAP1 RETURN JUMPDEST CALLVALUE DUP1 ISZERO PUSH2 0x22E JUMPI PUSH0 DUP1 REVERT JUMPDEST POP PUSH2 0x249 PUSH1 0x4 DUP1 CALLDATASIZE SUB DUP2 ADD SWAP1 PUSH2 0x244 SWAP2 SWAP1 PUSH2 0x1066 JUMP JUMPDEST PUSH2 0x550 JUMP JUMPDEST PUSH1 0x40 MLOAD PUSH2 0x256 SWAP2 SWAP1 PUSH2 0x10BE JUMP JUMPDEST PUSH1 0x40 MLOAD DUP1 SWAP2 SUB SWAP1 RETURN JUMPDEST PUSH2 0x267 PUSH2 0x572 JUMP JUMPDEST PUSH1 0x40 MLOAD PUSH2 0x274 SWAP2 SWAP1 PUSH2 0x10E6 JUMP JUMPDEST PUSH1 0x40 MLOAD DUP1 SWAP2 SUB SWAP1 RETURN JUMPDEST CALLVALUE DUP1 ISZERO PUSH2 0x288 JUMPI PUSH0 DUP1 REVERT JUMPDEST POP PUSH2 0x2A3 PUSH1 0x4 DUP1 CALLDATASIZE SUB DUP2 ADD SWAP1 PUSH2 0x29E SWAP2 SWAP1 PUSH2 0x11D9 JUMP JUMPDEST PUSH2 0x627 JUMP JUMPDEST PUSH1 0x40 MLOAD PUSH2 0x2B0 SWAP2 SWAP1 PUSH2 0x10E6 JUMP JUMPDEST PUSH1 0x40 MLOAD DUP1 SWAP2 SUB SWAP1 RETURN JUMPDEST PUSH1 0x60 PUSH1 0x3 DUP1 SLOAD PUSH2 0x2C8 SWAP1 PUSH2 0x1244 JUMP JUMPDEST DUP1 PUSH1 0x1F ADD PUSH1 0x20 DUP1 SWAP2 DIV MUL PUSH1 0x20 ADD PUSH1 0x40 MLOAD SWAP1 DUP2 ADD PUSH1 0x40 MSTORE DUP1 SWAP3 SWAP2 SWAP1 DUP2 DUP2 MSTORE PUSH1 0x20 ADD DUP3 DUP1 SLOAD PUSH2 0x2F4 SWAP1 PUSH2 0x1244 JUMP JUMPDEST DUP1 ISZERO PUSH2 0x33F JUMPI DUP1 PUSH1 0x1F LT PUSH2 0x316 JUMPI PUSH2 0x100 DUP1 DUP4 SLOAD DIV MUL DUP4 MSTORE SWAP2 PUSH1 0x20 ADD SWAP2 PUSH2 0x33F JUMP JUMPDEST DUP3 ADD SWAP2 SWAP1 PUSH0 MSTORE PUSH1 0x20 PUSH0 KECCAK256 SWAP1 JUMPDEST DUP2 SLOAD DUP2 MSTORE SWAP1 PUSH1 0x1 ADD SWAP1 PUSH1 0x20 ADD DUP1 DUP4 GT PUSH2 0x322 JUMPI DUP3 SWAP1 SUB PUSH1 0x1F AND DUP3 ADD SWAP2 JUMPDEST POP POP POP POP POP SWAP1 POP SWAP1 JUMP JUMPDEST PUSH0 DUP1 PUSH2 0x353 PUSH2 0x6A9 JUMP JUMPDEST SWAP1 POP PUSH2 0x360 DUP2 DUP6 DUP6 PUSH2 0x6B0 JUMP JUMPDEST PUSH1 0x1 SWAP2 POP POP SWAP3 SWAP2 POP POP JUMP JUMPDEST PUSH0 PUSH1 0x2 SLOAD SWAP1 POP SWAP1 JUMP JUMPDEST PUSH0 DUP1 PUSH2 0x37E PUSH2 0x6A9 JUMP JUMPDEST SWAP1 POP PUSH2 0x38B DUP6 DUP3 DUP6 PUSH2 0x6C2 JUMP JUMPDEST PUSH2 0x396 DUP6 DUP6 DUP6 PUSH2 0x754 JUMP JUMPDEST PUSH1 0x1 SWAP2 POP POP SWAP4 SWAP3 POP POP POP JUMP JUMPDEST PUSH0 PUSH1 0x12 SWAP1 POP SWAP1 JUMP JUMPDEST PUSH2 0x3B4 CALLER DUP3 PUSH2 0x844 JUMP JUMPDEST PUSH0 DUP1 CALLER PUSH20 0xFFFFFFFFFFFFFFFFFFFFFFFFFFFFFFFFFFFFFFFF AND DUP4 PUSH1 0x40 MLOAD PUSH2 0x3DA SWAP1 PUSH2 0x12A1 JUMP JUMPDEST PUSH0 PUSH1 0x40 MLOAD DUP1 DUP4 SUB DUP2 DUP6 DUP8 GAS CALL SWAP3 POP POP POP RETURNDATASIZE DUP1 PUSH0 DUP2 EQ PUSH2 0x414 JUMPI PUSH1 0x40 MLOAD SWAP2 POP PUSH1 0x1F NOT PUSH1 0x3F RETURNDATASIZE ADD AND DUP3 ADD PUSH1 0x40 MSTORE RETURNDATASIZE DUP3 MSTORE RETURNDATASIZE PUSH0 PUSH1 0x20 DUP5 ADD RETURNDATACOPY PUSH2 0x419 JUMP JUMPDEST PUSH1 0x60 SWAP2 POP JUMPDEST POP SWAP2 POP SWAP2 POP DUP2 PUSH2 0x45E JUMPI PUSH1 0x40 MLOAD PUSH32 0x8C379A000000000000000000000000000000000000000000000000000000000 DUP2 MSTORE PUSH1 0x4 ADD PUSH2 0x455 SWAP1 PUSH2 0x12FF JUMP JUMPDEST PUSH1 0x40 MLOAD DUP1 SWAP2 SUB SWAP1 REVERT JUMPDEST DUP3 PUSH1 0x5 PUSH0 DUP3 DUP3 SLOAD PUSH2 0x46F SWAP2 SWAP1 PUSH2 0x134A JUMP JUMPDEST SWAP3 POP POP DUP2 SWAP1 SSTORE POP POP POP POP JUMP JUMPDEST PUSH0 DUP1 PUSH0 DUP4 PUSH20 0xFFFFFFFFFFFFFFFFFFFFFFFFFFFFFFFFFFFFFFFF AND PUSH20 0xFFFFFFFFFFFFFFFFFFFFFFFFFFFFFFFFFFFFFFFF AND DUP2 MSTORE PUSH1 0x20 ADD SWAP1 DUP2 MSTORE PUSH1 0x20 ADD PUSH0 KECCAK256 SLOAD SWAP1 POP SWAP2 SWAP1 POP JUMP JUMPDEST PUSH1 0x60 PUSH1 0x4 DUP1 SLOAD PUSH2 0x4CF SWAP1 PUSH2 0x1244 JUMP JUMPDEST DUP1 PUSH1 0x1F ADD PUSH1 0x20 DUP1 SWAP2 DIV MUL PUSH1 0x20 ADD PUSH1 0x40 MLOAD SWAP1 DUP2 ADD PUSH1 0x40 MSTORE DUP1 SWAP3 SWAP2 SWAP1 DUP2 DUP2 MSTORE PUSH1 0x20 ADD DUP3 DUP1 SLOAD PUSH2 0x4FB SWAP1 PUSH2 0x1244 JUMP JUMPDEST DUP1 ISZERO PUSH2 0x546 JUMPI DUP1 PUSH1 0x1F LT PUSH2 0x51D JUMPI PUSH2 0x100 DUP1 DUP4 SLOAD DIV MUL DUP4 MSTORE SWAP2 PUSH1 0x20 ADD SWAP2 PUSH2 0x546 JUMP JUMPDEST DUP3 ADD SWAP2 SWAP1 PUSH0 MSTORE PUSH1 0x20 PUSH0 KECCAK256 SWAP1 JUMPDEST DUP2 SLOAD DUP2 MSTORE SWAP1 PUSH1 0x1 ADD SWAP1 PUSH1 0x20 ADD DUP1 DUP4 GT PUSH2 0x529 JUMPI DUP3 SWAP1 SUB PUSH1 0x1F AND DUP3 ADD SWAP2 JUMPDEST POP POP POP POP POP SWAP1 POP SWAP1 JUMP JUMPDEST PUSH0 DUP1 PUSH2 0x55A PUSH2 0x6A9 JUMP JUMPDEST SWAP1 POP PUSH2 0x567 DUP2 DUP6 DUP6 PUSH2 0x754 JUMP JUMPDEST PUSH1 0x1 SWAP2 POP POP SWAP3 SWAP2 POP POP JUMP JUMPDEST PUSH0 PUSH1 0x1 PUSH8 0xFFFFFFFFFFFFFFFF AND CALLVALUE LT ISZERO PUSH2 0x596 PUSH1 0x1 PUSH8 0xFFFFFFFFFFFFFFFF AND PUSH2 0x8C3 JUMP JUMPDEST PUSH1 0x40 MLOAD PUSH1 0x20 ADD PUSH2 0x5A6 SWAP2 SWAP1 PUSH2 0x1427 JUMP JUMPDEST PUSH1 0x40 MLOAD PUSH1 0x20 DUP2 DUP4 SUB SUB DUP2 MSTORE SWAP1 PUSH1 0x40 MSTORE SWAP1 PUSH2 0x5F6 JUMPI PUSH1 0x40 MLOAD PUSH32 0x8C379A000000000000000000000000000000000000000000000000000000000 DUP2 MSTORE PUSH1 0x4 ADD PUSH2 0x5ED SWAP2 SWAP1 PUSH2 0xFB5 JUMP JUMPDEST PUSH1 0x40 MLOAD DUP1 SWAP2 SUB SWAP1 REVERT JUMPDEST POP PUSH2 0x601 CALLER CALLVALUE PUSH2 0x98D JUMP JUMPDEST CALLVALUE PUSH1 0x5 PUSH0 DUP3 DUP3 SLOAD PUSH2 0x612 SWAP2 SWAP1 PUSH2 0x1448 JUMP JUMPDEST SWAP3 POP POP DUP2 SWAP1 SSTORE POP PUSH2 0x622 CALLER PUSH2 0x47B JUMP JUMPDEST SWAP1 POP SWAP1 JUMP JUMPDEST PUSH0 PUSH1 0x1 PUSH0 DUP5 PUSH20 0xFFFFFFFFFFFFFFFFFFFFFFFFFFFFFFFFFFFFFFFF AND PUSH20 0xFFFFFFFFFFFFFFFFFFFFFFFFFFFFFFFFFFFFFFFF AND DUP2 MSTORE PUSH1 0x20 ADD SWAP1 DUP2 MSTORE PUSH1 0x20 ADD PUSH0 KECCAK256 PUSH0 DUP4 PUSH20 0xFFFFFFFFFFFFFFFFFFFFFFFFFFFFFFFFFFFFFFFF AND PUSH20 0xFFFFFFFFFFFFFFFFFFFFFFFFFFFFFFFFFFFFFFFF AND DUP2 MSTORE PUSH1 0x20 ADD SWAP1 DUP2 MSTORE PUSH1 0x20 ADD PUSH0 KECCAK256 SLOAD SWAP1 POP SWAP3 SWAP2 POP POP JUMP JUMPDEST PUSH0 CALLER SWAP1 POP SWAP1 JUMP JUMPDEST PUSH2 0x6BD DUP4 DUP4 DUP4 PUSH1 0x1 PUSH2 0xA0C JUMP JUMPDEST POP POP POP JUMP JUMPDEST PUSH0 PUSH2 0x6CD DUP5 DUP5 PUSH2 0x627 JUMP JUMPDEST SWAP1 POP PUSH32 0xFFFFFFFFFFFFFFFFFFFFFFFFFFFFFFFFFFFFFFFFFFFFFFFFFFFFFFFFFFFFFFFF DUP2 EQ PUSH2 0x74E JUMPI DUP2 DUP2 LT ISZERO PUSH2 0x73F JUMPI DUP3 DUP2 DUP4 PUSH1 0x40 MLOAD PUSH32 0xFB8F41B200000000000000000000000000000000000000000000000000000000 DUP2 MSTORE PUSH1 0x4 ADD PUSH2 0x736 SWAP4 SWAP3 SWAP2 SWAP1 PUSH2 0x148A JUMP JUMPDEST PUSH1 0x40 MLOAD DUP1 SWAP2 SUB SWAP1 REVERT JUMPDEST PUSH2 0x74D DUP5 DUP5 DUP5 DUP5 SUB PUSH0 PUSH2 0xA0C JUMP JUMPDEST JUMPDEST POP POP POP POP JUMP JUMPDEST PUSH0 PUSH20 0xFFFFFFFFFFFFFFFFFFFFFFFFFFFFFFFFFFFFFFFF AND DUP4 PUSH20 0xFFFFFFFFFFFFFFFFFFFFFFFFFFFFFFFFFFFFFFFF AND SUB PUSH2 0x7C4 JUMPI PUSH0 PUSH1 0x40 MLOAD PUSH32 0x96C6FD1E00000000000000000000000000000000000000000000000000000000 DUP2 MSTORE PUSH1 0x4 ADD PUSH2 0x7BB SWAP2 SWAP1 PUSH2 0x14BF JUMP JUMPDEST PUSH1 0x40 MLOAD DUP1 SWAP2 SUB SWAP1 REVERT JUMPDEST PUSH0 PUSH20 0xFFFFFFFFFFFFFFFFFFFFFFFFFFFFFFFFFFFFFFFF AND DUP3 PUSH20 0xFFFFFFFFFFFFFFFFFFFFFFFFFFFFFFFFFFFFFFFF AND SUB PUSH2 0x834 JUMPI PUSH0 PUSH1 0x40 MLOAD PUSH32 0xEC442F0500000000000000000000000000000000000000000000000000000000 DUP2 MSTORE PUSH1 0x4 ADD PUSH2 0x82B SWAP2 SWAP1 PUSH2 0x14BF JUMP JUMPDEST PUSH1 0x40 MLOAD DUP1 SWAP2 SUB SWAP1 REVERT JUMPDEST PUSH2 0x83F DUP4 DUP4 DUP4 PUSH2 0xBDB JUMP JUMPDEST POP POP POP JUMP JUMPDEST PUSH0 PUSH20 0xFFFFFFFFFFFFFFFFFFFFFFFFFFFFFFFFFFFFFFFF AND DUP3 PUSH20 0xFFFFFFFFFFFFFFFFFFFFFFFFFFFFFFFFFFFFFFFF AND SUB PUSH2 0x8B4 JUMPI PUSH0 PUSH1 0x40 MLOAD PUSH32 0x96C6FD1E00000000000000000000000000000000000000000000000000000000 DUP2 MSTORE PUSH1 0x4 ADD PUSH2 0x8AB SWAP2 SWAP1 PUSH2 0x14BF JUMP JUMPDEST PUSH1 0x40 MLOAD DUP1 SWAP2 SUB SWAP1 REVERT JUMPDEST PUSH2 0x8BF DUP3 PUSH0 DUP4 PUSH2 0xBDB JUMP JUMPDEST POP POP JUMP JUMPDEST PUSH1 0x60 PUSH0 PUSH1 0x1 PUSH2 0x8D1 DUP5 PUSH2 0xDF4 JUMP JUMPDEST ADD SWAP1 POP PUSH0 DUP2 PUSH8 0xFFFFFFFFFFFFFFFF DUP2 GT ISZERO PUSH2 0x8EF JUMPI PUSH2 0x8EE PUSH2 0x14D8 JUMP JUMPDEST JUMPDEST PUSH1 0x40 MLOAD SWAP1 DUP1 DUP3 MSTORE DUP1 PUSH1 0x1F ADD PUSH1 0x1F NOT AND PUSH1 0x20 ADD DUP3 ADD PUSH1 0x40 MSTORE DUP1 ISZERO PUSH2 0x921 JUMPI DUP2 PUSH1 0x20 ADD PUSH1 0x1 DUP3 MUL DUP1 CALLDATASIZE DUP4 CALLDATACOPY DUP1 DUP3 ADD SWAP2 POP POP SWAP1 POP JUMPDEST POP SWAP1 POP PUSH0 DUP3 PUSH1 0x20 ADD DUP3 ADD SWAP1 POP JUMPDEST PUSH1 0x1 ISZERO PUSH2 0x982 JUMPI DUP1 DUP1 PUSH1 0x1 SWAP1 SUB SWAP2 POP POP PUSH32 0x3031323334353637383961626364656600000000000000000000000000000000 PUSH1 0xA DUP7 MOD BYTE DUP2 MSTORE8 PUSH1 0xA DUP6 DUP2 PUSH2 0x977 JUMPI PUSH2 0x976 PUSH2 0x1505 JUMP JUMPDEST JUMPDEST DIV SWAP5 POP PUSH0 DUP6 SUB PUSH2 0x92E JUMPI JUMPDEST DUP2 SWAP4 POP POP POP POP SWAP2 SWAP1 POP JUMP JUMPDEST PUSH0 PUSH20 0xFFFFFFFFFFFFFFFFFFFFFFFFFFFFFFFFFFFFFFFF AND DUP3 PUSH20 0xFFFFFFFFFFFFFFFFFFFFFFFFFFFFFFFFFFFFFFFF AND SUB PUSH2 0x9FD JUMPI PUSH0 PUSH1 0x40 MLOAD PUSH32 0xEC442F0500000000000000000000000000000000000000000000000000000000 DUP2 MSTORE PUSH1 0x4 ADD PUSH2 0x9F4 SWAP2 SWAP1 PUSH2 0x14BF JUMP JUMPDEST PUSH1 0x40 MLOAD DUP1 SWAP2 SUB SWAP1 REVERT JUMPDEST PUSH2 0xA08 PUSH0 DUP4 DUP4 PUSH2 0xBDB JUMP JUMPDEST POP POP JUMP JUMPDEST PUSH0 PUSH20 0xFFFFFFFFFFFFFFFFFFFFFFFFFFFFFFFFFFFFFFFF AND DUP5 PUSH20 0xFFFFFFFFFFFFFFFFFFFFFFFFFFFFFFFFFFFFFFFF AND SUB PUSH2 0xA7C JUMPI PUSH0 PUSH1 0x40 MLOAD PUSH32 0xE602DF0500000000000000000000000000000000000000000000000000000000 DUP2 MSTORE PUSH1 0x4 ADD PUSH2 0xA73 SWAP2 SWAP1 PUSH2 0x14BF JUMP JUMPDEST PUSH1 0x40 MLOAD DUP1 SWAP2 SUB SWAP1 REVERT JUMPDEST PUSH0 PUSH20 0xFFFFFFFFFFFFFFFFFFFFFFFFFFFFFFFFFFFFFFFF AND DUP4 PUSH20 0xFFFFFFFFFFFFFFFFFFFFFFFFFFFFFFFFFFFFFFFF AND SUB PUSH2 0xAEC JUMPI PUSH0 PUSH1 0x40 MLOAD PUSH32 0x94280D6200000000000000000000000000000000000000000000000000000000 DUP2 MSTORE PUSH1 0x4 ADD PUSH2 0xAE3 SWAP2 SWAP1 PUSH2 0x14BF JUMP JUMPDEST PUSH1 0x40 MLOAD DUP1 SWAP2 SUB SWAP1 REVERT JUMPDEST DUP2 PUSH1 0x1 PUSH0 DUP7 PUSH20 0xFFFFFFFFFFFFFFFFFFFFFFFFFFFFFFFFFFFFFFFF AND PUSH20 0xFFFFFFFFFFFFFFFFFFFFFFFFFFFFFFFFFFFFFFFF AND DUP2 MSTORE PUSH1 0x20 ADD SWAP1 DUP2 MSTORE PUSH1 0x20 ADD PUSH0 KECCAK256 PUSH0 DUP6 PUSH20 0xFFFFFFFFFFFFFFFFFFFFFFFFFFFFFFFFFFFFFFFF AND PUSH20 0xFFFFFFFFFFFFFFFFFFFFFFFFFFFFFFFFFFFFFFFF AND DUP2 MSTORE PUSH1 0x20 ADD SWAP1 DUP2 MSTORE PUSH1 0x20 ADD PUSH0 KECCAK256 DUP2 SWAP1 SSTORE POP DUP1 ISZERO PUSH2 0xBD5 JUMPI DUP3 PUSH20 0xFFFFFFFFFFFFFFFFFFFFFFFFFFFFFFFFFFFFFFFF AND DUP5 PUSH20 0xFFFFFFFFFFFFFFFFFFFFFFFFFFFFFFFFFFFFFFFF AND PUSH32 0x8C5BE1E5EBEC7D5BD14F71427D1E84F3DD0314C0F7B2291E5B200AC8C7C3B925 DUP5 PUSH1 0x40 MLOAD PUSH2 0xBCC SWAP2 SWAP1 PUSH2 0x10E6 JUMP JUMPDEST PUSH1 0x40 MLOAD DUP1 SWAP2 SUB SWAP1 LOG3 JUMPDEST POP POP POP POP JUMP JUMPDEST PUSH0 PUSH20 0xFFFFFFFFFFFFFFFFFFFFFFFFFFFFFFFFFFFFFFFF AND DUP4 PUSH20 0xFFFFFFFFFFFFFFFFFFFFFFFFFFFFFFFFFFFFFFFF AND SUB PUSH2 0xC2B JUMPI DUP1 PUSH1 0x2 PUSH0 DUP3 DUP3 SLOAD PUSH2 0xC1F SWAP2 SWAP1 PUSH2 0x1448 JUMP JUMPDEST SWAP3 POP POP DUP2 SWAP1 SSTORE POP PUSH2 0xCF9 JUMP JUMPDEST PUSH0 DUP1 PUSH0 DUP6 PUSH20 0xFFFFFFFFFFFFFFFFFFFFFFFFFFFFFFFFFFFFFFFF AND PUSH20 0xFFFFFFFFFFFFFFFFFFFFFFFFFFFFFFFFFFFFFFFF AND DUP2 MSTORE PUSH1 0x20 ADD SWAP1 DUP2 MSTORE PUSH1 0x20 ADD PUSH0 KECCAK256 SLOAD SWAP1 POP DUP2 DUP2 LT ISZERO PUSH2 0xCB4 JUMPI DUP4 DUP2 DUP4 PUSH1 0x40 MLOAD PUSH32 0xE450D38C00000000000000000000000000000000000000000000000000000000 DUP2 MSTORE PUSH1 0x4 ADD PUSH2 0xCAB SWAP4 SWAP3 SWAP2 SWAP1 PUSH2 0x148A JUMP JUMPDEST PUSH1 0x40 MLOAD DUP1 SWAP2 SUB SWAP1 REVERT JUMPDEST DUP2 DUP2 SUB PUSH0 DUP1 DUP7 PUSH20 0xFFFFFFFFFFFFFFFFFFFFFFFFFFFFFFFFFFFFFFFF AND PUSH20 0xFFFFFFFFFFFFFFFFFFFFFFFFFFFFFFFFFFFFFFFF AND DUP2 MSTORE PUSH1 0x20 ADD SWAP1 DUP2 MSTORE PUSH1 0x20 ADD PUSH0 KECCAK256 DUP2 SWAP1 SSTORE POP POP JUMPDEST PUSH0 PUSH20 0xFFFFFFFFFFFFFFFFFFFFFFFFFFFFFFFFFFFFFFFF AND DUP3 PUSH20 0xFFFFFFFFFFFFFFFFFFFFFFFFFFFFFFFFFFFFFFFF AND SUB PUSH2 0xD40 JUMPI DUP1 PUSH1 0x2 PUSH0 DUP3 DUP3 SLOAD SUB SWAP3 POP POP DUP2 SWAP1 SSTORE POP PUSH2 0xD8A JUMP JUMPDEST DUP1 PUSH0 DUP1 DUP5 PUSH20 0xFFFFFFFFFFFFFFFFFFFFFFFFFFFFFFFFFFFFFFFF AND PUSH20 0xFFFFFFFFFFFFFFFFFFFFFFFFFFFFFFFFFFFFFFFF AND DUP2 MSTORE PUSH1 0x20 ADD SWAP1 DUP2 MSTORE PUSH1 0x20 ADD PUSH0 KECCAK256 PUSH0 DUP3 DUP3 SLOAD ADD SWAP3 POP POP DUP2 SWAP1 SSTORE POP JUMPDEST DUP2 PUSH20 0xFFFFFFFFFFFFFFFFFFFFFFFFFFFFFFFFFFFFFFFF AND DUP4 PUSH20 0xFFFFFFFFFFFFFFFFFFFFFFFFFFFFFFFFFFFFFFFF AND PUSH32 0xDDF252AD1BE2C89B69C2B068FC378DAA952BA7F163C4A11628F55A4DF523B3EF DUP4 PUSH1 0x40 MLOAD PUSH2 0xDE7 SWAP2 SWAP1 PUSH2 0x10E6 JUMP JUMPDEST PUSH1 0x40 MLOAD DUP1 SWAP2 SUB SWAP1 LOG3 POP POP POP JUMP JUMPDEST PUSH0 DUP1 PUSH0 SWAP1 POP PUSH27 0x184F03E93FF9F4DAA797ED6E38ED64BF6A1F010000000000000000 DUP4 LT PUSH2 0xE50 JUMPI PUSH27 0x184F03E93FF9F4DAA797ED6E38ED64BF6A1F010000000000000000 DUP4 DUP2 PUSH2 0xE46 JUMPI PUSH2 0xE45 PUSH2 0x1505 JUMP JUMPDEST JUMPDEST DIV SWAP3 POP PUSH1 0x40 DUP2 ADD SWAP1 POP JUMPDEST PUSH14 0x4EE2D6D415B85ACEF8100000000 DUP4 LT PUSH2 0xE8D JUMPI PUSH14 0x4EE2D6D415B85ACEF8100000000 DUP4 DUP2 PUSH2 0xE83 JUMPI PUSH2 0xE82 PUSH2 0x1505 JUMP JUMPDEST JUMPDEST DIV SWAP3 POP PUSH1 0x20 DUP2 ADD SWAP1 POP JUMPDEST PUSH7 0x2386F26FC10000 DUP4 LT PUSH2 0xEBC JUMPI PUSH7 0x2386F26FC10000 DUP4 DUP2 PUSH2 0xEB2 JUMPI PUSH2 0xEB1 PUSH2 0x1505 JUMP JUMPDEST JUMPDEST DIV SWAP3 POP PUSH1 0x10 DUP2 ADD SWAP1 POP JUMPDEST PUSH4 0x5F5E100 DUP4 LT PUSH2 0xEE5 JUMPI PUSH4 0x5F5E100 DUP4 DUP2 PUSH2 0xEDB JUMPI PUSH2 0xEDA PUSH2 0x1505 JUMP JUMPDEST JUMPDEST DIV SWAP3 POP PUSH1 0x8 DUP2 ADD SWAP1 POP JUMPDEST PUSH2 0x2710 DUP4 LT PUSH2 0xF0A JUMPI PUSH2 0x2710 DUP4 DUP2 PUSH2 0xF00 JUMPI PUSH2 0xEFF PUSH2 0x1505 JUMP JUMPDEST JUMPDEST DIV SWAP3 POP PUSH1 0x4 DUP2 ADD SWAP1 POP JUMPDEST PUSH1 0x64 DUP4 LT PUSH2 0xF2D JUMPI PUSH1 0x64 DUP4 DUP2 PUSH2 0xF23 JUMPI PUSH2 0xF22 PUSH2 0x1505 JUMP JUMPDEST JUMPDEST DIV SWAP3 POP PUSH1 0x2 DUP2 ADD SWAP1 POP JUMPDEST PUSH1 0xA DUP4 LT PUSH2 0xF3C JUMPI PUSH1 0x1 DUP2 ADD SWAP1 POP JUMPDEST DUP1 SWAP2 POP POP SWAP2 SWAP1 POP JUMP JUMPDEST PUSH0 DUP2 MLOAD SWAP1 POP SWAP2 SWAP1 POP JUMP JUMPDEST PUSH0 DUP3 DUP3 MSTORE PUSH1 0x20 DUP3 ADD SWAP1 POP SWAP3 SWAP2 POP POP JUMP JUMPDEST DUP3 DUP2 DUP4 MCOPY PUSH0 DUP4 DUP4 ADD MSTORE POP POP POP JUMP JUMPDEST PUSH0 PUSH1 0x1F NOT PUSH1 0x1F DUP4 ADD AND SWAP1 POP SWAP2 SWAP1 POP JUMP JUMPDEST PUSH0 PUSH2 0xF87 DUP3 PUSH2 0xF45 JUMP JUMPDEST PUSH2 0xF91 DUP2 DUP6 PUSH2 0xF4F JUMP JUMPDEST SWAP4 POP PUSH2 0xFA1 DUP2 DUP6 PUSH1 0x20 DUP7 ADD PUSH2 0xF5F JUMP JUMPDEST PUSH2 0xFAA DUP2 PUSH2 0xF6D JUMP JUMPDEST DUP5 ADD SWAP2 POP POP SWAP3 SWAP2 POP POP JUMP JUMPDEST PUSH0 PUSH1 0x20 DUP3 ADD SWAP1 POP DUP2 DUP2 SUB PUSH0 DUP4 ADD MSTORE PUSH2 0xFCD DUP2 DUP5 PUSH2 0xF7D JUMP JUMPDEST SWAP1 POP SWAP3 SWAP2 POP POP JUMP JUMPDEST PUSH0 DUP1 REVERT JUMPDEST PUSH0 PUSH20 0xFFFFFFFFFFFFFFFFFFFFFFFFFFFFFFFFFFFFFFFF DUP3 AND SWAP1 POP SWAP2 SWAP1 POP JUMP JUMPDEST PUSH0 PUSH2 0x1002 DUP3 PUSH2 0xFD9 JUMP JUMPDEST SWAP1 POP SWAP2 SWAP1 POP JUMP JUMPDEST PUSH2 0x1012 DUP2 PUSH2 0xFF8 JUMP JUMPDEST DUP2 EQ PUSH2 0x101C JUMPI PUSH0 DUP1 REVERT JUMPDEST POP JUMP JUMPDEST PUSH0 DUP2 CALLDATALOAD SWAP1 POP PUSH2 0x102D DUP2 PUSH2 0x1009 JUMP JUMPDEST SWAP3 SWAP2 POP POP JUMP JUMPDEST PUSH0 DUP2 SWAP1 POP SWAP2 SWAP1 POP JUMP JUMPDEST PUSH2 0x1045 DUP2 PUSH2 0x1033 JUMP JUMPDEST DUP2 EQ PUSH2 0x104F JUMPI PUSH0 DUP1 REVERT JUMPDEST POP JUMP JUMPDEST PUSH0 DUP2 CALLDATALOAD SWAP1 POP PUSH2 0x1060 DUP2 PUSH2 0x103C JUMP JUMPDEST SWAP3 SWAP2 POP POP JUMP JUMPDEST PUSH0 DUP1 PUSH1 0x40 DUP4 DUP6 SUB SLT ISZERO PUSH2 0x107C JUMPI PUSH2 0x107B PUSH2 0xFD5 JUMP JUMPDEST JUMPDEST PUSH0 PUSH2 0x1089 DUP6 DUP3 DUP7 ADD PUSH2 0x101F JUMP JUMPDEST SWAP3 POP POP PUSH1 0x20 PUSH2 0x109A DUP6 DUP3 DUP7 ADD PUSH2 0x1052 JUMP JUMPDEST SWAP2 POP POP SWAP3 POP SWAP3 SWAP1 POP JUMP JUMPDEST PUSH0 DUP2 ISZERO ISZERO SWAP1 POP SWAP2 SWAP1 POP JUMP JUMPDEST PUSH2 0x10B8 DUP2 PUSH2 0x10A4 JUMP JUMPDEST DUP3 MSTORE POP POP JUMP JUMPDEST PUSH0 PUSH1 0x20 DUP3 ADD SWAP1 POP PUSH2 0x10D1 PUSH0 DUP4 ADD DUP5 PUSH2 0x10AF JUMP JUMPDEST SWAP3 SWAP2 POP POP JUMP JUMPDEST PUSH2 0x10E0 DUP2 PUSH2 0x1033 JUMP JUMPDEST DUP3 MSTORE POP POP JUMP JUMPDEST PUSH0 PUSH1 0x20 DUP3 ADD SWAP1 POP PUSH2 0x10F9 PUSH0 DUP4 ADD DUP5 PUSH2 0x10D7 JUMP JUMPDEST SWAP3 SWAP2 POP POP JUMP JUMPDEST PUSH0 DUP1 PUSH0 PUSH1 0x60 DUP5 DUP7 SUB SLT ISZERO PUSH2 0x1116 JUMPI PUSH2 0x1115 PUSH2 0xFD5 JUMP JUMPDEST JUMPDEST PUSH0 PUSH2 0x1123 DUP7 DUP3 DUP8 ADD PUSH2 0x101F JUMP JUMPDEST SWAP4 POP POP PUSH1 0x20 PUSH2 0x1134 DUP7 DUP3 DUP8 ADD PUSH2 0x101F JUMP JUMPDEST SWAP3 POP POP PUSH1 0x40 PUSH2 0x1145 DUP7 DUP3 DUP8 ADD PUSH2 0x1052 JUMP JUMPDEST SWAP2 POP POP SWAP3 POP SWAP3 POP SWAP3 JUMP JUMPDEST PUSH0 PUSH1 0xFF DUP3 AND SWAP1 POP SWAP2 SWAP1 POP JUMP JUMPDEST PUSH2 0x1164 DUP2 PUSH2 0x114F JUMP JUMPDEST DUP3 MSTORE POP POP JUMP JUMPDEST PUSH0 PUSH1 0x20 DUP3 ADD SWAP1 POP PUSH2 0x117D PUSH0 DUP4 ADD DUP5 PUSH2 0x115B JUMP JUMPDEST SWAP3 SWAP2 POP POP JUMP JUMPDEST PUSH0 PUSH1 0x20 DUP3 DUP5 SUB SLT ISZERO PUSH2 0x1198 JUMPI PUSH2 0x1197 PUSH2 0xFD5 JUMP JUMPDEST JUMPDEST PUSH0 PUSH2 0x11A5 DUP5 DUP3 DUP6 ADD PUSH2 0x1052 JUMP JUMPDEST SWAP2 POP POP SWAP3 SWAP2 POP POP JUMP JUMPDEST PUSH0 PUSH1 0x20 DUP3 DUP5 SUB SLT ISZERO PUSH2 0x11C3 JUMPI PUSH2 0x11C2 PUSH2 0xFD5 JUMP JUMPDEST JUMPDEST PUSH0 PUSH2 0x11D0 DUP5 DUP3 DUP6 ADD PUSH2 0x101F JUMP JUMPDEST SWAP2 POP POP SWAP3 SWAP2 POP POP JUMP JUMPDEST PUSH0 DUP1 PUSH1 0x40 DUP4 DUP6 SUB SLT ISZERO PUSH2 0x11EF JUMPI PUSH2 0x11EE PUSH2 0xFD5 JUMP JUMPDEST JUMPDEST PUSH0 PUSH2 0x11FC DUP6 DUP3 DUP7 ADD PUSH2 0x101F JUMP JUMPDEST SWAP3 POP POP PUSH1 0x20 PUSH2 0x120D DUP6 DUP3 DUP7 ADD PUSH2 0x101F JUMP JUMPDEST SWAP2 POP POP SWAP3 POP SWAP3 SWAP1 POP JUMP JUMPDEST PUSH32 0x4E487B7100000000000000000000000000000000000000000000000000000000 PUSH0 MSTORE PUSH1 0x22 PUSH1 0x4 MSTORE PUSH1 0x24 PUSH0 REVERT JUMPDEST PUSH0 PUSH1 0x2 DUP3 DIV SWAP1 POP PUSH1 0x1 DUP3 AND DUP1 PUSH2 0x125B JUMPI PUSH1 0x7F DUP3 AND SWAP2 POP JUMPDEST PUSH1 0x20 DUP3 LT DUP2 SUB PUSH2 0x126E JUMPI PUSH2 0x126D PUSH2 0x1217 JUMP JUMPDEST JUMPDEST POP SWAP2 SWAP1 POP JUMP JUMPDEST PUSH0 DUP2 SWAP1 POP SWAP3 SWAP2 POP POP JUMP JUMPDEST POP JUMP JUMPDEST PUSH0 PUSH2 0x128C PUSH0 DUP4 PUSH2 0x1274 JUMP JUMPDEST SWAP2 POP PUSH2 0x1297 DUP3 PUSH2 0x127E JUMP JUMPDEST PUSH0 DUP3 ADD SWAP1 POP SWAP2 SWAP1 POP JUMP JUMPDEST PUSH0 PUSH2 0x12AB DUP3 PUSH2 0x1281 JUMP JUMPDEST SWAP2 POP DUP2 SWAP1 POP SWAP2 SWAP1 POP JUMP JUMPDEST PUSH32 0x4661696C656420746F2073656C6C204144540000000000000000000000000000 PUSH0 DUP3 ADD MSTORE POP JUMP JUMPDEST PUSH0 PUSH2 0x12E9 PUSH1 0x12 DUP4 PUSH2 0xF4F JUMP JUMPDEST SWAP2 POP PUSH2 0x12F4 DUP3 PUSH2 0x12B5 JUMP JUMPDEST PUSH1 0x20 DUP3 ADD SWAP1 POP SWAP2 SWAP1 POP JUMP JUMPDEST PUSH0 PUSH1 0x20 DUP3 ADD SWAP1 POP DUP2 DUP2 SUB PUSH0 DUP4 ADD MSTORE PUSH2 0x1316 DUP2 PUSH2 0x12DD JUMP JUMPDEST SWAP1 POP SWAP2 SWAP1 POP JUMP JUMPDEST PUSH32 0x4E487B7100000000000000000000000000000000000000000000000000000000 PUSH0 MSTORE PUSH1 0x11 PUSH1 0x4 MSTORE PUSH1 0x24 PUSH0 REVERT JUMPDEST PUSH0 PUSH2 0x1354 DUP3 PUSH2 0x1033 JUMP JUMPDEST SWAP2 POP PUSH2 0x135F DUP4 PUSH2 0x1033 JUMP JUMPDEST SWAP3 POP DUP3 DUP3 SUB SWAP1 POP DUP2 DUP2 GT ISZERO PUSH2 0x1377 JUMPI PUSH2 0x1376 PUSH2 0x131D JUMP JUMPDEST JUMPDEST SWAP3 SWAP2 POP POP JUMP JUMPDEST PUSH0 DUP2 SWAP1 POP SWAP3 SWAP2 POP POP JUMP JUMPDEST PUSH0 PUSH2 0x1391 DUP3 PUSH2 0xF45 JUMP JUMPDEST PUSH2 0x139B DUP2 DUP6 PUSH2 0x137D JUMP JUMPDEST SWAP4 POP PUSH2 0x13AB DUP2 DUP6 PUSH1 0x20 DUP7 ADD PUSH2 0xF5F JUMP JUMPDEST DUP1 DUP5 ADD SWAP2 POP POP SWAP3 SWAP2 POP POP JUMP JUMPDEST PUSH32 0x20574549206973206D696E696D756D2076616C756520746F2062757920746F6B PUSH0 DUP3 ADD MSTORE PUSH32 0x656E2C20657120312045544820746F2031204144540000000000000000000000 PUSH1 0x20 DUP3 ADD MSTORE POP JUMP JUMPDEST PUSH0 PUSH2 0x1411 PUSH1 0x35 DUP4 PUSH2 0x137D JUMP JUMPDEST SWAP2 POP PUSH2 0x141C DUP3 PUSH2 0x13B7 JUMP JUMPDEST PUSH1 0x35 DUP3 ADD SWAP1 POP SWAP2 SWAP1 POP JUMP JUMPDEST PUSH0 PUSH2 0x1432 DUP3 DUP5 PUSH2 0x1387 JUMP JUMPDEST SWAP2 POP PUSH2 0x143D DUP3 PUSH2 0x1405 JUMP JUMPDEST SWAP2 POP DUP2 SWAP1 POP SWAP3 SWAP2 POP POP JUMP JUMPDEST PUSH0 PUSH2 0x1452 DUP3 PUSH2 0x1033 JUMP JUMPDEST SWAP2 POP PUSH2 0x145D DUP4 PUSH2 0x1033 JUMP JUMPDEST SWAP3 POP DUP3 DUP3 ADD SWAP1 POP DUP1 DUP3 GT ISZERO PUSH2 0x1475 JUMPI PUSH2 0x1474 PUSH2 0x131D JUMP JUMPDEST JUMPDEST SWAP3 SWAP2 POP POP JUMP JUMPDEST PUSH2 0x1484 DUP2 PUSH2 0xFF8 JUMP JUMPDEST DUP3 MSTORE POP POP JUMP JUMPDEST PUSH0 PUSH1 0x60 DUP3 ADD SWAP1 POP PUSH2 0x149D PUSH0 DUP4 ADD DUP7 PUSH2 0x147B JUMP JUMPDEST PUSH2 0x14AA PUSH1 0x20 DUP4 ADD DUP6 PUSH2 0x10D7 JUMP JUMPDEST PUSH2 0x14B7 PUSH1 0x40 DUP4 ADD DUP5 PUSH2 0x10D7 JUMP JUMPDEST SWAP5 SWAP4 POP POP POP POP JUMP JUMPDEST PUSH0 PUSH1 0x20 DUP3 ADD SWAP1 POP PUSH2 0x14D2 PUSH0 DUP4 ADD DUP5 PUSH2 0x147B JUMP JUMPDEST SWAP3 SWAP2 POP POP JUMP JUMPDEST PUSH32 0x4E487B7100000000000000000000000000000000000000000000000000000000 PUSH0 MSTORE PUSH1 0x41 PUSH1 0x4 MSTORE PUSH1 0x24 PUSH0 REVERT JUMPDEST PUSH32 0x4E487B7100000000000000000000000000000000000000000000000000000000 PUSH0 MSTORE PUSH1 0x12 PUSH1 0x4 MSTORE PUSH1 0x24 PUSH0 REVERT INVALID LOG2 PUSH5 0x6970667358 0x22 SLT KECCAK256 0x4C EXTCODECOPY PUSH19 0x44702C13E6501DC5A038B84B9528B0255FCDF7 PUSH13 0x935D0A83EF1EE8890564736F6C PUSH4 0x4300081A STOP CALLER "
				},
				"gasEstimates": {
					"creation": {
						"codeDepositCost": "1096000",
						"executionCost": "infinite",
						"totalCost": "infinite"
					},
					"external": {
						"allowance(address,address)": "infinite",
						"approve(address,uint256)": "infinite",
						"balanceOf(address)": "2851",
						"buyADT()": "infinite",
						"decimals()": "427",
						"name()": "infinite",
						"sellADT(uint256)": "infinite",
						"symbol()": "infinite",
						"totalSupply()": "2477",
						"transfer(address,uint256)": "infinite",
						"transferFrom(address,address,uint256)": "infinite"
					}
				},
				"methodIdentifiers": {
					"allowance(address,address)": "dd62ed3e",
					"approve(address,uint256)": "095ea7b3",
					"balanceOf(address)": "70a08231",
					"buyADT()": "d5dca896",
					"decimals()": "313ce567",
					"name()": "06fdde03",
					"sellADT(uint256)": "67c0feab",
					"symbol()": "95d89b41",
					"totalSupply()": "18160ddd",
					"transfer(address,uint256)": "a9059cbb",
					"transferFrom(address,address,uint256)": "23b872dd"
				}
			},
			"storageLayout": {
				"storage": [
					{
						"astId": 279,
						"contract": "ADToken_flattened.sol:ADToken",
						"label": "_balances",
						"offset": 0,
						"slot": "0",
						"type": "t_mapping(t_address,t_uint256)"
					},
					{
						"astId": 285,
						"contract": "ADToken_flattened.sol:ADToken",
						"label": "_allowances",
						"offset": 0,
						"slot": "1",
						"type": "t_mapping(t_address,t_mapping(t_address,t_uint256))"
					},
					{
						"astId": 287,
						"contract": "ADToken_flattened.sol:ADToken",
						"label": "_totalSupply",
						"offset": 0,
						"slot": "2",
						"type": "t_uint256"
					},
					{
						"astId": 289,
						"contract": "ADToken_flattened.sol:ADToken",
						"label": "_name",
						"offset": 0,
						"slot": "3",
						"type": "t_string_storage"
					},
					{
						"astId": 291,
						"contract": "ADToken_flattened.sol:ADToken",
						"label": "_symbol",
						"offset": 0,
						"slot": "4",
						"type": "t_string_storage"
					},
					{
						"astId": 2186,
						"contract": "ADToken_flattened.sol:ADToken",
						"label": "balance",
						"offset": 0,
						"slot": "5",
						"type": "t_uint256"
					}
				],
				"types": {
					"t_address": {
						"encoding": "inplace",
						"label": "address",
						"numberOfBytes": "20"
					},
					"t_mapping(t_address,t_mapping(t_address,t_uint256))": {
						"encoding": "mapping",
						"key": "t_address",
						"label": "mapping(address => mapping(address => uint256))",
						"numberOfBytes": "32",
						"value": "t_mapping(t_address,t_uint256)"
					},
					"t_mapping(t_address,t_uint256)": {
						"encoding": "mapping",
						"key": "t_address",
						"label": "mapping(address => uint256)",
						"numberOfBytes": "32",
						"value": "t_uint256"
					},
					"t_string_storage": {
						"encoding": "bytes",
						"label": "string",
						"numberOfBytes": "32"
					},
					"t_uint256": {
						"encoding": "inplace",
						"label": "uint256",
						"numberOfBytes": "32"
					}
				}
			},
			"userdoc": {
				"kind": "user",
				"methods": {},
				"version": 1
			}
		}
	}
}