{
	"Volunteer_flattened.sol": {
		"Volunteer": {
			"abi": [
				{
					"inputs": [
						{
							"internalType": "address",
							"name": "_adtTokenAddr",
							"type": "address"
						}
					],
					"stateMutability": "nonpayable",
					"type": "constructor"
				},
				{
					"anonymous": false,
					"inputs": [
						{
							"indexed": false,
							"internalType": "string",
							"name": "action",
							"type": "string"
						},
						{
							"indexed": false,
							"internalType": "uint256",
							"name": "value",
							"type": "uint256"
						},
						{
							"indexed": false,
							"internalType": "string",
							"name": "currency",
							"type": "string"
						},
						{
							"indexed": false,
							"internalType": "address",
							"name": "userAddr",
							"type": "address"
						}
					],
					"name": "ActionEvent",
					"type": "event"
				},
				{
					"inputs": [],
					"name": "donate",
					"outputs": [],
					"stateMutability": "payable",
					"type": "function"
				},
				{
					"inputs": [
						{
							"internalType": "uint256",
							"name": "adtValue",
							"type": "uint256"
						}
					],
					"name": "donateADT",
					"outputs": [],
					"stateMutability": "nonpayable",
					"type": "function"
				},
				{
					"inputs": [
						{
							"internalType": "string",
							"name": "currency",
							"type": "string"
						}
					],
					"name": "getDonatedTotal",
					"outputs": [
						{
							"internalType": "uint256",
							"name": "",
							"type": "uint256"
						}
					],
					"stateMutability": "view",
					"type": "function"
				},
				{
					"inputs": [
						{
							"internalType": "address",
							"name": "addr",
							"type": "address"
						},
						{
							"internalType": "string",
							"name": "currency",
							"type": "string"
						}
					],
					"name": "getDonationValueByAddr",
					"outputs": [
						{
							"internalType": "uint256",
							"name": "",
							"type": "uint256"
						}
					],
					"stateMutability": "view",
					"type": "function"
				},
				{
					"inputs": [
						{
							"internalType": "string",
							"name": "currency",
							"type": "string"
						}
					],
					"name": "getDonators",
					"outputs": [
						{
							"internalType": "address[]",
							"name": "",
							"type": "address[]"
						}
					],
					"stateMutability": "view",
					"type": "function"
				},
				{
					"inputs": [],
					"name": "getOwnerAdress",
					"outputs": [
						{
							"internalType": "address",
							"name": "",
							"type": "address"
						}
					],
					"stateMutability": "view",
					"type": "function"
				},
				{
					"inputs": [],
					"name": "isDeadline",
					"outputs": [
						{
							"internalType": "bool",
							"name": "",
							"type": "bool"
						}
					],
					"stateMutability": "view",
					"type": "function"
				},
				{
					"inputs": [
						{
							"internalType": "address",
							"name": "addr",
							"type": "address"
						}
					],
					"name": "setCherityDestinationAddress",
					"outputs": [],
					"stateMutability": "nonpayable",
					"type": "function"
				},
				{
					"inputs": [
						{
							"internalType": "address",
							"name": "addr",
							"type": "address"
						}
					],
					"name": "setCherityRepresentativeAddress",
					"outputs": [],
					"stateMutability": "nonpayable",
					"type": "function"
				},
				{
					"inputs": [
						{
							"internalType": "uint256",
							"name": "_deadline",
							"type": "uint256"
						}
					],
					"name": "setDeadline",
					"outputs": [],
					"stateMutability": "nonpayable",
					"type": "function"
				},
				{
					"inputs": [
						{
							"internalType": "uint256",
							"name": "_minValue",
							"type": "uint256"
						}
					],
					"name": "setMinumumDonationValue",
					"outputs": [],
					"stateMutability": "nonpayable",
					"type": "function"
				},
				{
					"inputs": [],
					"name": "withdraw",
					"outputs": [],
					"stateMutability": "nonpayable",
					"type": "function"
				},
				{
					"inputs": [],
					"name": "withdrawADT",
					"outputs": [],
					"stateMutability": "nonpayable",
					"type": "function"
				}
			],
			"devdoc": {
				"kind": "dev",
				"methods": {},
				"version": 1
			},
			"evm": {
				"assembly": "    /* \"Volunteer_flattened.sol\":22338:28622  contract Volunteer {... */\n  mstore(0x40, 0xa0)\n    /* \"Volunteer_flattened.sol\":23208:23719  constructor(address _adtTokenAddr ) {... */\n  callvalue\n  dup1\n  iszero\n  tag_1\n  jumpi\n  0x00\n  dup1\n  revert\ntag_1:\n  pop\n  mload(0x40)\n  sub(codesize, bytecodeSize)\n  dup1\n  bytecodeSize\n  dup4\n  codecopy\n  dup2\n  dup2\n  add\n  0x40\n  mstore\n  dup2\n  add\n  swap1\n  tag_2\n  swap2\n  swap1\n  tag_3\n  jump\t// in\ntag_2:\n    /* \"Volunteer_flattened.sol\":23266:23276  msg.sender */\n  caller\n    /* \"Volunteer_flattened.sol\":23254:23263  ownerAdrr */\n  0x00\n  dup1\n    /* \"Volunteer_flattened.sol\":23254:23276  ownerAdrr = msg.sender */\n  0x0100\n  exp\n  dup2\n  sload\n  dup2\n  0xffffffffffffffffffffffffffffffffffffffff\n  mul\n  not\n  and\n  swap1\n  dup4\n  0xffffffffffffffffffffffffffffffffffffffff\n  and\n  mul\n  or\n  swap1\n  sstore\n  pop\n    /* \"Volunteer_flattened.sol\":23333:23380  setMinumumDonationValue(defaultMinimumDonation) */\n  tag_6\n    /* \"Volunteer_flattened.sol\":22887:22888  1 */\n  0x01\n    /* \"Volunteer_flattened.sol\":23333:23380  setMinumumDonationValue(defaultMinimumDonation) */\n  0xffffffffffffffff\n  and\n    /* \"Volunteer_flattened.sol\":23333:23356  setMinumumDonationValue */\n  shl(0x20, tag_7)\n    /* \"Volunteer_flattened.sol\":23333:23380  setMinumumDonationValue(defaultMinimumDonation) */\n  0x20\n  shr\n  jump\t// in\ntag_6:\n    /* \"Volunteer_flattened.sol\":23401:23404  300 */\n  0x012c\n    /* \"Volunteer_flattened.sol\":23390:23398  deadline */\n  0x08\n    /* \"Volunteer_flattened.sol\":23390:23404  deadline = 300 */\n  dup2\n  swap1\n  sstore\n  pop\n    /* \"Volunteer_flattened.sol\":23434:23458  address _destinationAddr */\n  0x00\n    /* \"Volunteer_flattened.sol\":23461:23471  msg.sender */\n  caller\n    /* \"Volunteer_flattened.sol\":23434:23471  address _destinationAddr = msg.sender */\n  swap1\n  pop\n    /* \"Volunteer_flattened.sol\":23526:23542  _destinationAddr */\n  dup1\n    /* \"Volunteer_flattened.sol\":23497:23515  destinationAddress */\n  0x09\n  0x00\n    /* \"Volunteer_flattened.sol\":23497:23543  destinationAddress = payable(_destinationAddr) */\n  0x0100\n  exp\n  dup2\n  sload\n  dup2\n  0xffffffffffffffffffffffffffffffffffffffff\n  mul\n  not\n  and\n  swap1\n  dup4\n  0xffffffffffffffffffffffffffffffffffffffff\n  and\n  mul\n  or\n  swap1\n  sstore\n  pop\n    /* \"Volunteer_flattened.sol\":23577:23587  msg.sender */\n  caller\n    /* \"Volunteer_flattened.sol\":23553:23574  representativeAddress */\n  0x0a\n  0x00\n    /* \"Volunteer_flattened.sol\":23553:23587  representativeAddress = msg.sender */\n  0x0100\n  exp\n  dup2\n  sload\n  dup2\n  0xffffffffffffffffffffffffffffffffffffffff\n  mul\n  not\n  and\n  swap1\n  dup4\n  0xffffffffffffffffffffffffffffffffffffffff\n  and\n  mul\n  or\n  swap1\n  sstore\n  pop\n    /* \"Volunteer_flattened.sol\":23656:23671  block.timestamp */\n  timestamp\n    /* \"Volunteer_flattened.sol\":23639:23653  startTimestamp */\n  0x0b\n    /* \"Volunteer_flattened.sol\":23639:23671  startTimestamp = block.timestamp */\n  dup2\n  swap1\n  sstore\n  pop\n    /* \"Volunteer_flattened.sol\":23698:23711  _adtTokenAddr */\n  dup2\n    /* \"Volunteer_flattened.sol\":23681:23712  adToken = IERC20(_adtTokenAddr) */\n  0xffffffffffffffffffffffffffffffffffffffff\n  and\n  0x80\n  dup2\n  0xffffffffffffffffffffffffffffffffffffffff\n  and\n  dup2\n  mstore\n  pop\n  pop\n    /* \"Volunteer_flattened.sol\":23244:23719  {... */\n  pop\n    /* \"Volunteer_flattened.sol\":23208:23719  constructor(address _adtTokenAddr ) {... */\n  pop\n    /* \"Volunteer_flattened.sol\":22338:28622  contract Volunteer {... */\n  jump(tag_8)\n    /* \"Volunteer_flattened.sol\":27247:27539  function setMinumumDonationValue(uint256 _minValue) public isOwner {... */\ntag_7:\n    /* \"Volunteer_flattened.sol\":28206:28215  ownerAdrr */\n  0x00\n  dup1\n  sload\n  swap1\n  0x0100\n  exp\n  swap1\n  div\n  0xffffffffffffffffffffffffffffffffffffffff\n  and\n    /* \"Volunteer_flattened.sol\":28192:28215  msg.sender == ownerAdrr */\n  0xffffffffffffffffffffffffffffffffffffffff\n  and\n    /* \"Volunteer_flattened.sol\":28192:28202  msg.sender */\n  caller\n    /* \"Volunteer_flattened.sol\":28192:28215  msg.sender == ownerAdrr */\n  0xffffffffffffffffffffffffffffffffffffffff\n  and\n  eq\n    /* \"Volunteer_flattened.sol\":28184:28239  require(msg.sender == ownerAdrr, \"Caller is not owner\") */\n  tag_10\n  jumpi\n  mload(0x40)\n  0x08c379a000000000000000000000000000000000000000000000000000000000\n  dup2\n  mstore\n  0x04\n  add\n  tag_11\n  swap1\n  tag_12\n  jump\t// in\ntag_11:\n  mload(0x40)\n  dup1\n  swap2\n  sub\n  swap1\n  revert\ntag_10:\n    /* \"Volunteer_flattened.sol\":22887:22888  1 */\n  0x01\n    /* \"Volunteer_flattened.sol\":27359:27394  _minValue >= defaultMinimumDonation */\n  0xffffffffffffffff\n  and\n    /* \"Volunteer_flattened.sol\":27359:27368  _minValue */\n  dup2\n    /* \"Volunteer_flattened.sol\":27359:27394  _minValue >= defaultMinimumDonation */\n  lt\n  iszero\n    /* \"Volunteer_flattened.sol\":27410:27450  Strings.toString(defaultMinimumDonation) */\n  tag_14\n    /* \"Volunteer_flattened.sol\":22887:22888  1 */\n  0x01\n    /* \"Volunteer_flattened.sol\":27410:27450  Strings.toString(defaultMinimumDonation) */\n  0xffffffffffffffff\n  and\n    /* \"Volunteer_flattened.sol\":27410:27426  Strings.toString */\n  shl(0x20, tag_15)\n    /* \"Volunteer_flattened.sol\":27410:27450  Strings.toString(defaultMinimumDonation) */\n  0x20\n  shr\n  jump\t// in\ntag_14:\n    /* \"Volunteer_flattened.sol\":27396:27494  string.concat(Strings.toString(defaultMinimumDonation), \" is minimum value to set lower donation\") */\n  add(0x20, mload(0x40))\n  tag_16\n  swap2\n  swap1\n  tag_17\n  jump\t// in\ntag_16:\n  mload(0x40)\n  0x20\n  dup2\n  dup4\n  sub\n  sub\n  dup2\n  mstore\n  swap1\n  0x40\n  mstore\n    /* \"Volunteer_flattened.sol\":27351:27495  require(_minValue >= defaultMinimumDonation, string.concat(Strings.toString(defaultMinimumDonation), \" is minimum value to set lower donation\")) */\n  swap1\n  tag_18\n  jumpi\n  mload(0x40)\n  0x08c379a000000000000000000000000000000000000000000000000000000000\n  dup2\n  mstore\n  0x04\n  add\n  tag_19\n  swap2\n  swap1\n  tag_20\n  jump\t// in\ntag_19:\n  mload(0x40)\n  dup1\n  swap2\n  sub\n  swap1\n  revert\ntag_18:\n  pop\n    /* \"Volunteer_flattened.sol\":27523:27532  _minValue */\n  dup1\n    /* \"Volunteer_flattened.sol\":27505:27520  minimumDonation */\n  0x07\n    /* \"Volunteer_flattened.sol\":27505:27532  minimumDonation = _minValue */\n  dup2\n  swap1\n  sstore\n  pop\n    /* \"Volunteer_flattened.sol\":27247:27539  function setMinumumDonationValue(uint256 _minValue) public isOwner {... */\n  pop\n  jump\t// out\n    /* \"Volunteer_flattened.sol\":17008:17706  function toString(uint256 value) internal pure returns (string memory) {... */\ntag_15:\n    /* \"Volunteer_flattened.sol\":17064:17077  string memory */\n  0x60\n    /* \"Volunteer_flattened.sol\":17113:17127  uint256 length */\n  0x00\n    /* \"Volunteer_flattened.sol\":17150:17151  1 */\n  0x01\n    /* \"Volunteer_flattened.sol\":17130:17147  Math.log10(value) */\n  tag_22\n    /* \"Volunteer_flattened.sol\":17141:17146  value */\n  dup5\n    /* \"Volunteer_flattened.sol\":17130:17140  Math.log10 */\n  shl(0x20, tag_23)\n    /* \"Volunteer_flattened.sol\":17130:17147  Math.log10(value) */\n  0x20\n  shr\n  jump\t// in\ntag_22:\n    /* \"Volunteer_flattened.sol\":17130:17151  Math.log10(value) + 1 */\n  add\n    /* \"Volunteer_flattened.sol\":17113:17151  uint256 length = Math.log10(value) + 1 */\n  swap1\n  pop\n    /* \"Volunteer_flattened.sol\":17165:17185  string memory buffer */\n  0x00\n    /* \"Volunteer_flattened.sol\":17199:17205  length */\n  dup2\n    /* \"Volunteer_flattened.sol\":17188:17206  new string(length) */\n  0xffffffffffffffff\n  dup2\n  gt\n  iszero\n  tag_24\n  jumpi\n  tag_25\n  tag_26\n  jump\t// in\ntag_25:\ntag_24:\n  mload(0x40)\n  swap1\n  dup1\n  dup3\n  mstore\n  dup1\n  0x1f\n  add\n  not(0x1f)\n  and\n  0x20\n  add\n  dup3\n  add\n  0x40\n  mstore\n  dup1\n  iszero\n  tag_27\n  jumpi\n  dup2\n  0x20\n  add\n  0x01\n  dup3\n  mul\n  dup1\n  calldatasize\n  dup4\n  calldatacopy\n  dup1\n  dup3\n  add\n  swap2\n  pop\n  pop\n  swap1\n  pop\ntag_27:\n  pop\n    /* \"Volunteer_flattened.sol\":17165:17206  string memory buffer = new string(length) */\n  swap1\n  pop\n    /* \"Volunteer_flattened.sol\":17220:17231  uint256 ptr */\n  0x00\n    /* \"Volunteer_flattened.sol\":17346:17352  length */\n  dup3\n    /* \"Volunteer_flattened.sol\":17342:17344  32 */\n  0x20\n    /* \"Volunteer_flattened.sol\":17338:17353  add(32, length) */\n  add\n    /* \"Volunteer_flattened.sol\":17330:17336  buffer */\n  dup3\n    /* \"Volunteer_flattened.sol\":17326:17354  add(buffer, add(32, length)) */\n  add\n    /* \"Volunteer_flattened.sol\":17319:17354  ptr := add(buffer, add(32, length)) */\n  swap1\n  pop\n    /* \"Volunteer_flattened.sol\":17381:17663  while (true) {... */\ntag_28:\n    /* \"Volunteer_flattened.sol\":17388:17392  true */\n  0x01\n    /* \"Volunteer_flattened.sol\":17381:17663  while (true) {... */\n  iszero\n  tag_29\n  jumpi\n    /* \"Volunteer_flattened.sol\":17412:17417  ptr-- */\n  dup1\n  dup1\n  0x01\n  swap1\n  sub\n  swap2\n  pop\n  pop\n    /* \"Volunteer_flattened.sol\":17551:17561  HEX_DIGITS */\n  0x3031323334353637383961626364656600000000000000000000000000000000\n    /* \"Volunteer_flattened.sol\":17546:17548  10 */\n  0x0a\n    /* \"Volunteer_flattened.sol\":17539:17544  value */\n  dup7\n    /* \"Volunteer_flattened.sol\":17535:17549  mod(value, 10) */\n  mod\n    /* \"Volunteer_flattened.sol\":17530:17562  byte(mod(value, 10), HEX_DIGITS) */\n  byte\n    /* \"Volunteer_flattened.sol\":17525:17528  ptr */\n  dup2\n    /* \"Volunteer_flattened.sol\":17517:17563  mstore8(ptr, byte(mod(value, 10), HEX_DIGITS)) */\n  mstore8\n    /* \"Volunteer_flattened.sol\":17607:17609  10 */\n  0x0a\n    /* \"Volunteer_flattened.sol\":17598:17609  value /= 10 */\n  dup6\n  dup2\n  tag_30\n  jumpi\n  tag_31\n  tag_32\n  jump\t// in\ntag_31:\ntag_30:\n  div\n  swap5\n  pop\n    /* \"Volunteer_flattened.sol\":17640:17641  0 */\n  0x00\n    /* \"Volunteer_flattened.sol\":17631:17636  value */\n  dup6\n    /* \"Volunteer_flattened.sol\":17631:17641  value == 0 */\n  sub\n    /* \"Volunteer_flattened.sol\":17381:17663  while (true) {... */\n  tag_28\n    /* \"Volunteer_flattened.sol\":17627:17648  if (value == 0) break */\n  jumpi\n    /* \"Volunteer_flattened.sol\":17381:17663  while (true) {... */\ntag_29:\n    /* \"Volunteer_flattened.sol\":17683:17689  buffer */\n  dup2\n    /* \"Volunteer_flattened.sol\":17676:17689  return buffer */\n  swap4\n  pop\n  pop\n  pop\n  pop\n    /* \"Volunteer_flattened.sol\":17008:17706  function toString(uint256 value) internal pure returns (string memory) {... */\n  swap2\n  swap1\n  pop\n  jump\t// out\n    /* \"Volunteer_flattened.sol\":12238:13154  function log10(uint256 value) internal pure returns (uint256) {... */\ntag_23:\n    /* \"Volunteer_flattened.sol\":12291:12298  uint256 */\n  0x00\n    /* \"Volunteer_flattened.sol\":12310:12324  uint256 result */\n  dup1\n    /* \"Volunteer_flattened.sol\":12327:12328  0 */\n  0x00\n    /* \"Volunteer_flattened.sol\":12310:12328  uint256 result = 0 */\n  swap1\n  pop\n    /* \"Volunteer_flattened.sol\":12375:12383  10 ** 64 */\n  0x184f03e93ff9f4daa797ed6e38ed64bf6a1f010000000000000000\n    /* \"Volunteer_flattened.sol\":12366:12371  value */\n  dup4\n    /* \"Volunteer_flattened.sol\":12366:12383  value >= 10 ** 64 */\n  lt\n    /* \"Volunteer_flattened.sol\":12362:12465  if (value >= 10 ** 64) {... */\n  tag_35\n  jumpi\n    /* \"Volunteer_flattened.sol\":12412:12420  10 ** 64 */\n  0x184f03e93ff9f4daa797ed6e38ed64bf6a1f010000000000000000\n    /* \"Volunteer_flattened.sol\":12403:12420  value /= 10 ** 64 */\n  dup4\n  dup2\n  tag_36\n  jumpi\n  tag_37\n  tag_32\n  jump\t// in\ntag_37:\ntag_36:\n  div\n  swap3\n  pop\n    /* \"Volunteer_flattened.sol\":12448:12450  64 */\n  0x40\n    /* \"Volunteer_flattened.sol\":12438:12450  result += 64 */\n  dup2\n  add\n  swap1\n  pop\n    /* \"Volunteer_flattened.sol\":12362:12465  if (value >= 10 ** 64) {... */\ntag_35:\n    /* \"Volunteer_flattened.sol\":12491:12499  10 ** 32 */\n  0x04ee2d6d415b85acef8100000000\n    /* \"Volunteer_flattened.sol\":12482:12487  value */\n  dup4\n    /* \"Volunteer_flattened.sol\":12482:12499  value >= 10 ** 32 */\n  lt\n    /* \"Volunteer_flattened.sol\":12478:12581  if (value >= 10 ** 32) {... */\n  tag_38\n  jumpi\n    /* \"Volunteer_flattened.sol\":12528:12536  10 ** 32 */\n  0x04ee2d6d415b85acef8100000000\n    /* \"Volunteer_flattened.sol\":12519:12536  value /= 10 ** 32 */\n  dup4\n  dup2\n  tag_39\n  jumpi\n  tag_40\n  tag_32\n  jump\t// in\ntag_40:\ntag_39:\n  div\n  swap3\n  pop\n    /* \"Volunteer_flattened.sol\":12564:12566  32 */\n  0x20\n    /* \"Volunteer_flattened.sol\":12554:12566  result += 32 */\n  dup2\n  add\n  swap1\n  pop\n    /* \"Volunteer_flattened.sol\":12478:12581  if (value >= 10 ** 32) {... */\ntag_38:\n    /* \"Volunteer_flattened.sol\":12607:12615  10 ** 16 */\n  0x2386f26fc10000\n    /* \"Volunteer_flattened.sol\":12598:12603  value */\n  dup4\n    /* \"Volunteer_flattened.sol\":12598:12615  value >= 10 ** 16 */\n  lt\n    /* \"Volunteer_flattened.sol\":12594:12697  if (value >= 10 ** 16) {... */\n  tag_41\n  jumpi\n    /* \"Volunteer_flattened.sol\":12644:12652  10 ** 16 */\n  0x2386f26fc10000\n    /* \"Volunteer_flattened.sol\":12635:12652  value /= 10 ** 16 */\n  dup4\n  dup2\n  tag_42\n  jumpi\n  tag_43\n  tag_32\n  jump\t// in\ntag_43:\ntag_42:\n  div\n  swap3\n  pop\n    /* \"Volunteer_flattened.sol\":12680:12682  16 */\n  0x10\n    /* \"Volunteer_flattened.sol\":12670:12682  result += 16 */\n  dup2\n  add\n  swap1\n  pop\n    /* \"Volunteer_flattened.sol\":12594:12697  if (value >= 10 ** 16) {... */\ntag_41:\n    /* \"Volunteer_flattened.sol\":12723:12730  10 ** 8 */\n  0x05f5e100\n    /* \"Volunteer_flattened.sol\":12714:12719  value */\n  dup4\n    /* \"Volunteer_flattened.sol\":12714:12730  value >= 10 ** 8 */\n  lt\n    /* \"Volunteer_flattened.sol\":12710:12810  if (value >= 10 ** 8) {... */\n  tag_44\n  jumpi\n    /* \"Volunteer_flattened.sol\":12759:12766  10 ** 8 */\n  0x05f5e100\n    /* \"Volunteer_flattened.sol\":12750:12766  value /= 10 ** 8 */\n  dup4\n  dup2\n  tag_45\n  jumpi\n  tag_46\n  tag_32\n  jump\t// in\ntag_46:\ntag_45:\n  div\n  swap3\n  pop\n    /* \"Volunteer_flattened.sol\":12794:12795  8 */\n  0x08\n    /* \"Volunteer_flattened.sol\":12784:12795  result += 8 */\n  dup2\n  add\n  swap1\n  pop\n    /* \"Volunteer_flattened.sol\":12710:12810  if (value >= 10 ** 8) {... */\ntag_44:\n    /* \"Volunteer_flattened.sol\":12836:12843  10 ** 4 */\n  0x2710\n    /* \"Volunteer_flattened.sol\":12827:12832  value */\n  dup4\n    /* \"Volunteer_flattened.sol\":12827:12843  value >= 10 ** 4 */\n  lt\n    /* \"Volunteer_flattened.sol\":12823:12923  if (value >= 10 ** 4) {... */\n  tag_47\n  jumpi\n    /* \"Volunteer_flattened.sol\":12872:12879  10 ** 4 */\n  0x2710\n    /* \"Volunteer_flattened.sol\":12863:12879  value /= 10 ** 4 */\n  dup4\n  dup2\n  tag_48\n  jumpi\n  tag_49\n  tag_32\n  jump\t// in\ntag_49:\ntag_48:\n  div\n  swap3\n  pop\n    /* \"Volunteer_flattened.sol\":12907:12908  4 */\n  0x04\n    /* \"Volunteer_flattened.sol\":12897:12908  result += 4 */\n  dup2\n  add\n  swap1\n  pop\n    /* \"Volunteer_flattened.sol\":12823:12923  if (value >= 10 ** 4) {... */\ntag_47:\n    /* \"Volunteer_flattened.sol\":12949:12956  10 ** 2 */\n  0x64\n    /* \"Volunteer_flattened.sol\":12940:12945  value */\n  dup4\n    /* \"Volunteer_flattened.sol\":12940:12956  value >= 10 ** 2 */\n  lt\n    /* \"Volunteer_flattened.sol\":12936:13036  if (value >= 10 ** 2) {... */\n  tag_50\n  jumpi\n    /* \"Volunteer_flattened.sol\":12985:12992  10 ** 2 */\n  0x64\n    /* \"Volunteer_flattened.sol\":12976:12992  value /= 10 ** 2 */\n  dup4\n  dup2\n  tag_51\n  jumpi\n  tag_52\n  tag_32\n  jump\t// in\ntag_52:\ntag_51:\n  div\n  swap3\n  pop\n    /* \"Volunteer_flattened.sol\":13020:13021  2 */\n  0x02\n    /* \"Volunteer_flattened.sol\":13010:13021  result += 2 */\n  dup2\n  add\n  swap1\n  pop\n    /* \"Volunteer_flattened.sol\":12936:13036  if (value >= 10 ** 2) {... */\ntag_50:\n    /* \"Volunteer_flattened.sol\":13062:13069  10 ** 1 */\n  0x0a\n    /* \"Volunteer_flattened.sol\":13053:13058  value */\n  dup4\n    /* \"Volunteer_flattened.sol\":13053:13069  value >= 10 ** 1 */\n  lt\n    /* \"Volunteer_flattened.sol\":13049:13115  if (value >= 10 ** 1) {... */\n  tag_53\n  jumpi\n    /* \"Volunteer_flattened.sol\":13099:13100  1 */\n  0x01\n    /* \"Volunteer_flattened.sol\":13089:13100  result += 1 */\n  dup2\n  add\n  swap1\n  pop\n    /* \"Volunteer_flattened.sol\":13049:13115  if (value >= 10 ** 1) {... */\ntag_53:\n    /* \"Volunteer_flattened.sol\":13141:13147  result */\n  dup1\n    /* \"Volunteer_flattened.sol\":13134:13147  return result */\n  swap2\n  pop\n  pop\n    /* \"Volunteer_flattened.sol\":12238:13154  function log10(uint256 value) internal pure returns (uint256) {... */\n  swap2\n  swap1\n  pop\n  jump\t// out\n    /* \"#utility.yul\":88:205   */\ntag_55:\n    /* \"#utility.yul\":197:198   */\n  0x00\n    /* \"#utility.yul\":194:195   */\n  dup1\n    /* \"#utility.yul\":187:199   */\n  revert\n    /* \"#utility.yul\":334:460   */\ntag_57:\n    /* \"#utility.yul\":371:378   */\n  0x00\n    /* \"#utility.yul\":411:453   */\n  0xffffffffffffffffffffffffffffffffffffffff\n    /* \"#utility.yul\":404:409   */\n  dup3\n    /* \"#utility.yul\":400:454   */\n  and\n    /* \"#utility.yul\":389:454   */\n  swap1\n  pop\n    /* \"#utility.yul\":334:460   */\n  swap2\n  swap1\n  pop\n  jump\t// out\n    /* \"#utility.yul\":466:562   */\ntag_58:\n    /* \"#utility.yul\":503:510   */\n  0x00\n    /* \"#utility.yul\":532:556   */\n  tag_78\n    /* \"#utility.yul\":550:555   */\n  dup3\n    /* \"#utility.yul\":532:556   */\n  tag_57\n  jump\t// in\ntag_78:\n    /* \"#utility.yul\":521:556   */\n  swap1\n  pop\n    /* \"#utility.yul\":466:562   */\n  swap2\n  swap1\n  pop\n  jump\t// out\n    /* \"#utility.yul\":568:690   */\ntag_59:\n    /* \"#utility.yul\":641:665   */\n  tag_80\n    /* \"#utility.yul\":659:664   */\n  dup2\n    /* \"#utility.yul\":641:665   */\n  tag_58\n  jump\t// in\ntag_80:\n    /* \"#utility.yul\":634:639   */\n  dup2\n    /* \"#utility.yul\":631:666   */\n  eq\n    /* \"#utility.yul\":621:684   */\n  tag_81\n  jumpi\n    /* \"#utility.yul\":680:681   */\n  0x00\n    /* \"#utility.yul\":677:678   */\n  dup1\n    /* \"#utility.yul\":670:682   */\n  revert\n    /* \"#utility.yul\":621:684   */\ntag_81:\n    /* \"#utility.yul\":568:690   */\n  pop\n  jump\t// out\n    /* \"#utility.yul\":696:839   */\ntag_60:\n    /* \"#utility.yul\":753:758   */\n  0x00\n    /* \"#utility.yul\":784:790   */\n  dup2\n    /* \"#utility.yul\":778:791   */\n  mload\n    /* \"#utility.yul\":769:791   */\n  swap1\n  pop\n    /* \"#utility.yul\":800:833   */\n  tag_83\n    /* \"#utility.yul\":827:832   */\n  dup2\n    /* \"#utility.yul\":800:833   */\n  tag_59\n  jump\t// in\ntag_83:\n    /* \"#utility.yul\":696:839   */\n  swap3\n  swap2\n  pop\n  pop\n  jump\t// out\n    /* \"#utility.yul\":845:1196   */\ntag_3:\n    /* \"#utility.yul\":915:921   */\n  0x00\n    /* \"#utility.yul\":964:966   */\n  0x20\n    /* \"#utility.yul\":952:961   */\n  dup3\n    /* \"#utility.yul\":943:950   */\n  dup5\n    /* \"#utility.yul\":939:962   */\n  sub\n    /* \"#utility.yul\":935:967   */\n  slt\n    /* \"#utility.yul\":932:1051   */\n  iszero\n  tag_85\n  jumpi\n    /* \"#utility.yul\":970:1049   */\n  tag_86\n  tag_55\n  jump\t// in\ntag_86:\n    /* \"#utility.yul\":932:1051   */\ntag_85:\n    /* \"#utility.yul\":1090:1091   */\n  0x00\n    /* \"#utility.yul\":1115:1179   */\n  tag_87\n    /* \"#utility.yul\":1171:1178   */\n  dup5\n    /* \"#utility.yul\":1162:1168   */\n  dup3\n    /* \"#utility.yul\":1151:1160   */\n  dup6\n    /* \"#utility.yul\":1147:1169   */\n  add\n    /* \"#utility.yul\":1115:1179   */\n  tag_60\n  jump\t// in\ntag_87:\n    /* \"#utility.yul\":1105:1179   */\n  swap2\n  pop\n    /* \"#utility.yul\":1061:1189   */\n  pop\n    /* \"#utility.yul\":845:1196   */\n  swap3\n  swap2\n  pop\n  pop\n  jump\t// out\n    /* \"#utility.yul\":1202:1371   */\ntag_61:\n    /* \"#utility.yul\":1286:1297   */\n  0x00\n    /* \"#utility.yul\":1320:1326   */\n  dup3\n    /* \"#utility.yul\":1315:1318   */\n  dup3\n    /* \"#utility.yul\":1308:1327   */\n  mstore\n    /* \"#utility.yul\":1360:1364   */\n  0x20\n    /* \"#utility.yul\":1355:1358   */\n  dup3\n    /* \"#utility.yul\":1351:1365   */\n  add\n    /* \"#utility.yul\":1336:1365   */\n  swap1\n  pop\n    /* \"#utility.yul\":1202:1371   */\n  swap3\n  swap2\n  pop\n  pop\n  jump\t// out\n    /* \"#utility.yul\":1377:1546   */\ntag_62:\n    /* \"#utility.yul\":1517:1538   */\n  0x43616c6c6572206973206e6f74206f776e657200000000000000000000000000\n    /* \"#utility.yul\":1513:1514   */\n  0x00\n    /* \"#utility.yul\":1505:1511   */\n  dup3\n    /* \"#utility.yul\":1501:1515   */\n  add\n    /* \"#utility.yul\":1494:1539   */\n  mstore\n    /* \"#utility.yul\":1377:1546   */\n  pop\n  jump\t// out\n    /* \"#utility.yul\":1552:1918   */\ntag_63:\n    /* \"#utility.yul\":1694:1697   */\n  0x00\n    /* \"#utility.yul\":1715:1782   */\n  tag_91\n    /* \"#utility.yul\":1779:1781   */\n  0x13\n    /* \"#utility.yul\":1774:1777   */\n  dup4\n    /* \"#utility.yul\":1715:1782   */\n  tag_61\n  jump\t// in\ntag_91:\n    /* \"#utility.yul\":1708:1782   */\n  swap2\n  pop\n    /* \"#utility.yul\":1791:1884   */\n  tag_92\n    /* \"#utility.yul\":1880:1883   */\n  dup3\n    /* \"#utility.yul\":1791:1884   */\n  tag_62\n  jump\t// in\ntag_92:\n    /* \"#utility.yul\":1909:1911   */\n  0x20\n    /* \"#utility.yul\":1904:1907   */\n  dup3\n    /* \"#utility.yul\":1900:1912   */\n  add\n    /* \"#utility.yul\":1893:1912   */\n  swap1\n  pop\n    /* \"#utility.yul\":1552:1918   */\n  swap2\n  swap1\n  pop\n  jump\t// out\n    /* \"#utility.yul\":1924:2343   */\ntag_12:\n    /* \"#utility.yul\":2090:2094   */\n  0x00\n    /* \"#utility.yul\":2128:2130   */\n  0x20\n    /* \"#utility.yul\":2117:2126   */\n  dup3\n    /* \"#utility.yul\":2113:2131   */\n  add\n    /* \"#utility.yul\":2105:2131   */\n  swap1\n  pop\n    /* \"#utility.yul\":2177:2186   */\n  dup2\n    /* \"#utility.yul\":2171:2175   */\n  dup2\n    /* \"#utility.yul\":2167:2187   */\n  sub\n    /* \"#utility.yul\":2163:2164   */\n  0x00\n    /* \"#utility.yul\":2152:2161   */\n  dup4\n    /* \"#utility.yul\":2148:2165   */\n  add\n    /* \"#utility.yul\":2141:2188   */\n  mstore\n    /* \"#utility.yul\":2205:2336   */\n  tag_94\n    /* \"#utility.yul\":2331:2335   */\n  dup2\n    /* \"#utility.yul\":2205:2336   */\n  tag_63\n  jump\t// in\ntag_94:\n    /* \"#utility.yul\":2197:2336   */\n  swap1\n  pop\n    /* \"#utility.yul\":1924:2343   */\n  swap2\n  swap1\n  pop\n  jump\t// out\n    /* \"#utility.yul\":2349:2448   */\ntag_64:\n    /* \"#utility.yul\":2401:2407   */\n  0x00\n    /* \"#utility.yul\":2435:2440   */\n  dup2\n    /* \"#utility.yul\":2429:2441   */\n  mload\n    /* \"#utility.yul\":2419:2441   */\n  swap1\n  pop\n    /* \"#utility.yul\":2349:2448   */\n  swap2\n  swap1\n  pop\n  jump\t// out\n    /* \"#utility.yul\":2454:2602   */\ntag_65:\n    /* \"#utility.yul\":2556:2567   */\n  0x00\n    /* \"#utility.yul\":2593:2596   */\n  dup2\n    /* \"#utility.yul\":2578:2596   */\n  swap1\n  pop\n    /* \"#utility.yul\":2454:2602   */\n  swap3\n  swap2\n  pop\n  pop\n  jump\t// out\n    /* \"#utility.yul\":2608:2747   */\ntag_66:\n    /* \"#utility.yul\":2697:2703   */\n  dup3\n    /* \"#utility.yul\":2692:2695   */\n  dup2\n    /* \"#utility.yul\":2687:2690   */\n  dup4\n    /* \"#utility.yul\":2681:2704   */\n  mcopy\n    /* \"#utility.yul\":2738:2739   */\n  0x00\n    /* \"#utility.yul\":2729:2735   */\n  dup4\n    /* \"#utility.yul\":2724:2727   */\n  dup4\n    /* \"#utility.yul\":2720:2736   */\n  add\n    /* \"#utility.yul\":2713:2740   */\n  mstore\n    /* \"#utility.yul\":2608:2747   */\n  pop\n  pop\n  pop\n  jump\t// out\n    /* \"#utility.yul\":2753:3143   */\ntag_67:\n    /* \"#utility.yul\":2859:2862   */\n  0x00\n    /* \"#utility.yul\":2887:2926   */\n  tag_99\n    /* \"#utility.yul\":2920:2925   */\n  dup3\n    /* \"#utility.yul\":2887:2926   */\n  tag_64\n  jump\t// in\ntag_99:\n    /* \"#utility.yul\":2942:3031   */\n  tag_100\n    /* \"#utility.yul\":3024:3030   */\n  dup2\n    /* \"#utility.yul\":3019:3022   */\n  dup6\n    /* \"#utility.yul\":2942:3031   */\n  tag_65\n  jump\t// in\ntag_100:\n    /* \"#utility.yul\":2935:3031   */\n  swap4\n  pop\n    /* \"#utility.yul\":3040:3105   */\n  tag_101\n    /* \"#utility.yul\":3098:3104   */\n  dup2\n    /* \"#utility.yul\":3093:3096   */\n  dup6\n    /* \"#utility.yul\":3086:3090   */\n  0x20\n    /* \"#utility.yul\":3079:3084   */\n  dup7\n    /* \"#utility.yul\":3075:3091   */\n  add\n    /* \"#utility.yul\":3040:3105   */\n  tag_66\n  jump\t// in\ntag_101:\n    /* \"#utility.yul\":3130:3136   */\n  dup1\n    /* \"#utility.yul\":3125:3128   */\n  dup5\n    /* \"#utility.yul\":3121:3137   */\n  add\n    /* \"#utility.yul\":3114:3137   */\n  swap2\n  pop\n    /* \"#utility.yul\":2863:3143   */\n  pop\n    /* \"#utility.yul\":2753:3143   */\n  swap3\n  swap2\n  pop\n  pop\n  jump\t// out\n    /* \"#utility.yul\":3149:3375   */\ntag_68:\n    /* \"#utility.yul\":3289:3323   */\n  0x206973206d696e696d756d2076616c756520746f20736574206c6f7765722064\n    /* \"#utility.yul\":3285:3286   */\n  0x00\n    /* \"#utility.yul\":3277:3283   */\n  dup3\n    /* \"#utility.yul\":3273:3287   */\n  add\n    /* \"#utility.yul\":3266:3324   */\n  mstore\n    /* \"#utility.yul\":3358:3367   */\n  0x6f6e6174696f6e00000000000000000000000000000000000000000000000000\n    /* \"#utility.yul\":3353:3355   */\n  0x20\n    /* \"#utility.yul\":3345:3351   */\n  dup3\n    /* \"#utility.yul\":3341:3356   */\n  add\n    /* \"#utility.yul\":3334:3368   */\n  mstore\n    /* \"#utility.yul\":3149:3375   */\n  pop\n  jump\t// out\n    /* \"#utility.yul\":3381:3783   */\ntag_69:\n    /* \"#utility.yul\":3541:3544   */\n  0x00\n    /* \"#utility.yul\":3562:3647   */\n  tag_104\n    /* \"#utility.yul\":3644:3646   */\n  0x27\n    /* \"#utility.yul\":3639:3642   */\n  dup4\n    /* \"#utility.yul\":3562:3647   */\n  tag_65\n  jump\t// in\ntag_104:\n    /* \"#utility.yul\":3555:3647   */\n  swap2\n  pop\n    /* \"#utility.yul\":3656:3749   */\n  tag_105\n    /* \"#utility.yul\":3745:3748   */\n  dup3\n    /* \"#utility.yul\":3656:3749   */\n  tag_68\n  jump\t// in\ntag_105:\n    /* \"#utility.yul\":3774:3776   */\n  0x27\n    /* \"#utility.yul\":3769:3772   */\n  dup3\n    /* \"#utility.yul\":3765:3777   */\n  add\n    /* \"#utility.yul\":3758:3777   */\n  swap1\n  pop\n    /* \"#utility.yul\":3381:3783   */\n  swap2\n  swap1\n  pop\n  jump\t// out\n    /* \"#utility.yul\":3789:4330   */\ntag_17:\n    /* \"#utility.yul\":4022:4025   */\n  0x00\n    /* \"#utility.yul\":4044:4139   */\n  tag_107\n    /* \"#utility.yul\":4135:4138   */\n  dup3\n    /* \"#utility.yul\":4126:4132   */\n  dup5\n    /* \"#utility.yul\":4044:4139   */\n  tag_67\n  jump\t// in\ntag_107:\n    /* \"#utility.yul\":4037:4139   */\n  swap2\n  pop\n    /* \"#utility.yul\":4156:4304   */\n  tag_108\n    /* \"#utility.yul\":4300:4303   */\n  dup3\n    /* \"#utility.yul\":4156:4304   */\n  tag_69\n  jump\t// in\ntag_108:\n    /* \"#utility.yul\":4149:4304   */\n  swap2\n  pop\n    /* \"#utility.yul\":4321:4324   */\n  dup2\n    /* \"#utility.yul\":4314:4324   */\n  swap1\n  pop\n    /* \"#utility.yul\":3789:4330   */\n  swap3\n  swap2\n  pop\n  pop\n  jump\t// out\n    /* \"#utility.yul\":4336:4438   */\ntag_70:\n    /* \"#utility.yul\":4377:4383   */\n  0x00\n    /* \"#utility.yul\":4428:4430   */\n  0x1f\n    /* \"#utility.yul\":4424:4431   */\n  not\n    /* \"#utility.yul\":4419:4421   */\n  0x1f\n    /* \"#utility.yul\":4412:4417   */\n  dup4\n    /* \"#utility.yul\":4408:4422   */\n  add\n    /* \"#utility.yul\":4404:4432   */\n  and\n    /* \"#utility.yul\":4394:4432   */\n  swap1\n  pop\n    /* \"#utility.yul\":4336:4438   */\n  swap2\n  swap1\n  pop\n  jump\t// out\n    /* \"#utility.yul\":4444:4821   */\ntag_71:\n    /* \"#utility.yul\":4532:4535   */\n  0x00\n    /* \"#utility.yul\":4560:4599   */\n  tag_111\n    /* \"#utility.yul\":4593:4598   */\n  dup3\n    /* \"#utility.yul\":4560:4599   */\n  tag_64\n  jump\t// in\ntag_111:\n    /* \"#utility.yul\":4615:4686   */\n  tag_112\n    /* \"#utility.yul\":4679:4685   */\n  dup2\n    /* \"#utility.yul\":4674:4677   */\n  dup6\n    /* \"#utility.yul\":4615:4686   */\n  tag_61\n  jump\t// in\ntag_112:\n    /* \"#utility.yul\":4608:4686   */\n  swap4\n  pop\n    /* \"#utility.yul\":4695:4760   */\n  tag_113\n    /* \"#utility.yul\":4753:4759   */\n  dup2\n    /* \"#utility.yul\":4748:4751   */\n  dup6\n    /* \"#utility.yul\":4741:4745   */\n  0x20\n    /* \"#utility.yul\":4734:4739   */\n  dup7\n    /* \"#utility.yul\":4730:4746   */\n  add\n    /* \"#utility.yul\":4695:4760   */\n  tag_66\n  jump\t// in\ntag_113:\n    /* \"#utility.yul\":4785:4814   */\n  tag_114\n    /* \"#utility.yul\":4807:4813   */\n  dup2\n    /* \"#utility.yul\":4785:4814   */\n  tag_70\n  jump\t// in\ntag_114:\n    /* \"#utility.yul\":4780:4783   */\n  dup5\n    /* \"#utility.yul\":4776:4815   */\n  add\n    /* \"#utility.yul\":4769:4815   */\n  swap2\n  pop\n    /* \"#utility.yul\":4536:4821   */\n  pop\n    /* \"#utility.yul\":4444:4821   */\n  swap3\n  swap2\n  pop\n  pop\n  jump\t// out\n    /* \"#utility.yul\":4827:5140   */\ntag_20:\n    /* \"#utility.yul\":4940:4944   */\n  0x00\n    /* \"#utility.yul\":4978:4980   */\n  0x20\n    /* \"#utility.yul\":4967:4976   */\n  dup3\n    /* \"#utility.yul\":4963:4981   */\n  add\n    /* \"#utility.yul\":4955:4981   */\n  swap1\n  pop\n    /* \"#utility.yul\":5027:5036   */\n  dup2\n    /* \"#utility.yul\":5021:5025   */\n  dup2\n    /* \"#utility.yul\":5017:5037   */\n  sub\n    /* \"#utility.yul\":5013:5014   */\n  0x00\n    /* \"#utility.yul\":5002:5011   */\n  dup4\n    /* \"#utility.yul\":4998:5015   */\n  add\n    /* \"#utility.yul\":4991:5038   */\n  mstore\n    /* \"#utility.yul\":5055:5133   */\n  tag_116\n    /* \"#utility.yul\":5128:5132   */\n  dup2\n    /* \"#utility.yul\":5119:5125   */\n  dup5\n    /* \"#utility.yul\":5055:5133   */\n  tag_71\n  jump\t// in\ntag_116:\n    /* \"#utility.yul\":5047:5133   */\n  swap1\n  pop\n    /* \"#utility.yul\":4827:5140   */\n  swap3\n  swap2\n  pop\n  pop\n  jump\t// out\n    /* \"#utility.yul\":5146:5326   */\ntag_26:\n    /* \"#utility.yul\":5194:5271   */\n  0x4e487b7100000000000000000000000000000000000000000000000000000000\n    /* \"#utility.yul\":5191:5192   */\n  0x00\n    /* \"#utility.yul\":5184:5272   */\n  mstore\n    /* \"#utility.yul\":5291:5295   */\n  0x41\n    /* \"#utility.yul\":5288:5289   */\n  0x04\n    /* \"#utility.yul\":5281:5296   */\n  mstore\n    /* \"#utility.yul\":5315:5319   */\n  0x24\n    /* \"#utility.yul\":5312:5313   */\n  0x00\n    /* \"#utility.yul\":5305:5320   */\n  revert\n    /* \"#utility.yul\":5332:5512   */\ntag_32:\n    /* \"#utility.yul\":5380:5457   */\n  0x4e487b7100000000000000000000000000000000000000000000000000000000\n    /* \"#utility.yul\":5377:5378   */\n  0x00\n    /* \"#utility.yul\":5370:5458   */\n  mstore\n    /* \"#utility.yul\":5477:5481   */\n  0x12\n    /* \"#utility.yul\":5474:5475   */\n  0x04\n    /* \"#utility.yul\":5467:5482   */\n  mstore\n    /* \"#utility.yul\":5501:5505   */\n  0x24\n    /* \"#utility.yul\":5498:5499   */\n  0x00\n    /* \"#utility.yul\":5491:5506   */\n  revert\n    /* \"Volunteer_flattened.sol\":22338:28622  contract Volunteer {... */\ntag_8:\n  mload(0x80)\n  codecopy(0x00, dataOffset(sub_0), dataSize(sub_0))\n  0x00\n  assignImmutable(\"0x4466283c940bb7a5216af53f423a40739f8ea2b3016fcb9a55e9e9ecf800125a\")\n  return(0x00, dataSize(sub_0))\nstop\n\nsub_0: assembly {\n        /* \"Volunteer_flattened.sol\":22338:28622  contract Volunteer {... */\n      mstore(0x40, 0x80)\n      jumpi(tag_1, lt(calldatasize, 0x04))\n      shr(0xe0, calldataload(0x00))\n      dup1\n      0x811d36e9\n      gt\n      tag_15\n      jumpi\n      dup1\n      0xcf7d6f04\n      gt\n      tag_16\n      jumpi\n      dup1\n      0xcf7d6f04\n      eq\n      tag_11\n      jumpi\n      dup1\n      0xed88c68e\n      eq\n      tag_12\n      jumpi\n      dup1\n      0xef4fdda2\n      eq\n      tag_13\n      jumpi\n      dup1\n      0xfa7b8305\n      eq\n      tag_14\n      jumpi\n      jump(tag_1)\n    tag_16:\n      dup1\n      0x811d36e9\n      eq\n      tag_8\n      jumpi\n      dup1\n      0xc12cfa63\n      eq\n      tag_9\n      jumpi\n      dup1\n      0xc2348491\n      eq\n      tag_10\n      jumpi\n      jump(tag_1)\n    tag_15:\n      dup1\n      0x195199f6\n      eq\n      tag_2\n      jumpi\n      dup1\n      0x1e09c9ca\n      eq\n      tag_3\n      jumpi\n      dup1\n      0x3ccfd60b\n      eq\n      tag_4\n      jumpi\n      dup1\n      0x528a28b7\n      eq\n      tag_5\n      jumpi\n      dup1\n      0x55da68b3\n      eq\n      tag_6\n      jumpi\n      dup1\n      0x6e696126\n      eq\n      tag_7\n      jumpi\n    tag_1:\n      0x00\n      dup1\n      revert\n        /* \"Volunteer_flattened.sol\":26184:26278  function setDeadline(uint256 _deadline) external isOwner {... */\n    tag_2:\n      callvalue\n      dup1\n      iszero\n      tag_17\n      jumpi\n      0x00\n      dup1\n      revert\n    tag_17:\n      pop\n      tag_18\n      0x04\n      dup1\n      calldatasize\n      sub\n      dup2\n      add\n      swap1\n      tag_19\n      swap2\n      swap1\n      tag_20\n      jump\t// in\n    tag_19:\n      tag_21\n      jump\t// in\n    tag_18:\n      stop\n        /* \"Volunteer_flattened.sol\":27247:27539  function setMinumumDonationValue(uint256 _minValue) public isOwner {... */\n    tag_3:\n      callvalue\n      dup1\n      iszero\n      tag_22\n      jumpi\n      0x00\n      dup1\n      revert\n    tag_22:\n      pop\n      tag_23\n      0x04\n      dup1\n      calldatasize\n      sub\n      dup2\n      add\n      swap1\n      tag_24\n      swap2\n      swap1\n      tag_20\n      jump\t// in\n    tag_24:\n      tag_25\n      jump\t// in\n    tag_23:\n      stop\n        /* \"Volunteer_flattened.sol\":26284:26771  function withdraw() external isRepresentative {... */\n    tag_4:\n      callvalue\n      dup1\n      iszero\n      tag_26\n      jumpi\n      0x00\n      dup1\n      revert\n    tag_26:\n      pop\n      tag_27\n      tag_28\n      jump\t// in\n    tag_27:\n      stop\n        /* \"Volunteer_flattened.sol\":27545:27665  function isDeadline() public view returns (bool) {... */\n    tag_5:\n      callvalue\n      dup1\n      iszero\n      tag_29\n      jumpi\n      0x00\n      dup1\n      revert\n    tag_29:\n      pop\n      tag_30\n      tag_31\n      jump\t// in\n    tag_30:\n      mload(0x40)\n      tag_32\n      swap2\n      swap1\n      tag_33\n      jump\t// in\n    tag_32:\n      mload(0x40)\n      dup1\n      swap2\n      sub\n      swap1\n      return\n        /* \"Volunteer_flattened.sol\":25629:25929  function getDonationValueByAddr(address addr, string memory currency) isAllowedCurrency(currency) external view returns (uint256) {... */\n    tag_6:\n      callvalue\n      dup1\n      iszero\n      tag_34\n      jumpi\n      0x00\n      dup1\n      revert\n    tag_34:\n      pop\n      tag_35\n      0x04\n      dup1\n      calldatasize\n      sub\n      dup2\n      add\n      swap1\n      tag_36\n      swap2\n      swap1\n      tag_37\n      jump\t// in\n    tag_36:\n      tag_38\n      jump\t// in\n    tag_35:\n      mload(0x40)\n      tag_39\n      swap2\n      swap1\n      tag_40\n      jump\t// in\n    tag_39:\n      mload(0x40)\n      dup1\n      swap2\n      sub\n      swap1\n      return\n        /* \"Volunteer_flattened.sol\":25061:25345  function getDonators(string memory currency) isAllowedCurrency(currency) external view returns (address [] memory) {... */\n    tag_7:\n      callvalue\n      dup1\n      iszero\n      tag_41\n      jumpi\n      0x00\n      dup1\n      revert\n    tag_41:\n      pop\n      tag_42\n      0x04\n      dup1\n      calldatasize\n      sub\n      dup2\n      add\n      swap1\n      tag_43\n      swap2\n      swap1\n      tag_44\n      jump\t// in\n    tag_43:\n      tag_45\n      jump\t// in\n    tag_42:\n      mload(0x40)\n      tag_46\n      swap2\n      swap1\n      tag_47\n      jump\t// in\n    tag_46:\n      mload(0x40)\n      dup1\n      swap2\n      sub\n      swap1\n      return\n        /* \"Volunteer_flattened.sol\":26061:26178  function setCherityRepresentativeAddress(address addr) external isOwner {... */\n    tag_8:\n      callvalue\n      dup1\n      iszero\n      tag_48\n      jumpi\n      0x00\n      dup1\n      revert\n    tag_48:\n      pop\n      tag_49\n      0x04\n      dup1\n      calldatasize\n      sub\n      dup2\n      add\n      swap1\n      tag_50\n      swap2\n      swap1\n      tag_51\n      jump\t// in\n    tag_50:\n      tag_52\n      jump\t// in\n    tag_49:\n      stop\n        /* \"Volunteer_flattened.sol\":24964:25055  function getOwnerAdress() external view returns (address) {... */\n    tag_9:\n      callvalue\n      dup1\n      iszero\n      tag_53\n      jumpi\n      0x00\n      dup1\n      revert\n    tag_53:\n      pop\n      tag_54\n      tag_55\n      jump\t// in\n    tag_54:\n      mload(0x40)\n      tag_56\n      swap2\n      swap1\n      tag_57\n      jump\t// in\n    tag_56:\n      mload(0x40)\n      dup1\n      swap2\n      sub\n      swap1\n      return\n        /* \"Volunteer_flattened.sol\":25935:26055  function setCherityDestinationAddress(address addr) external isOwner {... */\n    tag_10:\n      callvalue\n      dup1\n      iszero\n      tag_58\n      jumpi\n      0x00\n      dup1\n      revert\n    tag_58:\n      pop\n      tag_59\n      0x04\n      dup1\n      calldatasize\n      sub\n      dup2\n      add\n      swap1\n      tag_60\n      swap2\n      swap1\n      tag_51\n      jump\t// in\n    tag_60:\n      tag_61\n      jump\t// in\n    tag_59:\n      stop\n        /* \"Volunteer_flattened.sol\":26777:27241  function withdrawADT() external isRepresentative {... */\n    tag_11:\n      callvalue\n      dup1\n      iszero\n      tag_62\n      jumpi\n      0x00\n      dup1\n      revert\n    tag_62:\n      pop\n      tag_63\n      tag_64\n      jump\t// in\n    tag_63:\n      stop\n        /* \"Volunteer_flattened.sol\":23725:24301  function donate() external payable {... */\n    tag_12:\n      tag_65\n      tag_66\n      jump\t// in\n    tag_65:\n      stop\n        /* \"Volunteer_flattened.sol\":25351:25623  function getDonatedTotal(string memory currency) isAllowedCurrency(currency) external view returns (uint256) {... */\n    tag_13:\n      callvalue\n      dup1\n      iszero\n      tag_67\n      jumpi\n      0x00\n      dup1\n      revert\n    tag_67:\n      pop\n      tag_68\n      0x04\n      dup1\n      calldatasize\n      sub\n      dup2\n      add\n      swap1\n      tag_69\n      swap2\n      swap1\n      tag_44\n      jump\t// in\n    tag_69:\n      tag_70\n      jump\t// in\n    tag_68:\n      mload(0x40)\n      tag_71\n      swap2\n      swap1\n      tag_40\n      jump\t// in\n    tag_71:\n      mload(0x40)\n      dup1\n      swap2\n      sub\n      swap1\n      return\n        /* \"Volunteer_flattened.sol\":24307:24958  function donateADT(uint256 adtValue) external {... */\n    tag_14:\n      callvalue\n      dup1\n      iszero\n      tag_72\n      jumpi\n      0x00\n      dup1\n      revert\n    tag_72:\n      pop\n      tag_73\n      0x04\n      dup1\n      calldatasize\n      sub\n      dup2\n      add\n      swap1\n      tag_74\n      swap2\n      swap1\n      tag_20\n      jump\t// in\n    tag_74:\n      tag_75\n      jump\t// in\n    tag_73:\n      stop\n        /* \"Volunteer_flattened.sol\":26184:26278  function setDeadline(uint256 _deadline) external isOwner {... */\n    tag_21:\n        /* \"Volunteer_flattened.sol\":28206:28215  ownerAdrr */\n      0x00\n      dup1\n      sload\n      swap1\n      0x0100\n      exp\n      swap1\n      div\n      0xffffffffffffffffffffffffffffffffffffffff\n      and\n        /* \"Volunteer_flattened.sol\":28192:28215  msg.sender == ownerAdrr */\n      0xffffffffffffffffffffffffffffffffffffffff\n      and\n        /* \"Volunteer_flattened.sol\":28192:28202  msg.sender */\n      caller\n        /* \"Volunteer_flattened.sol\":28192:28215  msg.sender == ownerAdrr */\n      0xffffffffffffffffffffffffffffffffffffffff\n      and\n      eq\n        /* \"Volunteer_flattened.sol\":28184:28239  require(msg.sender == ownerAdrr, \"Caller is not owner\") */\n      tag_77\n      jumpi\n      mload(0x40)\n      0x08c379a000000000000000000000000000000000000000000000000000000000\n      dup2\n      mstore\n      0x04\n      add\n      tag_78\n      swap1\n      tag_79\n      jump\t// in\n    tag_78:\n      mload(0x40)\n      dup1\n      swap2\n      sub\n      swap1\n      revert\n    tag_77:\n        /* \"Volunteer_flattened.sol\":26262:26271  _deadline */\n      dup1\n        /* \"Volunteer_flattened.sol\":26251:26259  deadline */\n      0x08\n        /* \"Volunteer_flattened.sol\":26251:26271  deadline = _deadline */\n      dup2\n      swap1\n      sstore\n      pop\n        /* \"Volunteer_flattened.sol\":26184:26278  function setDeadline(uint256 _deadline) external isOwner {... */\n      pop\n      jump\t// out\n        /* \"Volunteer_flattened.sol\":27247:27539  function setMinumumDonationValue(uint256 _minValue) public isOwner {... */\n    tag_25:\n        /* \"Volunteer_flattened.sol\":28206:28215  ownerAdrr */\n      0x00\n      dup1\n      sload\n      swap1\n      0x0100\n      exp\n      swap1\n      div\n      0xffffffffffffffffffffffffffffffffffffffff\n      and\n        /* \"Volunteer_flattened.sol\":28192:28215  msg.sender == ownerAdrr */\n      0xffffffffffffffffffffffffffffffffffffffff\n      and\n        /* \"Volunteer_flattened.sol\":28192:28202  msg.sender */\n      caller\n        /* \"Volunteer_flattened.sol\":28192:28215  msg.sender == ownerAdrr */\n      0xffffffffffffffffffffffffffffffffffffffff\n      and\n      eq\n        /* \"Volunteer_flattened.sol\":28184:28239  require(msg.sender == ownerAdrr, \"Caller is not owner\") */\n      tag_82\n      jumpi\n      mload(0x40)\n      0x08c379a000000000000000000000000000000000000000000000000000000000\n      dup2\n      mstore\n      0x04\n      add\n      tag_83\n      swap1\n      tag_79\n      jump\t// in\n    tag_83:\n      mload(0x40)\n      dup1\n      swap2\n      sub\n      swap1\n      revert\n    tag_82:\n        /* \"Volunteer_flattened.sol\":22887:22888  1 */\n      0x01\n        /* \"Volunteer_flattened.sol\":27359:27394  _minValue >= defaultMinimumDonation */\n      0xffffffffffffffff\n      and\n        /* \"Volunteer_flattened.sol\":27359:27368  _minValue */\n      dup2\n        /* \"Volunteer_flattened.sol\":27359:27394  _minValue >= defaultMinimumDonation */\n      lt\n      iszero\n        /* \"Volunteer_flattened.sol\":27410:27450  Strings.toString(defaultMinimumDonation) */\n      tag_85\n        /* \"Volunteer_flattened.sol\":22887:22888  1 */\n      0x01\n        /* \"Volunteer_flattened.sol\":27410:27450  Strings.toString(defaultMinimumDonation) */\n      0xffffffffffffffff\n      and\n        /* \"Volunteer_flattened.sol\":27410:27426  Strings.toString */\n      tag_86\n        /* \"Volunteer_flattened.sol\":27410:27450  Strings.toString(defaultMinimumDonation) */\n      jump\t// in\n    tag_85:\n        /* \"Volunteer_flattened.sol\":27396:27494  string.concat(Strings.toString(defaultMinimumDonation), \" is minimum value to set lower donation\") */\n      add(0x20, mload(0x40))\n      tag_87\n      swap2\n      swap1\n      tag_88\n      jump\t// in\n    tag_87:\n      mload(0x40)\n      0x20\n      dup2\n      dup4\n      sub\n      sub\n      dup2\n      mstore\n      swap1\n      0x40\n      mstore\n        /* \"Volunteer_flattened.sol\":27351:27495  require(_minValue >= defaultMinimumDonation, string.concat(Strings.toString(defaultMinimumDonation), \" is minimum value to set lower donation\")) */\n      swap1\n      tag_89\n      jumpi\n      mload(0x40)\n      0x08c379a000000000000000000000000000000000000000000000000000000000\n      dup2\n      mstore\n      0x04\n      add\n      tag_90\n      swap2\n      swap1\n      tag_91\n      jump\t// in\n    tag_90:\n      mload(0x40)\n      dup1\n      swap2\n      sub\n      swap1\n      revert\n    tag_89:\n      pop\n        /* \"Volunteer_flattened.sol\":27523:27532  _minValue */\n      dup1\n        /* \"Volunteer_flattened.sol\":27505:27520  minimumDonation */\n      0x07\n        /* \"Volunteer_flattened.sol\":27505:27532  minimumDonation = _minValue */\n      dup2\n      swap1\n      sstore\n      pop\n        /* \"Volunteer_flattened.sol\":27247:27539  function setMinumumDonationValue(uint256 _minValue) public isOwner {... */\n      pop\n      jump\t// out\n        /* \"Volunteer_flattened.sol\":26284:26771  function withdraw() external isRepresentative {... */\n    tag_28:\n        /* \"Volunteer_flattened.sol\":28323:28344  representativeAddress */\n      0x0a\n      0x00\n      swap1\n      sload\n      swap1\n      0x0100\n      exp\n      swap1\n      div\n      0xffffffffffffffffffffffffffffffffffffffff\n      and\n        /* \"Volunteer_flattened.sol\":28309:28344  msg.sender == representativeAddress */\n      0xffffffffffffffffffffffffffffffffffffffff\n      and\n        /* \"Volunteer_flattened.sol\":28309:28319  msg.sender */\n      caller\n        /* \"Volunteer_flattened.sol\":28309:28344  msg.sender == representativeAddress */\n      0xffffffffffffffffffffffffffffffffffffffff\n      and\n      eq\n        /* \"Volunteer_flattened.sol\":28301:28380  require(msg.sender == representativeAddress, \"Allowed only for representative\") */\n      tag_93\n      jumpi\n      mload(0x40)\n      0x08c379a000000000000000000000000000000000000000000000000000000000\n      dup2\n      mstore\n      0x04\n      add\n      tag_94\n      swap1\n      tag_95\n      jump\t// in\n    tag_94:\n      mload(0x40)\n      dup1\n      swap2\n      sub\n      swap1\n      revert\n    tag_93:\n        /* \"Volunteer_flattened.sol\":26378:26379  0 */\n      0x00\n        /* \"Volunteer_flattened.sol\":26348:26380  destinationAddress != address(0) */\n      0xffffffffffffffffffffffffffffffffffffffff\n      and\n        /* \"Volunteer_flattened.sol\":26348:26366  destinationAddress */\n      0x09\n      0x00\n      swap1\n      sload\n      swap1\n      0x0100\n      exp\n      swap1\n      div\n      0xffffffffffffffffffffffffffffffffffffffff\n      and\n        /* \"Volunteer_flattened.sol\":26348:26380  destinationAddress != address(0) */\n      0xffffffffffffffffffffffffffffffffffffffff\n      and\n      sub\n        /* \"Volunteer_flattened.sol\":26340:26412  require(destinationAddress != address(0), \"Destination addr is not set\") */\n      tag_97\n      jumpi\n      mload(0x40)\n      0x08c379a000000000000000000000000000000000000000000000000000000000\n      dup2\n      mstore\n      0x04\n      add\n      tag_98\n      swap1\n      tag_99\n      jump\t// in\n    tag_98:\n      mload(0x40)\n      dup1\n      swap2\n      sub\n      swap1\n      revert\n    tag_97:\n        /* \"Volunteer_flattened.sol\":26430:26442  isDeadline() */\n      tag_100\n        /* \"Volunteer_flattened.sol\":26430:26440  isDeadline */\n      tag_31\n        /* \"Volunteer_flattened.sol\":26430:26442  isDeadline() */\n      jump\t// in\n    tag_100:\n        /* \"Volunteer_flattened.sol\":26422:26466  require(isDeadline(), \"Is not deadline yet\") */\n      tag_101\n      jumpi\n      mload(0x40)\n      0x08c379a000000000000000000000000000000000000000000000000000000000\n      dup2\n      mstore\n      0x04\n      add\n      tag_102\n      swap1\n      tag_103\n      jump\t// in\n    tag_102:\n      mload(0x40)\n      dup1\n      swap2\n      sub\n      swap1\n      revert\n    tag_101:\n        /* \"Volunteer_flattened.sol\":26477:26489  uint balance */\n      0x00\n        /* \"Volunteer_flattened.sol\":26492:26513  address(this).balance */\n      selfbalance\n        /* \"Volunteer_flattened.sol\":26477:26513  uint balance = address(this).balance */\n      swap1\n      pop\n        /* \"Volunteer_flattened.sol\":26524:26533  bool sent */\n      0x00\n        /* \"Volunteer_flattened.sol\":26535:26552  bytes memory data */\n      dup1\n        /* \"Volunteer_flattened.sol\":26556:26574  destinationAddress */\n      0x09\n      0x00\n      swap1\n      sload\n      swap1\n      0x0100\n      exp\n      swap1\n      div\n      0xffffffffffffffffffffffffffffffffffffffff\n      and\n        /* \"Volunteer_flattened.sol\":26556:26579  destinationAddress.call */\n      0xffffffffffffffffffffffffffffffffffffffff\n      and\n        /* \"Volunteer_flattened.sol\":26587:26594  balance */\n      dup4\n        /* \"Volunteer_flattened.sol\":26556:26599  destinationAddress.call{value: balance}(\"\") */\n      mload(0x40)\n      tag_104\n      swap1\n      tag_105\n      jump\t// in\n    tag_104:\n      0x00\n      mload(0x40)\n      dup1\n      dup4\n      sub\n      dup2\n      dup6\n      dup8\n      gas\n      call\n      swap3\n      pop\n      pop\n      pop\n      returndatasize\n      dup1\n      0x00\n      dup2\n      eq\n      tag_108\n      jumpi\n      mload(0x40)\n      swap2\n      pop\n      and(add(returndatasize, 0x3f), not(0x1f))\n      dup3\n      add\n      0x40\n      mstore\n      returndatasize\n      dup3\n      mstore\n      returndatasize\n      0x00\n      0x20\n      dup5\n      add\n      returndatacopy\n      jump(tag_107)\n    tag_108:\n      0x60\n      swap2\n      pop\n    tag_107:\n      pop\n        /* \"Volunteer_flattened.sol\":26523:26599  (bool sent, bytes memory data) = destinationAddress.call{value: balance}(\"\") */\n      swap2\n      pop\n      swap2\n      pop\n        /* \"Volunteer_flattened.sol\":26617:26621  sent */\n      dup2\n        /* \"Volunteer_flattened.sol\":26609:26650  require(sent, \"Failed to send donations\") */\n      tag_109\n      jumpi\n      mload(0x40)\n      0x08c379a000000000000000000000000000000000000000000000000000000000\n      dup2\n      mstore\n      0x04\n      add\n      tag_110\n      swap1\n      tag_111\n      jump\t// in\n    tag_110:\n      mload(0x40)\n      dup1\n      swap2\n      sub\n      swap1\n      revert\n    tag_109:\n        /* \"Volunteer_flattened.sol\":26678:26679  0 */\n      0x00\n        /* \"Volunteer_flattened.sol\":26662:26675  donationTotal */\n      0x05\n        /* \"Volunteer_flattened.sol\":26662:26679  donationTotal = 0 */\n      dup2\n      swap1\n      sstore\n      pop\n        /* \"Volunteer_flattened.sol\":26695:26764  ActionEvent(\"withdrawBalance\", balance, ETH_NAME, destinationAddress) */\n      0x04a451432327cde4eba7a5cb53d98b0f209ea7c64f931ecebe3986a1e4468bdd\n        /* \"Volunteer_flattened.sol\":26726:26733  balance */\n      dup4\n        /* \"Volunteer_flattened.sol\":26735:26743  ETH_NAME */\n      mload(0x40)\n      dup1\n      0x40\n      add\n      0x40\n      mstore\n      dup1\n      0x03\n      dup2\n      mstore\n      0x20\n      add\n      0x4554480000000000000000000000000000000000000000000000000000000000\n      dup2\n      mstore\n      pop\n        /* \"Volunteer_flattened.sol\":26745:26763  destinationAddress */\n      0x09\n      0x00\n      swap1\n      sload\n      swap1\n      0x0100\n      exp\n      swap1\n      div\n      0xffffffffffffffffffffffffffffffffffffffff\n      and\n        /* \"Volunteer_flattened.sol\":26695:26764  ActionEvent(\"withdrawBalance\", balance, ETH_NAME, destinationAddress) */\n      mload(0x40)\n      tag_112\n      swap4\n      swap3\n      swap2\n      swap1\n      tag_113\n      jump\t// in\n    tag_112:\n      mload(0x40)\n      dup1\n      swap2\n      sub\n      swap1\n      log1\n        /* \"Volunteer_flattened.sol\":26330:26771  {... */\n      pop\n      pop\n      pop\n        /* \"Volunteer_flattened.sol\":26284:26771  function withdraw() external isRepresentative {... */\n      jump\t// out\n        /* \"Volunteer_flattened.sol\":27545:27665  function isDeadline() public view returns (bool) {... */\n    tag_31:\n        /* \"Volunteer_flattened.sol\":27588:27592  bool */\n      0x00\n        /* \"Volunteer_flattened.sol\":27649:27657  deadline */\n      sload(0x08)\n        /* \"Volunteer_flattened.sol\":27632:27646  startTimestamp */\n      sload(0x0b)\n        /* \"Volunteer_flattened.sol\":27632:27657  startTimestamp + deadline */\n      tag_115\n      swap2\n      swap1\n      tag_116\n      jump\t// in\n    tag_115:\n        /* \"Volunteer_flattened.sol\":27613:27628  block.timestamp */\n      timestamp\n        /* \"Volunteer_flattened.sol\":27613:27657  block.timestamp >= startTimestamp + deadline */\n      lt\n      iszero\n        /* \"Volunteer_flattened.sol\":27605:27658  return (block.timestamp >= startTimestamp + deadline) */\n      swap1\n      pop\n        /* \"Volunteer_flattened.sol\":27545:27665  function isDeadline() public view returns (bool) {... */\n      swap1\n      jump\t// out\n        /* \"Volunteer_flattened.sol\":25629:25929  function getDonationValueByAddr(address addr, string memory currency) isAllowedCurrency(currency) external view returns (uint256) {... */\n    tag_38:\n        /* \"Volunteer_flattened.sol\":25750:25757  uint256 */\n      0x00\n        /* \"Volunteer_flattened.sol\":25717:25725  currency */\n      dup2\n        /* \"Volunteer_flattened.sol\":28009:28036  Strings.equal(currency, \"\") */\n      tag_118\n        /* \"Volunteer_flattened.sol\":28023:28031  currency */\n      dup2\n        /* \"Volunteer_flattened.sol\":28009:28036  Strings.equal(currency, \"\") */\n      mload(0x40)\n      dup1\n      0x20\n      add\n      0x40\n      mstore\n      dup1\n      0x00\n      dup2\n      mstore\n      pop\n        /* \"Volunteer_flattened.sol\":28009:28022  Strings.equal */\n      tag_119\n        /* \"Volunteer_flattened.sol\":28009:28036  Strings.equal(currency, \"\") */\n      jump\t// in\n    tag_118:\n        /* \"Volunteer_flattened.sol\":28009:28073  Strings.equal(currency, \"\") || Strings.equal(currency, ADT_NAME) */\n      dup1\n      tag_120\n      jumpi\n      pop\n        /* \"Volunteer_flattened.sol\":28040:28073  Strings.equal(currency, ADT_NAME) */\n      tag_121\n        /* \"Volunteer_flattened.sol\":28054:28062  currency */\n      dup2\n        /* \"Volunteer_flattened.sol\":28064:28072  ADT_NAME */\n      mload(0x40)\n      dup1\n      0x40\n      add\n      0x40\n      mstore\n      dup1\n      0x03\n      dup2\n      mstore\n      0x20\n      add\n      0x4144540000000000000000000000000000000000000000000000000000000000\n      dup2\n      mstore\n      pop\n        /* \"Volunteer_flattened.sol\":28040:28053  Strings.equal */\n      tag_119\n        /* \"Volunteer_flattened.sol\":28040:28073  Strings.equal(currency, ADT_NAME) */\n      jump\t// in\n    tag_121:\n        /* \"Volunteer_flattened.sol\":28009:28073  Strings.equal(currency, \"\") || Strings.equal(currency, ADT_NAME) */\n    tag_120:\n        /* \"Volunteer_flattened.sol\":28009:28110  Strings.equal(currency, \"\") || Strings.equal(currency, ADT_NAME) || Strings.equal(currency, ETH_NAME) */\n      dup1\n      tag_122\n      jumpi\n      pop\n        /* \"Volunteer_flattened.sol\":28077:28110  Strings.equal(currency, ETH_NAME) */\n      tag_123\n        /* \"Volunteer_flattened.sol\":28091:28099  currency */\n      dup2\n        /* \"Volunteer_flattened.sol\":28101:28109  ETH_NAME */\n      mload(0x40)\n      dup1\n      0x40\n      add\n      0x40\n      mstore\n      dup1\n      0x03\n      dup2\n      mstore\n      0x20\n      add\n      0x4554480000000000000000000000000000000000000000000000000000000000\n      dup2\n      mstore\n      pop\n        /* \"Volunteer_flattened.sol\":28077:28090  Strings.equal */\n      tag_119\n        /* \"Volunteer_flattened.sol\":28077:28110  Strings.equal(currency, ETH_NAME) */\n      jump\t// in\n    tag_123:\n        /* \"Volunteer_flattened.sol\":28009:28110  Strings.equal(currency, \"\") || Strings.equal(currency, ADT_NAME) || Strings.equal(currency, ETH_NAME) */\n    tag_122:\n        /* \"Volunteer_flattened.sol\":28001:28131  require(Strings.equal(currency, \"\") || Strings.equal(currency, ADT_NAME) || Strings.equal(currency, ETH_NAME), \"Invalid currency\") */\n      tag_124\n      jumpi\n      mload(0x40)\n      0x08c379a000000000000000000000000000000000000000000000000000000000\n      dup2\n      mstore\n      0x04\n      add\n      tag_125\n      swap1\n      tag_126\n      jump\t// in\n    tag_125:\n      mload(0x40)\n      dup1\n      swap2\n      sub\n      swap1\n      revert\n    tag_124:\n        /* \"Volunteer_flattened.sol\":25773:25806  Strings.equal(currency, ETH_NAME) */\n      tag_128\n        /* \"Volunteer_flattened.sol\":25787:25795  currency */\n      dup4\n        /* \"Volunteer_flattened.sol\":25797:25805  ETH_NAME */\n      mload(0x40)\n      dup1\n      0x40\n      add\n      0x40\n      mstore\n      dup1\n      0x03\n      dup2\n      mstore\n      0x20\n      add\n      0x4554480000000000000000000000000000000000000000000000000000000000\n      dup2\n      mstore\n      pop\n        /* \"Volunteer_flattened.sol\":25773:25786  Strings.equal */\n      tag_119\n        /* \"Volunteer_flattened.sol\":25773:25806  Strings.equal(currency, ETH_NAME) */\n      jump\t// in\n    tag_128:\n        /* \"Volunteer_flattened.sol\":25773:25836  Strings.equal(currency, ETH_NAME) || Strings.equal(currency,'') */\n      dup1\n      tag_129\n      jumpi\n      pop\n        /* \"Volunteer_flattened.sol\":25810:25836  Strings.equal(currency,'') */\n      tag_130\n        /* \"Volunteer_flattened.sol\":25824:25832  currency */\n      dup4\n        /* \"Volunteer_flattened.sol\":25810:25836  Strings.equal(currency,'') */\n      mload(0x40)\n      dup1\n      0x20\n      add\n      0x40\n      mstore\n      dup1\n      0x00\n      dup2\n      mstore\n      pop\n        /* \"Volunteer_flattened.sol\":25810:25823  Strings.equal */\n      tag_119\n        /* \"Volunteer_flattened.sol\":25810:25836  Strings.equal(currency,'') */\n      jump\t// in\n    tag_130:\n        /* \"Volunteer_flattened.sol\":25773:25836  Strings.equal(currency, ETH_NAME) || Strings.equal(currency,'') */\n    tag_129:\n        /* \"Volunteer_flattened.sol\":25769:25885  if (Strings.equal(currency, ETH_NAME) || Strings.equal(currency,'')) {... */\n      iszero\n      tag_131\n      jumpi\n        /* \"Volunteer_flattened.sol\":25859:25868  donations */\n      0x01\n        /* \"Volunteer_flattened.sol\":25859:25874  donations[addr] */\n      0x00\n        /* \"Volunteer_flattened.sol\":25869:25873  addr */\n      dup6\n        /* \"Volunteer_flattened.sol\":25859:25874  donations[addr] */\n      0xffffffffffffffffffffffffffffffffffffffff\n      and\n      0xffffffffffffffffffffffffffffffffffffffff\n      and\n      dup2\n      mstore\n      0x20\n      add\n      swap1\n      dup2\n      mstore\n      0x20\n      add\n      0x00\n      keccak256\n      sload\n        /* \"Volunteer_flattened.sol\":25852:25874  return donations[addr] */\n      swap2\n      pop\n      jump(tag_127)\n        /* \"Volunteer_flattened.sol\":25769:25885  if (Strings.equal(currency, ETH_NAME) || Strings.equal(currency,'')) {... */\n    tag_131:\n        /* \"Volunteer_flattened.sol\":25902:25916  donationsInADT */\n      0x02\n        /* \"Volunteer_flattened.sol\":25902:25922  donationsInADT[addr] */\n      0x00\n        /* \"Volunteer_flattened.sol\":25917:25921  addr */\n      dup6\n        /* \"Volunteer_flattened.sol\":25902:25922  donationsInADT[addr] */\n      0xffffffffffffffffffffffffffffffffffffffff\n      and\n      0xffffffffffffffffffffffffffffffffffffffff\n      and\n      dup2\n      mstore\n      0x20\n      add\n      swap1\n      dup2\n      mstore\n      0x20\n      add\n      0x00\n      keccak256\n      sload\n        /* \"Volunteer_flattened.sol\":25895:25922  return donationsInADT[addr] */\n      swap2\n      pop\n        /* \"Volunteer_flattened.sol\":28141:28142  _ */\n    tag_127:\n        /* \"Volunteer_flattened.sol\":25629:25929  function getDonationValueByAddr(address addr, string memory currency) isAllowedCurrency(currency) external view returns (uint256) {... */\n      pop\n      swap3\n      swap2\n      pop\n      pop\n      jump\t// out\n        /* \"Volunteer_flattened.sol\":25061:25345  function getDonators(string memory currency) isAllowedCurrency(currency) external view returns (address [] memory) {... */\n    tag_45:\n        /* \"Volunteer_flattened.sol\":25157:25174  address [] memory */\n      0x60\n        /* \"Volunteer_flattened.sol\":25124:25132  currency */\n      dup2\n        /* \"Volunteer_flattened.sol\":28009:28036  Strings.equal(currency, \"\") */\n      tag_133\n        /* \"Volunteer_flattened.sol\":28023:28031  currency */\n      dup2\n        /* \"Volunteer_flattened.sol\":28009:28036  Strings.equal(currency, \"\") */\n      mload(0x40)\n      dup1\n      0x20\n      add\n      0x40\n      mstore\n      dup1\n      0x00\n      dup2\n      mstore\n      pop\n        /* \"Volunteer_flattened.sol\":28009:28022  Strings.equal */\n      tag_119\n        /* \"Volunteer_flattened.sol\":28009:28036  Strings.equal(currency, \"\") */\n      jump\t// in\n    tag_133:\n        /* \"Volunteer_flattened.sol\":28009:28073  Strings.equal(currency, \"\") || Strings.equal(currency, ADT_NAME) */\n      dup1\n      tag_134\n      jumpi\n      pop\n        /* \"Volunteer_flattened.sol\":28040:28073  Strings.equal(currency, ADT_NAME) */\n      tag_135\n        /* \"Volunteer_flattened.sol\":28054:28062  currency */\n      dup2\n        /* \"Volunteer_flattened.sol\":28064:28072  ADT_NAME */\n      mload(0x40)\n      dup1\n      0x40\n      add\n      0x40\n      mstore\n      dup1\n      0x03\n      dup2\n      mstore\n      0x20\n      add\n      0x4144540000000000000000000000000000000000000000000000000000000000\n      dup2\n      mstore\n      pop\n        /* \"Volunteer_flattened.sol\":28040:28053  Strings.equal */\n      tag_119\n        /* \"Volunteer_flattened.sol\":28040:28073  Strings.equal(currency, ADT_NAME) */\n      jump\t// in\n    tag_135:\n        /* \"Volunteer_flattened.sol\":28009:28073  Strings.equal(currency, \"\") || Strings.equal(currency, ADT_NAME) */\n    tag_134:\n        /* \"Volunteer_flattened.sol\":28009:28110  Strings.equal(currency, \"\") || Strings.equal(currency, ADT_NAME) || Strings.equal(currency, ETH_NAME) */\n      dup1\n      tag_136\n      jumpi\n      pop\n        /* \"Volunteer_flattened.sol\":28077:28110  Strings.equal(currency, ETH_NAME) */\n      tag_137\n        /* \"Volunteer_flattened.sol\":28091:28099  currency */\n      dup2\n        /* \"Volunteer_flattened.sol\":28101:28109  ETH_NAME */\n      mload(0x40)\n      dup1\n      0x40\n      add\n      0x40\n      mstore\n      dup1\n      0x03\n      dup2\n      mstore\n      0x20\n      add\n      0x4554480000000000000000000000000000000000000000000000000000000000\n      dup2\n      mstore\n      pop\n        /* \"Volunteer_flattened.sol\":28077:28090  Strings.equal */\n      tag_119\n        /* \"Volunteer_flattened.sol\":28077:28110  Strings.equal(currency, ETH_NAME) */\n      jump\t// in\n    tag_137:\n        /* \"Volunteer_flattened.sol\":28009:28110  Strings.equal(currency, \"\") || Strings.equal(currency, ADT_NAME) || Strings.equal(currency, ETH_NAME) */\n    tag_136:\n        /* \"Volunteer_flattened.sol\":28001:28131  require(Strings.equal(currency, \"\") || Strings.equal(currency, ADT_NAME) || Strings.equal(currency, ETH_NAME), \"Invalid currency\") */\n      tag_138\n      jumpi\n      mload(0x40)\n      0x08c379a000000000000000000000000000000000000000000000000000000000\n      dup2\n      mstore\n      0x04\n      add\n      tag_139\n      swap1\n      tag_126\n      jump\t// in\n    tag_139:\n      mload(0x40)\n      dup1\n      swap2\n      sub\n      swap1\n      revert\n    tag_138:\n        /* \"Volunteer_flattened.sol\":25190:25223  Strings.equal(currency, ETH_NAME) */\n      tag_141\n        /* \"Volunteer_flattened.sol\":25204:25212  currency */\n      dup4\n        /* \"Volunteer_flattened.sol\":25214:25222  ETH_NAME */\n      mload(0x40)\n      dup1\n      0x40\n      add\n      0x40\n      mstore\n      dup1\n      0x03\n      dup2\n      mstore\n      0x20\n      add\n      0x4554480000000000000000000000000000000000000000000000000000000000\n      dup2\n      mstore\n      pop\n        /* \"Volunteer_flattened.sol\":25190:25203  Strings.equal */\n      tag_119\n        /* \"Volunteer_flattened.sol\":25190:25223  Strings.equal(currency, ETH_NAME) */\n      jump\t// in\n    tag_141:\n        /* \"Volunteer_flattened.sol\":25190:25253  Strings.equal(currency, ETH_NAME) || Strings.equal(currency,'') */\n      dup1\n      tag_142\n      jumpi\n      pop\n        /* \"Volunteer_flattened.sol\":25227:25253  Strings.equal(currency,'') */\n      tag_143\n        /* \"Volunteer_flattened.sol\":25241:25249  currency */\n      dup4\n        /* \"Volunteer_flattened.sol\":25227:25253  Strings.equal(currency,'') */\n      mload(0x40)\n      dup1\n      0x20\n      add\n      0x40\n      mstore\n      dup1\n      0x00\n      dup2\n      mstore\n      pop\n        /* \"Volunteer_flattened.sol\":25227:25240  Strings.equal */\n      tag_119\n        /* \"Volunteer_flattened.sol\":25227:25253  Strings.equal(currency,'') */\n      jump\t// in\n    tag_143:\n        /* \"Volunteer_flattened.sol\":25190:25253  Strings.equal(currency, ETH_NAME) || Strings.equal(currency,'') */\n    tag_142:\n        /* \"Volunteer_flattened.sol\":25186:25303  if (Strings.equal(currency, ETH_NAME) || Strings.equal(currency,'')) {... */\n      iszero\n      tag_144\n      jumpi\n        /* \"Volunteer_flattened.sol\":25276:25292  donatorAddresses */\n      0x03\n        /* \"Volunteer_flattened.sol\":25269:25292  return donatorAddresses */\n      dup1\n      sload\n      dup1\n      0x20\n      mul\n      0x20\n      add\n      mload(0x40)\n      swap1\n      dup2\n      add\n      0x40\n      mstore\n      dup1\n      swap3\n      swap2\n      swap1\n      dup2\n      dup2\n      mstore\n      0x20\n      add\n      dup3\n      dup1\n      sload\n      dup1\n      iszero\n      tag_145\n      jumpi\n      0x20\n      mul\n      dup3\n      add\n      swap2\n      swap1\n      0x00\n      mstore\n      keccak256(0x00, 0x20)\n      swap1\n    tag_146:\n      dup2\n      0x00\n      swap1\n      sload\n      swap1\n      0x0100\n      exp\n      swap1\n      div\n      0xffffffffffffffffffffffffffffffffffffffff\n      and\n      0xffffffffffffffffffffffffffffffffffffffff\n      and\n      dup2\n      mstore\n      0x20\n      add\n      swap1\n      0x01\n      add\n      swap1\n      dup1\n      dup4\n      gt\n      tag_146\n      jumpi\n    tag_145:\n      pop\n      pop\n      pop\n      pop\n      pop\n      swap2\n      pop\n      jump(tag_140)\n        /* \"Volunteer_flattened.sol\":25186:25303  if (Strings.equal(currency, ETH_NAME) || Strings.equal(currency,'')) {... */\n    tag_144:\n        /* \"Volunteer_flattened.sol\":25319:25338  donatorAddressesADT */\n      0x04\n        /* \"Volunteer_flattened.sol\":25312:25338  return donatorAddressesADT */\n      dup1\n      sload\n      dup1\n      0x20\n      mul\n      0x20\n      add\n      mload(0x40)\n      swap1\n      dup2\n      add\n      0x40\n      mstore\n      dup1\n      swap3\n      swap2\n      swap1\n      dup2\n      dup2\n      mstore\n      0x20\n      add\n      dup3\n      dup1\n      sload\n      dup1\n      iszero\n      tag_147\n      jumpi\n      0x20\n      mul\n      dup3\n      add\n      swap2\n      swap1\n      0x00\n      mstore\n      keccak256(0x00, 0x20)\n      swap1\n    tag_148:\n      dup2\n      0x00\n      swap1\n      sload\n      swap1\n      0x0100\n      exp\n      swap1\n      div\n      0xffffffffffffffffffffffffffffffffffffffff\n      and\n      0xffffffffffffffffffffffffffffffffffffffff\n      and\n      dup2\n      mstore\n      0x20\n      add\n      swap1\n      0x01\n      add\n      swap1\n      dup1\n      dup4\n      gt\n      tag_148\n      jumpi\n    tag_147:\n      pop\n      pop\n      pop\n      pop\n      pop\n      swap2\n      pop\n        /* \"Volunteer_flattened.sol\":28141:28142  _ */\n    tag_140:\n        /* \"Volunteer_flattened.sol\":25061:25345  function getDonators(string memory currency) isAllowedCurrency(currency) external view returns (address [] memory) {... */\n      pop\n      swap2\n      swap1\n      pop\n      jump\t// out\n        /* \"Volunteer_flattened.sol\":26061:26178  function setCherityRepresentativeAddress(address addr) external isOwner {... */\n    tag_52:\n        /* \"Volunteer_flattened.sol\":28206:28215  ownerAdrr */\n      0x00\n      dup1\n      sload\n      swap1\n      0x0100\n      exp\n      swap1\n      div\n      0xffffffffffffffffffffffffffffffffffffffff\n      and\n        /* \"Volunteer_flattened.sol\":28192:28215  msg.sender == ownerAdrr */\n      0xffffffffffffffffffffffffffffffffffffffff\n      and\n        /* \"Volunteer_flattened.sol\":28192:28202  msg.sender */\n      caller\n        /* \"Volunteer_flattened.sol\":28192:28215  msg.sender == ownerAdrr */\n      0xffffffffffffffffffffffffffffffffffffffff\n      and\n      eq\n        /* \"Volunteer_flattened.sol\":28184:28239  require(msg.sender == ownerAdrr, \"Caller is not owner\") */\n      tag_150\n      jumpi\n      mload(0x40)\n      0x08c379a000000000000000000000000000000000000000000000000000000000\n      dup2\n      mstore\n      0x04\n      add\n      tag_151\n      swap1\n      tag_79\n      jump\t// in\n    tag_151:\n      mload(0x40)\n      dup1\n      swap2\n      sub\n      swap1\n      revert\n    tag_150:\n        /* \"Volunteer_flattened.sol\":26167:26171  addr */\n      dup1\n        /* \"Volunteer_flattened.sol\":26143:26164  representativeAddress */\n      0x0a\n      0x00\n        /* \"Volunteer_flattened.sol\":26143:26171  representativeAddress = addr */\n      0x0100\n      exp\n      dup2\n      sload\n      dup2\n      0xffffffffffffffffffffffffffffffffffffffff\n      mul\n      not\n      and\n      swap1\n      dup4\n      0xffffffffffffffffffffffffffffffffffffffff\n      and\n      mul\n      or\n      swap1\n      sstore\n      pop\n        /* \"Volunteer_flattened.sol\":26061:26178  function setCherityRepresentativeAddress(address addr) external isOwner {... */\n      pop\n      jump\t// out\n        /* \"Volunteer_flattened.sol\":24964:25055  function getOwnerAdress() external view returns (address) {... */\n    tag_55:\n        /* \"Volunteer_flattened.sol\":25013:25020  address */\n      0x00\n        /* \"Volunteer_flattened.sol\":25039:25048  ownerAdrr */\n      dup1\n      0x00\n      swap1\n      sload\n      swap1\n      0x0100\n      exp\n      swap1\n      div\n      0xffffffffffffffffffffffffffffffffffffffff\n      and\n        /* \"Volunteer_flattened.sol\":25032:25048  return ownerAdrr */\n      swap1\n      pop\n        /* \"Volunteer_flattened.sol\":24964:25055  function getOwnerAdress() external view returns (address) {... */\n      swap1\n      jump\t// out\n        /* \"Volunteer_flattened.sol\":25935:26055  function setCherityDestinationAddress(address addr) external isOwner {... */\n    tag_61:\n        /* \"Volunteer_flattened.sol\":28206:28215  ownerAdrr */\n      0x00\n      dup1\n      sload\n      swap1\n      0x0100\n      exp\n      swap1\n      div\n      0xffffffffffffffffffffffffffffffffffffffff\n      and\n        /* \"Volunteer_flattened.sol\":28192:28215  msg.sender == ownerAdrr */\n      0xffffffffffffffffffffffffffffffffffffffff\n      and\n        /* \"Volunteer_flattened.sol\":28192:28202  msg.sender */\n      caller\n        /* \"Volunteer_flattened.sol\":28192:28215  msg.sender == ownerAdrr */\n      0xffffffffffffffffffffffffffffffffffffffff\n      and\n      eq\n        /* \"Volunteer_flattened.sol\":28184:28239  require(msg.sender == ownerAdrr, \"Caller is not owner\") */\n      tag_155\n      jumpi\n      mload(0x40)\n      0x08c379a000000000000000000000000000000000000000000000000000000000\n      dup2\n      mstore\n      0x04\n      add\n      tag_156\n      swap1\n      tag_79\n      jump\t// in\n    tag_156:\n      mload(0x40)\n      dup1\n      swap2\n      sub\n      swap1\n      revert\n    tag_155:\n        /* \"Volunteer_flattened.sol\":26043:26047  addr */\n      dup1\n        /* \"Volunteer_flattened.sol\":26014:26032  destinationAddress */\n      0x09\n      0x00\n        /* \"Volunteer_flattened.sol\":26014:26048  destinationAddress = payable(addr) */\n      0x0100\n      exp\n      dup2\n      sload\n      dup2\n      0xffffffffffffffffffffffffffffffffffffffff\n      mul\n      not\n      and\n      swap1\n      dup4\n      0xffffffffffffffffffffffffffffffffffffffff\n      and\n      mul\n      or\n      swap1\n      sstore\n      pop\n        /* \"Volunteer_flattened.sol\":25935:26055  function setCherityDestinationAddress(address addr) external isOwner {... */\n      pop\n      jump\t// out\n        /* \"Volunteer_flattened.sol\":26777:27241  function withdrawADT() external isRepresentative {... */\n    tag_64:\n        /* \"Volunteer_flattened.sol\":28323:28344  representativeAddress */\n      0x0a\n      0x00\n      swap1\n      sload\n      swap1\n      0x0100\n      exp\n      swap1\n      div\n      0xffffffffffffffffffffffffffffffffffffffff\n      and\n        /* \"Volunteer_flattened.sol\":28309:28344  msg.sender == representativeAddress */\n      0xffffffffffffffffffffffffffffffffffffffff\n      and\n        /* \"Volunteer_flattened.sol\":28309:28319  msg.sender */\n      caller\n        /* \"Volunteer_flattened.sol\":28309:28344  msg.sender == representativeAddress */\n      0xffffffffffffffffffffffffffffffffffffffff\n      and\n      eq\n        /* \"Volunteer_flattened.sol\":28301:28380  require(msg.sender == representativeAddress, \"Allowed only for representative\") */\n      tag_159\n      jumpi\n      mload(0x40)\n      0x08c379a000000000000000000000000000000000000000000000000000000000\n      dup2\n      mstore\n      0x04\n      add\n      tag_160\n      swap1\n      tag_95\n      jump\t// in\n    tag_160:\n      mload(0x40)\n      dup1\n      swap2\n      sub\n      swap1\n      revert\n    tag_159:\n        /* \"Volunteer_flattened.sol\":26874:26875  0 */\n      0x00\n        /* \"Volunteer_flattened.sol\":26844:26876  destinationAddress != address(0) */\n      0xffffffffffffffffffffffffffffffffffffffff\n      and\n        /* \"Volunteer_flattened.sol\":26844:26862  destinationAddress */\n      0x09\n      0x00\n      swap1\n      sload\n      swap1\n      0x0100\n      exp\n      swap1\n      div\n      0xffffffffffffffffffffffffffffffffffffffff\n      and\n        /* \"Volunteer_flattened.sol\":26844:26876  destinationAddress != address(0) */\n      0xffffffffffffffffffffffffffffffffffffffff\n      and\n      sub\n        /* \"Volunteer_flattened.sol\":26836:26908  require(destinationAddress != address(0), \"Destination addr is not set\") */\n      tag_162\n      jumpi\n      mload(0x40)\n      0x08c379a000000000000000000000000000000000000000000000000000000000\n      dup2\n      mstore\n      0x04\n      add\n      tag_163\n      swap1\n      tag_99\n      jump\t// in\n    tag_163:\n      mload(0x40)\n      dup1\n      swap2\n      sub\n      swap1\n      revert\n    tag_162:\n        /* \"Volunteer_flattened.sol\":26926:26938  isDeadline() */\n      tag_164\n        /* \"Volunteer_flattened.sol\":26926:26936  isDeadline */\n      tag_31\n        /* \"Volunteer_flattened.sol\":26926:26938  isDeadline() */\n      jump\t// in\n    tag_164:\n        /* \"Volunteer_flattened.sol\":26918:26962  require(isDeadline(), \"Is not deadline yet\") */\n      tag_165\n      jumpi\n      mload(0x40)\n      0x08c379a000000000000000000000000000000000000000000000000000000000\n      dup2\n      mstore\n      0x04\n      add\n      tag_166\n      swap1\n      tag_103\n      jump\t// in\n    tag_166:\n      mload(0x40)\n      dup1\n      swap2\n      sub\n      swap1\n      revert\n    tag_165:\n        /* \"Volunteer_flattened.sol\":26973:26982  bool sent */\n      0x00\n        /* \"Volunteer_flattened.sol\":26985:26992  adToken */\n      immutable(\"0x4466283c940bb7a5216af53f423a40739f8ea2b3016fcb9a55e9e9ecf800125a\")\n        /* \"Volunteer_flattened.sol\":26985:27001  adToken.transfer */\n      0xffffffffffffffffffffffffffffffffffffffff\n      and\n      0xa9059cbb\n        /* \"Volunteer_flattened.sol\":27002:27020  destinationAddress */\n      0x09\n      0x00\n      swap1\n      sload\n      swap1\n      0x0100\n      exp\n      swap1\n      div\n      0xffffffffffffffffffffffffffffffffffffffff\n      and\n        /* \"Volunteer_flattened.sol\":27022:27038  donationTotalADT */\n      sload(0x06)\n        /* \"Volunteer_flattened.sol\":26985:27039  adToken.transfer(destinationAddress, donationTotalADT) */\n      mload(0x40)\n      dup4\n      0xffffffff\n      and\n      0xe0\n      shl\n      dup2\n      mstore\n      0x04\n      add\n      tag_167\n      swap3\n      swap2\n      swap1\n      tag_168\n      jump\t// in\n    tag_167:\n      0x20\n      mload(0x40)\n      dup1\n      dup4\n      sub\n      dup2\n      0x00\n      dup8\n      gas\n      call\n      iszero\n      dup1\n      iszero\n      tag_170\n      jumpi\n      returndatasize\n      0x00\n      dup1\n      returndatacopy\n      revert(0x00, returndatasize)\n    tag_170:\n      pop\n      pop\n      pop\n      pop\n      mload(0x40)\n      returndatasize\n      not(0x1f)\n      0x1f\n      dup3\n      add\n      and\n      dup3\n      add\n      dup1\n      0x40\n      mstore\n      pop\n      dup2\n      add\n      swap1\n      tag_171\n      swap2\n      swap1\n      tag_172\n      jump\t// in\n    tag_171:\n        /* \"Volunteer_flattened.sol\":26973:27039  bool sent = adToken.transfer(destinationAddress, donationTotalADT) */\n      swap1\n      pop\n        /* \"Volunteer_flattened.sol\":27057:27061  sent */\n      dup1\n        /* \"Volunteer_flattened.sol\":27049:27110  require(sent, \"Failed to tranfer ADT to destination address\") */\n      tag_173\n      jumpi\n      mload(0x40)\n      0x08c379a000000000000000000000000000000000000000000000000000000000\n      dup2\n      mstore\n      0x04\n      add\n      tag_174\n      swap1\n      tag_175\n      jump\t// in\n    tag_174:\n      mload(0x40)\n      dup1\n      swap2\n      sub\n      swap1\n      revert\n    tag_173:\n        /* \"Volunteer_flattened.sol\":27140:27141  0 */\n      0x00\n        /* \"Volunteer_flattened.sol\":27121:27137  donationTotalADT */\n      0x06\n        /* \"Volunteer_flattened.sol\":27121:27141  donationTotalADT = 0 */\n      dup2\n      swap1\n      sstore\n      pop\n        /* \"Volunteer_flattened.sol\":27156:27234  ActionEvent(\"withdrawBalance\", donationTotalADT, ETH_NAME, destinationAddress) */\n      0x04a451432327cde4eba7a5cb53d98b0f209ea7c64f931ecebe3986a1e4468bdd\n        /* \"Volunteer_flattened.sol\":27187:27203  donationTotalADT */\n      sload(0x06)\n        /* \"Volunteer_flattened.sol\":27205:27213  ETH_NAME */\n      mload(0x40)\n      dup1\n      0x40\n      add\n      0x40\n      mstore\n      dup1\n      0x03\n      dup2\n      mstore\n      0x20\n      add\n      0x4554480000000000000000000000000000000000000000000000000000000000\n      dup2\n      mstore\n      pop\n        /* \"Volunteer_flattened.sol\":27215:27233  destinationAddress */\n      0x09\n      0x00\n      swap1\n      sload\n      swap1\n      0x0100\n      exp\n      swap1\n      div\n      0xffffffffffffffffffffffffffffffffffffffff\n      and\n        /* \"Volunteer_flattened.sol\":27156:27234  ActionEvent(\"withdrawBalance\", donationTotalADT, ETH_NAME, destinationAddress) */\n      mload(0x40)\n      tag_176\n      swap4\n      swap3\n      swap2\n      swap1\n      tag_113\n      jump\t// in\n    tag_176:\n      mload(0x40)\n      dup1\n      swap2\n      sub\n      swap1\n      log1\n        /* \"Volunteer_flattened.sol\":26826:27241  {... */\n      pop\n        /* \"Volunteer_flattened.sol\":26777:27241  function withdrawADT() external isRepresentative {... */\n      jump\t// out\n        /* \"Volunteer_flattened.sol\":23725:24301  function donate() external payable {... */\n    tag_66:\n        /* \"Volunteer_flattened.sol\":23791:23806  minimumDonation */\n      sload(0x07)\n        /* \"Volunteer_flattened.sol\":23778:23787  msg.value */\n      callvalue\n        /* \"Volunteer_flattened.sol\":23778:23806  msg.value >= minimumDonation */\n      lt\n      iszero\n        /* \"Volunteer_flattened.sol\":23822:23855  Strings.toString(minimumDonation) */\n      tag_178\n        /* \"Volunteer_flattened.sol\":23839:23854  minimumDonation */\n      sload(0x07)\n        /* \"Volunteer_flattened.sol\":23822:23838  Strings.toString */\n      tag_86\n        /* \"Volunteer_flattened.sol\":23822:23855  Strings.toString(minimumDonation) */\n      jump\t// in\n    tag_178:\n        /* \"Volunteer_flattened.sol\":23808:23877  string.concat(Strings.toString(minimumDonation), \" is minimum value\") */\n      add(0x20, mload(0x40))\n      tag_179\n      swap2\n      swap1\n      tag_180\n      jump\t// in\n    tag_179:\n      mload(0x40)\n      0x20\n      dup2\n      dup4\n      sub\n      sub\n      dup2\n      mstore\n      swap1\n      0x40\n      mstore\n        /* \"Volunteer_flattened.sol\":23770:23878  require(msg.value >= minimumDonation, string.concat(Strings.toString(minimumDonation), \" is minimum value\")) */\n      swap1\n      tag_181\n      jumpi\n      mload(0x40)\n      0x08c379a000000000000000000000000000000000000000000000000000000000\n      dup2\n      mstore\n      0x04\n      add\n      tag_182\n      swap2\n      swap1\n      tag_91\n      jump\t// in\n    tag_182:\n      mload(0x40)\n      dup1\n      swap2\n      sub\n      swap1\n      revert\n    tag_181:\n      pop\n        /* \"Volunteer_flattened.sol\":23897:23909  isDeadline() */\n      tag_183\n        /* \"Volunteer_flattened.sol\":23897:23907  isDeadline */\n      tag_31\n        /* \"Volunteer_flattened.sol\":23897:23909  isDeadline() */\n      jump\t// in\n    tag_183:\n        /* \"Volunteer_flattened.sol\":23896:23909  !isDeadline() */\n      iszero\n        /* \"Volunteer_flattened.sol\":23888:23949  require(!isDeadline(), \"Donation not allowed after deadline\") */\n      tag_184\n      jumpi\n      mload(0x40)\n      0x08c379a000000000000000000000000000000000000000000000000000000000\n      dup2\n      mstore\n      0x04\n      add\n      tag_185\n      swap1\n      tag_186\n      jump\t// in\n    tag_185:\n      mload(0x40)\n      dup1\n      swap2\n      sub\n      swap1\n      revert\n    tag_184:\n        /* \"Volunteer_flattened.sol\":23985:23994  msg.value */\n      callvalue\n        /* \"Volunteer_flattened.sol\":23960:23969  donations */\n      0x01\n        /* \"Volunteer_flattened.sol\":23960:23981  donations[msg.sender] */\n      0x00\n        /* \"Volunteer_flattened.sol\":23970:23980  msg.sender */\n      caller\n        /* \"Volunteer_flattened.sol\":23960:23981  donations[msg.sender] */\n      0xffffffffffffffffffffffffffffffffffffffff\n      and\n      0xffffffffffffffffffffffffffffffffffffffff\n      and\n      dup2\n      mstore\n      0x20\n      add\n      swap1\n      dup2\n      mstore\n      0x20\n      add\n      0x00\n      keccak256\n      0x00\n        /* \"Volunteer_flattened.sol\":23960:23994  donations[msg.sender] += msg.value */\n      dup3\n      dup3\n      sload\n      tag_187\n      swap2\n      swap1\n      tag_116\n      jump\t// in\n    tag_187:\n      swap3\n      pop\n      pop\n      dup2\n      swap1\n      sstore\n      pop\n        /* \"Volunteer_flattened.sol\":24010:24058  _existsAddressItem(donatorAddresses, msg.sender) */\n      tag_188\n        /* \"Volunteer_flattened.sol\":24029:24045  donatorAddresses */\n      0x03\n        /* \"Volunteer_flattened.sol\":24010:24058  _existsAddressItem(donatorAddresses, msg.sender) */\n      dup1\n      sload\n      dup1\n      0x20\n      mul\n      0x20\n      add\n      mload(0x40)\n      swap1\n      dup2\n      add\n      0x40\n      mstore\n      dup1\n      swap3\n      swap2\n      swap1\n      dup2\n      dup2\n      mstore\n      0x20\n      add\n      dup3\n      dup1\n      sload\n      dup1\n      iszero\n      tag_189\n      jumpi\n      0x20\n      mul\n      dup3\n      add\n      swap2\n      swap1\n      0x00\n      mstore\n      keccak256(0x00, 0x20)\n      swap1\n    tag_190:\n      dup2\n      0x00\n      swap1\n      sload\n      swap1\n      0x0100\n      exp\n      swap1\n      div\n      0xffffffffffffffffffffffffffffffffffffffff\n      and\n      0xffffffffffffffffffffffffffffffffffffffff\n      and\n      dup2\n      mstore\n      0x20\n      add\n      swap1\n      0x01\n      add\n      swap1\n      dup1\n      dup4\n      gt\n      tag_190\n      jumpi\n    tag_189:\n      pop\n      pop\n      pop\n      pop\n      pop\n        /* \"Volunteer_flattened.sol\":24047:24057  msg.sender */\n      caller\n        /* \"Volunteer_flattened.sol\":24010:24028  _existsAddressItem */\n      tag_191\n        /* \"Volunteer_flattened.sol\":24010:24058  _existsAddressItem(donatorAddresses, msg.sender) */\n      jump\t// in\n    tag_188:\n        /* \"Volunteer_flattened.sol\":24005:24188  if (!_existsAddressItem(donatorAddresses, msg.sender)) {... */\n      tag_192\n      jumpi\n        /* \"Volunteer_flattened.sol\":24144:24160  donatorAddresses */\n      0x03\n        /* \"Volunteer_flattened.sol\":24166:24176  msg.sender */\n      caller\n        /* \"Volunteer_flattened.sol\":24144:24177  donatorAddresses.push(msg.sender) */\n      swap1\n      dup1\n      0x01\n      dup2\n      sload\n      add\n      dup1\n      dup3\n      sstore\n      dup1\n      swap2\n      pop\n      pop\n      0x01\n      swap1\n      sub\n      swap1\n      0x00\n      mstore\n      keccak256(0x00, 0x20)\n      add\n      0x00\n      swap1\n      swap2\n      swap1\n      swap2\n      swap1\n      swap2\n      0x0100\n      exp\n      dup2\n      sload\n      dup2\n      0xffffffffffffffffffffffffffffffffffffffff\n      mul\n      not\n      and\n      swap1\n      dup4\n      0xffffffffffffffffffffffffffffffffffffffff\n      and\n      mul\n      or\n      swap1\n      sstore\n      pop\n        /* \"Volunteer_flattened.sol\":24005:24188  if (!_existsAddressItem(donatorAddresses, msg.sender)) {... */\n    tag_192:\n        /* \"Volunteer_flattened.sol\":24215:24224  msg.value */\n      callvalue\n        /* \"Volunteer_flattened.sol\":24198:24211  donationTotal */\n      0x05\n      0x00\n        /* \"Volunteer_flattened.sol\":24198:24224  donationTotal += msg.value */\n      dup3\n      dup3\n      sload\n      tag_194\n      swap2\n      swap1\n      tag_116\n      jump\t// in\n    tag_194:\n      swap3\n      pop\n      pop\n      dup2\n      swap1\n      sstore\n      pop\n        /* \"Volunteer_flattened.sol\":24240:24294  ActionEvent(\"donate\", msg.value, ETH_NAME, msg.sender) */\n      0x04a451432327cde4eba7a5cb53d98b0f209ea7c64f931ecebe3986a1e4468bdd\n        /* \"Volunteer_flattened.sol\":24262:24271  msg.value */\n      callvalue\n        /* \"Volunteer_flattened.sol\":24273:24281  ETH_NAME */\n      mload(0x40)\n      dup1\n      0x40\n      add\n      0x40\n      mstore\n      dup1\n      0x03\n      dup2\n      mstore\n      0x20\n      add\n      0x4554480000000000000000000000000000000000000000000000000000000000\n      dup2\n      mstore\n      pop\n        /* \"Volunteer_flattened.sol\":24283:24293  msg.sender */\n      caller\n        /* \"Volunteer_flattened.sol\":24240:24294  ActionEvent(\"donate\", msg.value, ETH_NAME, msg.sender) */\n      mload(0x40)\n      tag_195\n      swap4\n      swap3\n      swap2\n      swap1\n      tag_196\n      jump\t// in\n    tag_195:\n      mload(0x40)\n      dup1\n      swap2\n      sub\n      swap1\n      log1\n        /* \"Volunteer_flattened.sol\":23725:24301  function donate() external payable {... */\n      jump\t// out\n        /* \"Volunteer_flattened.sol\":25351:25623  function getDonatedTotal(string memory currency) isAllowedCurrency(currency) external view returns (uint256) {... */\n    tag_70:\n        /* \"Volunteer_flattened.sol\":25451:25458  uint256 */\n      0x00\n        /* \"Volunteer_flattened.sol\":25418:25426  currency */\n      dup2\n        /* \"Volunteer_flattened.sol\":28009:28036  Strings.equal(currency, \"\") */\n      tag_198\n        /* \"Volunteer_flattened.sol\":28023:28031  currency */\n      dup2\n        /* \"Volunteer_flattened.sol\":28009:28036  Strings.equal(currency, \"\") */\n      mload(0x40)\n      dup1\n      0x20\n      add\n      0x40\n      mstore\n      dup1\n      0x00\n      dup2\n      mstore\n      pop\n        /* \"Volunteer_flattened.sol\":28009:28022  Strings.equal */\n      tag_119\n        /* \"Volunteer_flattened.sol\":28009:28036  Strings.equal(currency, \"\") */\n      jump\t// in\n    tag_198:\n        /* \"Volunteer_flattened.sol\":28009:28073  Strings.equal(currency, \"\") || Strings.equal(currency, ADT_NAME) */\n      dup1\n      tag_199\n      jumpi\n      pop\n        /* \"Volunteer_flattened.sol\":28040:28073  Strings.equal(currency, ADT_NAME) */\n      tag_200\n        /* \"Volunteer_flattened.sol\":28054:28062  currency */\n      dup2\n        /* \"Volunteer_flattened.sol\":28064:28072  ADT_NAME */\n      mload(0x40)\n      dup1\n      0x40\n      add\n      0x40\n      mstore\n      dup1\n      0x03\n      dup2\n      mstore\n      0x20\n      add\n      0x4144540000000000000000000000000000000000000000000000000000000000\n      dup2\n      mstore\n      pop\n        /* \"Volunteer_flattened.sol\":28040:28053  Strings.equal */\n      tag_119\n        /* \"Volunteer_flattened.sol\":28040:28073  Strings.equal(currency, ADT_NAME) */\n      jump\t// in\n    tag_200:\n        /* \"Volunteer_flattened.sol\":28009:28073  Strings.equal(currency, \"\") || Strings.equal(currency, ADT_NAME) */\n    tag_199:\n        /* \"Volunteer_flattened.sol\":28009:28110  Strings.equal(currency, \"\") || Strings.equal(currency, ADT_NAME) || Strings.equal(currency, ETH_NAME) */\n      dup1\n      tag_201\n      jumpi\n      pop\n        /* \"Volunteer_flattened.sol\":28077:28110  Strings.equal(currency, ETH_NAME) */\n      tag_202\n        /* \"Volunteer_flattened.sol\":28091:28099  currency */\n      dup2\n        /* \"Volunteer_flattened.sol\":28101:28109  ETH_NAME */\n      mload(0x40)\n      dup1\n      0x40\n      add\n      0x40\n      mstore\n      dup1\n      0x03\n      dup2\n      mstore\n      0x20\n      add\n      0x4554480000000000000000000000000000000000000000000000000000000000\n      dup2\n      mstore\n      pop\n        /* \"Volunteer_flattened.sol\":28077:28090  Strings.equal */\n      tag_119\n        /* \"Volunteer_flattened.sol\":28077:28110  Strings.equal(currency, ETH_NAME) */\n      jump\t// in\n    tag_202:\n        /* \"Volunteer_flattened.sol\":28009:28110  Strings.equal(currency, \"\") || Strings.equal(currency, ADT_NAME) || Strings.equal(currency, ETH_NAME) */\n    tag_201:\n        /* \"Volunteer_flattened.sol\":28001:28131  require(Strings.equal(currency, \"\") || Strings.equal(currency, ADT_NAME) || Strings.equal(currency, ETH_NAME), \"Invalid currency\") */\n      tag_203\n      jumpi\n      mload(0x40)\n      0x08c379a000000000000000000000000000000000000000000000000000000000\n      dup2\n      mstore\n      0x04\n      add\n      tag_204\n      swap1\n      tag_126\n      jump\t// in\n    tag_204:\n      mload(0x40)\n      dup1\n      swap2\n      sub\n      swap1\n      revert\n    tag_203:\n        /* \"Volunteer_flattened.sol\":25474:25507  Strings.equal(currency, ETH_NAME) */\n      tag_206\n        /* \"Volunteer_flattened.sol\":25488:25496  currency */\n      dup4\n        /* \"Volunteer_flattened.sol\":25498:25506  ETH_NAME */\n      mload(0x40)\n      dup1\n      0x40\n      add\n      0x40\n      mstore\n      dup1\n      0x03\n      dup2\n      mstore\n      0x20\n      add\n      0x4554480000000000000000000000000000000000000000000000000000000000\n      dup2\n      mstore\n      pop\n        /* \"Volunteer_flattened.sol\":25474:25487  Strings.equal */\n      tag_119\n        /* \"Volunteer_flattened.sol\":25474:25507  Strings.equal(currency, ETH_NAME) */\n      jump\t// in\n    tag_206:\n        /* \"Volunteer_flattened.sol\":25474:25537  Strings.equal(currency, ETH_NAME) || Strings.equal(currency,'') */\n      dup1\n      tag_207\n      jumpi\n      pop\n        /* \"Volunteer_flattened.sol\":25511:25537  Strings.equal(currency,'') */\n      tag_208\n        /* \"Volunteer_flattened.sol\":25525:25533  currency */\n      dup4\n        /* \"Volunteer_flattened.sol\":25511:25537  Strings.equal(currency,'') */\n      mload(0x40)\n      dup1\n      0x20\n      add\n      0x40\n      mstore\n      dup1\n      0x00\n      dup2\n      mstore\n      pop\n        /* \"Volunteer_flattened.sol\":25511:25524  Strings.equal */\n      tag_119\n        /* \"Volunteer_flattened.sol\":25511:25537  Strings.equal(currency,'') */\n      jump\t// in\n    tag_208:\n        /* \"Volunteer_flattened.sol\":25474:25537  Strings.equal(currency, ETH_NAME) || Strings.equal(currency,'') */\n    tag_207:\n        /* \"Volunteer_flattened.sol\":25470:25584  if (Strings.equal(currency, ETH_NAME) || Strings.equal(currency,'')) {... */\n      iszero\n      tag_209\n      jumpi\n        /* \"Volunteer_flattened.sol\":25560:25573  donationTotal */\n      sload(0x05)\n        /* \"Volunteer_flattened.sol\":25553:25573  return donationTotal */\n      swap2\n      pop\n      jump(tag_205)\n        /* \"Volunteer_flattened.sol\":25470:25584  if (Strings.equal(currency, ETH_NAME) || Strings.equal(currency,'')) {... */\n    tag_209:\n        /* \"Volunteer_flattened.sol\":25600:25616  donationTotalADT */\n      sload(0x06)\n        /* \"Volunteer_flattened.sol\":25593:25616  return donationTotalADT */\n      swap2\n      pop\n        /* \"Volunteer_flattened.sol\":28141:28142  _ */\n    tag_205:\n        /* \"Volunteer_flattened.sol\":25351:25623  function getDonatedTotal(string memory currency) isAllowedCurrency(currency) external view returns (uint256) {... */\n      pop\n      swap2\n      swap1\n      pop\n      jump\t// out\n        /* \"Volunteer_flattened.sol\":24307:24958  function donateADT(uint256 adtValue) external {... */\n    tag_75:\n        /* \"Volunteer_flattened.sol\":24383:24398  minimumDonation */\n      sload(0x07)\n        /* \"Volunteer_flattened.sol\":24371:24379  adtValue */\n      dup2\n        /* \"Volunteer_flattened.sol\":24371:24398  adtValue >= minimumDonation */\n      lt\n      iszero\n        /* \"Volunteer_flattened.sol\":24414:24447  Strings.toString(minimumDonation) */\n      tag_211\n        /* \"Volunteer_flattened.sol\":24431:24446  minimumDonation */\n      sload(0x07)\n        /* \"Volunteer_flattened.sol\":24414:24430  Strings.toString */\n      tag_86\n        /* \"Volunteer_flattened.sol\":24414:24447  Strings.toString(minimumDonation) */\n      jump\t// in\n    tag_211:\n        /* \"Volunteer_flattened.sol\":24400:24476  string.concat(Strings.toString(minimumDonation), \" is minimum value in ADT\") */\n      add(0x20, mload(0x40))\n      tag_212\n      swap2\n      swap1\n      tag_213\n      jump\t// in\n    tag_212:\n      mload(0x40)\n      0x20\n      dup2\n      dup4\n      sub\n      sub\n      dup2\n      mstore\n      swap1\n      0x40\n      mstore\n        /* \"Volunteer_flattened.sol\":24363:24477  require(adtValue >= minimumDonation, string.concat(Strings.toString(minimumDonation), \" is minimum value in ADT\")) */\n      swap1\n      tag_214\n      jumpi\n      mload(0x40)\n      0x08c379a000000000000000000000000000000000000000000000000000000000\n      dup2\n      mstore\n      0x04\n      add\n      tag_215\n      swap2\n      swap1\n      tag_91\n      jump\t// in\n    tag_215:\n      mload(0x40)\n      dup1\n      swap2\n      sub\n      swap1\n      revert\n    tag_214:\n      pop\n        /* \"Volunteer_flattened.sol\":24496:24508  isDeadline() */\n      tag_216\n        /* \"Volunteer_flattened.sol\":24496:24506  isDeadline */\n      tag_31\n        /* \"Volunteer_flattened.sol\":24496:24508  isDeadline() */\n      jump\t// in\n    tag_216:\n        /* \"Volunteer_flattened.sol\":24495:24508  !isDeadline() */\n      iszero\n        /* \"Volunteer_flattened.sol\":24487:24548  require(!isDeadline(), \"Donation not allowed after deadline\") */\n      tag_217\n      jumpi\n      mload(0x40)\n      0x08c379a000000000000000000000000000000000000000000000000000000000\n      dup2\n      mstore\n      0x04\n      add\n      tag_218\n      swap1\n      tag_186\n      jump\t// in\n    tag_218:\n      mload(0x40)\n      dup1\n      swap2\n      sub\n      swap1\n      revert\n    tag_217:\n        /* \"Volunteer_flattened.sol\":24559:24566  adToken */\n      immutable(\"0x4466283c940bb7a5216af53f423a40739f8ea2b3016fcb9a55e9e9ecf800125a\")\n        /* \"Volunteer_flattened.sol\":24559:24579  adToken.transferFrom */\n      0xffffffffffffffffffffffffffffffffffffffff\n      and\n      0x23b872dd\n        /* \"Volunteer_flattened.sol\":24580:24590  msg.sender */\n      caller\n        /* \"Volunteer_flattened.sol\":24600:24604  this */\n      address\n        /* \"Volunteer_flattened.sol\":24607:24615  adtValue */\n      dup5\n        /* \"Volunteer_flattened.sol\":24559:24616  adToken.transferFrom(msg.sender, address(this), adtValue) */\n      mload(0x40)\n      dup5\n      0xffffffff\n      and\n      0xe0\n      shl\n      dup2\n      mstore\n      0x04\n      add\n      tag_219\n      swap4\n      swap3\n      swap2\n      swap1\n      tag_220\n      jump\t// in\n    tag_219:\n      0x20\n      mload(0x40)\n      dup1\n      dup4\n      sub\n      dup2\n      0x00\n      dup8\n      gas\n      call\n      iszero\n      dup1\n      iszero\n      tag_222\n      jumpi\n      returndatasize\n      0x00\n      dup1\n      returndatacopy\n      revert(0x00, returndatasize)\n    tag_222:\n      pop\n      pop\n      pop\n      pop\n      mload(0x40)\n      returndatasize\n      not(0x1f)\n      0x1f\n      dup3\n      add\n      and\n      dup3\n      add\n      dup1\n      0x40\n      mstore\n      pop\n      dup2\n      add\n      swap1\n      tag_223\n      swap2\n      swap1\n      tag_172\n      jump\t// in\n    tag_223:\n      pop\n        /* \"Volunteer_flattened.sol\":24657:24665  adtValue */\n      dup1\n        /* \"Volunteer_flattened.sol\":24627:24641  donationsInADT */\n      0x02\n        /* \"Volunteer_flattened.sol\":24627:24653  donationsInADT[msg.sender] */\n      0x00\n        /* \"Volunteer_flattened.sol\":24642:24652  msg.sender */\n      caller\n        /* \"Volunteer_flattened.sol\":24627:24653  donationsInADT[msg.sender] */\n      0xffffffffffffffffffffffffffffffffffffffff\n      and\n      0xffffffffffffffffffffffffffffffffffffffff\n      and\n      dup2\n      mstore\n      0x20\n      add\n      swap1\n      dup2\n      mstore\n      0x20\n      add\n      0x00\n      keccak256\n      0x00\n        /* \"Volunteer_flattened.sol\":24627:24665  donationsInADT[msg.sender] += adtValue */\n      dup3\n      dup3\n      sload\n      tag_224\n      swap2\n      swap1\n      tag_116\n      jump\t// in\n    tag_224:\n      swap3\n      pop\n      pop\n      dup2\n      swap1\n      sstore\n      pop\n        /* \"Volunteer_flattened.sol\":24710:24711  0 */\n      0x00\n        /* \"Volunteer_flattened.sol\":24680:24694  donationsInADT */\n      0x02\n        /* \"Volunteer_flattened.sol\":24680:24706  donationsInADT[msg.sender] */\n      0x00\n        /* \"Volunteer_flattened.sol\":24695:24705  msg.sender */\n      caller\n        /* \"Volunteer_flattened.sol\":24680:24706  donationsInADT[msg.sender] */\n      0xffffffffffffffffffffffffffffffffffffffff\n      and\n      0xffffffffffffffffffffffffffffffffffffffff\n      and\n      dup2\n      mstore\n      0x20\n      add\n      swap1\n      dup2\n      mstore\n      0x20\n      add\n      0x00\n      keccak256\n      sload\n        /* \"Volunteer_flattened.sol\":24680:24711  donationsInADT[msg.sender] == 0 */\n      sub\n        /* \"Volunteer_flattened.sol\":24676:24844  if (donationsInADT[msg.sender] == 0) {... */\n      tag_225\n      jumpi\n        /* \"Volunteer_flattened.sol\":24797:24816  donatorAddressesADT */\n      0x04\n        /* \"Volunteer_flattened.sol\":24822:24832  msg.sender */\n      caller\n        /* \"Volunteer_flattened.sol\":24797:24833  donatorAddressesADT.push(msg.sender) */\n      swap1\n      dup1\n      0x01\n      dup2\n      sload\n      add\n      dup1\n      dup3\n      sstore\n      dup1\n      swap2\n      pop\n      pop\n      0x01\n      swap1\n      sub\n      swap1\n      0x00\n      mstore\n      keccak256(0x00, 0x20)\n      add\n      0x00\n      swap1\n      swap2\n      swap1\n      swap2\n      swap1\n      swap2\n      0x0100\n      exp\n      dup2\n      sload\n      dup2\n      0xffffffffffffffffffffffffffffffffffffffff\n      mul\n      not\n      and\n      swap1\n      dup4\n      0xffffffffffffffffffffffffffffffffffffffff\n      and\n      mul\n      or\n      swap1\n      sstore\n      pop\n        /* \"Volunteer_flattened.sol\":24676:24844  if (donationsInADT[msg.sender] == 0) {... */\n    tag_225:\n        /* \"Volunteer_flattened.sol\":24874:24882  adtValue */\n      dup1\n        /* \"Volunteer_flattened.sol\":24854:24870  donationTotalADT */\n      0x06\n      0x00\n        /* \"Volunteer_flattened.sol\":24854:24882  donationTotalADT += adtValue */\n      dup3\n      dup3\n      sload\n      tag_227\n      swap2\n      swap1\n      tag_116\n      jump\t// in\n    tag_227:\n      swap3\n      pop\n      pop\n      dup2\n      swap1\n      sstore\n      pop\n        /* \"Volunteer_flattened.sol\":24898:24951  ActionEvent(\"donate\", adtValue, ADT_NAME, msg.sender) */\n      0x04a451432327cde4eba7a5cb53d98b0f209ea7c64f931ecebe3986a1e4468bdd\n        /* \"Volunteer_flattened.sol\":24920:24928  adtValue */\n      dup2\n        /* \"Volunteer_flattened.sol\":24930:24938  ADT_NAME */\n      mload(0x40)\n      dup1\n      0x40\n      add\n      0x40\n      mstore\n      dup1\n      0x03\n      dup2\n      mstore\n      0x20\n      add\n      0x4144540000000000000000000000000000000000000000000000000000000000\n      dup2\n      mstore\n      pop\n        /* \"Volunteer_flattened.sol\":24940:24950  msg.sender */\n      caller\n        /* \"Volunteer_flattened.sol\":24898:24951  ActionEvent(\"donate\", adtValue, ADT_NAME, msg.sender) */\n      mload(0x40)\n      tag_228\n      swap4\n      swap3\n      swap2\n      swap1\n      tag_196\n      jump\t// in\n    tag_228:\n      mload(0x40)\n      dup1\n      swap2\n      sub\n      swap1\n      log1\n        /* \"Volunteer_flattened.sol\":24307:24958  function donateADT(uint256 adtValue) external {... */\n      pop\n      jump\t// out\n        /* \"Volunteer_flattened.sol\":17008:17706  function toString(uint256 value) internal pure returns (string memory) {... */\n    tag_86:\n        /* \"Volunteer_flattened.sol\":17064:17077  string memory */\n      0x60\n        /* \"Volunteer_flattened.sol\":17113:17127  uint256 length */\n      0x00\n        /* \"Volunteer_flattened.sol\":17150:17151  1 */\n      0x01\n        /* \"Volunteer_flattened.sol\":17130:17147  Math.log10(value) */\n      tag_230\n        /* \"Volunteer_flattened.sol\":17141:17146  value */\n      dup5\n        /* \"Volunteer_flattened.sol\":17130:17140  Math.log10 */\n      tag_231\n        /* \"Volunteer_flattened.sol\":17130:17147  Math.log10(value) */\n      jump\t// in\n    tag_230:\n        /* \"Volunteer_flattened.sol\":17130:17151  Math.log10(value) + 1 */\n      add\n        /* \"Volunteer_flattened.sol\":17113:17151  uint256 length = Math.log10(value) + 1 */\n      swap1\n      pop\n        /* \"Volunteer_flattened.sol\":17165:17185  string memory buffer */\n      0x00\n        /* \"Volunteer_flattened.sol\":17199:17205  length */\n      dup2\n        /* \"Volunteer_flattened.sol\":17188:17206  new string(length) */\n      0xffffffffffffffff\n      dup2\n      gt\n      iszero\n      tag_232\n      jumpi\n      tag_233\n      tag_234\n      jump\t// in\n    tag_233:\n    tag_232:\n      mload(0x40)\n      swap1\n      dup1\n      dup3\n      mstore\n      dup1\n      0x1f\n      add\n      not(0x1f)\n      and\n      0x20\n      add\n      dup3\n      add\n      0x40\n      mstore\n      dup1\n      iszero\n      tag_235\n      jumpi\n      dup2\n      0x20\n      add\n      0x01\n      dup3\n      mul\n      dup1\n      calldatasize\n      dup4\n      calldatacopy\n      dup1\n      dup3\n      add\n      swap2\n      pop\n      pop\n      swap1\n      pop\n    tag_235:\n      pop\n        /* \"Volunteer_flattened.sol\":17165:17206  string memory buffer = new string(length) */\n      swap1\n      pop\n        /* \"Volunteer_flattened.sol\":17220:17231  uint256 ptr */\n      0x00\n        /* \"Volunteer_flattened.sol\":17346:17352  length */\n      dup3\n        /* \"Volunteer_flattened.sol\":17342:17344  32 */\n      0x20\n        /* \"Volunteer_flattened.sol\":17338:17353  add(32, length) */\n      add\n        /* \"Volunteer_flattened.sol\":17330:17336  buffer */\n      dup3\n        /* \"Volunteer_flattened.sol\":17326:17354  add(buffer, add(32, length)) */\n      add\n        /* \"Volunteer_flattened.sol\":17319:17354  ptr := add(buffer, add(32, length)) */\n      swap1\n      pop\n        /* \"Volunteer_flattened.sol\":17381:17663  while (true) {... */\n    tag_236:\n        /* \"Volunteer_flattened.sol\":17388:17392  true */\n      0x01\n        /* \"Volunteer_flattened.sol\":17381:17663  while (true) {... */\n      iszero\n      tag_237\n      jumpi\n        /* \"Volunteer_flattened.sol\":17412:17417  ptr-- */\n      dup1\n      dup1\n      0x01\n      swap1\n      sub\n      swap2\n      pop\n      pop\n        /* \"Volunteer_flattened.sol\":17551:17561  HEX_DIGITS */\n      0x3031323334353637383961626364656600000000000000000000000000000000\n        /* \"Volunteer_flattened.sol\":17546:17548  10 */\n      0x0a\n        /* \"Volunteer_flattened.sol\":17539:17544  value */\n      dup7\n        /* \"Volunteer_flattened.sol\":17535:17549  mod(value, 10) */\n      mod\n        /* \"Volunteer_flattened.sol\":17530:17562  byte(mod(value, 10), HEX_DIGITS) */\n      byte\n        /* \"Volunteer_flattened.sol\":17525:17528  ptr */\n      dup2\n        /* \"Volunteer_flattened.sol\":17517:17563  mstore8(ptr, byte(mod(value, 10), HEX_DIGITS)) */\n      mstore8\n        /* \"Volunteer_flattened.sol\":17607:17609  10 */\n      0x0a\n        /* \"Volunteer_flattened.sol\":17598:17609  value /= 10 */\n      dup6\n      dup2\n      tag_238\n      jumpi\n      tag_239\n      tag_240\n      jump\t// in\n    tag_239:\n    tag_238:\n      div\n      swap5\n      pop\n        /* \"Volunteer_flattened.sol\":17640:17641  0 */\n      0x00\n        /* \"Volunteer_flattened.sol\":17631:17636  value */\n      dup6\n        /* \"Volunteer_flattened.sol\":17631:17641  value == 0 */\n      sub\n        /* \"Volunteer_flattened.sol\":17381:17663  while (true) {... */\n      tag_236\n        /* \"Volunteer_flattened.sol\":17627:17648  if (value == 0) break */\n      jumpi\n        /* \"Volunteer_flattened.sol\":17381:17663  while (true) {... */\n    tag_237:\n        /* \"Volunteer_flattened.sol\":17683:17689  buffer */\n      dup2\n        /* \"Volunteer_flattened.sol\":17676:17689  return buffer */\n      swap4\n      pop\n      pop\n      pop\n      pop\n        /* \"Volunteer_flattened.sol\":17008:17706  function toString(uint256 value) internal pure returns (string memory) {... */\n      swap2\n      swap1\n      pop\n      jump\t// out\n        /* \"Volunteer_flattened.sol\":19285:19467  function equal(string memory a, string memory b) internal pure returns (bool) {... */\n    tag_119:\n        /* \"Volunteer_flattened.sol\":19357:19361  bool */\n      0x00\n        /* \"Volunteer_flattened.sol\":19405:19406  b */\n      dup2\n        /* \"Volunteer_flattened.sol\":19399:19414  bytes(b).length */\n      mload\n        /* \"Volunteer_flattened.sol\":19386:19387  a */\n      dup4\n        /* \"Volunteer_flattened.sol\":19380:19395  bytes(a).length */\n      mload\n        /* \"Volunteer_flattened.sol\":19380:19414  bytes(a).length == bytes(b).length */\n      eq\n        /* \"Volunteer_flattened.sol\":19380:19460  bytes(a).length == bytes(b).length && keccak256(bytes(a)) == keccak256(bytes(b)) */\n      dup1\n      iszero\n      tag_243\n      jumpi\n      pop\n        /* \"Volunteer_flattened.sol\":19457:19458  b */\n      dup2\n        /* \"Volunteer_flattened.sol\":19441:19460  keccak256(bytes(b)) */\n      dup1\n      mload\n      swap1\n      0x20\n      add\n      keccak256\n        /* \"Volunteer_flattened.sol\":19434:19435  a */\n      dup4\n        /* \"Volunteer_flattened.sol\":19418:19437  keccak256(bytes(a)) */\n      dup1\n      mload\n      swap1\n      0x20\n      add\n      keccak256\n        /* \"Volunteer_flattened.sol\":19418:19460  keccak256(bytes(a)) == keccak256(bytes(b)) */\n      eq\n        /* \"Volunteer_flattened.sol\":19380:19460  bytes(a).length == bytes(b).length && keccak256(bytes(a)) == keccak256(bytes(b)) */\n    tag_243:\n        /* \"Volunteer_flattened.sol\":19373:19460  return bytes(a).length == bytes(b).length && keccak256(bytes(a)) == keccak256(bytes(b)) */\n      swap1\n      pop\n        /* \"Volunteer_flattened.sol\":19285:19467  function equal(string memory a, string memory b) internal pure returns (bool) {... */\n      swap3\n      swap2\n      pop\n      pop\n      jump\t// out\n        /* \"Volunteer_flattened.sol\":27671:27934  function _existsAddressItem(address[] memory array, address addr) private pure returns (bool) {... */\n    tag_191:\n        /* \"Volunteer_flattened.sol\":27759:27763  bool */\n      0x00\n        /* \"Volunteer_flattened.sol\":27780:27786  uint i */\n      dup1\n        /* \"Volunteer_flattened.sol\":27789:27790  0 */\n      0x00\n        /* \"Volunteer_flattened.sol\":27780:27790  uint i = 0 */\n      swap1\n      pop\n        /* \"Volunteer_flattened.sol\":27775:27905  for (uint i = 0; i < array.length; i++) {... */\n    tag_245:\n        /* \"Volunteer_flattened.sol\":27796:27801  array */\n      dup4\n        /* \"Volunteer_flattened.sol\":27796:27808  array.length */\n      mload\n        /* \"Volunteer_flattened.sol\":27792:27793  i */\n      dup2\n        /* \"Volunteer_flattened.sol\":27792:27808  i < array.length */\n      lt\n        /* \"Volunteer_flattened.sol\":27775:27905  for (uint i = 0; i < array.length; i++) {... */\n      iszero\n      tag_246\n      jumpi\n        /* \"Volunteer_flattened.sol\":27845:27849  addr */\n      dup3\n        /* \"Volunteer_flattened.sol\":27833:27849  array[i] == addr */\n      0xffffffffffffffffffffffffffffffffffffffff\n      and\n        /* \"Volunteer_flattened.sol\":27833:27838  array */\n      dup5\n        /* \"Volunteer_flattened.sol\":27839:27840  i */\n      dup3\n        /* \"Volunteer_flattened.sol\":27833:27841  array[i] */\n      dup2\n      mload\n      dup2\n      lt\n      tag_248\n      jumpi\n      tag_249\n      tag_250\n      jump\t// in\n    tag_249:\n    tag_248:\n      0x20\n      mul\n      0x20\n      add\n      add\n      mload\n        /* \"Volunteer_flattened.sol\":27833:27849  array[i] == addr */\n      0xffffffffffffffffffffffffffffffffffffffff\n      and\n      sub\n        /* \"Volunteer_flattened.sol\":27829:27895  if (array[i] == addr) {... */\n      tag_251\n      jumpi\n        /* \"Volunteer_flattened.sol\":27876:27880  true */\n      0x01\n        /* \"Volunteer_flattened.sol\":27869:27880  return true */\n      swap2\n      pop\n      pop\n      jump(tag_244)\n        /* \"Volunteer_flattened.sol\":27829:27895  if (array[i] == addr) {... */\n    tag_251:\n        /* \"Volunteer_flattened.sol\":27810:27813  i++ */\n      dup1\n      dup1\n      0x01\n      add\n      swap2\n      pop\n      pop\n        /* \"Volunteer_flattened.sol\":27775:27905  for (uint i = 0; i < array.length; i++) {... */\n      jump(tag_245)\n    tag_246:\n      pop\n        /* \"Volunteer_flattened.sol\":27922:27927  false */\n      0x00\n        /* \"Volunteer_flattened.sol\":27915:27927  return false */\n      swap1\n      pop\n        /* \"Volunteer_flattened.sol\":27671:27934  function _existsAddressItem(address[] memory array, address addr) private pure returns (bool) {... */\n    tag_244:\n      swap3\n      swap2\n      pop\n      pop\n      jump\t// out\n        /* \"Volunteer_flattened.sol\":12238:13154  function log10(uint256 value) internal pure returns (uint256) {... */\n    tag_231:\n        /* \"Volunteer_flattened.sol\":12291:12298  uint256 */\n      0x00\n        /* \"Volunteer_flattened.sol\":12310:12324  uint256 result */\n      dup1\n        /* \"Volunteer_flattened.sol\":12327:12328  0 */\n      0x00\n        /* \"Volunteer_flattened.sol\":12310:12328  uint256 result = 0 */\n      swap1\n      pop\n        /* \"Volunteer_flattened.sol\":12375:12383  10 ** 64 */\n      0x184f03e93ff9f4daa797ed6e38ed64bf6a1f010000000000000000\n        /* \"Volunteer_flattened.sol\":12366:12371  value */\n      dup4\n        /* \"Volunteer_flattened.sol\":12366:12383  value >= 10 ** 64 */\n      lt\n        /* \"Volunteer_flattened.sol\":12362:12465  if (value >= 10 ** 64) {... */\n      tag_253\n      jumpi\n        /* \"Volunteer_flattened.sol\":12412:12420  10 ** 64 */\n      0x184f03e93ff9f4daa797ed6e38ed64bf6a1f010000000000000000\n        /* \"Volunteer_flattened.sol\":12403:12420  value /= 10 ** 64 */\n      dup4\n      dup2\n      tag_254\n      jumpi\n      tag_255\n      tag_240\n      jump\t// in\n    tag_255:\n    tag_254:\n      div\n      swap3\n      pop\n        /* \"Volunteer_flattened.sol\":12448:12450  64 */\n      0x40\n        /* \"Volunteer_flattened.sol\":12438:12450  result += 64 */\n      dup2\n      add\n      swap1\n      pop\n        /* \"Volunteer_flattened.sol\":12362:12465  if (value >= 10 ** 64) {... */\n    tag_253:\n        /* \"Volunteer_flattened.sol\":12491:12499  10 ** 32 */\n      0x04ee2d6d415b85acef8100000000\n        /* \"Volunteer_flattened.sol\":12482:12487  value */\n      dup4\n        /* \"Volunteer_flattened.sol\":12482:12499  value >= 10 ** 32 */\n      lt\n        /* \"Volunteer_flattened.sol\":12478:12581  if (value >= 10 ** 32) {... */\n      tag_256\n      jumpi\n        /* \"Volunteer_flattened.sol\":12528:12536  10 ** 32 */\n      0x04ee2d6d415b85acef8100000000\n        /* \"Volunteer_flattened.sol\":12519:12536  value /= 10 ** 32 */\n      dup4\n      dup2\n      tag_257\n      jumpi\n      tag_258\n      tag_240\n      jump\t// in\n    tag_258:\n    tag_257:\n      div\n      swap3\n      pop\n        /* \"Volunteer_flattened.sol\":12564:12566  32 */\n      0x20\n        /* \"Volunteer_flattened.sol\":12554:12566  result += 32 */\n      dup2\n      add\n      swap1\n      pop\n        /* \"Volunteer_flattened.sol\":12478:12581  if (value >= 10 ** 32) {... */\n    tag_256:\n        /* \"Volunteer_flattened.sol\":12607:12615  10 ** 16 */\n      0x2386f26fc10000\n        /* \"Volunteer_flattened.sol\":12598:12603  value */\n      dup4\n        /* \"Volunteer_flattened.sol\":12598:12615  value >= 10 ** 16 */\n      lt\n        /* \"Volunteer_flattened.sol\":12594:12697  if (value >= 10 ** 16) {... */\n      tag_259\n      jumpi\n        /* \"Volunteer_flattened.sol\":12644:12652  10 ** 16 */\n      0x2386f26fc10000\n        /* \"Volunteer_flattened.sol\":12635:12652  value /= 10 ** 16 */\n      dup4\n      dup2\n      tag_260\n      jumpi\n      tag_261\n      tag_240\n      jump\t// in\n    tag_261:\n    tag_260:\n      div\n      swap3\n      pop\n        /* \"Volunteer_flattened.sol\":12680:12682  16 */\n      0x10\n        /* \"Volunteer_flattened.sol\":12670:12682  result += 16 */\n      dup2\n      add\n      swap1\n      pop\n        /* \"Volunteer_flattened.sol\":12594:12697  if (value >= 10 ** 16) {... */\n    tag_259:\n        /* \"Volunteer_flattened.sol\":12723:12730  10 ** 8 */\n      0x05f5e100\n        /* \"Volunteer_flattened.sol\":12714:12719  value */\n      dup4\n        /* \"Volunteer_flattened.sol\":12714:12730  value >= 10 ** 8 */\n      lt\n        /* \"Volunteer_flattened.sol\":12710:12810  if (value >= 10 ** 8) {... */\n      tag_262\n      jumpi\n        /* \"Volunteer_flattened.sol\":12759:12766  10 ** 8 */\n      0x05f5e100\n        /* \"Volunteer_flattened.sol\":12750:12766  value /= 10 ** 8 */\n      dup4\n      dup2\n      tag_263\n      jumpi\n      tag_264\n      tag_240\n      jump\t// in\n    tag_264:\n    tag_263:\n      div\n      swap3\n      pop\n        /* \"Volunteer_flattened.sol\":12794:12795  8 */\n      0x08\n        /* \"Volunteer_flattened.sol\":12784:12795  result += 8 */\n      dup2\n      add\n      swap1\n      pop\n        /* \"Volunteer_flattened.sol\":12710:12810  if (value >= 10 ** 8) {... */\n    tag_262:\n        /* \"Volunteer_flattened.sol\":12836:12843  10 ** 4 */\n      0x2710\n        /* \"Volunteer_flattened.sol\":12827:12832  value */\n      dup4\n        /* \"Volunteer_flattened.sol\":12827:12843  value >= 10 ** 4 */\n      lt\n        /* \"Volunteer_flattened.sol\":12823:12923  if (value >= 10 ** 4) {... */\n      tag_265\n      jumpi\n        /* \"Volunteer_flattened.sol\":12872:12879  10 ** 4 */\n      0x2710\n        /* \"Volunteer_flattened.sol\":12863:12879  value /= 10 ** 4 */\n      dup4\n      dup2\n      tag_266\n      jumpi\n      tag_267\n      tag_240\n      jump\t// in\n    tag_267:\n    tag_266:\n      div\n      swap3\n      pop\n        /* \"Volunteer_flattened.sol\":12907:12908  4 */\n      0x04\n        /* \"Volunteer_flattened.sol\":12897:12908  result += 4 */\n      dup2\n      add\n      swap1\n      pop\n        /* \"Volunteer_flattened.sol\":12823:12923  if (value >= 10 ** 4) {... */\n    tag_265:\n        /* \"Volunteer_flattened.sol\":12949:12956  10 ** 2 */\n      0x64\n        /* \"Volunteer_flattened.sol\":12940:12945  value */\n      dup4\n        /* \"Volunteer_flattened.sol\":12940:12956  value >= 10 ** 2 */\n      lt\n        /* \"Volunteer_flattened.sol\":12936:13036  if (value >= 10 ** 2) {... */\n      tag_268\n      jumpi\n        /* \"Volunteer_flattened.sol\":12985:12992  10 ** 2 */\n      0x64\n        /* \"Volunteer_flattened.sol\":12976:12992  value /= 10 ** 2 */\n      dup4\n      dup2\n      tag_269\n      jumpi\n      tag_270\n      tag_240\n      jump\t// in\n    tag_270:\n    tag_269:\n      div\n      swap3\n      pop\n        /* \"Volunteer_flattened.sol\":13020:13021  2 */\n      0x02\n        /* \"Volunteer_flattened.sol\":13010:13021  result += 2 */\n      dup2\n      add\n      swap1\n      pop\n        /* \"Volunteer_flattened.sol\":12936:13036  if (value >= 10 ** 2) {... */\n    tag_268:\n        /* \"Volunteer_flattened.sol\":13062:13069  10 ** 1 */\n      0x0a\n        /* \"Volunteer_flattened.sol\":13053:13058  value */\n      dup4\n        /* \"Volunteer_flattened.sol\":13053:13069  value >= 10 ** 1 */\n      lt\n        /* \"Volunteer_flattened.sol\":13049:13115  if (value >= 10 ** 1) {... */\n      tag_271\n      jumpi\n        /* \"Volunteer_flattened.sol\":13099:13100  1 */\n      0x01\n        /* \"Volunteer_flattened.sol\":13089:13100  result += 1 */\n      dup2\n      add\n      swap1\n      pop\n        /* \"Volunteer_flattened.sol\":13049:13115  if (value >= 10 ** 1) {... */\n    tag_271:\n        /* \"Volunteer_flattened.sol\":13141:13147  result */\n      dup1\n        /* \"Volunteer_flattened.sol\":13134:13147  return result */\n      swap2\n      pop\n      pop\n        /* \"Volunteer_flattened.sol\":12238:13154  function log10(uint256 value) internal pure returns (uint256) {... */\n      swap2\n      swap1\n      pop\n      jump\t// out\n        /* \"#utility.yul\":7:82   */\n    tag_272:\n        /* \"#utility.yul\":40:46   */\n      0x00\n        /* \"#utility.yul\":73:75   */\n      0x40\n        /* \"#utility.yul\":67:76   */\n      mload\n        /* \"#utility.yul\":57:76   */\n      swap1\n      pop\n        /* \"#utility.yul\":7:82   */\n      swap1\n      jump\t// out\n        /* \"#utility.yul\":88:205   */\n    tag_273:\n        /* \"#utility.yul\":197:198   */\n      0x00\n        /* \"#utility.yul\":194:195   */\n      dup1\n        /* \"#utility.yul\":187:199   */\n      revert\n        /* \"#utility.yul\":211:328   */\n    tag_274:\n        /* \"#utility.yul\":320:321   */\n      0x00\n        /* \"#utility.yul\":317:318   */\n      dup1\n        /* \"#utility.yul\":310:322   */\n      revert\n        /* \"#utility.yul\":334:411   */\n    tag_275:\n        /* \"#utility.yul\":371:378   */\n      0x00\n        /* \"#utility.yul\":400:405   */\n      dup2\n        /* \"#utility.yul\":389:405   */\n      swap1\n      pop\n        /* \"#utility.yul\":334:411   */\n      swap2\n      swap1\n      pop\n      jump\t// out\n        /* \"#utility.yul\":417:539   */\n    tag_276:\n        /* \"#utility.yul\":490:514   */\n      tag_349\n        /* \"#utility.yul\":508:513   */\n      dup2\n        /* \"#utility.yul\":490:514   */\n      tag_275\n      jump\t// in\n    tag_349:\n        /* \"#utility.yul\":483:488   */\n      dup2\n        /* \"#utility.yul\":480:515   */\n      eq\n        /* \"#utility.yul\":470:533   */\n      tag_350\n      jumpi\n        /* \"#utility.yul\":529:530   */\n      0x00\n        /* \"#utility.yul\":526:527   */\n      dup1\n        /* \"#utility.yul\":519:531   */\n      revert\n        /* \"#utility.yul\":470:533   */\n    tag_350:\n        /* \"#utility.yul\":417:539   */\n      pop\n      jump\t// out\n        /* \"#utility.yul\":545:684   */\n    tag_277:\n        /* \"#utility.yul\":591:596   */\n      0x00\n        /* \"#utility.yul\":629:635   */\n      dup2\n        /* \"#utility.yul\":616:636   */\n      calldataload\n        /* \"#utility.yul\":607:636   */\n      swap1\n      pop\n        /* \"#utility.yul\":645:678   */\n      tag_352\n        /* \"#utility.yul\":672:677   */\n      dup2\n        /* \"#utility.yul\":645:678   */\n      tag_276\n      jump\t// in\n    tag_352:\n        /* \"#utility.yul\":545:684   */\n      swap3\n      swap2\n      pop\n      pop\n      jump\t// out\n        /* \"#utility.yul\":690:1019   */\n    tag_20:\n        /* \"#utility.yul\":749:755   */\n      0x00\n        /* \"#utility.yul\":798:800   */\n      0x20\n        /* \"#utility.yul\":786:795   */\n      dup3\n        /* \"#utility.yul\":777:784   */\n      dup5\n        /* \"#utility.yul\":773:796   */\n      sub\n        /* \"#utility.yul\":769:801   */\n      slt\n        /* \"#utility.yul\":766:885   */\n      iszero\n      tag_354\n      jumpi\n        /* \"#utility.yul\":804:883   */\n      tag_355\n      tag_273\n      jump\t// in\n    tag_355:\n        /* \"#utility.yul\":766:885   */\n    tag_354:\n        /* \"#utility.yul\":924:925   */\n      0x00\n        /* \"#utility.yul\":949:1002   */\n      tag_356\n        /* \"#utility.yul\":994:1001   */\n      dup5\n        /* \"#utility.yul\":985:991   */\n      dup3\n        /* \"#utility.yul\":974:983   */\n      dup6\n        /* \"#utility.yul\":970:992   */\n      add\n        /* \"#utility.yul\":949:1002   */\n      tag_277\n      jump\t// in\n    tag_356:\n        /* \"#utility.yul\":939:1002   */\n      swap2\n      pop\n        /* \"#utility.yul\":895:1012   */\n      pop\n        /* \"#utility.yul\":690:1019   */\n      swap3\n      swap2\n      pop\n      pop\n      jump\t// out\n        /* \"#utility.yul\":1025:1115   */\n    tag_278:\n        /* \"#utility.yul\":1059:1066   */\n      0x00\n        /* \"#utility.yul\":1102:1107   */\n      dup2\n        /* \"#utility.yul\":1095:1108   */\n      iszero\n        /* \"#utility.yul\":1088:1109   */\n      iszero\n        /* \"#utility.yul\":1077:1109   */\n      swap1\n      pop\n        /* \"#utility.yul\":1025:1115   */\n      swap2\n      swap1\n      pop\n      jump\t// out\n        /* \"#utility.yul\":1121:1230   */\n    tag_279:\n        /* \"#utility.yul\":1202:1223   */\n      tag_359\n        /* \"#utility.yul\":1217:1222   */\n      dup2\n        /* \"#utility.yul\":1202:1223   */\n      tag_278\n      jump\t// in\n    tag_359:\n        /* \"#utility.yul\":1197:1200   */\n      dup3\n        /* \"#utility.yul\":1190:1224   */\n      mstore\n        /* \"#utility.yul\":1121:1230   */\n      pop\n      pop\n      jump\t// out\n        /* \"#utility.yul\":1236:1446   */\n    tag_33:\n        /* \"#utility.yul\":1323:1327   */\n      0x00\n        /* \"#utility.yul\":1361:1363   */\n      0x20\n        /* \"#utility.yul\":1350:1359   */\n      dup3\n        /* \"#utility.yul\":1346:1364   */\n      add\n        /* \"#utility.yul\":1338:1364   */\n      swap1\n      pop\n        /* \"#utility.yul\":1374:1439   */\n      tag_361\n        /* \"#utility.yul\":1436:1437   */\n      0x00\n        /* \"#utility.yul\":1425:1434   */\n      dup4\n        /* \"#utility.yul\":1421:1438   */\n      add\n        /* \"#utility.yul\":1412:1418   */\n      dup5\n        /* \"#utility.yul\":1374:1439   */\n      tag_279\n      jump\t// in\n    tag_361:\n        /* \"#utility.yul\":1236:1446   */\n      swap3\n      swap2\n      pop\n      pop\n      jump\t// out\n        /* \"#utility.yul\":1452:1578   */\n    tag_280:\n        /* \"#utility.yul\":1489:1496   */\n      0x00\n        /* \"#utility.yul\":1529:1571   */\n      0xffffffffffffffffffffffffffffffffffffffff\n        /* \"#utility.yul\":1522:1527   */\n      dup3\n        /* \"#utility.yul\":1518:1572   */\n      and\n        /* \"#utility.yul\":1507:1572   */\n      swap1\n      pop\n        /* \"#utility.yul\":1452:1578   */\n      swap2\n      swap1\n      pop\n      jump\t// out\n        /* \"#utility.yul\":1584:1680   */\n    tag_281:\n        /* \"#utility.yul\":1621:1628   */\n      0x00\n        /* \"#utility.yul\":1650:1674   */\n      tag_364\n        /* \"#utility.yul\":1668:1673   */\n      dup3\n        /* \"#utility.yul\":1650:1674   */\n      tag_280\n      jump\t// in\n    tag_364:\n        /* \"#utility.yul\":1639:1674   */\n      swap1\n      pop\n        /* \"#utility.yul\":1584:1680   */\n      swap2\n      swap1\n      pop\n      jump\t// out\n        /* \"#utility.yul\":1686:1808   */\n    tag_282:\n        /* \"#utility.yul\":1759:1783   */\n      tag_366\n        /* \"#utility.yul\":1777:1782   */\n      dup2\n        /* \"#utility.yul\":1759:1783   */\n      tag_281\n      jump\t// in\n    tag_366:\n        /* \"#utility.yul\":1752:1757   */\n      dup2\n        /* \"#utility.yul\":1749:1784   */\n      eq\n        /* \"#utility.yul\":1739:1802   */\n      tag_367\n      jumpi\n        /* \"#utility.yul\":1798:1799   */\n      0x00\n        /* \"#utility.yul\":1795:1796   */\n      dup1\n        /* \"#utility.yul\":1788:1800   */\n      revert\n        /* \"#utility.yul\":1739:1802   */\n    tag_367:\n        /* \"#utility.yul\":1686:1808   */\n      pop\n      jump\t// out\n        /* \"#utility.yul\":1814:1953   */\n    tag_283:\n        /* \"#utility.yul\":1860:1865   */\n      0x00\n        /* \"#utility.yul\":1898:1904   */\n      dup2\n        /* \"#utility.yul\":1885:1905   */\n      calldataload\n        /* \"#utility.yul\":1876:1905   */\n      swap1\n      pop\n        /* \"#utility.yul\":1914:1947   */\n      tag_369\n        /* \"#utility.yul\":1941:1946   */\n      dup2\n        /* \"#utility.yul\":1914:1947   */\n      tag_282\n      jump\t// in\n    tag_369:\n        /* \"#utility.yul\":1814:1953   */\n      swap3\n      swap2\n      pop\n      pop\n      jump\t// out\n        /* \"#utility.yul\":1959:2076   */\n    tag_284:\n        /* \"#utility.yul\":2068:2069   */\n      0x00\n        /* \"#utility.yul\":2065:2066   */\n      dup1\n        /* \"#utility.yul\":2058:2070   */\n      revert\n        /* \"#utility.yul\":2082:2199   */\n    tag_285:\n        /* \"#utility.yul\":2191:2192   */\n      0x00\n        /* \"#utility.yul\":2188:2189   */\n      dup1\n        /* \"#utility.yul\":2181:2193   */\n      revert\n        /* \"#utility.yul\":2205:2307   */\n    tag_286:\n        /* \"#utility.yul\":2246:2252   */\n      0x00\n        /* \"#utility.yul\":2297:2299   */\n      0x1f\n        /* \"#utility.yul\":2293:2300   */\n      not\n        /* \"#utility.yul\":2288:2290   */\n      0x1f\n        /* \"#utility.yul\":2281:2286   */\n      dup4\n        /* \"#utility.yul\":2277:2291   */\n      add\n        /* \"#utility.yul\":2273:2301   */\n      and\n        /* \"#utility.yul\":2263:2301   */\n      swap1\n      pop\n        /* \"#utility.yul\":2205:2307   */\n      swap2\n      swap1\n      pop\n      jump\t// out\n        /* \"#utility.yul\":2313:2493   */\n    tag_234:\n        /* \"#utility.yul\":2361:2438   */\n      0x4e487b7100000000000000000000000000000000000000000000000000000000\n        /* \"#utility.yul\":2358:2359   */\n      0x00\n        /* \"#utility.yul\":2351:2439   */\n      mstore\n        /* \"#utility.yul\":2458:2462   */\n      0x41\n        /* \"#utility.yul\":2455:2456   */\n      0x04\n        /* \"#utility.yul\":2448:2463   */\n      mstore\n        /* \"#utility.yul\":2482:2486   */\n      0x24\n        /* \"#utility.yul\":2479:2480   */\n      0x00\n        /* \"#utility.yul\":2472:2487   */\n      revert\n        /* \"#utility.yul\":2499:2780   */\n    tag_287:\n        /* \"#utility.yul\":2582:2609   */\n      tag_375\n        /* \"#utility.yul\":2604:2608   */\n      dup3\n        /* \"#utility.yul\":2582:2609   */\n      tag_286\n      jump\t// in\n    tag_375:\n        /* \"#utility.yul\":2574:2580   */\n      dup2\n        /* \"#utility.yul\":2570:2610   */\n      add\n        /* \"#utility.yul\":2712:2718   */\n      dup2\n        /* \"#utility.yul\":2700:2710   */\n      dup2\n        /* \"#utility.yul\":2697:2719   */\n      lt\n        /* \"#utility.yul\":2676:2694   */\n      0xffffffffffffffff\n        /* \"#utility.yul\":2664:2674   */\n      dup3\n        /* \"#utility.yul\":2661:2695   */\n      gt\n        /* \"#utility.yul\":2658:2720   */\n      or\n        /* \"#utility.yul\":2655:2743   */\n      iszero\n      tag_376\n      jumpi\n        /* \"#utility.yul\":2723:2741   */\n      tag_377\n      tag_234\n      jump\t// in\n    tag_377:\n        /* \"#utility.yul\":2655:2743   */\n    tag_376:\n        /* \"#utility.yul\":2763:2773   */\n      dup1\n        /* \"#utility.yul\":2759:2761   */\n      0x40\n        /* \"#utility.yul\":2752:2774   */\n      mstore\n        /* \"#utility.yul\":2542:2780   */\n      pop\n        /* \"#utility.yul\":2499:2780   */\n      pop\n      pop\n      jump\t// out\n        /* \"#utility.yul\":2786:2915   */\n    tag_288:\n        /* \"#utility.yul\":2820:2826   */\n      0x00\n        /* \"#utility.yul\":2847:2867   */\n      tag_379\n      tag_272\n      jump\t// in\n    tag_379:\n        /* \"#utility.yul\":2837:2867   */\n      swap1\n      pop\n        /* \"#utility.yul\":2876:2909   */\n      tag_380\n        /* \"#utility.yul\":2904:2908   */\n      dup3\n        /* \"#utility.yul\":2896:2902   */\n      dup3\n        /* \"#utility.yul\":2876:2909   */\n      tag_287\n      jump\t// in\n    tag_380:\n        /* \"#utility.yul\":2786:2915   */\n      swap2\n      swap1\n      pop\n      jump\t// out\n        /* \"#utility.yul\":2921:3229   */\n    tag_289:\n        /* \"#utility.yul\":2983:2987   */\n      0x00\n        /* \"#utility.yul\":3073:3091   */\n      0xffffffffffffffff\n        /* \"#utility.yul\":3065:3071   */\n      dup3\n        /* \"#utility.yul\":3062:3092   */\n      gt\n        /* \"#utility.yul\":3059:3115   */\n      iszero\n      tag_382\n      jumpi\n        /* \"#utility.yul\":3095:3113   */\n      tag_383\n      tag_234\n      jump\t// in\n    tag_383:\n        /* \"#utility.yul\":3059:3115   */\n    tag_382:\n        /* \"#utility.yul\":3133:3162   */\n      tag_384\n        /* \"#utility.yul\":3155:3161   */\n      dup3\n        /* \"#utility.yul\":3133:3162   */\n      tag_286\n      jump\t// in\n    tag_384:\n        /* \"#utility.yul\":3125:3162   */\n      swap1\n      pop\n        /* \"#utility.yul\":3217:3221   */\n      0x20\n        /* \"#utility.yul\":3211:3215   */\n      dup2\n        /* \"#utility.yul\":3207:3222   */\n      add\n        /* \"#utility.yul\":3199:3222   */\n      swap1\n      pop\n        /* \"#utility.yul\":2921:3229   */\n      swap2\n      swap1\n      pop\n      jump\t// out\n        /* \"#utility.yul\":3235:3383   */\n    tag_290:\n        /* \"#utility.yul\":3333:3339   */\n      dup3\n        /* \"#utility.yul\":3328:3331   */\n      dup2\n        /* \"#utility.yul\":3323:3326   */\n      dup4\n        /* \"#utility.yul\":3310:3340   */\n      calldatacopy\n        /* \"#utility.yul\":3374:3375   */\n      0x00\n        /* \"#utility.yul\":3365:3371   */\n      dup4\n        /* \"#utility.yul\":3360:3363   */\n      dup4\n        /* \"#utility.yul\":3356:3372   */\n      add\n        /* \"#utility.yul\":3349:3376   */\n      mstore\n        /* \"#utility.yul\":3235:3383   */\n      pop\n      pop\n      pop\n      jump\t// out\n        /* \"#utility.yul\":3389:3814   */\n    tag_291:\n        /* \"#utility.yul\":3467:3472   */\n      0x00\n        /* \"#utility.yul\":3492:3558   */\n      tag_387\n        /* \"#utility.yul\":3508:3557   */\n      tag_388\n        /* \"#utility.yul\":3550:3556   */\n      dup5\n        /* \"#utility.yul\":3508:3557   */\n      tag_289\n      jump\t// in\n    tag_388:\n        /* \"#utility.yul\":3492:3558   */\n      tag_288\n      jump\t// in\n    tag_387:\n        /* \"#utility.yul\":3483:3558   */\n      swap1\n      pop\n        /* \"#utility.yul\":3581:3587   */\n      dup3\n        /* \"#utility.yul\":3574:3579   */\n      dup2\n        /* \"#utility.yul\":3567:3588   */\n      mstore\n        /* \"#utility.yul\":3619:3623   */\n      0x20\n        /* \"#utility.yul\":3612:3617   */\n      dup2\n        /* \"#utility.yul\":3608:3624   */\n      add\n        /* \"#utility.yul\":3657:3660   */\n      dup5\n        /* \"#utility.yul\":3648:3654   */\n      dup5\n        /* \"#utility.yul\":3643:3646   */\n      dup5\n        /* \"#utility.yul\":3639:3655   */\n      add\n        /* \"#utility.yul\":3636:3661   */\n      gt\n        /* \"#utility.yul\":3633:3745   */\n      iszero\n      tag_389\n      jumpi\n        /* \"#utility.yul\":3664:3743   */\n      tag_390\n      tag_285\n      jump\t// in\n    tag_390:\n        /* \"#utility.yul\":3633:3745   */\n    tag_389:\n        /* \"#utility.yul\":3754:3808   */\n      tag_391\n        /* \"#utility.yul\":3801:3807   */\n      dup5\n        /* \"#utility.yul\":3796:3799   */\n      dup3\n        /* \"#utility.yul\":3791:3794   */\n      dup6\n        /* \"#utility.yul\":3754:3808   */\n      tag_290\n      jump\t// in\n    tag_391:\n        /* \"#utility.yul\":3473:3814   */\n      pop\n        /* \"#utility.yul\":3389:3814   */\n      swap4\n      swap3\n      pop\n      pop\n      pop\n      jump\t// out\n        /* \"#utility.yul\":3834:4174   */\n    tag_292:\n        /* \"#utility.yul\":3890:3895   */\n      0x00\n        /* \"#utility.yul\":3939:3942   */\n      dup3\n        /* \"#utility.yul\":3932:3936   */\n      0x1f\n        /* \"#utility.yul\":3924:3930   */\n      dup4\n        /* \"#utility.yul\":3920:3937   */\n      add\n        /* \"#utility.yul\":3916:3943   */\n      slt\n        /* \"#utility.yul\":3906:4028   */\n      tag_393\n      jumpi\n        /* \"#utility.yul\":3947:4026   */\n      tag_394\n      tag_284\n      jump\t// in\n    tag_394:\n        /* \"#utility.yul\":3906:4028   */\n    tag_393:\n        /* \"#utility.yul\":4064:4070   */\n      dup2\n        /* \"#utility.yul\":4051:4071   */\n      calldataload\n        /* \"#utility.yul\":4089:4168   */\n      tag_395\n        /* \"#utility.yul\":4164:4167   */\n      dup5\n        /* \"#utility.yul\":4156:4162   */\n      dup3\n        /* \"#utility.yul\":4149:4153   */\n      0x20\n        /* \"#utility.yul\":4141:4147   */\n      dup7\n        /* \"#utility.yul\":4137:4154   */\n      add\n        /* \"#utility.yul\":4089:4168   */\n      tag_291\n      jump\t// in\n    tag_395:\n        /* \"#utility.yul\":4080:4168   */\n      swap2\n      pop\n        /* \"#utility.yul\":3896:4174   */\n      pop\n        /* \"#utility.yul\":3834:4174   */\n      swap3\n      swap2\n      pop\n      pop\n      jump\t// out\n        /* \"#utility.yul\":4180:4834   */\n    tag_37:\n        /* \"#utility.yul\":4258:4264   */\n      0x00\n        /* \"#utility.yul\":4266:4272   */\n      dup1\n        /* \"#utility.yul\":4315:4317   */\n      0x40\n        /* \"#utility.yul\":4303:4312   */\n      dup4\n        /* \"#utility.yul\":4294:4301   */\n      dup6\n        /* \"#utility.yul\":4290:4313   */\n      sub\n        /* \"#utility.yul\":4286:4318   */\n      slt\n        /* \"#utility.yul\":4283:4402   */\n      iszero\n      tag_397\n      jumpi\n        /* \"#utility.yul\":4321:4400   */\n      tag_398\n      tag_273\n      jump\t// in\n    tag_398:\n        /* \"#utility.yul\":4283:4402   */\n    tag_397:\n        /* \"#utility.yul\":4441:4442   */\n      0x00\n        /* \"#utility.yul\":4466:4519   */\n      tag_399\n        /* \"#utility.yul\":4511:4518   */\n      dup6\n        /* \"#utility.yul\":4502:4508   */\n      dup3\n        /* \"#utility.yul\":4491:4500   */\n      dup7\n        /* \"#utility.yul\":4487:4509   */\n      add\n        /* \"#utility.yul\":4466:4519   */\n      tag_283\n      jump\t// in\n    tag_399:\n        /* \"#utility.yul\":4456:4519   */\n      swap3\n      pop\n        /* \"#utility.yul\":4412:4529   */\n      pop\n        /* \"#utility.yul\":4596:4598   */\n      0x20\n        /* \"#utility.yul\":4585:4594   */\n      dup4\n        /* \"#utility.yul\":4581:4599   */\n      add\n        /* \"#utility.yul\":4568:4600   */\n      calldataload\n        /* \"#utility.yul\":4627:4645   */\n      0xffffffffffffffff\n        /* \"#utility.yul\":4619:4625   */\n      dup2\n        /* \"#utility.yul\":4616:4646   */\n      gt\n        /* \"#utility.yul\":4613:4730   */\n      iszero\n      tag_400\n      jumpi\n        /* \"#utility.yul\":4649:4728   */\n      tag_401\n      tag_274\n      jump\t// in\n    tag_401:\n        /* \"#utility.yul\":4613:4730   */\n    tag_400:\n        /* \"#utility.yul\":4754:4817   */\n      tag_402\n        /* \"#utility.yul\":4809:4816   */\n      dup6\n        /* \"#utility.yul\":4800:4806   */\n      dup3\n        /* \"#utility.yul\":4789:4798   */\n      dup7\n        /* \"#utility.yul\":4785:4807   */\n      add\n        /* \"#utility.yul\":4754:4817   */\n      tag_292\n      jump\t// in\n    tag_402:\n        /* \"#utility.yul\":4744:4817   */\n      swap2\n      pop\n        /* \"#utility.yul\":4539:4827   */\n      pop\n        /* \"#utility.yul\":4180:4834   */\n      swap3\n      pop\n      swap3\n      swap1\n      pop\n      jump\t// out\n        /* \"#utility.yul\":4840:4958   */\n    tag_293:\n        /* \"#utility.yul\":4927:4951   */\n      tag_404\n        /* \"#utility.yul\":4945:4950   */\n      dup2\n        /* \"#utility.yul\":4927:4951   */\n      tag_275\n      jump\t// in\n    tag_404:\n        /* \"#utility.yul\":4922:4925   */\n      dup3\n        /* \"#utility.yul\":4915:4952   */\n      mstore\n        /* \"#utility.yul\":4840:4958   */\n      pop\n      pop\n      jump\t// out\n        /* \"#utility.yul\":4964:5186   */\n    tag_40:\n        /* \"#utility.yul\":5057:5061   */\n      0x00\n        /* \"#utility.yul\":5095:5097   */\n      0x20\n        /* \"#utility.yul\":5084:5093   */\n      dup3\n        /* \"#utility.yul\":5080:5098   */\n      add\n        /* \"#utility.yul\":5072:5098   */\n      swap1\n      pop\n        /* \"#utility.yul\":5108:5179   */\n      tag_406\n        /* \"#utility.yul\":5176:5177   */\n      0x00\n        /* \"#utility.yul\":5165:5174   */\n      dup4\n        /* \"#utility.yul\":5161:5178   */\n      add\n        /* \"#utility.yul\":5152:5158   */\n      dup5\n        /* \"#utility.yul\":5108:5179   */\n      tag_293\n      jump\t// in\n    tag_406:\n        /* \"#utility.yul\":4964:5186   */\n      swap3\n      swap2\n      pop\n      pop\n      jump\t// out\n        /* \"#utility.yul\":5192:5701   */\n    tag_44:\n        /* \"#utility.yul\":5261:5267   */\n      0x00\n        /* \"#utility.yul\":5310:5312   */\n      0x20\n        /* \"#utility.yul\":5298:5307   */\n      dup3\n        /* \"#utility.yul\":5289:5296   */\n      dup5\n        /* \"#utility.yul\":5285:5308   */\n      sub\n        /* \"#utility.yul\":5281:5313   */\n      slt\n        /* \"#utility.yul\":5278:5397   */\n      iszero\n      tag_408\n      jumpi\n        /* \"#utility.yul\":5316:5395   */\n      tag_409\n      tag_273\n      jump\t// in\n    tag_409:\n        /* \"#utility.yul\":5278:5397   */\n    tag_408:\n        /* \"#utility.yul\":5464:5465   */\n      0x00\n        /* \"#utility.yul\":5453:5462   */\n      dup3\n        /* \"#utility.yul\":5449:5466   */\n      add\n        /* \"#utility.yul\":5436:5467   */\n      calldataload\n        /* \"#utility.yul\":5494:5512   */\n      0xffffffffffffffff\n        /* \"#utility.yul\":5486:5492   */\n      dup2\n        /* \"#utility.yul\":5483:5513   */\n      gt\n        /* \"#utility.yul\":5480:5597   */\n      iszero\n      tag_410\n      jumpi\n        /* \"#utility.yul\":5516:5595   */\n      tag_411\n      tag_274\n      jump\t// in\n    tag_411:\n        /* \"#utility.yul\":5480:5597   */\n    tag_410:\n        /* \"#utility.yul\":5621:5684   */\n      tag_412\n        /* \"#utility.yul\":5676:5683   */\n      dup5\n        /* \"#utility.yul\":5667:5673   */\n      dup3\n        /* \"#utility.yul\":5656:5665   */\n      dup6\n        /* \"#utility.yul\":5652:5674   */\n      add\n        /* \"#utility.yul\":5621:5684   */\n      tag_292\n      jump\t// in\n    tag_412:\n        /* \"#utility.yul\":5611:5684   */\n      swap2\n      pop\n        /* \"#utility.yul\":5407:5694   */\n      pop\n        /* \"#utility.yul\":5192:5701   */\n      swap3\n      swap2\n      pop\n      pop\n      jump\t// out\n        /* \"#utility.yul\":5707:5821   */\n    tag_294:\n        /* \"#utility.yul\":5774:5780   */\n      0x00\n        /* \"#utility.yul\":5808:5813   */\n      dup2\n        /* \"#utility.yul\":5802:5814   */\n      mload\n        /* \"#utility.yul\":5792:5814   */\n      swap1\n      pop\n        /* \"#utility.yul\":5707:5821   */\n      swap2\n      swap1\n      pop\n      jump\t// out\n        /* \"#utility.yul\":5827:6011   */\n    tag_295:\n        /* \"#utility.yul\":5926:5937   */\n      0x00\n        /* \"#utility.yul\":5960:5966   */\n      dup3\n        /* \"#utility.yul\":5955:5958   */\n      dup3\n        /* \"#utility.yul\":5948:5967   */\n      mstore\n        /* \"#utility.yul\":6000:6004   */\n      0x20\n        /* \"#utility.yul\":5995:5998   */\n      dup3\n        /* \"#utility.yul\":5991:6005   */\n      add\n        /* \"#utility.yul\":5976:6005   */\n      swap1\n      pop\n        /* \"#utility.yul\":5827:6011   */\n      swap3\n      swap2\n      pop\n      pop\n      jump\t// out\n        /* \"#utility.yul\":6017:6149   */\n    tag_296:\n        /* \"#utility.yul\":6084:6088   */\n      0x00\n        /* \"#utility.yul\":6107:6110   */\n      dup2\n        /* \"#utility.yul\":6099:6110   */\n      swap1\n      pop\n        /* \"#utility.yul\":6137:6141   */\n      0x20\n        /* \"#utility.yul\":6132:6135   */\n      dup3\n        /* \"#utility.yul\":6128:6142   */\n      add\n        /* \"#utility.yul\":6120:6142   */\n      swap1\n      pop\n        /* \"#utility.yul\":6017:6149   */\n      swap2\n      swap1\n      pop\n      jump\t// out\n        /* \"#utility.yul\":6155:6263   */\n    tag_297:\n        /* \"#utility.yul\":6232:6256   */\n      tag_417\n        /* \"#utility.yul\":6250:6255   */\n      dup2\n        /* \"#utility.yul\":6232:6256   */\n      tag_281\n      jump\t// in\n    tag_417:\n        /* \"#utility.yul\":6227:6230   */\n      dup3\n        /* \"#utility.yul\":6220:6257   */\n      mstore\n        /* \"#utility.yul\":6155:6263   */\n      pop\n      pop\n      jump\t// out\n        /* \"#utility.yul\":6269:6448   */\n    tag_298:\n        /* \"#utility.yul\":6338:6348   */\n      0x00\n        /* \"#utility.yul\":6359:6405   */\n      tag_419\n        /* \"#utility.yul\":6401:6404   */\n      dup4\n        /* \"#utility.yul\":6393:6399   */\n      dup4\n        /* \"#utility.yul\":6359:6405   */\n      tag_297\n      jump\t// in\n    tag_419:\n        /* \"#utility.yul\":6437:6441   */\n      0x20\n        /* \"#utility.yul\":6432:6435   */\n      dup4\n        /* \"#utility.yul\":6428:6442   */\n      add\n        /* \"#utility.yul\":6414:6442   */\n      swap1\n      pop\n        /* \"#utility.yul\":6269:6448   */\n      swap3\n      swap2\n      pop\n      pop\n      jump\t// out\n        /* \"#utility.yul\":6454:6567   */\n    tag_299:\n        /* \"#utility.yul\":6524:6528   */\n      0x00\n        /* \"#utility.yul\":6556:6560   */\n      0x20\n        /* \"#utility.yul\":6551:6554   */\n      dup3\n        /* \"#utility.yul\":6547:6561   */\n      add\n        /* \"#utility.yul\":6539:6561   */\n      swap1\n      pop\n        /* \"#utility.yul\":6454:6567   */\n      swap2\n      swap1\n      pop\n      jump\t// out\n        /* \"#utility.yul\":6603:7335   */\n    tag_300:\n        /* \"#utility.yul\":6722:6725   */\n      0x00\n        /* \"#utility.yul\":6751:6805   */\n      tag_422\n        /* \"#utility.yul\":6799:6804   */\n      dup3\n        /* \"#utility.yul\":6751:6805   */\n      tag_294\n      jump\t// in\n    tag_422:\n        /* \"#utility.yul\":6821:6907   */\n      tag_423\n        /* \"#utility.yul\":6900:6906   */\n      dup2\n        /* \"#utility.yul\":6895:6898   */\n      dup6\n        /* \"#utility.yul\":6821:6907   */\n      tag_295\n      jump\t// in\n    tag_423:\n        /* \"#utility.yul\":6814:6907   */\n      swap4\n      pop\n        /* \"#utility.yul\":6931:6987   */\n      tag_424\n        /* \"#utility.yul\":6981:6986   */\n      dup4\n        /* \"#utility.yul\":6931:6987   */\n      tag_296\n      jump\t// in\n    tag_424:\n        /* \"#utility.yul\":7010:7017   */\n      dup1\n        /* \"#utility.yul\":7041:7042   */\n      0x00\n        /* \"#utility.yul\":7026:7310   */\n    tag_425:\n        /* \"#utility.yul\":7051:7057   */\n      dup4\n        /* \"#utility.yul\":7048:7049   */\n      dup2\n        /* \"#utility.yul\":7045:7058   */\n      lt\n        /* \"#utility.yul\":7026:7310   */\n      iszero\n      tag_427\n      jumpi\n        /* \"#utility.yul\":7127:7133   */\n      dup2\n        /* \"#utility.yul\":7121:7134   */\n      mload\n        /* \"#utility.yul\":7154:7217   */\n      tag_428\n        /* \"#utility.yul\":7213:7216   */\n      dup9\n        /* \"#utility.yul\":7198:7211   */\n      dup3\n        /* \"#utility.yul\":7154:7217   */\n      tag_298\n      jump\t// in\n    tag_428:\n        /* \"#utility.yul\":7147:7217   */\n      swap8\n      pop\n        /* \"#utility.yul\":7240:7300   */\n      tag_429\n        /* \"#utility.yul\":7293:7299   */\n      dup4\n        /* \"#utility.yul\":7240:7300   */\n      tag_299\n      jump\t// in\n    tag_429:\n        /* \"#utility.yul\":7230:7300   */\n      swap3\n      pop\n        /* \"#utility.yul\":7086:7310   */\n      pop\n        /* \"#utility.yul\":7073:7074   */\n      0x01\n        /* \"#utility.yul\":7070:7071   */\n      dup2\n        /* \"#utility.yul\":7066:7075   */\n      add\n        /* \"#utility.yul\":7061:7075   */\n      swap1\n      pop\n        /* \"#utility.yul\":7026:7310   */\n      jump(tag_425)\n    tag_427:\n        /* \"#utility.yul\":7030:7044   */\n      pop\n        /* \"#utility.yul\":7326:7329   */\n      dup6\n        /* \"#utility.yul\":7319:7329   */\n      swap4\n      pop\n        /* \"#utility.yul\":6727:7335   */\n      pop\n      pop\n      pop\n        /* \"#utility.yul\":6603:7335   */\n      swap3\n      swap2\n      pop\n      pop\n      jump\t// out\n        /* \"#utility.yul\":7341:7714   */\n    tag_47:\n        /* \"#utility.yul\":7484:7488   */\n      0x00\n        /* \"#utility.yul\":7522:7524   */\n      0x20\n        /* \"#utility.yul\":7511:7520   */\n      dup3\n        /* \"#utility.yul\":7507:7525   */\n      add\n        /* \"#utility.yul\":7499:7525   */\n      swap1\n      pop\n        /* \"#utility.yul\":7571:7580   */\n      dup2\n        /* \"#utility.yul\":7565:7569   */\n      dup2\n        /* \"#utility.yul\":7561:7581   */\n      sub\n        /* \"#utility.yul\":7557:7558   */\n      0x00\n        /* \"#utility.yul\":7546:7555   */\n      dup4\n        /* \"#utility.yul\":7542:7559   */\n      add\n        /* \"#utility.yul\":7535:7582   */\n      mstore\n        /* \"#utility.yul\":7599:7707   */\n      tag_431\n        /* \"#utility.yul\":7702:7706   */\n      dup2\n        /* \"#utility.yul\":7693:7699   */\n      dup5\n        /* \"#utility.yul\":7599:7707   */\n      tag_300\n      jump\t// in\n    tag_431:\n        /* \"#utility.yul\":7591:7707   */\n      swap1\n      pop\n        /* \"#utility.yul\":7341:7714   */\n      swap3\n      swap2\n      pop\n      pop\n      jump\t// out\n        /* \"#utility.yul\":7720:8049   */\n    tag_51:\n        /* \"#utility.yul\":7779:7785   */\n      0x00\n        /* \"#utility.yul\":7828:7830   */\n      0x20\n        /* \"#utility.yul\":7816:7825   */\n      dup3\n        /* \"#utility.yul\":7807:7814   */\n      dup5\n        /* \"#utility.yul\":7803:7826   */\n      sub\n        /* \"#utility.yul\":7799:7831   */\n      slt\n        /* \"#utility.yul\":7796:7915   */\n      iszero\n      tag_433\n      jumpi\n        /* \"#utility.yul\":7834:7913   */\n      tag_434\n      tag_273\n      jump\t// in\n    tag_434:\n        /* \"#utility.yul\":7796:7915   */\n    tag_433:\n        /* \"#utility.yul\":7954:7955   */\n      0x00\n        /* \"#utility.yul\":7979:8032   */\n      tag_435\n        /* \"#utility.yul\":8024:8031   */\n      dup5\n        /* \"#utility.yul\":8015:8021   */\n      dup3\n        /* \"#utility.yul\":8004:8013   */\n      dup6\n        /* \"#utility.yul\":8000:8022   */\n      add\n        /* \"#utility.yul\":7979:8032   */\n      tag_283\n      jump\t// in\n    tag_435:\n        /* \"#utility.yul\":7969:8032   */\n      swap2\n      pop\n        /* \"#utility.yul\":7925:8042   */\n      pop\n        /* \"#utility.yul\":7720:8049   */\n      swap3\n      swap2\n      pop\n      pop\n      jump\t// out\n        /* \"#utility.yul\":8055:8173   */\n    tag_301:\n        /* \"#utility.yul\":8142:8166   */\n      tag_437\n        /* \"#utility.yul\":8160:8165   */\n      dup2\n        /* \"#utility.yul\":8142:8166   */\n      tag_281\n      jump\t// in\n    tag_437:\n        /* \"#utility.yul\":8137:8140   */\n      dup3\n        /* \"#utility.yul\":8130:8167   */\n      mstore\n        /* \"#utility.yul\":8055:8173   */\n      pop\n      pop\n      jump\t// out\n        /* \"#utility.yul\":8179:8401   */\n    tag_57:\n        /* \"#utility.yul\":8272:8276   */\n      0x00\n        /* \"#utility.yul\":8310:8312   */\n      0x20\n        /* \"#utility.yul\":8299:8308   */\n      dup3\n        /* \"#utility.yul\":8295:8313   */\n      add\n        /* \"#utility.yul\":8287:8313   */\n      swap1\n      pop\n        /* \"#utility.yul\":8323:8394   */\n      tag_439\n        /* \"#utility.yul\":8391:8392   */\n      0x00\n        /* \"#utility.yul\":8380:8389   */\n      dup4\n        /* \"#utility.yul\":8376:8393   */\n      add\n        /* \"#utility.yul\":8367:8373   */\n      dup5\n        /* \"#utility.yul\":8323:8394   */\n      tag_301\n      jump\t// in\n    tag_439:\n        /* \"#utility.yul\":8179:8401   */\n      swap3\n      swap2\n      pop\n      pop\n      jump\t// out\n        /* \"#utility.yul\":8407:8576   */\n    tag_302:\n        /* \"#utility.yul\":8491:8502   */\n      0x00\n        /* \"#utility.yul\":8525:8531   */\n      dup3\n        /* \"#utility.yul\":8520:8523   */\n      dup3\n        /* \"#utility.yul\":8513:8532   */\n      mstore\n        /* \"#utility.yul\":8565:8569   */\n      0x20\n        /* \"#utility.yul\":8560:8563   */\n      dup3\n        /* \"#utility.yul\":8556:8570   */\n      add\n        /* \"#utility.yul\":8541:8570   */\n      swap1\n      pop\n        /* \"#utility.yul\":8407:8576   */\n      swap3\n      swap2\n      pop\n      pop\n      jump\t// out\n        /* \"#utility.yul\":8582:8751   */\n    tag_303:\n        /* \"#utility.yul\":8722:8743   */\n      0x43616c6c6572206973206e6f74206f776e657200000000000000000000000000\n        /* \"#utility.yul\":8718:8719   */\n      0x00\n        /* \"#utility.yul\":8710:8716   */\n      dup3\n        /* \"#utility.yul\":8706:8720   */\n      add\n        /* \"#utility.yul\":8699:8744   */\n      mstore\n        /* \"#utility.yul\":8582:8751   */\n      pop\n      jump\t// out\n        /* \"#utility.yul\":8757:9123   */\n    tag_304:\n        /* \"#utility.yul\":8899:8902   */\n      0x00\n        /* \"#utility.yul\":8920:8987   */\n      tag_443\n        /* \"#utility.yul\":8984:8986   */\n      0x13\n        /* \"#utility.yul\":8979:8982   */\n      dup4\n        /* \"#utility.yul\":8920:8987   */\n      tag_302\n      jump\t// in\n    tag_443:\n        /* \"#utility.yul\":8913:8987   */\n      swap2\n      pop\n        /* \"#utility.yul\":8996:9089   */\n      tag_444\n        /* \"#utility.yul\":9085:9088   */\n      dup3\n        /* \"#utility.yul\":8996:9089   */\n      tag_303\n      jump\t// in\n    tag_444:\n        /* \"#utility.yul\":9114:9116   */\n      0x20\n        /* \"#utility.yul\":9109:9112   */\n      dup3\n        /* \"#utility.yul\":9105:9117   */\n      add\n        /* \"#utility.yul\":9098:9117   */\n      swap1\n      pop\n        /* \"#utility.yul\":8757:9123   */\n      swap2\n      swap1\n      pop\n      jump\t// out\n        /* \"#utility.yul\":9129:9548   */\n    tag_79:\n        /* \"#utility.yul\":9295:9299   */\n      0x00\n        /* \"#utility.yul\":9333:9335   */\n      0x20\n        /* \"#utility.yul\":9322:9331   */\n      dup3\n        /* \"#utility.yul\":9318:9336   */\n      add\n        /* \"#utility.yul\":9310:9336   */\n      swap1\n      pop\n        /* \"#utility.yul\":9382:9391   */\n      dup2\n        /* \"#utility.yul\":9376:9380   */\n      dup2\n        /* \"#utility.yul\":9372:9392   */\n      sub\n        /* \"#utility.yul\":9368:9369   */\n      0x00\n        /* \"#utility.yul\":9357:9366   */\n      dup4\n        /* \"#utility.yul\":9353:9370   */\n      add\n        /* \"#utility.yul\":9346:9393   */\n      mstore\n        /* \"#utility.yul\":9410:9541   */\n      tag_446\n        /* \"#utility.yul\":9536:9540   */\n      dup2\n        /* \"#utility.yul\":9410:9541   */\n      tag_304\n      jump\t// in\n    tag_446:\n        /* \"#utility.yul\":9402:9541   */\n      swap1\n      pop\n        /* \"#utility.yul\":9129:9548   */\n      swap2\n      swap1\n      pop\n      jump\t// out\n        /* \"#utility.yul\":9554:9653   */\n    tag_305:\n        /* \"#utility.yul\":9606:9612   */\n      0x00\n        /* \"#utility.yul\":9640:9645   */\n      dup2\n        /* \"#utility.yul\":9634:9646   */\n      mload\n        /* \"#utility.yul\":9624:9646   */\n      swap1\n      pop\n        /* \"#utility.yul\":9554:9653   */\n      swap2\n      swap1\n      pop\n      jump\t// out\n        /* \"#utility.yul\":9659:9807   */\n    tag_306:\n        /* \"#utility.yul\":9761:9772   */\n      0x00\n        /* \"#utility.yul\":9798:9801   */\n      dup2\n        /* \"#utility.yul\":9783:9801   */\n      swap1\n      pop\n        /* \"#utility.yul\":9659:9807   */\n      swap3\n      swap2\n      pop\n      pop\n      jump\t// out\n        /* \"#utility.yul\":9813:9952   */\n    tag_307:\n        /* \"#utility.yul\":9902:9908   */\n      dup3\n        /* \"#utility.yul\":9897:9900   */\n      dup2\n        /* \"#utility.yul\":9892:9895   */\n      dup4\n        /* \"#utility.yul\":9886:9909   */\n      mcopy\n        /* \"#utility.yul\":9943:9944   */\n      0x00\n        /* \"#utility.yul\":9934:9940   */\n      dup4\n        /* \"#utility.yul\":9929:9932   */\n      dup4\n        /* \"#utility.yul\":9925:9941   */\n      add\n        /* \"#utility.yul\":9918:9945   */\n      mstore\n        /* \"#utility.yul\":9813:9952   */\n      pop\n      pop\n      pop\n      jump\t// out\n        /* \"#utility.yul\":9958:10348   */\n    tag_308:\n        /* \"#utility.yul\":10064:10067   */\n      0x00\n        /* \"#utility.yul\":10092:10131   */\n      tag_451\n        /* \"#utility.yul\":10125:10130   */\n      dup3\n        /* \"#utility.yul\":10092:10131   */\n      tag_305\n      jump\t// in\n    tag_451:\n        /* \"#utility.yul\":10147:10236   */\n      tag_452\n        /* \"#utility.yul\":10229:10235   */\n      dup2\n        /* \"#utility.yul\":10224:10227   */\n      dup6\n        /* \"#utility.yul\":10147:10236   */\n      tag_306\n      jump\t// in\n    tag_452:\n        /* \"#utility.yul\":10140:10236   */\n      swap4\n      pop\n        /* \"#utility.yul\":10245:10310   */\n      tag_453\n        /* \"#utility.yul\":10303:10309   */\n      dup2\n        /* \"#utility.yul\":10298:10301   */\n      dup6\n        /* \"#utility.yul\":10291:10295   */\n      0x20\n        /* \"#utility.yul\":10284:10289   */\n      dup7\n        /* \"#utility.yul\":10280:10296   */\n      add\n        /* \"#utility.yul\":10245:10310   */\n      tag_307\n      jump\t// in\n    tag_453:\n        /* \"#utility.yul\":10335:10341   */\n      dup1\n        /* \"#utility.yul\":10330:10333   */\n      dup5\n        /* \"#utility.yul\":10326:10342   */\n      add\n        /* \"#utility.yul\":10319:10342   */\n      swap2\n      pop\n        /* \"#utility.yul\":10068:10348   */\n      pop\n        /* \"#utility.yul\":9958:10348   */\n      swap3\n      swap2\n      pop\n      pop\n      jump\t// out\n        /* \"#utility.yul\":10354:10580   */\n    tag_309:\n        /* \"#utility.yul\":10494:10528   */\n      0x206973206d696e696d756d2076616c756520746f20736574206c6f7765722064\n        /* \"#utility.yul\":10490:10491   */\n      0x00\n        /* \"#utility.yul\":10482:10488   */\n      dup3\n        /* \"#utility.yul\":10478:10492   */\n      add\n        /* \"#utility.yul\":10471:10529   */\n      mstore\n        /* \"#utility.yul\":10563:10572   */\n      0x6f6e6174696f6e00000000000000000000000000000000000000000000000000\n        /* \"#utility.yul\":10558:10560   */\n      0x20\n        /* \"#utility.yul\":10550:10556   */\n      dup3\n        /* \"#utility.yul\":10546:10561   */\n      add\n        /* \"#utility.yul\":10539:10573   */\n      mstore\n        /* \"#utility.yul\":10354:10580   */\n      pop\n      jump\t// out\n        /* \"#utility.yul\":10586:10988   */\n    tag_310:\n        /* \"#utility.yul\":10746:10749   */\n      0x00\n        /* \"#utility.yul\":10767:10852   */\n      tag_456\n        /* \"#utility.yul\":10849:10851   */\n      0x27\n        /* \"#utility.yul\":10844:10847   */\n      dup4\n        /* \"#utility.yul\":10767:10852   */\n      tag_306\n      jump\t// in\n    tag_456:\n        /* \"#utility.yul\":10760:10852   */\n      swap2\n      pop\n        /* \"#utility.yul\":10861:10954   */\n      tag_457\n        /* \"#utility.yul\":10950:10953   */\n      dup3\n        /* \"#utility.yul\":10861:10954   */\n      tag_309\n      jump\t// in\n    tag_457:\n        /* \"#utility.yul\":10979:10981   */\n      0x27\n        /* \"#utility.yul\":10974:10977   */\n      dup3\n        /* \"#utility.yul\":10970:10982   */\n      add\n        /* \"#utility.yul\":10963:10982   */\n      swap1\n      pop\n        /* \"#utility.yul\":10586:10988   */\n      swap2\n      swap1\n      pop\n      jump\t// out\n        /* \"#utility.yul\":10994:11535   */\n    tag_88:\n        /* \"#utility.yul\":11227:11230   */\n      0x00\n        /* \"#utility.yul\":11249:11344   */\n      tag_459\n        /* \"#utility.yul\":11340:11343   */\n      dup3\n        /* \"#utility.yul\":11331:11337   */\n      dup5\n        /* \"#utility.yul\":11249:11344   */\n      tag_308\n      jump\t// in\n    tag_459:\n        /* \"#utility.yul\":11242:11344   */\n      swap2\n      pop\n        /* \"#utility.yul\":11361:11509   */\n      tag_460\n        /* \"#utility.yul\":11505:11508   */\n      dup3\n        /* \"#utility.yul\":11361:11509   */\n      tag_310\n      jump\t// in\n    tag_460:\n        /* \"#utility.yul\":11354:11509   */\n      swap2\n      pop\n        /* \"#utility.yul\":11526:11529   */\n      dup2\n        /* \"#utility.yul\":11519:11529   */\n      swap1\n      pop\n        /* \"#utility.yul\":10994:11535   */\n      swap3\n      swap2\n      pop\n      pop\n      jump\t// out\n        /* \"#utility.yul\":11541:11918   */\n    tag_311:\n        /* \"#utility.yul\":11629:11632   */\n      0x00\n        /* \"#utility.yul\":11657:11696   */\n      tag_462\n        /* \"#utility.yul\":11690:11695   */\n      dup3\n        /* \"#utility.yul\":11657:11696   */\n      tag_305\n      jump\t// in\n    tag_462:\n        /* \"#utility.yul\":11712:11783   */\n      tag_463\n        /* \"#utility.yul\":11776:11782   */\n      dup2\n        /* \"#utility.yul\":11771:11774   */\n      dup6\n        /* \"#utility.yul\":11712:11783   */\n      tag_302\n      jump\t// in\n    tag_463:\n        /* \"#utility.yul\":11705:11783   */\n      swap4\n      pop\n        /* \"#utility.yul\":11792:11857   */\n      tag_464\n        /* \"#utility.yul\":11850:11856   */\n      dup2\n        /* \"#utility.yul\":11845:11848   */\n      dup6\n        /* \"#utility.yul\":11838:11842   */\n      0x20\n        /* \"#utility.yul\":11831:11836   */\n      dup7\n        /* \"#utility.yul\":11827:11843   */\n      add\n        /* \"#utility.yul\":11792:11857   */\n      tag_307\n      jump\t// in\n    tag_464:\n        /* \"#utility.yul\":11882:11911   */\n      tag_465\n        /* \"#utility.yul\":11904:11910   */\n      dup2\n        /* \"#utility.yul\":11882:11911   */\n      tag_286\n      jump\t// in\n    tag_465:\n        /* \"#utility.yul\":11877:11880   */\n      dup5\n        /* \"#utility.yul\":11873:11912   */\n      add\n        /* \"#utility.yul\":11866:11912   */\n      swap2\n      pop\n        /* \"#utility.yul\":11633:11918   */\n      pop\n        /* \"#utility.yul\":11541:11918   */\n      swap3\n      swap2\n      pop\n      pop\n      jump\t// out\n        /* \"#utility.yul\":11924:12237   */\n    tag_91:\n        /* \"#utility.yul\":12037:12041   */\n      0x00\n        /* \"#utility.yul\":12075:12077   */\n      0x20\n        /* \"#utility.yul\":12064:12073   */\n      dup3\n        /* \"#utility.yul\":12060:12078   */\n      add\n        /* \"#utility.yul\":12052:12078   */\n      swap1\n      pop\n        /* \"#utility.yul\":12124:12133   */\n      dup2\n        /* \"#utility.yul\":12118:12122   */\n      dup2\n        /* \"#utility.yul\":12114:12134   */\n      sub\n        /* \"#utility.yul\":12110:12111   */\n      0x00\n        /* \"#utility.yul\":12099:12108   */\n      dup4\n        /* \"#utility.yul\":12095:12112   */\n      add\n        /* \"#utility.yul\":12088:12135   */\n      mstore\n        /* \"#utility.yul\":12152:12230   */\n      tag_467\n        /* \"#utility.yul\":12225:12229   */\n      dup2\n        /* \"#utility.yul\":12216:12222   */\n      dup5\n        /* \"#utility.yul\":12152:12230   */\n      tag_311\n      jump\t// in\n    tag_467:\n        /* \"#utility.yul\":12144:12230   */\n      swap1\n      pop\n        /* \"#utility.yul\":11924:12237   */\n      swap3\n      swap2\n      pop\n      pop\n      jump\t// out\n        /* \"#utility.yul\":12243:12424   */\n    tag_312:\n        /* \"#utility.yul\":12383:12416   */\n      0x416c6c6f776564206f6e6c7920666f7220726570726573656e74617469766500\n        /* \"#utility.yul\":12379:12380   */\n      0x00\n        /* \"#utility.yul\":12371:12377   */\n      dup3\n        /* \"#utility.yul\":12367:12381   */\n      add\n        /* \"#utility.yul\":12360:12417   */\n      mstore\n        /* \"#utility.yul\":12243:12424   */\n      pop\n      jump\t// out\n        /* \"#utility.yul\":12430:12796   */\n    tag_313:\n        /* \"#utility.yul\":12572:12575   */\n      0x00\n        /* \"#utility.yul\":12593:12660   */\n      tag_470\n        /* \"#utility.yul\":12657:12659   */\n      0x1f\n        /* \"#utility.yul\":12652:12655   */\n      dup4\n        /* \"#utility.yul\":12593:12660   */\n      tag_302\n      jump\t// in\n    tag_470:\n        /* \"#utility.yul\":12586:12660   */\n      swap2\n      pop\n        /* \"#utility.yul\":12669:12762   */\n      tag_471\n        /* \"#utility.yul\":12758:12761   */\n      dup3\n        /* \"#utility.yul\":12669:12762   */\n      tag_312\n      jump\t// in\n    tag_471:\n        /* \"#utility.yul\":12787:12789   */\n      0x20\n        /* \"#utility.yul\":12782:12785   */\n      dup3\n        /* \"#utility.yul\":12778:12790   */\n      add\n        /* \"#utility.yul\":12771:12790   */\n      swap1\n      pop\n        /* \"#utility.yul\":12430:12796   */\n      swap2\n      swap1\n      pop\n      jump\t// out\n        /* \"#utility.yul\":12802:13221   */\n    tag_95:\n        /* \"#utility.yul\":12968:12972   */\n      0x00\n        /* \"#utility.yul\":13006:13008   */\n      0x20\n        /* \"#utility.yul\":12995:13004   */\n      dup3\n        /* \"#utility.yul\":12991:13009   */\n      add\n        /* \"#utility.yul\":12983:13009   */\n      swap1\n      pop\n        /* \"#utility.yul\":13055:13064   */\n      dup2\n        /* \"#utility.yul\":13049:13053   */\n      dup2\n        /* \"#utility.yul\":13045:13065   */\n      sub\n        /* \"#utility.yul\":13041:13042   */\n      0x00\n        /* \"#utility.yul\":13030:13039   */\n      dup4\n        /* \"#utility.yul\":13026:13043   */\n      add\n        /* \"#utility.yul\":13019:13066   */\n      mstore\n        /* \"#utility.yul\":13083:13214   */\n      tag_473\n        /* \"#utility.yul\":13209:13213   */\n      dup2\n        /* \"#utility.yul\":13083:13214   */\n      tag_313\n      jump\t// in\n    tag_473:\n        /* \"#utility.yul\":13075:13214   */\n      swap1\n      pop\n        /* \"#utility.yul\":12802:13221   */\n      swap2\n      swap1\n      pop\n      jump\t// out\n        /* \"#utility.yul\":13227:13404   */\n    tag_314:\n        /* \"#utility.yul\":13367:13396   */\n      0x44657374696e6174696f6e2061646472206973206e6f74207365740000000000\n        /* \"#utility.yul\":13363:13364   */\n      0x00\n        /* \"#utility.yul\":13355:13361   */\n      dup3\n        /* \"#utility.yul\":13351:13365   */\n      add\n        /* \"#utility.yul\":13344:13397   */\n      mstore\n        /* \"#utility.yul\":13227:13404   */\n      pop\n      jump\t// out\n        /* \"#utility.yul\":13410:13776   */\n    tag_315:\n        /* \"#utility.yul\":13552:13555   */\n      0x00\n        /* \"#utility.yul\":13573:13640   */\n      tag_476\n        /* \"#utility.yul\":13637:13639   */\n      0x1b\n        /* \"#utility.yul\":13632:13635   */\n      dup4\n        /* \"#utility.yul\":13573:13640   */\n      tag_302\n      jump\t// in\n    tag_476:\n        /* \"#utility.yul\":13566:13640   */\n      swap2\n      pop\n        /* \"#utility.yul\":13649:13742   */\n      tag_477\n        /* \"#utility.yul\":13738:13741   */\n      dup3\n        /* \"#utility.yul\":13649:13742   */\n      tag_314\n      jump\t// in\n    tag_477:\n        /* \"#utility.yul\":13767:13769   */\n      0x20\n        /* \"#utility.yul\":13762:13765   */\n      dup3\n        /* \"#utility.yul\":13758:13770   */\n      add\n        /* \"#utility.yul\":13751:13770   */\n      swap1\n      pop\n        /* \"#utility.yul\":13410:13776   */\n      swap2\n      swap1\n      pop\n      jump\t// out\n        /* \"#utility.yul\":13782:14201   */\n    tag_99:\n        /* \"#utility.yul\":13948:13952   */\n      0x00\n        /* \"#utility.yul\":13986:13988   */\n      0x20\n        /* \"#utility.yul\":13975:13984   */\n      dup3\n        /* \"#utility.yul\":13971:13989   */\n      add\n        /* \"#utility.yul\":13963:13989   */\n      swap1\n      pop\n        /* \"#utility.yul\":14035:14044   */\n      dup2\n        /* \"#utility.yul\":14029:14033   */\n      dup2\n        /* \"#utility.yul\":14025:14045   */\n      sub\n        /* \"#utility.yul\":14021:14022   */\n      0x00\n        /* \"#utility.yul\":14010:14019   */\n      dup4\n        /* \"#utility.yul\":14006:14023   */\n      add\n        /* \"#utility.yul\":13999:14046   */\n      mstore\n        /* \"#utility.yul\":14063:14194   */\n      tag_479\n        /* \"#utility.yul\":14189:14193   */\n      dup2\n        /* \"#utility.yul\":14063:14194   */\n      tag_315\n      jump\t// in\n    tag_479:\n        /* \"#utility.yul\":14055:14194   */\n      swap1\n      pop\n        /* \"#utility.yul\":13782:14201   */\n      swap2\n      swap1\n      pop\n      jump\t// out\n        /* \"#utility.yul\":14207:14376   */\n    tag_316:\n        /* \"#utility.yul\":14347:14368   */\n      0x4973206e6f7420646561646c696e652079657400000000000000000000000000\n        /* \"#utility.yul\":14343:14344   */\n      0x00\n        /* \"#utility.yul\":14335:14341   */\n      dup3\n        /* \"#utility.yul\":14331:14345   */\n      add\n        /* \"#utility.yul\":14324:14369   */\n      mstore\n        /* \"#utility.yul\":14207:14376   */\n      pop\n      jump\t// out\n        /* \"#utility.yul\":14382:14748   */\n    tag_317:\n        /* \"#utility.yul\":14524:14527   */\n      0x00\n        /* \"#utility.yul\":14545:14612   */\n      tag_482\n        /* \"#utility.yul\":14609:14611   */\n      0x13\n        /* \"#utility.yul\":14604:14607   */\n      dup4\n        /* \"#utility.yul\":14545:14612   */\n      tag_302\n      jump\t// in\n    tag_482:\n        /* \"#utility.yul\":14538:14612   */\n      swap2\n      pop\n        /* \"#utility.yul\":14621:14714   */\n      tag_483\n        /* \"#utility.yul\":14710:14713   */\n      dup3\n        /* \"#utility.yul\":14621:14714   */\n      tag_316\n      jump\t// in\n    tag_483:\n        /* \"#utility.yul\":14739:14741   */\n      0x20\n        /* \"#utility.yul\":14734:14737   */\n      dup3\n        /* \"#utility.yul\":14730:14742   */\n      add\n        /* \"#utility.yul\":14723:14742   */\n      swap1\n      pop\n        /* \"#utility.yul\":14382:14748   */\n      swap2\n      swap1\n      pop\n      jump\t// out\n        /* \"#utility.yul\":14754:15173   */\n    tag_103:\n        /* \"#utility.yul\":14920:14924   */\n      0x00\n        /* \"#utility.yul\":14958:14960   */\n      0x20\n        /* \"#utility.yul\":14947:14956   */\n      dup3\n        /* \"#utility.yul\":14943:14961   */\n      add\n        /* \"#utility.yul\":14935:14961   */\n      swap1\n      pop\n        /* \"#utility.yul\":15007:15016   */\n      dup2\n        /* \"#utility.yul\":15001:15005   */\n      dup2\n        /* \"#utility.yul\":14997:15017   */\n      sub\n        /* \"#utility.yul\":14993:14994   */\n      0x00\n        /* \"#utility.yul\":14982:14991   */\n      dup4\n        /* \"#utility.yul\":14978:14995   */\n      add\n        /* \"#utility.yul\":14971:15018   */\n      mstore\n        /* \"#utility.yul\":15035:15166   */\n      tag_485\n        /* \"#utility.yul\":15161:15165   */\n      dup2\n        /* \"#utility.yul\":15035:15166   */\n      tag_317\n      jump\t// in\n    tag_485:\n        /* \"#utility.yul\":15027:15166   */\n      swap1\n      pop\n        /* \"#utility.yul\":14754:15173   */\n      swap2\n      swap1\n      pop\n      jump\t// out\n        /* \"#utility.yul\":15179:15326   */\n    tag_318:\n        /* \"#utility.yul\":15280:15291   */\n      0x00\n        /* \"#utility.yul\":15317:15320   */\n      dup2\n        /* \"#utility.yul\":15302:15320   */\n      swap1\n      pop\n        /* \"#utility.yul\":15179:15326   */\n      swap3\n      swap2\n      pop\n      pop\n      jump\t// out\n        /* \"#utility.yul\":15332:15446   */\n    tag_319:\n      pop\n      jump\t// out\n        /* \"#utility.yul\":15452:15850   */\n    tag_320:\n        /* \"#utility.yul\":15611:15614   */\n      0x00\n        /* \"#utility.yul\":15632:15715   */\n      tag_489\n        /* \"#utility.yul\":15713:15714   */\n      0x00\n        /* \"#utility.yul\":15708:15711   */\n      dup4\n        /* \"#utility.yul\":15632:15715   */\n      tag_318\n      jump\t// in\n    tag_489:\n        /* \"#utility.yul\":15625:15715   */\n      swap2\n      pop\n        /* \"#utility.yul\":15724:15817   */\n      tag_490\n        /* \"#utility.yul\":15813:15816   */\n      dup3\n        /* \"#utility.yul\":15724:15817   */\n      tag_319\n      jump\t// in\n    tag_490:\n        /* \"#utility.yul\":15842:15843   */\n      0x00\n        /* \"#utility.yul\":15837:15840   */\n      dup3\n        /* \"#utility.yul\":15833:15844   */\n      add\n        /* \"#utility.yul\":15826:15844   */\n      swap1\n      pop\n        /* \"#utility.yul\":15452:15850   */\n      swap2\n      swap1\n      pop\n      jump\t// out\n        /* \"#utility.yul\":15856:16235   */\n    tag_105:\n        /* \"#utility.yul\":16040:16043   */\n      0x00\n        /* \"#utility.yul\":16062:16209   */\n      tag_492\n        /* \"#utility.yul\":16205:16208   */\n      dup3\n        /* \"#utility.yul\":16062:16209   */\n      tag_320\n      jump\t// in\n    tag_492:\n        /* \"#utility.yul\":16055:16209   */\n      swap2\n      pop\n        /* \"#utility.yul\":16226:16229   */\n      dup2\n        /* \"#utility.yul\":16219:16229   */\n      swap1\n      pop\n        /* \"#utility.yul\":15856:16235   */\n      swap2\n      swap1\n      pop\n      jump\t// out\n        /* \"#utility.yul\":16241:16415   */\n    tag_321:\n        /* \"#utility.yul\":16381:16407   */\n      0x4661696c656420746f2073656e6420646f6e6174696f6e730000000000000000\n        /* \"#utility.yul\":16377:16378   */\n      0x00\n        /* \"#utility.yul\":16369:16375   */\n      dup3\n        /* \"#utility.yul\":16365:16379   */\n      add\n        /* \"#utility.yul\":16358:16408   */\n      mstore\n        /* \"#utility.yul\":16241:16415   */\n      pop\n      jump\t// out\n        /* \"#utility.yul\":16421:16787   */\n    tag_322:\n        /* \"#utility.yul\":16563:16566   */\n      0x00\n        /* \"#utility.yul\":16584:16651   */\n      tag_495\n        /* \"#utility.yul\":16648:16650   */\n      0x18\n        /* \"#utility.yul\":16643:16646   */\n      dup4\n        /* \"#utility.yul\":16584:16651   */\n      tag_302\n      jump\t// in\n    tag_495:\n        /* \"#utility.yul\":16577:16651   */\n      swap2\n      pop\n        /* \"#utility.yul\":16660:16753   */\n      tag_496\n        /* \"#utility.yul\":16749:16752   */\n      dup3\n        /* \"#utility.yul\":16660:16753   */\n      tag_321\n      jump\t// in\n    tag_496:\n        /* \"#utility.yul\":16778:16780   */\n      0x20\n        /* \"#utility.yul\":16773:16776   */\n      dup3\n        /* \"#utility.yul\":16769:16781   */\n      add\n        /* \"#utility.yul\":16762:16781   */\n      swap1\n      pop\n        /* \"#utility.yul\":16421:16787   */\n      swap2\n      swap1\n      pop\n      jump\t// out\n        /* \"#utility.yul\":16793:17212   */\n    tag_111:\n        /* \"#utility.yul\":16959:16963   */\n      0x00\n        /* \"#utility.yul\":16997:16999   */\n      0x20\n        /* \"#utility.yul\":16986:16995   */\n      dup3\n        /* \"#utility.yul\":16982:17000   */\n      add\n        /* \"#utility.yul\":16974:17000   */\n      swap1\n      pop\n        /* \"#utility.yul\":17046:17055   */\n      dup2\n        /* \"#utility.yul\":17040:17044   */\n      dup2\n        /* \"#utility.yul\":17036:17056   */\n      sub\n        /* \"#utility.yul\":17032:17033   */\n      0x00\n        /* \"#utility.yul\":17021:17030   */\n      dup4\n        /* \"#utility.yul\":17017:17034   */\n      add\n        /* \"#utility.yul\":17010:17057   */\n      mstore\n        /* \"#utility.yul\":17074:17205   */\n      tag_498\n        /* \"#utility.yul\":17200:17204   */\n      dup2\n        /* \"#utility.yul\":17074:17205   */\n      tag_322\n      jump\t// in\n    tag_498:\n        /* \"#utility.yul\":17066:17205   */\n      swap1\n      pop\n        /* \"#utility.yul\":16793:17212   */\n      swap2\n      swap1\n      pop\n      jump\t// out\n        /* \"#utility.yul\":17218:17383   */\n    tag_323:\n        /* \"#utility.yul\":17358:17375   */\n      0x776974686472617742616c616e63650000000000000000000000000000000000\n        /* \"#utility.yul\":17354:17355   */\n      0x00\n        /* \"#utility.yul\":17346:17352   */\n      dup3\n        /* \"#utility.yul\":17342:17356   */\n      add\n        /* \"#utility.yul\":17335:17376   */\n      mstore\n        /* \"#utility.yul\":17218:17383   */\n      pop\n      jump\t// out\n        /* \"#utility.yul\":17389:17755   */\n    tag_324:\n        /* \"#utility.yul\":17531:17534   */\n      0x00\n        /* \"#utility.yul\":17552:17619   */\n      tag_501\n        /* \"#utility.yul\":17616:17618   */\n      0x0f\n        /* \"#utility.yul\":17611:17614   */\n      dup4\n        /* \"#utility.yul\":17552:17619   */\n      tag_302\n      jump\t// in\n    tag_501:\n        /* \"#utility.yul\":17545:17619   */\n      swap2\n      pop\n        /* \"#utility.yul\":17628:17721   */\n      tag_502\n        /* \"#utility.yul\":17717:17720   */\n      dup3\n        /* \"#utility.yul\":17628:17721   */\n      tag_323\n      jump\t// in\n    tag_502:\n        /* \"#utility.yul\":17746:17748   */\n      0x20\n        /* \"#utility.yul\":17741:17744   */\n      dup3\n        /* \"#utility.yul\":17737:17749   */\n      add\n        /* \"#utility.yul\":17730:17749   */\n      swap1\n      pop\n        /* \"#utility.yul\":17389:17755   */\n      swap2\n      swap1\n      pop\n      jump\t// out\n        /* \"#utility.yul\":17761:17821   */\n    tag_325:\n        /* \"#utility.yul\":17789:17792   */\n      0x00\n        /* \"#utility.yul\":17810:17815   */\n      dup2\n        /* \"#utility.yul\":17803:17815   */\n      swap1\n      pop\n        /* \"#utility.yul\":17761:17821   */\n      swap2\n      swap1\n      pop\n      jump\t// out\n        /* \"#utility.yul\":17827:17969   */\n    tag_326:\n        /* \"#utility.yul\":17877:17886   */\n      0x00\n        /* \"#utility.yul\":17910:17963   */\n      tag_505\n        /* \"#utility.yul\":17928:17962   */\n      tag_506\n        /* \"#utility.yul\":17937:17961   */\n      tag_507\n        /* \"#utility.yul\":17955:17960   */\n      dup5\n        /* \"#utility.yul\":17937:17961   */\n      tag_280\n      jump\t// in\n    tag_507:\n        /* \"#utility.yul\":17928:17962   */\n      tag_325\n      jump\t// in\n    tag_506:\n        /* \"#utility.yul\":17910:17963   */\n      tag_280\n      jump\t// in\n    tag_505:\n        /* \"#utility.yul\":17897:17963   */\n      swap1\n      pop\n        /* \"#utility.yul\":17827:17969   */\n      swap2\n      swap1\n      pop\n      jump\t// out\n        /* \"#utility.yul\":17975:18101   */\n    tag_327:\n        /* \"#utility.yul\":18025:18034   */\n      0x00\n        /* \"#utility.yul\":18058:18095   */\n      tag_509\n        /* \"#utility.yul\":18089:18094   */\n      dup3\n        /* \"#utility.yul\":18058:18095   */\n      tag_326\n      jump\t// in\n    tag_509:\n        /* \"#utility.yul\":18045:18095   */\n      swap1\n      pop\n        /* \"#utility.yul\":17975:18101   */\n      swap2\n      swap1\n      pop\n      jump\t// out\n        /* \"#utility.yul\":18107:18241   */\n    tag_328:\n        /* \"#utility.yul\":18165:18174   */\n      0x00\n        /* \"#utility.yul\":18198:18235   */\n      tag_511\n        /* \"#utility.yul\":18229:18234   */\n      dup3\n        /* \"#utility.yul\":18198:18235   */\n      tag_327\n      jump\t// in\n    tag_511:\n        /* \"#utility.yul\":18185:18235   */\n      swap1\n      pop\n        /* \"#utility.yul\":18107:18241   */\n      swap2\n      swap1\n      pop\n      jump\t// out\n        /* \"#utility.yul\":18247:18394   */\n    tag_329:\n        /* \"#utility.yul\":18342:18387   */\n      tag_513\n        /* \"#utility.yul\":18381:18386   */\n      dup2\n        /* \"#utility.yul\":18342:18387   */\n      tag_328\n      jump\t// in\n    tag_513:\n        /* \"#utility.yul\":18337:18340   */\n      dup3\n        /* \"#utility.yul\":18330:18388   */\n      mstore\n        /* \"#utility.yul\":18247:18394   */\n      pop\n      pop\n      jump\t// out\n        /* \"#utility.yul\":18400:19257   */\n    tag_113:\n        /* \"#utility.yul\":18678:18682   */\n      0x00\n        /* \"#utility.yul\":18716:18719   */\n      0x80\n        /* \"#utility.yul\":18705:18714   */\n      dup3\n        /* \"#utility.yul\":18701:18720   */\n      add\n        /* \"#utility.yul\":18693:18720   */\n      swap1\n      pop\n        /* \"#utility.yul\":18766:18775   */\n      dup2\n        /* \"#utility.yul\":18760:18764   */\n      dup2\n        /* \"#utility.yul\":18756:18776   */\n      sub\n        /* \"#utility.yul\":18752:18753   */\n      0x00\n        /* \"#utility.yul\":18741:18750   */\n      dup4\n        /* \"#utility.yul\":18737:18754   */\n      add\n        /* \"#utility.yul\":18730:18777   */\n      mstore\n        /* \"#utility.yul\":18794:18925   */\n      tag_515\n        /* \"#utility.yul\":18920:18924   */\n      dup2\n        /* \"#utility.yul\":18794:18925   */\n      tag_324\n      jump\t// in\n    tag_515:\n        /* \"#utility.yul\":18786:18925   */\n      swap1\n      pop\n        /* \"#utility.yul\":18935:19007   */\n      tag_516\n        /* \"#utility.yul\":19003:19005   */\n      0x20\n        /* \"#utility.yul\":18992:19001   */\n      dup4\n        /* \"#utility.yul\":18988:19006   */\n      add\n        /* \"#utility.yul\":18979:18985   */\n      dup7\n        /* \"#utility.yul\":18935:19007   */\n      tag_293\n      jump\t// in\n    tag_516:\n        /* \"#utility.yul\":19054:19063   */\n      dup2\n        /* \"#utility.yul\":19048:19052   */\n      dup2\n        /* \"#utility.yul\":19044:19064   */\n      sub\n        /* \"#utility.yul\":19039:19041   */\n      0x40\n        /* \"#utility.yul\":19028:19037   */\n      dup4\n        /* \"#utility.yul\":19024:19042   */\n      add\n        /* \"#utility.yul\":19017:19065   */\n      mstore\n        /* \"#utility.yul\":19082:19160   */\n      tag_517\n        /* \"#utility.yul\":19155:19159   */\n      dup2\n        /* \"#utility.yul\":19146:19152   */\n      dup6\n        /* \"#utility.yul\":19082:19160   */\n      tag_311\n      jump\t// in\n    tag_517:\n        /* \"#utility.yul\":19074:19160   */\n      swap1\n      pop\n        /* \"#utility.yul\":19170:19250   */\n      tag_518\n        /* \"#utility.yul\":19246:19248   */\n      0x60\n        /* \"#utility.yul\":19235:19244   */\n      dup4\n        /* \"#utility.yul\":19231:19249   */\n      add\n        /* \"#utility.yul\":19222:19228   */\n      dup5\n        /* \"#utility.yul\":19170:19250   */\n      tag_329\n      jump\t// in\n    tag_518:\n        /* \"#utility.yul\":18400:19257   */\n      swap5\n      swap4\n      pop\n      pop\n      pop\n      pop\n      jump\t// out\n        /* \"#utility.yul\":19263:19443   */\n    tag_330:\n        /* \"#utility.yul\":19311:19388   */\n      0x4e487b7100000000000000000000000000000000000000000000000000000000\n        /* \"#utility.yul\":19308:19309   */\n      0x00\n        /* \"#utility.yul\":19301:19389   */\n      mstore\n        /* \"#utility.yul\":19408:19412   */\n      0x11\n        /* \"#utility.yul\":19405:19406   */\n      0x04\n        /* \"#utility.yul\":19398:19413   */\n      mstore\n        /* \"#utility.yul\":19432:19436   */\n      0x24\n        /* \"#utility.yul\":19429:19430   */\n      0x00\n        /* \"#utility.yul\":19422:19437   */\n      revert\n        /* \"#utility.yul\":19449:19640   */\n    tag_116:\n        /* \"#utility.yul\":19489:19492   */\n      0x00\n        /* \"#utility.yul\":19508:19528   */\n      tag_521\n        /* \"#utility.yul\":19526:19527   */\n      dup3\n        /* \"#utility.yul\":19508:19528   */\n      tag_275\n      jump\t// in\n    tag_521:\n        /* \"#utility.yul\":19503:19528   */\n      swap2\n      pop\n        /* \"#utility.yul\":19542:19562   */\n      tag_522\n        /* \"#utility.yul\":19560:19561   */\n      dup4\n        /* \"#utility.yul\":19542:19562   */\n      tag_275\n      jump\t// in\n    tag_522:\n        /* \"#utility.yul\":19537:19562   */\n      swap3\n      pop\n        /* \"#utility.yul\":19585:19586   */\n      dup3\n        /* \"#utility.yul\":19582:19583   */\n      dup3\n        /* \"#utility.yul\":19578:19587   */\n      add\n        /* \"#utility.yul\":19571:19587   */\n      swap1\n      pop\n        /* \"#utility.yul\":19606:19609   */\n      dup1\n        /* \"#utility.yul\":19603:19604   */\n      dup3\n        /* \"#utility.yul\":19600:19610   */\n      gt\n        /* \"#utility.yul\":19597:19633   */\n      iszero\n      tag_523\n      jumpi\n        /* \"#utility.yul\":19613:19631   */\n      tag_524\n      tag_330\n      jump\t// in\n    tag_524:\n        /* \"#utility.yul\":19597:19633   */\n    tag_523:\n        /* \"#utility.yul\":19449:19640   */\n      swap3\n      swap2\n      pop\n      pop\n      jump\t// out\n        /* \"#utility.yul\":19646:19812   */\n    tag_331:\n        /* \"#utility.yul\":19786:19804   */\n      0x496e76616c69642063757272656e637900000000000000000000000000000000\n        /* \"#utility.yul\":19782:19783   */\n      0x00\n        /* \"#utility.yul\":19774:19780   */\n      dup3\n        /* \"#utility.yul\":19770:19784   */\n      add\n        /* \"#utility.yul\":19763:19805   */\n      mstore\n        /* \"#utility.yul\":19646:19812   */\n      pop\n      jump\t// out\n        /* \"#utility.yul\":19818:20184   */\n    tag_332:\n        /* \"#utility.yul\":19960:19963   */\n      0x00\n        /* \"#utility.yul\":19981:20048   */\n      tag_527\n        /* \"#utility.yul\":20045:20047   */\n      0x10\n        /* \"#utility.yul\":20040:20043   */\n      dup4\n        /* \"#utility.yul\":19981:20048   */\n      tag_302\n      jump\t// in\n    tag_527:\n        /* \"#utility.yul\":19974:20048   */\n      swap2\n      pop\n        /* \"#utility.yul\":20057:20150   */\n      tag_528\n        /* \"#utility.yul\":20146:20149   */\n      dup3\n        /* \"#utility.yul\":20057:20150   */\n      tag_331\n      jump\t// in\n    tag_528:\n        /* \"#utility.yul\":20175:20177   */\n      0x20\n        /* \"#utility.yul\":20170:20173   */\n      dup3\n        /* \"#utility.yul\":20166:20178   */\n      add\n        /* \"#utility.yul\":20159:20178   */\n      swap1\n      pop\n        /* \"#utility.yul\":19818:20184   */\n      swap2\n      swap1\n      pop\n      jump\t// out\n        /* \"#utility.yul\":20190:20609   */\n    tag_126:\n        /* \"#utility.yul\":20356:20360   */\n      0x00\n        /* \"#utility.yul\":20394:20396   */\n      0x20\n        /* \"#utility.yul\":20383:20392   */\n      dup3\n        /* \"#utility.yul\":20379:20397   */\n      add\n        /* \"#utility.yul\":20371:20397   */\n      swap1\n      pop\n        /* \"#utility.yul\":20443:20452   */\n      dup2\n        /* \"#utility.yul\":20437:20441   */\n      dup2\n        /* \"#utility.yul\":20433:20453   */\n      sub\n        /* \"#utility.yul\":20429:20430   */\n      0x00\n        /* \"#utility.yul\":20418:20427   */\n      dup4\n        /* \"#utility.yul\":20414:20431   */\n      add\n        /* \"#utility.yul\":20407:20454   */\n      mstore\n        /* \"#utility.yul\":20471:20602   */\n      tag_530\n        /* \"#utility.yul\":20597:20601   */\n      dup2\n        /* \"#utility.yul\":20471:20602   */\n      tag_332\n      jump\t// in\n    tag_530:\n        /* \"#utility.yul\":20463:20602   */\n      swap1\n      pop\n        /* \"#utility.yul\":20190:20609   */\n      swap2\n      swap1\n      pop\n      jump\t// out\n        /* \"#utility.yul\":20615:20963   */\n    tag_168:\n        /* \"#utility.yul\":20744:20748   */\n      0x00\n        /* \"#utility.yul\":20782:20784   */\n      0x40\n        /* \"#utility.yul\":20771:20780   */\n      dup3\n        /* \"#utility.yul\":20767:20785   */\n      add\n        /* \"#utility.yul\":20759:20785   */\n      swap1\n      pop\n        /* \"#utility.yul\":20795:20874   */\n      tag_532\n        /* \"#utility.yul\":20871:20872   */\n      0x00\n        /* \"#utility.yul\":20860:20869   */\n      dup4\n        /* \"#utility.yul\":20856:20873   */\n      add\n        /* \"#utility.yul\":20847:20853   */\n      dup6\n        /* \"#utility.yul\":20795:20874   */\n      tag_329\n      jump\t// in\n    tag_532:\n        /* \"#utility.yul\":20884:20956   */\n      tag_533\n        /* \"#utility.yul\":20952:20954   */\n      0x20\n        /* \"#utility.yul\":20941:20950   */\n      dup4\n        /* \"#utility.yul\":20937:20955   */\n      add\n        /* \"#utility.yul\":20928:20934   */\n      dup5\n        /* \"#utility.yul\":20884:20956   */\n      tag_293\n      jump\t// in\n    tag_533:\n        /* \"#utility.yul\":20615:20963   */\n      swap4\n      swap3\n      pop\n      pop\n      pop\n      jump\t// out\n        /* \"#utility.yul\":20969:21085   */\n    tag_333:\n        /* \"#utility.yul\":21039:21060   */\n      tag_535\n        /* \"#utility.yul\":21054:21059   */\n      dup2\n        /* \"#utility.yul\":21039:21060   */\n      tag_278\n      jump\t// in\n    tag_535:\n        /* \"#utility.yul\":21032:21037   */\n      dup2\n        /* \"#utility.yul\":21029:21061   */\n      eq\n        /* \"#utility.yul\":21019:21079   */\n      tag_536\n      jumpi\n        /* \"#utility.yul\":21075:21076   */\n      0x00\n        /* \"#utility.yul\":21072:21073   */\n      dup1\n        /* \"#utility.yul\":21065:21077   */\n      revert\n        /* \"#utility.yul\":21019:21079   */\n    tag_536:\n        /* \"#utility.yul\":20969:21085   */\n      pop\n      jump\t// out\n        /* \"#utility.yul\":21091:21228   */\n    tag_334:\n        /* \"#utility.yul\":21145:21150   */\n      0x00\n        /* \"#utility.yul\":21176:21182   */\n      dup2\n        /* \"#utility.yul\":21170:21183   */\n      mload\n        /* \"#utility.yul\":21161:21183   */\n      swap1\n      pop\n        /* \"#utility.yul\":21192:21222   */\n      tag_538\n        /* \"#utility.yul\":21216:21221   */\n      dup2\n        /* \"#utility.yul\":21192:21222   */\n      tag_333\n      jump\t// in\n    tag_538:\n        /* \"#utility.yul\":21091:21228   */\n      swap3\n      swap2\n      pop\n      pop\n      jump\t// out\n        /* \"#utility.yul\":21234:21579   */\n    tag_172:\n        /* \"#utility.yul\":21301:21307   */\n      0x00\n        /* \"#utility.yul\":21350:21352   */\n      0x20\n        /* \"#utility.yul\":21338:21347   */\n      dup3\n        /* \"#utility.yul\":21329:21336   */\n      dup5\n        /* \"#utility.yul\":21325:21348   */\n      sub\n        /* \"#utility.yul\":21321:21353   */\n      slt\n        /* \"#utility.yul\":21318:21437   */\n      iszero\n      tag_540\n      jumpi\n        /* \"#utility.yul\":21356:21435   */\n      tag_541\n      tag_273\n      jump\t// in\n    tag_541:\n        /* \"#utility.yul\":21318:21437   */\n    tag_540:\n        /* \"#utility.yul\":21476:21477   */\n      0x00\n        /* \"#utility.yul\":21501:21562   */\n      tag_542\n        /* \"#utility.yul\":21554:21561   */\n      dup5\n        /* \"#utility.yul\":21545:21551   */\n      dup3\n        /* \"#utility.yul\":21534:21543   */\n      dup6\n        /* \"#utility.yul\":21530:21552   */\n      add\n        /* \"#utility.yul\":21501:21562   */\n      tag_334\n      jump\t// in\n    tag_542:\n        /* \"#utility.yul\":21491:21562   */\n      swap2\n      pop\n        /* \"#utility.yul\":21447:21572   */\n      pop\n        /* \"#utility.yul\":21234:21579   */\n      swap3\n      swap2\n      pop\n      pop\n      jump\t// out\n        /* \"#utility.yul\":21585:21816   */\n    tag_335:\n        /* \"#utility.yul\":21725:21759   */\n      0x4661696c656420746f207472616e6665722041445420746f2064657374696e61\n        /* \"#utility.yul\":21721:21722   */\n      0x00\n        /* \"#utility.yul\":21713:21719   */\n      dup3\n        /* \"#utility.yul\":21709:21723   */\n      add\n        /* \"#utility.yul\":21702:21760   */\n      mstore\n        /* \"#utility.yul\":21794:21808   */\n      0x74696f6e20616464726573730000000000000000000000000000000000000000\n        /* \"#utility.yul\":21789:21791   */\n      0x20\n        /* \"#utility.yul\":21781:21787   */\n      dup3\n        /* \"#utility.yul\":21777:21792   */\n      add\n        /* \"#utility.yul\":21770:21809   */\n      mstore\n        /* \"#utility.yul\":21585:21816   */\n      pop\n      jump\t// out\n        /* \"#utility.yul\":21822:22188   */\n    tag_336:\n        /* \"#utility.yul\":21964:21967   */\n      0x00\n        /* \"#utility.yul\":21985:22052   */\n      tag_545\n        /* \"#utility.yul\":22049:22051   */\n      0x2c\n        /* \"#utility.yul\":22044:22047   */\n      dup4\n        /* \"#utility.yul\":21985:22052   */\n      tag_302\n      jump\t// in\n    tag_545:\n        /* \"#utility.yul\":21978:22052   */\n      swap2\n      pop\n        /* \"#utility.yul\":22061:22154   */\n      tag_546\n        /* \"#utility.yul\":22150:22153   */\n      dup3\n        /* \"#utility.yul\":22061:22154   */\n      tag_335\n      jump\t// in\n    tag_546:\n        /* \"#utility.yul\":22179:22181   */\n      0x40\n        /* \"#utility.yul\":22174:22177   */\n      dup3\n        /* \"#utility.yul\":22170:22182   */\n      add\n        /* \"#utility.yul\":22163:22182   */\n      swap1\n      pop\n        /* \"#utility.yul\":21822:22188   */\n      swap2\n      swap1\n      pop\n      jump\t// out\n        /* \"#utility.yul\":22194:22613   */\n    tag_175:\n        /* \"#utility.yul\":22360:22364   */\n      0x00\n        /* \"#utility.yul\":22398:22400   */\n      0x20\n        /* \"#utility.yul\":22387:22396   */\n      dup3\n        /* \"#utility.yul\":22383:22401   */\n      add\n        /* \"#utility.yul\":22375:22401   */\n      swap1\n      pop\n        /* \"#utility.yul\":22447:22456   */\n      dup2\n        /* \"#utility.yul\":22441:22445   */\n      dup2\n        /* \"#utility.yul\":22437:22457   */\n      sub\n        /* \"#utility.yul\":22433:22434   */\n      0x00\n        /* \"#utility.yul\":22422:22431   */\n      dup4\n        /* \"#utility.yul\":22418:22435   */\n      add\n        /* \"#utility.yul\":22411:22458   */\n      mstore\n        /* \"#utility.yul\":22475:22606   */\n      tag_548\n        /* \"#utility.yul\":22601:22605   */\n      dup2\n        /* \"#utility.yul\":22475:22606   */\n      tag_336\n      jump\t// in\n    tag_548:\n        /* \"#utility.yul\":22467:22606   */\n      swap1\n      pop\n        /* \"#utility.yul\":22194:22613   */\n      swap2\n      swap1\n      pop\n      jump\t// out\n        /* \"#utility.yul\":22619:22814   */\n    tag_337:\n        /* \"#utility.yul\":22788:22807   */\n      0x206973206d696e696d756d2076616c7565000000000000000000000000000000\n        /* \"#utility.yul\":22783:22786   */\n      dup2\n        /* \"#utility.yul\":22776:22808   */\n      mstore\n        /* \"#utility.yul\":22619:22814   */\n      pop\n      jump\t// out\n        /* \"#utility.yul\":22820:23362   */\n    tag_180:\n        /* \"#utility.yul\":23043:23046   */\n      0x00\n        /* \"#utility.yul\":23065:23160   */\n      tag_551\n        /* \"#utility.yul\":23156:23159   */\n      dup3\n        /* \"#utility.yul\":23147:23153   */\n      dup5\n        /* \"#utility.yul\":23065:23160   */\n      tag_308\n      jump\t// in\n    tag_551:\n        /* \"#utility.yul\":23058:23160   */\n      swap2\n      pop\n        /* \"#utility.yul\":23170:23308   */\n      tag_552\n        /* \"#utility.yul\":23304:23307   */\n      dup3\n        /* \"#utility.yul\":23170:23308   */\n      tag_337\n      jump\t// in\n    tag_552:\n        /* \"#utility.yul\":23333:23335   */\n      0x11\n        /* \"#utility.yul\":23328:23331   */\n      dup3\n        /* \"#utility.yul\":23324:23336   */\n      add\n        /* \"#utility.yul\":23317:23336   */\n      swap2\n      pop\n        /* \"#utility.yul\":23353:23356   */\n      dup2\n        /* \"#utility.yul\":23346:23356   */\n      swap1\n      pop\n        /* \"#utility.yul\":22820:23362   */\n      swap3\n      swap2\n      pop\n      pop\n      jump\t// out\n        /* \"#utility.yul\":23368:23590   */\n    tag_338:\n        /* \"#utility.yul\":23508:23542   */\n      0x446f6e6174696f6e206e6f7420616c6c6f77656420616674657220646561646c\n        /* \"#utility.yul\":23504:23505   */\n      0x00\n        /* \"#utility.yul\":23496:23502   */\n      dup3\n        /* \"#utility.yul\":23492:23506   */\n      add\n        /* \"#utility.yul\":23485:23543   */\n      mstore\n        /* \"#utility.yul\":23577:23582   */\n      0x696e650000000000000000000000000000000000000000000000000000000000\n        /* \"#utility.yul\":23572:23574   */\n      0x20\n        /* \"#utility.yul\":23564:23570   */\n      dup3\n        /* \"#utility.yul\":23560:23575   */\n      add\n        /* \"#utility.yul\":23553:23583   */\n      mstore\n        /* \"#utility.yul\":23368:23590   */\n      pop\n      jump\t// out\n        /* \"#utility.yul\":23596:23962   */\n    tag_339:\n        /* \"#utility.yul\":23738:23741   */\n      0x00\n        /* \"#utility.yul\":23759:23826   */\n      tag_555\n        /* \"#utility.yul\":23823:23825   */\n      0x23\n        /* \"#utility.yul\":23818:23821   */\n      dup4\n        /* \"#utility.yul\":23759:23826   */\n      tag_302\n      jump\t// in\n    tag_555:\n        /* \"#utility.yul\":23752:23826   */\n      swap2\n      pop\n        /* \"#utility.yul\":23835:23928   */\n      tag_556\n        /* \"#utility.yul\":23924:23927   */\n      dup3\n        /* \"#utility.yul\":23835:23928   */\n      tag_338\n      jump\t// in\n    tag_556:\n        /* \"#utility.yul\":23953:23955   */\n      0x40\n        /* \"#utility.yul\":23948:23951   */\n      dup3\n        /* \"#utility.yul\":23944:23956   */\n      add\n        /* \"#utility.yul\":23937:23956   */\n      swap1\n      pop\n        /* \"#utility.yul\":23596:23962   */\n      swap2\n      swap1\n      pop\n      jump\t// out\n        /* \"#utility.yul\":23968:24387   */\n    tag_186:\n        /* \"#utility.yul\":24134:24138   */\n      0x00\n        /* \"#utility.yul\":24172:24174   */\n      0x20\n        /* \"#utility.yul\":24161:24170   */\n      dup3\n        /* \"#utility.yul\":24157:24175   */\n      add\n        /* \"#utility.yul\":24149:24175   */\n      swap1\n      pop\n        /* \"#utility.yul\":24221:24230   */\n      dup2\n        /* \"#utility.yul\":24215:24219   */\n      dup2\n        /* \"#utility.yul\":24211:24231   */\n      sub\n        /* \"#utility.yul\":24207:24208   */\n      0x00\n        /* \"#utility.yul\":24196:24205   */\n      dup4\n        /* \"#utility.yul\":24192:24209   */\n      add\n        /* \"#utility.yul\":24185:24232   */\n      mstore\n        /* \"#utility.yul\":24249:24380   */\n      tag_558\n        /* \"#utility.yul\":24375:24379   */\n      dup2\n        /* \"#utility.yul\":24249:24380   */\n      tag_339\n      jump\t// in\n    tag_558:\n        /* \"#utility.yul\":24241:24380   */\n      swap1\n      pop\n        /* \"#utility.yul\":23968:24387   */\n      swap2\n      swap1\n      pop\n      jump\t// out\n        /* \"#utility.yul\":24393:24549   */\n    tag_340:\n        /* \"#utility.yul\":24533:24541   */\n      0x646f6e6174650000000000000000000000000000000000000000000000000000\n        /* \"#utility.yul\":24529:24530   */\n      0x00\n        /* \"#utility.yul\":24521:24527   */\n      dup3\n        /* \"#utility.yul\":24517:24531   */\n      add\n        /* \"#utility.yul\":24510:24542   */\n      mstore\n        /* \"#utility.yul\":24393:24549   */\n      pop\n      jump\t// out\n        /* \"#utility.yul\":24555:24920   */\n    tag_341:\n        /* \"#utility.yul\":24697:24700   */\n      0x00\n        /* \"#utility.yul\":24718:24784   */\n      tag_561\n        /* \"#utility.yul\":24782:24783   */\n      0x06\n        /* \"#utility.yul\":24777:24780   */\n      dup4\n        /* \"#utility.yul\":24718:24784   */\n      tag_302\n      jump\t// in\n    tag_561:\n        /* \"#utility.yul\":24711:24784   */\n      swap2\n      pop\n        /* \"#utility.yul\":24793:24886   */\n      tag_562\n        /* \"#utility.yul\":24882:24885   */\n      dup3\n        /* \"#utility.yul\":24793:24886   */\n      tag_340\n      jump\t// in\n    tag_562:\n        /* \"#utility.yul\":24911:24913   */\n      0x20\n        /* \"#utility.yul\":24906:24909   */\n      dup3\n        /* \"#utility.yul\":24902:24914   */\n      add\n        /* \"#utility.yul\":24895:24914   */\n      swap1\n      pop\n        /* \"#utility.yul\":24555:24920   */\n      swap2\n      swap1\n      pop\n      jump\t// out\n        /* \"#utility.yul\":24926:25767   */\n    tag_196:\n        /* \"#utility.yul\":25196:25200   */\n      0x00\n        /* \"#utility.yul\":25234:25237   */\n      0x80\n        /* \"#utility.yul\":25223:25232   */\n      dup3\n        /* \"#utility.yul\":25219:25238   */\n      add\n        /* \"#utility.yul\":25211:25238   */\n      swap1\n      pop\n        /* \"#utility.yul\":25284:25293   */\n      dup2\n        /* \"#utility.yul\":25278:25282   */\n      dup2\n        /* \"#utility.yul\":25274:25294   */\n      sub\n        /* \"#utility.yul\":25270:25271   */\n      0x00\n        /* \"#utility.yul\":25259:25268   */\n      dup4\n        /* \"#utility.yul\":25255:25272   */\n      add\n        /* \"#utility.yul\":25248:25295   */\n      mstore\n        /* \"#utility.yul\":25312:25443   */\n      tag_564\n        /* \"#utility.yul\":25438:25442   */\n      dup2\n        /* \"#utility.yul\":25312:25443   */\n      tag_341\n      jump\t// in\n    tag_564:\n        /* \"#utility.yul\":25304:25443   */\n      swap1\n      pop\n        /* \"#utility.yul\":25453:25525   */\n      tag_565\n        /* \"#utility.yul\":25521:25523   */\n      0x20\n        /* \"#utility.yul\":25510:25519   */\n      dup4\n        /* \"#utility.yul\":25506:25524   */\n      add\n        /* \"#utility.yul\":25497:25503   */\n      dup7\n        /* \"#utility.yul\":25453:25525   */\n      tag_293\n      jump\t// in\n    tag_565:\n        /* \"#utility.yul\":25572:25581   */\n      dup2\n        /* \"#utility.yul\":25566:25570   */\n      dup2\n        /* \"#utility.yul\":25562:25582   */\n      sub\n        /* \"#utility.yul\":25557:25559   */\n      0x40\n        /* \"#utility.yul\":25546:25555   */\n      dup4\n        /* \"#utility.yul\":25542:25560   */\n      add\n        /* \"#utility.yul\":25535:25583   */\n      mstore\n        /* \"#utility.yul\":25600:25678   */\n      tag_566\n        /* \"#utility.yul\":25673:25677   */\n      dup2\n        /* \"#utility.yul\":25664:25670   */\n      dup6\n        /* \"#utility.yul\":25600:25678   */\n      tag_311\n      jump\t// in\n    tag_566:\n        /* \"#utility.yul\":25592:25678   */\n      swap1\n      pop\n        /* \"#utility.yul\":25688:25760   */\n      tag_567\n        /* \"#utility.yul\":25756:25758   */\n      0x60\n        /* \"#utility.yul\":25745:25754   */\n      dup4\n        /* \"#utility.yul\":25741:25759   */\n      add\n        /* \"#utility.yul\":25732:25738   */\n      dup5\n        /* \"#utility.yul\":25688:25760   */\n      tag_301\n      jump\t// in\n    tag_567:\n        /* \"#utility.yul\":24926:25767   */\n      swap5\n      swap4\n      pop\n      pop\n      pop\n      pop\n      jump\t// out\n        /* \"#utility.yul\":25773:25975   */\n    tag_342:\n        /* \"#utility.yul\":25942:25968   */\n      0x206973206d696e696d756d2076616c756520696e204144540000000000000000\n        /* \"#utility.yul\":25937:25940   */\n      dup2\n        /* \"#utility.yul\":25930:25969   */\n      mstore\n        /* \"#utility.yul\":25773:25975   */\n      pop\n      jump\t// out\n        /* \"#utility.yul\":25981:26523   */\n    tag_213:\n        /* \"#utility.yul\":26204:26207   */\n      0x00\n        /* \"#utility.yul\":26226:26321   */\n      tag_570\n        /* \"#utility.yul\":26317:26320   */\n      dup3\n        /* \"#utility.yul\":26308:26314   */\n      dup5\n        /* \"#utility.yul\":26226:26321   */\n      tag_308\n      jump\t// in\n    tag_570:\n        /* \"#utility.yul\":26219:26321   */\n      swap2\n      pop\n        /* \"#utility.yul\":26331:26469   */\n      tag_571\n        /* \"#utility.yul\":26465:26468   */\n      dup3\n        /* \"#utility.yul\":26331:26469   */\n      tag_342\n      jump\t// in\n    tag_571:\n        /* \"#utility.yul\":26494:26496   */\n      0x18\n        /* \"#utility.yul\":26489:26492   */\n      dup3\n        /* \"#utility.yul\":26485:26497   */\n      add\n        /* \"#utility.yul\":26478:26497   */\n      swap2\n      pop\n        /* \"#utility.yul\":26514:26517   */\n      dup2\n        /* \"#utility.yul\":26507:26517   */\n      swap1\n      pop\n        /* \"#utility.yul\":25981:26523   */\n      swap3\n      swap2\n      pop\n      pop\n      jump\t// out\n        /* \"#utility.yul\":26529:26971   */\n    tag_220:\n        /* \"#utility.yul\":26678:26682   */\n      0x00\n        /* \"#utility.yul\":26716:26718   */\n      0x60\n        /* \"#utility.yul\":26705:26714   */\n      dup3\n        /* \"#utility.yul\":26701:26719   */\n      add\n        /* \"#utility.yul\":26693:26719   */\n      swap1\n      pop\n        /* \"#utility.yul\":26729:26800   */\n      tag_573\n        /* \"#utility.yul\":26797:26798   */\n      0x00\n        /* \"#utility.yul\":26786:26795   */\n      dup4\n        /* \"#utility.yul\":26782:26799   */\n      add\n        /* \"#utility.yul\":26773:26779   */\n      dup7\n        /* \"#utility.yul\":26729:26800   */\n      tag_301\n      jump\t// in\n    tag_573:\n        /* \"#utility.yul\":26810:26882   */\n      tag_574\n        /* \"#utility.yul\":26878:26880   */\n      0x20\n        /* \"#utility.yul\":26867:26876   */\n      dup4\n        /* \"#utility.yul\":26863:26881   */\n      add\n        /* \"#utility.yul\":26854:26860   */\n      dup6\n        /* \"#utility.yul\":26810:26882   */\n      tag_301\n      jump\t// in\n    tag_574:\n        /* \"#utility.yul\":26892:26964   */\n      tag_575\n        /* \"#utility.yul\":26960:26962   */\n      0x40\n        /* \"#utility.yul\":26949:26958   */\n      dup4\n        /* \"#utility.yul\":26945:26963   */\n      add\n        /* \"#utility.yul\":26936:26942   */\n      dup5\n        /* \"#utility.yul\":26892:26964   */\n      tag_293\n      jump\t// in\n    tag_575:\n        /* \"#utility.yul\":26529:26971   */\n      swap5\n      swap4\n      pop\n      pop\n      pop\n      pop\n      jump\t// out\n        /* \"#utility.yul\":26977:27157   */\n    tag_240:\n        /* \"#utility.yul\":27025:27102   */\n      0x4e487b7100000000000000000000000000000000000000000000000000000000\n        /* \"#utility.yul\":27022:27023   */\n      0x00\n        /* \"#utility.yul\":27015:27103   */\n      mstore\n        /* \"#utility.yul\":27122:27126   */\n      0x12\n        /* \"#utility.yul\":27119:27120   */\n      0x04\n        /* \"#utility.yul\":27112:27127   */\n      mstore\n        /* \"#utility.yul\":27146:27150   */\n      0x24\n        /* \"#utility.yul\":27143:27144   */\n      0x00\n        /* \"#utility.yul\":27136:27151   */\n      revert\n        /* \"#utility.yul\":27163:27343   */\n    tag_250:\n        /* \"#utility.yul\":27211:27288   */\n      0x4e487b7100000000000000000000000000000000000000000000000000000000\n        /* \"#utility.yul\":27208:27209   */\n      0x00\n        /* \"#utility.yul\":27201:27289   */\n      mstore\n        /* \"#utility.yul\":27308:27312   */\n      0x32\n        /* \"#utility.yul\":27305:27306   */\n      0x04\n        /* \"#utility.yul\":27298:27313   */\n      mstore\n        /* \"#utility.yul\":27332:27336   */\n      0x24\n        /* \"#utility.yul\":27329:27330   */\n      0x00\n        /* \"#utility.yul\":27322:27337   */\n      revert\n\n    auxdata: 0xa2646970667358221220c1de7623f043c855cbfc052aa342677871352b48a4ffcefce7cad69cafc8f66f64736f6c634300081a0033\n}\n",
				"bytecode": {
					"linkReferences": {},
					"object": "60a060405234801561000f575f80fd5b50604051612e50380380612e50833981810160405281019061003191906104f9565b335f806101000a81548173ffffffffffffffffffffffffffffffffffffffff021916908373ffffffffffffffffffffffffffffffffffffffff16021790555061008a600167ffffffffffffffff1661015960201b60201c565b61012c6008819055505f3390508060095f6101000a81548173ffffffffffffffffffffffffffffffffffffffff021916908373ffffffffffffffffffffffffffffffffffffffff16021790555033600a5f6101000a81548173ffffffffffffffffffffffffffffffffffffffff021916908373ffffffffffffffffffffffffffffffffffffffff16021790555042600b819055508173ffffffffffffffffffffffffffffffffffffffff1660808173ffffffffffffffffffffffffffffffffffffffff16815250505050610741565b5f8054906101000a900473ffffffffffffffffffffffffffffffffffffffff1673ffffffffffffffffffffffffffffffffffffffff163373ffffffffffffffffffffffffffffffffffffffff16146101e6576040517f08c379a00000000000000000000000000000000000000000000000000000000081526004016101dd9061057e565b60405180910390fd5b600167ffffffffffffffff1681101561020f600167ffffffffffffffff1661027a60201b60201c565b60405160200161021f919061065e565b6040516020818303038152906040529061026f576040517f08c379a000000000000000000000000000000000000000000000000000000000815260040161026691906106c7565b60405180910390fd5b508060078190555050565b60605f600161028e8461034a60201b60201c565b0190505f8167ffffffffffffffff8111156102ac576102ab6106e7565b5b6040519080825280601f01601f1916602001820160405280156102de5781602001600182028036833780820191505090505b5090505f82602001820190505b60011561033f578080600190039150507f3031323334353637383961626364656600000000000000000000000000000000600a86061a8153600a858161033457610333610714565b5b0494505f85036102eb575b819350505050919050565b5f805f90507a184f03e93ff9f4daa797ed6e38ed64bf6a1f01000000000000000083106103a6577a184f03e93ff9f4daa797ed6e38ed64bf6a1f010000000000000000838161039c5761039b610714565b5b0492506040810190505b6d04ee2d6d415b85acef810000000083106103e3576d04ee2d6d415b85acef810000000083816103d9576103d8610714565b5b0492506020810190505b662386f26fc10000831061041257662386f26fc10000838161040857610407610714565b5b0492506010810190505b6305f5e100831061043b576305f5e100838161043157610430610714565b5b0492506008810190505b612710831061046057612710838161045657610455610714565b5b0492506004810190505b60648310610483576064838161047957610478610714565b5b0492506002810190505b600a8310610492576001810190505b80915050919050565b5f80fd5b5f73ffffffffffffffffffffffffffffffffffffffff82169050919050565b5f6104c88261049f565b9050919050565b6104d8816104be565b81146104e2575f80fd5b50565b5f815190506104f3816104cf565b92915050565b5f6020828403121561050e5761050d61049b565b5b5f61051b848285016104e5565b91505092915050565b5f82825260208201905092915050565b7f43616c6c6572206973206e6f74206f776e6572000000000000000000000000005f82015250565b5f610568601383610524565b915061057382610534565b602082019050919050565b5f6020820190508181035f8301526105958161055c565b9050919050565b5f81519050919050565b5f81905092915050565b8281835e5f83830152505050565b5f6105c88261059c565b6105d281856105a6565b93506105e28185602086016105b0565b80840191505092915050565b7f206973206d696e696d756d2076616c756520746f20736574206c6f77657220645f8201527f6f6e6174696f6e00000000000000000000000000000000000000000000000000602082015250565b5f6106486027836105a6565b9150610653826105ee565b602782019050919050565b5f61066982846105be565b91506106748261063c565b915081905092915050565b5f601f19601f8301169050919050565b5f6106998261059c565b6106a38185610524565b93506106b38185602086016105b0565b6106bc8161067f565b840191505092915050565b5f6020820190508181035f8301526106df818461068f565b905092915050565b7f4e487b71000000000000000000000000000000000000000000000000000000005f52604160045260245ffd5b7f4e487b71000000000000000000000000000000000000000000000000000000005f52601260045260245ffd5b6080516126f06107605f395f8181610ecc015261150a01526126f05ff3fe6080604052600436106100c1575f3560e01c8063811d36e91161007e578063cf7d6f0411610058578063cf7d6f0414610247578063ed88c68e1461025d578063ef4fdda214610267578063fa7b8305146102a3576100c1565b8063811d36e9146101cd578063c12cfa63146101f5578063c23484911461021f576100c1565b8063195199f6146100c55780631e09c9ca146100ed5780633ccfd60b14610115578063528a28b71461012b57806355da68b3146101555780636e69612614610191575b5f80fd5b3480156100d0575f80fd5b506100eb60048036038101906100e69190611a2d565b6102cb565b005b3480156100f8575f80fd5b50610113600480360381019061010e9190611a2d565b610362565b005b348015610120575f80fd5b5061012961047d565b005b348015610136575f80fd5b5061013f61074e565b60405161014c9190611a72565b60405180910390f35b348015610160575f80fd5b5061017b60048036038101906101769190611c21565b610767565b6040516101889190611c8a565b60405180910390f35b34801561019c575f80fd5b506101b760048036038101906101b29190611ca3565b61093c565b6040516101c49190611da1565b60405180910390f35b3480156101d8575f80fd5b506101f360048036038101906101ee9190611dc1565b610b9d565b005b348015610200575f80fd5b50610209610c6d565b6040516102169190611dfb565b60405180910390f35b34801561022a575f80fd5b5061024560048036038101906102409190611dc1565b610c94565b005b348015610252575f80fd5b5061025b610d64565b005b610265611067565b005b348015610272575f80fd5b5061028d60048036038101906102889190611ca3565b6112f0565b60405161029a9190611c8a565b60405180910390f35b3480156102ae575f80fd5b506102c960048036038101906102c49190611a2d565b61144e565b005b5f8054906101000a900473ffffffffffffffffffffffffffffffffffffffff1673ffffffffffffffffffffffffffffffffffffffff163373ffffffffffffffffffffffffffffffffffffffff1614610358576040517f08c379a000000000000000000000000000000000000000000000000000000000815260040161034f90611e6e565b60405180910390fd5b8060088190555050565b5f8054906101000a900473ffffffffffffffffffffffffffffffffffffffff1673ffffffffffffffffffffffffffffffffffffffff163373ffffffffffffffffffffffffffffffffffffffff16146103ef576040517f08c379a00000000000000000000000000000000000000000000000000000000081526004016103e690611e6e565b60405180910390fd5b600167ffffffffffffffff16811015610412600167ffffffffffffffff16611729565b6040516020016104229190611f4e565b60405160208183030381529060405290610472576040517f08c379a00000000000000000000000000000000000000000000000000000000081526004016104699190611fa7565b60405180910390fd5b508060078190555050565b600a5f9054906101000a900473ffffffffffffffffffffffffffffffffffffffff1673ffffffffffffffffffffffffffffffffffffffff163373ffffffffffffffffffffffffffffffffffffffff161461050c576040517f08c379a000000000000000000000000000000000000000000000000000000000815260040161050390612011565b60405180910390fd5b5f73ffffffffffffffffffffffffffffffffffffffff1660095f9054906101000a900473ffffffffffffffffffffffffffffffffffffffff1673ffffffffffffffffffffffffffffffffffffffff160361059b576040517f08c379a000000000000000000000000000000000000000000000000000000000815260040161059290612079565b60405180910390fd5b6105a361074e565b6105e2576040517f08c379a00000000000000000000000000000000000000000000000000000000081526004016105d9906120e1565b60405180910390fd5b5f4790505f8060095f9054906101000a900473ffffffffffffffffffffffffffffffffffffffff1673ffffffffffffffffffffffffffffffffffffffff168360405161062d9061212c565b5f6040518083038185875af1925050503d805f8114610667576040519150601f19603f3d011682016040523d82523d5f602084013e61066c565b606091505b5091509150816106b1576040517f08c379a00000000000000000000000000000000000000000000000000000000081526004016106a89061218a565b60405180910390fd5b5f6005819055507f04a451432327cde4eba7a5cb53d98b0f209ea7c64f931ecebe3986a1e4468bdd836040518060400160405280600381526020017f455448000000000000000000000000000000000000000000000000000000000081525060095f9054906101000a900473ffffffffffffffffffffffffffffffffffffffff166040516107419392919061224d565b60405180910390a1505050565b5f600854600b5461075f91906122c9565b421015905090565b5f816107818160405180602001604052805f8152506117f3565b806107c757506107c6816040518060400160405280600381526020017f41445400000000000000000000000000000000000000000000000000000000008152506117f3565b5b8061080d575061080c816040518060400160405280600381526020017f45544800000000000000000000000000000000000000000000000000000000008152506117f3565b5b61084c576040517f08c379a000000000000000000000000000000000000000000000000000000000815260040161084390612346565b60405180910390fd5b61088b836040518060400160405280600381526020017f45544800000000000000000000000000000000000000000000000000000000008152506117f3565b806108aa57506108a98360405180602001604052805f8152506117f3565b5b156108f45760015f8573ffffffffffffffffffffffffffffffffffffffff1673ffffffffffffffffffffffffffffffffffffffff1681526020019081526020015f20549150610935565b60025f8573ffffffffffffffffffffffffffffffffffffffff1673ffffffffffffffffffffffffffffffffffffffff1681526020019081526020015f205491505b5092915050565b6060816109578160405180602001604052805f8152506117f3565b8061099d575061099c816040518060400160405280600381526020017f41445400000000000000000000000000000000000000000000000000000000008152506117f3565b5b806109e357506109e2816040518060400160405280600381526020017f45544800000000000000000000000000000000000000000000000000000000008152506117f3565b5b610a22576040517f08c379a0000000000000000000000000000000000000000000000000000000008152600401610a1990612346565b60405180910390fd5b610a61836040518060400160405280600381526020017f45544800000000000000000000000000000000000000000000000000000000008152506117f3565b80610a805750610a7f8360405180602001604052805f8152506117f3565b5b15610b10576003805480602002602001604051908101604052809291908181526020018280548015610b0457602002820191905f5260205f20905b815f9054906101000a900473ffffffffffffffffffffffffffffffffffffffff1673ffffffffffffffffffffffffffffffffffffffff1681526020019060010190808311610abb575b50505050509150610b97565b6004805480602002602001604051908101604052809291908181526020018280548015610b8f57602002820191905f5260205f20905b815f9054906101000a900473ffffffffffffffffffffffffffffffffffffffff1673ffffffffffffffffffffffffffffffffffffffff1681526020019060010190808311610b46575b505050505091505b50919050565b5f8054906101000a900473ffffffffffffffffffffffffffffffffffffffff1673ffffffffffffffffffffffffffffffffffffffff163373ffffffffffffffffffffffffffffffffffffffff1614610c2a576040517f08c379a0000000000000000000000000000000000000000000000000000000008152600401610c2190611e6e565b60405180910390fd5b80600a5f6101000a81548173ffffffffffffffffffffffffffffffffffffffff021916908373ffffffffffffffffffffffffffffffffffffffff16021790555050565b5f805f9054906101000a900473ffffffffffffffffffffffffffffffffffffffff16905090565b5f8054906101000a900473ffffffffffffffffffffffffffffffffffffffff1673ffffffffffffffffffffffffffffffffffffffff163373ffffffffffffffffffffffffffffffffffffffff1614610d21576040517f08c379a0000000000000000000000000000000000000000000000000000000008152600401610d1890611e6e565b60405180910390fd5b8060095f6101000a81548173ffffffffffffffffffffffffffffffffffffffff021916908373ffffffffffffffffffffffffffffffffffffffff16021790555050565b600a5f9054906101000a900473ffffffffffffffffffffffffffffffffffffffff1673ffffffffffffffffffffffffffffffffffffffff163373ffffffffffffffffffffffffffffffffffffffff1614610df3576040517f08c379a0000000000000000000000000000000000000000000000000000000008152600401610dea90612011565b60405180910390fd5b5f73ffffffffffffffffffffffffffffffffffffffff1660095f9054906101000a900473ffffffffffffffffffffffffffffffffffffffff1673ffffffffffffffffffffffffffffffffffffffff1603610e82576040517f08c379a0000000000000000000000000000000000000000000000000000000008152600401610e7990612079565b60405180910390fd5b610e8a61074e565b610ec9576040517f08c379a0000000000000000000000000000000000000000000000000000000008152600401610ec0906120e1565b60405180910390fd5b5f7f000000000000000000000000000000000000000000000000000000000000000073ffffffffffffffffffffffffffffffffffffffff1663a9059cbb60095f9054906101000a900473ffffffffffffffffffffffffffffffffffffffff166006546040518363ffffffff1660e01b8152600401610f48929190612364565b6020604051808303815f875af1158015610f64573d5f803e3d5ffd5b505050506040513d601f19601f82011682018060405250810190610f8891906123b5565b905080610fca576040517f08c379a0000000000000000000000000000000000000000000000000000000008152600401610fc190612450565b60405180910390fd5b5f6006819055507f04a451432327cde4eba7a5cb53d98b0f209ea7c64f931ecebe3986a1e4468bdd6006546040518060400160405280600381526020017f455448000000000000000000000000000000000000000000000000000000000081525060095f9054906101000a900473ffffffffffffffffffffffffffffffffffffffff1660405161105c9392919061224d565b60405180910390a150565b600754341015611078600754611729565b6040516020016110889190612494565b604051602081830303815290604052906110d8576040517f08c379a00000000000000000000000000000000000000000000000000000000081526004016110cf9190611fa7565b60405180910390fd5b506110e161074e565b15611121576040517f08c379a000000000000000000000000000000000000000000000000000000000815260040161111890612529565b60405180910390fd5b3460015f3373ffffffffffffffffffffffffffffffffffffffff1673ffffffffffffffffffffffffffffffffffffffff1681526020019081526020015f205f82825461116d91906122c9565b9250508190555061120160038054806020026020016040519081016040528092919081815260200182805480156111f657602002820191905f5260205f20905b815f9054906101000a900473ffffffffffffffffffffffffffffffffffffffff1673ffffffffffffffffffffffffffffffffffffffff16815260200190600101908083116111ad575b50505050503361181a565b61126657600333908060018154018082558091505060019003905f5260205f20015f9091909190916101000a81548173ffffffffffffffffffffffffffffffffffffffff021916908373ffffffffffffffffffffffffffffffffffffffff1602179055505b3460055f82825461127791906122c9565b925050819055507f04a451432327cde4eba7a5cb53d98b0f209ea7c64f931ecebe3986a1e4468bdd346040518060400160405280600381526020017f4554480000000000000000000000000000000000000000000000000000000000815250336040516112e693929190612591565b60405180910390a1565b5f8161130a8160405180602001604052805f8152506117f3565b80611350575061134f816040518060400160405280600381526020017f41445400000000000000000000000000000000000000000000000000000000008152506117f3565b5b806113965750611395816040518060400160405280600381526020017f45544800000000000000000000000000000000000000000000000000000000008152506117f3565b5b6113d5576040517f08c379a00000000000000000000000000000000000000000000000000000000081526004016113cc90612346565b60405180910390fd5b611414836040518060400160405280600381526020017f45544800000000000000000000000000000000000000000000000000000000008152506117f3565b8061143357506114328360405180602001604052805f8152506117f3565b5b15611442576005549150611448565b60065491505b50919050565b60075481101561145f600754611729565b60405160200161146f9190612606565b604051602081830303815290604052906114bf576040517f08c379a00000000000000000000000000000000000000000000000000000000081526004016114b69190611fa7565b60405180910390fd5b506114c861074e565b15611508576040517f08c379a00000000000000000000000000000000000000000000000000000000081526004016114ff90612529565b60405180910390fd5b7f000000000000000000000000000000000000000000000000000000000000000073ffffffffffffffffffffffffffffffffffffffff166323b872dd3330846040518463ffffffff1660e01b81526004016115659392919061262b565b6020604051808303815f875af1158015611581573d5f803e3d5ffd5b505050506040513d601f19601f820116820180604052508101906115a591906123b5565b508060025f3373ffffffffffffffffffffffffffffffffffffffff1673ffffffffffffffffffffffffffffffffffffffff1681526020019081526020015f205f8282546115f291906122c9565b925050819055505f60025f3373ffffffffffffffffffffffffffffffffffffffff1673ffffffffffffffffffffffffffffffffffffffff1681526020019081526020015f20540361169e57600433908060018154018082558091505060019003905f5260205f20015f9091909190916101000a81548173ffffffffffffffffffffffffffffffffffffffff021916908373ffffffffffffffffffffffffffffffffffffffff1602179055505b8060065f8282546116af91906122c9565b925050819055507f04a451432327cde4eba7a5cb53d98b0f209ea7c64f931ecebe3986a1e4468bdd816040518060400160405280600381526020017f41445400000000000000000000000000000000000000000000000000000000008152503360405161171e93929190612591565b60405180910390a150565b60605f600161173784611898565b0190505f8167ffffffffffffffff81111561175557611754611afd565b5b6040519080825280601f01601f1916602001820160405280156117875781602001600182028036833780820191505090505b5090505f82602001820190505b6001156117e8578080600190039150507f3031323334353637383961626364656600000000000000000000000000000000600a86061a8153600a85816117dd576117dc612660565b5b0494505f8503611794575b819350505050919050565b5f81518351148015611812575081805190602001208380519060200120145b905092915050565b5f805f90505b835181101561188d578273ffffffffffffffffffffffffffffffffffffffff168482815181106118535761185261268d565b5b602002602001015173ffffffffffffffffffffffffffffffffffffffff1603611880576001915050611892565b8080600101915050611820565b505f90505b92915050565b5f805f90507a184f03e93ff9f4daa797ed6e38ed64bf6a1f01000000000000000083106118f4577a184f03e93ff9f4daa797ed6e38ed64bf6a1f01000000000000000083816118ea576118e9612660565b5b0492506040810190505b6d04ee2d6d415b85acef81000000008310611931576d04ee2d6d415b85acef8100000000838161192757611926612660565b5b0492506020810190505b662386f26fc10000831061196057662386f26fc10000838161195657611955612660565b5b0492506010810190505b6305f5e1008310611989576305f5e100838161197f5761197e612660565b5b0492506008810190505b61271083106119ae5761271083816119a4576119a3612660565b5b0492506004810190505b606483106119d157606483816119c7576119c6612660565b5b0492506002810190505b600a83106119e0576001810190505b80915050919050565b5f604051905090565b5f80fd5b5f80fd5b5f819050919050565b611a0c816119fa565b8114611a16575f80fd5b50565b5f81359050611a2781611a03565b92915050565b5f60208284031215611a4257611a416119f2565b5b5f611a4f84828501611a19565b91505092915050565b5f8115159050919050565b611a6c81611a58565b82525050565b5f602082019050611a855f830184611a63565b92915050565b5f73ffffffffffffffffffffffffffffffffffffffff82169050919050565b5f611ab482611a8b565b9050919050565b611ac481611aaa565b8114611ace575f80fd5b50565b5f81359050611adf81611abb565b92915050565b5f80fd5b5f80fd5b5f601f19601f8301169050919050565b7f4e487b71000000000000000000000000000000000000000000000000000000005f52604160045260245ffd5b611b3382611aed565b810181811067ffffffffffffffff82111715611b5257611b51611afd565b5b80604052505050565b5f611b646119e9565b9050611b708282611b2a565b919050565b5f67ffffffffffffffff821115611b8f57611b8e611afd565b5b611b9882611aed565b9050602081019050919050565b828183375f83830152505050565b5f611bc5611bc084611b75565b611b5b565b905082815260208101848484011115611be157611be0611ae9565b5b611bec848285611ba5565b509392505050565b5f82601f830112611c0857611c07611ae5565b5b8135611c18848260208601611bb3565b91505092915050565b5f8060408385031215611c3757611c366119f2565b5b5f611c4485828601611ad1565b925050602083013567ffffffffffffffff811115611c6557611c646119f6565b5b611c7185828601611bf4565b9150509250929050565b611c84816119fa565b82525050565b5f602082019050611c9d5f830184611c7b565b92915050565b5f60208284031215611cb857611cb76119f2565b5b5f82013567ffffffffffffffff811115611cd557611cd46119f6565b5b611ce184828501611bf4565b91505092915050565b5f81519050919050565b5f82825260208201905092915050565b5f819050602082019050919050565b611d1c81611aaa565b82525050565b5f611d2d8383611d13565b60208301905092915050565b5f602082019050919050565b5f611d4f82611cea565b611d598185611cf4565b9350611d6483611d04565b805f5b83811015611d94578151611d7b8882611d22565b9750611d8683611d39565b925050600181019050611d67565b5085935050505092915050565b5f6020820190508181035f830152611db98184611d45565b905092915050565b5f60208284031215611dd657611dd56119f2565b5b5f611de384828501611ad1565b91505092915050565b611df581611aaa565b82525050565b5f602082019050611e0e5f830184611dec565b92915050565b5f82825260208201905092915050565b7f43616c6c6572206973206e6f74206f776e6572000000000000000000000000005f82015250565b5f611e58601383611e14565b9150611e6382611e24565b602082019050919050565b5f6020820190508181035f830152611e8581611e4c565b9050919050565b5f81519050919050565b5f81905092915050565b8281835e5f83830152505050565b5f611eb882611e8c565b611ec28185611e96565b9350611ed2818560208601611ea0565b80840191505092915050565b7f206973206d696e696d756d2076616c756520746f20736574206c6f77657220645f8201527f6f6e6174696f6e00000000000000000000000000000000000000000000000000602082015250565b5f611f38602783611e96565b9150611f4382611ede565b602782019050919050565b5f611f598284611eae565b9150611f6482611f2c565b915081905092915050565b5f611f7982611e8c565b611f838185611e14565b9350611f93818560208601611ea0565b611f9c81611aed565b840191505092915050565b5f6020820190508181035f830152611fbf8184611f6f565b905092915050565b7f416c6c6f776564206f6e6c7920666f7220726570726573656e746174697665005f82015250565b5f611ffb601f83611e14565b915061200682611fc7565b602082019050919050565b5f6020820190508181035f83015261202881611fef565b9050919050565b7f44657374696e6174696f6e2061646472206973206e6f742073657400000000005f82015250565b5f612063601b83611e14565b915061206e8261202f565b602082019050919050565b5f6020820190508181035f83015261209081612057565b9050919050565b7f4973206e6f7420646561646c696e6520796574000000000000000000000000005f82015250565b5f6120cb601383611e14565b91506120d682612097565b602082019050919050565b5f6020820190508181035f8301526120f8816120bf565b9050919050565b5f81905092915050565b50565b5f6121175f836120ff565b915061212282612109565b5f82019050919050565b5f6121368261210c565b9150819050919050565b7f4661696c656420746f2073656e6420646f6e6174696f6e7300000000000000005f82015250565b5f612174601883611e14565b915061217f82612140565b602082019050919050565b5f6020820190508181035f8301526121a181612168565b9050919050565b7f776974686472617742616c616e636500000000000000000000000000000000005f82015250565b5f6121dc600f83611e14565b91506121e7826121a8565b602082019050919050565b5f819050919050565b5f61221561221061220b84611a8b565b6121f2565b611a8b565b9050919050565b5f612226826121fb565b9050919050565b5f6122378261221c565b9050919050565b6122478161222d565b82525050565b5f6080820190508181035f830152612264816121d0565b90506122736020830186611c7b565b81810360408301526122858185611f6f565b9050612294606083018461223e565b949350505050565b7f4e487b71000000000000000000000000000000000000000000000000000000005f52601160045260245ffd5b5f6122d3826119fa565b91506122de836119fa565b92508282019050808211156122f6576122f561229c565b5b92915050565b7f496e76616c69642063757272656e6379000000000000000000000000000000005f82015250565b5f612330601083611e14565b915061233b826122fc565b602082019050919050565b5f6020820190508181035f83015261235d81612324565b9050919050565b5f6040820190506123775f83018561223e565b6123846020830184611c7b565b9392505050565b61239481611a58565b811461239e575f80fd5b50565b5f815190506123af8161238b565b92915050565b5f602082840312156123ca576123c96119f2565b5b5f6123d7848285016123a1565b91505092915050565b7f4661696c656420746f207472616e6665722041445420746f2064657374696e615f8201527f74696f6e20616464726573730000000000000000000000000000000000000000602082015250565b5f61243a602c83611e14565b9150612445826123e0565b604082019050919050565b5f6020820190508181035f8301526124678161242e565b9050919050565b7f206973206d696e696d756d2076616c7565000000000000000000000000000000815250565b5f61249f8284611eae565b91506124aa8261246e565b60118201915081905092915050565b7f446f6e6174696f6e206e6f7420616c6c6f77656420616674657220646561646c5f8201527f696e650000000000000000000000000000000000000000000000000000000000602082015250565b5f612513602383611e14565b915061251e826124b9565b604082019050919050565b5f6020820190508181035f83015261254081612507565b9050919050565b7f646f6e61746500000000000000000000000000000000000000000000000000005f82015250565b5f61257b600683611e14565b915061258682612547565b602082019050919050565b5f6080820190508181035f8301526125a88161256f565b90506125b76020830186611c7b565b81810360408301526125c98185611f6f565b90506125d86060830184611dec565b949350505050565b7f206973206d696e696d756d2076616c756520696e204144540000000000000000815250565b5f6126118284611eae565b915061261c826125e0565b60188201915081905092915050565b5f60608201905061263e5f830186611dec565b61264b6020830185611dec565b6126586040830184611c7b565b949350505050565b7f4e487b71000000000000000000000000000000000000000000000000000000005f52601260045260245ffd5b7f4e487b71000000000000000000000000000000000000000000000000000000005f52603260045260245ffdfea2646970667358221220c1de7623f043c855cbfc052aa342677871352b48a4ffcefce7cad69cafc8f66f64736f6c634300081a0033",
					"opcodes": "PUSH1 0xA0 PUSH1 0x40 MSTORE CALLVALUE DUP1 ISZERO PUSH2 0xF JUMPI PUSH0 DUP1 REVERT JUMPDEST POP PUSH1 0x40 MLOAD PUSH2 0x2E50 CODESIZE SUB DUP1 PUSH2 0x2E50 DUP4 CODECOPY DUP2 DUP2 ADD PUSH1 0x40 MSTORE DUP2 ADD SWAP1 PUSH2 0x31 SWAP2 SWAP1 PUSH2 0x4F9 JUMP JUMPDEST CALLER PUSH0 DUP1 PUSH2 0x100 EXP DUP2 SLOAD DUP2 PUSH20 0xFFFFFFFFFFFFFFFFFFFFFFFFFFFFFFFFFFFFFFFF MUL NOT AND SWAP1 DUP4 PUSH20 0xFFFFFFFFFFFFFFFFFFFFFFFFFFFFFFFFFFFFFFFF AND MUL OR SWAP1 SSTORE POP PUSH2 0x8A PUSH1 0x1 PUSH8 0xFFFFFFFFFFFFFFFF AND PUSH2 0x159 PUSH1 0x20 SHL PUSH1 0x20 SHR JUMP JUMPDEST PUSH2 0x12C PUSH1 0x8 DUP2 SWAP1 SSTORE POP PUSH0 CALLER SWAP1 POP DUP1 PUSH1 0x9 PUSH0 PUSH2 0x100 EXP DUP2 SLOAD DUP2 PUSH20 0xFFFFFFFFFFFFFFFFFFFFFFFFFFFFFFFFFFFFFFFF MUL NOT AND SWAP1 DUP4 PUSH20 0xFFFFFFFFFFFFFFFFFFFFFFFFFFFFFFFFFFFFFFFF AND MUL OR SWAP1 SSTORE POP CALLER PUSH1 0xA PUSH0 PUSH2 0x100 EXP DUP2 SLOAD DUP2 PUSH20 0xFFFFFFFFFFFFFFFFFFFFFFFFFFFFFFFFFFFFFFFF MUL NOT AND SWAP1 DUP4 PUSH20 0xFFFFFFFFFFFFFFFFFFFFFFFFFFFFFFFFFFFFFFFF AND MUL OR SWAP1 SSTORE POP TIMESTAMP PUSH1 0xB DUP2 SWAP1 SSTORE POP DUP2 PUSH20 0xFFFFFFFFFFFFFFFFFFFFFFFFFFFFFFFFFFFFFFFF AND PUSH1 0x80 DUP2 PUSH20 0xFFFFFFFFFFFFFFFFFFFFFFFFFFFFFFFFFFFFFFFF AND DUP2 MSTORE POP POP POP POP PUSH2 0x741 JUMP JUMPDEST PUSH0 DUP1 SLOAD SWAP1 PUSH2 0x100 EXP SWAP1 DIV PUSH20 0xFFFFFFFFFFFFFFFFFFFFFFFFFFFFFFFFFFFFFFFF AND PUSH20 0xFFFFFFFFFFFFFFFFFFFFFFFFFFFFFFFFFFFFFFFF AND CALLER PUSH20 0xFFFFFFFFFFFFFFFFFFFFFFFFFFFFFFFFFFFFFFFF AND EQ PUSH2 0x1E6 JUMPI PUSH1 0x40 MLOAD PUSH32 0x8C379A000000000000000000000000000000000000000000000000000000000 DUP2 MSTORE PUSH1 0x4 ADD PUSH2 0x1DD SWAP1 PUSH2 0x57E JUMP JUMPDEST PUSH1 0x40 MLOAD DUP1 SWAP2 SUB SWAP1 REVERT JUMPDEST PUSH1 0x1 PUSH8 0xFFFFFFFFFFFFFFFF AND DUP2 LT ISZERO PUSH2 0x20F PUSH1 0x1 PUSH8 0xFFFFFFFFFFFFFFFF AND PUSH2 0x27A PUSH1 0x20 SHL PUSH1 0x20 SHR JUMP JUMPDEST PUSH1 0x40 MLOAD PUSH1 0x20 ADD PUSH2 0x21F SWAP2 SWAP1 PUSH2 0x65E JUMP JUMPDEST PUSH1 0x40 MLOAD PUSH1 0x20 DUP2 DUP4 SUB SUB DUP2 MSTORE SWAP1 PUSH1 0x40 MSTORE SWAP1 PUSH2 0x26F JUMPI PUSH1 0x40 MLOAD PUSH32 0x8C379A000000000000000000000000000000000000000000000000000000000 DUP2 MSTORE PUSH1 0x4 ADD PUSH2 0x266 SWAP2 SWAP1 PUSH2 0x6C7 JUMP JUMPDEST PUSH1 0x40 MLOAD DUP1 SWAP2 SUB SWAP1 REVERT JUMPDEST POP DUP1 PUSH1 0x7 DUP2 SWAP1 SSTORE POP POP JUMP JUMPDEST PUSH1 0x60 PUSH0 PUSH1 0x1 PUSH2 0x28E DUP5 PUSH2 0x34A PUSH1 0x20 SHL PUSH1 0x20 SHR JUMP JUMPDEST ADD SWAP1 POP PUSH0 DUP2 PUSH8 0xFFFFFFFFFFFFFFFF DUP2 GT ISZERO PUSH2 0x2AC JUMPI PUSH2 0x2AB PUSH2 0x6E7 JUMP JUMPDEST JUMPDEST PUSH1 0x40 MLOAD SWAP1 DUP1 DUP3 MSTORE DUP1 PUSH1 0x1F ADD PUSH1 0x1F NOT AND PUSH1 0x20 ADD DUP3 ADD PUSH1 0x40 MSTORE DUP1 ISZERO PUSH2 0x2DE JUMPI DUP2 PUSH1 0x20 ADD PUSH1 0x1 DUP3 MUL DUP1 CALLDATASIZE DUP4 CALLDATACOPY DUP1 DUP3 ADD SWAP2 POP POP SWAP1 POP JUMPDEST POP SWAP1 POP PUSH0 DUP3 PUSH1 0x20 ADD DUP3 ADD SWAP1 POP JUMPDEST PUSH1 0x1 ISZERO PUSH2 0x33F JUMPI DUP1 DUP1 PUSH1 0x1 SWAP1 SUB SWAP2 POP POP PUSH32 0x3031323334353637383961626364656600000000000000000000000000000000 PUSH1 0xA DUP7 MOD BYTE DUP2 MSTORE8 PUSH1 0xA DUP6 DUP2 PUSH2 0x334 JUMPI PUSH2 0x333 PUSH2 0x714 JUMP JUMPDEST JUMPDEST DIV SWAP5 POP PUSH0 DUP6 SUB PUSH2 0x2EB JUMPI JUMPDEST DUP2 SWAP4 POP POP POP POP SWAP2 SWAP1 POP JUMP JUMPDEST PUSH0 DUP1 PUSH0 SWAP1 POP PUSH27 0x184F03E93FF9F4DAA797ED6E38ED64BF6A1F010000000000000000 DUP4 LT PUSH2 0x3A6 JUMPI PUSH27 0x184F03E93FF9F4DAA797ED6E38ED64BF6A1F010000000000000000 DUP4 DUP2 PUSH2 0x39C JUMPI PUSH2 0x39B PUSH2 0x714 JUMP JUMPDEST JUMPDEST DIV SWAP3 POP PUSH1 0x40 DUP2 ADD SWAP1 POP JUMPDEST PUSH14 0x4EE2D6D415B85ACEF8100000000 DUP4 LT PUSH2 0x3E3 JUMPI PUSH14 0x4EE2D6D415B85ACEF8100000000 DUP4 DUP2 PUSH2 0x3D9 JUMPI PUSH2 0x3D8 PUSH2 0x714 JUMP JUMPDEST JUMPDEST DIV SWAP3 POP PUSH1 0x20 DUP2 ADD SWAP1 POP JUMPDEST PUSH7 0x2386F26FC10000 DUP4 LT PUSH2 0x412 JUMPI PUSH7 0x2386F26FC10000 DUP4 DUP2 PUSH2 0x408 JUMPI PUSH2 0x407 PUSH2 0x714 JUMP JUMPDEST JUMPDEST DIV SWAP3 POP PUSH1 0x10 DUP2 ADD SWAP1 POP JUMPDEST PUSH4 0x5F5E100 DUP4 LT PUSH2 0x43B JUMPI PUSH4 0x5F5E100 DUP4 DUP2 PUSH2 0x431 JUMPI PUSH2 0x430 PUSH2 0x714 JUMP JUMPDEST JUMPDEST DIV SWAP3 POP PUSH1 0x8 DUP2 ADD SWAP1 POP JUMPDEST PUSH2 0x2710 DUP4 LT PUSH2 0x460 JUMPI PUSH2 0x2710 DUP4 DUP2 PUSH2 0x456 JUMPI PUSH2 0x455 PUSH2 0x714 JUMP JUMPDEST JUMPDEST DIV SWAP3 POP PUSH1 0x4 DUP2 ADD SWAP1 POP JUMPDEST PUSH1 0x64 DUP4 LT PUSH2 0x483 JUMPI PUSH1 0x64 DUP4 DUP2 PUSH2 0x479 JUMPI PUSH2 0x478 PUSH2 0x714 JUMP JUMPDEST JUMPDEST DIV SWAP3 POP PUSH1 0x2 DUP2 ADD SWAP1 POP JUMPDEST PUSH1 0xA DUP4 LT PUSH2 0x492 JUMPI PUSH1 0x1 DUP2 ADD SWAP1 POP JUMPDEST DUP1 SWAP2 POP POP SWAP2 SWAP1 POP JUMP JUMPDEST PUSH0 DUP1 REVERT JUMPDEST PUSH0 PUSH20 0xFFFFFFFFFFFFFFFFFFFFFFFFFFFFFFFFFFFFFFFF DUP3 AND SWAP1 POP SWAP2 SWAP1 POP JUMP JUMPDEST PUSH0 PUSH2 0x4C8 DUP3 PUSH2 0x49F JUMP JUMPDEST SWAP1 POP SWAP2 SWAP1 POP JUMP JUMPDEST PUSH2 0x4D8 DUP2 PUSH2 0x4BE JUMP JUMPDEST DUP2 EQ PUSH2 0x4E2 JUMPI PUSH0 DUP1 REVERT JUMPDEST POP JUMP JUMPDEST PUSH0 DUP2 MLOAD SWAP1 POP PUSH2 0x4F3 DUP2 PUSH2 0x4CF JUMP JUMPDEST SWAP3 SWAP2 POP POP JUMP JUMPDEST PUSH0 PUSH1 0x20 DUP3 DUP5 SUB SLT ISZERO PUSH2 0x50E JUMPI PUSH2 0x50D PUSH2 0x49B JUMP JUMPDEST JUMPDEST PUSH0 PUSH2 0x51B DUP5 DUP3 DUP6 ADD PUSH2 0x4E5 JUMP JUMPDEST SWAP2 POP POP SWAP3 SWAP2 POP POP JUMP JUMPDEST PUSH0 DUP3 DUP3 MSTORE PUSH1 0x20 DUP3 ADD SWAP1 POP SWAP3 SWAP2 POP POP JUMP JUMPDEST PUSH32 0x43616C6C6572206973206E6F74206F776E657200000000000000000000000000 PUSH0 DUP3 ADD MSTORE POP JUMP JUMPDEST PUSH0 PUSH2 0x568 PUSH1 0x13 DUP4 PUSH2 0x524 JUMP JUMPDEST SWAP2 POP PUSH2 0x573 DUP3 PUSH2 0x534 JUMP JUMPDEST PUSH1 0x20 DUP3 ADD SWAP1 POP SWAP2 SWAP1 POP JUMP JUMPDEST PUSH0 PUSH1 0x20 DUP3 ADD SWAP1 POP DUP2 DUP2 SUB PUSH0 DUP4 ADD MSTORE PUSH2 0x595 DUP2 PUSH2 0x55C JUMP JUMPDEST SWAP1 POP SWAP2 SWAP1 POP JUMP JUMPDEST PUSH0 DUP2 MLOAD SWAP1 POP SWAP2 SWAP1 POP JUMP JUMPDEST PUSH0 DUP2 SWAP1 POP SWAP3 SWAP2 POP POP JUMP JUMPDEST DUP3 DUP2 DUP4 MCOPY PUSH0 DUP4 DUP4 ADD MSTORE POP POP POP JUMP JUMPDEST PUSH0 PUSH2 0x5C8 DUP3 PUSH2 0x59C JUMP JUMPDEST PUSH2 0x5D2 DUP2 DUP6 PUSH2 0x5A6 JUMP JUMPDEST SWAP4 POP PUSH2 0x5E2 DUP2 DUP6 PUSH1 0x20 DUP7 ADD PUSH2 0x5B0 JUMP JUMPDEST DUP1 DUP5 ADD SWAP2 POP POP SWAP3 SWAP2 POP POP JUMP JUMPDEST PUSH32 0x206973206D696E696D756D2076616C756520746F20736574206C6F7765722064 PUSH0 DUP3 ADD MSTORE PUSH32 0x6F6E6174696F6E00000000000000000000000000000000000000000000000000 PUSH1 0x20 DUP3 ADD MSTORE POP JUMP JUMPDEST PUSH0 PUSH2 0x648 PUSH1 0x27 DUP4 PUSH2 0x5A6 JUMP JUMPDEST SWAP2 POP PUSH2 0x653 DUP3 PUSH2 0x5EE JUMP JUMPDEST PUSH1 0x27 DUP3 ADD SWAP1 POP SWAP2 SWAP1 POP JUMP JUMPDEST PUSH0 PUSH2 0x669 DUP3 DUP5 PUSH2 0x5BE JUMP JUMPDEST SWAP2 POP PUSH2 0x674 DUP3 PUSH2 0x63C JUMP JUMPDEST SWAP2 POP DUP2 SWAP1 POP SWAP3 SWAP2 POP POP JUMP JUMPDEST PUSH0 PUSH1 0x1F NOT PUSH1 0x1F DUP4 ADD AND SWAP1 POP SWAP2 SWAP1 POP JUMP JUMPDEST PUSH0 PUSH2 0x699 DUP3 PUSH2 0x59C JUMP JUMPDEST PUSH2 0x6A3 DUP2 DUP6 PUSH2 0x524 JUMP JUMPDEST SWAP4 POP PUSH2 0x6B3 DUP2 DUP6 PUSH1 0x20 DUP7 ADD PUSH2 0x5B0 JUMP JUMPDEST PUSH2 0x6BC DUP2 PUSH2 0x67F JUMP JUMPDEST DUP5 ADD SWAP2 POP POP SWAP3 SWAP2 POP POP JUMP JUMPDEST PUSH0 PUSH1 0x20 DUP3 ADD SWAP1 POP DUP2 DUP2 SUB PUSH0 DUP4 ADD MSTORE PUSH2 0x6DF DUP2 DUP5 PUSH2 0x68F JUMP JUMPDEST SWAP1 POP SWAP3 SWAP2 POP POP JUMP JUMPDEST PUSH32 0x4E487B7100000000000000000000000000000000000000000000000000000000 PUSH0 MSTORE PUSH1 0x41 PUSH1 0x4 MSTORE PUSH1 0x24 PUSH0 REVERT JUMPDEST PUSH32 0x4E487B7100000000000000000000000000000000000000000000000000000000 PUSH0 MSTORE PUSH1 0x12 PUSH1 0x4 MSTORE PUSH1 0x24 PUSH0 REVERT JUMPDEST PUSH1 0x80 MLOAD PUSH2 0x26F0 PUSH2 0x760 PUSH0 CODECOPY PUSH0 DUP2 DUP2 PUSH2 0xECC ADD MSTORE PUSH2 0x150A ADD MSTORE PUSH2 0x26F0 PUSH0 RETURN INVALID PUSH1 0x80 PUSH1 0x40 MSTORE PUSH1 0x4 CALLDATASIZE LT PUSH2 0xC1 JUMPI PUSH0 CALLDATALOAD PUSH1 0xE0 SHR DUP1 PUSH4 0x811D36E9 GT PUSH2 0x7E JUMPI DUP1 PUSH4 0xCF7D6F04 GT PUSH2 0x58 JUMPI DUP1 PUSH4 0xCF7D6F04 EQ PUSH2 0x247 JUMPI DUP1 PUSH4 0xED88C68E EQ PUSH2 0x25D JUMPI DUP1 PUSH4 0xEF4FDDA2 EQ PUSH2 0x267 JUMPI DUP1 PUSH4 0xFA7B8305 EQ PUSH2 0x2A3 JUMPI PUSH2 0xC1 JUMP JUMPDEST DUP1 PUSH4 0x811D36E9 EQ PUSH2 0x1CD JUMPI DUP1 PUSH4 0xC12CFA63 EQ PUSH2 0x1F5 JUMPI DUP1 PUSH4 0xC2348491 EQ PUSH2 0x21F JUMPI PUSH2 0xC1 JUMP JUMPDEST DUP1 PUSH4 0x195199F6 EQ PUSH2 0xC5 JUMPI DUP1 PUSH4 0x1E09C9CA EQ PUSH2 0xED JUMPI DUP1 PUSH4 0x3CCFD60B EQ PUSH2 0x115 JUMPI DUP1 PUSH4 0x528A28B7 EQ PUSH2 0x12B JUMPI DUP1 PUSH4 0x55DA68B3 EQ PUSH2 0x155 JUMPI DUP1 PUSH4 0x6E696126 EQ PUSH2 0x191 JUMPI JUMPDEST PUSH0 DUP1 REVERT JUMPDEST CALLVALUE DUP1 ISZERO PUSH2 0xD0 JUMPI PUSH0 DUP1 REVERT JUMPDEST POP PUSH2 0xEB PUSH1 0x4 DUP1 CALLDATASIZE SUB DUP2 ADD SWAP1 PUSH2 0xE6 SWAP2 SWAP1 PUSH2 0x1A2D JUMP JUMPDEST PUSH2 0x2CB JUMP JUMPDEST STOP JUMPDEST CALLVALUE DUP1 ISZERO PUSH2 0xF8 JUMPI PUSH0 DUP1 REVERT JUMPDEST POP PUSH2 0x113 PUSH1 0x4 DUP1 CALLDATASIZE SUB DUP2 ADD SWAP1 PUSH2 0x10E SWAP2 SWAP1 PUSH2 0x1A2D JUMP JUMPDEST PUSH2 0x362 JUMP JUMPDEST STOP JUMPDEST CALLVALUE DUP1 ISZERO PUSH2 0x120 JUMPI PUSH0 DUP1 REVERT JUMPDEST POP PUSH2 0x129 PUSH2 0x47D JUMP JUMPDEST STOP JUMPDEST CALLVALUE DUP1 ISZERO PUSH2 0x136 JUMPI PUSH0 DUP1 REVERT JUMPDEST POP PUSH2 0x13F PUSH2 0x74E JUMP JUMPDEST PUSH1 0x40 MLOAD PUSH2 0x14C SWAP2 SWAP1 PUSH2 0x1A72 JUMP JUMPDEST PUSH1 0x40 MLOAD DUP1 SWAP2 SUB SWAP1 RETURN JUMPDEST CALLVALUE DUP1 ISZERO PUSH2 0x160 JUMPI PUSH0 DUP1 REVERT JUMPDEST POP PUSH2 0x17B PUSH1 0x4 DUP1 CALLDATASIZE SUB DUP2 ADD SWAP1 PUSH2 0x176 SWAP2 SWAP1 PUSH2 0x1C21 JUMP JUMPDEST PUSH2 0x767 JUMP JUMPDEST PUSH1 0x40 MLOAD PUSH2 0x188 SWAP2 SWAP1 PUSH2 0x1C8A JUMP JUMPDEST PUSH1 0x40 MLOAD DUP1 SWAP2 SUB SWAP1 RETURN JUMPDEST CALLVALUE DUP1 ISZERO PUSH2 0x19C JUMPI PUSH0 DUP1 REVERT JUMPDEST POP PUSH2 0x1B7 PUSH1 0x4 DUP1 CALLDATASIZE SUB DUP2 ADD SWAP1 PUSH2 0x1B2 SWAP2 SWAP1 PUSH2 0x1CA3 JUMP JUMPDEST PUSH2 0x93C JUMP JUMPDEST PUSH1 0x40 MLOAD PUSH2 0x1C4 SWAP2 SWAP1 PUSH2 0x1DA1 JUMP JUMPDEST PUSH1 0x40 MLOAD DUP1 SWAP2 SUB SWAP1 RETURN JUMPDEST CALLVALUE DUP1 ISZERO PUSH2 0x1D8 JUMPI PUSH0 DUP1 REVERT JUMPDEST POP PUSH2 0x1F3 PUSH1 0x4 DUP1 CALLDATASIZE SUB DUP2 ADD SWAP1 PUSH2 0x1EE SWAP2 SWAP1 PUSH2 0x1DC1 JUMP JUMPDEST PUSH2 0xB9D JUMP JUMPDEST STOP JUMPDEST CALLVALUE DUP1 ISZERO PUSH2 0x200 JUMPI PUSH0 DUP1 REVERT JUMPDEST POP PUSH2 0x209 PUSH2 0xC6D JUMP JUMPDEST PUSH1 0x40 MLOAD PUSH2 0x216 SWAP2 SWAP1 PUSH2 0x1DFB JUMP JUMPDEST PUSH1 0x40 MLOAD DUP1 SWAP2 SUB SWAP1 RETURN JUMPDEST CALLVALUE DUP1 ISZERO PUSH2 0x22A JUMPI PUSH0 DUP1 REVERT JUMPDEST POP PUSH2 0x245 PUSH1 0x4 DUP1 CALLDATASIZE SUB DUP2 ADD SWAP1 PUSH2 0x240 SWAP2 SWAP1 PUSH2 0x1DC1 JUMP JUMPDEST PUSH2 0xC94 JUMP JUMPDEST STOP JUMPDEST CALLVALUE DUP1 ISZERO PUSH2 0x252 JUMPI PUSH0 DUP1 REVERT JUMPDEST POP PUSH2 0x25B PUSH2 0xD64 JUMP JUMPDEST STOP JUMPDEST PUSH2 0x265 PUSH2 0x1067 JUMP JUMPDEST STOP JUMPDEST CALLVALUE DUP1 ISZERO PUSH2 0x272 JUMPI PUSH0 DUP1 REVERT JUMPDEST POP PUSH2 0x28D PUSH1 0x4 DUP1 CALLDATASIZE SUB DUP2 ADD SWAP1 PUSH2 0x288 SWAP2 SWAP1 PUSH2 0x1CA3 JUMP JUMPDEST PUSH2 0x12F0 JUMP JUMPDEST PUSH1 0x40 MLOAD PUSH2 0x29A SWAP2 SWAP1 PUSH2 0x1C8A JUMP JUMPDEST PUSH1 0x40 MLOAD DUP1 SWAP2 SUB SWAP1 RETURN JUMPDEST CALLVALUE DUP1 ISZERO PUSH2 0x2AE JUMPI PUSH0 DUP1 REVERT JUMPDEST POP PUSH2 0x2C9 PUSH1 0x4 DUP1 CALLDATASIZE SUB DUP2 ADD SWAP1 PUSH2 0x2C4 SWAP2 SWAP1 PUSH2 0x1A2D JUMP JUMPDEST PUSH2 0x144E JUMP JUMPDEST STOP JUMPDEST PUSH0 DUP1 SLOAD SWAP1 PUSH2 0x100 EXP SWAP1 DIV PUSH20 0xFFFFFFFFFFFFFFFFFFFFFFFFFFFFFFFFFFFFFFFF AND PUSH20 0xFFFFFFFFFFFFFFFFFFFFFFFFFFFFFFFFFFFFFFFF AND CALLER PUSH20 0xFFFFFFFFFFFFFFFFFFFFFFFFFFFFFFFFFFFFFFFF AND EQ PUSH2 0x358 JUMPI PUSH1 0x40 MLOAD PUSH32 0x8C379A000000000000000000000000000000000000000000000000000000000 DUP2 MSTORE PUSH1 0x4 ADD PUSH2 0x34F SWAP1 PUSH2 0x1E6E JUMP JUMPDEST PUSH1 0x40 MLOAD DUP1 SWAP2 SUB SWAP1 REVERT JUMPDEST DUP1 PUSH1 0x8 DUP2 SWAP1 SSTORE POP POP JUMP JUMPDEST PUSH0 DUP1 SLOAD SWAP1 PUSH2 0x100 EXP SWAP1 DIV PUSH20 0xFFFFFFFFFFFFFFFFFFFFFFFFFFFFFFFFFFFFFFFF AND PUSH20 0xFFFFFFFFFFFFFFFFFFFFFFFFFFFFFFFFFFFFFFFF AND CALLER PUSH20 0xFFFFFFFFFFFFFFFFFFFFFFFFFFFFFFFFFFFFFFFF AND EQ PUSH2 0x3EF JUMPI PUSH1 0x40 MLOAD PUSH32 0x8C379A000000000000000000000000000000000000000000000000000000000 DUP2 MSTORE PUSH1 0x4 ADD PUSH2 0x3E6 SWAP1 PUSH2 0x1E6E JUMP JUMPDEST PUSH1 0x40 MLOAD DUP1 SWAP2 SUB SWAP1 REVERT JUMPDEST PUSH1 0x1 PUSH8 0xFFFFFFFFFFFFFFFF AND DUP2 LT ISZERO PUSH2 0x412 PUSH1 0x1 PUSH8 0xFFFFFFFFFFFFFFFF AND PUSH2 0x1729 JUMP JUMPDEST PUSH1 0x40 MLOAD PUSH1 0x20 ADD PUSH2 0x422 SWAP2 SWAP1 PUSH2 0x1F4E JUMP JUMPDEST PUSH1 0x40 MLOAD PUSH1 0x20 DUP2 DUP4 SUB SUB DUP2 MSTORE SWAP1 PUSH1 0x40 MSTORE SWAP1 PUSH2 0x472 JUMPI PUSH1 0x40 MLOAD PUSH32 0x8C379A000000000000000000000000000000000000000000000000000000000 DUP2 MSTORE PUSH1 0x4 ADD PUSH2 0x469 SWAP2 SWAP1 PUSH2 0x1FA7 JUMP JUMPDEST PUSH1 0x40 MLOAD DUP1 SWAP2 SUB SWAP1 REVERT JUMPDEST POP DUP1 PUSH1 0x7 DUP2 SWAP1 SSTORE POP POP JUMP JUMPDEST PUSH1 0xA PUSH0 SWAP1 SLOAD SWAP1 PUSH2 0x100 EXP SWAP1 DIV PUSH20 0xFFFFFFFFFFFFFFFFFFFFFFFFFFFFFFFFFFFFFFFF AND PUSH20 0xFFFFFFFFFFFFFFFFFFFFFFFFFFFFFFFFFFFFFFFF AND CALLER PUSH20 0xFFFFFFFFFFFFFFFFFFFFFFFFFFFFFFFFFFFFFFFF AND EQ PUSH2 0x50C JUMPI PUSH1 0x40 MLOAD PUSH32 0x8C379A000000000000000000000000000000000000000000000000000000000 DUP2 MSTORE PUSH1 0x4 ADD PUSH2 0x503 SWAP1 PUSH2 0x2011 JUMP JUMPDEST PUSH1 0x40 MLOAD DUP1 SWAP2 SUB SWAP1 REVERT JUMPDEST PUSH0 PUSH20 0xFFFFFFFFFFFFFFFFFFFFFFFFFFFFFFFFFFFFFFFF AND PUSH1 0x9 PUSH0 SWAP1 SLOAD SWAP1 PUSH2 0x100 EXP SWAP1 DIV PUSH20 0xFFFFFFFFFFFFFFFFFFFFFFFFFFFFFFFFFFFFFFFF AND PUSH20 0xFFFFFFFFFFFFFFFFFFFFFFFFFFFFFFFFFFFFFFFF AND SUB PUSH2 0x59B JUMPI PUSH1 0x40 MLOAD PUSH32 0x8C379A000000000000000000000000000000000000000000000000000000000 DUP2 MSTORE PUSH1 0x4 ADD PUSH2 0x592 SWAP1 PUSH2 0x2079 JUMP JUMPDEST PUSH1 0x40 MLOAD DUP1 SWAP2 SUB SWAP1 REVERT JUMPDEST PUSH2 0x5A3 PUSH2 0x74E JUMP JUMPDEST PUSH2 0x5E2 JUMPI PUSH1 0x40 MLOAD PUSH32 0x8C379A000000000000000000000000000000000000000000000000000000000 DUP2 MSTORE PUSH1 0x4 ADD PUSH2 0x5D9 SWAP1 PUSH2 0x20E1 JUMP JUMPDEST PUSH1 0x40 MLOAD DUP1 SWAP2 SUB SWAP1 REVERT JUMPDEST PUSH0 SELFBALANCE SWAP1 POP PUSH0 DUP1 PUSH1 0x9 PUSH0 SWAP1 SLOAD SWAP1 PUSH2 0x100 EXP SWAP1 DIV PUSH20 0xFFFFFFFFFFFFFFFFFFFFFFFFFFFFFFFFFFFFFFFF AND PUSH20 0xFFFFFFFFFFFFFFFFFFFFFFFFFFFFFFFFFFFFFFFF AND DUP4 PUSH1 0x40 MLOAD PUSH2 0x62D SWAP1 PUSH2 0x212C JUMP JUMPDEST PUSH0 PUSH1 0x40 MLOAD DUP1 DUP4 SUB DUP2 DUP6 DUP8 GAS CALL SWAP3 POP POP POP RETURNDATASIZE DUP1 PUSH0 DUP2 EQ PUSH2 0x667 JUMPI PUSH1 0x40 MLOAD SWAP2 POP PUSH1 0x1F NOT PUSH1 0x3F RETURNDATASIZE ADD AND DUP3 ADD PUSH1 0x40 MSTORE RETURNDATASIZE DUP3 MSTORE RETURNDATASIZE PUSH0 PUSH1 0x20 DUP5 ADD RETURNDATACOPY PUSH2 0x66C JUMP JUMPDEST PUSH1 0x60 SWAP2 POP JUMPDEST POP SWAP2 POP SWAP2 POP DUP2 PUSH2 0x6B1 JUMPI PUSH1 0x40 MLOAD PUSH32 0x8C379A000000000000000000000000000000000000000000000000000000000 DUP2 MSTORE PUSH1 0x4 ADD PUSH2 0x6A8 SWAP1 PUSH2 0x218A JUMP JUMPDEST PUSH1 0x40 MLOAD DUP1 SWAP2 SUB SWAP1 REVERT JUMPDEST PUSH0 PUSH1 0x5 DUP2 SWAP1 SSTORE POP PUSH32 0x4A451432327CDE4EBA7A5CB53D98B0F209EA7C64F931ECEBE3986A1E4468BDD DUP4 PUSH1 0x40 MLOAD DUP1 PUSH1 0x40 ADD PUSH1 0x40 MSTORE DUP1 PUSH1 0x3 DUP2 MSTORE PUSH1 0x20 ADD PUSH32 0x4554480000000000000000000000000000000000000000000000000000000000 DUP2 MSTORE POP PUSH1 0x9 PUSH0 SWAP1 SLOAD SWAP1 PUSH2 0x100 EXP SWAP1 DIV PUSH20 0xFFFFFFFFFFFFFFFFFFFFFFFFFFFFFFFFFFFFFFFF AND PUSH1 0x40 MLOAD PUSH2 0x741 SWAP4 SWAP3 SWAP2 SWAP1 PUSH2 0x224D JUMP JUMPDEST PUSH1 0x40 MLOAD DUP1 SWAP2 SUB SWAP1 LOG1 POP POP POP JUMP JUMPDEST PUSH0 PUSH1 0x8 SLOAD PUSH1 0xB SLOAD PUSH2 0x75F SWAP2 SWAP1 PUSH2 0x22C9 JUMP JUMPDEST TIMESTAMP LT ISZERO SWAP1 POP SWAP1 JUMP JUMPDEST PUSH0 DUP2 PUSH2 0x781 DUP2 PUSH1 0x40 MLOAD DUP1 PUSH1 0x20 ADD PUSH1 0x40 MSTORE DUP1 PUSH0 DUP2 MSTORE POP PUSH2 0x17F3 JUMP JUMPDEST DUP1 PUSH2 0x7C7 JUMPI POP PUSH2 0x7C6 DUP2 PUSH1 0x40 MLOAD DUP1 PUSH1 0x40 ADD PUSH1 0x40 MSTORE DUP1 PUSH1 0x3 DUP2 MSTORE PUSH1 0x20 ADD PUSH32 0x4144540000000000000000000000000000000000000000000000000000000000 DUP2 MSTORE POP PUSH2 0x17F3 JUMP JUMPDEST JUMPDEST DUP1 PUSH2 0x80D JUMPI POP PUSH2 0x80C DUP2 PUSH1 0x40 MLOAD DUP1 PUSH1 0x40 ADD PUSH1 0x40 MSTORE DUP1 PUSH1 0x3 DUP2 MSTORE PUSH1 0x20 ADD PUSH32 0x4554480000000000000000000000000000000000000000000000000000000000 DUP2 MSTORE POP PUSH2 0x17F3 JUMP JUMPDEST JUMPDEST PUSH2 0x84C JUMPI PUSH1 0x40 MLOAD PUSH32 0x8C379A000000000000000000000000000000000000000000000000000000000 DUP2 MSTORE PUSH1 0x4 ADD PUSH2 0x843 SWAP1 PUSH2 0x2346 JUMP JUMPDEST PUSH1 0x40 MLOAD DUP1 SWAP2 SUB SWAP1 REVERT JUMPDEST PUSH2 0x88B DUP4 PUSH1 0x40 MLOAD DUP1 PUSH1 0x40 ADD PUSH1 0x40 MSTORE DUP1 PUSH1 0x3 DUP2 MSTORE PUSH1 0x20 ADD PUSH32 0x4554480000000000000000000000000000000000000000000000000000000000 DUP2 MSTORE POP PUSH2 0x17F3 JUMP JUMPDEST DUP1 PUSH2 0x8AA JUMPI POP PUSH2 0x8A9 DUP4 PUSH1 0x40 MLOAD DUP1 PUSH1 0x20 ADD PUSH1 0x40 MSTORE DUP1 PUSH0 DUP2 MSTORE POP PUSH2 0x17F3 JUMP JUMPDEST JUMPDEST ISZERO PUSH2 0x8F4 JUMPI PUSH1 0x1 PUSH0 DUP6 PUSH20 0xFFFFFFFFFFFFFFFFFFFFFFFFFFFFFFFFFFFFFFFF AND PUSH20 0xFFFFFFFFFFFFFFFFFFFFFFFFFFFFFFFFFFFFFFFF AND DUP2 MSTORE PUSH1 0x20 ADD SWAP1 DUP2 MSTORE PUSH1 0x20 ADD PUSH0 KECCAK256 SLOAD SWAP2 POP PUSH2 0x935 JUMP JUMPDEST PUSH1 0x2 PUSH0 DUP6 PUSH20 0xFFFFFFFFFFFFFFFFFFFFFFFFFFFFFFFFFFFFFFFF AND PUSH20 0xFFFFFFFFFFFFFFFFFFFFFFFFFFFFFFFFFFFFFFFF AND DUP2 MSTORE PUSH1 0x20 ADD SWAP1 DUP2 MSTORE PUSH1 0x20 ADD PUSH0 KECCAK256 SLOAD SWAP2 POP JUMPDEST POP SWAP3 SWAP2 POP POP JUMP JUMPDEST PUSH1 0x60 DUP2 PUSH2 0x957 DUP2 PUSH1 0x40 MLOAD DUP1 PUSH1 0x20 ADD PUSH1 0x40 MSTORE DUP1 PUSH0 DUP2 MSTORE POP PUSH2 0x17F3 JUMP JUMPDEST DUP1 PUSH2 0x99D JUMPI POP PUSH2 0x99C DUP2 PUSH1 0x40 MLOAD DUP1 PUSH1 0x40 ADD PUSH1 0x40 MSTORE DUP1 PUSH1 0x3 DUP2 MSTORE PUSH1 0x20 ADD PUSH32 0x4144540000000000000000000000000000000000000000000000000000000000 DUP2 MSTORE POP PUSH2 0x17F3 JUMP JUMPDEST JUMPDEST DUP1 PUSH2 0x9E3 JUMPI POP PUSH2 0x9E2 DUP2 PUSH1 0x40 MLOAD DUP1 PUSH1 0x40 ADD PUSH1 0x40 MSTORE DUP1 PUSH1 0x3 DUP2 MSTORE PUSH1 0x20 ADD PUSH32 0x4554480000000000000000000000000000000000000000000000000000000000 DUP2 MSTORE POP PUSH2 0x17F3 JUMP JUMPDEST JUMPDEST PUSH2 0xA22 JUMPI PUSH1 0x40 MLOAD PUSH32 0x8C379A000000000000000000000000000000000000000000000000000000000 DUP2 MSTORE PUSH1 0x4 ADD PUSH2 0xA19 SWAP1 PUSH2 0x2346 JUMP JUMPDEST PUSH1 0x40 MLOAD DUP1 SWAP2 SUB SWAP1 REVERT JUMPDEST PUSH2 0xA61 DUP4 PUSH1 0x40 MLOAD DUP1 PUSH1 0x40 ADD PUSH1 0x40 MSTORE DUP1 PUSH1 0x3 DUP2 MSTORE PUSH1 0x20 ADD PUSH32 0x4554480000000000000000000000000000000000000000000000000000000000 DUP2 MSTORE POP PUSH2 0x17F3 JUMP JUMPDEST DUP1 PUSH2 0xA80 JUMPI POP PUSH2 0xA7F DUP4 PUSH1 0x40 MLOAD DUP1 PUSH1 0x20 ADD PUSH1 0x40 MSTORE DUP1 PUSH0 DUP2 MSTORE POP PUSH2 0x17F3 JUMP JUMPDEST JUMPDEST ISZERO PUSH2 0xB10 JUMPI PUSH1 0x3 DUP1 SLOAD DUP1 PUSH1 0x20 MUL PUSH1 0x20 ADD PUSH1 0x40 MLOAD SWAP1 DUP2 ADD PUSH1 0x40 MSTORE DUP1 SWAP3 SWAP2 SWAP1 DUP2 DUP2 MSTORE PUSH1 0x20 ADD DUP3 DUP1 SLOAD DUP1 ISZERO PUSH2 0xB04 JUMPI PUSH1 0x20 MUL DUP3 ADD SWAP2 SWAP1 PUSH0 MSTORE PUSH1 0x20 PUSH0 KECCAK256 SWAP1 JUMPDEST DUP2 PUSH0 SWAP1 SLOAD SWAP1 PUSH2 0x100 EXP SWAP1 DIV PUSH20 0xFFFFFFFFFFFFFFFFFFFFFFFFFFFFFFFFFFFFFFFF AND PUSH20 0xFFFFFFFFFFFFFFFFFFFFFFFFFFFFFFFFFFFFFFFF AND DUP2 MSTORE PUSH1 0x20 ADD SWAP1 PUSH1 0x1 ADD SWAP1 DUP1 DUP4 GT PUSH2 0xABB JUMPI JUMPDEST POP POP POP POP POP SWAP2 POP PUSH2 0xB97 JUMP JUMPDEST PUSH1 0x4 DUP1 SLOAD DUP1 PUSH1 0x20 MUL PUSH1 0x20 ADD PUSH1 0x40 MLOAD SWAP1 DUP2 ADD PUSH1 0x40 MSTORE DUP1 SWAP3 SWAP2 SWAP1 DUP2 DUP2 MSTORE PUSH1 0x20 ADD DUP3 DUP1 SLOAD DUP1 ISZERO PUSH2 0xB8F JUMPI PUSH1 0x20 MUL DUP3 ADD SWAP2 SWAP1 PUSH0 MSTORE PUSH1 0x20 PUSH0 KECCAK256 SWAP1 JUMPDEST DUP2 PUSH0 SWAP1 SLOAD SWAP1 PUSH2 0x100 EXP SWAP1 DIV PUSH20 0xFFFFFFFFFFFFFFFFFFFFFFFFFFFFFFFFFFFFFFFF AND PUSH20 0xFFFFFFFFFFFFFFFFFFFFFFFFFFFFFFFFFFFFFFFF AND DUP2 MSTORE PUSH1 0x20 ADD SWAP1 PUSH1 0x1 ADD SWAP1 DUP1 DUP4 GT PUSH2 0xB46 JUMPI JUMPDEST POP POP POP POP POP SWAP2 POP JUMPDEST POP SWAP2 SWAP1 POP JUMP JUMPDEST PUSH0 DUP1 SLOAD SWAP1 PUSH2 0x100 EXP SWAP1 DIV PUSH20 0xFFFFFFFFFFFFFFFFFFFFFFFFFFFFFFFFFFFFFFFF AND PUSH20 0xFFFFFFFFFFFFFFFFFFFFFFFFFFFFFFFFFFFFFFFF AND CALLER PUSH20 0xFFFFFFFFFFFFFFFFFFFFFFFFFFFFFFFFFFFFFFFF AND EQ PUSH2 0xC2A JUMPI PUSH1 0x40 MLOAD PUSH32 0x8C379A000000000000000000000000000000000000000000000000000000000 DUP2 MSTORE PUSH1 0x4 ADD PUSH2 0xC21 SWAP1 PUSH2 0x1E6E JUMP JUMPDEST PUSH1 0x40 MLOAD DUP1 SWAP2 SUB SWAP1 REVERT JUMPDEST DUP1 PUSH1 0xA PUSH0 PUSH2 0x100 EXP DUP2 SLOAD DUP2 PUSH20 0xFFFFFFFFFFFFFFFFFFFFFFFFFFFFFFFFFFFFFFFF MUL NOT AND SWAP1 DUP4 PUSH20 0xFFFFFFFFFFFFFFFFFFFFFFFFFFFFFFFFFFFFFFFF AND MUL OR SWAP1 SSTORE POP POP JUMP JUMPDEST PUSH0 DUP1 PUSH0 SWAP1 SLOAD SWAP1 PUSH2 0x100 EXP SWAP1 DIV PUSH20 0xFFFFFFFFFFFFFFFFFFFFFFFFFFFFFFFFFFFFFFFF AND SWAP1 POP SWAP1 JUMP JUMPDEST PUSH0 DUP1 SLOAD SWAP1 PUSH2 0x100 EXP SWAP1 DIV PUSH20 0xFFFFFFFFFFFFFFFFFFFFFFFFFFFFFFFFFFFFFFFF AND PUSH20 0xFFFFFFFFFFFFFFFFFFFFFFFFFFFFFFFFFFFFFFFF AND CALLER PUSH20 0xFFFFFFFFFFFFFFFFFFFFFFFFFFFFFFFFFFFFFFFF AND EQ PUSH2 0xD21 JUMPI PUSH1 0x40 MLOAD PUSH32 0x8C379A000000000000000000000000000000000000000000000000000000000 DUP2 MSTORE PUSH1 0x4 ADD PUSH2 0xD18 SWAP1 PUSH2 0x1E6E JUMP JUMPDEST PUSH1 0x40 MLOAD DUP1 SWAP2 SUB SWAP1 REVERT JUMPDEST DUP1 PUSH1 0x9 PUSH0 PUSH2 0x100 EXP DUP2 SLOAD DUP2 PUSH20 0xFFFFFFFFFFFFFFFFFFFFFFFFFFFFFFFFFFFFFFFF MUL NOT AND SWAP1 DUP4 PUSH20 0xFFFFFFFFFFFFFFFFFFFFFFFFFFFFFFFFFFFFFFFF AND MUL OR SWAP1 SSTORE POP POP JUMP JUMPDEST PUSH1 0xA PUSH0 SWAP1 SLOAD SWAP1 PUSH2 0x100 EXP SWAP1 DIV PUSH20 0xFFFFFFFFFFFFFFFFFFFFFFFFFFFFFFFFFFFFFFFF AND PUSH20 0xFFFFFFFFFFFFFFFFFFFFFFFFFFFFFFFFFFFFFFFF AND CALLER PUSH20 0xFFFFFFFFFFFFFFFFFFFFFFFFFFFFFFFFFFFFFFFF AND EQ PUSH2 0xDF3 JUMPI PUSH1 0x40 MLOAD PUSH32 0x8C379A000000000000000000000000000000000000000000000000000000000 DUP2 MSTORE PUSH1 0x4 ADD PUSH2 0xDEA SWAP1 PUSH2 0x2011 JUMP JUMPDEST PUSH1 0x40 MLOAD DUP1 SWAP2 SUB SWAP1 REVERT JUMPDEST PUSH0 PUSH20 0xFFFFFFFFFFFFFFFFFFFFFFFFFFFFFFFFFFFFFFFF AND PUSH1 0x9 PUSH0 SWAP1 SLOAD SWAP1 PUSH2 0x100 EXP SWAP1 DIV PUSH20 0xFFFFFFFFFFFFFFFFFFFFFFFFFFFFFFFFFFFFFFFF AND PUSH20 0xFFFFFFFFFFFFFFFFFFFFFFFFFFFFFFFFFFFFFFFF AND SUB PUSH2 0xE82 JUMPI PUSH1 0x40 MLOAD PUSH32 0x8C379A000000000000000000000000000000000000000000000000000000000 DUP2 MSTORE PUSH1 0x4 ADD PUSH2 0xE79 SWAP1 PUSH2 0x2079 JUMP JUMPDEST PUSH1 0x40 MLOAD DUP1 SWAP2 SUB SWAP1 REVERT JUMPDEST PUSH2 0xE8A PUSH2 0x74E JUMP JUMPDEST PUSH2 0xEC9 JUMPI PUSH1 0x40 MLOAD PUSH32 0x8C379A000000000000000000000000000000000000000000000000000000000 DUP2 MSTORE PUSH1 0x4 ADD PUSH2 0xEC0 SWAP1 PUSH2 0x20E1 JUMP JUMPDEST PUSH1 0x40 MLOAD DUP1 SWAP2 SUB SWAP1 REVERT JUMPDEST PUSH0 PUSH32 0x0 PUSH20 0xFFFFFFFFFFFFFFFFFFFFFFFFFFFFFFFFFFFFFFFF AND PUSH4 0xA9059CBB PUSH1 0x9 PUSH0 SWAP1 SLOAD SWAP1 PUSH2 0x100 EXP SWAP1 DIV PUSH20 0xFFFFFFFFFFFFFFFFFFFFFFFFFFFFFFFFFFFFFFFF AND PUSH1 0x6 SLOAD PUSH1 0x40 MLOAD DUP4 PUSH4 0xFFFFFFFF AND PUSH1 0xE0 SHL DUP2 MSTORE PUSH1 0x4 ADD PUSH2 0xF48 SWAP3 SWAP2 SWAP1 PUSH2 0x2364 JUMP JUMPDEST PUSH1 0x20 PUSH1 0x40 MLOAD DUP1 DUP4 SUB DUP2 PUSH0 DUP8 GAS CALL ISZERO DUP1 ISZERO PUSH2 0xF64 JUMPI RETURNDATASIZE PUSH0 DUP1 RETURNDATACOPY RETURNDATASIZE PUSH0 REVERT JUMPDEST POP POP POP POP PUSH1 0x40 MLOAD RETURNDATASIZE PUSH1 0x1F NOT PUSH1 0x1F DUP3 ADD AND DUP3 ADD DUP1 PUSH1 0x40 MSTORE POP DUP2 ADD SWAP1 PUSH2 0xF88 SWAP2 SWAP1 PUSH2 0x23B5 JUMP JUMPDEST SWAP1 POP DUP1 PUSH2 0xFCA JUMPI PUSH1 0x40 MLOAD PUSH32 0x8C379A000000000000000000000000000000000000000000000000000000000 DUP2 MSTORE PUSH1 0x4 ADD PUSH2 0xFC1 SWAP1 PUSH2 0x2450 JUMP JUMPDEST PUSH1 0x40 MLOAD DUP1 SWAP2 SUB SWAP1 REVERT JUMPDEST PUSH0 PUSH1 0x6 DUP2 SWAP1 SSTORE POP PUSH32 0x4A451432327CDE4EBA7A5CB53D98B0F209EA7C64F931ECEBE3986A1E4468BDD PUSH1 0x6 SLOAD PUSH1 0x40 MLOAD DUP1 PUSH1 0x40 ADD PUSH1 0x40 MSTORE DUP1 PUSH1 0x3 DUP2 MSTORE PUSH1 0x20 ADD PUSH32 0x4554480000000000000000000000000000000000000000000000000000000000 DUP2 MSTORE POP PUSH1 0x9 PUSH0 SWAP1 SLOAD SWAP1 PUSH2 0x100 EXP SWAP1 DIV PUSH20 0xFFFFFFFFFFFFFFFFFFFFFFFFFFFFFFFFFFFFFFFF AND PUSH1 0x40 MLOAD PUSH2 0x105C SWAP4 SWAP3 SWAP2 SWAP1 PUSH2 0x224D JUMP JUMPDEST PUSH1 0x40 MLOAD DUP1 SWAP2 SUB SWAP1 LOG1 POP JUMP JUMPDEST PUSH1 0x7 SLOAD CALLVALUE LT ISZERO PUSH2 0x1078 PUSH1 0x7 SLOAD PUSH2 0x1729 JUMP JUMPDEST PUSH1 0x40 MLOAD PUSH1 0x20 ADD PUSH2 0x1088 SWAP2 SWAP1 PUSH2 0x2494 JUMP JUMPDEST PUSH1 0x40 MLOAD PUSH1 0x20 DUP2 DUP4 SUB SUB DUP2 MSTORE SWAP1 PUSH1 0x40 MSTORE SWAP1 PUSH2 0x10D8 JUMPI PUSH1 0x40 MLOAD PUSH32 0x8C379A000000000000000000000000000000000000000000000000000000000 DUP2 MSTORE PUSH1 0x4 ADD PUSH2 0x10CF SWAP2 SWAP1 PUSH2 0x1FA7 JUMP JUMPDEST PUSH1 0x40 MLOAD DUP1 SWAP2 SUB SWAP1 REVERT JUMPDEST POP PUSH2 0x10E1 PUSH2 0x74E JUMP JUMPDEST ISZERO PUSH2 0x1121 JUMPI PUSH1 0x40 MLOAD PUSH32 0x8C379A000000000000000000000000000000000000000000000000000000000 DUP2 MSTORE PUSH1 0x4 ADD PUSH2 0x1118 SWAP1 PUSH2 0x2529 JUMP JUMPDEST PUSH1 0x40 MLOAD DUP1 SWAP2 SUB SWAP1 REVERT JUMPDEST CALLVALUE PUSH1 0x1 PUSH0 CALLER PUSH20 0xFFFFFFFFFFFFFFFFFFFFFFFFFFFFFFFFFFFFFFFF AND PUSH20 0xFFFFFFFFFFFFFFFFFFFFFFFFFFFFFFFFFFFFFFFF AND DUP2 MSTORE PUSH1 0x20 ADD SWAP1 DUP2 MSTORE PUSH1 0x20 ADD PUSH0 KECCAK256 PUSH0 DUP3 DUP3 SLOAD PUSH2 0x116D SWAP2 SWAP1 PUSH2 0x22C9 JUMP JUMPDEST SWAP3 POP POP DUP2 SWAP1 SSTORE POP PUSH2 0x1201 PUSH1 0x3 DUP1 SLOAD DUP1 PUSH1 0x20 MUL PUSH1 0x20 ADD PUSH1 0x40 MLOAD SWAP1 DUP2 ADD PUSH1 0x40 MSTORE DUP1 SWAP3 SWAP2 SWAP1 DUP2 DUP2 MSTORE PUSH1 0x20 ADD DUP3 DUP1 SLOAD DUP1 ISZERO PUSH2 0x11F6 JUMPI PUSH1 0x20 MUL DUP3 ADD SWAP2 SWAP1 PUSH0 MSTORE PUSH1 0x20 PUSH0 KECCAK256 SWAP1 JUMPDEST DUP2 PUSH0 SWAP1 SLOAD SWAP1 PUSH2 0x100 EXP SWAP1 DIV PUSH20 0xFFFFFFFFFFFFFFFFFFFFFFFFFFFFFFFFFFFFFFFF AND PUSH20 0xFFFFFFFFFFFFFFFFFFFFFFFFFFFFFFFFFFFFFFFF AND DUP2 MSTORE PUSH1 0x20 ADD SWAP1 PUSH1 0x1 ADD SWAP1 DUP1 DUP4 GT PUSH2 0x11AD JUMPI JUMPDEST POP POP POP POP POP CALLER PUSH2 0x181A JUMP JUMPDEST PUSH2 0x1266 JUMPI PUSH1 0x3 CALLER SWAP1 DUP1 PUSH1 0x1 DUP2 SLOAD ADD DUP1 DUP3 SSTORE DUP1 SWAP2 POP POP PUSH1 0x1 SWAP1 SUB SWAP1 PUSH0 MSTORE PUSH1 0x20 PUSH0 KECCAK256 ADD PUSH0 SWAP1 SWAP2 SWAP1 SWAP2 SWAP1 SWAP2 PUSH2 0x100 EXP DUP2 SLOAD DUP2 PUSH20 0xFFFFFFFFFFFFFFFFFFFFFFFFFFFFFFFFFFFFFFFF MUL NOT AND SWAP1 DUP4 PUSH20 0xFFFFFFFFFFFFFFFFFFFFFFFFFFFFFFFFFFFFFFFF AND MUL OR SWAP1 SSTORE POP JUMPDEST CALLVALUE PUSH1 0x5 PUSH0 DUP3 DUP3 SLOAD PUSH2 0x1277 SWAP2 SWAP1 PUSH2 0x22C9 JUMP JUMPDEST SWAP3 POP POP DUP2 SWAP1 SSTORE POP PUSH32 0x4A451432327CDE4EBA7A5CB53D98B0F209EA7C64F931ECEBE3986A1E4468BDD CALLVALUE PUSH1 0x40 MLOAD DUP1 PUSH1 0x40 ADD PUSH1 0x40 MSTORE DUP1 PUSH1 0x3 DUP2 MSTORE PUSH1 0x20 ADD PUSH32 0x4554480000000000000000000000000000000000000000000000000000000000 DUP2 MSTORE POP CALLER PUSH1 0x40 MLOAD PUSH2 0x12E6 SWAP4 SWAP3 SWAP2 SWAP1 PUSH2 0x2591 JUMP JUMPDEST PUSH1 0x40 MLOAD DUP1 SWAP2 SUB SWAP1 LOG1 JUMP JUMPDEST PUSH0 DUP2 PUSH2 0x130A DUP2 PUSH1 0x40 MLOAD DUP1 PUSH1 0x20 ADD PUSH1 0x40 MSTORE DUP1 PUSH0 DUP2 MSTORE POP PUSH2 0x17F3 JUMP JUMPDEST DUP1 PUSH2 0x1350 JUMPI POP PUSH2 0x134F DUP2 PUSH1 0x40 MLOAD DUP1 PUSH1 0x40 ADD PUSH1 0x40 MSTORE DUP1 PUSH1 0x3 DUP2 MSTORE PUSH1 0x20 ADD PUSH32 0x4144540000000000000000000000000000000000000000000000000000000000 DUP2 MSTORE POP PUSH2 0x17F3 JUMP JUMPDEST JUMPDEST DUP1 PUSH2 0x1396 JUMPI POP PUSH2 0x1395 DUP2 PUSH1 0x40 MLOAD DUP1 PUSH1 0x40 ADD PUSH1 0x40 MSTORE DUP1 PUSH1 0x3 DUP2 MSTORE PUSH1 0x20 ADD PUSH32 0x4554480000000000000000000000000000000000000000000000000000000000 DUP2 MSTORE POP PUSH2 0x17F3 JUMP JUMPDEST JUMPDEST PUSH2 0x13D5 JUMPI PUSH1 0x40 MLOAD PUSH32 0x8C379A000000000000000000000000000000000000000000000000000000000 DUP2 MSTORE PUSH1 0x4 ADD PUSH2 0x13CC SWAP1 PUSH2 0x2346 JUMP JUMPDEST PUSH1 0x40 MLOAD DUP1 SWAP2 SUB SWAP1 REVERT JUMPDEST PUSH2 0x1414 DUP4 PUSH1 0x40 MLOAD DUP1 PUSH1 0x40 ADD PUSH1 0x40 MSTORE DUP1 PUSH1 0x3 DUP2 MSTORE PUSH1 0x20 ADD PUSH32 0x4554480000000000000000000000000000000000000000000000000000000000 DUP2 MSTORE POP PUSH2 0x17F3 JUMP JUMPDEST DUP1 PUSH2 0x1433 JUMPI POP PUSH2 0x1432 DUP4 PUSH1 0x40 MLOAD DUP1 PUSH1 0x20 ADD PUSH1 0x40 MSTORE DUP1 PUSH0 DUP2 MSTORE POP PUSH2 0x17F3 JUMP JUMPDEST JUMPDEST ISZERO PUSH2 0x1442 JUMPI PUSH1 0x5 SLOAD SWAP2 POP PUSH2 0x1448 JUMP JUMPDEST PUSH1 0x6 SLOAD SWAP2 POP JUMPDEST POP SWAP2 SWAP1 POP JUMP JUMPDEST PUSH1 0x7 SLOAD DUP2 LT ISZERO PUSH2 0x145F PUSH1 0x7 SLOAD PUSH2 0x1729 JUMP JUMPDEST PUSH1 0x40 MLOAD PUSH1 0x20 ADD PUSH2 0x146F SWAP2 SWAP1 PUSH2 0x2606 JUMP JUMPDEST PUSH1 0x40 MLOAD PUSH1 0x20 DUP2 DUP4 SUB SUB DUP2 MSTORE SWAP1 PUSH1 0x40 MSTORE SWAP1 PUSH2 0x14BF JUMPI PUSH1 0x40 MLOAD PUSH32 0x8C379A000000000000000000000000000000000000000000000000000000000 DUP2 MSTORE PUSH1 0x4 ADD PUSH2 0x14B6 SWAP2 SWAP1 PUSH2 0x1FA7 JUMP JUMPDEST PUSH1 0x40 MLOAD DUP1 SWAP2 SUB SWAP1 REVERT JUMPDEST POP PUSH2 0x14C8 PUSH2 0x74E JUMP JUMPDEST ISZERO PUSH2 0x1508 JUMPI PUSH1 0x40 MLOAD PUSH32 0x8C379A000000000000000000000000000000000000000000000000000000000 DUP2 MSTORE PUSH1 0x4 ADD PUSH2 0x14FF SWAP1 PUSH2 0x2529 JUMP JUMPDEST PUSH1 0x40 MLOAD DUP1 SWAP2 SUB SWAP1 REVERT JUMPDEST PUSH32 0x0 PUSH20 0xFFFFFFFFFFFFFFFFFFFFFFFFFFFFFFFFFFFFFFFF AND PUSH4 0x23B872DD CALLER ADDRESS DUP5 PUSH1 0x40 MLOAD DUP5 PUSH4 0xFFFFFFFF AND PUSH1 0xE0 SHL DUP2 MSTORE PUSH1 0x4 ADD PUSH2 0x1565 SWAP4 SWAP3 SWAP2 SWAP1 PUSH2 0x262B JUMP JUMPDEST PUSH1 0x20 PUSH1 0x40 MLOAD DUP1 DUP4 SUB DUP2 PUSH0 DUP8 GAS CALL ISZERO DUP1 ISZERO PUSH2 0x1581 JUMPI RETURNDATASIZE PUSH0 DUP1 RETURNDATACOPY RETURNDATASIZE PUSH0 REVERT JUMPDEST POP POP POP POP PUSH1 0x40 MLOAD RETURNDATASIZE PUSH1 0x1F NOT PUSH1 0x1F DUP3 ADD AND DUP3 ADD DUP1 PUSH1 0x40 MSTORE POP DUP2 ADD SWAP1 PUSH2 0x15A5 SWAP2 SWAP1 PUSH2 0x23B5 JUMP JUMPDEST POP DUP1 PUSH1 0x2 PUSH0 CALLER PUSH20 0xFFFFFFFFFFFFFFFFFFFFFFFFFFFFFFFFFFFFFFFF AND PUSH20 0xFFFFFFFFFFFFFFFFFFFFFFFFFFFFFFFFFFFFFFFF AND DUP2 MSTORE PUSH1 0x20 ADD SWAP1 DUP2 MSTORE PUSH1 0x20 ADD PUSH0 KECCAK256 PUSH0 DUP3 DUP3 SLOAD PUSH2 0x15F2 SWAP2 SWAP1 PUSH2 0x22C9 JUMP JUMPDEST SWAP3 POP POP DUP2 SWAP1 SSTORE POP PUSH0 PUSH1 0x2 PUSH0 CALLER PUSH20 0xFFFFFFFFFFFFFFFFFFFFFFFFFFFFFFFFFFFFFFFF AND PUSH20 0xFFFFFFFFFFFFFFFFFFFFFFFFFFFFFFFFFFFFFFFF AND DUP2 MSTORE PUSH1 0x20 ADD SWAP1 DUP2 MSTORE PUSH1 0x20 ADD PUSH0 KECCAK256 SLOAD SUB PUSH2 0x169E JUMPI PUSH1 0x4 CALLER SWAP1 DUP1 PUSH1 0x1 DUP2 SLOAD ADD DUP1 DUP3 SSTORE DUP1 SWAP2 POP POP PUSH1 0x1 SWAP1 SUB SWAP1 PUSH0 MSTORE PUSH1 0x20 PUSH0 KECCAK256 ADD PUSH0 SWAP1 SWAP2 SWAP1 SWAP2 SWAP1 SWAP2 PUSH2 0x100 EXP DUP2 SLOAD DUP2 PUSH20 0xFFFFFFFFFFFFFFFFFFFFFFFFFFFFFFFFFFFFFFFF MUL NOT AND SWAP1 DUP4 PUSH20 0xFFFFFFFFFFFFFFFFFFFFFFFFFFFFFFFFFFFFFFFF AND MUL OR SWAP1 SSTORE POP JUMPDEST DUP1 PUSH1 0x6 PUSH0 DUP3 DUP3 SLOAD PUSH2 0x16AF SWAP2 SWAP1 PUSH2 0x22C9 JUMP JUMPDEST SWAP3 POP POP DUP2 SWAP1 SSTORE POP PUSH32 0x4A451432327CDE4EBA7A5CB53D98B0F209EA7C64F931ECEBE3986A1E4468BDD DUP2 PUSH1 0x40 MLOAD DUP1 PUSH1 0x40 ADD PUSH1 0x40 MSTORE DUP1 PUSH1 0x3 DUP2 MSTORE PUSH1 0x20 ADD PUSH32 0x4144540000000000000000000000000000000000000000000000000000000000 DUP2 MSTORE POP CALLER PUSH1 0x40 MLOAD PUSH2 0x171E SWAP4 SWAP3 SWAP2 SWAP1 PUSH2 0x2591 JUMP JUMPDEST PUSH1 0x40 MLOAD DUP1 SWAP2 SUB SWAP1 LOG1 POP JUMP JUMPDEST PUSH1 0x60 PUSH0 PUSH1 0x1 PUSH2 0x1737 DUP5 PUSH2 0x1898 JUMP JUMPDEST ADD SWAP1 POP PUSH0 DUP2 PUSH8 0xFFFFFFFFFFFFFFFF DUP2 GT ISZERO PUSH2 0x1755 JUMPI PUSH2 0x1754 PUSH2 0x1AFD JUMP JUMPDEST JUMPDEST PUSH1 0x40 MLOAD SWAP1 DUP1 DUP3 MSTORE DUP1 PUSH1 0x1F ADD PUSH1 0x1F NOT AND PUSH1 0x20 ADD DUP3 ADD PUSH1 0x40 MSTORE DUP1 ISZERO PUSH2 0x1787 JUMPI DUP2 PUSH1 0x20 ADD PUSH1 0x1 DUP3 MUL DUP1 CALLDATASIZE DUP4 CALLDATACOPY DUP1 DUP3 ADD SWAP2 POP POP SWAP1 POP JUMPDEST POP SWAP1 POP PUSH0 DUP3 PUSH1 0x20 ADD DUP3 ADD SWAP1 POP JUMPDEST PUSH1 0x1 ISZERO PUSH2 0x17E8 JUMPI DUP1 DUP1 PUSH1 0x1 SWAP1 SUB SWAP2 POP POP PUSH32 0x3031323334353637383961626364656600000000000000000000000000000000 PUSH1 0xA DUP7 MOD BYTE DUP2 MSTORE8 PUSH1 0xA DUP6 DUP2 PUSH2 0x17DD JUMPI PUSH2 0x17DC PUSH2 0x2660 JUMP JUMPDEST JUMPDEST DIV SWAP5 POP PUSH0 DUP6 SUB PUSH2 0x1794 JUMPI JUMPDEST DUP2 SWAP4 POP POP POP POP SWAP2 SWAP1 POP JUMP JUMPDEST PUSH0 DUP2 MLOAD DUP4 MLOAD EQ DUP1 ISZERO PUSH2 0x1812 JUMPI POP DUP2 DUP1 MLOAD SWAP1 PUSH1 0x20 ADD KECCAK256 DUP4 DUP1 MLOAD SWAP1 PUSH1 0x20 ADD KECCAK256 EQ JUMPDEST SWAP1 POP SWAP3 SWAP2 POP POP JUMP JUMPDEST PUSH0 DUP1 PUSH0 SWAP1 POP JUMPDEST DUP4 MLOAD DUP2 LT ISZERO PUSH2 0x188D JUMPI DUP3 PUSH20 0xFFFFFFFFFFFFFFFFFFFFFFFFFFFFFFFFFFFFFFFF AND DUP5 DUP3 DUP2 MLOAD DUP2 LT PUSH2 0x1853 JUMPI PUSH2 0x1852 PUSH2 0x268D JUMP JUMPDEST JUMPDEST PUSH1 0x20 MUL PUSH1 0x20 ADD ADD MLOAD PUSH20 0xFFFFFFFFFFFFFFFFFFFFFFFFFFFFFFFFFFFFFFFF AND SUB PUSH2 0x1880 JUMPI PUSH1 0x1 SWAP2 POP POP PUSH2 0x1892 JUMP JUMPDEST DUP1 DUP1 PUSH1 0x1 ADD SWAP2 POP POP PUSH2 0x1820 JUMP JUMPDEST POP PUSH0 SWAP1 POP JUMPDEST SWAP3 SWAP2 POP POP JUMP JUMPDEST PUSH0 DUP1 PUSH0 SWAP1 POP PUSH27 0x184F03E93FF9F4DAA797ED6E38ED64BF6A1F010000000000000000 DUP4 LT PUSH2 0x18F4 JUMPI PUSH27 0x184F03E93FF9F4DAA797ED6E38ED64BF6A1F010000000000000000 DUP4 DUP2 PUSH2 0x18EA JUMPI PUSH2 0x18E9 PUSH2 0x2660 JUMP JUMPDEST JUMPDEST DIV SWAP3 POP PUSH1 0x40 DUP2 ADD SWAP1 POP JUMPDEST PUSH14 0x4EE2D6D415B85ACEF8100000000 DUP4 LT PUSH2 0x1931 JUMPI PUSH14 0x4EE2D6D415B85ACEF8100000000 DUP4 DUP2 PUSH2 0x1927 JUMPI PUSH2 0x1926 PUSH2 0x2660 JUMP JUMPDEST JUMPDEST DIV SWAP3 POP PUSH1 0x20 DUP2 ADD SWAP1 POP JUMPDEST PUSH7 0x2386F26FC10000 DUP4 LT PUSH2 0x1960 JUMPI PUSH7 0x2386F26FC10000 DUP4 DUP2 PUSH2 0x1956 JUMPI PUSH2 0x1955 PUSH2 0x2660 JUMP JUMPDEST JUMPDEST DIV SWAP3 POP PUSH1 0x10 DUP2 ADD SWAP1 POP JUMPDEST PUSH4 0x5F5E100 DUP4 LT PUSH2 0x1989 JUMPI PUSH4 0x5F5E100 DUP4 DUP2 PUSH2 0x197F JUMPI PUSH2 0x197E PUSH2 0x2660 JUMP JUMPDEST JUMPDEST DIV SWAP3 POP PUSH1 0x8 DUP2 ADD SWAP1 POP JUMPDEST PUSH2 0x2710 DUP4 LT PUSH2 0x19AE JUMPI PUSH2 0x2710 DUP4 DUP2 PUSH2 0x19A4 JUMPI PUSH2 0x19A3 PUSH2 0x2660 JUMP JUMPDEST JUMPDEST DIV SWAP3 POP PUSH1 0x4 DUP2 ADD SWAP1 POP JUMPDEST PUSH1 0x64 DUP4 LT PUSH2 0x19D1 JUMPI PUSH1 0x64 DUP4 DUP2 PUSH2 0x19C7 JUMPI PUSH2 0x19C6 PUSH2 0x2660 JUMP JUMPDEST JUMPDEST DIV SWAP3 POP PUSH1 0x2 DUP2 ADD SWAP1 POP JUMPDEST PUSH1 0xA DUP4 LT PUSH2 0x19E0 JUMPI PUSH1 0x1 DUP2 ADD SWAP1 POP JUMPDEST DUP1 SWAP2 POP POP SWAP2 SWAP1 POP JUMP JUMPDEST PUSH0 PUSH1 0x40 MLOAD SWAP1 POP SWAP1 JUMP JUMPDEST PUSH0 DUP1 REVERT JUMPDEST PUSH0 DUP1 REVERT JUMPDEST PUSH0 DUP2 SWAP1 POP SWAP2 SWAP1 POP JUMP JUMPDEST PUSH2 0x1A0C DUP2 PUSH2 0x19FA JUMP JUMPDEST DUP2 EQ PUSH2 0x1A16 JUMPI PUSH0 DUP1 REVERT JUMPDEST POP JUMP JUMPDEST PUSH0 DUP2 CALLDATALOAD SWAP1 POP PUSH2 0x1A27 DUP2 PUSH2 0x1A03 JUMP JUMPDEST SWAP3 SWAP2 POP POP JUMP JUMPDEST PUSH0 PUSH1 0x20 DUP3 DUP5 SUB SLT ISZERO PUSH2 0x1A42 JUMPI PUSH2 0x1A41 PUSH2 0x19F2 JUMP JUMPDEST JUMPDEST PUSH0 PUSH2 0x1A4F DUP5 DUP3 DUP6 ADD PUSH2 0x1A19 JUMP JUMPDEST SWAP2 POP POP SWAP3 SWAP2 POP POP JUMP JUMPDEST PUSH0 DUP2 ISZERO ISZERO SWAP1 POP SWAP2 SWAP1 POP JUMP JUMPDEST PUSH2 0x1A6C DUP2 PUSH2 0x1A58 JUMP JUMPDEST DUP3 MSTORE POP POP JUMP JUMPDEST PUSH0 PUSH1 0x20 DUP3 ADD SWAP1 POP PUSH2 0x1A85 PUSH0 DUP4 ADD DUP5 PUSH2 0x1A63 JUMP JUMPDEST SWAP3 SWAP2 POP POP JUMP JUMPDEST PUSH0 PUSH20 0xFFFFFFFFFFFFFFFFFFFFFFFFFFFFFFFFFFFFFFFF DUP3 AND SWAP1 POP SWAP2 SWAP1 POP JUMP JUMPDEST PUSH0 PUSH2 0x1AB4 DUP3 PUSH2 0x1A8B JUMP JUMPDEST SWAP1 POP SWAP2 SWAP1 POP JUMP JUMPDEST PUSH2 0x1AC4 DUP2 PUSH2 0x1AAA JUMP JUMPDEST DUP2 EQ PUSH2 0x1ACE JUMPI PUSH0 DUP1 REVERT JUMPDEST POP JUMP JUMPDEST PUSH0 DUP2 CALLDATALOAD SWAP1 POP PUSH2 0x1ADF DUP2 PUSH2 0x1ABB JUMP JUMPDEST SWAP3 SWAP2 POP POP JUMP JUMPDEST PUSH0 DUP1 REVERT JUMPDEST PUSH0 DUP1 REVERT JUMPDEST PUSH0 PUSH1 0x1F NOT PUSH1 0x1F DUP4 ADD AND SWAP1 POP SWAP2 SWAP1 POP JUMP JUMPDEST PUSH32 0x4E487B7100000000000000000000000000000000000000000000000000000000 PUSH0 MSTORE PUSH1 0x41 PUSH1 0x4 MSTORE PUSH1 0x24 PUSH0 REVERT JUMPDEST PUSH2 0x1B33 DUP3 PUSH2 0x1AED JUMP JUMPDEST DUP2 ADD DUP2 DUP2 LT PUSH8 0xFFFFFFFFFFFFFFFF DUP3 GT OR ISZERO PUSH2 0x1B52 JUMPI PUSH2 0x1B51 PUSH2 0x1AFD JUMP JUMPDEST JUMPDEST DUP1 PUSH1 0x40 MSTORE POP POP POP JUMP JUMPDEST PUSH0 PUSH2 0x1B64 PUSH2 0x19E9 JUMP JUMPDEST SWAP1 POP PUSH2 0x1B70 DUP3 DUP3 PUSH2 0x1B2A JUMP JUMPDEST SWAP2 SWAP1 POP JUMP JUMPDEST PUSH0 PUSH8 0xFFFFFFFFFFFFFFFF DUP3 GT ISZERO PUSH2 0x1B8F JUMPI PUSH2 0x1B8E PUSH2 0x1AFD JUMP JUMPDEST JUMPDEST PUSH2 0x1B98 DUP3 PUSH2 0x1AED JUMP JUMPDEST SWAP1 POP PUSH1 0x20 DUP2 ADD SWAP1 POP SWAP2 SWAP1 POP JUMP JUMPDEST DUP3 DUP2 DUP4 CALLDATACOPY PUSH0 DUP4 DUP4 ADD MSTORE POP POP POP JUMP JUMPDEST PUSH0 PUSH2 0x1BC5 PUSH2 0x1BC0 DUP5 PUSH2 0x1B75 JUMP JUMPDEST PUSH2 0x1B5B JUMP JUMPDEST SWAP1 POP DUP3 DUP2 MSTORE PUSH1 0x20 DUP2 ADD DUP5 DUP5 DUP5 ADD GT ISZERO PUSH2 0x1BE1 JUMPI PUSH2 0x1BE0 PUSH2 0x1AE9 JUMP JUMPDEST JUMPDEST PUSH2 0x1BEC DUP5 DUP3 DUP6 PUSH2 0x1BA5 JUMP JUMPDEST POP SWAP4 SWAP3 POP POP POP JUMP JUMPDEST PUSH0 DUP3 PUSH1 0x1F DUP4 ADD SLT PUSH2 0x1C08 JUMPI PUSH2 0x1C07 PUSH2 0x1AE5 JUMP JUMPDEST JUMPDEST DUP2 CALLDATALOAD PUSH2 0x1C18 DUP5 DUP3 PUSH1 0x20 DUP7 ADD PUSH2 0x1BB3 JUMP JUMPDEST SWAP2 POP POP SWAP3 SWAP2 POP POP JUMP JUMPDEST PUSH0 DUP1 PUSH1 0x40 DUP4 DUP6 SUB SLT ISZERO PUSH2 0x1C37 JUMPI PUSH2 0x1C36 PUSH2 0x19F2 JUMP JUMPDEST JUMPDEST PUSH0 PUSH2 0x1C44 DUP6 DUP3 DUP7 ADD PUSH2 0x1AD1 JUMP JUMPDEST SWAP3 POP POP PUSH1 0x20 DUP4 ADD CALLDATALOAD PUSH8 0xFFFFFFFFFFFFFFFF DUP2 GT ISZERO PUSH2 0x1C65 JUMPI PUSH2 0x1C64 PUSH2 0x19F6 JUMP JUMPDEST JUMPDEST PUSH2 0x1C71 DUP6 DUP3 DUP7 ADD PUSH2 0x1BF4 JUMP JUMPDEST SWAP2 POP POP SWAP3 POP SWAP3 SWAP1 POP JUMP JUMPDEST PUSH2 0x1C84 DUP2 PUSH2 0x19FA JUMP JUMPDEST DUP3 MSTORE POP POP JUMP JUMPDEST PUSH0 PUSH1 0x20 DUP3 ADD SWAP1 POP PUSH2 0x1C9D PUSH0 DUP4 ADD DUP5 PUSH2 0x1C7B JUMP JUMPDEST SWAP3 SWAP2 POP POP JUMP JUMPDEST PUSH0 PUSH1 0x20 DUP3 DUP5 SUB SLT ISZERO PUSH2 0x1CB8 JUMPI PUSH2 0x1CB7 PUSH2 0x19F2 JUMP JUMPDEST JUMPDEST PUSH0 DUP3 ADD CALLDATALOAD PUSH8 0xFFFFFFFFFFFFFFFF DUP2 GT ISZERO PUSH2 0x1CD5 JUMPI PUSH2 0x1CD4 PUSH2 0x19F6 JUMP JUMPDEST JUMPDEST PUSH2 0x1CE1 DUP5 DUP3 DUP6 ADD PUSH2 0x1BF4 JUMP JUMPDEST SWAP2 POP POP SWAP3 SWAP2 POP POP JUMP JUMPDEST PUSH0 DUP2 MLOAD SWAP1 POP SWAP2 SWAP1 POP JUMP JUMPDEST PUSH0 DUP3 DUP3 MSTORE PUSH1 0x20 DUP3 ADD SWAP1 POP SWAP3 SWAP2 POP POP JUMP JUMPDEST PUSH0 DUP2 SWAP1 POP PUSH1 0x20 DUP3 ADD SWAP1 POP SWAP2 SWAP1 POP JUMP JUMPDEST PUSH2 0x1D1C DUP2 PUSH2 0x1AAA JUMP JUMPDEST DUP3 MSTORE POP POP JUMP JUMPDEST PUSH0 PUSH2 0x1D2D DUP4 DUP4 PUSH2 0x1D13 JUMP JUMPDEST PUSH1 0x20 DUP4 ADD SWAP1 POP SWAP3 SWAP2 POP POP JUMP JUMPDEST PUSH0 PUSH1 0x20 DUP3 ADD SWAP1 POP SWAP2 SWAP1 POP JUMP JUMPDEST PUSH0 PUSH2 0x1D4F DUP3 PUSH2 0x1CEA JUMP JUMPDEST PUSH2 0x1D59 DUP2 DUP6 PUSH2 0x1CF4 JUMP JUMPDEST SWAP4 POP PUSH2 0x1D64 DUP4 PUSH2 0x1D04 JUMP JUMPDEST DUP1 PUSH0 JUMPDEST DUP4 DUP2 LT ISZERO PUSH2 0x1D94 JUMPI DUP2 MLOAD PUSH2 0x1D7B DUP9 DUP3 PUSH2 0x1D22 JUMP JUMPDEST SWAP8 POP PUSH2 0x1D86 DUP4 PUSH2 0x1D39 JUMP JUMPDEST SWAP3 POP POP PUSH1 0x1 DUP2 ADD SWAP1 POP PUSH2 0x1D67 JUMP JUMPDEST POP DUP6 SWAP4 POP POP POP POP SWAP3 SWAP2 POP POP JUMP JUMPDEST PUSH0 PUSH1 0x20 DUP3 ADD SWAP1 POP DUP2 DUP2 SUB PUSH0 DUP4 ADD MSTORE PUSH2 0x1DB9 DUP2 DUP5 PUSH2 0x1D45 JUMP JUMPDEST SWAP1 POP SWAP3 SWAP2 POP POP JUMP JUMPDEST PUSH0 PUSH1 0x20 DUP3 DUP5 SUB SLT ISZERO PUSH2 0x1DD6 JUMPI PUSH2 0x1DD5 PUSH2 0x19F2 JUMP JUMPDEST JUMPDEST PUSH0 PUSH2 0x1DE3 DUP5 DUP3 DUP6 ADD PUSH2 0x1AD1 JUMP JUMPDEST SWAP2 POP POP SWAP3 SWAP2 POP POP JUMP JUMPDEST PUSH2 0x1DF5 DUP2 PUSH2 0x1AAA JUMP JUMPDEST DUP3 MSTORE POP POP JUMP JUMPDEST PUSH0 PUSH1 0x20 DUP3 ADD SWAP1 POP PUSH2 0x1E0E PUSH0 DUP4 ADD DUP5 PUSH2 0x1DEC JUMP JUMPDEST SWAP3 SWAP2 POP POP JUMP JUMPDEST PUSH0 DUP3 DUP3 MSTORE PUSH1 0x20 DUP3 ADD SWAP1 POP SWAP3 SWAP2 POP POP JUMP JUMPDEST PUSH32 0x43616C6C6572206973206E6F74206F776E657200000000000000000000000000 PUSH0 DUP3 ADD MSTORE POP JUMP JUMPDEST PUSH0 PUSH2 0x1E58 PUSH1 0x13 DUP4 PUSH2 0x1E14 JUMP JUMPDEST SWAP2 POP PUSH2 0x1E63 DUP3 PUSH2 0x1E24 JUMP JUMPDEST PUSH1 0x20 DUP3 ADD SWAP1 POP SWAP2 SWAP1 POP JUMP JUMPDEST PUSH0 PUSH1 0x20 DUP3 ADD SWAP1 POP DUP2 DUP2 SUB PUSH0 DUP4 ADD MSTORE PUSH2 0x1E85 DUP2 PUSH2 0x1E4C JUMP JUMPDEST SWAP1 POP SWAP2 SWAP1 POP JUMP JUMPDEST PUSH0 DUP2 MLOAD SWAP1 POP SWAP2 SWAP1 POP JUMP JUMPDEST PUSH0 DUP2 SWAP1 POP SWAP3 SWAP2 POP POP JUMP JUMPDEST DUP3 DUP2 DUP4 MCOPY PUSH0 DUP4 DUP4 ADD MSTORE POP POP POP JUMP JUMPDEST PUSH0 PUSH2 0x1EB8 DUP3 PUSH2 0x1E8C JUMP JUMPDEST PUSH2 0x1EC2 DUP2 DUP6 PUSH2 0x1E96 JUMP JUMPDEST SWAP4 POP PUSH2 0x1ED2 DUP2 DUP6 PUSH1 0x20 DUP7 ADD PUSH2 0x1EA0 JUMP JUMPDEST DUP1 DUP5 ADD SWAP2 POP POP SWAP3 SWAP2 POP POP JUMP JUMPDEST PUSH32 0x206973206D696E696D756D2076616C756520746F20736574206C6F7765722064 PUSH0 DUP3 ADD MSTORE PUSH32 0x6F6E6174696F6E00000000000000000000000000000000000000000000000000 PUSH1 0x20 DUP3 ADD MSTORE POP JUMP JUMPDEST PUSH0 PUSH2 0x1F38 PUSH1 0x27 DUP4 PUSH2 0x1E96 JUMP JUMPDEST SWAP2 POP PUSH2 0x1F43 DUP3 PUSH2 0x1EDE JUMP JUMPDEST PUSH1 0x27 DUP3 ADD SWAP1 POP SWAP2 SWAP1 POP JUMP JUMPDEST PUSH0 PUSH2 0x1F59 DUP3 DUP5 PUSH2 0x1EAE JUMP JUMPDEST SWAP2 POP PUSH2 0x1F64 DUP3 PUSH2 0x1F2C JUMP JUMPDEST SWAP2 POP DUP2 SWAP1 POP SWAP3 SWAP2 POP POP JUMP JUMPDEST PUSH0 PUSH2 0x1F79 DUP3 PUSH2 0x1E8C JUMP JUMPDEST PUSH2 0x1F83 DUP2 DUP6 PUSH2 0x1E14 JUMP JUMPDEST SWAP4 POP PUSH2 0x1F93 DUP2 DUP6 PUSH1 0x20 DUP7 ADD PUSH2 0x1EA0 JUMP JUMPDEST PUSH2 0x1F9C DUP2 PUSH2 0x1AED JUMP JUMPDEST DUP5 ADD SWAP2 POP POP SWAP3 SWAP2 POP POP JUMP JUMPDEST PUSH0 PUSH1 0x20 DUP3 ADD SWAP1 POP DUP2 DUP2 SUB PUSH0 DUP4 ADD MSTORE PUSH2 0x1FBF DUP2 DUP5 PUSH2 0x1F6F JUMP JUMPDEST SWAP1 POP SWAP3 SWAP2 POP POP JUMP JUMPDEST PUSH32 0x416C6C6F776564206F6E6C7920666F7220726570726573656E74617469766500 PUSH0 DUP3 ADD MSTORE POP JUMP JUMPDEST PUSH0 PUSH2 0x1FFB PUSH1 0x1F DUP4 PUSH2 0x1E14 JUMP JUMPDEST SWAP2 POP PUSH2 0x2006 DUP3 PUSH2 0x1FC7 JUMP JUMPDEST PUSH1 0x20 DUP3 ADD SWAP1 POP SWAP2 SWAP1 POP JUMP JUMPDEST PUSH0 PUSH1 0x20 DUP3 ADD SWAP1 POP DUP2 DUP2 SUB PUSH0 DUP4 ADD MSTORE PUSH2 0x2028 DUP2 PUSH2 0x1FEF JUMP JUMPDEST SWAP1 POP SWAP2 SWAP1 POP JUMP JUMPDEST PUSH32 0x44657374696E6174696F6E2061646472206973206E6F74207365740000000000 PUSH0 DUP3 ADD MSTORE POP JUMP JUMPDEST PUSH0 PUSH2 0x2063 PUSH1 0x1B DUP4 PUSH2 0x1E14 JUMP JUMPDEST SWAP2 POP PUSH2 0x206E DUP3 PUSH2 0x202F JUMP JUMPDEST PUSH1 0x20 DUP3 ADD SWAP1 POP SWAP2 SWAP1 POP JUMP JUMPDEST PUSH0 PUSH1 0x20 DUP3 ADD SWAP1 POP DUP2 DUP2 SUB PUSH0 DUP4 ADD MSTORE PUSH2 0x2090 DUP2 PUSH2 0x2057 JUMP JUMPDEST SWAP1 POP SWAP2 SWAP1 POP JUMP JUMPDEST PUSH32 0x4973206E6F7420646561646C696E652079657400000000000000000000000000 PUSH0 DUP3 ADD MSTORE POP JUMP JUMPDEST PUSH0 PUSH2 0x20CB PUSH1 0x13 DUP4 PUSH2 0x1E14 JUMP JUMPDEST SWAP2 POP PUSH2 0x20D6 DUP3 PUSH2 0x2097 JUMP JUMPDEST PUSH1 0x20 DUP3 ADD SWAP1 POP SWAP2 SWAP1 POP JUMP JUMPDEST PUSH0 PUSH1 0x20 DUP3 ADD SWAP1 POP DUP2 DUP2 SUB PUSH0 DUP4 ADD MSTORE PUSH2 0x20F8 DUP2 PUSH2 0x20BF JUMP JUMPDEST SWAP1 POP SWAP2 SWAP1 POP JUMP JUMPDEST PUSH0 DUP2 SWAP1 POP SWAP3 SWAP2 POP POP JUMP JUMPDEST POP JUMP JUMPDEST PUSH0 PUSH2 0x2117 PUSH0 DUP4 PUSH2 0x20FF JUMP JUMPDEST SWAP2 POP PUSH2 0x2122 DUP3 PUSH2 0x2109 JUMP JUMPDEST PUSH0 DUP3 ADD SWAP1 POP SWAP2 SWAP1 POP JUMP JUMPDEST PUSH0 PUSH2 0x2136 DUP3 PUSH2 0x210C JUMP JUMPDEST SWAP2 POP DUP2 SWAP1 POP SWAP2 SWAP1 POP JUMP JUMPDEST PUSH32 0x4661696C656420746F2073656E6420646F6E6174696F6E730000000000000000 PUSH0 DUP3 ADD MSTORE POP JUMP JUMPDEST PUSH0 PUSH2 0x2174 PUSH1 0x18 DUP4 PUSH2 0x1E14 JUMP JUMPDEST SWAP2 POP PUSH2 0x217F DUP3 PUSH2 0x2140 JUMP JUMPDEST PUSH1 0x20 DUP3 ADD SWAP1 POP SWAP2 SWAP1 POP JUMP JUMPDEST PUSH0 PUSH1 0x20 DUP3 ADD SWAP1 POP DUP2 DUP2 SUB PUSH0 DUP4 ADD MSTORE PUSH2 0x21A1 DUP2 PUSH2 0x2168 JUMP JUMPDEST SWAP1 POP SWAP2 SWAP1 POP JUMP JUMPDEST PUSH32 0x776974686472617742616C616E63650000000000000000000000000000000000 PUSH0 DUP3 ADD MSTORE POP JUMP JUMPDEST PUSH0 PUSH2 0x21DC PUSH1 0xF DUP4 PUSH2 0x1E14 JUMP JUMPDEST SWAP2 POP PUSH2 0x21E7 DUP3 PUSH2 0x21A8 JUMP JUMPDEST PUSH1 0x20 DUP3 ADD SWAP1 POP SWAP2 SWAP1 POP JUMP JUMPDEST PUSH0 DUP2 SWAP1 POP SWAP2 SWAP1 POP JUMP JUMPDEST PUSH0 PUSH2 0x2215 PUSH2 0x2210 PUSH2 0x220B DUP5 PUSH2 0x1A8B JUMP JUMPDEST PUSH2 0x21F2 JUMP JUMPDEST PUSH2 0x1A8B JUMP JUMPDEST SWAP1 POP SWAP2 SWAP1 POP JUMP JUMPDEST PUSH0 PUSH2 0x2226 DUP3 PUSH2 0x21FB JUMP JUMPDEST SWAP1 POP SWAP2 SWAP1 POP JUMP JUMPDEST PUSH0 PUSH2 0x2237 DUP3 PUSH2 0x221C JUMP JUMPDEST SWAP1 POP SWAP2 SWAP1 POP JUMP JUMPDEST PUSH2 0x2247 DUP2 PUSH2 0x222D JUMP JUMPDEST DUP3 MSTORE POP POP JUMP JUMPDEST PUSH0 PUSH1 0x80 DUP3 ADD SWAP1 POP DUP2 DUP2 SUB PUSH0 DUP4 ADD MSTORE PUSH2 0x2264 DUP2 PUSH2 0x21D0 JUMP JUMPDEST SWAP1 POP PUSH2 0x2273 PUSH1 0x20 DUP4 ADD DUP7 PUSH2 0x1C7B JUMP JUMPDEST DUP2 DUP2 SUB PUSH1 0x40 DUP4 ADD MSTORE PUSH2 0x2285 DUP2 DUP6 PUSH2 0x1F6F JUMP JUMPDEST SWAP1 POP PUSH2 0x2294 PUSH1 0x60 DUP4 ADD DUP5 PUSH2 0x223E JUMP JUMPDEST SWAP5 SWAP4 POP POP POP POP JUMP JUMPDEST PUSH32 0x4E487B7100000000000000000000000000000000000000000000000000000000 PUSH0 MSTORE PUSH1 0x11 PUSH1 0x4 MSTORE PUSH1 0x24 PUSH0 REVERT JUMPDEST PUSH0 PUSH2 0x22D3 DUP3 PUSH2 0x19FA JUMP JUMPDEST SWAP2 POP PUSH2 0x22DE DUP4 PUSH2 0x19FA JUMP JUMPDEST SWAP3 POP DUP3 DUP3 ADD SWAP1 POP DUP1 DUP3 GT ISZERO PUSH2 0x22F6 JUMPI PUSH2 0x22F5 PUSH2 0x229C JUMP JUMPDEST JUMPDEST SWAP3 SWAP2 POP POP JUMP JUMPDEST PUSH32 0x496E76616C69642063757272656E637900000000000000000000000000000000 PUSH0 DUP3 ADD MSTORE POP JUMP JUMPDEST PUSH0 PUSH2 0x2330 PUSH1 0x10 DUP4 PUSH2 0x1E14 JUMP JUMPDEST SWAP2 POP PUSH2 0x233B DUP3 PUSH2 0x22FC JUMP JUMPDEST PUSH1 0x20 DUP3 ADD SWAP1 POP SWAP2 SWAP1 POP JUMP JUMPDEST PUSH0 PUSH1 0x20 DUP3 ADD SWAP1 POP DUP2 DUP2 SUB PUSH0 DUP4 ADD MSTORE PUSH2 0x235D DUP2 PUSH2 0x2324 JUMP JUMPDEST SWAP1 POP SWAP2 SWAP1 POP JUMP JUMPDEST PUSH0 PUSH1 0x40 DUP3 ADD SWAP1 POP PUSH2 0x2377 PUSH0 DUP4 ADD DUP6 PUSH2 0x223E JUMP JUMPDEST PUSH2 0x2384 PUSH1 0x20 DUP4 ADD DUP5 PUSH2 0x1C7B JUMP JUMPDEST SWAP4 SWAP3 POP POP POP JUMP JUMPDEST PUSH2 0x2394 DUP2 PUSH2 0x1A58 JUMP JUMPDEST DUP2 EQ PUSH2 0x239E JUMPI PUSH0 DUP1 REVERT JUMPDEST POP JUMP JUMPDEST PUSH0 DUP2 MLOAD SWAP1 POP PUSH2 0x23AF DUP2 PUSH2 0x238B JUMP JUMPDEST SWAP3 SWAP2 POP POP JUMP JUMPDEST PUSH0 PUSH1 0x20 DUP3 DUP5 SUB SLT ISZERO PUSH2 0x23CA JUMPI PUSH2 0x23C9 PUSH2 0x19F2 JUMP JUMPDEST JUMPDEST PUSH0 PUSH2 0x23D7 DUP5 DUP3 DUP6 ADD PUSH2 0x23A1 JUMP JUMPDEST SWAP2 POP POP SWAP3 SWAP2 POP POP JUMP JUMPDEST PUSH32 0x4661696C656420746F207472616E6665722041445420746F2064657374696E61 PUSH0 DUP3 ADD MSTORE PUSH32 0x74696F6E20616464726573730000000000000000000000000000000000000000 PUSH1 0x20 DUP3 ADD MSTORE POP JUMP JUMPDEST PUSH0 PUSH2 0x243A PUSH1 0x2C DUP4 PUSH2 0x1E14 JUMP JUMPDEST SWAP2 POP PUSH2 0x2445 DUP3 PUSH2 0x23E0 JUMP JUMPDEST PUSH1 0x40 DUP3 ADD SWAP1 POP SWAP2 SWAP1 POP JUMP JUMPDEST PUSH0 PUSH1 0x20 DUP3 ADD SWAP1 POP DUP2 DUP2 SUB PUSH0 DUP4 ADD MSTORE PUSH2 0x2467 DUP2 PUSH2 0x242E JUMP JUMPDEST SWAP1 POP SWAP2 SWAP1 POP JUMP JUMPDEST PUSH32 0x206973206D696E696D756D2076616C7565000000000000000000000000000000 DUP2 MSTORE POP JUMP JUMPDEST PUSH0 PUSH2 0x249F DUP3 DUP5 PUSH2 0x1EAE JUMP JUMPDEST SWAP2 POP PUSH2 0x24AA DUP3 PUSH2 0x246E JUMP JUMPDEST PUSH1 0x11 DUP3 ADD SWAP2 POP DUP2 SWAP1 POP SWAP3 SWAP2 POP POP JUMP JUMPDEST PUSH32 0x446F6E6174696F6E206E6F7420616C6C6F77656420616674657220646561646C PUSH0 DUP3 ADD MSTORE PUSH32 0x696E650000000000000000000000000000000000000000000000000000000000 PUSH1 0x20 DUP3 ADD MSTORE POP JUMP JUMPDEST PUSH0 PUSH2 0x2513 PUSH1 0x23 DUP4 PUSH2 0x1E14 JUMP JUMPDEST SWAP2 POP PUSH2 0x251E DUP3 PUSH2 0x24B9 JUMP JUMPDEST PUSH1 0x40 DUP3 ADD SWAP1 POP SWAP2 SWAP1 POP JUMP JUMPDEST PUSH0 PUSH1 0x20 DUP3 ADD SWAP1 POP DUP2 DUP2 SUB PUSH0 DUP4 ADD MSTORE PUSH2 0x2540 DUP2 PUSH2 0x2507 JUMP JUMPDEST SWAP1 POP SWAP2 SWAP1 POP JUMP JUMPDEST PUSH32 0x646F6E6174650000000000000000000000000000000000000000000000000000 PUSH0 DUP3 ADD MSTORE POP JUMP JUMPDEST PUSH0 PUSH2 0x257B PUSH1 0x6 DUP4 PUSH2 0x1E14 JUMP JUMPDEST SWAP2 POP PUSH2 0x2586 DUP3 PUSH2 0x2547 JUMP JUMPDEST PUSH1 0x20 DUP3 ADD SWAP1 POP SWAP2 SWAP1 POP JUMP JUMPDEST PUSH0 PUSH1 0x80 DUP3 ADD SWAP1 POP DUP2 DUP2 SUB PUSH0 DUP4 ADD MSTORE PUSH2 0x25A8 DUP2 PUSH2 0x256F JUMP JUMPDEST SWAP1 POP PUSH2 0x25B7 PUSH1 0x20 DUP4 ADD DUP7 PUSH2 0x1C7B JUMP JUMPDEST DUP2 DUP2 SUB PUSH1 0x40 DUP4 ADD MSTORE PUSH2 0x25C9 DUP2 DUP6 PUSH2 0x1F6F JUMP JUMPDEST SWAP1 POP PUSH2 0x25D8 PUSH1 0x60 DUP4 ADD DUP5 PUSH2 0x1DEC JUMP JUMPDEST SWAP5 SWAP4 POP POP POP POP JUMP JUMPDEST PUSH32 0x206973206D696E696D756D2076616C756520696E204144540000000000000000 DUP2 MSTORE POP JUMP JUMPDEST PUSH0 PUSH2 0x2611 DUP3 DUP5 PUSH2 0x1EAE JUMP JUMPDEST SWAP2 POP PUSH2 0x261C DUP3 PUSH2 0x25E0 JUMP JUMPDEST PUSH1 0x18 DUP3 ADD SWAP2 POP DUP2 SWAP1 POP SWAP3 SWAP2 POP POP JUMP JUMPDEST PUSH0 PUSH1 0x60 DUP3 ADD SWAP1 POP PUSH2 0x263E PUSH0 DUP4 ADD DUP7 PUSH2 0x1DEC JUMP JUMPDEST PUSH2 0x264B PUSH1 0x20 DUP4 ADD DUP6 PUSH2 0x1DEC JUMP JUMPDEST PUSH2 0x2658 PUSH1 0x40 DUP4 ADD DUP5 PUSH2 0x1C7B JUMP JUMPDEST SWAP5 SWAP4 POP POP POP POP JUMP JUMPDEST PUSH32 0x4E487B7100000000000000000000000000000000000000000000000000000000 PUSH0 MSTORE PUSH1 0x12 PUSH1 0x4 MSTORE PUSH1 0x24 PUSH0 REVERT JUMPDEST PUSH32 0x4E487B7100000000000000000000000000000000000000000000000000000000 PUSH0 MSTORE PUSH1 0x32 PUSH1 0x4 MSTORE PUSH1 0x24 PUSH0 REVERT INVALID LOG2 PUSH5 0x6970667358 0x22 SLT KECCAK256 0xC1 0xDE PUSH23 0x23F043C855CBFC052AA342677871352B48A4FFCEFCE7CA 0xD6 SWAP13 0xAF 0xC8 0xF6 PUSH16 0x64736F6C634300081A00330000000000 "
				},
				"gasEstimates": {
					"creation": {
						"codeDepositCost": "1993600",
						"executionCost": "infinite",
						"totalCost": "infinite"
					},
					"external": {
						"donate()": "infinite",
						"donateADT(uint256)": "infinite",
						"getDonatedTotal(string)": "infinite",
						"getDonationValueByAddr(address,string)": "infinite",
						"getDonators(string)": "infinite",
						"getOwnerAdress()": "2560",
						"isDeadline()": "infinite",
						"setCherityDestinationAddress(address)": "26948",
						"setCherityRepresentativeAddress(address)": "26904",
						"setDeadline(uint256)": "24682",
						"setMinumumDonationValue(uint256)": "infinite",
						"withdraw()": "infinite",
						"withdrawADT()": "infinite"
					},
					"internal": {
						"_existsAddressItem(address[] memory,address)": "infinite"
					}
				},
				"methodIdentifiers": {
					"donate()": "ed88c68e",
					"donateADT(uint256)": "fa7b8305",
					"getDonatedTotal(string)": "ef4fdda2",
					"getDonationValueByAddr(address,string)": "55da68b3",
					"getDonators(string)": "6e696126",
					"getOwnerAdress()": "c12cfa63",
					"isDeadline()": "528a28b7",
					"setCherityDestinationAddress(address)": "c2348491",
					"setCherityRepresentativeAddress(address)": "811d36e9",
					"setDeadline(uint256)": "195199f6",
					"setMinumumDonationValue(uint256)": "1e09c9ca",
					"withdraw()": "3ccfd60b",
					"withdrawADT()": "cf7d6f04"
				}
			},
			"storageLayout": {
				"storage": [
					{
						"astId": 1487,
						"contract": "Volunteer_flattened.sol:Volunteer",
						"label": "ownerAdrr",
						"offset": 0,
						"slot": "0",
						"type": "t_address"
					},
					{
						"astId": 1491,
						"contract": "Volunteer_flattened.sol:Volunteer",
						"label": "donations",
						"offset": 0,
						"slot": "1",
						"type": "t_mapping(t_address,t_uint256)"
					},
					{
						"astId": 1495,
						"contract": "Volunteer_flattened.sol:Volunteer",
						"label": "donationsInADT",
						"offset": 0,
						"slot": "2",
						"type": "t_mapping(t_address,t_uint256)"
					},
					{
						"astId": 1498,
						"contract": "Volunteer_flattened.sol:Volunteer",
						"label": "donatorAddresses",
						"offset": 0,
						"slot": "3",
						"type": "t_array(t_address)dyn_storage"
					},
					{
						"astId": 1501,
						"contract": "Volunteer_flattened.sol:Volunteer",
						"label": "donatorAddressesADT",
						"offset": 0,
						"slot": "4",
						"type": "t_array(t_address)dyn_storage"
					},
					{
						"astId": 1503,
						"contract": "Volunteer_flattened.sol:Volunteer",
						"label": "donationTotal",
						"offset": 0,
						"slot": "5",
						"type": "t_uint256"
					},
					{
						"astId": 1505,
						"contract": "Volunteer_flattened.sol:Volunteer",
						"label": "donationTotalADT",
						"offset": 0,
						"slot": "6",
						"type": "t_uint256"
					},
					{
						"astId": 1507,
						"contract": "Volunteer_flattened.sol:Volunteer",
						"label": "minimumDonation",
						"offset": 0,
						"slot": "7",
						"type": "t_uint256"
					},
					{
						"astId": 1509,
						"contract": "Volunteer_flattened.sol:Volunteer",
						"label": "deadline",
						"offset": 0,
						"slot": "8",
						"type": "t_uint256"
					},
					{
						"astId": 1511,
						"contract": "Volunteer_flattened.sol:Volunteer",
						"label": "destinationAddress",
						"offset": 0,
						"slot": "9",
						"type": "t_address_payable"
					},
					{
						"astId": 1513,
						"contract": "Volunteer_flattened.sol:Volunteer",
						"label": "representativeAddress",
						"offset": 0,
						"slot": "10",
						"type": "t_address"
					},
					{
						"astId": 1518,
						"contract": "Volunteer_flattened.sol:Volunteer",
						"label": "startTimestamp",
						"offset": 0,
						"slot": "11",
						"type": "t_uint256"
					}
				],
				"types": {
					"t_address": {
						"encoding": "inplace",
						"label": "address",
						"numberOfBytes": "20"
					},
					"t_address_payable": {
						"encoding": "inplace",
						"label": "address payable",
						"numberOfBytes": "20"
					},
					"t_array(t_address)dyn_storage": {
						"base": "t_address",
						"encoding": "dynamic_array",
						"label": "address[]",
						"numberOfBytes": "32"
					},
					"t_mapping(t_address,t_uint256)": {
						"encoding": "mapping",
						"key": "t_address",
						"label": "mapping(address => uint256)",
						"numberOfBytes": "32",
						"value": "t_uint256"
					},
					"t_uint256": {
						"encoding": "inplace",
						"label": "uint256",
						"numberOfBytes": "32"
					}
				}
			},
			"userdoc": {
				"kind": "user",
				"methods": {},
				"version": 1
			}
		}
	}
}